{
	"compilerInput": "{\"language\":\"Solidity\",\"sources\":{\"contracts/MusicTuneVibe.sol\":{\"content\":\"// SPDX-License-Identifier: MIT\\npragma solidity ^0.8.0;\\n\\nimport \\\"@openzeppelin/contracts@4.2.0/token/ERC1155/ERC1155.sol\\\";\\nimport \\\"@openzeppelin/contracts@4.2.0/utils/Strings.sol\\\";\\nimport \\\"@openzeppelin/contracts@4.2.0/access/Ownable.sol\\\";\\nimport \\\"@openzeppelin/contracts@4.2.0/token/ERC1155/utils/ERC1155Receiver.sol\\\";\\n\\ncontract MusicTuneVibe is ERC1155, Ownable{\\n     string[] public tokens;\\n    string IPFS_PATH;\\n    address private _owner;\\n    uint256 marketFee = 0 ether;\\n\\n    mapping(string => bool) _tokenExists;\\n\\n    event Withdrawal(uint amount, uint when);\\n\\n    event MusicNFTCreated(\\n        uint256 indexed tokenId,\\n        string uri,\\n        uint256 amount,\\n        uint256 price,\\n        address artirt\\n    );\\n\\n    struct Music {\\n        uint256 tokenId;\\n        string uri;\\n        uint256 amount;\\n        uint256 price;\\n        address artirt;\\n    }\\n\\n    event BuyMusicNFT(uint256 indexed tokenId, uint256 amount, uint256 price);\\n\\n    mapping(uint256 => Music) private musics;\\n\\n    constructor(\\n        string memory _ipfs\\n    ) ERC1155(\\\"\\\") Ownable() {\\n        IPFS_PATH = _ipfs;\\n        _owner = msg.sender;\\n    }\\n\\n    function setIPFS(string memory _uri) public onlyOwner {\\n        IPFS_PATH = _uri;\\n    }\\n\\n    function uri(uint256 tokenId) public view override returns (string memory) {\\n        // require(_exists(tokenId), \\\"URI query for nonexistent token\\\");\\n        return string(abi.encodePacked(IPFS_PATH, musics[tokenId].uri));\\n    }\\n\\n    function safeMint(\\n        string memory _token,\\n        uint256 _amount,\\n        uint256 _price\\n    ) public payable {\\n        require(!_tokenExists[_token], \\\"The token URI should be unique\\\");\\n        require(_price > 0, \\\"Price must be positive\\\");\\n        require(msg.value == marketFee, \\\"Your remain money not allow\\\");\\n\\n        payable(address(0)).transfer(msg.value);\\n\\n        tokens.push(_token);\\n        uint256 _id = tokens.length;\\n        _mint(address(this), _id, _amount, \\\"\\\");\\n        musics[_id] = Music(_id, _token, _amount, _price, msg.sender);\\n        _tokenExists[_token] = true;\\n\\n        emit MusicNFTCreated(\\n            _id,\\n            _token,\\n            _amount,\\n            _price,\\n            address(msg.sender)\\n        );\\n    }\\n\\n    function music(uint256 _tokenId) public view returns (Music memory) {\\n        return musics[_tokenId];\\n    }\\n    function memcmp(\\n        bytes memory a,\\n        bytes memory b\\n    ) internal pure returns (bool) {\\n        return (a.length == b.length) && (keccak256(a) == keccak256(b));\\n    }\\n\\n    function tokenByHash(\\n        string memory _hash\\n    ) public view returns (Music memory) {\\n        require(_tokenExists[_hash], \\\"The token URI should be mint\\\");\\n\\n        for (uint256 i = 0; i < tokens.length; i++) {\\n            if (memcmp(bytes(musics[i + 1].uri), bytes(_hash))) {\\n                return musics[i + 1];\\n            }\\n        }\\n        Music memory emptyPropertyObj;\\n        return emptyPropertyObj;\\n    }\\n\\n    function getListingFee() public view returns (uint256) {\\n        return marketFee;\\n    }\\n\\n    function buyNFT(uint256 tokenId, uint256 amount) external payable {\\n        uint256 price = musics[tokenId].price;\\n\\n        uint256 salePrice = price * amount;\\n        require(musics[tokenId].amount >= amount, \\\"ko du nft\\\");\\n        require(\\n            msg.value >= salePrice,\\n            \\\"Needs to be greater or equal to the price.\\\"\\n        );\\n\\n        safeTransferFrom(\\n            msg.sender,\\n            musics[tokenId].artirt,\\n            0,\\n            salePrice,\\n            \\\"\\\"\\n        );\\n        safeTransferFrom(msg.sender, address(this), 0, marketFee, \\\"\\\");\\n\\n        musics[tokenId].amount -= amount;\\n\\n        onERC1155Received(address(this), msg.sender, tokenId, amount, \\\"\\\");\\n        safeTransferFrom(\\n            address(this),\\n            msg.sender,\\n            musics[tokenId].tokenId,\\n            musics[tokenId].amount,\\n            \\\"0x0\\\"\\n        );\\n\\n        emit BuyMusicNFT(tokenId, amount, price);\\n    }\\nfunction onERC1155Received(\\n        address,\\n        address,\\n        uint256,\\n        uint256,\\n        bytes memory\\n    ) public virtual returns (bytes4) {\\n        return this.onERC1155Received.selector;\\n    }\\n    function reSale(\\n        uint256 _tokenId,\\n        uint256 _amount\\n    ) public payable returns (uint256) {\\n        safeTransferFrom(msg.sender, address(this), _tokenId, _amount, \\\"\\\");\\n        musics[_tokenId].amount += _amount;\\n\\n        return _tokenId;\\n    }\\n}\\n\"},\"@openzeppelin/contracts@4.2.0/token/ERC1155/utils/ERC1155Receiver.sol\":{\"content\":\"// SPDX-License-Identifier: MIT\\n\\npragma solidity ^0.8.0;\\n\\nimport \\\"../IERC1155Receiver.sol\\\";\\nimport \\\"../../../utils/introspection/ERC165.sol\\\";\\n\\n/**\\n * @dev _Available since v3.1._\\n */\\nabstract contract ERC1155Receiver is ERC165, IERC1155Receiver {\\n    /**\\n     * @dev See {IERC165-supportsInterface}.\\n     */\\n    function supportsInterface(bytes4 interfaceId) public view virtual override(ERC165, IERC165) returns (bool) {\\n        return interfaceId == type(IERC1155Receiver).interfaceId || super.supportsInterface(interfaceId);\\n    }\\n}\\n\"},\"@openzeppelin/contracts@4.2.0/access/Ownable.sol\":{\"content\":\"// SPDX-License-Identifier: MIT\\n\\npragma solidity ^0.8.0;\\n\\nimport \\\"../utils/Context.sol\\\";\\n\\n/**\\n * @dev Contract module which provides a basic access control mechanism, where\\n * there is an account (an owner) that can be granted exclusive access to\\n * specific functions.\\n *\\n * By default, the owner account will be the one that deploys the contract. This\\n * can later be changed with {transferOwnership}.\\n *\\n * This module is used through inheritance. It will make available the modifier\\n * `onlyOwner`, which can be applied to your functions to restrict their use to\\n * the owner.\\n */\\nabstract contract Ownable is Context {\\n    address private _owner;\\n\\n    event OwnershipTransferred(address indexed previousOwner, address indexed newOwner);\\n\\n    /**\\n     * @dev Initializes the contract setting the deployer as the initial owner.\\n     */\\n    constructor() {\\n        _setOwner(_msgSender());\\n    }\\n\\n    /**\\n     * @dev Returns the address of the current owner.\\n     */\\n    function owner() public view virtual returns (address) {\\n        return _owner;\\n    }\\n\\n    /**\\n     * @dev Throws if called by any account other than the owner.\\n     */\\n    modifier onlyOwner() {\\n        require(owner() == _msgSender(), \\\"Ownable: caller is not the owner\\\");\\n        _;\\n    }\\n\\n    /**\\n     * @dev Leaves the contract without owner. It will not be possible to call\\n     * `onlyOwner` functions anymore. Can only be called by the current owner.\\n     *\\n     * NOTE: Renouncing ownership will leave the contract without an owner,\\n     * thereby removing any functionality that is only available to the owner.\\n     */\\n    function renounceOwnership() public virtual onlyOwner {\\n        _setOwner(address(0));\\n    }\\n\\n    /**\\n     * @dev Transfers ownership of the contract to a new account (`newOwner`).\\n     * Can only be called by the current owner.\\n     */\\n    function transferOwnership(address newOwner) public virtual onlyOwner {\\n        require(newOwner != address(0), \\\"Ownable: new owner is the zero address\\\");\\n        _setOwner(newOwner);\\n    }\\n\\n    function _setOwner(address newOwner) private {\\n        address oldOwner = _owner;\\n        _owner = newOwner;\\n        emit OwnershipTransferred(oldOwner, newOwner);\\n    }\\n}\\n\"},\"@openzeppelin/contracts@4.2.0/utils/Strings.sol\":{\"content\":\"// SPDX-License-Identifier: MIT\\n\\npragma solidity ^0.8.0;\\n\\n/**\\n * @dev String operations.\\n */\\nlibrary Strings {\\n    bytes16 private constant _HEX_SYMBOLS = \\\"0123456789abcdef\\\";\\n\\n    /**\\n     * @dev Converts a `uint256` to its ASCII `string` decimal representation.\\n     */\\n    function toString(uint256 value) internal pure returns (string memory) {\\n        // Inspired by OraclizeAPI's implementation - MIT licence\\n        // https://github.com/oraclize/ethereum-api/blob/b42146b063c7d6ee1358846c198246239e9360e8/oraclizeAPI_0.4.25.sol\\n\\n        if (value == 0) {\\n            return \\\"0\\\";\\n        }\\n        uint256 temp = value;\\n        uint256 digits;\\n        while (temp != 0) {\\n            digits++;\\n            temp /= 10;\\n        }\\n        bytes memory buffer = new bytes(digits);\\n        while (value != 0) {\\n            digits -= 1;\\n            buffer[digits] = bytes1(uint8(48 + uint256(value % 10)));\\n            value /= 10;\\n        }\\n        return string(buffer);\\n    }\\n\\n    /**\\n     * @dev Converts a `uint256` to its ASCII `string` hexadecimal representation.\\n     */\\n    function toHexString(uint256 value) internal pure returns (string memory) {\\n        if (value == 0) {\\n            return \\\"0x00\\\";\\n        }\\n        uint256 temp = value;\\n        uint256 length = 0;\\n        while (temp != 0) {\\n            length++;\\n            temp >>= 8;\\n        }\\n        return toHexString(value, length);\\n    }\\n\\n    /**\\n     * @dev Converts a `uint256` to its ASCII `string` hexadecimal representation with fixed length.\\n     */\\n    function toHexString(uint256 value, uint256 length) internal pure returns (string memory) {\\n        bytes memory buffer = new bytes(2 * length + 2);\\n        buffer[0] = \\\"0\\\";\\n        buffer[1] = \\\"x\\\";\\n        for (uint256 i = 2 * length + 1; i > 1; --i) {\\n            buffer[i] = _HEX_SYMBOLS[value & 0xf];\\n            value >>= 4;\\n        }\\n        require(value == 0, \\\"Strings: hex length insufficient\\\");\\n        return string(buffer);\\n    }\\n}\\n\"},\"@openzeppelin/contracts@4.2.0/token/ERC1155/ERC1155.sol\":{\"content\":\"// SPDX-License-Identifier: MIT\\n\\npragma solidity ^0.8.0;\\n\\nimport \\\"./IERC1155.sol\\\";\\nimport \\\"./IERC1155Receiver.sol\\\";\\nimport \\\"./extensions/IERC1155MetadataURI.sol\\\";\\nimport \\\"../../utils/Address.sol\\\";\\nimport \\\"../../utils/Context.sol\\\";\\nimport \\\"../../utils/introspection/ERC165.sol\\\";\\n\\n/**\\n * @dev Implementation of the basic standard multi-token.\\n * See https://eips.ethereum.org/EIPS/eip-1155\\n * Originally based on code by Enjin: https://github.com/enjin/erc-1155\\n *\\n * _Available since v3.1._\\n */\\ncontract ERC1155 is Context, ERC165, IERC1155, IERC1155MetadataURI {\\n    using Address for address;\\n\\n    // Mapping from token ID to account balances\\n    mapping(uint256 => mapping(address => uint256)) private _balances;\\n\\n    // Mapping from account to operator approvals\\n    mapping(address => mapping(address => bool)) private _operatorApprovals;\\n\\n    // Used as the URI for all token types by relying on ID substitution, e.g. https://token-cdn-domain/{id}.json\\n    string private _uri;\\n\\n    /**\\n     * @dev See {_setURI}.\\n     */\\n    constructor(string memory uri_) {\\n        _setURI(uri_);\\n    }\\n\\n    /**\\n     * @dev See {IERC165-supportsInterface}.\\n     */\\n    function supportsInterface(bytes4 interfaceId) public view virtual override(ERC165, IERC165) returns (bool) {\\n        return\\n            interfaceId == type(IERC1155).interfaceId ||\\n            interfaceId == type(IERC1155MetadataURI).interfaceId ||\\n            super.supportsInterface(interfaceId);\\n    }\\n\\n    /**\\n     * @dev See {IERC1155MetadataURI-uri}.\\n     *\\n     * This implementation returns the same URI for *all* token types. It relies\\n     * on the token type ID substitution mechanism\\n     * https://eips.ethereum.org/EIPS/eip-1155#metadata[defined in the EIP].\\n     *\\n     * Clients calling this function must replace the `\\\\{id\\\\}` substring with the\\n     * actual token type ID.\\n     */\\n    function uri(uint256) public view virtual override returns (string memory) {\\n        return _uri;\\n    }\\n\\n    /**\\n     * @dev See {IERC1155-balanceOf}.\\n     *\\n     * Requirements:\\n     *\\n     * - `account` cannot be the zero address.\\n     */\\n    function balanceOf(address account, uint256 id) public view virtual override returns (uint256) {\\n        require(account != address(0), \\\"ERC1155: balance query for the zero address\\\");\\n        return _balances[id][account];\\n    }\\n\\n    /**\\n     * @dev See {IERC1155-balanceOfBatch}.\\n     *\\n     * Requirements:\\n     *\\n     * - `accounts` and `ids` must have the same length.\\n     */\\n    function balanceOfBatch(address[] memory accounts, uint256[] memory ids)\\n        public\\n        view\\n        virtual\\n        override\\n        returns (uint256[] memory)\\n    {\\n        require(accounts.length == ids.length, \\\"ERC1155: accounts and ids length mismatch\\\");\\n\\n        uint256[] memory batchBalances = new uint256[](accounts.length);\\n\\n        for (uint256 i = 0; i < accounts.length; ++i) {\\n            batchBalances[i] = balanceOf(accounts[i], ids[i]);\\n        }\\n\\n        return batchBalances;\\n    }\\n\\n    /**\\n     * @dev See {IERC1155-setApprovalForAll}.\\n     */\\n    function setApprovalForAll(address operator, bool approved) public virtual override {\\n        require(_msgSender() != operator, \\\"ERC1155: setting approval status for self\\\");\\n\\n        _operatorApprovals[_msgSender()][operator] = approved;\\n        emit ApprovalForAll(_msgSender(), operator, approved);\\n    }\\n\\n    /**\\n     * @dev See {IERC1155-isApprovedForAll}.\\n     */\\n    function isApprovedForAll(address account, address operator) public view virtual override returns (bool) {\\n        return _operatorApprovals[account][operator];\\n    }\\n\\n    /**\\n     * @dev See {IERC1155-safeTransferFrom}.\\n     */\\n    function safeTransferFrom(\\n        address from,\\n        address to,\\n        uint256 id,\\n        uint256 amount,\\n        bytes memory data\\n    ) public virtual override {\\n        require(\\n            from == _msgSender() || isApprovedForAll(from, _msgSender()),\\n            \\\"ERC1155: caller is not owner nor approved\\\"\\n        );\\n        _safeTransferFrom(from, to, id, amount, data);\\n    }\\n\\n    /**\\n     * @dev See {IERC1155-safeBatchTransferFrom}.\\n     */\\n    function safeBatchTransferFrom(\\n        address from,\\n        address to,\\n        uint256[] memory ids,\\n        uint256[] memory amounts,\\n        bytes memory data\\n    ) public virtual override {\\n        require(\\n            from == _msgSender() || isApprovedForAll(from, _msgSender()),\\n            \\\"ERC1155: transfer caller is not owner nor approved\\\"\\n        );\\n        _safeBatchTransferFrom(from, to, ids, amounts, data);\\n    }\\n\\n    /**\\n     * @dev Transfers `amount` tokens of token type `id` from `from` to `to`.\\n     *\\n     * Emits a {TransferSingle} event.\\n     *\\n     * Requirements:\\n     *\\n     * - `to` cannot be the zero address.\\n     * - `from` must have a balance of tokens of type `id` of at least `amount`.\\n     * - If `to` refers to a smart contract, it must implement {IERC1155Receiver-onERC1155Received} and return the\\n     * acceptance magic value.\\n     */\\n    function _safeTransferFrom(\\n        address from,\\n        address to,\\n        uint256 id,\\n        uint256 amount,\\n        bytes memory data\\n    ) internal virtual {\\n        require(to != address(0), \\\"ERC1155: transfer to the zero address\\\");\\n\\n        address operator = _msgSender();\\n\\n        _beforeTokenTransfer(operator, from, to, _asSingletonArray(id), _asSingletonArray(amount), data);\\n\\n        uint256 fromBalance = _balances[id][from];\\n        require(fromBalance >= amount, \\\"ERC1155: insufficient balance for transfer\\\");\\n        unchecked {\\n            _balances[id][from] = fromBalance - amount;\\n        }\\n        _balances[id][to] += amount;\\n\\n        emit TransferSingle(operator, from, to, id, amount);\\n\\n        _doSafeTransferAcceptanceCheck(operator, from, to, id, amount, data);\\n    }\\n\\n    /**\\n     * @dev xref:ROOT:erc1155.adoc#batch-operations[Batched] version of {_safeTransferFrom}.\\n     *\\n     * Emits a {TransferBatch} event.\\n     *\\n     * Requirements:\\n     *\\n     * - If `to` refers to a smart contract, it must implement {IERC1155Receiver-onERC1155BatchReceived} and return the\\n     * acceptance magic value.\\n     */\\n    function _safeBatchTransferFrom(\\n        address from,\\n        address to,\\n        uint256[] memory ids,\\n        uint256[] memory amounts,\\n        bytes memory data\\n    ) internal virtual {\\n        require(ids.length == amounts.length, \\\"ERC1155: ids and amounts length mismatch\\\");\\n        require(to != address(0), \\\"ERC1155: transfer to the zero address\\\");\\n\\n        address operator = _msgSender();\\n\\n        _beforeTokenTransfer(operator, from, to, ids, amounts, data);\\n\\n        for (uint256 i = 0; i < ids.length; ++i) {\\n            uint256 id = ids[i];\\n            uint256 amount = amounts[i];\\n\\n            uint256 fromBalance = _balances[id][from];\\n            require(fromBalance >= amount, \\\"ERC1155: insufficient balance for transfer\\\");\\n            unchecked {\\n                _balances[id][from] = fromBalance - amount;\\n            }\\n            _balances[id][to] += amount;\\n        }\\n\\n        emit TransferBatch(operator, from, to, ids, amounts);\\n\\n        _doSafeBatchTransferAcceptanceCheck(operator, from, to, ids, amounts, data);\\n    }\\n\\n    /**\\n     * @dev Sets a new URI for all token types, by relying on the token type ID\\n     * substitution mechanism\\n     * https://eips.ethereum.org/EIPS/eip-1155#metadata[defined in the EIP].\\n     *\\n     * By this mechanism, any occurrence of the `\\\\{id\\\\}` substring in either the\\n     * URI or any of the amounts in the JSON file at said URI will be replaced by\\n     * clients with the token type ID.\\n     *\\n     * For example, the `https://token-cdn-domain/\\\\{id\\\\}.json` URI would be\\n     * interpreted by clients as\\n     * `https://token-cdn-domain/000000000000000000000000000000000000000000000000000000000004cce0.json`\\n     * for token type ID 0x4cce0.\\n     *\\n     * See {uri}.\\n     *\\n     * Because these URIs cannot be meaningfully represented by the {URI} event,\\n     * this function emits no events.\\n     */\\n    function _setURI(string memory newuri) internal virtual {\\n        _uri = newuri;\\n    }\\n\\n    /**\\n     * @dev Creates `amount` tokens of token type `id`, and assigns them to `account`.\\n     *\\n     * Emits a {TransferSingle} event.\\n     *\\n     * Requirements:\\n     *\\n     * - `account` cannot be the zero address.\\n     * - If `account` refers to a smart contract, it must implement {IERC1155Receiver-onERC1155Received} and return the\\n     * acceptance magic value.\\n     */\\n    function _mint(\\n        address account,\\n        uint256 id,\\n        uint256 amount,\\n        bytes memory data\\n    ) internal virtual {\\n        require(account != address(0), \\\"ERC1155: mint to the zero address\\\");\\n\\n        address operator = _msgSender();\\n\\n        _beforeTokenTransfer(operator, address(0), account, _asSingletonArray(id), _asSingletonArray(amount), data);\\n\\n        _balances[id][account] += amount;\\n        emit TransferSingle(operator, address(0), account, id, amount);\\n\\n        _doSafeTransferAcceptanceCheck(operator, address(0), account, id, amount, data);\\n    }\\n\\n    /**\\n     * @dev xref:ROOT:erc1155.adoc#batch-operations[Batched] version of {_mint}.\\n     *\\n     * Requirements:\\n     *\\n     * - `ids` and `amounts` must have the same length.\\n     * - If `to` refers to a smart contract, it must implement {IERC1155Receiver-onERC1155BatchReceived} and return the\\n     * acceptance magic value.\\n     */\\n    function _mintBatch(\\n        address to,\\n        uint256[] memory ids,\\n        uint256[] memory amounts,\\n        bytes memory data\\n    ) internal virtual {\\n        require(to != address(0), \\\"ERC1155: mint to the zero address\\\");\\n        require(ids.length == amounts.length, \\\"ERC1155: ids and amounts length mismatch\\\");\\n\\n        address operator = _msgSender();\\n\\n        _beforeTokenTransfer(operator, address(0), to, ids, amounts, data);\\n\\n        for (uint256 i = 0; i < ids.length; i++) {\\n            _balances[ids[i]][to] += amounts[i];\\n        }\\n\\n        emit TransferBatch(operator, address(0), to, ids, amounts);\\n\\n        _doSafeBatchTransferAcceptanceCheck(operator, address(0), to, ids, amounts, data);\\n    }\\n\\n    /**\\n     * @dev Destroys `amount` tokens of token type `id` from `account`\\n     *\\n     * Requirements:\\n     *\\n     * - `account` cannot be the zero address.\\n     * - `account` must have at least `amount` tokens of token type `id`.\\n     */\\n    function _burn(\\n        address account,\\n        uint256 id,\\n        uint256 amount\\n    ) internal virtual {\\n        require(account != address(0), \\\"ERC1155: burn from the zero address\\\");\\n\\n        address operator = _msgSender();\\n\\n        _beforeTokenTransfer(operator, account, address(0), _asSingletonArray(id), _asSingletonArray(amount), \\\"\\\");\\n\\n        uint256 accountBalance = _balances[id][account];\\n        require(accountBalance >= amount, \\\"ERC1155: burn amount exceeds balance\\\");\\n        unchecked {\\n            _balances[id][account] = accountBalance - amount;\\n        }\\n\\n        emit TransferSingle(operator, account, address(0), id, amount);\\n    }\\n\\n    /**\\n     * @dev xref:ROOT:erc1155.adoc#batch-operations[Batched] version of {_burn}.\\n     *\\n     * Requirements:\\n     *\\n     * - `ids` and `amounts` must have the same length.\\n     */\\n    function _burnBatch(\\n        address account,\\n        uint256[] memory ids,\\n        uint256[] memory amounts\\n    ) internal virtual {\\n        require(account != address(0), \\\"ERC1155: burn from the zero address\\\");\\n        require(ids.length == amounts.length, \\\"ERC1155: ids and amounts length mismatch\\\");\\n\\n        address operator = _msgSender();\\n\\n        _beforeTokenTransfer(operator, account, address(0), ids, amounts, \\\"\\\");\\n\\n        for (uint256 i = 0; i < ids.length; i++) {\\n            uint256 id = ids[i];\\n            uint256 amount = amounts[i];\\n\\n            uint256 accountBalance = _balances[id][account];\\n            require(accountBalance >= amount, \\\"ERC1155: burn amount exceeds balance\\\");\\n            unchecked {\\n                _balances[id][account] = accountBalance - amount;\\n            }\\n        }\\n\\n        emit TransferBatch(operator, account, address(0), ids, amounts);\\n    }\\n\\n    /**\\n     * @dev Hook that is called before any token transfer. This includes minting\\n     * and burning, as well as batched variants.\\n     *\\n     * The same hook is called on both single and batched variants. For single\\n     * transfers, the length of the `id` and `amount` arrays will be 1.\\n     *\\n     * Calling conditions (for each `id` and `amount` pair):\\n     *\\n     * - When `from` and `to` are both non-zero, `amount` of ``from``'s tokens\\n     * of token type `id` will be  transferred to `to`.\\n     * - When `from` is zero, `amount` tokens of token type `id` will be minted\\n     * for `to`.\\n     * - when `to` is zero, `amount` of ``from``'s tokens of token type `id`\\n     * will be burned.\\n     * - `from` and `to` are never both zero.\\n     * - `ids` and `amounts` have the same, non-zero length.\\n     *\\n     * To learn more about hooks, head to xref:ROOT:extending-contracts.adoc#using-hooks[Using Hooks].\\n     */\\n    function _beforeTokenTransfer(\\n        address operator,\\n        address from,\\n        address to,\\n        uint256[] memory ids,\\n        uint256[] memory amounts,\\n        bytes memory data\\n    ) internal virtual {}\\n\\n    function _doSafeTransferAcceptanceCheck(\\n        address operator,\\n        address from,\\n        address to,\\n        uint256 id,\\n        uint256 amount,\\n        bytes memory data\\n    ) private {\\n        if (to.isContract()) {\\n            try IERC1155Receiver(to).onERC1155Received(operator, from, id, amount, data) returns (bytes4 response) {\\n                if (response != IERC1155Receiver(to).onERC1155Received.selector) {\\n                    revert(\\\"ERC1155: ERC1155Receiver rejected tokens\\\");\\n                }\\n            } catch Error(string memory reason) {\\n                revert(reason);\\n            } catch {\\n                revert(\\\"ERC1155: transfer to non ERC1155Receiver implementer\\\");\\n            }\\n        }\\n    }\\n\\n    function _doSafeBatchTransferAcceptanceCheck(\\n        address operator,\\n        address from,\\n        address to,\\n        uint256[] memory ids,\\n        uint256[] memory amounts,\\n        bytes memory data\\n    ) private {\\n        if (to.isContract()) {\\n            try IERC1155Receiver(to).onERC1155BatchReceived(operator, from, ids, amounts, data) returns (\\n                bytes4 response\\n            ) {\\n                if (response != IERC1155Receiver(to).onERC1155BatchReceived.selector) {\\n                    revert(\\\"ERC1155: ERC1155Receiver rejected tokens\\\");\\n                }\\n            } catch Error(string memory reason) {\\n                revert(reason);\\n            } catch {\\n                revert(\\\"ERC1155: transfer to non ERC1155Receiver implementer\\\");\\n            }\\n        }\\n    }\\n\\n    function _asSingletonArray(uint256 element) private pure returns (uint256[] memory) {\\n        uint256[] memory array = new uint256[](1);\\n        array[0] = element;\\n\\n        return array;\\n    }\\n}\\n\"},\"@openzeppelin/contracts@4.2.0/utils/introspection/ERC165.sol\":{\"content\":\"// SPDX-License-Identifier: MIT\\n\\npragma solidity ^0.8.0;\\n\\nimport \\\"./IERC165.sol\\\";\\n\\n/**\\n * @dev Implementation of the {IERC165} interface.\\n *\\n * Contracts that want to implement ERC165 should inherit from this contract and override {supportsInterface} to check\\n * for the additional interface id that will be supported. For example:\\n *\\n * ```solidity\\n * function supportsInterface(bytes4 interfaceId) public view virtual override returns (bool) {\\n *     return interfaceId == type(MyInterface).interfaceId || super.supportsInterface(interfaceId);\\n * }\\n * ```\\n *\\n * Alternatively, {ERC165Storage} provides an easier to use but more expensive implementation.\\n */\\nabstract contract ERC165 is IERC165 {\\n    /**\\n     * @dev See {IERC165-supportsInterface}.\\n     */\\n    function supportsInterface(bytes4 interfaceId) public view virtual override returns (bool) {\\n        return interfaceId == type(IERC165).interfaceId;\\n    }\\n}\\n\"},\"@openzeppelin/contracts@4.2.0/token/ERC1155/IERC1155Receiver.sol\":{\"content\":\"// SPDX-License-Identifier: MIT\\n\\npragma solidity ^0.8.0;\\n\\nimport \\\"../../utils/introspection/IERC165.sol\\\";\\n\\n/**\\n * @dev _Available since v3.1._\\n */\\ninterface IERC1155Receiver is IERC165 {\\n    /**\\n        @dev Handles the receipt of a single ERC1155 token type. This function is\\n        called at the end of a `safeTransferFrom` after the balance has been updated.\\n        To accept the transfer, this must return\\n        `bytes4(keccak256(\\\"onERC1155Received(address,address,uint256,uint256,bytes)\\\"))`\\n        (i.e. 0xf23a6e61, or its own function selector).\\n        @param operator The address which initiated the transfer (i.e. msg.sender)\\n        @param from The address which previously owned the token\\n        @param id The ID of the token being transferred\\n        @param value The amount of tokens being transferred\\n        @param data Additional data with no specified format\\n        @return `bytes4(keccak256(\\\"onERC1155Received(address,address,uint256,uint256,bytes)\\\"))` if transfer is allowed\\n    */\\n    function onERC1155Received(\\n        address operator,\\n        address from,\\n        uint256 id,\\n        uint256 value,\\n        bytes calldata data\\n    ) external returns (bytes4);\\n\\n    /**\\n        @dev Handles the receipt of a multiple ERC1155 token types. This function\\n        is called at the end of a `safeBatchTransferFrom` after the balances have\\n        been updated. To accept the transfer(s), this must return\\n        `bytes4(keccak256(\\\"onERC1155BatchReceived(address,address,uint256[],uint256[],bytes)\\\"))`\\n        (i.e. 0xbc197c81, or its own function selector).\\n        @param operator The address which initiated the batch transfer (i.e. msg.sender)\\n        @param from The address which previously owned the token\\n        @param ids An array containing ids of each token being transferred (order and length must match values array)\\n        @param values An array containing amounts of each token being transferred (order and length must match ids array)\\n        @param data Additional data with no specified format\\n        @return `bytes4(keccak256(\\\"onERC1155BatchReceived(address,address,uint256[],uint256[],bytes)\\\"))` if transfer is allowed\\n    */\\n    function onERC1155BatchReceived(\\n        address operator,\\n        address from,\\n        uint256[] calldata ids,\\n        uint256[] calldata values,\\n        bytes calldata data\\n    ) external returns (bytes4);\\n}\\n\"},\"@openzeppelin/contracts@4.2.0/utils/Context.sol\":{\"content\":\"// SPDX-License-Identifier: MIT\\n\\npragma solidity ^0.8.0;\\n\\n/*\\n * @dev Provides information about the current execution context, including the\\n * sender of the transaction and its data. While these are generally available\\n * via msg.sender and msg.data, they should not be accessed in such a direct\\n * manner, since when dealing with meta-transactions the account sending and\\n * paying for execution may not be the actual sender (as far as an application\\n * is concerned).\\n *\\n * This contract is only required for intermediate, library-like contracts.\\n */\\nabstract contract Context {\\n    function _msgSender() internal view virtual returns (address) {\\n        return msg.sender;\\n    }\\n\\n    function _msgData() internal view virtual returns (bytes calldata) {\\n        return msg.data;\\n    }\\n}\\n\"},\"@openzeppelin/contracts@4.2.0/utils/Address.sol\":{\"content\":\"// SPDX-License-Identifier: MIT\\n\\npragma solidity ^0.8.0;\\n\\n/**\\n * @dev Collection of functions related to the address type\\n */\\nlibrary Address {\\n    /**\\n     * @dev Returns true if `account` is a contract.\\n     *\\n     * [IMPORTANT]\\n     * ====\\n     * It is unsafe to assume that an address for which this function returns\\n     * false is an externally-owned account (EOA) and not a contract.\\n     *\\n     * Among others, `isContract` will return false for the following\\n     * types of addresses:\\n     *\\n     *  - an externally-owned account\\n     *  - a contract in construction\\n     *  - an address where a contract will be created\\n     *  - an address where a contract lived, but was destroyed\\n     * ====\\n     */\\n    function isContract(address account) internal view returns (bool) {\\n        // This method relies on extcodesize, which returns 0 for contracts in\\n        // construction, since the code is only stored at the end of the\\n        // constructor execution.\\n\\n        uint256 size;\\n        assembly {\\n            size := extcodesize(account)\\n        }\\n        return size > 0;\\n    }\\n\\n    /**\\n     * @dev Replacement for Solidity's `transfer`: sends `amount` wei to\\n     * `recipient`, forwarding all available gas and reverting on errors.\\n     *\\n     * https://eips.ethereum.org/EIPS/eip-1884[EIP1884] increases the gas cost\\n     * of certain opcodes, possibly making contracts go over the 2300 gas limit\\n     * imposed by `transfer`, making them unable to receive funds via\\n     * `transfer`. {sendValue} removes this limitation.\\n     *\\n     * https://diligence.consensys.net/posts/2019/09/stop-using-soliditys-transfer-now/[Learn more].\\n     *\\n     * IMPORTANT: because control is transferred to `recipient`, care must be\\n     * taken to not create reentrancy vulnerabilities. Consider using\\n     * {ReentrancyGuard} or the\\n     * https://solidity.readthedocs.io/en/v0.5.11/security-considerations.html#use-the-checks-effects-interactions-pattern[checks-effects-interactions pattern].\\n     */\\n    function sendValue(address payable recipient, uint256 amount) internal {\\n        require(address(this).balance >= amount, \\\"Address: insufficient balance\\\");\\n\\n        (bool success, ) = recipient.call{value: amount}(\\\"\\\");\\n        require(success, \\\"Address: unable to send value, recipient may have reverted\\\");\\n    }\\n\\n    /**\\n     * @dev Performs a Solidity function call using a low level `call`. A\\n     * plain `call` is an unsafe replacement for a function call: use this\\n     * function instead.\\n     *\\n     * If `target` reverts with a revert reason, it is bubbled up by this\\n     * function (like regular Solidity function calls).\\n     *\\n     * Returns the raw returned data. To convert to the expected return value,\\n     * use https://solidity.readthedocs.io/en/latest/units-and-global-variables.html?highlight=abi.decode#abi-encoding-and-decoding-functions[`abi.decode`].\\n     *\\n     * Requirements:\\n     *\\n     * - `target` must be a contract.\\n     * - calling `target` with `data` must not revert.\\n     *\\n     * _Available since v3.1._\\n     */\\n    function functionCall(address target, bytes memory data) internal returns (bytes memory) {\\n        return functionCall(target, data, \\\"Address: low-level call failed\\\");\\n    }\\n\\n    /**\\n     * @dev Same as {xref-Address-functionCall-address-bytes-}[`functionCall`], but with\\n     * `errorMessage` as a fallback revert reason when `target` reverts.\\n     *\\n     * _Available since v3.1._\\n     */\\n    function functionCall(\\n        address target,\\n        bytes memory data,\\n        string memory errorMessage\\n    ) internal returns (bytes memory) {\\n        return functionCallWithValue(target, data, 0, errorMessage);\\n    }\\n\\n    /**\\n     * @dev Same as {xref-Address-functionCall-address-bytes-}[`functionCall`],\\n     * but also transferring `value` wei to `target`.\\n     *\\n     * Requirements:\\n     *\\n     * - the calling contract must have an ETH balance of at least `value`.\\n     * - the called Solidity function must be `payable`.\\n     *\\n     * _Available since v3.1._\\n     */\\n    function functionCallWithValue(\\n        address target,\\n        bytes memory data,\\n        uint256 value\\n    ) internal returns (bytes memory) {\\n        return functionCallWithValue(target, data, value, \\\"Address: low-level call with value failed\\\");\\n    }\\n\\n    /**\\n     * @dev Same as {xref-Address-functionCallWithValue-address-bytes-uint256-}[`functionCallWithValue`], but\\n     * with `errorMessage` as a fallback revert reason when `target` reverts.\\n     *\\n     * _Available since v3.1._\\n     */\\n    function functionCallWithValue(\\n        address target,\\n        bytes memory data,\\n        uint256 value,\\n        string memory errorMessage\\n    ) internal returns (bytes memory) {\\n        require(address(this).balance >= value, \\\"Address: insufficient balance for call\\\");\\n        require(isContract(target), \\\"Address: call to non-contract\\\");\\n\\n        (bool success, bytes memory returndata) = target.call{value: value}(data);\\n        return _verifyCallResult(success, returndata, errorMessage);\\n    }\\n\\n    /**\\n     * @dev Same as {xref-Address-functionCall-address-bytes-}[`functionCall`],\\n     * but performing a static call.\\n     *\\n     * _Available since v3.3._\\n     */\\n    function functionStaticCall(address target, bytes memory data) internal view returns (bytes memory) {\\n        return functionStaticCall(target, data, \\\"Address: low-level static call failed\\\");\\n    }\\n\\n    /**\\n     * @dev Same as {xref-Address-functionCall-address-bytes-string-}[`functionCall`],\\n     * but performing a static call.\\n     *\\n     * _Available since v3.3._\\n     */\\n    function functionStaticCall(\\n        address target,\\n        bytes memory data,\\n        string memory errorMessage\\n    ) internal view returns (bytes memory) {\\n        require(isContract(target), \\\"Address: static call to non-contract\\\");\\n\\n        (bool success, bytes memory returndata) = target.staticcall(data);\\n        return _verifyCallResult(success, returndata, errorMessage);\\n    }\\n\\n    /**\\n     * @dev Same as {xref-Address-functionCall-address-bytes-}[`functionCall`],\\n     * but performing a delegate call.\\n     *\\n     * _Available since v3.4._\\n     */\\n    function functionDelegateCall(address target, bytes memory data) internal returns (bytes memory) {\\n        return functionDelegateCall(target, data, \\\"Address: low-level delegate call failed\\\");\\n    }\\n\\n    /**\\n     * @dev Same as {xref-Address-functionCall-address-bytes-string-}[`functionCall`],\\n     * but performing a delegate call.\\n     *\\n     * _Available since v3.4._\\n     */\\n    function functionDelegateCall(\\n        address target,\\n        bytes memory data,\\n        string memory errorMessage\\n    ) internal returns (bytes memory) {\\n        require(isContract(target), \\\"Address: delegate call to non-contract\\\");\\n\\n        (bool success, bytes memory returndata) = target.delegatecall(data);\\n        return _verifyCallResult(success, returndata, errorMessage);\\n    }\\n\\n    function _verifyCallResult(\\n        bool success,\\n        bytes memory returndata,\\n        string memory errorMessage\\n    ) private pure returns (bytes memory) {\\n        if (success) {\\n            return returndata;\\n        } else {\\n            // Look for revert reason and bubble it up if present\\n            if (returndata.length > 0) {\\n                // The easiest way to bubble the revert reason is using memory via assembly\\n\\n                assembly {\\n                    let returndata_size := mload(returndata)\\n                    revert(add(32, returndata), returndata_size)\\n                }\\n            } else {\\n                revert(errorMessage);\\n            }\\n        }\\n    }\\n}\\n\"},\"@openzeppelin/contracts@4.2.0/token/ERC1155/extensions/IERC1155MetadataURI.sol\":{\"content\":\"// SPDX-License-Identifier: MIT\\n\\npragma solidity ^0.8.0;\\n\\nimport \\\"../IERC1155.sol\\\";\\n\\n/**\\n * @dev Interface of the optional ERC1155MetadataExtension interface, as defined\\n * in the https://eips.ethereum.org/EIPS/eip-1155#metadata-extensions[EIP].\\n *\\n * _Available since v3.1._\\n */\\ninterface IERC1155MetadataURI is IERC1155 {\\n    /**\\n     * @dev Returns the URI for token type `id`.\\n     *\\n     * If the `\\\\{id\\\\}` substring is present in the URI, it must be replaced by\\n     * clients with the actual token type ID.\\n     */\\n    function uri(uint256 id) external view returns (string memory);\\n}\\n\"},\"@openzeppelin/contracts@4.2.0/token/ERC1155/IERC1155.sol\":{\"content\":\"// SPDX-License-Identifier: MIT\\n\\npragma solidity ^0.8.0;\\n\\nimport \\\"../../utils/introspection/IERC165.sol\\\";\\n\\n/**\\n * @dev Required interface of an ERC1155 compliant contract, as defined in the\\n * https://eips.ethereum.org/EIPS/eip-1155[EIP].\\n *\\n * _Available since v3.1._\\n */\\ninterface IERC1155 is IERC165 {\\n    /**\\n     * @dev Emitted when `value` tokens of token type `id` are transferred from `from` to `to` by `operator`.\\n     */\\n    event TransferSingle(address indexed operator, address indexed from, address indexed to, uint256 id, uint256 value);\\n\\n    /**\\n     * @dev Equivalent to multiple {TransferSingle} events, where `operator`, `from` and `to` are the same for all\\n     * transfers.\\n     */\\n    event TransferBatch(\\n        address indexed operator,\\n        address indexed from,\\n        address indexed to,\\n        uint256[] ids,\\n        uint256[] values\\n    );\\n\\n    /**\\n     * @dev Emitted when `account` grants or revokes permission to `operator` to transfer their tokens, according to\\n     * `approved`.\\n     */\\n    event ApprovalForAll(address indexed account, address indexed operator, bool approved);\\n\\n    /**\\n     * @dev Emitted when the URI for token type `id` changes to `value`, if it is a non-programmatic URI.\\n     *\\n     * If an {URI} event was emitted for `id`, the standard\\n     * https://eips.ethereum.org/EIPS/eip-1155#metadata-extensions[guarantees] that `value` will equal the value\\n     * returned by {IERC1155MetadataURI-uri}.\\n     */\\n    event URI(string value, uint256 indexed id);\\n\\n    /**\\n     * @dev Returns the amount of tokens of token type `id` owned by `account`.\\n     *\\n     * Requirements:\\n     *\\n     * - `account` cannot be the zero address.\\n     */\\n    function balanceOf(address account, uint256 id) external view returns (uint256);\\n\\n    /**\\n     * @dev xref:ROOT:erc1155.adoc#batch-operations[Batched] version of {balanceOf}.\\n     *\\n     * Requirements:\\n     *\\n     * - `accounts` and `ids` must have the same length.\\n     */\\n    function balanceOfBatch(address[] calldata accounts, uint256[] calldata ids)\\n        external\\n        view\\n        returns (uint256[] memory);\\n\\n    /**\\n     * @dev Grants or revokes permission to `operator` to transfer the caller's tokens, according to `approved`,\\n     *\\n     * Emits an {ApprovalForAll} event.\\n     *\\n     * Requirements:\\n     *\\n     * - `operator` cannot be the caller.\\n     */\\n    function setApprovalForAll(address operator, bool approved) external;\\n\\n    /**\\n     * @dev Returns true if `operator` is approved to transfer ``account``'s tokens.\\n     *\\n     * See {setApprovalForAll}.\\n     */\\n    function isApprovedForAll(address account, address operator) external view returns (bool);\\n\\n    /**\\n     * @dev Transfers `amount` tokens of token type `id` from `from` to `to`.\\n     *\\n     * Emits a {TransferSingle} event.\\n     *\\n     * Requirements:\\n     *\\n     * - `to` cannot be the zero address.\\n     * - If the caller is not `from`, it must be have been approved to spend ``from``'s tokens via {setApprovalForAll}.\\n     * - `from` must have a balance of tokens of type `id` of at least `amount`.\\n     * - If `to` refers to a smart contract, it must implement {IERC1155Receiver-onERC1155Received} and return the\\n     * acceptance magic value.\\n     */\\n    function safeTransferFrom(\\n        address from,\\n        address to,\\n        uint256 id,\\n        uint256 amount,\\n        bytes calldata data\\n    ) external;\\n\\n    /**\\n     * @dev xref:ROOT:erc1155.adoc#batch-operations[Batched] version of {safeTransferFrom}.\\n     *\\n     * Emits a {TransferBatch} event.\\n     *\\n     * Requirements:\\n     *\\n     * - `ids` and `amounts` must have the same length.\\n     * - If `to` refers to a smart contract, it must implement {IERC1155Receiver-onERC1155BatchReceived} and return the\\n     * acceptance magic value.\\n     */\\n    function safeBatchTransferFrom(\\n        address from,\\n        address to,\\n        uint256[] calldata ids,\\n        uint256[] calldata amounts,\\n        bytes calldata data\\n    ) external;\\n}\\n\"},\"@openzeppelin/contracts@4.2.0/utils/introspection/IERC165.sol\":{\"content\":\"// SPDX-License-Identifier: MIT\\n\\npragma solidity ^0.8.0;\\n\\n/**\\n * @dev Interface of the ERC165 standard, as defined in the\\n * https://eips.ethereum.org/EIPS/eip-165[EIP].\\n *\\n * Implementers can declare support of contract interfaces, which can then be\\n * queried by others ({ERC165Checker}).\\n *\\n * For an implementation, see {ERC165}.\\n */\\ninterface IERC165 {\\n    /**\\n     * @dev Returns true if this contract implements the interface defined by\\n     * `interfaceId`. See the corresponding\\n     * https://eips.ethereum.org/EIPS/eip-165#how-interfaces-are-identified[EIP section]\\n     * to learn more about how these ids are created.\\n     *\\n     * This function call must use less than 30 000 gas.\\n     */\\n    function supportsInterface(bytes4 interfaceId) external view returns (bool);\\n}\\n\"}},\"settings\":{\"optimizer\":{\"enabled\":false,\"runs\":200},\"outputSelection\":{\"*\":{\"\":[\"ast\"],\"*\":[\"abi\",\"metadata\",\"devdoc\",\"userdoc\",\"storageLayout\",\"evm.legacyAssembly\",\"evm.bytecode\",\"evm.deployedBytecode\",\"evm.methodIdentifiers\",\"evm.gasEstimates\",\"evm.assembly\"]}},\"remappings\":[]}}",
	"name": "MusicTuneVibe",
	"bytecode": {
		"linkReferences": {},
		"object": "60806040525f600755348015610013575f80fd5b50604051614696380380614696833981810160405281019061003591906102f0565b60405180602001604052805f815250610053816100c660201b60201c565b506100706100656100d960201b60201c565b6100e060201b60201c565b806005908161007f9190610544565b503360065f6101000a81548173ffffffffffffffffffffffffffffffffffffffff021916908373ffffffffffffffffffffffffffffffffffffffff16021790555050610613565b80600290816100d59190610544565b5050565b5f33905090565b5f60035f9054906101000a900473ffffffffffffffffffffffffffffffffffffffff1690508160035f6101000a81548173ffffffffffffffffffffffffffffffffffffffff021916908373ffffffffffffffffffffffffffffffffffffffff1602179055508173ffffffffffffffffffffffffffffffffffffffff168173ffffffffffffffffffffffffffffffffffffffff167f8be0079c531659141344cd1fd0a4f28419497f9722a3daafe3b4186f6b6457e060405160405180910390a35050565b5f604051905090565b5f80fd5b5f80fd5b5f80fd5b5f80fd5b5f601f19601f8301169050919050565b7f4e487b71000000000000000000000000000000000000000000000000000000005f52604160045260245ffd5b610202826101bc565b810181811067ffffffffffffffff82111715610221576102206101cc565b5b80604052505050565b5f6102336101a3565b905061023f82826101f9565b919050565b5f67ffffffffffffffff82111561025e5761025d6101cc565b5b610267826101bc565b9050602081019050919050565b8281835e5f83830152505050565b5f61029461028f84610244565b61022a565b9050828152602081018484840111156102b0576102af6101b8565b5b6102bb848285610274565b509392505050565b5f82601f8301126102d7576102d66101b4565b5b81516102e7848260208601610282565b91505092915050565b5f60208284031215610305576103046101ac565b5b5f82015167ffffffffffffffff811115610322576103216101b0565b5b61032e848285016102c3565b91505092915050565b5f81519050919050565b7f4e487b71000000000000000000000000000000000000000000000000000000005f52602260045260245ffd5b5f600282049050600182168061038557607f821691505b60208210810361039857610397610341565b5b50919050565b5f819050815f5260205f209050919050565b5f6020601f8301049050919050565b5f82821b905092915050565b5f600883026103fa7fffffffffffffffffffffffffffffffffffffffffffffffffffffffffffffffff826103bf565b61040486836103bf565b95508019841693508086168417925050509392505050565b5f819050919050565b5f819050919050565b5f61044861044361043e8461041c565b610425565b61041c565b9050919050565b5f819050919050565b6104618361042e565b61047561046d8261044f565b8484546103cb565b825550505050565b5f90565b61048961047d565b610494818484610458565b505050565b5b818110156104b7576104ac5f82610481565b60018101905061049a565b5050565b601f8211156104fc576104cd8161039e565b6104d6846103b0565b810160208510156104e5578190505b6104f96104f1856103b0565b830182610499565b50505b505050565b5f82821c905092915050565b5f61051c5f1984600802610501565b1980831691505092915050565b5f610534838361050d565b9150826002028217905092915050565b61054d82610337565b67ffffffffffffffff811115610566576105656101cc565b5b610570825461036e565b61057b8282856104bb565b5f60209050601f8311600181146105ac575f841561059a578287015190505b6105a48582610529565b86555061060b565b601f1984166105ba8661039e565b5f5b828110156105e1578489015182556001820191506020850194506020810190506105bc565b868310156105fe57848901516105fa601f89168261050d565b8355505b6001600288020188555050505b505050505050565b614076806106205f395ff3fe60806040526004361061011d575f3560e01c80638da5cb5b1161009f578063dac187c711610063578063dac187c7146103d3578063e985e9c51461040f578063f23a6e611461044b578063f242432a14610487578063f2fde38b146104af5761011d565b80638da5cb5b146102f35780639eb476671461031d578063a22cb46514610359578063b8fe6abe14610381578063d19ac77a146103ab5761011d565b80634e1273f4116100e65780634e1273f4146102195780634f64b2be146102555780636e1f94e114610291578063715018a6146102ad57806380f0a63a146102c35761011d565b8062fdd58e1461012157806301ffc9a71461015d5780630e89341c146101995780631d85bf03146101d55780632eb2c2d6146101f1575b5f80fd5b34801561012c575f80fd5b5061014760048036038101906101429190612465565b6104d7565b60405161015491906124b2565b60405180910390f35b348015610168575f80fd5b50610183600480360381019061017e9190612520565b61059a565b6040516101909190612565565b60405180910390f35b3480156101a4575f80fd5b506101bf60048036038101906101ba919061257e565b61067b565b6040516101cc9190612619565b60405180910390f35b6101ef60048036038101906101ea9190612639565b6106ba565b005b3480156101fc575f80fd5b5061021760048036038101906102129190612867565b6108d5565b005b348015610224575f80fd5b5061023f600480360381019061023a91906129f2565b610976565b60405161024c9190612b1f565b60405180910390f35b348015610260575f80fd5b5061027b6004803603810190610276919061257e565b610a87565b6040516102889190612619565b60405180910390f35b6102ab60048036038101906102a69190612bdd565b610b2d565b005b3480156102b8575f80fd5b506102c1610dfa565b005b6102dd60048036038101906102d89190612639565b610e81565b6040516102ea91906124b2565b60405180910390f35b3480156102fe575f80fd5b50610307610ed0565b6040516103149190612c58565b60405180910390f35b348015610328575f80fd5b50610343600480360381019061033e919061257e565b610ef8565b6040516103509190612d3b565b60405180910390f35b348015610364575f80fd5b5061037f600480360381019061037a9190612d85565b611025565b005b34801561038c575f80fd5b506103956111a0565b6040516103a291906124b2565b60405180910390f35b3480156103b6575f80fd5b506103d160048036038101906103cc9190612dc3565b6111a9565b005b3480156103de575f80fd5b506103f960048036038101906103f49190612dc3565b611238565b6040516104069190612d3b565b60405180910390f35b34801561041a575f80fd5b5061043560048036038101906104309190612e0a565b6114c0565b6040516104429190612565565b60405180910390f35b348015610456575f80fd5b50610471600480360381019061046c9190612e48565b61154e565b60405161047e9190612eea565b60405180910390f35b348015610492575f80fd5b506104ad60048036038101906104a89190612e48565b611562565b005b3480156104ba575f80fd5b506104d560048036038101906104d09190612f03565b611603565b005b5f8073ffffffffffffffffffffffffffffffffffffffff168373ffffffffffffffffffffffffffffffffffffffff1603610546576040517f08c379a000000000000000000000000000000000000000000000000000000000815260040161053d90612f9e565b60405180910390fd5b5f808381526020019081526020015f205f8473ffffffffffffffffffffffffffffffffffffffff1673ffffffffffffffffffffffffffffffffffffffff1681526020019081526020015f2054905092915050565b5f7fd9b67a26000000000000000000000000000000000000000000000000000000007bffffffffffffffffffffffffffffffffffffffffffffffffffffffff1916827bffffffffffffffffffffffffffffffffffffffffffffffffffffffff1916148061066457507f0e89341c000000000000000000000000000000000000000000000000000000007bffffffffffffffffffffffffffffffffffffffffffffffffffffffff1916827bffffffffffffffffffffffffffffffffffffffffffffffffffffffff1916145b806106745750610673826116f9565b5b9050919050565b6060600560095f8481526020019081526020015f206001016040516020016106a49291906130b5565b6040516020818303038152906040529050919050565b5f60095f8481526020019081526020015f206003015490505f82826106df9190613105565b90508260095f8681526020019081526020015f20600201541015610738576040517f08c379a000000000000000000000000000000000000000000000000000000000815260040161072f90613190565b60405180910390fd5b8034101561077b576040517f08c379a00000000000000000000000000000000000000000000000000000000081526004016107729061321e565b60405180910390fd5b6107c93360095f8781526020019081526020015f206004015f9054906101000a900473ffffffffffffffffffffffffffffffffffffffff165f8460405180602001604052805f815250611562565b6107e633305f60075460405180602001604052805f815250611562565b8260095f8681526020019081526020015f206002015f828254610809919061323c565b9250508190555061082b3033868660405180602001604052805f81525061154e565b50610895303360095f8881526020019081526020015f205f015460095f8981526020019081526020015f20600201546040518060400160405280600381526020017f3078300000000000000000000000000000000000000000000000000000000000815250611562565b837f73da24c1c5a65dd010b8a07187c8a579ce7225624d0efc87c73eb7beb8c8e6b884846040516108c792919061326f565b60405180910390a250505050565b6108dd611762565b73ffffffffffffffffffffffffffffffffffffffff168573ffffffffffffffffffffffffffffffffffffffff16148061092357506109228561091d611762565b6114c0565b5b610962576040517f08c379a000000000000000000000000000000000000000000000000000000000815260040161095990613306565b60405180910390fd5b61096f8585858585611769565b5050505050565b606081518351146109bc576040517f08c379a00000000000000000000000000000000000000000000000000000000081526004016109b390613394565b60405180910390fd5b5f835167ffffffffffffffff8111156109d8576109d761267b565b5b604051908082528060200260200182016040528015610a065781602001602082028036833780820191505090505b5090505f5b8451811015610a7c57610a52858281518110610a2a57610a296133b2565b5b6020026020010151858381518110610a4557610a446133b2565b5b60200260200101516104d7565b828281518110610a6557610a646133b2565b5b602002602001018181525050806001019050610a0b565b508091505092915050565b60048181548110610a96575f80fd5b905f5260205f20015f915090508054610aae90612fe9565b80601f0160208091040260200160405190810160405280929190818152602001828054610ada90612fe9565b8015610b255780601f10610afc57610100808354040283529160200191610b25565b820191905f5260205f20905b815481529060010190602001808311610b0857829003601f168201915b505050505081565b600883604051610b3d919061340f565b90815260200160405180910390205f9054906101000a900460ff1615610b98576040517f08c379a0000000000000000000000000000000000000000000000000000000008152600401610b8f9061346f565b60405180910390fd5b5f8111610bda576040517f08c379a0000000000000000000000000000000000000000000000000000000008152600401610bd1906134d7565b60405180910390fd5b6007543414610c1e576040517f08c379a0000000000000000000000000000000000000000000000000000000008152600401610c159061353f565b60405180910390fd5b5f73ffffffffffffffffffffffffffffffffffffffff166108fc3490811502906040515f60405180830381858888f19350505050158015610c61573d5f803e3d5ffd5b50600483908060018154018082558091505060019003905f5260205f20015f909190919091509081610c9391906136e8565b505f6004805490509050610cb730828560405180602001604052805f815250611a63565b6040518060a001604052808281526020018581526020018481526020018381526020013373ffffffffffffffffffffffffffffffffffffffff1681525060095f8381526020019081526020015f205f820151815f01556020820151816001019081610d2291906136e8565b5060408201518160020155606082015181600301556080820151816004015f6101000a81548173ffffffffffffffffffffffffffffffffffffffff021916908373ffffffffffffffffffffffffffffffffffffffff1602179055509050506001600885604051610d92919061340f565b90815260200160405180910390205f6101000a81548160ff021916908315150217905550807f878637f2c01e0948d56963da142376811a0261fea617351062b12de43bfb1dee85858533604051610dec94939291906137b7565b60405180910390a250505050565b610e02611762565b73ffffffffffffffffffffffffffffffffffffffff16610e20610ed0565b73ffffffffffffffffffffffffffffffffffffffff1614610e76576040517f08c379a0000000000000000000000000000000000000000000000000000000008152600401610e6d9061384b565b60405180910390fd5b610e7f5f611bee565b565b5f610e9d3330858560405180602001604052805f815250611562565b8160095f8581526020019081526020015f206002015f828254610ec09190613869565b9250508190555082905092915050565b5f60035f9054906101000a900473ffffffffffffffffffffffffffffffffffffffff16905090565b610f00612386565b60095f8381526020019081526020015f206040518060a00160405290815f8201548152602001600182018054610f3590612fe9565b80601f0160208091040260200160405190810160405280929190818152602001828054610f6190612fe9565b8015610fac5780601f10610f8357610100808354040283529160200191610fac565b820191905f5260205f20905b815481529060010190602001808311610f8f57829003601f168201915b505050505081526020016002820154815260200160038201548152602001600482015f9054906101000a900473ffffffffffffffffffffffffffffffffffffffff1673ffffffffffffffffffffffffffffffffffffffff1673ffffffffffffffffffffffffffffffffffffffff16815250509050919050565b8173ffffffffffffffffffffffffffffffffffffffff16611044611762565b73ffffffffffffffffffffffffffffffffffffffff160361109a576040517f08c379a00000000000000000000000000000000000000000000000000000000081526004016110919061390c565b60405180910390fd5b8060015f6110a6611762565b73ffffffffffffffffffffffffffffffffffffffff1673ffffffffffffffffffffffffffffffffffffffff1681526020019081526020015f205f8473ffffffffffffffffffffffffffffffffffffffff1673ffffffffffffffffffffffffffffffffffffffff1681526020019081526020015f205f6101000a81548160ff0219169083151502179055508173ffffffffffffffffffffffffffffffffffffffff1661114f611762565b73ffffffffffffffffffffffffffffffffffffffff167f17307eab39ab6107e8899845ad3d59bd9653f200f220920489ca2b5937696c31836040516111949190612565565b60405180910390a35050565b5f600754905090565b6111b1611762565b73ffffffffffffffffffffffffffffffffffffffff166111cf610ed0565b73ffffffffffffffffffffffffffffffffffffffff1614611225576040517f08c379a000000000000000000000000000000000000000000000000000000000815260040161121c9061384b565b60405180910390fd5b806005908161123491906136e8565b5050565b611240612386565b600882604051611250919061340f565b90815260200160405180910390205f9054906101000a900460ff166112aa576040517f08c379a00000000000000000000000000000000000000000000000000000000081526004016112a190613974565b60405180910390fd5b5f5b6004805490508110156114ad5761136960095f6001846112cc9190613869565b81526020019081526020015f2060010180546112e790612fe9565b80601f016020809104026020016040519081016040528092919081815260200182805461131390612fe9565b801561135e5780601f106113355761010080835404028352916020019161135e565b820191905f5260205f20905b81548152906001019060200180831161134157829003601f168201915b505050505084611cb1565b156114a05760095f60018361137e9190613869565b81526020019081526020015f206040518060a00160405290815f82015481526020016001820180546113af90612fe9565b80601f01602080910402602001604051908101604052809291908181526020018280546113db90612fe9565b80156114265780601f106113fd57610100808354040283529160200191611426565b820191905f5260205f20905b81548152906001019060200180831161140957829003601f168201915b505050505081526020016002820154815260200160038201548152602001600482015f9054906101000a900473ffffffffffffffffffffffffffffffffffffffff1673ffffffffffffffffffffffffffffffffffffffff1673ffffffffffffffffffffffffffffffffffffffff16815250509150506114bb565b80806001019150506112ac565b506114b6612386565b809150505b919050565b5f60015f8473ffffffffffffffffffffffffffffffffffffffff1673ffffffffffffffffffffffffffffffffffffffff1681526020019081526020015f205f8373ffffffffffffffffffffffffffffffffffffffff1673ffffffffffffffffffffffffffffffffffffffff1681526020019081526020015f205f9054906101000a900460ff16905092915050565b5f63f23a6e6160e01b905095945050505050565b61156a611762565b73ffffffffffffffffffffffffffffffffffffffff168573ffffffffffffffffffffffffffffffffffffffff1614806115b057506115af856115aa611762565b6114c0565b5b6115ef576040517f08c379a00000000000000000000000000000000000000000000000000000000081526004016115e690613a02565b60405180910390fd5b6115fc8585858585611cd8565b5050505050565b61160b611762565b73ffffffffffffffffffffffffffffffffffffffff16611629610ed0565b73ffffffffffffffffffffffffffffffffffffffff161461167f576040517f08c379a00000000000000000000000000000000000000000000000000000000081526004016116769061384b565b60405180910390fd5b5f73ffffffffffffffffffffffffffffffffffffffff168173ffffffffffffffffffffffffffffffffffffffff16036116ed576040517f08c379a00000000000000000000000000000000000000000000000000000000081526004016116e490613a90565b60405180910390fd5b6116f681611bee565b50565b5f7f01ffc9a7000000000000000000000000000000000000000000000000000000007bffffffffffffffffffffffffffffffffffffffffffffffffffffffff1916827bffffffffffffffffffffffffffffffffffffffffffffffffffffffff1916149050919050565b5f33905090565b81518351146117ad576040517f08c379a00000000000000000000000000000000000000000000000000000000081526004016117a490613b1e565b60405180910390fd5b5f73ffffffffffffffffffffffffffffffffffffffff168473ffffffffffffffffffffffffffffffffffffffff160361181b576040517f08c379a000000000000000000000000000000000000000000000000000000000815260040161181290613bac565b60405180910390fd5b5f611824611762565b9050611834818787878787611f49565b5f5b84518110156119ce575f858281518110611853576118526133b2565b5b602002602001015190505f858381518110611871576118706133b2565b5b602002602001015190505f805f8481526020019081526020015f205f8b73ffffffffffffffffffffffffffffffffffffffff1673ffffffffffffffffffffffffffffffffffffffff1681526020019081526020015f205490508181101561190d576040517f08c379a000000000000000000000000000000000000000000000000000000000815260040161190490613c3a565b60405180910390fd5b8181035f808581526020019081526020015f205f8c73ffffffffffffffffffffffffffffffffffffffff1673ffffffffffffffffffffffffffffffffffffffff1681526020019081526020015f2081905550815f808581526020019081526020015f205f8b73ffffffffffffffffffffffffffffffffffffffff1673ffffffffffffffffffffffffffffffffffffffff1681526020019081526020015f205f8282546119b99190613869565b92505081905550505050806001019050611836565b508473ffffffffffffffffffffffffffffffffffffffff168673ffffffffffffffffffffffffffffffffffffffff168273ffffffffffffffffffffffffffffffffffffffff167f4a39dc06d4c0dbc64b70af90fd698a233a518aa5d07e595d983b8c0526c8f7fb8787604051611a45929190613c58565b60405180910390a4611a5b818787878787611f51565b505050505050565b5f73ffffffffffffffffffffffffffffffffffffffff168473ffffffffffffffffffffffffffffffffffffffff1603611ad1576040517f08c379a0000000000000000000000000000000000000000000000000000000008152600401611ac890613cfd565b60405180910390fd5b5f611ada611762565b9050611afa815f87611aeb88612127565b611af488612127565b87611f49565b825f808681526020019081526020015f205f8773ffffffffffffffffffffffffffffffffffffffff1673ffffffffffffffffffffffffffffffffffffffff1681526020019081526020015f205f828254611b549190613869565b925050819055508473ffffffffffffffffffffffffffffffffffffffff165f73ffffffffffffffffffffffffffffffffffffffff168273ffffffffffffffffffffffffffffffffffffffff167fc3d58168c5ae7397731d063d5bbf3d657854427343f4c083240f7aacaa2d0f628787604051611bd192919061326f565b60405180910390a4611be7815f8787878761219f565b5050505050565b5f60035f9054906101000a900473ffffffffffffffffffffffffffffffffffffffff1690508160035f6101000a81548173ffffffffffffffffffffffffffffffffffffffff021916908373ffffffffffffffffffffffffffffffffffffffff1602179055508173ffffffffffffffffffffffffffffffffffffffff168173ffffffffffffffffffffffffffffffffffffffff167f8be0079c531659141344cd1fd0a4f28419497f9722a3daafe3b4186f6b6457e060405160405180910390a35050565b5f81518351148015611cd0575081805190602001208380519060200120145b905092915050565b5f73ffffffffffffffffffffffffffffffffffffffff168473ffffffffffffffffffffffffffffffffffffffff1603611d46576040517f08c379a0000000000000000000000000000000000000000000000000000000008152600401611d3d90613bac565b60405180910390fd5b5f611d4f611762565b9050611d6f818787611d6088612127565b611d6988612127565b87611f49565b5f805f8681526020019081526020015f205f8873ffffffffffffffffffffffffffffffffffffffff1673ffffffffffffffffffffffffffffffffffffffff1681526020019081526020015f2054905083811015611e01576040517f08c379a0000000000000000000000000000000000000000000000000000000008152600401611df890613c3a565b60405180910390fd5b8381035f808781526020019081526020015f205f8973ffffffffffffffffffffffffffffffffffffffff1673ffffffffffffffffffffffffffffffffffffffff1681526020019081526020015f2081905550835f808781526020019081526020015f205f8873ffffffffffffffffffffffffffffffffffffffff1673ffffffffffffffffffffffffffffffffffffffff1681526020019081526020015f205f828254611ead9190613869565b925050819055508573ffffffffffffffffffffffffffffffffffffffff168773ffffffffffffffffffffffffffffffffffffffff168373ffffffffffffffffffffffffffffffffffffffff167fc3d58168c5ae7397731d063d5bbf3d657854427343f4c083240f7aacaa2d0f628888604051611f2a92919061326f565b60405180910390a4611f4082888888888861219f565b50505050505050565b505050505050565b611f708473ffffffffffffffffffffffffffffffffffffffff16612375565b1561211f578373ffffffffffffffffffffffffffffffffffffffff1663bc197c8187878686866040518663ffffffff1660e01b8152600401611fb6959493929190613d6d565b6020604051808303815f875af1925050508015611ff157506040513d601f19601f82011682018060405250810190611fee9190613de7565b60015b61209657611ffd613e1e565b806308c379a0036120595750612011613e3d565b8061201c575061205b565b806040517f08c379a00000000000000000000000000000000000000000000000000000000081526004016120509190612619565b60405180910390fd5b505b6040517f08c379a000000000000000000000000000000000000000000000000000000000815260040161208d90613f3c565b60405180910390fd5b63bc197c8160e01b7bffffffffffffffffffffffffffffffffffffffffffffffffffffffff1916817bffffffffffffffffffffffffffffffffffffffffffffffffffffffff19161461211d576040517f08c379a000000000000000000000000000000000000000000000000000000000815260040161211490613fca565b60405180910390fd5b505b505050505050565b60605f600167ffffffffffffffff8111156121455761214461267b565b5b6040519080825280602002602001820160405280156121735781602001602082028036833780820191505090505b50905082815f8151811061218a576121896133b2565b5b60200260200101818152505080915050919050565b6121be8473ffffffffffffffffffffffffffffffffffffffff16612375565b1561236d578373ffffffffffffffffffffffffffffffffffffffff1663f23a6e6187878686866040518663ffffffff1660e01b8152600401612204959493929190613fe8565b6020604051808303815f875af192505050801561223f57506040513d601f19601f8201168201806040525081019061223c9190613de7565b60015b6122e45761224b613e1e565b806308c379a0036122a7575061225f613e3d565b8061226a57506122a9565b806040517f08c379a000000000000000000000000000000000000000000000000000000000815260040161229e9190612619565b60405180910390fd5b505b6040517f08c379a00000000000000000000000000000000000000000000000000000000081526004016122db90613f3c565b60405180910390fd5b63f23a6e6160e01b7bffffffffffffffffffffffffffffffffffffffffffffffffffffffff1916817bffffffffffffffffffffffffffffffffffffffffffffffffffffffff19161461236b576040517f08c379a000000000000000000000000000000000000000000000000000000000815260040161236290613fca565b60405180910390fd5b505b505050505050565b5f80823b90505f8111915050919050565b6040518060a001604052805f8152602001606081526020015f81526020015f81526020015f73ffffffffffffffffffffffffffffffffffffffff1681525090565b5f604051905090565b5f80fd5b5f80fd5b5f73ffffffffffffffffffffffffffffffffffffffff82169050919050565b5f612401826123d8565b9050919050565b612411816123f7565b811461241b575f80fd5b50565b5f8135905061242c81612408565b92915050565b5f819050919050565b61244481612432565b811461244e575f80fd5b50565b5f8135905061245f8161243b565b92915050565b5f806040838503121561247b5761247a6123d0565b5b5f6124888582860161241e565b925050602061249985828601612451565b9150509250929050565b6124ac81612432565b82525050565b5f6020820190506124c55f8301846124a3565b92915050565b5f7fffffffff0000000000000000000000000000000000000000000000000000000082169050919050565b6124ff816124cb565b8114612509575f80fd5b50565b5f8135905061251a816124f6565b92915050565b5f60208284031215612535576125346123d0565b5b5f6125428482850161250c565b91505092915050565b5f8115159050919050565b61255f8161254b565b82525050565b5f6020820190506125785f830184612556565b92915050565b5f60208284031215612593576125926123d0565b5b5f6125a084828501612451565b91505092915050565b5f81519050919050565b5f82825260208201905092915050565b8281835e5f83830152505050565b5f601f19601f8301169050919050565b5f6125eb826125a9565b6125f581856125b3565b93506126058185602086016125c3565b61260e816125d1565b840191505092915050565b5f6020820190508181035f83015261263181846125e1565b905092915050565b5f806040838503121561264f5761264e6123d0565b5b5f61265c85828601612451565b925050602061266d85828601612451565b9150509250929050565b5f80fd5b7f4e487b71000000000000000000000000000000000000000000000000000000005f52604160045260245ffd5b6126b1826125d1565b810181811067ffffffffffffffff821117156126d0576126cf61267b565b5b80604052505050565b5f6126e26123c7565b90506126ee82826126a8565b919050565b5f67ffffffffffffffff82111561270d5761270c61267b565b5b602082029050602081019050919050565b5f80fd5b5f61273461272f846126f3565b6126d9565b905080838252602082019050602084028301858111156127575761275661271e565b5b835b81811015612780578061276c8882612451565b845260208401935050602081019050612759565b5050509392505050565b5f82601f83011261279e5761279d612677565b5b81356127ae848260208601612722565b91505092915050565b5f80fd5b5f67ffffffffffffffff8211156127d5576127d461267b565b5b6127de826125d1565b9050602081019050919050565b828183375f83830152505050565b5f61280b612806846127bb565b6126d9565b905082815260208101848484011115612827576128266127b7565b5b6128328482856127eb565b509392505050565b5f82601f83011261284e5761284d612677565b5b813561285e8482602086016127f9565b91505092915050565b5f805f805f60a086880312156128805761287f6123d0565b5b5f61288d8882890161241e565b955050602061289e8882890161241e565b945050604086013567ffffffffffffffff8111156128bf576128be6123d4565b5b6128cb8882890161278a565b935050606086013567ffffffffffffffff8111156128ec576128eb6123d4565b5b6128f88882890161278a565b925050608086013567ffffffffffffffff811115612919576129186123d4565b5b6129258882890161283a565b9150509295509295909350565b5f67ffffffffffffffff82111561294c5761294b61267b565b5b602082029050602081019050919050565b5f61296f61296a84612932565b6126d9565b905080838252602082019050602084028301858111156129925761299161271e565b5b835b818110156129bb57806129a7888261241e565b845260208401935050602081019050612994565b5050509392505050565b5f82601f8301126129d9576129d8612677565b5b81356129e984826020860161295d565b91505092915050565b5f8060408385031215612a0857612a076123d0565b5b5f83013567ffffffffffffffff811115612a2557612a246123d4565b5b612a31858286016129c5565b925050602083013567ffffffffffffffff811115612a5257612a516123d4565b5b612a5e8582860161278a565b9150509250929050565b5f81519050919050565b5f82825260208201905092915050565b5f819050602082019050919050565b612a9a81612432565b82525050565b5f612aab8383612a91565b60208301905092915050565b5f602082019050919050565b5f612acd82612a68565b612ad78185612a72565b9350612ae283612a82565b805f5b83811015612b12578151612af98882612aa0565b9750612b0483612ab7565b925050600181019050612ae5565b5085935050505092915050565b5f6020820190508181035f830152612b378184612ac3565b905092915050565b5f67ffffffffffffffff821115612b5957612b5861267b565b5b612b62826125d1565b9050602081019050919050565b5f612b81612b7c84612b3f565b6126d9565b905082815260208101848484011115612b9d57612b9c6127b7565b5b612ba88482856127eb565b509392505050565b5f82601f830112612bc457612bc3612677565b5b8135612bd4848260208601612b6f565b91505092915050565b5f805f60608486031215612bf457612bf36123d0565b5b5f84013567ffffffffffffffff811115612c1157612c106123d4565b5b612c1d86828701612bb0565b9350506020612c2e86828701612451565b9250506040612c3f86828701612451565b9150509250925092565b612c52816123f7565b82525050565b5f602082019050612c6b5f830184612c49565b92915050565b5f82825260208201905092915050565b5f612c8b826125a9565b612c958185612c71565b9350612ca58185602086016125c3565b612cae816125d1565b840191505092915050565b612cc2816123f7565b82525050565b5f60a083015f830151612cdd5f860182612a91565b5060208301518482036020860152612cf58282612c81565b9150506040830151612d0a6040860182612a91565b506060830151612d1d6060860182612a91565b506080830151612d306080860182612cb9565b508091505092915050565b5f6020820190508181035f830152612d538184612cc8565b905092915050565b612d648161254b565b8114612d6e575f80fd5b50565b5f81359050612d7f81612d5b565b92915050565b5f8060408385031215612d9b57612d9a6123d0565b5b5f612da88582860161241e565b9250506020612db985828601612d71565b9150509250929050565b5f60208284031215612dd857612dd76123d0565b5b5f82013567ffffffffffffffff811115612df557612df46123d4565b5b612e0184828501612bb0565b91505092915050565b5f8060408385031215612e2057612e1f6123d0565b5b5f612e2d8582860161241e565b9250506020612e3e8582860161241e565b9150509250929050565b5f805f805f60a08688031215612e6157612e606123d0565b5b5f612e6e8882890161241e565b9550506020612e7f8882890161241e565b9450506040612e9088828901612451565b9350506060612ea188828901612451565b925050608086013567ffffffffffffffff811115612ec257612ec16123d4565b5b612ece8882890161283a565b9150509295509295909350565b612ee4816124cb565b82525050565b5f602082019050612efd5f830184612edb565b92915050565b5f60208284031215612f1857612f176123d0565b5b5f612f258482850161241e565b91505092915050565b7f455243313135353a2062616c616e636520717565727920666f7220746865207a5f8201527f65726f2061646472657373000000000000000000000000000000000000000000602082015250565b5f612f88602b836125b3565b9150612f9382612f2e565b604082019050919050565b5f6020820190508181035f830152612fb581612f7c565b9050919050565b7f4e487b71000000000000000000000000000000000000000000000000000000005f52602260045260245ffd5b5f600282049050600182168061300057607f821691505b60208210810361301357613012612fbc565b5b50919050565b5f81905092915050565b5f819050815f5260205f209050919050565b5f815461304181612fe9565b61304b8186613019565b9450600182165f8114613065576001811461307a576130ac565b60ff19831686528115158202860193506130ac565b61308385613023565b5f5b838110156130a457815481890152600182019150602081019050613085565b838801955050505b50505092915050565b5f6130c08285613035565b91506130cc8284613035565b91508190509392505050565b7f4e487b71000000000000000000000000000000000000000000000000000000005f52601160045260245ffd5b5f61310f82612432565b915061311a83612432565b925082820261312881612432565b9150828204841483151761313f5761313e6130d8565b5b5092915050565b7f6b6f206475206e667400000000000000000000000000000000000000000000005f82015250565b5f61317a6009836125b3565b915061318582613146565b602082019050919050565b5f6020820190508181035f8301526131a78161316e565b9050919050565b7f4e6565647320746f2062652067726561746572206f7220657175616c20746f205f8201527f7468652070726963652e00000000000000000000000000000000000000000000602082015250565b5f613208602a836125b3565b9150613213826131ae565b604082019050919050565b5f6020820190508181035f830152613235816131fc565b9050919050565b5f61324682612432565b915061325183612432565b9250828203905081811115613269576132686130d8565b5b92915050565b5f6040820190506132825f8301856124a3565b61328f60208301846124a3565b9392505050565b7f455243313135353a207472616e736665722063616c6c6572206973206e6f74205f8201527f6f776e6572206e6f7220617070726f7665640000000000000000000000000000602082015250565b5f6132f06032836125b3565b91506132fb82613296565b604082019050919050565b5f6020820190508181035f83015261331d816132e4565b9050919050565b7f455243313135353a206163636f756e747320616e6420696473206c656e6774685f8201527f206d69736d617463680000000000000000000000000000000000000000000000602082015250565b5f61337e6029836125b3565b915061338982613324565b604082019050919050565b5f6020820190508181035f8301526133ab81613372565b9050919050565b7f4e487b71000000000000000000000000000000000000000000000000000000005f52603260045260245ffd5b5f6133e9826125a9565b6133f38185613019565b93506134038185602086016125c3565b80840191505092915050565b5f61341a82846133df565b915081905092915050565b7f54686520746f6b656e205552492073686f756c6420626520756e6971756500005f82015250565b5f613459601e836125b3565b915061346482613425565b602082019050919050565b5f6020820190508181035f8301526134868161344d565b9050919050565b7f5072696365206d75737420626520706f736974697665000000000000000000005f82015250565b5f6134c16016836125b3565b91506134cc8261348d565b602082019050919050565b5f6020820190508181035f8301526134ee816134b5565b9050919050565b7f596f75722072656d61696e206d6f6e6579206e6f7420616c6c6f7700000000005f82015250565b5f613529601b836125b3565b9150613534826134f5565b602082019050919050565b5f6020820190508181035f8301526135568161351d565b9050919050565b5f6020601f8301049050919050565b5f82821b905092915050565b5f600883026135a77fffffffffffffffffffffffffffffffffffffffffffffffffffffffffffffffff8261356c565b6135b1868361356c565b95508019841693508086168417925050509392505050565b5f819050919050565b5f6135ec6135e76135e284612432565b6135c9565b612432565b9050919050565b5f819050919050565b613605836135d2565b613619613611826135f3565b848454613578565b825550505050565b5f90565b61362d613621565b6136388184846135fc565b505050565b5b8181101561365b576136505f82613625565b60018101905061363e565b5050565b601f8211156136a05761367181613023565b61367a8461355d565b81016020851015613689578190505b61369d6136958561355d565b83018261363d565b50505b505050565b5f82821c905092915050565b5f6136c05f19846008026136a5565b1980831691505092915050565b5f6136d883836136b1565b9150826002028217905092915050565b6136f1826125a9565b67ffffffffffffffff81111561370a5761370961267b565b5b6137148254612fe9565b61371f82828561365f565b5f60209050601f831160018114613750575f841561373e578287015190505b61374885826136cd565b8655506137af565b601f19841661375e86613023565b5f5b8281101561378557848901518255600182019150602085019450602081019050613760565b868310156137a2578489015161379e601f8916826136b1565b8355505b6001600288020188555050505b505050505050565b5f6080820190508181035f8301526137cf81876125e1565b90506137de60208301866124a3565b6137eb60408301856124a3565b6137f86060830184612c49565b95945050505050565b7f4f776e61626c653a2063616c6c6572206973206e6f7420746865206f776e65725f82015250565b5f6138356020836125b3565b915061384082613801565b602082019050919050565b5f6020820190508181035f83015261386281613829565b9050919050565b5f61387382612432565b915061387e83612432565b9250828201905080821115613896576138956130d8565b5b92915050565b7f455243313135353a2073657474696e6720617070726f76616c207374617475735f8201527f20666f722073656c660000000000000000000000000000000000000000000000602082015250565b5f6138f66029836125b3565b91506139018261389c565b604082019050919050565b5f6020820190508181035f830152613923816138ea565b9050919050565b7f54686520746f6b656e205552492073686f756c64206265206d696e74000000005f82015250565b5f61395e601c836125b3565b91506139698261392a565b602082019050919050565b5f6020820190508181035f83015261398b81613952565b9050919050565b7f455243313135353a2063616c6c6572206973206e6f74206f776e6572206e6f725f8201527f20617070726f7665640000000000000000000000000000000000000000000000602082015250565b5f6139ec6029836125b3565b91506139f782613992565b604082019050919050565b5f6020820190508181035f830152613a19816139e0565b9050919050565b7f4f776e61626c653a206e6577206f776e657220697320746865207a65726f20615f8201527f6464726573730000000000000000000000000000000000000000000000000000602082015250565b5f613a7a6026836125b3565b9150613a8582613a20565b604082019050919050565b5f6020820190508181035f830152613aa781613a6e565b9050919050565b7f455243313135353a2069647320616e6420616d6f756e7473206c656e677468205f8201527f6d69736d61746368000000000000000000000000000000000000000000000000602082015250565b5f613b086028836125b3565b9150613b1382613aae565b604082019050919050565b5f6020820190508181035f830152613b3581613afc565b9050919050565b7f455243313135353a207472616e7366657220746f20746865207a65726f2061645f8201527f6472657373000000000000000000000000000000000000000000000000000000602082015250565b5f613b966025836125b3565b9150613ba182613b3c565b604082019050919050565b5f6020820190508181035f830152613bc381613b8a565b9050919050565b7f455243313135353a20696e73756666696369656e742062616c616e636520666f5f8201527f72207472616e7366657200000000000000000000000000000000000000000000602082015250565b5f613c24602a836125b3565b9150613c2f82613bca565b604082019050919050565b5f6020820190508181035f830152613c5181613c18565b9050919050565b5f6040820190508181035f830152613c708185612ac3565b90508181036020830152613c848184612ac3565b90509392505050565b7f455243313135353a206d696e7420746f20746865207a65726f206164647265735f8201527f7300000000000000000000000000000000000000000000000000000000000000602082015250565b5f613ce76021836125b3565b9150613cf282613c8d565b604082019050919050565b5f6020820190508181035f830152613d1481613cdb565b9050919050565b5f81519050919050565b5f82825260208201905092915050565b5f613d3f82613d1b565b613d498185613d25565b9350613d598185602086016125c3565b613d62816125d1565b840191505092915050565b5f60a082019050613d805f830188612c49565b613d8d6020830187612c49565b8181036040830152613d9f8186612ac3565b90508181036060830152613db38185612ac3565b90508181036080830152613dc78184613d35565b90509695505050505050565b5f81519050613de1816124f6565b92915050565b5f60208284031215613dfc57613dfb6123d0565b5b5f613e0984828501613dd3565b91505092915050565b5f8160e01c9050919050565b5f60033d1115613e3a5760045f803e613e375f51613e12565b90505b90565b5f60443d10613ec957613e4e6123c7565b60043d036004823e80513d602482011167ffffffffffffffff82111715613e76575050613ec9565b808201805167ffffffffffffffff811115613e945750505050613ec9565b80602083010160043d038501811115613eb1575050505050613ec9565b613ec0826020018501866126a8565b82955050505050505b90565b7f455243313135353a207472616e7366657220746f206e6f6e20455243313135355f8201527f526563656976657220696d706c656d656e746572000000000000000000000000602082015250565b5f613f266034836125b3565b9150613f3182613ecc565b604082019050919050565b5f6020820190508181035f830152613f5381613f1a565b9050919050565b7f455243313135353a204552433131353552656365697665722072656a656374655f8201527f6420746f6b656e73000000000000000000000000000000000000000000000000602082015250565b5f613fb46028836125b3565b9150613fbf82613f5a565b604082019050919050565b5f6020820190508181035f830152613fe181613fa8565b9050919050565b5f60a082019050613ffb5f830188612c49565b6140086020830187612c49565b61401560408301866124a3565b61402260608301856124a3565b81810360808301526140348184613d35565b9050969550505050505056fea26469706673582212201aaac0bdcd2bb231a2c01b010ada498e75e73469f0b3302b2ce493f97bd1347064736f6c634300081a0033",
		"opcodes": "PUSH1 0x80 PUSH1 0x40 MSTORE PUSH0 PUSH1 0x7 SSTORE CALLVALUE DUP1 ISZERO PUSH2 0x13 JUMPI PUSH0 DUP1 REVERT JUMPDEST POP PUSH1 0x40 MLOAD PUSH2 0x4696 CODESIZE SUB DUP1 PUSH2 0x4696 DUP4 CODECOPY DUP2 DUP2 ADD PUSH1 0x40 MSTORE DUP2 ADD SWAP1 PUSH2 0x35 SWAP2 SWAP1 PUSH2 0x2F0 JUMP JUMPDEST PUSH1 0x40 MLOAD DUP1 PUSH1 0x20 ADD PUSH1 0x40 MSTORE DUP1 PUSH0 DUP2 MSTORE POP PUSH2 0x53 DUP2 PUSH2 0xC6 PUSH1 0x20 SHL PUSH1 0x20 SHR JUMP JUMPDEST POP PUSH2 0x70 PUSH2 0x65 PUSH2 0xD9 PUSH1 0x20 SHL PUSH1 0x20 SHR JUMP JUMPDEST PUSH2 0xE0 PUSH1 0x20 SHL PUSH1 0x20 SHR JUMP JUMPDEST DUP1 PUSH1 0x5 SWAP1 DUP2 PUSH2 0x7F SWAP2 SWAP1 PUSH2 0x544 JUMP JUMPDEST POP CALLER PUSH1 0x6 PUSH0 PUSH2 0x100 EXP DUP2 SLOAD DUP2 PUSH20 0xFFFFFFFFFFFFFFFFFFFFFFFFFFFFFFFFFFFFFFFF MUL NOT AND SWAP1 DUP4 PUSH20 0xFFFFFFFFFFFFFFFFFFFFFFFFFFFFFFFFFFFFFFFF AND MUL OR SWAP1 SSTORE POP POP PUSH2 0x613 JUMP JUMPDEST DUP1 PUSH1 0x2 SWAP1 DUP2 PUSH2 0xD5 SWAP2 SWAP1 PUSH2 0x544 JUMP JUMPDEST POP POP JUMP JUMPDEST PUSH0 CALLER SWAP1 POP SWAP1 JUMP JUMPDEST PUSH0 PUSH1 0x3 PUSH0 SWAP1 SLOAD SWAP1 PUSH2 0x100 EXP SWAP1 DIV PUSH20 0xFFFFFFFFFFFFFFFFFFFFFFFFFFFFFFFFFFFFFFFF AND SWAP1 POP DUP2 PUSH1 0x3 PUSH0 PUSH2 0x100 EXP DUP2 SLOAD DUP2 PUSH20 0xFFFFFFFFFFFFFFFFFFFFFFFFFFFFFFFFFFFFFFFF MUL NOT AND SWAP1 DUP4 PUSH20 0xFFFFFFFFFFFFFFFFFFFFFFFFFFFFFFFFFFFFFFFF AND MUL OR SWAP1 SSTORE POP DUP2 PUSH20 0xFFFFFFFFFFFFFFFFFFFFFFFFFFFFFFFFFFFFFFFF AND DUP2 PUSH20 0xFFFFFFFFFFFFFFFFFFFFFFFFFFFFFFFFFFFFFFFF AND PUSH32 0x8BE0079C531659141344CD1FD0A4F28419497F9722A3DAAFE3B4186F6B6457E0 PUSH1 0x40 MLOAD PUSH1 0x40 MLOAD DUP1 SWAP2 SUB SWAP1 LOG3 POP POP JUMP JUMPDEST PUSH0 PUSH1 0x40 MLOAD SWAP1 POP SWAP1 JUMP JUMPDEST PUSH0 DUP1 REVERT JUMPDEST PUSH0 DUP1 REVERT JUMPDEST PUSH0 DUP1 REVERT JUMPDEST PUSH0 DUP1 REVERT JUMPDEST PUSH0 PUSH1 0x1F NOT PUSH1 0x1F DUP4 ADD AND SWAP1 POP SWAP2 SWAP1 POP JUMP JUMPDEST PUSH32 0x4E487B7100000000000000000000000000000000000000000000000000000000 PUSH0 MSTORE PUSH1 0x41 PUSH1 0x4 MSTORE PUSH1 0x24 PUSH0 REVERT JUMPDEST PUSH2 0x202 DUP3 PUSH2 0x1BC JUMP JUMPDEST DUP2 ADD DUP2 DUP2 LT PUSH8 0xFFFFFFFFFFFFFFFF DUP3 GT OR ISZERO PUSH2 0x221 JUMPI PUSH2 0x220 PUSH2 0x1CC JUMP JUMPDEST JUMPDEST DUP1 PUSH1 0x40 MSTORE POP POP POP JUMP JUMPDEST PUSH0 PUSH2 0x233 PUSH2 0x1A3 JUMP JUMPDEST SWAP1 POP PUSH2 0x23F DUP3 DUP3 PUSH2 0x1F9 JUMP JUMPDEST SWAP2 SWAP1 POP JUMP JUMPDEST PUSH0 PUSH8 0xFFFFFFFFFFFFFFFF DUP3 GT ISZERO PUSH2 0x25E JUMPI PUSH2 0x25D PUSH2 0x1CC JUMP JUMPDEST JUMPDEST PUSH2 0x267 DUP3 PUSH2 0x1BC JUMP JUMPDEST SWAP1 POP PUSH1 0x20 DUP2 ADD SWAP1 POP SWAP2 SWAP1 POP JUMP JUMPDEST DUP3 DUP2 DUP4 MCOPY PUSH0 DUP4 DUP4 ADD MSTORE POP POP POP JUMP JUMPDEST PUSH0 PUSH2 0x294 PUSH2 0x28F DUP5 PUSH2 0x244 JUMP JUMPDEST PUSH2 0x22A JUMP JUMPDEST SWAP1 POP DUP3 DUP2 MSTORE PUSH1 0x20 DUP2 ADD DUP5 DUP5 DUP5 ADD GT ISZERO PUSH2 0x2B0 JUMPI PUSH2 0x2AF PUSH2 0x1B8 JUMP JUMPDEST JUMPDEST PUSH2 0x2BB DUP5 DUP3 DUP6 PUSH2 0x274 JUMP JUMPDEST POP SWAP4 SWAP3 POP POP POP JUMP JUMPDEST PUSH0 DUP3 PUSH1 0x1F DUP4 ADD SLT PUSH2 0x2D7 JUMPI PUSH2 0x2D6 PUSH2 0x1B4 JUMP JUMPDEST JUMPDEST DUP2 MLOAD PUSH2 0x2E7 DUP5 DUP3 PUSH1 0x20 DUP7 ADD PUSH2 0x282 JUMP JUMPDEST SWAP2 POP POP SWAP3 SWAP2 POP POP JUMP JUMPDEST PUSH0 PUSH1 0x20 DUP3 DUP5 SUB SLT ISZERO PUSH2 0x305 JUMPI PUSH2 0x304 PUSH2 0x1AC JUMP JUMPDEST JUMPDEST PUSH0 DUP3 ADD MLOAD PUSH8 0xFFFFFFFFFFFFFFFF DUP2 GT ISZERO PUSH2 0x322 JUMPI PUSH2 0x321 PUSH2 0x1B0 JUMP JUMPDEST JUMPDEST PUSH2 0x32E DUP5 DUP3 DUP6 ADD PUSH2 0x2C3 JUMP JUMPDEST SWAP2 POP POP SWAP3 SWAP2 POP POP JUMP JUMPDEST PUSH0 DUP2 MLOAD SWAP1 POP SWAP2 SWAP1 POP JUMP JUMPDEST PUSH32 0x4E487B7100000000000000000000000000000000000000000000000000000000 PUSH0 MSTORE PUSH1 0x22 PUSH1 0x4 MSTORE PUSH1 0x24 PUSH0 REVERT JUMPDEST PUSH0 PUSH1 0x2 DUP3 DIV SWAP1 POP PUSH1 0x1 DUP3 AND DUP1 PUSH2 0x385 JUMPI PUSH1 0x7F DUP3 AND SWAP2 POP JUMPDEST PUSH1 0x20 DUP3 LT DUP2 SUB PUSH2 0x398 JUMPI PUSH2 0x397 PUSH2 0x341 JUMP JUMPDEST JUMPDEST POP SWAP2 SWAP1 POP JUMP JUMPDEST PUSH0 DUP2 SWAP1 POP DUP2 PUSH0 MSTORE PUSH1 0x20 PUSH0 KECCAK256 SWAP1 POP SWAP2 SWAP1 POP JUMP JUMPDEST PUSH0 PUSH1 0x20 PUSH1 0x1F DUP4 ADD DIV SWAP1 POP SWAP2 SWAP1 POP JUMP JUMPDEST PUSH0 DUP3 DUP3 SHL SWAP1 POP SWAP3 SWAP2 POP POP JUMP JUMPDEST PUSH0 PUSH1 0x8 DUP4 MUL PUSH2 0x3FA PUSH32 0xFFFFFFFFFFFFFFFFFFFFFFFFFFFFFFFFFFFFFFFFFFFFFFFFFFFFFFFFFFFFFFFF DUP3 PUSH2 0x3BF JUMP JUMPDEST PUSH2 0x404 DUP7 DUP4 PUSH2 0x3BF JUMP JUMPDEST SWAP6 POP DUP1 NOT DUP5 AND SWAP4 POP DUP1 DUP7 AND DUP5 OR SWAP3 POP POP POP SWAP4 SWAP3 POP POP POP JUMP JUMPDEST PUSH0 DUP2 SWAP1 POP SWAP2 SWAP1 POP JUMP JUMPDEST PUSH0 DUP2 SWAP1 POP SWAP2 SWAP1 POP JUMP JUMPDEST PUSH0 PUSH2 0x448 PUSH2 0x443 PUSH2 0x43E DUP5 PUSH2 0x41C JUMP JUMPDEST PUSH2 0x425 JUMP JUMPDEST PUSH2 0x41C JUMP JUMPDEST SWAP1 POP SWAP2 SWAP1 POP JUMP JUMPDEST PUSH0 DUP2 SWAP1 POP SWAP2 SWAP1 POP JUMP JUMPDEST PUSH2 0x461 DUP4 PUSH2 0x42E JUMP JUMPDEST PUSH2 0x475 PUSH2 0x46D DUP3 PUSH2 0x44F JUMP JUMPDEST DUP5 DUP5 SLOAD PUSH2 0x3CB JUMP JUMPDEST DUP3 SSTORE POP POP POP POP JUMP JUMPDEST PUSH0 SWAP1 JUMP JUMPDEST PUSH2 0x489 PUSH2 0x47D JUMP JUMPDEST PUSH2 0x494 DUP2 DUP5 DUP5 PUSH2 0x458 JUMP JUMPDEST POP POP POP JUMP JUMPDEST JUMPDEST DUP2 DUP2 LT ISZERO PUSH2 0x4B7 JUMPI PUSH2 0x4AC PUSH0 DUP3 PUSH2 0x481 JUMP JUMPDEST PUSH1 0x1 DUP2 ADD SWAP1 POP PUSH2 0x49A JUMP JUMPDEST POP POP JUMP JUMPDEST PUSH1 0x1F DUP3 GT ISZERO PUSH2 0x4FC JUMPI PUSH2 0x4CD DUP2 PUSH2 0x39E JUMP JUMPDEST PUSH2 0x4D6 DUP5 PUSH2 0x3B0 JUMP JUMPDEST DUP2 ADD PUSH1 0x20 DUP6 LT ISZERO PUSH2 0x4E5 JUMPI DUP2 SWAP1 POP JUMPDEST PUSH2 0x4F9 PUSH2 0x4F1 DUP6 PUSH2 0x3B0 JUMP JUMPDEST DUP4 ADD DUP3 PUSH2 0x499 JUMP JUMPDEST POP POP JUMPDEST POP POP POP JUMP JUMPDEST PUSH0 DUP3 DUP3 SHR SWAP1 POP SWAP3 SWAP2 POP POP JUMP JUMPDEST PUSH0 PUSH2 0x51C PUSH0 NOT DUP5 PUSH1 0x8 MUL PUSH2 0x501 JUMP JUMPDEST NOT DUP1 DUP4 AND SWAP2 POP POP SWAP3 SWAP2 POP POP JUMP JUMPDEST PUSH0 PUSH2 0x534 DUP4 DUP4 PUSH2 0x50D JUMP JUMPDEST SWAP2 POP DUP3 PUSH1 0x2 MUL DUP3 OR SWAP1 POP SWAP3 SWAP2 POP POP JUMP JUMPDEST PUSH2 0x54D DUP3 PUSH2 0x337 JUMP JUMPDEST PUSH8 0xFFFFFFFFFFFFFFFF DUP2 GT ISZERO PUSH2 0x566 JUMPI PUSH2 0x565 PUSH2 0x1CC JUMP JUMPDEST JUMPDEST PUSH2 0x570 DUP3 SLOAD PUSH2 0x36E JUMP JUMPDEST PUSH2 0x57B DUP3 DUP3 DUP6 PUSH2 0x4BB JUMP JUMPDEST PUSH0 PUSH1 0x20 SWAP1 POP PUSH1 0x1F DUP4 GT PUSH1 0x1 DUP2 EQ PUSH2 0x5AC JUMPI PUSH0 DUP5 ISZERO PUSH2 0x59A JUMPI DUP3 DUP8 ADD MLOAD SWAP1 POP JUMPDEST PUSH2 0x5A4 DUP6 DUP3 PUSH2 0x529 JUMP JUMPDEST DUP7 SSTORE POP PUSH2 0x60B JUMP JUMPDEST PUSH1 0x1F NOT DUP5 AND PUSH2 0x5BA DUP7 PUSH2 0x39E JUMP JUMPDEST PUSH0 JUMPDEST DUP3 DUP2 LT ISZERO PUSH2 0x5E1 JUMPI DUP5 DUP10 ADD MLOAD DUP3 SSTORE PUSH1 0x1 DUP3 ADD SWAP2 POP PUSH1 0x20 DUP6 ADD SWAP5 POP PUSH1 0x20 DUP2 ADD SWAP1 POP PUSH2 0x5BC JUMP JUMPDEST DUP7 DUP4 LT ISZERO PUSH2 0x5FE JUMPI DUP5 DUP10 ADD MLOAD PUSH2 0x5FA PUSH1 0x1F DUP10 AND DUP3 PUSH2 0x50D JUMP JUMPDEST DUP4 SSTORE POP JUMPDEST PUSH1 0x1 PUSH1 0x2 DUP9 MUL ADD DUP9 SSTORE POP POP POP JUMPDEST POP POP POP POP POP POP JUMP JUMPDEST PUSH2 0x4076 DUP1 PUSH2 0x620 PUSH0 CODECOPY PUSH0 RETURN INVALID PUSH1 0x80 PUSH1 0x40 MSTORE PUSH1 0x4 CALLDATASIZE LT PUSH2 0x11D JUMPI PUSH0 CALLDATALOAD PUSH1 0xE0 SHR DUP1 PUSH4 0x8DA5CB5B GT PUSH2 0x9F JUMPI DUP1 PUSH4 0xDAC187C7 GT PUSH2 0x63 JUMPI DUP1 PUSH4 0xDAC187C7 EQ PUSH2 0x3D3 JUMPI DUP1 PUSH4 0xE985E9C5 EQ PUSH2 0x40F JUMPI DUP1 PUSH4 0xF23A6E61 EQ PUSH2 0x44B JUMPI DUP1 PUSH4 0xF242432A EQ PUSH2 0x487 JUMPI DUP1 PUSH4 0xF2FDE38B EQ PUSH2 0x4AF JUMPI PUSH2 0x11D JUMP JUMPDEST DUP1 PUSH4 0x8DA5CB5B EQ PUSH2 0x2F3 JUMPI DUP1 PUSH4 0x9EB47667 EQ PUSH2 0x31D JUMPI DUP1 PUSH4 0xA22CB465 EQ PUSH2 0x359 JUMPI DUP1 PUSH4 0xB8FE6ABE EQ PUSH2 0x381 JUMPI DUP1 PUSH4 0xD19AC77A EQ PUSH2 0x3AB JUMPI PUSH2 0x11D JUMP JUMPDEST DUP1 PUSH4 0x4E1273F4 GT PUSH2 0xE6 JUMPI DUP1 PUSH4 0x4E1273F4 EQ PUSH2 0x219 JUMPI DUP1 PUSH4 0x4F64B2BE EQ PUSH2 0x255 JUMPI DUP1 PUSH4 0x6E1F94E1 EQ PUSH2 0x291 JUMPI DUP1 PUSH4 0x715018A6 EQ PUSH2 0x2AD JUMPI DUP1 PUSH4 0x80F0A63A EQ PUSH2 0x2C3 JUMPI PUSH2 0x11D JUMP JUMPDEST DUP1 PUSH3 0xFDD58E EQ PUSH2 0x121 JUMPI DUP1 PUSH4 0x1FFC9A7 EQ PUSH2 0x15D JUMPI DUP1 PUSH4 0xE89341C EQ PUSH2 0x199 JUMPI DUP1 PUSH4 0x1D85BF03 EQ PUSH2 0x1D5 JUMPI DUP1 PUSH4 0x2EB2C2D6 EQ PUSH2 0x1F1 JUMPI JUMPDEST PUSH0 DUP1 REVERT JUMPDEST CALLVALUE DUP1 ISZERO PUSH2 0x12C JUMPI PUSH0 DUP1 REVERT JUMPDEST POP PUSH2 0x147 PUSH1 0x4 DUP1 CALLDATASIZE SUB DUP2 ADD SWAP1 PUSH2 0x142 SWAP2 SWAP1 PUSH2 0x2465 JUMP JUMPDEST PUSH2 0x4D7 JUMP JUMPDEST PUSH1 0x40 MLOAD PUSH2 0x154 SWAP2 SWAP1 PUSH2 0x24B2 JUMP JUMPDEST PUSH1 0x40 MLOAD DUP1 SWAP2 SUB SWAP1 RETURN JUMPDEST CALLVALUE DUP1 ISZERO PUSH2 0x168 JUMPI PUSH0 DUP1 REVERT JUMPDEST POP PUSH2 0x183 PUSH1 0x4 DUP1 CALLDATASIZE SUB DUP2 ADD SWAP1 PUSH2 0x17E SWAP2 SWAP1 PUSH2 0x2520 JUMP JUMPDEST PUSH2 0x59A JUMP JUMPDEST PUSH1 0x40 MLOAD PUSH2 0x190 SWAP2 SWAP1 PUSH2 0x2565 JUMP JUMPDEST PUSH1 0x40 MLOAD DUP1 SWAP2 SUB SWAP1 RETURN JUMPDEST CALLVALUE DUP1 ISZERO PUSH2 0x1A4 JUMPI PUSH0 DUP1 REVERT JUMPDEST POP PUSH2 0x1BF PUSH1 0x4 DUP1 CALLDATASIZE SUB DUP2 ADD SWAP1 PUSH2 0x1BA SWAP2 SWAP1 PUSH2 0x257E JUMP JUMPDEST PUSH2 0x67B JUMP JUMPDEST PUSH1 0x40 MLOAD PUSH2 0x1CC SWAP2 SWAP1 PUSH2 0x2619 JUMP JUMPDEST PUSH1 0x40 MLOAD DUP1 SWAP2 SUB SWAP1 RETURN JUMPDEST PUSH2 0x1EF PUSH1 0x4 DUP1 CALLDATASIZE SUB DUP2 ADD SWAP1 PUSH2 0x1EA SWAP2 SWAP1 PUSH2 0x2639 JUMP JUMPDEST PUSH2 0x6BA JUMP JUMPDEST STOP JUMPDEST CALLVALUE DUP1 ISZERO PUSH2 0x1FC JUMPI PUSH0 DUP1 REVERT JUMPDEST POP PUSH2 0x217 PUSH1 0x4 DUP1 CALLDATASIZE SUB DUP2 ADD SWAP1 PUSH2 0x212 SWAP2 SWAP1 PUSH2 0x2867 JUMP JUMPDEST PUSH2 0x8D5 JUMP JUMPDEST STOP JUMPDEST CALLVALUE DUP1 ISZERO PUSH2 0x224 JUMPI PUSH0 DUP1 REVERT JUMPDEST POP PUSH2 0x23F PUSH1 0x4 DUP1 CALLDATASIZE SUB DUP2 ADD SWAP1 PUSH2 0x23A SWAP2 SWAP1 PUSH2 0x29F2 JUMP JUMPDEST PUSH2 0x976 JUMP JUMPDEST PUSH1 0x40 MLOAD PUSH2 0x24C SWAP2 SWAP1 PUSH2 0x2B1F JUMP JUMPDEST PUSH1 0x40 MLOAD DUP1 SWAP2 SUB SWAP1 RETURN JUMPDEST CALLVALUE DUP1 ISZERO PUSH2 0x260 JUMPI PUSH0 DUP1 REVERT JUMPDEST POP PUSH2 0x27B PUSH1 0x4 DUP1 CALLDATASIZE SUB DUP2 ADD SWAP1 PUSH2 0x276 SWAP2 SWAP1 PUSH2 0x257E JUMP JUMPDEST PUSH2 0xA87 JUMP JUMPDEST PUSH1 0x40 MLOAD PUSH2 0x288 SWAP2 SWAP1 PUSH2 0x2619 JUMP JUMPDEST PUSH1 0x40 MLOAD DUP1 SWAP2 SUB SWAP1 RETURN JUMPDEST PUSH2 0x2AB PUSH1 0x4 DUP1 CALLDATASIZE SUB DUP2 ADD SWAP1 PUSH2 0x2A6 SWAP2 SWAP1 PUSH2 0x2BDD JUMP JUMPDEST PUSH2 0xB2D JUMP JUMPDEST STOP JUMPDEST CALLVALUE DUP1 ISZERO PUSH2 0x2B8 JUMPI PUSH0 DUP1 REVERT JUMPDEST POP PUSH2 0x2C1 PUSH2 0xDFA JUMP JUMPDEST STOP JUMPDEST PUSH2 0x2DD PUSH1 0x4 DUP1 CALLDATASIZE SUB DUP2 ADD SWAP1 PUSH2 0x2D8 SWAP2 SWAP1 PUSH2 0x2639 JUMP JUMPDEST PUSH2 0xE81 JUMP JUMPDEST PUSH1 0x40 MLOAD PUSH2 0x2EA SWAP2 SWAP1 PUSH2 0x24B2 JUMP JUMPDEST PUSH1 0x40 MLOAD DUP1 SWAP2 SUB SWAP1 RETURN JUMPDEST CALLVALUE DUP1 ISZERO PUSH2 0x2FE JUMPI PUSH0 DUP1 REVERT JUMPDEST POP PUSH2 0x307 PUSH2 0xED0 JUMP JUMPDEST PUSH1 0x40 MLOAD PUSH2 0x314 SWAP2 SWAP1 PUSH2 0x2C58 JUMP JUMPDEST PUSH1 0x40 MLOAD DUP1 SWAP2 SUB SWAP1 RETURN JUMPDEST CALLVALUE DUP1 ISZERO PUSH2 0x328 JUMPI PUSH0 DUP1 REVERT JUMPDEST POP PUSH2 0x343 PUSH1 0x4 DUP1 CALLDATASIZE SUB DUP2 ADD SWAP1 PUSH2 0x33E SWAP2 SWAP1 PUSH2 0x257E JUMP JUMPDEST PUSH2 0xEF8 JUMP JUMPDEST PUSH1 0x40 MLOAD PUSH2 0x350 SWAP2 SWAP1 PUSH2 0x2D3B JUMP JUMPDEST PUSH1 0x40 MLOAD DUP1 SWAP2 SUB SWAP1 RETURN JUMPDEST CALLVALUE DUP1 ISZERO PUSH2 0x364 JUMPI PUSH0 DUP1 REVERT JUMPDEST POP PUSH2 0x37F PUSH1 0x4 DUP1 CALLDATASIZE SUB DUP2 ADD SWAP1 PUSH2 0x37A SWAP2 SWAP1 PUSH2 0x2D85 JUMP JUMPDEST PUSH2 0x1025 JUMP JUMPDEST STOP JUMPDEST CALLVALUE DUP1 ISZERO PUSH2 0x38C JUMPI PUSH0 DUP1 REVERT JUMPDEST POP PUSH2 0x395 PUSH2 0x11A0 JUMP JUMPDEST PUSH1 0x40 MLOAD PUSH2 0x3A2 SWAP2 SWAP1 PUSH2 0x24B2 JUMP JUMPDEST PUSH1 0x40 MLOAD DUP1 SWAP2 SUB SWAP1 RETURN JUMPDEST CALLVALUE DUP1 ISZERO PUSH2 0x3B6 JUMPI PUSH0 DUP1 REVERT JUMPDEST POP PUSH2 0x3D1 PUSH1 0x4 DUP1 CALLDATASIZE SUB DUP2 ADD SWAP1 PUSH2 0x3CC SWAP2 SWAP1 PUSH2 0x2DC3 JUMP JUMPDEST PUSH2 0x11A9 JUMP JUMPDEST STOP JUMPDEST CALLVALUE DUP1 ISZERO PUSH2 0x3DE JUMPI PUSH0 DUP1 REVERT JUMPDEST POP PUSH2 0x3F9 PUSH1 0x4 DUP1 CALLDATASIZE SUB DUP2 ADD SWAP1 PUSH2 0x3F4 SWAP2 SWAP1 PUSH2 0x2DC3 JUMP JUMPDEST PUSH2 0x1238 JUMP JUMPDEST PUSH1 0x40 MLOAD PUSH2 0x406 SWAP2 SWAP1 PUSH2 0x2D3B JUMP JUMPDEST PUSH1 0x40 MLOAD DUP1 SWAP2 SUB SWAP1 RETURN JUMPDEST CALLVALUE DUP1 ISZERO PUSH2 0x41A JUMPI PUSH0 DUP1 REVERT JUMPDEST POP PUSH2 0x435 PUSH1 0x4 DUP1 CALLDATASIZE SUB DUP2 ADD SWAP1 PUSH2 0x430 SWAP2 SWAP1 PUSH2 0x2E0A JUMP JUMPDEST PUSH2 0x14C0 JUMP JUMPDEST PUSH1 0x40 MLOAD PUSH2 0x442 SWAP2 SWAP1 PUSH2 0x2565 JUMP JUMPDEST PUSH1 0x40 MLOAD DUP1 SWAP2 SUB SWAP1 RETURN JUMPDEST CALLVALUE DUP1 ISZERO PUSH2 0x456 JUMPI PUSH0 DUP1 REVERT JUMPDEST POP PUSH2 0x471 PUSH1 0x4 DUP1 CALLDATASIZE SUB DUP2 ADD SWAP1 PUSH2 0x46C SWAP2 SWAP1 PUSH2 0x2E48 JUMP JUMPDEST PUSH2 0x154E JUMP JUMPDEST PUSH1 0x40 MLOAD PUSH2 0x47E SWAP2 SWAP1 PUSH2 0x2EEA JUMP JUMPDEST PUSH1 0x40 MLOAD DUP1 SWAP2 SUB SWAP1 RETURN JUMPDEST CALLVALUE DUP1 ISZERO PUSH2 0x492 JUMPI PUSH0 DUP1 REVERT JUMPDEST POP PUSH2 0x4AD PUSH1 0x4 DUP1 CALLDATASIZE SUB DUP2 ADD SWAP1 PUSH2 0x4A8 SWAP2 SWAP1 PUSH2 0x2E48 JUMP JUMPDEST PUSH2 0x1562 JUMP JUMPDEST STOP JUMPDEST CALLVALUE DUP1 ISZERO PUSH2 0x4BA JUMPI PUSH0 DUP1 REVERT JUMPDEST POP PUSH2 0x4D5 PUSH1 0x4 DUP1 CALLDATASIZE SUB DUP2 ADD SWAP1 PUSH2 0x4D0 SWAP2 SWAP1 PUSH2 0x2F03 JUMP JUMPDEST PUSH2 0x1603 JUMP JUMPDEST STOP JUMPDEST PUSH0 DUP1 PUSH20 0xFFFFFFFFFFFFFFFFFFFFFFFFFFFFFFFFFFFFFFFF AND DUP4 PUSH20 0xFFFFFFFFFFFFFFFFFFFFFFFFFFFFFFFFFFFFFFFF AND SUB PUSH2 0x546 JUMPI PUSH1 0x40 MLOAD PUSH32 0x8C379A000000000000000000000000000000000000000000000000000000000 DUP2 MSTORE PUSH1 0x4 ADD PUSH2 0x53D SWAP1 PUSH2 0x2F9E JUMP JUMPDEST PUSH1 0x40 MLOAD DUP1 SWAP2 SUB SWAP1 REVERT JUMPDEST PUSH0 DUP1 DUP4 DUP2 MSTORE PUSH1 0x20 ADD SWAP1 DUP2 MSTORE PUSH1 0x20 ADD PUSH0 KECCAK256 PUSH0 DUP5 PUSH20 0xFFFFFFFFFFFFFFFFFFFFFFFFFFFFFFFFFFFFFFFF AND PUSH20 0xFFFFFFFFFFFFFFFFFFFFFFFFFFFFFFFFFFFFFFFF AND DUP2 MSTORE PUSH1 0x20 ADD SWAP1 DUP2 MSTORE PUSH1 0x20 ADD PUSH0 KECCAK256 SLOAD SWAP1 POP SWAP3 SWAP2 POP POP JUMP JUMPDEST PUSH0 PUSH32 0xD9B67A2600000000000000000000000000000000000000000000000000000000 PUSH28 0xFFFFFFFFFFFFFFFFFFFFFFFFFFFFFFFFFFFFFFFFFFFFFFFFFFFFFFFF NOT AND DUP3 PUSH28 0xFFFFFFFFFFFFFFFFFFFFFFFFFFFFFFFFFFFFFFFFFFFFFFFFFFFFFFFF NOT AND EQ DUP1 PUSH2 0x664 JUMPI POP PUSH32 0xE89341C00000000000000000000000000000000000000000000000000000000 PUSH28 0xFFFFFFFFFFFFFFFFFFFFFFFFFFFFFFFFFFFFFFFFFFFFFFFFFFFFFFFF NOT AND DUP3 PUSH28 0xFFFFFFFFFFFFFFFFFFFFFFFFFFFFFFFFFFFFFFFFFFFFFFFFFFFFFFFF NOT AND EQ JUMPDEST DUP1 PUSH2 0x674 JUMPI POP PUSH2 0x673 DUP3 PUSH2 0x16F9 JUMP JUMPDEST JUMPDEST SWAP1 POP SWAP2 SWAP1 POP JUMP JUMPDEST PUSH1 0x60 PUSH1 0x5 PUSH1 0x9 PUSH0 DUP5 DUP2 MSTORE PUSH1 0x20 ADD SWAP1 DUP2 MSTORE PUSH1 0x20 ADD PUSH0 KECCAK256 PUSH1 0x1 ADD PUSH1 0x40 MLOAD PUSH1 0x20 ADD PUSH2 0x6A4 SWAP3 SWAP2 SWAP1 PUSH2 0x30B5 JUMP JUMPDEST PUSH1 0x40 MLOAD PUSH1 0x20 DUP2 DUP4 SUB SUB DUP2 MSTORE SWAP1 PUSH1 0x40 MSTORE SWAP1 POP SWAP2 SWAP1 POP JUMP JUMPDEST PUSH0 PUSH1 0x9 PUSH0 DUP5 DUP2 MSTORE PUSH1 0x20 ADD SWAP1 DUP2 MSTORE PUSH1 0x20 ADD PUSH0 KECCAK256 PUSH1 0x3 ADD SLOAD SWAP1 POP PUSH0 DUP3 DUP3 PUSH2 0x6DF SWAP2 SWAP1 PUSH2 0x3105 JUMP JUMPDEST SWAP1 POP DUP3 PUSH1 0x9 PUSH0 DUP7 DUP2 MSTORE PUSH1 0x20 ADD SWAP1 DUP2 MSTORE PUSH1 0x20 ADD PUSH0 KECCAK256 PUSH1 0x2 ADD SLOAD LT ISZERO PUSH2 0x738 JUMPI PUSH1 0x40 MLOAD PUSH32 0x8C379A000000000000000000000000000000000000000000000000000000000 DUP2 MSTORE PUSH1 0x4 ADD PUSH2 0x72F SWAP1 PUSH2 0x3190 JUMP JUMPDEST PUSH1 0x40 MLOAD DUP1 SWAP2 SUB SWAP1 REVERT JUMPDEST DUP1 CALLVALUE LT ISZERO PUSH2 0x77B JUMPI PUSH1 0x40 MLOAD PUSH32 0x8C379A000000000000000000000000000000000000000000000000000000000 DUP2 MSTORE PUSH1 0x4 ADD PUSH2 0x772 SWAP1 PUSH2 0x321E JUMP JUMPDEST PUSH1 0x40 MLOAD DUP1 SWAP2 SUB SWAP1 REVERT JUMPDEST PUSH2 0x7C9 CALLER PUSH1 0x9 PUSH0 DUP8 DUP2 MSTORE PUSH1 0x20 ADD SWAP1 DUP2 MSTORE PUSH1 0x20 ADD PUSH0 KECCAK256 PUSH1 0x4 ADD PUSH0 SWAP1 SLOAD SWAP1 PUSH2 0x100 EXP SWAP1 DIV PUSH20 0xFFFFFFFFFFFFFFFFFFFFFFFFFFFFFFFFFFFFFFFF AND PUSH0 DUP5 PUSH1 0x40 MLOAD DUP1 PUSH1 0x20 ADD PUSH1 0x40 MSTORE DUP1 PUSH0 DUP2 MSTORE POP PUSH2 0x1562 JUMP JUMPDEST PUSH2 0x7E6 CALLER ADDRESS PUSH0 PUSH1 0x7 SLOAD PUSH1 0x40 MLOAD DUP1 PUSH1 0x20 ADD PUSH1 0x40 MSTORE DUP1 PUSH0 DUP2 MSTORE POP PUSH2 0x1562 JUMP JUMPDEST DUP3 PUSH1 0x9 PUSH0 DUP7 DUP2 MSTORE PUSH1 0x20 ADD SWAP1 DUP2 MSTORE PUSH1 0x20 ADD PUSH0 KECCAK256 PUSH1 0x2 ADD PUSH0 DUP3 DUP3 SLOAD PUSH2 0x809 SWAP2 SWAP1 PUSH2 0x323C JUMP JUMPDEST SWAP3 POP POP DUP2 SWAP1 SSTORE POP PUSH2 0x82B ADDRESS CALLER DUP7 DUP7 PUSH1 0x40 MLOAD DUP1 PUSH1 0x20 ADD PUSH1 0x40 MSTORE DUP1 PUSH0 DUP2 MSTORE POP PUSH2 0x154E JUMP JUMPDEST POP PUSH2 0x895 ADDRESS CALLER PUSH1 0x9 PUSH0 DUP9 DUP2 MSTORE PUSH1 0x20 ADD SWAP1 DUP2 MSTORE PUSH1 0x20 ADD PUSH0 KECCAK256 PUSH0 ADD SLOAD PUSH1 0x9 PUSH0 DUP10 DUP2 MSTORE PUSH1 0x20 ADD SWAP1 DUP2 MSTORE PUSH1 0x20 ADD PUSH0 KECCAK256 PUSH1 0x2 ADD SLOAD PUSH1 0x40 MLOAD DUP1 PUSH1 0x40 ADD PUSH1 0x40 MSTORE DUP1 PUSH1 0x3 DUP2 MSTORE PUSH1 0x20 ADD PUSH32 0x3078300000000000000000000000000000000000000000000000000000000000 DUP2 MSTORE POP PUSH2 0x1562 JUMP JUMPDEST DUP4 PUSH32 0x73DA24C1C5A65DD010B8A07187C8A579CE7225624D0EFC87C73EB7BEB8C8E6B8 DUP5 DUP5 PUSH1 0x40 MLOAD PUSH2 0x8C7 SWAP3 SWAP2 SWAP1 PUSH2 0x326F JUMP JUMPDEST PUSH1 0x40 MLOAD DUP1 SWAP2 SUB SWAP1 LOG2 POP POP POP POP JUMP JUMPDEST PUSH2 0x8DD PUSH2 0x1762 JUMP JUMPDEST PUSH20 0xFFFFFFFFFFFFFFFFFFFFFFFFFFFFFFFFFFFFFFFF AND DUP6 PUSH20 0xFFFFFFFFFFFFFFFFFFFFFFFFFFFFFFFFFFFFFFFF AND EQ DUP1 PUSH2 0x923 JUMPI POP PUSH2 0x922 DUP6 PUSH2 0x91D PUSH2 0x1762 JUMP JUMPDEST PUSH2 0x14C0 JUMP JUMPDEST JUMPDEST PUSH2 0x962 JUMPI PUSH1 0x40 MLOAD PUSH32 0x8C379A000000000000000000000000000000000000000000000000000000000 DUP2 MSTORE PUSH1 0x4 ADD PUSH2 0x959 SWAP1 PUSH2 0x3306 JUMP JUMPDEST PUSH1 0x40 MLOAD DUP1 SWAP2 SUB SWAP1 REVERT JUMPDEST PUSH2 0x96F DUP6 DUP6 DUP6 DUP6 DUP6 PUSH2 0x1769 JUMP JUMPDEST POP POP POP POP POP JUMP JUMPDEST PUSH1 0x60 DUP2 MLOAD DUP4 MLOAD EQ PUSH2 0x9BC JUMPI PUSH1 0x40 MLOAD PUSH32 0x8C379A000000000000000000000000000000000000000000000000000000000 DUP2 MSTORE PUSH1 0x4 ADD PUSH2 0x9B3 SWAP1 PUSH2 0x3394 JUMP JUMPDEST PUSH1 0x40 MLOAD DUP1 SWAP2 SUB SWAP1 REVERT JUMPDEST PUSH0 DUP4 MLOAD PUSH8 0xFFFFFFFFFFFFFFFF DUP2 GT ISZERO PUSH2 0x9D8 JUMPI PUSH2 0x9D7 PUSH2 0x267B JUMP JUMPDEST JUMPDEST PUSH1 0x40 MLOAD SWAP1 DUP1 DUP3 MSTORE DUP1 PUSH1 0x20 MUL PUSH1 0x20 ADD DUP3 ADD PUSH1 0x40 MSTORE DUP1 ISZERO PUSH2 0xA06 JUMPI DUP2 PUSH1 0x20 ADD PUSH1 0x20 DUP3 MUL DUP1 CALLDATASIZE DUP4 CALLDATACOPY DUP1 DUP3 ADD SWAP2 POP POP SWAP1 POP JUMPDEST POP SWAP1 POP PUSH0 JUMPDEST DUP5 MLOAD DUP2 LT ISZERO PUSH2 0xA7C JUMPI PUSH2 0xA52 DUP6 DUP3 DUP2 MLOAD DUP2 LT PUSH2 0xA2A JUMPI PUSH2 0xA29 PUSH2 0x33B2 JUMP JUMPDEST JUMPDEST PUSH1 0x20 MUL PUSH1 0x20 ADD ADD MLOAD DUP6 DUP4 DUP2 MLOAD DUP2 LT PUSH2 0xA45 JUMPI PUSH2 0xA44 PUSH2 0x33B2 JUMP JUMPDEST JUMPDEST PUSH1 0x20 MUL PUSH1 0x20 ADD ADD MLOAD PUSH2 0x4D7 JUMP JUMPDEST DUP3 DUP3 DUP2 MLOAD DUP2 LT PUSH2 0xA65 JUMPI PUSH2 0xA64 PUSH2 0x33B2 JUMP JUMPDEST JUMPDEST PUSH1 0x20 MUL PUSH1 0x20 ADD ADD DUP2 DUP2 MSTORE POP POP DUP1 PUSH1 0x1 ADD SWAP1 POP PUSH2 0xA0B JUMP JUMPDEST POP DUP1 SWAP2 POP POP SWAP3 SWAP2 POP POP JUMP JUMPDEST PUSH1 0x4 DUP2 DUP2 SLOAD DUP2 LT PUSH2 0xA96 JUMPI PUSH0 DUP1 REVERT JUMPDEST SWAP1 PUSH0 MSTORE PUSH1 0x20 PUSH0 KECCAK256 ADD PUSH0 SWAP2 POP SWAP1 POP DUP1 SLOAD PUSH2 0xAAE SWAP1 PUSH2 0x2FE9 JUMP JUMPDEST DUP1 PUSH1 0x1F ADD PUSH1 0x20 DUP1 SWAP2 DIV MUL PUSH1 0x20 ADD PUSH1 0x40 MLOAD SWAP1 DUP2 ADD PUSH1 0x40 MSTORE DUP1 SWAP3 SWAP2 SWAP1 DUP2 DUP2 MSTORE PUSH1 0x20 ADD DUP3 DUP1 SLOAD PUSH2 0xADA SWAP1 PUSH2 0x2FE9 JUMP JUMPDEST DUP1 ISZERO PUSH2 0xB25 JUMPI DUP1 PUSH1 0x1F LT PUSH2 0xAFC JUMPI PUSH2 0x100 DUP1 DUP4 SLOAD DIV MUL DUP4 MSTORE SWAP2 PUSH1 0x20 ADD SWAP2 PUSH2 0xB25 JUMP JUMPDEST DUP3 ADD SWAP2 SWAP1 PUSH0 MSTORE PUSH1 0x20 PUSH0 KECCAK256 SWAP1 JUMPDEST DUP2 SLOAD DUP2 MSTORE SWAP1 PUSH1 0x1 ADD SWAP1 PUSH1 0x20 ADD DUP1 DUP4 GT PUSH2 0xB08 JUMPI DUP3 SWAP1 SUB PUSH1 0x1F AND DUP3 ADD SWAP2 JUMPDEST POP POP POP POP POP DUP2 JUMP JUMPDEST PUSH1 0x8 DUP4 PUSH1 0x40 MLOAD PUSH2 0xB3D SWAP2 SWAP1 PUSH2 0x340F JUMP JUMPDEST SWAP1 DUP2 MSTORE PUSH1 0x20 ADD PUSH1 0x40 MLOAD DUP1 SWAP2 SUB SWAP1 KECCAK256 PUSH0 SWAP1 SLOAD SWAP1 PUSH2 0x100 EXP SWAP1 DIV PUSH1 0xFF AND ISZERO PUSH2 0xB98 JUMPI PUSH1 0x40 MLOAD PUSH32 0x8C379A000000000000000000000000000000000000000000000000000000000 DUP2 MSTORE PUSH1 0x4 ADD PUSH2 0xB8F SWAP1 PUSH2 0x346F JUMP JUMPDEST PUSH1 0x40 MLOAD DUP1 SWAP2 SUB SWAP1 REVERT JUMPDEST PUSH0 DUP2 GT PUSH2 0xBDA JUMPI PUSH1 0x40 MLOAD PUSH32 0x8C379A000000000000000000000000000000000000000000000000000000000 DUP2 MSTORE PUSH1 0x4 ADD PUSH2 0xBD1 SWAP1 PUSH2 0x34D7 JUMP JUMPDEST PUSH1 0x40 MLOAD DUP1 SWAP2 SUB SWAP1 REVERT JUMPDEST PUSH1 0x7 SLOAD CALLVALUE EQ PUSH2 0xC1E JUMPI PUSH1 0x40 MLOAD PUSH32 0x8C379A000000000000000000000000000000000000000000000000000000000 DUP2 MSTORE PUSH1 0x4 ADD PUSH2 0xC15 SWAP1 PUSH2 0x353F JUMP JUMPDEST PUSH1 0x40 MLOAD DUP1 SWAP2 SUB SWAP1 REVERT JUMPDEST PUSH0 PUSH20 0xFFFFFFFFFFFFFFFFFFFFFFFFFFFFFFFFFFFFFFFF AND PUSH2 0x8FC CALLVALUE SWAP1 DUP2 ISZERO MUL SWAP1 PUSH1 0x40 MLOAD PUSH0 PUSH1 0x40 MLOAD DUP1 DUP4 SUB DUP2 DUP6 DUP9 DUP9 CALL SWAP4 POP POP POP POP ISZERO DUP1 ISZERO PUSH2 0xC61 JUMPI RETURNDATASIZE PUSH0 DUP1 RETURNDATACOPY RETURNDATASIZE PUSH0 REVERT JUMPDEST POP PUSH1 0x4 DUP4 SWAP1 DUP1 PUSH1 0x1 DUP2 SLOAD ADD DUP1 DUP3 SSTORE DUP1 SWAP2 POP POP PUSH1 0x1 SWAP1 SUB SWAP1 PUSH0 MSTORE PUSH1 0x20 PUSH0 KECCAK256 ADD PUSH0 SWAP1 SWAP2 SWAP1 SWAP2 SWAP1 SWAP2 POP SWAP1 DUP2 PUSH2 0xC93 SWAP2 SWAP1 PUSH2 0x36E8 JUMP JUMPDEST POP PUSH0 PUSH1 0x4 DUP1 SLOAD SWAP1 POP SWAP1 POP PUSH2 0xCB7 ADDRESS DUP3 DUP6 PUSH1 0x40 MLOAD DUP1 PUSH1 0x20 ADD PUSH1 0x40 MSTORE DUP1 PUSH0 DUP2 MSTORE POP PUSH2 0x1A63 JUMP JUMPDEST PUSH1 0x40 MLOAD DUP1 PUSH1 0xA0 ADD PUSH1 0x40 MSTORE DUP1 DUP3 DUP2 MSTORE PUSH1 0x20 ADD DUP6 DUP2 MSTORE PUSH1 0x20 ADD DUP5 DUP2 MSTORE PUSH1 0x20 ADD DUP4 DUP2 MSTORE PUSH1 0x20 ADD CALLER PUSH20 0xFFFFFFFFFFFFFFFFFFFFFFFFFFFFFFFFFFFFFFFF AND DUP2 MSTORE POP PUSH1 0x9 PUSH0 DUP4 DUP2 MSTORE PUSH1 0x20 ADD SWAP1 DUP2 MSTORE PUSH1 0x20 ADD PUSH0 KECCAK256 PUSH0 DUP3 ADD MLOAD DUP2 PUSH0 ADD SSTORE PUSH1 0x20 DUP3 ADD MLOAD DUP2 PUSH1 0x1 ADD SWAP1 DUP2 PUSH2 0xD22 SWAP2 SWAP1 PUSH2 0x36E8 JUMP JUMPDEST POP PUSH1 0x40 DUP3 ADD MLOAD DUP2 PUSH1 0x2 ADD SSTORE PUSH1 0x60 DUP3 ADD MLOAD DUP2 PUSH1 0x3 ADD SSTORE PUSH1 0x80 DUP3 ADD MLOAD DUP2 PUSH1 0x4 ADD PUSH0 PUSH2 0x100 EXP DUP2 SLOAD DUP2 PUSH20 0xFFFFFFFFFFFFFFFFFFFFFFFFFFFFFFFFFFFFFFFF MUL NOT AND SWAP1 DUP4 PUSH20 0xFFFFFFFFFFFFFFFFFFFFFFFFFFFFFFFFFFFFFFFF AND MUL OR SWAP1 SSTORE POP SWAP1 POP POP PUSH1 0x1 PUSH1 0x8 DUP6 PUSH1 0x40 MLOAD PUSH2 0xD92 SWAP2 SWAP1 PUSH2 0x340F JUMP JUMPDEST SWAP1 DUP2 MSTORE PUSH1 0x20 ADD PUSH1 0x40 MLOAD DUP1 SWAP2 SUB SWAP1 KECCAK256 PUSH0 PUSH2 0x100 EXP DUP2 SLOAD DUP2 PUSH1 0xFF MUL NOT AND SWAP1 DUP4 ISZERO ISZERO MUL OR SWAP1 SSTORE POP DUP1 PUSH32 0x878637F2C01E0948D56963DA142376811A0261FEA617351062B12DE43BFB1DEE DUP6 DUP6 DUP6 CALLER PUSH1 0x40 MLOAD PUSH2 0xDEC SWAP5 SWAP4 SWAP3 SWAP2 SWAP1 PUSH2 0x37B7 JUMP JUMPDEST PUSH1 0x40 MLOAD DUP1 SWAP2 SUB SWAP1 LOG2 POP POP POP POP JUMP JUMPDEST PUSH2 0xE02 PUSH2 0x1762 JUMP JUMPDEST PUSH20 0xFFFFFFFFFFFFFFFFFFFFFFFFFFFFFFFFFFFFFFFF AND PUSH2 0xE20 PUSH2 0xED0 JUMP JUMPDEST PUSH20 0xFFFFFFFFFFFFFFFFFFFFFFFFFFFFFFFFFFFFFFFF AND EQ PUSH2 0xE76 JUMPI PUSH1 0x40 MLOAD PUSH32 0x8C379A000000000000000000000000000000000000000000000000000000000 DUP2 MSTORE PUSH1 0x4 ADD PUSH2 0xE6D SWAP1 PUSH2 0x384B JUMP JUMPDEST PUSH1 0x40 MLOAD DUP1 SWAP2 SUB SWAP1 REVERT JUMPDEST PUSH2 0xE7F PUSH0 PUSH2 0x1BEE JUMP JUMPDEST JUMP JUMPDEST PUSH0 PUSH2 0xE9D CALLER ADDRESS DUP6 DUP6 PUSH1 0x40 MLOAD DUP1 PUSH1 0x20 ADD PUSH1 0x40 MSTORE DUP1 PUSH0 DUP2 MSTORE POP PUSH2 0x1562 JUMP JUMPDEST DUP2 PUSH1 0x9 PUSH0 DUP6 DUP2 MSTORE PUSH1 0x20 ADD SWAP1 DUP2 MSTORE PUSH1 0x20 ADD PUSH0 KECCAK256 PUSH1 0x2 ADD PUSH0 DUP3 DUP3 SLOAD PUSH2 0xEC0 SWAP2 SWAP1 PUSH2 0x3869 JUMP JUMPDEST SWAP3 POP POP DUP2 SWAP1 SSTORE POP DUP3 SWAP1 POP SWAP3 SWAP2 POP POP JUMP JUMPDEST PUSH0 PUSH1 0x3 PUSH0 SWAP1 SLOAD SWAP1 PUSH2 0x100 EXP SWAP1 DIV PUSH20 0xFFFFFFFFFFFFFFFFFFFFFFFFFFFFFFFFFFFFFFFF AND SWAP1 POP SWAP1 JUMP JUMPDEST PUSH2 0xF00 PUSH2 0x2386 JUMP JUMPDEST PUSH1 0x9 PUSH0 DUP4 DUP2 MSTORE PUSH1 0x20 ADD SWAP1 DUP2 MSTORE PUSH1 0x20 ADD PUSH0 KECCAK256 PUSH1 0x40 MLOAD DUP1 PUSH1 0xA0 ADD PUSH1 0x40 MSTORE SWAP1 DUP2 PUSH0 DUP3 ADD SLOAD DUP2 MSTORE PUSH1 0x20 ADD PUSH1 0x1 DUP3 ADD DUP1 SLOAD PUSH2 0xF35 SWAP1 PUSH2 0x2FE9 JUMP JUMPDEST DUP1 PUSH1 0x1F ADD PUSH1 0x20 DUP1 SWAP2 DIV MUL PUSH1 0x20 ADD PUSH1 0x40 MLOAD SWAP1 DUP2 ADD PUSH1 0x40 MSTORE DUP1 SWAP3 SWAP2 SWAP1 DUP2 DUP2 MSTORE PUSH1 0x20 ADD DUP3 DUP1 SLOAD PUSH2 0xF61 SWAP1 PUSH2 0x2FE9 JUMP JUMPDEST DUP1 ISZERO PUSH2 0xFAC JUMPI DUP1 PUSH1 0x1F LT PUSH2 0xF83 JUMPI PUSH2 0x100 DUP1 DUP4 SLOAD DIV MUL DUP4 MSTORE SWAP2 PUSH1 0x20 ADD SWAP2 PUSH2 0xFAC JUMP JUMPDEST DUP3 ADD SWAP2 SWAP1 PUSH0 MSTORE PUSH1 0x20 PUSH0 KECCAK256 SWAP1 JUMPDEST DUP2 SLOAD DUP2 MSTORE SWAP1 PUSH1 0x1 ADD SWAP1 PUSH1 0x20 ADD DUP1 DUP4 GT PUSH2 0xF8F JUMPI DUP3 SWAP1 SUB PUSH1 0x1F AND DUP3 ADD SWAP2 JUMPDEST POP POP POP POP POP DUP2 MSTORE PUSH1 0x20 ADD PUSH1 0x2 DUP3 ADD SLOAD DUP2 MSTORE PUSH1 0x20 ADD PUSH1 0x3 DUP3 ADD SLOAD DUP2 MSTORE PUSH1 0x20 ADD PUSH1 0x4 DUP3 ADD PUSH0 SWAP1 SLOAD SWAP1 PUSH2 0x100 EXP SWAP1 DIV PUSH20 0xFFFFFFFFFFFFFFFFFFFFFFFFFFFFFFFFFFFFFFFF AND PUSH20 0xFFFFFFFFFFFFFFFFFFFFFFFFFFFFFFFFFFFFFFFF AND PUSH20 0xFFFFFFFFFFFFFFFFFFFFFFFFFFFFFFFFFFFFFFFF AND DUP2 MSTORE POP POP SWAP1 POP SWAP2 SWAP1 POP JUMP JUMPDEST DUP2 PUSH20 0xFFFFFFFFFFFFFFFFFFFFFFFFFFFFFFFFFFFFFFFF AND PUSH2 0x1044 PUSH2 0x1762 JUMP JUMPDEST PUSH20 0xFFFFFFFFFFFFFFFFFFFFFFFFFFFFFFFFFFFFFFFF AND SUB PUSH2 0x109A JUMPI PUSH1 0x40 MLOAD PUSH32 0x8C379A000000000000000000000000000000000000000000000000000000000 DUP2 MSTORE PUSH1 0x4 ADD PUSH2 0x1091 SWAP1 PUSH2 0x390C JUMP JUMPDEST PUSH1 0x40 MLOAD DUP1 SWAP2 SUB SWAP1 REVERT JUMPDEST DUP1 PUSH1 0x1 PUSH0 PUSH2 0x10A6 PUSH2 0x1762 JUMP JUMPDEST PUSH20 0xFFFFFFFFFFFFFFFFFFFFFFFFFFFFFFFFFFFFFFFF AND PUSH20 0xFFFFFFFFFFFFFFFFFFFFFFFFFFFFFFFFFFFFFFFF AND DUP2 MSTORE PUSH1 0x20 ADD SWAP1 DUP2 MSTORE PUSH1 0x20 ADD PUSH0 KECCAK256 PUSH0 DUP5 PUSH20 0xFFFFFFFFFFFFFFFFFFFFFFFFFFFFFFFFFFFFFFFF AND PUSH20 0xFFFFFFFFFFFFFFFFFFFFFFFFFFFFFFFFFFFFFFFF AND DUP2 MSTORE PUSH1 0x20 ADD SWAP1 DUP2 MSTORE PUSH1 0x20 ADD PUSH0 KECCAK256 PUSH0 PUSH2 0x100 EXP DUP2 SLOAD DUP2 PUSH1 0xFF MUL NOT AND SWAP1 DUP4 ISZERO ISZERO MUL OR SWAP1 SSTORE POP DUP2 PUSH20 0xFFFFFFFFFFFFFFFFFFFFFFFFFFFFFFFFFFFFFFFF AND PUSH2 0x114F PUSH2 0x1762 JUMP JUMPDEST PUSH20 0xFFFFFFFFFFFFFFFFFFFFFFFFFFFFFFFFFFFFFFFF AND PUSH32 0x17307EAB39AB6107E8899845AD3D59BD9653F200F220920489CA2B5937696C31 DUP4 PUSH1 0x40 MLOAD PUSH2 0x1194 SWAP2 SWAP1 PUSH2 0x2565 JUMP JUMPDEST PUSH1 0x40 MLOAD DUP1 SWAP2 SUB SWAP1 LOG3 POP POP JUMP JUMPDEST PUSH0 PUSH1 0x7 SLOAD SWAP1 POP SWAP1 JUMP JUMPDEST PUSH2 0x11B1 PUSH2 0x1762 JUMP JUMPDEST PUSH20 0xFFFFFFFFFFFFFFFFFFFFFFFFFFFFFFFFFFFFFFFF AND PUSH2 0x11CF PUSH2 0xED0 JUMP JUMPDEST PUSH20 0xFFFFFFFFFFFFFFFFFFFFFFFFFFFFFFFFFFFFFFFF AND EQ PUSH2 0x1225 JUMPI PUSH1 0x40 MLOAD PUSH32 0x8C379A000000000000000000000000000000000000000000000000000000000 DUP2 MSTORE PUSH1 0x4 ADD PUSH2 0x121C SWAP1 PUSH2 0x384B JUMP JUMPDEST PUSH1 0x40 MLOAD DUP1 SWAP2 SUB SWAP1 REVERT JUMPDEST DUP1 PUSH1 0x5 SWAP1 DUP2 PUSH2 0x1234 SWAP2 SWAP1 PUSH2 0x36E8 JUMP JUMPDEST POP POP JUMP JUMPDEST PUSH2 0x1240 PUSH2 0x2386 JUMP JUMPDEST PUSH1 0x8 DUP3 PUSH1 0x40 MLOAD PUSH2 0x1250 SWAP2 SWAP1 PUSH2 0x340F JUMP JUMPDEST SWAP1 DUP2 MSTORE PUSH1 0x20 ADD PUSH1 0x40 MLOAD DUP1 SWAP2 SUB SWAP1 KECCAK256 PUSH0 SWAP1 SLOAD SWAP1 PUSH2 0x100 EXP SWAP1 DIV PUSH1 0xFF AND PUSH2 0x12AA JUMPI PUSH1 0x40 MLOAD PUSH32 0x8C379A000000000000000000000000000000000000000000000000000000000 DUP2 MSTORE PUSH1 0x4 ADD PUSH2 0x12A1 SWAP1 PUSH2 0x3974 JUMP JUMPDEST PUSH1 0x40 MLOAD DUP1 SWAP2 SUB SWAP1 REVERT JUMPDEST PUSH0 JUMPDEST PUSH1 0x4 DUP1 SLOAD SWAP1 POP DUP2 LT ISZERO PUSH2 0x14AD JUMPI PUSH2 0x1369 PUSH1 0x9 PUSH0 PUSH1 0x1 DUP5 PUSH2 0x12CC SWAP2 SWAP1 PUSH2 0x3869 JUMP JUMPDEST DUP2 MSTORE PUSH1 0x20 ADD SWAP1 DUP2 MSTORE PUSH1 0x20 ADD PUSH0 KECCAK256 PUSH1 0x1 ADD DUP1 SLOAD PUSH2 0x12E7 SWAP1 PUSH2 0x2FE9 JUMP JUMPDEST DUP1 PUSH1 0x1F ADD PUSH1 0x20 DUP1 SWAP2 DIV MUL PUSH1 0x20 ADD PUSH1 0x40 MLOAD SWAP1 DUP2 ADD PUSH1 0x40 MSTORE DUP1 SWAP3 SWAP2 SWAP1 DUP2 DUP2 MSTORE PUSH1 0x20 ADD DUP3 DUP1 SLOAD PUSH2 0x1313 SWAP1 PUSH2 0x2FE9 JUMP JUMPDEST DUP1 ISZERO PUSH2 0x135E JUMPI DUP1 PUSH1 0x1F LT PUSH2 0x1335 JUMPI PUSH2 0x100 DUP1 DUP4 SLOAD DIV MUL DUP4 MSTORE SWAP2 PUSH1 0x20 ADD SWAP2 PUSH2 0x135E JUMP JUMPDEST DUP3 ADD SWAP2 SWAP1 PUSH0 MSTORE PUSH1 0x20 PUSH0 KECCAK256 SWAP1 JUMPDEST DUP2 SLOAD DUP2 MSTORE SWAP1 PUSH1 0x1 ADD SWAP1 PUSH1 0x20 ADD DUP1 DUP4 GT PUSH2 0x1341 JUMPI DUP3 SWAP1 SUB PUSH1 0x1F AND DUP3 ADD SWAP2 JUMPDEST POP POP POP POP POP DUP5 PUSH2 0x1CB1 JUMP JUMPDEST ISZERO PUSH2 0x14A0 JUMPI PUSH1 0x9 PUSH0 PUSH1 0x1 DUP4 PUSH2 0x137E SWAP2 SWAP1 PUSH2 0x3869 JUMP JUMPDEST DUP2 MSTORE PUSH1 0x20 ADD SWAP1 DUP2 MSTORE PUSH1 0x20 ADD PUSH0 KECCAK256 PUSH1 0x40 MLOAD DUP1 PUSH1 0xA0 ADD PUSH1 0x40 MSTORE SWAP1 DUP2 PUSH0 DUP3 ADD SLOAD DUP2 MSTORE PUSH1 0x20 ADD PUSH1 0x1 DUP3 ADD DUP1 SLOAD PUSH2 0x13AF SWAP1 PUSH2 0x2FE9 JUMP JUMPDEST DUP1 PUSH1 0x1F ADD PUSH1 0x20 DUP1 SWAP2 DIV MUL PUSH1 0x20 ADD PUSH1 0x40 MLOAD SWAP1 DUP2 ADD PUSH1 0x40 MSTORE DUP1 SWAP3 SWAP2 SWAP1 DUP2 DUP2 MSTORE PUSH1 0x20 ADD DUP3 DUP1 SLOAD PUSH2 0x13DB SWAP1 PUSH2 0x2FE9 JUMP JUMPDEST DUP1 ISZERO PUSH2 0x1426 JUMPI DUP1 PUSH1 0x1F LT PUSH2 0x13FD JUMPI PUSH2 0x100 DUP1 DUP4 SLOAD DIV MUL DUP4 MSTORE SWAP2 PUSH1 0x20 ADD SWAP2 PUSH2 0x1426 JUMP JUMPDEST DUP3 ADD SWAP2 SWAP1 PUSH0 MSTORE PUSH1 0x20 PUSH0 KECCAK256 SWAP1 JUMPDEST DUP2 SLOAD DUP2 MSTORE SWAP1 PUSH1 0x1 ADD SWAP1 PUSH1 0x20 ADD DUP1 DUP4 GT PUSH2 0x1409 JUMPI DUP3 SWAP1 SUB PUSH1 0x1F AND DUP3 ADD SWAP2 JUMPDEST POP POP POP POP POP DUP2 MSTORE PUSH1 0x20 ADD PUSH1 0x2 DUP3 ADD SLOAD DUP2 MSTORE PUSH1 0x20 ADD PUSH1 0x3 DUP3 ADD SLOAD DUP2 MSTORE PUSH1 0x20 ADD PUSH1 0x4 DUP3 ADD PUSH0 SWAP1 SLOAD SWAP1 PUSH2 0x100 EXP SWAP1 DIV PUSH20 0xFFFFFFFFFFFFFFFFFFFFFFFFFFFFFFFFFFFFFFFF AND PUSH20 0xFFFFFFFFFFFFFFFFFFFFFFFFFFFFFFFFFFFFFFFF AND PUSH20 0xFFFFFFFFFFFFFFFFFFFFFFFFFFFFFFFFFFFFFFFF AND DUP2 MSTORE POP POP SWAP2 POP POP PUSH2 0x14BB JUMP JUMPDEST DUP1 DUP1 PUSH1 0x1 ADD SWAP2 POP POP PUSH2 0x12AC JUMP JUMPDEST POP PUSH2 0x14B6 PUSH2 0x2386 JUMP JUMPDEST DUP1 SWAP2 POP POP JUMPDEST SWAP2 SWAP1 POP JUMP JUMPDEST PUSH0 PUSH1 0x1 PUSH0 DUP5 PUSH20 0xFFFFFFFFFFFFFFFFFFFFFFFFFFFFFFFFFFFFFFFF AND PUSH20 0xFFFFFFFFFFFFFFFFFFFFFFFFFFFFFFFFFFFFFFFF AND DUP2 MSTORE PUSH1 0x20 ADD SWAP1 DUP2 MSTORE PUSH1 0x20 ADD PUSH0 KECCAK256 PUSH0 DUP4 PUSH20 0xFFFFFFFFFFFFFFFFFFFFFFFFFFFFFFFFFFFFFFFF AND PUSH20 0xFFFFFFFFFFFFFFFFFFFFFFFFFFFFFFFFFFFFFFFF AND DUP2 MSTORE PUSH1 0x20 ADD SWAP1 DUP2 MSTORE PUSH1 0x20 ADD PUSH0 KECCAK256 PUSH0 SWAP1 SLOAD SWAP1 PUSH2 0x100 EXP SWAP1 DIV PUSH1 0xFF AND SWAP1 POP SWAP3 SWAP2 POP POP JUMP JUMPDEST PUSH0 PUSH4 0xF23A6E61 PUSH1 0xE0 SHL SWAP1 POP SWAP6 SWAP5 POP POP POP POP POP JUMP JUMPDEST PUSH2 0x156A PUSH2 0x1762 JUMP JUMPDEST PUSH20 0xFFFFFFFFFFFFFFFFFFFFFFFFFFFFFFFFFFFFFFFF AND DUP6 PUSH20 0xFFFFFFFFFFFFFFFFFFFFFFFFFFFFFFFFFFFFFFFF AND EQ DUP1 PUSH2 0x15B0 JUMPI POP PUSH2 0x15AF DUP6 PUSH2 0x15AA PUSH2 0x1762 JUMP JUMPDEST PUSH2 0x14C0 JUMP JUMPDEST JUMPDEST PUSH2 0x15EF JUMPI PUSH1 0x40 MLOAD PUSH32 0x8C379A000000000000000000000000000000000000000000000000000000000 DUP2 MSTORE PUSH1 0x4 ADD PUSH2 0x15E6 SWAP1 PUSH2 0x3A02 JUMP JUMPDEST PUSH1 0x40 MLOAD DUP1 SWAP2 SUB SWAP1 REVERT JUMPDEST PUSH2 0x15FC DUP6 DUP6 DUP6 DUP6 DUP6 PUSH2 0x1CD8 JUMP JUMPDEST POP POP POP POP POP JUMP JUMPDEST PUSH2 0x160B PUSH2 0x1762 JUMP JUMPDEST PUSH20 0xFFFFFFFFFFFFFFFFFFFFFFFFFFFFFFFFFFFFFFFF AND PUSH2 0x1629 PUSH2 0xED0 JUMP JUMPDEST PUSH20 0xFFFFFFFFFFFFFFFFFFFFFFFFFFFFFFFFFFFFFFFF AND EQ PUSH2 0x167F JUMPI PUSH1 0x40 MLOAD PUSH32 0x8C379A000000000000000000000000000000000000000000000000000000000 DUP2 MSTORE PUSH1 0x4 ADD PUSH2 0x1676 SWAP1 PUSH2 0x384B JUMP JUMPDEST PUSH1 0x40 MLOAD DUP1 SWAP2 SUB SWAP1 REVERT JUMPDEST PUSH0 PUSH20 0xFFFFFFFFFFFFFFFFFFFFFFFFFFFFFFFFFFFFFFFF AND DUP2 PUSH20 0xFFFFFFFFFFFFFFFFFFFFFFFFFFFFFFFFFFFFFFFF AND SUB PUSH2 0x16ED JUMPI PUSH1 0x40 MLOAD PUSH32 0x8C379A000000000000000000000000000000000000000000000000000000000 DUP2 MSTORE PUSH1 0x4 ADD PUSH2 0x16E4 SWAP1 PUSH2 0x3A90 JUMP JUMPDEST PUSH1 0x40 MLOAD DUP1 SWAP2 SUB SWAP1 REVERT JUMPDEST PUSH2 0x16F6 DUP2 PUSH2 0x1BEE JUMP JUMPDEST POP JUMP JUMPDEST PUSH0 PUSH32 0x1FFC9A700000000000000000000000000000000000000000000000000000000 PUSH28 0xFFFFFFFFFFFFFFFFFFFFFFFFFFFFFFFFFFFFFFFFFFFFFFFFFFFFFFFF NOT AND DUP3 PUSH28 0xFFFFFFFFFFFFFFFFFFFFFFFFFFFFFFFFFFFFFFFFFFFFFFFFFFFFFFFF NOT AND EQ SWAP1 POP SWAP2 SWAP1 POP JUMP JUMPDEST PUSH0 CALLER SWAP1 POP SWAP1 JUMP JUMPDEST DUP2 MLOAD DUP4 MLOAD EQ PUSH2 0x17AD JUMPI PUSH1 0x40 MLOAD PUSH32 0x8C379A000000000000000000000000000000000000000000000000000000000 DUP2 MSTORE PUSH1 0x4 ADD PUSH2 0x17A4 SWAP1 PUSH2 0x3B1E JUMP JUMPDEST PUSH1 0x40 MLOAD DUP1 SWAP2 SUB SWAP1 REVERT JUMPDEST PUSH0 PUSH20 0xFFFFFFFFFFFFFFFFFFFFFFFFFFFFFFFFFFFFFFFF AND DUP5 PUSH20 0xFFFFFFFFFFFFFFFFFFFFFFFFFFFFFFFFFFFFFFFF AND SUB PUSH2 0x181B JUMPI PUSH1 0x40 MLOAD PUSH32 0x8C379A000000000000000000000000000000000000000000000000000000000 DUP2 MSTORE PUSH1 0x4 ADD PUSH2 0x1812 SWAP1 PUSH2 0x3BAC JUMP JUMPDEST PUSH1 0x40 MLOAD DUP1 SWAP2 SUB SWAP1 REVERT JUMPDEST PUSH0 PUSH2 0x1824 PUSH2 0x1762 JUMP JUMPDEST SWAP1 POP PUSH2 0x1834 DUP2 DUP8 DUP8 DUP8 DUP8 DUP8 PUSH2 0x1F49 JUMP JUMPDEST PUSH0 JUMPDEST DUP5 MLOAD DUP2 LT ISZERO PUSH2 0x19CE JUMPI PUSH0 DUP6 DUP3 DUP2 MLOAD DUP2 LT PUSH2 0x1853 JUMPI PUSH2 0x1852 PUSH2 0x33B2 JUMP JUMPDEST JUMPDEST PUSH1 0x20 MUL PUSH1 0x20 ADD ADD MLOAD SWAP1 POP PUSH0 DUP6 DUP4 DUP2 MLOAD DUP2 LT PUSH2 0x1871 JUMPI PUSH2 0x1870 PUSH2 0x33B2 JUMP JUMPDEST JUMPDEST PUSH1 0x20 MUL PUSH1 0x20 ADD ADD MLOAD SWAP1 POP PUSH0 DUP1 PUSH0 DUP5 DUP2 MSTORE PUSH1 0x20 ADD SWAP1 DUP2 MSTORE PUSH1 0x20 ADD PUSH0 KECCAK256 PUSH0 DUP12 PUSH20 0xFFFFFFFFFFFFFFFFFFFFFFFFFFFFFFFFFFFFFFFF AND PUSH20 0xFFFFFFFFFFFFFFFFFFFFFFFFFFFFFFFFFFFFFFFF AND DUP2 MSTORE PUSH1 0x20 ADD SWAP1 DUP2 MSTORE PUSH1 0x20 ADD PUSH0 KECCAK256 SLOAD SWAP1 POP DUP2 DUP2 LT ISZERO PUSH2 0x190D JUMPI PUSH1 0x40 MLOAD PUSH32 0x8C379A000000000000000000000000000000000000000000000000000000000 DUP2 MSTORE PUSH1 0x4 ADD PUSH2 0x1904 SWAP1 PUSH2 0x3C3A JUMP JUMPDEST PUSH1 0x40 MLOAD DUP1 SWAP2 SUB SWAP1 REVERT JUMPDEST DUP2 DUP2 SUB PUSH0 DUP1 DUP6 DUP2 MSTORE PUSH1 0x20 ADD SWAP1 DUP2 MSTORE PUSH1 0x20 ADD PUSH0 KECCAK256 PUSH0 DUP13 PUSH20 0xFFFFFFFFFFFFFFFFFFFFFFFFFFFFFFFFFFFFFFFF AND PUSH20 0xFFFFFFFFFFFFFFFFFFFFFFFFFFFFFFFFFFFFFFFF AND DUP2 MSTORE PUSH1 0x20 ADD SWAP1 DUP2 MSTORE PUSH1 0x20 ADD PUSH0 KECCAK256 DUP2 SWAP1 SSTORE POP DUP2 PUSH0 DUP1 DUP6 DUP2 MSTORE PUSH1 0x20 ADD SWAP1 DUP2 MSTORE PUSH1 0x20 ADD PUSH0 KECCAK256 PUSH0 DUP12 PUSH20 0xFFFFFFFFFFFFFFFFFFFFFFFFFFFFFFFFFFFFFFFF AND PUSH20 0xFFFFFFFFFFFFFFFFFFFFFFFFFFFFFFFFFFFFFFFF AND DUP2 MSTORE PUSH1 0x20 ADD SWAP1 DUP2 MSTORE PUSH1 0x20 ADD PUSH0 KECCAK256 PUSH0 DUP3 DUP3 SLOAD PUSH2 0x19B9 SWAP2 SWAP1 PUSH2 0x3869 JUMP JUMPDEST SWAP3 POP POP DUP2 SWAP1 SSTORE POP POP POP POP DUP1 PUSH1 0x1 ADD SWAP1 POP PUSH2 0x1836 JUMP JUMPDEST POP DUP5 PUSH20 0xFFFFFFFFFFFFFFFFFFFFFFFFFFFFFFFFFFFFFFFF AND DUP7 PUSH20 0xFFFFFFFFFFFFFFFFFFFFFFFFFFFFFFFFFFFFFFFF AND DUP3 PUSH20 0xFFFFFFFFFFFFFFFFFFFFFFFFFFFFFFFFFFFFFFFF AND PUSH32 0x4A39DC06D4C0DBC64B70AF90FD698A233A518AA5D07E595D983B8C0526C8F7FB DUP8 DUP8 PUSH1 0x40 MLOAD PUSH2 0x1A45 SWAP3 SWAP2 SWAP1 PUSH2 0x3C58 JUMP JUMPDEST PUSH1 0x40 MLOAD DUP1 SWAP2 SUB SWAP1 LOG4 PUSH2 0x1A5B DUP2 DUP8 DUP8 DUP8 DUP8 DUP8 PUSH2 0x1F51 JUMP JUMPDEST POP POP POP POP POP POP JUMP JUMPDEST PUSH0 PUSH20 0xFFFFFFFFFFFFFFFFFFFFFFFFFFFFFFFFFFFFFFFF AND DUP5 PUSH20 0xFFFFFFFFFFFFFFFFFFFFFFFFFFFFFFFFFFFFFFFF AND SUB PUSH2 0x1AD1 JUMPI PUSH1 0x40 MLOAD PUSH32 0x8C379A000000000000000000000000000000000000000000000000000000000 DUP2 MSTORE PUSH1 0x4 ADD PUSH2 0x1AC8 SWAP1 PUSH2 0x3CFD JUMP JUMPDEST PUSH1 0x40 MLOAD DUP1 SWAP2 SUB SWAP1 REVERT JUMPDEST PUSH0 PUSH2 0x1ADA PUSH2 0x1762 JUMP JUMPDEST SWAP1 POP PUSH2 0x1AFA DUP2 PUSH0 DUP8 PUSH2 0x1AEB DUP9 PUSH2 0x2127 JUMP JUMPDEST PUSH2 0x1AF4 DUP9 PUSH2 0x2127 JUMP JUMPDEST DUP8 PUSH2 0x1F49 JUMP JUMPDEST DUP3 PUSH0 DUP1 DUP7 DUP2 MSTORE PUSH1 0x20 ADD SWAP1 DUP2 MSTORE PUSH1 0x20 ADD PUSH0 KECCAK256 PUSH0 DUP8 PUSH20 0xFFFFFFFFFFFFFFFFFFFFFFFFFFFFFFFFFFFFFFFF AND PUSH20 0xFFFFFFFFFFFFFFFFFFFFFFFFFFFFFFFFFFFFFFFF AND DUP2 MSTORE PUSH1 0x20 ADD SWAP1 DUP2 MSTORE PUSH1 0x20 ADD PUSH0 KECCAK256 PUSH0 DUP3 DUP3 SLOAD PUSH2 0x1B54 SWAP2 SWAP1 PUSH2 0x3869 JUMP JUMPDEST SWAP3 POP POP DUP2 SWAP1 SSTORE POP DUP5 PUSH20 0xFFFFFFFFFFFFFFFFFFFFFFFFFFFFFFFFFFFFFFFF AND PUSH0 PUSH20 0xFFFFFFFFFFFFFFFFFFFFFFFFFFFFFFFFFFFFFFFF AND DUP3 PUSH20 0xFFFFFFFFFFFFFFFFFFFFFFFFFFFFFFFFFFFFFFFF AND PUSH32 0xC3D58168C5AE7397731D063D5BBF3D657854427343F4C083240F7AACAA2D0F62 DUP8 DUP8 PUSH1 0x40 MLOAD PUSH2 0x1BD1 SWAP3 SWAP2 SWAP1 PUSH2 0x326F JUMP JUMPDEST PUSH1 0x40 MLOAD DUP1 SWAP2 SUB SWAP1 LOG4 PUSH2 0x1BE7 DUP2 PUSH0 DUP8 DUP8 DUP8 DUP8 PUSH2 0x219F JUMP JUMPDEST POP POP POP POP POP JUMP JUMPDEST PUSH0 PUSH1 0x3 PUSH0 SWAP1 SLOAD SWAP1 PUSH2 0x100 EXP SWAP1 DIV PUSH20 0xFFFFFFFFFFFFFFFFFFFFFFFFFFFFFFFFFFFFFFFF AND SWAP1 POP DUP2 PUSH1 0x3 PUSH0 PUSH2 0x100 EXP DUP2 SLOAD DUP2 PUSH20 0xFFFFFFFFFFFFFFFFFFFFFFFFFFFFFFFFFFFFFFFF MUL NOT AND SWAP1 DUP4 PUSH20 0xFFFFFFFFFFFFFFFFFFFFFFFFFFFFFFFFFFFFFFFF AND MUL OR SWAP1 SSTORE POP DUP2 PUSH20 0xFFFFFFFFFFFFFFFFFFFFFFFFFFFFFFFFFFFFFFFF AND DUP2 PUSH20 0xFFFFFFFFFFFFFFFFFFFFFFFFFFFFFFFFFFFFFFFF AND PUSH32 0x8BE0079C531659141344CD1FD0A4F28419497F9722A3DAAFE3B4186F6B6457E0 PUSH1 0x40 MLOAD PUSH1 0x40 MLOAD DUP1 SWAP2 SUB SWAP1 LOG3 POP POP JUMP JUMPDEST PUSH0 DUP2 MLOAD DUP4 MLOAD EQ DUP1 ISZERO PUSH2 0x1CD0 JUMPI POP DUP2 DUP1 MLOAD SWAP1 PUSH1 0x20 ADD KECCAK256 DUP4 DUP1 MLOAD SWAP1 PUSH1 0x20 ADD KECCAK256 EQ JUMPDEST SWAP1 POP SWAP3 SWAP2 POP POP JUMP JUMPDEST PUSH0 PUSH20 0xFFFFFFFFFFFFFFFFFFFFFFFFFFFFFFFFFFFFFFFF AND DUP5 PUSH20 0xFFFFFFFFFFFFFFFFFFFFFFFFFFFFFFFFFFFFFFFF AND SUB PUSH2 0x1D46 JUMPI PUSH1 0x40 MLOAD PUSH32 0x8C379A000000000000000000000000000000000000000000000000000000000 DUP2 MSTORE PUSH1 0x4 ADD PUSH2 0x1D3D SWAP1 PUSH2 0x3BAC JUMP JUMPDEST PUSH1 0x40 MLOAD DUP1 SWAP2 SUB SWAP1 REVERT JUMPDEST PUSH0 PUSH2 0x1D4F PUSH2 0x1762 JUMP JUMPDEST SWAP1 POP PUSH2 0x1D6F DUP2 DUP8 DUP8 PUSH2 0x1D60 DUP9 PUSH2 0x2127 JUMP JUMPDEST PUSH2 0x1D69 DUP9 PUSH2 0x2127 JUMP JUMPDEST DUP8 PUSH2 0x1F49 JUMP JUMPDEST PUSH0 DUP1 PUSH0 DUP7 DUP2 MSTORE PUSH1 0x20 ADD SWAP1 DUP2 MSTORE PUSH1 0x20 ADD PUSH0 KECCAK256 PUSH0 DUP9 PUSH20 0xFFFFFFFFFFFFFFFFFFFFFFFFFFFFFFFFFFFFFFFF AND PUSH20 0xFFFFFFFFFFFFFFFFFFFFFFFFFFFFFFFFFFFFFFFF AND DUP2 MSTORE PUSH1 0x20 ADD SWAP1 DUP2 MSTORE PUSH1 0x20 ADD PUSH0 KECCAK256 SLOAD SWAP1 POP DUP4 DUP2 LT ISZERO PUSH2 0x1E01 JUMPI PUSH1 0x40 MLOAD PUSH32 0x8C379A000000000000000000000000000000000000000000000000000000000 DUP2 MSTORE PUSH1 0x4 ADD PUSH2 0x1DF8 SWAP1 PUSH2 0x3C3A JUMP JUMPDEST PUSH1 0x40 MLOAD DUP1 SWAP2 SUB SWAP1 REVERT JUMPDEST DUP4 DUP2 SUB PUSH0 DUP1 DUP8 DUP2 MSTORE PUSH1 0x20 ADD SWAP1 DUP2 MSTORE PUSH1 0x20 ADD PUSH0 KECCAK256 PUSH0 DUP10 PUSH20 0xFFFFFFFFFFFFFFFFFFFFFFFFFFFFFFFFFFFFFFFF AND PUSH20 0xFFFFFFFFFFFFFFFFFFFFFFFFFFFFFFFFFFFFFFFF AND DUP2 MSTORE PUSH1 0x20 ADD SWAP1 DUP2 MSTORE PUSH1 0x20 ADD PUSH0 KECCAK256 DUP2 SWAP1 SSTORE POP DUP4 PUSH0 DUP1 DUP8 DUP2 MSTORE PUSH1 0x20 ADD SWAP1 DUP2 MSTORE PUSH1 0x20 ADD PUSH0 KECCAK256 PUSH0 DUP9 PUSH20 0xFFFFFFFFFFFFFFFFFFFFFFFFFFFFFFFFFFFFFFFF AND PUSH20 0xFFFFFFFFFFFFFFFFFFFFFFFFFFFFFFFFFFFFFFFF AND DUP2 MSTORE PUSH1 0x20 ADD SWAP1 DUP2 MSTORE PUSH1 0x20 ADD PUSH0 KECCAK256 PUSH0 DUP3 DUP3 SLOAD PUSH2 0x1EAD SWAP2 SWAP1 PUSH2 0x3869 JUMP JUMPDEST SWAP3 POP POP DUP2 SWAP1 SSTORE POP DUP6 PUSH20 0xFFFFFFFFFFFFFFFFFFFFFFFFFFFFFFFFFFFFFFFF AND DUP8 PUSH20 0xFFFFFFFFFFFFFFFFFFFFFFFFFFFFFFFFFFFFFFFF AND DUP4 PUSH20 0xFFFFFFFFFFFFFFFFFFFFFFFFFFFFFFFFFFFFFFFF AND PUSH32 0xC3D58168C5AE7397731D063D5BBF3D657854427343F4C083240F7AACAA2D0F62 DUP9 DUP9 PUSH1 0x40 MLOAD PUSH2 0x1F2A SWAP3 SWAP2 SWAP1 PUSH2 0x326F JUMP JUMPDEST PUSH1 0x40 MLOAD DUP1 SWAP2 SUB SWAP1 LOG4 PUSH2 0x1F40 DUP3 DUP9 DUP9 DUP9 DUP9 DUP9 PUSH2 0x219F JUMP JUMPDEST POP POP POP POP POP POP POP JUMP JUMPDEST POP POP POP POP POP POP JUMP JUMPDEST PUSH2 0x1F70 DUP5 PUSH20 0xFFFFFFFFFFFFFFFFFFFFFFFFFFFFFFFFFFFFFFFF AND PUSH2 0x2375 JUMP JUMPDEST ISZERO PUSH2 0x211F JUMPI DUP4 PUSH20 0xFFFFFFFFFFFFFFFFFFFFFFFFFFFFFFFFFFFFFFFF AND PUSH4 0xBC197C81 DUP8 DUP8 DUP7 DUP7 DUP7 PUSH1 0x40 MLOAD DUP7 PUSH4 0xFFFFFFFF AND PUSH1 0xE0 SHL DUP2 MSTORE PUSH1 0x4 ADD PUSH2 0x1FB6 SWAP6 SWAP5 SWAP4 SWAP3 SWAP2 SWAP1 PUSH2 0x3D6D JUMP JUMPDEST PUSH1 0x20 PUSH1 0x40 MLOAD DUP1 DUP4 SUB DUP2 PUSH0 DUP8 GAS CALL SWAP3 POP POP POP DUP1 ISZERO PUSH2 0x1FF1 JUMPI POP PUSH1 0x40 MLOAD RETURNDATASIZE PUSH1 0x1F NOT PUSH1 0x1F DUP3 ADD AND DUP3 ADD DUP1 PUSH1 0x40 MSTORE POP DUP2 ADD SWAP1 PUSH2 0x1FEE SWAP2 SWAP1 PUSH2 0x3DE7 JUMP JUMPDEST PUSH1 0x1 JUMPDEST PUSH2 0x2096 JUMPI PUSH2 0x1FFD PUSH2 0x3E1E JUMP JUMPDEST DUP1 PUSH4 0x8C379A0 SUB PUSH2 0x2059 JUMPI POP PUSH2 0x2011 PUSH2 0x3E3D JUMP JUMPDEST DUP1 PUSH2 0x201C JUMPI POP PUSH2 0x205B JUMP JUMPDEST DUP1 PUSH1 0x40 MLOAD PUSH32 0x8C379A000000000000000000000000000000000000000000000000000000000 DUP2 MSTORE PUSH1 0x4 ADD PUSH2 0x2050 SWAP2 SWAP1 PUSH2 0x2619 JUMP JUMPDEST PUSH1 0x40 MLOAD DUP1 SWAP2 SUB SWAP1 REVERT JUMPDEST POP JUMPDEST PUSH1 0x40 MLOAD PUSH32 0x8C379A000000000000000000000000000000000000000000000000000000000 DUP2 MSTORE PUSH1 0x4 ADD PUSH2 0x208D SWAP1 PUSH2 0x3F3C JUMP JUMPDEST PUSH1 0x40 MLOAD DUP1 SWAP2 SUB SWAP1 REVERT JUMPDEST PUSH4 0xBC197C81 PUSH1 0xE0 SHL PUSH28 0xFFFFFFFFFFFFFFFFFFFFFFFFFFFFFFFFFFFFFFFFFFFFFFFFFFFFFFFF NOT AND DUP2 PUSH28 0xFFFFFFFFFFFFFFFFFFFFFFFFFFFFFFFFFFFFFFFFFFFFFFFFFFFFFFFF NOT AND EQ PUSH2 0x211D JUMPI PUSH1 0x40 MLOAD PUSH32 0x8C379A000000000000000000000000000000000000000000000000000000000 DUP2 MSTORE PUSH1 0x4 ADD PUSH2 0x2114 SWAP1 PUSH2 0x3FCA JUMP JUMPDEST PUSH1 0x40 MLOAD DUP1 SWAP2 SUB SWAP1 REVERT JUMPDEST POP JUMPDEST POP POP POP POP POP POP JUMP JUMPDEST PUSH1 0x60 PUSH0 PUSH1 0x1 PUSH8 0xFFFFFFFFFFFFFFFF DUP2 GT ISZERO PUSH2 0x2145 JUMPI PUSH2 0x2144 PUSH2 0x267B JUMP JUMPDEST JUMPDEST PUSH1 0x40 MLOAD SWAP1 DUP1 DUP3 MSTORE DUP1 PUSH1 0x20 MUL PUSH1 0x20 ADD DUP3 ADD PUSH1 0x40 MSTORE DUP1 ISZERO PUSH2 0x2173 JUMPI DUP2 PUSH1 0x20 ADD PUSH1 0x20 DUP3 MUL DUP1 CALLDATASIZE DUP4 CALLDATACOPY DUP1 DUP3 ADD SWAP2 POP POP SWAP1 POP JUMPDEST POP SWAP1 POP DUP3 DUP2 PUSH0 DUP2 MLOAD DUP2 LT PUSH2 0x218A JUMPI PUSH2 0x2189 PUSH2 0x33B2 JUMP JUMPDEST JUMPDEST PUSH1 0x20 MUL PUSH1 0x20 ADD ADD DUP2 DUP2 MSTORE POP POP DUP1 SWAP2 POP POP SWAP2 SWAP1 POP JUMP JUMPDEST PUSH2 0x21BE DUP5 PUSH20 0xFFFFFFFFFFFFFFFFFFFFFFFFFFFFFFFFFFFFFFFF AND PUSH2 0x2375 JUMP JUMPDEST ISZERO PUSH2 0x236D JUMPI DUP4 PUSH20 0xFFFFFFFFFFFFFFFFFFFFFFFFFFFFFFFFFFFFFFFF AND PUSH4 0xF23A6E61 DUP8 DUP8 DUP7 DUP7 DUP7 PUSH1 0x40 MLOAD DUP7 PUSH4 0xFFFFFFFF AND PUSH1 0xE0 SHL DUP2 MSTORE PUSH1 0x4 ADD PUSH2 0x2204 SWAP6 SWAP5 SWAP4 SWAP3 SWAP2 SWAP1 PUSH2 0x3FE8 JUMP JUMPDEST PUSH1 0x20 PUSH1 0x40 MLOAD DUP1 DUP4 SUB DUP2 PUSH0 DUP8 GAS CALL SWAP3 POP POP POP DUP1 ISZERO PUSH2 0x223F JUMPI POP PUSH1 0x40 MLOAD RETURNDATASIZE PUSH1 0x1F NOT PUSH1 0x1F DUP3 ADD AND DUP3 ADD DUP1 PUSH1 0x40 MSTORE POP DUP2 ADD SWAP1 PUSH2 0x223C SWAP2 SWAP1 PUSH2 0x3DE7 JUMP JUMPDEST PUSH1 0x1 JUMPDEST PUSH2 0x22E4 JUMPI PUSH2 0x224B PUSH2 0x3E1E JUMP JUMPDEST DUP1 PUSH4 0x8C379A0 SUB PUSH2 0x22A7 JUMPI POP PUSH2 0x225F PUSH2 0x3E3D JUMP JUMPDEST DUP1 PUSH2 0x226A JUMPI POP PUSH2 0x22A9 JUMP JUMPDEST DUP1 PUSH1 0x40 MLOAD PUSH32 0x8C379A000000000000000000000000000000000000000000000000000000000 DUP2 MSTORE PUSH1 0x4 ADD PUSH2 0x229E SWAP2 SWAP1 PUSH2 0x2619 JUMP JUMPDEST PUSH1 0x40 MLOAD DUP1 SWAP2 SUB SWAP1 REVERT JUMPDEST POP JUMPDEST PUSH1 0x40 MLOAD PUSH32 0x8C379A000000000000000000000000000000000000000000000000000000000 DUP2 MSTORE PUSH1 0x4 ADD PUSH2 0x22DB SWAP1 PUSH2 0x3F3C JUMP JUMPDEST PUSH1 0x40 MLOAD DUP1 SWAP2 SUB SWAP1 REVERT JUMPDEST PUSH4 0xF23A6E61 PUSH1 0xE0 SHL PUSH28 0xFFFFFFFFFFFFFFFFFFFFFFFFFFFFFFFFFFFFFFFFFFFFFFFFFFFFFFFF NOT AND DUP2 PUSH28 0xFFFFFFFFFFFFFFFFFFFFFFFFFFFFFFFFFFFFFFFFFFFFFFFFFFFFFFFF NOT AND EQ PUSH2 0x236B JUMPI PUSH1 0x40 MLOAD PUSH32 0x8C379A000000000000000000000000000000000000000000000000000000000 DUP2 MSTORE PUSH1 0x4 ADD PUSH2 0x2362 SWAP1 PUSH2 0x3FCA JUMP JUMPDEST PUSH1 0x40 MLOAD DUP1 SWAP2 SUB SWAP1 REVERT JUMPDEST POP JUMPDEST POP POP POP POP POP POP JUMP JUMPDEST PUSH0 DUP1 DUP3 EXTCODESIZE SWAP1 POP PUSH0 DUP2 GT SWAP2 POP POP SWAP2 SWAP1 POP JUMP JUMPDEST PUSH1 0x40 MLOAD DUP1 PUSH1 0xA0 ADD PUSH1 0x40 MSTORE DUP1 PUSH0 DUP2 MSTORE PUSH1 0x20 ADD PUSH1 0x60 DUP2 MSTORE PUSH1 0x20 ADD PUSH0 DUP2 MSTORE PUSH1 0x20 ADD PUSH0 DUP2 MSTORE PUSH1 0x20 ADD PUSH0 PUSH20 0xFFFFFFFFFFFFFFFFFFFFFFFFFFFFFFFFFFFFFFFF AND DUP2 MSTORE POP SWAP1 JUMP JUMPDEST PUSH0 PUSH1 0x40 MLOAD SWAP1 POP SWAP1 JUMP JUMPDEST PUSH0 DUP1 REVERT JUMPDEST PUSH0 DUP1 REVERT JUMPDEST PUSH0 PUSH20 0xFFFFFFFFFFFFFFFFFFFFFFFFFFFFFFFFFFFFFFFF DUP3 AND SWAP1 POP SWAP2 SWAP1 POP JUMP JUMPDEST PUSH0 PUSH2 0x2401 DUP3 PUSH2 0x23D8 JUMP JUMPDEST SWAP1 POP SWAP2 SWAP1 POP JUMP JUMPDEST PUSH2 0x2411 DUP2 PUSH2 0x23F7 JUMP JUMPDEST DUP2 EQ PUSH2 0x241B JUMPI PUSH0 DUP1 REVERT JUMPDEST POP JUMP JUMPDEST PUSH0 DUP2 CALLDATALOAD SWAP1 POP PUSH2 0x242C DUP2 PUSH2 0x2408 JUMP JUMPDEST SWAP3 SWAP2 POP POP JUMP JUMPDEST PUSH0 DUP2 SWAP1 POP SWAP2 SWAP1 POP JUMP JUMPDEST PUSH2 0x2444 DUP2 PUSH2 0x2432 JUMP JUMPDEST DUP2 EQ PUSH2 0x244E JUMPI PUSH0 DUP1 REVERT JUMPDEST POP JUMP JUMPDEST PUSH0 DUP2 CALLDATALOAD SWAP1 POP PUSH2 0x245F DUP2 PUSH2 0x243B JUMP JUMPDEST SWAP3 SWAP2 POP POP JUMP JUMPDEST PUSH0 DUP1 PUSH1 0x40 DUP4 DUP6 SUB SLT ISZERO PUSH2 0x247B JUMPI PUSH2 0x247A PUSH2 0x23D0 JUMP JUMPDEST JUMPDEST PUSH0 PUSH2 0x2488 DUP6 DUP3 DUP7 ADD PUSH2 0x241E JUMP JUMPDEST SWAP3 POP POP PUSH1 0x20 PUSH2 0x2499 DUP6 DUP3 DUP7 ADD PUSH2 0x2451 JUMP JUMPDEST SWAP2 POP POP SWAP3 POP SWAP3 SWAP1 POP JUMP JUMPDEST PUSH2 0x24AC DUP2 PUSH2 0x2432 JUMP JUMPDEST DUP3 MSTORE POP POP JUMP JUMPDEST PUSH0 PUSH1 0x20 DUP3 ADD SWAP1 POP PUSH2 0x24C5 PUSH0 DUP4 ADD DUP5 PUSH2 0x24A3 JUMP JUMPDEST SWAP3 SWAP2 POP POP JUMP JUMPDEST PUSH0 PUSH32 0xFFFFFFFF00000000000000000000000000000000000000000000000000000000 DUP3 AND SWAP1 POP SWAP2 SWAP1 POP JUMP JUMPDEST PUSH2 0x24FF DUP2 PUSH2 0x24CB JUMP JUMPDEST DUP2 EQ PUSH2 0x2509 JUMPI PUSH0 DUP1 REVERT JUMPDEST POP JUMP JUMPDEST PUSH0 DUP2 CALLDATALOAD SWAP1 POP PUSH2 0x251A DUP2 PUSH2 0x24F6 JUMP JUMPDEST SWAP3 SWAP2 POP POP JUMP JUMPDEST PUSH0 PUSH1 0x20 DUP3 DUP5 SUB SLT ISZERO PUSH2 0x2535 JUMPI PUSH2 0x2534 PUSH2 0x23D0 JUMP JUMPDEST JUMPDEST PUSH0 PUSH2 0x2542 DUP5 DUP3 DUP6 ADD PUSH2 0x250C JUMP JUMPDEST SWAP2 POP POP SWAP3 SWAP2 POP POP JUMP JUMPDEST PUSH0 DUP2 ISZERO ISZERO SWAP1 POP SWAP2 SWAP1 POP JUMP JUMPDEST PUSH2 0x255F DUP2 PUSH2 0x254B JUMP JUMPDEST DUP3 MSTORE POP POP JUMP JUMPDEST PUSH0 PUSH1 0x20 DUP3 ADD SWAP1 POP PUSH2 0x2578 PUSH0 DUP4 ADD DUP5 PUSH2 0x2556 JUMP JUMPDEST SWAP3 SWAP2 POP POP JUMP JUMPDEST PUSH0 PUSH1 0x20 DUP3 DUP5 SUB SLT ISZERO PUSH2 0x2593 JUMPI PUSH2 0x2592 PUSH2 0x23D0 JUMP JUMPDEST JUMPDEST PUSH0 PUSH2 0x25A0 DUP5 DUP3 DUP6 ADD PUSH2 0x2451 JUMP JUMPDEST SWAP2 POP POP SWAP3 SWAP2 POP POP JUMP JUMPDEST PUSH0 DUP2 MLOAD SWAP1 POP SWAP2 SWAP1 POP JUMP JUMPDEST PUSH0 DUP3 DUP3 MSTORE PUSH1 0x20 DUP3 ADD SWAP1 POP SWAP3 SWAP2 POP POP JUMP JUMPDEST DUP3 DUP2 DUP4 MCOPY PUSH0 DUP4 DUP4 ADD MSTORE POP POP POP JUMP JUMPDEST PUSH0 PUSH1 0x1F NOT PUSH1 0x1F DUP4 ADD AND SWAP1 POP SWAP2 SWAP1 POP JUMP JUMPDEST PUSH0 PUSH2 0x25EB DUP3 PUSH2 0x25A9 JUMP JUMPDEST PUSH2 0x25F5 DUP2 DUP6 PUSH2 0x25B3 JUMP JUMPDEST SWAP4 POP PUSH2 0x2605 DUP2 DUP6 PUSH1 0x20 DUP7 ADD PUSH2 0x25C3 JUMP JUMPDEST PUSH2 0x260E DUP2 PUSH2 0x25D1 JUMP JUMPDEST DUP5 ADD SWAP2 POP POP SWAP3 SWAP2 POP POP JUMP JUMPDEST PUSH0 PUSH1 0x20 DUP3 ADD SWAP1 POP DUP2 DUP2 SUB PUSH0 DUP4 ADD MSTORE PUSH2 0x2631 DUP2 DUP5 PUSH2 0x25E1 JUMP JUMPDEST SWAP1 POP SWAP3 SWAP2 POP POP JUMP JUMPDEST PUSH0 DUP1 PUSH1 0x40 DUP4 DUP6 SUB SLT ISZERO PUSH2 0x264F JUMPI PUSH2 0x264E PUSH2 0x23D0 JUMP JUMPDEST JUMPDEST PUSH0 PUSH2 0x265C DUP6 DUP3 DUP7 ADD PUSH2 0x2451 JUMP JUMPDEST SWAP3 POP POP PUSH1 0x20 PUSH2 0x266D DUP6 DUP3 DUP7 ADD PUSH2 0x2451 JUMP JUMPDEST SWAP2 POP POP SWAP3 POP SWAP3 SWAP1 POP JUMP JUMPDEST PUSH0 DUP1 REVERT JUMPDEST PUSH32 0x4E487B7100000000000000000000000000000000000000000000000000000000 PUSH0 MSTORE PUSH1 0x41 PUSH1 0x4 MSTORE PUSH1 0x24 PUSH0 REVERT JUMPDEST PUSH2 0x26B1 DUP3 PUSH2 0x25D1 JUMP JUMPDEST DUP2 ADD DUP2 DUP2 LT PUSH8 0xFFFFFFFFFFFFFFFF DUP3 GT OR ISZERO PUSH2 0x26D0 JUMPI PUSH2 0x26CF PUSH2 0x267B JUMP JUMPDEST JUMPDEST DUP1 PUSH1 0x40 MSTORE POP POP POP JUMP JUMPDEST PUSH0 PUSH2 0x26E2 PUSH2 0x23C7 JUMP JUMPDEST SWAP1 POP PUSH2 0x26EE DUP3 DUP3 PUSH2 0x26A8 JUMP JUMPDEST SWAP2 SWAP1 POP JUMP JUMPDEST PUSH0 PUSH8 0xFFFFFFFFFFFFFFFF DUP3 GT ISZERO PUSH2 0x270D JUMPI PUSH2 0x270C PUSH2 0x267B JUMP JUMPDEST JUMPDEST PUSH1 0x20 DUP3 MUL SWAP1 POP PUSH1 0x20 DUP2 ADD SWAP1 POP SWAP2 SWAP1 POP JUMP JUMPDEST PUSH0 DUP1 REVERT JUMPDEST PUSH0 PUSH2 0x2734 PUSH2 0x272F DUP5 PUSH2 0x26F3 JUMP JUMPDEST PUSH2 0x26D9 JUMP JUMPDEST SWAP1 POP DUP1 DUP4 DUP3 MSTORE PUSH1 0x20 DUP3 ADD SWAP1 POP PUSH1 0x20 DUP5 MUL DUP4 ADD DUP6 DUP2 GT ISZERO PUSH2 0x2757 JUMPI PUSH2 0x2756 PUSH2 0x271E JUMP JUMPDEST JUMPDEST DUP4 JUMPDEST DUP2 DUP2 LT ISZERO PUSH2 0x2780 JUMPI DUP1 PUSH2 0x276C DUP9 DUP3 PUSH2 0x2451 JUMP JUMPDEST DUP5 MSTORE PUSH1 0x20 DUP5 ADD SWAP4 POP POP PUSH1 0x20 DUP2 ADD SWAP1 POP PUSH2 0x2759 JUMP JUMPDEST POP POP POP SWAP4 SWAP3 POP POP POP JUMP JUMPDEST PUSH0 DUP3 PUSH1 0x1F DUP4 ADD SLT PUSH2 0x279E JUMPI PUSH2 0x279D PUSH2 0x2677 JUMP JUMPDEST JUMPDEST DUP2 CALLDATALOAD PUSH2 0x27AE DUP5 DUP3 PUSH1 0x20 DUP7 ADD PUSH2 0x2722 JUMP JUMPDEST SWAP2 POP POP SWAP3 SWAP2 POP POP JUMP JUMPDEST PUSH0 DUP1 REVERT JUMPDEST PUSH0 PUSH8 0xFFFFFFFFFFFFFFFF DUP3 GT ISZERO PUSH2 0x27D5 JUMPI PUSH2 0x27D4 PUSH2 0x267B JUMP JUMPDEST JUMPDEST PUSH2 0x27DE DUP3 PUSH2 0x25D1 JUMP JUMPDEST SWAP1 POP PUSH1 0x20 DUP2 ADD SWAP1 POP SWAP2 SWAP1 POP JUMP JUMPDEST DUP3 DUP2 DUP4 CALLDATACOPY PUSH0 DUP4 DUP4 ADD MSTORE POP POP POP JUMP JUMPDEST PUSH0 PUSH2 0x280B PUSH2 0x2806 DUP5 PUSH2 0x27BB JUMP JUMPDEST PUSH2 0x26D9 JUMP JUMPDEST SWAP1 POP DUP3 DUP2 MSTORE PUSH1 0x20 DUP2 ADD DUP5 DUP5 DUP5 ADD GT ISZERO PUSH2 0x2827 JUMPI PUSH2 0x2826 PUSH2 0x27B7 JUMP JUMPDEST JUMPDEST PUSH2 0x2832 DUP5 DUP3 DUP6 PUSH2 0x27EB JUMP JUMPDEST POP SWAP4 SWAP3 POP POP POP JUMP JUMPDEST PUSH0 DUP3 PUSH1 0x1F DUP4 ADD SLT PUSH2 0x284E JUMPI PUSH2 0x284D PUSH2 0x2677 JUMP JUMPDEST JUMPDEST DUP2 CALLDATALOAD PUSH2 0x285E DUP5 DUP3 PUSH1 0x20 DUP7 ADD PUSH2 0x27F9 JUMP JUMPDEST SWAP2 POP POP SWAP3 SWAP2 POP POP JUMP JUMPDEST PUSH0 DUP1 PUSH0 DUP1 PUSH0 PUSH1 0xA0 DUP7 DUP9 SUB SLT ISZERO PUSH2 0x2880 JUMPI PUSH2 0x287F PUSH2 0x23D0 JUMP JUMPDEST JUMPDEST PUSH0 PUSH2 0x288D DUP9 DUP3 DUP10 ADD PUSH2 0x241E JUMP JUMPDEST SWAP6 POP POP PUSH1 0x20 PUSH2 0x289E DUP9 DUP3 DUP10 ADD PUSH2 0x241E JUMP JUMPDEST SWAP5 POP POP PUSH1 0x40 DUP7 ADD CALLDATALOAD PUSH8 0xFFFFFFFFFFFFFFFF DUP2 GT ISZERO PUSH2 0x28BF JUMPI PUSH2 0x28BE PUSH2 0x23D4 JUMP JUMPDEST JUMPDEST PUSH2 0x28CB DUP9 DUP3 DUP10 ADD PUSH2 0x278A JUMP JUMPDEST SWAP4 POP POP PUSH1 0x60 DUP7 ADD CALLDATALOAD PUSH8 0xFFFFFFFFFFFFFFFF DUP2 GT ISZERO PUSH2 0x28EC JUMPI PUSH2 0x28EB PUSH2 0x23D4 JUMP JUMPDEST JUMPDEST PUSH2 0x28F8 DUP9 DUP3 DUP10 ADD PUSH2 0x278A JUMP JUMPDEST SWAP3 POP POP PUSH1 0x80 DUP7 ADD CALLDATALOAD PUSH8 0xFFFFFFFFFFFFFFFF DUP2 GT ISZERO PUSH2 0x2919 JUMPI PUSH2 0x2918 PUSH2 0x23D4 JUMP JUMPDEST JUMPDEST PUSH2 0x2925 DUP9 DUP3 DUP10 ADD PUSH2 0x283A JUMP JUMPDEST SWAP2 POP POP SWAP3 SWAP6 POP SWAP3 SWAP6 SWAP1 SWAP4 POP JUMP JUMPDEST PUSH0 PUSH8 0xFFFFFFFFFFFFFFFF DUP3 GT ISZERO PUSH2 0x294C JUMPI PUSH2 0x294B PUSH2 0x267B JUMP JUMPDEST JUMPDEST PUSH1 0x20 DUP3 MUL SWAP1 POP PUSH1 0x20 DUP2 ADD SWAP1 POP SWAP2 SWAP1 POP JUMP JUMPDEST PUSH0 PUSH2 0x296F PUSH2 0x296A DUP5 PUSH2 0x2932 JUMP JUMPDEST PUSH2 0x26D9 JUMP JUMPDEST SWAP1 POP DUP1 DUP4 DUP3 MSTORE PUSH1 0x20 DUP3 ADD SWAP1 POP PUSH1 0x20 DUP5 MUL DUP4 ADD DUP6 DUP2 GT ISZERO PUSH2 0x2992 JUMPI PUSH2 0x2991 PUSH2 0x271E JUMP JUMPDEST JUMPDEST DUP4 JUMPDEST DUP2 DUP2 LT ISZERO PUSH2 0x29BB JUMPI DUP1 PUSH2 0x29A7 DUP9 DUP3 PUSH2 0x241E JUMP JUMPDEST DUP5 MSTORE PUSH1 0x20 DUP5 ADD SWAP4 POP POP PUSH1 0x20 DUP2 ADD SWAP1 POP PUSH2 0x2994 JUMP JUMPDEST POP POP POP SWAP4 SWAP3 POP POP POP JUMP JUMPDEST PUSH0 DUP3 PUSH1 0x1F DUP4 ADD SLT PUSH2 0x29D9 JUMPI PUSH2 0x29D8 PUSH2 0x2677 JUMP JUMPDEST JUMPDEST DUP2 CALLDATALOAD PUSH2 0x29E9 DUP5 DUP3 PUSH1 0x20 DUP7 ADD PUSH2 0x295D JUMP JUMPDEST SWAP2 POP POP SWAP3 SWAP2 POP POP JUMP JUMPDEST PUSH0 DUP1 PUSH1 0x40 DUP4 DUP6 SUB SLT ISZERO PUSH2 0x2A08 JUMPI PUSH2 0x2A07 PUSH2 0x23D0 JUMP JUMPDEST JUMPDEST PUSH0 DUP4 ADD CALLDATALOAD PUSH8 0xFFFFFFFFFFFFFFFF DUP2 GT ISZERO PUSH2 0x2A25 JUMPI PUSH2 0x2A24 PUSH2 0x23D4 JUMP JUMPDEST JUMPDEST PUSH2 0x2A31 DUP6 DUP3 DUP7 ADD PUSH2 0x29C5 JUMP JUMPDEST SWAP3 POP POP PUSH1 0x20 DUP4 ADD CALLDATALOAD PUSH8 0xFFFFFFFFFFFFFFFF DUP2 GT ISZERO PUSH2 0x2A52 JUMPI PUSH2 0x2A51 PUSH2 0x23D4 JUMP JUMPDEST JUMPDEST PUSH2 0x2A5E DUP6 DUP3 DUP7 ADD PUSH2 0x278A JUMP JUMPDEST SWAP2 POP POP SWAP3 POP SWAP3 SWAP1 POP JUMP JUMPDEST PUSH0 DUP2 MLOAD SWAP1 POP SWAP2 SWAP1 POP JUMP JUMPDEST PUSH0 DUP3 DUP3 MSTORE PUSH1 0x20 DUP3 ADD SWAP1 POP SWAP3 SWAP2 POP POP JUMP JUMPDEST PUSH0 DUP2 SWAP1 POP PUSH1 0x20 DUP3 ADD SWAP1 POP SWAP2 SWAP1 POP JUMP JUMPDEST PUSH2 0x2A9A DUP2 PUSH2 0x2432 JUMP JUMPDEST DUP3 MSTORE POP POP JUMP JUMPDEST PUSH0 PUSH2 0x2AAB DUP4 DUP4 PUSH2 0x2A91 JUMP JUMPDEST PUSH1 0x20 DUP4 ADD SWAP1 POP SWAP3 SWAP2 POP POP JUMP JUMPDEST PUSH0 PUSH1 0x20 DUP3 ADD SWAP1 POP SWAP2 SWAP1 POP JUMP JUMPDEST PUSH0 PUSH2 0x2ACD DUP3 PUSH2 0x2A68 JUMP JUMPDEST PUSH2 0x2AD7 DUP2 DUP6 PUSH2 0x2A72 JUMP JUMPDEST SWAP4 POP PUSH2 0x2AE2 DUP4 PUSH2 0x2A82 JUMP JUMPDEST DUP1 PUSH0 JUMPDEST DUP4 DUP2 LT ISZERO PUSH2 0x2B12 JUMPI DUP2 MLOAD PUSH2 0x2AF9 DUP9 DUP3 PUSH2 0x2AA0 JUMP JUMPDEST SWAP8 POP PUSH2 0x2B04 DUP4 PUSH2 0x2AB7 JUMP JUMPDEST SWAP3 POP POP PUSH1 0x1 DUP2 ADD SWAP1 POP PUSH2 0x2AE5 JUMP JUMPDEST POP DUP6 SWAP4 POP POP POP POP SWAP3 SWAP2 POP POP JUMP JUMPDEST PUSH0 PUSH1 0x20 DUP3 ADD SWAP1 POP DUP2 DUP2 SUB PUSH0 DUP4 ADD MSTORE PUSH2 0x2B37 DUP2 DUP5 PUSH2 0x2AC3 JUMP JUMPDEST SWAP1 POP SWAP3 SWAP2 POP POP JUMP JUMPDEST PUSH0 PUSH8 0xFFFFFFFFFFFFFFFF DUP3 GT ISZERO PUSH2 0x2B59 JUMPI PUSH2 0x2B58 PUSH2 0x267B JUMP JUMPDEST JUMPDEST PUSH2 0x2B62 DUP3 PUSH2 0x25D1 JUMP JUMPDEST SWAP1 POP PUSH1 0x20 DUP2 ADD SWAP1 POP SWAP2 SWAP1 POP JUMP JUMPDEST PUSH0 PUSH2 0x2B81 PUSH2 0x2B7C DUP5 PUSH2 0x2B3F JUMP JUMPDEST PUSH2 0x26D9 JUMP JUMPDEST SWAP1 POP DUP3 DUP2 MSTORE PUSH1 0x20 DUP2 ADD DUP5 DUP5 DUP5 ADD GT ISZERO PUSH2 0x2B9D JUMPI PUSH2 0x2B9C PUSH2 0x27B7 JUMP JUMPDEST JUMPDEST PUSH2 0x2BA8 DUP5 DUP3 DUP6 PUSH2 0x27EB JUMP JUMPDEST POP SWAP4 SWAP3 POP POP POP JUMP JUMPDEST PUSH0 DUP3 PUSH1 0x1F DUP4 ADD SLT PUSH2 0x2BC4 JUMPI PUSH2 0x2BC3 PUSH2 0x2677 JUMP JUMPDEST JUMPDEST DUP2 CALLDATALOAD PUSH2 0x2BD4 DUP5 DUP3 PUSH1 0x20 DUP7 ADD PUSH2 0x2B6F JUMP JUMPDEST SWAP2 POP POP SWAP3 SWAP2 POP POP JUMP JUMPDEST PUSH0 DUP1 PUSH0 PUSH1 0x60 DUP5 DUP7 SUB SLT ISZERO PUSH2 0x2BF4 JUMPI PUSH2 0x2BF3 PUSH2 0x23D0 JUMP JUMPDEST JUMPDEST PUSH0 DUP5 ADD CALLDATALOAD PUSH8 0xFFFFFFFFFFFFFFFF DUP2 GT ISZERO PUSH2 0x2C11 JUMPI PUSH2 0x2C10 PUSH2 0x23D4 JUMP JUMPDEST JUMPDEST PUSH2 0x2C1D DUP7 DUP3 DUP8 ADD PUSH2 0x2BB0 JUMP JUMPDEST SWAP4 POP POP PUSH1 0x20 PUSH2 0x2C2E DUP7 DUP3 DUP8 ADD PUSH2 0x2451 JUMP JUMPDEST SWAP3 POP POP PUSH1 0x40 PUSH2 0x2C3F DUP7 DUP3 DUP8 ADD PUSH2 0x2451 JUMP JUMPDEST SWAP2 POP POP SWAP3 POP SWAP3 POP SWAP3 JUMP JUMPDEST PUSH2 0x2C52 DUP2 PUSH2 0x23F7 JUMP JUMPDEST DUP3 MSTORE POP POP JUMP JUMPDEST PUSH0 PUSH1 0x20 DUP3 ADD SWAP1 POP PUSH2 0x2C6B PUSH0 DUP4 ADD DUP5 PUSH2 0x2C49 JUMP JUMPDEST SWAP3 SWAP2 POP POP JUMP JUMPDEST PUSH0 DUP3 DUP3 MSTORE PUSH1 0x20 DUP3 ADD SWAP1 POP SWAP3 SWAP2 POP POP JUMP JUMPDEST PUSH0 PUSH2 0x2C8B DUP3 PUSH2 0x25A9 JUMP JUMPDEST PUSH2 0x2C95 DUP2 DUP6 PUSH2 0x2C71 JUMP JUMPDEST SWAP4 POP PUSH2 0x2CA5 DUP2 DUP6 PUSH1 0x20 DUP7 ADD PUSH2 0x25C3 JUMP JUMPDEST PUSH2 0x2CAE DUP2 PUSH2 0x25D1 JUMP JUMPDEST DUP5 ADD SWAP2 POP POP SWAP3 SWAP2 POP POP JUMP JUMPDEST PUSH2 0x2CC2 DUP2 PUSH2 0x23F7 JUMP JUMPDEST DUP3 MSTORE POP POP JUMP JUMPDEST PUSH0 PUSH1 0xA0 DUP4 ADD PUSH0 DUP4 ADD MLOAD PUSH2 0x2CDD PUSH0 DUP7 ADD DUP3 PUSH2 0x2A91 JUMP JUMPDEST POP PUSH1 0x20 DUP4 ADD MLOAD DUP5 DUP3 SUB PUSH1 0x20 DUP7 ADD MSTORE PUSH2 0x2CF5 DUP3 DUP3 PUSH2 0x2C81 JUMP JUMPDEST SWAP2 POP POP PUSH1 0x40 DUP4 ADD MLOAD PUSH2 0x2D0A PUSH1 0x40 DUP7 ADD DUP3 PUSH2 0x2A91 JUMP JUMPDEST POP PUSH1 0x60 DUP4 ADD MLOAD PUSH2 0x2D1D PUSH1 0x60 DUP7 ADD DUP3 PUSH2 0x2A91 JUMP JUMPDEST POP PUSH1 0x80 DUP4 ADD MLOAD PUSH2 0x2D30 PUSH1 0x80 DUP7 ADD DUP3 PUSH2 0x2CB9 JUMP JUMPDEST POP DUP1 SWAP2 POP POP SWAP3 SWAP2 POP POP JUMP JUMPDEST PUSH0 PUSH1 0x20 DUP3 ADD SWAP1 POP DUP2 DUP2 SUB PUSH0 DUP4 ADD MSTORE PUSH2 0x2D53 DUP2 DUP5 PUSH2 0x2CC8 JUMP JUMPDEST SWAP1 POP SWAP3 SWAP2 POP POP JUMP JUMPDEST PUSH2 0x2D64 DUP2 PUSH2 0x254B JUMP JUMPDEST DUP2 EQ PUSH2 0x2D6E JUMPI PUSH0 DUP1 REVERT JUMPDEST POP JUMP JUMPDEST PUSH0 DUP2 CALLDATALOAD SWAP1 POP PUSH2 0x2D7F DUP2 PUSH2 0x2D5B JUMP JUMPDEST SWAP3 SWAP2 POP POP JUMP JUMPDEST PUSH0 DUP1 PUSH1 0x40 DUP4 DUP6 SUB SLT ISZERO PUSH2 0x2D9B JUMPI PUSH2 0x2D9A PUSH2 0x23D0 JUMP JUMPDEST JUMPDEST PUSH0 PUSH2 0x2DA8 DUP6 DUP3 DUP7 ADD PUSH2 0x241E JUMP JUMPDEST SWAP3 POP POP PUSH1 0x20 PUSH2 0x2DB9 DUP6 DUP3 DUP7 ADD PUSH2 0x2D71 JUMP JUMPDEST SWAP2 POP POP SWAP3 POP SWAP3 SWAP1 POP JUMP JUMPDEST PUSH0 PUSH1 0x20 DUP3 DUP5 SUB SLT ISZERO PUSH2 0x2DD8 JUMPI PUSH2 0x2DD7 PUSH2 0x23D0 JUMP JUMPDEST JUMPDEST PUSH0 DUP3 ADD CALLDATALOAD PUSH8 0xFFFFFFFFFFFFFFFF DUP2 GT ISZERO PUSH2 0x2DF5 JUMPI PUSH2 0x2DF4 PUSH2 0x23D4 JUMP JUMPDEST JUMPDEST PUSH2 0x2E01 DUP5 DUP3 DUP6 ADD PUSH2 0x2BB0 JUMP JUMPDEST SWAP2 POP POP SWAP3 SWAP2 POP POP JUMP JUMPDEST PUSH0 DUP1 PUSH1 0x40 DUP4 DUP6 SUB SLT ISZERO PUSH2 0x2E20 JUMPI PUSH2 0x2E1F PUSH2 0x23D0 JUMP JUMPDEST JUMPDEST PUSH0 PUSH2 0x2E2D DUP6 DUP3 DUP7 ADD PUSH2 0x241E JUMP JUMPDEST SWAP3 POP POP PUSH1 0x20 PUSH2 0x2E3E DUP6 DUP3 DUP7 ADD PUSH2 0x241E JUMP JUMPDEST SWAP2 POP POP SWAP3 POP SWAP3 SWAP1 POP JUMP JUMPDEST PUSH0 DUP1 PUSH0 DUP1 PUSH0 PUSH1 0xA0 DUP7 DUP9 SUB SLT ISZERO PUSH2 0x2E61 JUMPI PUSH2 0x2E60 PUSH2 0x23D0 JUMP JUMPDEST JUMPDEST PUSH0 PUSH2 0x2E6E DUP9 DUP3 DUP10 ADD PUSH2 0x241E JUMP JUMPDEST SWAP6 POP POP PUSH1 0x20 PUSH2 0x2E7F DUP9 DUP3 DUP10 ADD PUSH2 0x241E JUMP JUMPDEST SWAP5 POP POP PUSH1 0x40 PUSH2 0x2E90 DUP9 DUP3 DUP10 ADD PUSH2 0x2451 JUMP JUMPDEST SWAP4 POP POP PUSH1 0x60 PUSH2 0x2EA1 DUP9 DUP3 DUP10 ADD PUSH2 0x2451 JUMP JUMPDEST SWAP3 POP POP PUSH1 0x80 DUP7 ADD CALLDATALOAD PUSH8 0xFFFFFFFFFFFFFFFF DUP2 GT ISZERO PUSH2 0x2EC2 JUMPI PUSH2 0x2EC1 PUSH2 0x23D4 JUMP JUMPDEST JUMPDEST PUSH2 0x2ECE DUP9 DUP3 DUP10 ADD PUSH2 0x283A JUMP JUMPDEST SWAP2 POP POP SWAP3 SWAP6 POP SWAP3 SWAP6 SWAP1 SWAP4 POP JUMP JUMPDEST PUSH2 0x2EE4 DUP2 PUSH2 0x24CB JUMP JUMPDEST DUP3 MSTORE POP POP JUMP JUMPDEST PUSH0 PUSH1 0x20 DUP3 ADD SWAP1 POP PUSH2 0x2EFD PUSH0 DUP4 ADD DUP5 PUSH2 0x2EDB JUMP JUMPDEST SWAP3 SWAP2 POP POP JUMP JUMPDEST PUSH0 PUSH1 0x20 DUP3 DUP5 SUB SLT ISZERO PUSH2 0x2F18 JUMPI PUSH2 0x2F17 PUSH2 0x23D0 JUMP JUMPDEST JUMPDEST PUSH0 PUSH2 0x2F25 DUP5 DUP3 DUP6 ADD PUSH2 0x241E JUMP JUMPDEST SWAP2 POP POP SWAP3 SWAP2 POP POP JUMP JUMPDEST PUSH32 0x455243313135353A2062616C616E636520717565727920666F7220746865207A PUSH0 DUP3 ADD MSTORE PUSH32 0x65726F2061646472657373000000000000000000000000000000000000000000 PUSH1 0x20 DUP3 ADD MSTORE POP JUMP JUMPDEST PUSH0 PUSH2 0x2F88 PUSH1 0x2B DUP4 PUSH2 0x25B3 JUMP JUMPDEST SWAP2 POP PUSH2 0x2F93 DUP3 PUSH2 0x2F2E JUMP JUMPDEST PUSH1 0x40 DUP3 ADD SWAP1 POP SWAP2 SWAP1 POP JUMP JUMPDEST PUSH0 PUSH1 0x20 DUP3 ADD SWAP1 POP DUP2 DUP2 SUB PUSH0 DUP4 ADD MSTORE PUSH2 0x2FB5 DUP2 PUSH2 0x2F7C JUMP JUMPDEST SWAP1 POP SWAP2 SWAP1 POP JUMP JUMPDEST PUSH32 0x4E487B7100000000000000000000000000000000000000000000000000000000 PUSH0 MSTORE PUSH1 0x22 PUSH1 0x4 MSTORE PUSH1 0x24 PUSH0 REVERT JUMPDEST PUSH0 PUSH1 0x2 DUP3 DIV SWAP1 POP PUSH1 0x1 DUP3 AND DUP1 PUSH2 0x3000 JUMPI PUSH1 0x7F DUP3 AND SWAP2 POP JUMPDEST PUSH1 0x20 DUP3 LT DUP2 SUB PUSH2 0x3013 JUMPI PUSH2 0x3012 PUSH2 0x2FBC JUMP JUMPDEST JUMPDEST POP SWAP2 SWAP1 POP JUMP JUMPDEST PUSH0 DUP2 SWAP1 POP SWAP3 SWAP2 POP POP JUMP JUMPDEST PUSH0 DUP2 SWAP1 POP DUP2 PUSH0 MSTORE PUSH1 0x20 PUSH0 KECCAK256 SWAP1 POP SWAP2 SWAP1 POP JUMP JUMPDEST PUSH0 DUP2 SLOAD PUSH2 0x3041 DUP2 PUSH2 0x2FE9 JUMP JUMPDEST PUSH2 0x304B DUP2 DUP7 PUSH2 0x3019 JUMP JUMPDEST SWAP5 POP PUSH1 0x1 DUP3 AND PUSH0 DUP2 EQ PUSH2 0x3065 JUMPI PUSH1 0x1 DUP2 EQ PUSH2 0x307A JUMPI PUSH2 0x30AC JUMP JUMPDEST PUSH1 0xFF NOT DUP4 AND DUP7 MSTORE DUP2 ISZERO ISZERO DUP3 MUL DUP7 ADD SWAP4 POP PUSH2 0x30AC JUMP JUMPDEST PUSH2 0x3083 DUP6 PUSH2 0x3023 JUMP JUMPDEST PUSH0 JUMPDEST DUP4 DUP2 LT ISZERO PUSH2 0x30A4 JUMPI DUP2 SLOAD DUP2 DUP10 ADD MSTORE PUSH1 0x1 DUP3 ADD SWAP2 POP PUSH1 0x20 DUP2 ADD SWAP1 POP PUSH2 0x3085 JUMP JUMPDEST DUP4 DUP9 ADD SWAP6 POP POP POP JUMPDEST POP POP POP SWAP3 SWAP2 POP POP JUMP JUMPDEST PUSH0 PUSH2 0x30C0 DUP3 DUP6 PUSH2 0x3035 JUMP JUMPDEST SWAP2 POP PUSH2 0x30CC DUP3 DUP5 PUSH2 0x3035 JUMP JUMPDEST SWAP2 POP DUP2 SWAP1 POP SWAP4 SWAP3 POP POP POP JUMP JUMPDEST PUSH32 0x4E487B7100000000000000000000000000000000000000000000000000000000 PUSH0 MSTORE PUSH1 0x11 PUSH1 0x4 MSTORE PUSH1 0x24 PUSH0 REVERT JUMPDEST PUSH0 PUSH2 0x310F DUP3 PUSH2 0x2432 JUMP JUMPDEST SWAP2 POP PUSH2 0x311A DUP4 PUSH2 0x2432 JUMP JUMPDEST SWAP3 POP DUP3 DUP3 MUL PUSH2 0x3128 DUP2 PUSH2 0x2432 JUMP JUMPDEST SWAP2 POP DUP3 DUP3 DIV DUP5 EQ DUP4 ISZERO OR PUSH2 0x313F JUMPI PUSH2 0x313E PUSH2 0x30D8 JUMP JUMPDEST JUMPDEST POP SWAP3 SWAP2 POP POP JUMP JUMPDEST PUSH32 0x6B6F206475206E66740000000000000000000000000000000000000000000000 PUSH0 DUP3 ADD MSTORE POP JUMP JUMPDEST PUSH0 PUSH2 0x317A PUSH1 0x9 DUP4 PUSH2 0x25B3 JUMP JUMPDEST SWAP2 POP PUSH2 0x3185 DUP3 PUSH2 0x3146 JUMP JUMPDEST PUSH1 0x20 DUP3 ADD SWAP1 POP SWAP2 SWAP1 POP JUMP JUMPDEST PUSH0 PUSH1 0x20 DUP3 ADD SWAP1 POP DUP2 DUP2 SUB PUSH0 DUP4 ADD MSTORE PUSH2 0x31A7 DUP2 PUSH2 0x316E JUMP JUMPDEST SWAP1 POP SWAP2 SWAP1 POP JUMP JUMPDEST PUSH32 0x4E6565647320746F2062652067726561746572206F7220657175616C20746F20 PUSH0 DUP3 ADD MSTORE PUSH32 0x7468652070726963652E00000000000000000000000000000000000000000000 PUSH1 0x20 DUP3 ADD MSTORE POP JUMP JUMPDEST PUSH0 PUSH2 0x3208 PUSH1 0x2A DUP4 PUSH2 0x25B3 JUMP JUMPDEST SWAP2 POP PUSH2 0x3213 DUP3 PUSH2 0x31AE JUMP JUMPDEST PUSH1 0x40 DUP3 ADD SWAP1 POP SWAP2 SWAP1 POP JUMP JUMPDEST PUSH0 PUSH1 0x20 DUP3 ADD SWAP1 POP DUP2 DUP2 SUB PUSH0 DUP4 ADD MSTORE PUSH2 0x3235 DUP2 PUSH2 0x31FC JUMP JUMPDEST SWAP1 POP SWAP2 SWAP1 POP JUMP JUMPDEST PUSH0 PUSH2 0x3246 DUP3 PUSH2 0x2432 JUMP JUMPDEST SWAP2 POP PUSH2 0x3251 DUP4 PUSH2 0x2432 JUMP JUMPDEST SWAP3 POP DUP3 DUP3 SUB SWAP1 POP DUP2 DUP2 GT ISZERO PUSH2 0x3269 JUMPI PUSH2 0x3268 PUSH2 0x30D8 JUMP JUMPDEST JUMPDEST SWAP3 SWAP2 POP POP JUMP JUMPDEST PUSH0 PUSH1 0x40 DUP3 ADD SWAP1 POP PUSH2 0x3282 PUSH0 DUP4 ADD DUP6 PUSH2 0x24A3 JUMP JUMPDEST PUSH2 0x328F PUSH1 0x20 DUP4 ADD DUP5 PUSH2 0x24A3 JUMP JUMPDEST SWAP4 SWAP3 POP POP POP JUMP JUMPDEST PUSH32 0x455243313135353A207472616E736665722063616C6C6572206973206E6F7420 PUSH0 DUP3 ADD MSTORE PUSH32 0x6F776E6572206E6F7220617070726F7665640000000000000000000000000000 PUSH1 0x20 DUP3 ADD MSTORE POP JUMP JUMPDEST PUSH0 PUSH2 0x32F0 PUSH1 0x32 DUP4 PUSH2 0x25B3 JUMP JUMPDEST SWAP2 POP PUSH2 0x32FB DUP3 PUSH2 0x3296 JUMP JUMPDEST PUSH1 0x40 DUP3 ADD SWAP1 POP SWAP2 SWAP1 POP JUMP JUMPDEST PUSH0 PUSH1 0x20 DUP3 ADD SWAP1 POP DUP2 DUP2 SUB PUSH0 DUP4 ADD MSTORE PUSH2 0x331D DUP2 PUSH2 0x32E4 JUMP JUMPDEST SWAP1 POP SWAP2 SWAP1 POP JUMP JUMPDEST PUSH32 0x455243313135353A206163636F756E747320616E6420696473206C656E677468 PUSH0 DUP3 ADD MSTORE PUSH32 0x206D69736D617463680000000000000000000000000000000000000000000000 PUSH1 0x20 DUP3 ADD MSTORE POP JUMP JUMPDEST PUSH0 PUSH2 0x337E PUSH1 0x29 DUP4 PUSH2 0x25B3 JUMP JUMPDEST SWAP2 POP PUSH2 0x3389 DUP3 PUSH2 0x3324 JUMP JUMPDEST PUSH1 0x40 DUP3 ADD SWAP1 POP SWAP2 SWAP1 POP JUMP JUMPDEST PUSH0 PUSH1 0x20 DUP3 ADD SWAP1 POP DUP2 DUP2 SUB PUSH0 DUP4 ADD MSTORE PUSH2 0x33AB DUP2 PUSH2 0x3372 JUMP JUMPDEST SWAP1 POP SWAP2 SWAP1 POP JUMP JUMPDEST PUSH32 0x4E487B7100000000000000000000000000000000000000000000000000000000 PUSH0 MSTORE PUSH1 0x32 PUSH1 0x4 MSTORE PUSH1 0x24 PUSH0 REVERT JUMPDEST PUSH0 PUSH2 0x33E9 DUP3 PUSH2 0x25A9 JUMP JUMPDEST PUSH2 0x33F3 DUP2 DUP6 PUSH2 0x3019 JUMP JUMPDEST SWAP4 POP PUSH2 0x3403 DUP2 DUP6 PUSH1 0x20 DUP7 ADD PUSH2 0x25C3 JUMP JUMPDEST DUP1 DUP5 ADD SWAP2 POP POP SWAP3 SWAP2 POP POP JUMP JUMPDEST PUSH0 PUSH2 0x341A DUP3 DUP5 PUSH2 0x33DF JUMP JUMPDEST SWAP2 POP DUP2 SWAP1 POP SWAP3 SWAP2 POP POP JUMP JUMPDEST PUSH32 0x54686520746F6B656E205552492073686F756C6420626520756E697175650000 PUSH0 DUP3 ADD MSTORE POP JUMP JUMPDEST PUSH0 PUSH2 0x3459 PUSH1 0x1E DUP4 PUSH2 0x25B3 JUMP JUMPDEST SWAP2 POP PUSH2 0x3464 DUP3 PUSH2 0x3425 JUMP JUMPDEST PUSH1 0x20 DUP3 ADD SWAP1 POP SWAP2 SWAP1 POP JUMP JUMPDEST PUSH0 PUSH1 0x20 DUP3 ADD SWAP1 POP DUP2 DUP2 SUB PUSH0 DUP4 ADD MSTORE PUSH2 0x3486 DUP2 PUSH2 0x344D JUMP JUMPDEST SWAP1 POP SWAP2 SWAP1 POP JUMP JUMPDEST PUSH32 0x5072696365206D75737420626520706F73697469766500000000000000000000 PUSH0 DUP3 ADD MSTORE POP JUMP JUMPDEST PUSH0 PUSH2 0x34C1 PUSH1 0x16 DUP4 PUSH2 0x25B3 JUMP JUMPDEST SWAP2 POP PUSH2 0x34CC DUP3 PUSH2 0x348D JUMP JUMPDEST PUSH1 0x20 DUP3 ADD SWAP1 POP SWAP2 SWAP1 POP JUMP JUMPDEST PUSH0 PUSH1 0x20 DUP3 ADD SWAP1 POP DUP2 DUP2 SUB PUSH0 DUP4 ADD MSTORE PUSH2 0x34EE DUP2 PUSH2 0x34B5 JUMP JUMPDEST SWAP1 POP SWAP2 SWAP1 POP JUMP JUMPDEST PUSH32 0x596F75722072656D61696E206D6F6E6579206E6F7420616C6C6F770000000000 PUSH0 DUP3 ADD MSTORE POP JUMP JUMPDEST PUSH0 PUSH2 0x3529 PUSH1 0x1B DUP4 PUSH2 0x25B3 JUMP JUMPDEST SWAP2 POP PUSH2 0x3534 DUP3 PUSH2 0x34F5 JUMP JUMPDEST PUSH1 0x20 DUP3 ADD SWAP1 POP SWAP2 SWAP1 POP JUMP JUMPDEST PUSH0 PUSH1 0x20 DUP3 ADD SWAP1 POP DUP2 DUP2 SUB PUSH0 DUP4 ADD MSTORE PUSH2 0x3556 DUP2 PUSH2 0x351D JUMP JUMPDEST SWAP1 POP SWAP2 SWAP1 POP JUMP JUMPDEST PUSH0 PUSH1 0x20 PUSH1 0x1F DUP4 ADD DIV SWAP1 POP SWAP2 SWAP1 POP JUMP JUMPDEST PUSH0 DUP3 DUP3 SHL SWAP1 POP SWAP3 SWAP2 POP POP JUMP JUMPDEST PUSH0 PUSH1 0x8 DUP4 MUL PUSH2 0x35A7 PUSH32 0xFFFFFFFFFFFFFFFFFFFFFFFFFFFFFFFFFFFFFFFFFFFFFFFFFFFFFFFFFFFFFFFF DUP3 PUSH2 0x356C JUMP JUMPDEST PUSH2 0x35B1 DUP7 DUP4 PUSH2 0x356C JUMP JUMPDEST SWAP6 POP DUP1 NOT DUP5 AND SWAP4 POP DUP1 DUP7 AND DUP5 OR SWAP3 POP POP POP SWAP4 SWAP3 POP POP POP JUMP JUMPDEST PUSH0 DUP2 SWAP1 POP SWAP2 SWAP1 POP JUMP JUMPDEST PUSH0 PUSH2 0x35EC PUSH2 0x35E7 PUSH2 0x35E2 DUP5 PUSH2 0x2432 JUMP JUMPDEST PUSH2 0x35C9 JUMP JUMPDEST PUSH2 0x2432 JUMP JUMPDEST SWAP1 POP SWAP2 SWAP1 POP JUMP JUMPDEST PUSH0 DUP2 SWAP1 POP SWAP2 SWAP1 POP JUMP JUMPDEST PUSH2 0x3605 DUP4 PUSH2 0x35D2 JUMP JUMPDEST PUSH2 0x3619 PUSH2 0x3611 DUP3 PUSH2 0x35F3 JUMP JUMPDEST DUP5 DUP5 SLOAD PUSH2 0x3578 JUMP JUMPDEST DUP3 SSTORE POP POP POP POP JUMP JUMPDEST PUSH0 SWAP1 JUMP JUMPDEST PUSH2 0x362D PUSH2 0x3621 JUMP JUMPDEST PUSH2 0x3638 DUP2 DUP5 DUP5 PUSH2 0x35FC JUMP JUMPDEST POP POP POP JUMP JUMPDEST JUMPDEST DUP2 DUP2 LT ISZERO PUSH2 0x365B JUMPI PUSH2 0x3650 PUSH0 DUP3 PUSH2 0x3625 JUMP JUMPDEST PUSH1 0x1 DUP2 ADD SWAP1 POP PUSH2 0x363E JUMP JUMPDEST POP POP JUMP JUMPDEST PUSH1 0x1F DUP3 GT ISZERO PUSH2 0x36A0 JUMPI PUSH2 0x3671 DUP2 PUSH2 0x3023 JUMP JUMPDEST PUSH2 0x367A DUP5 PUSH2 0x355D JUMP JUMPDEST DUP2 ADD PUSH1 0x20 DUP6 LT ISZERO PUSH2 0x3689 JUMPI DUP2 SWAP1 POP JUMPDEST PUSH2 0x369D PUSH2 0x3695 DUP6 PUSH2 0x355D JUMP JUMPDEST DUP4 ADD DUP3 PUSH2 0x363D JUMP JUMPDEST POP POP JUMPDEST POP POP POP JUMP JUMPDEST PUSH0 DUP3 DUP3 SHR SWAP1 POP SWAP3 SWAP2 POP POP JUMP JUMPDEST PUSH0 PUSH2 0x36C0 PUSH0 NOT DUP5 PUSH1 0x8 MUL PUSH2 0x36A5 JUMP JUMPDEST NOT DUP1 DUP4 AND SWAP2 POP POP SWAP3 SWAP2 POP POP JUMP JUMPDEST PUSH0 PUSH2 0x36D8 DUP4 DUP4 PUSH2 0x36B1 JUMP JUMPDEST SWAP2 POP DUP3 PUSH1 0x2 MUL DUP3 OR SWAP1 POP SWAP3 SWAP2 POP POP JUMP JUMPDEST PUSH2 0x36F1 DUP3 PUSH2 0x25A9 JUMP JUMPDEST PUSH8 0xFFFFFFFFFFFFFFFF DUP2 GT ISZERO PUSH2 0x370A JUMPI PUSH2 0x3709 PUSH2 0x267B JUMP JUMPDEST JUMPDEST PUSH2 0x3714 DUP3 SLOAD PUSH2 0x2FE9 JUMP JUMPDEST PUSH2 0x371F DUP3 DUP3 DUP6 PUSH2 0x365F JUMP JUMPDEST PUSH0 PUSH1 0x20 SWAP1 POP PUSH1 0x1F DUP4 GT PUSH1 0x1 DUP2 EQ PUSH2 0x3750 JUMPI PUSH0 DUP5 ISZERO PUSH2 0x373E JUMPI DUP3 DUP8 ADD MLOAD SWAP1 POP JUMPDEST PUSH2 0x3748 DUP6 DUP3 PUSH2 0x36CD JUMP JUMPDEST DUP7 SSTORE POP PUSH2 0x37AF JUMP JUMPDEST PUSH1 0x1F NOT DUP5 AND PUSH2 0x375E DUP7 PUSH2 0x3023 JUMP JUMPDEST PUSH0 JUMPDEST DUP3 DUP2 LT ISZERO PUSH2 0x3785 JUMPI DUP5 DUP10 ADD MLOAD DUP3 SSTORE PUSH1 0x1 DUP3 ADD SWAP2 POP PUSH1 0x20 DUP6 ADD SWAP5 POP PUSH1 0x20 DUP2 ADD SWAP1 POP PUSH2 0x3760 JUMP JUMPDEST DUP7 DUP4 LT ISZERO PUSH2 0x37A2 JUMPI DUP5 DUP10 ADD MLOAD PUSH2 0x379E PUSH1 0x1F DUP10 AND DUP3 PUSH2 0x36B1 JUMP JUMPDEST DUP4 SSTORE POP JUMPDEST PUSH1 0x1 PUSH1 0x2 DUP9 MUL ADD DUP9 SSTORE POP POP POP JUMPDEST POP POP POP POP POP POP JUMP JUMPDEST PUSH0 PUSH1 0x80 DUP3 ADD SWAP1 POP DUP2 DUP2 SUB PUSH0 DUP4 ADD MSTORE PUSH2 0x37CF DUP2 DUP8 PUSH2 0x25E1 JUMP JUMPDEST SWAP1 POP PUSH2 0x37DE PUSH1 0x20 DUP4 ADD DUP7 PUSH2 0x24A3 JUMP JUMPDEST PUSH2 0x37EB PUSH1 0x40 DUP4 ADD DUP6 PUSH2 0x24A3 JUMP JUMPDEST PUSH2 0x37F8 PUSH1 0x60 DUP4 ADD DUP5 PUSH2 0x2C49 JUMP JUMPDEST SWAP6 SWAP5 POP POP POP POP POP JUMP JUMPDEST PUSH32 0x4F776E61626C653A2063616C6C6572206973206E6F7420746865206F776E6572 PUSH0 DUP3 ADD MSTORE POP JUMP JUMPDEST PUSH0 PUSH2 0x3835 PUSH1 0x20 DUP4 PUSH2 0x25B3 JUMP JUMPDEST SWAP2 POP PUSH2 0x3840 DUP3 PUSH2 0x3801 JUMP JUMPDEST PUSH1 0x20 DUP3 ADD SWAP1 POP SWAP2 SWAP1 POP JUMP JUMPDEST PUSH0 PUSH1 0x20 DUP3 ADD SWAP1 POP DUP2 DUP2 SUB PUSH0 DUP4 ADD MSTORE PUSH2 0x3862 DUP2 PUSH2 0x3829 JUMP JUMPDEST SWAP1 POP SWAP2 SWAP1 POP JUMP JUMPDEST PUSH0 PUSH2 0x3873 DUP3 PUSH2 0x2432 JUMP JUMPDEST SWAP2 POP PUSH2 0x387E DUP4 PUSH2 0x2432 JUMP JUMPDEST SWAP3 POP DUP3 DUP3 ADD SWAP1 POP DUP1 DUP3 GT ISZERO PUSH2 0x3896 JUMPI PUSH2 0x3895 PUSH2 0x30D8 JUMP JUMPDEST JUMPDEST SWAP3 SWAP2 POP POP JUMP JUMPDEST PUSH32 0x455243313135353A2073657474696E6720617070726F76616C20737461747573 PUSH0 DUP3 ADD MSTORE PUSH32 0x20666F722073656C660000000000000000000000000000000000000000000000 PUSH1 0x20 DUP3 ADD MSTORE POP JUMP JUMPDEST PUSH0 PUSH2 0x38F6 PUSH1 0x29 DUP4 PUSH2 0x25B3 JUMP JUMPDEST SWAP2 POP PUSH2 0x3901 DUP3 PUSH2 0x389C JUMP JUMPDEST PUSH1 0x40 DUP3 ADD SWAP1 POP SWAP2 SWAP1 POP JUMP JUMPDEST PUSH0 PUSH1 0x20 DUP3 ADD SWAP1 POP DUP2 DUP2 SUB PUSH0 DUP4 ADD MSTORE PUSH2 0x3923 DUP2 PUSH2 0x38EA JUMP JUMPDEST SWAP1 POP SWAP2 SWAP1 POP JUMP JUMPDEST PUSH32 0x54686520746F6B656E205552492073686F756C64206265206D696E7400000000 PUSH0 DUP3 ADD MSTORE POP JUMP JUMPDEST PUSH0 PUSH2 0x395E PUSH1 0x1C DUP4 PUSH2 0x25B3 JUMP JUMPDEST SWAP2 POP PUSH2 0x3969 DUP3 PUSH2 0x392A JUMP JUMPDEST PUSH1 0x20 DUP3 ADD SWAP1 POP SWAP2 SWAP1 POP JUMP JUMPDEST PUSH0 PUSH1 0x20 DUP3 ADD SWAP1 POP DUP2 DUP2 SUB PUSH0 DUP4 ADD MSTORE PUSH2 0x398B DUP2 PUSH2 0x3952 JUMP JUMPDEST SWAP1 POP SWAP2 SWAP1 POP JUMP JUMPDEST PUSH32 0x455243313135353A2063616C6C6572206973206E6F74206F776E6572206E6F72 PUSH0 DUP3 ADD MSTORE PUSH32 0x20617070726F7665640000000000000000000000000000000000000000000000 PUSH1 0x20 DUP3 ADD MSTORE POP JUMP JUMPDEST PUSH0 PUSH2 0x39EC PUSH1 0x29 DUP4 PUSH2 0x25B3 JUMP JUMPDEST SWAP2 POP PUSH2 0x39F7 DUP3 PUSH2 0x3992 JUMP JUMPDEST PUSH1 0x40 DUP3 ADD SWAP1 POP SWAP2 SWAP1 POP JUMP JUMPDEST PUSH0 PUSH1 0x20 DUP3 ADD SWAP1 POP DUP2 DUP2 SUB PUSH0 DUP4 ADD MSTORE PUSH2 0x3A19 DUP2 PUSH2 0x39E0 JUMP JUMPDEST SWAP1 POP SWAP2 SWAP1 POP JUMP JUMPDEST PUSH32 0x4F776E61626C653A206E6577206F776E657220697320746865207A65726F2061 PUSH0 DUP3 ADD MSTORE PUSH32 0x6464726573730000000000000000000000000000000000000000000000000000 PUSH1 0x20 DUP3 ADD MSTORE POP JUMP JUMPDEST PUSH0 PUSH2 0x3A7A PUSH1 0x26 DUP4 PUSH2 0x25B3 JUMP JUMPDEST SWAP2 POP PUSH2 0x3A85 DUP3 PUSH2 0x3A20 JUMP JUMPDEST PUSH1 0x40 DUP3 ADD SWAP1 POP SWAP2 SWAP1 POP JUMP JUMPDEST PUSH0 PUSH1 0x20 DUP3 ADD SWAP1 POP DUP2 DUP2 SUB PUSH0 DUP4 ADD MSTORE PUSH2 0x3AA7 DUP2 PUSH2 0x3A6E JUMP JUMPDEST SWAP1 POP SWAP2 SWAP1 POP JUMP JUMPDEST PUSH32 0x455243313135353A2069647320616E6420616D6F756E7473206C656E67746820 PUSH0 DUP3 ADD MSTORE PUSH32 0x6D69736D61746368000000000000000000000000000000000000000000000000 PUSH1 0x20 DUP3 ADD MSTORE POP JUMP JUMPDEST PUSH0 PUSH2 0x3B08 PUSH1 0x28 DUP4 PUSH2 0x25B3 JUMP JUMPDEST SWAP2 POP PUSH2 0x3B13 DUP3 PUSH2 0x3AAE JUMP JUMPDEST PUSH1 0x40 DUP3 ADD SWAP1 POP SWAP2 SWAP1 POP JUMP JUMPDEST PUSH0 PUSH1 0x20 DUP3 ADD SWAP1 POP DUP2 DUP2 SUB PUSH0 DUP4 ADD MSTORE PUSH2 0x3B35 DUP2 PUSH2 0x3AFC JUMP JUMPDEST SWAP1 POP SWAP2 SWAP1 POP JUMP JUMPDEST PUSH32 0x455243313135353A207472616E7366657220746F20746865207A65726F206164 PUSH0 DUP3 ADD MSTORE PUSH32 0x6472657373000000000000000000000000000000000000000000000000000000 PUSH1 0x20 DUP3 ADD MSTORE POP JUMP JUMPDEST PUSH0 PUSH2 0x3B96 PUSH1 0x25 DUP4 PUSH2 0x25B3 JUMP JUMPDEST SWAP2 POP PUSH2 0x3BA1 DUP3 PUSH2 0x3B3C JUMP JUMPDEST PUSH1 0x40 DUP3 ADD SWAP1 POP SWAP2 SWAP1 POP JUMP JUMPDEST PUSH0 PUSH1 0x20 DUP3 ADD SWAP1 POP DUP2 DUP2 SUB PUSH0 DUP4 ADD MSTORE PUSH2 0x3BC3 DUP2 PUSH2 0x3B8A JUMP JUMPDEST SWAP1 POP SWAP2 SWAP1 POP JUMP JUMPDEST PUSH32 0x455243313135353A20696E73756666696369656E742062616C616E636520666F PUSH0 DUP3 ADD MSTORE PUSH32 0x72207472616E7366657200000000000000000000000000000000000000000000 PUSH1 0x20 DUP3 ADD MSTORE POP JUMP JUMPDEST PUSH0 PUSH2 0x3C24 PUSH1 0x2A DUP4 PUSH2 0x25B3 JUMP JUMPDEST SWAP2 POP PUSH2 0x3C2F DUP3 PUSH2 0x3BCA JUMP JUMPDEST PUSH1 0x40 DUP3 ADD SWAP1 POP SWAP2 SWAP1 POP JUMP JUMPDEST PUSH0 PUSH1 0x20 DUP3 ADD SWAP1 POP DUP2 DUP2 SUB PUSH0 DUP4 ADD MSTORE PUSH2 0x3C51 DUP2 PUSH2 0x3C18 JUMP JUMPDEST SWAP1 POP SWAP2 SWAP1 POP JUMP JUMPDEST PUSH0 PUSH1 0x40 DUP3 ADD SWAP1 POP DUP2 DUP2 SUB PUSH0 DUP4 ADD MSTORE PUSH2 0x3C70 DUP2 DUP6 PUSH2 0x2AC3 JUMP JUMPDEST SWAP1 POP DUP2 DUP2 SUB PUSH1 0x20 DUP4 ADD MSTORE PUSH2 0x3C84 DUP2 DUP5 PUSH2 0x2AC3 JUMP JUMPDEST SWAP1 POP SWAP4 SWAP3 POP POP POP JUMP JUMPDEST PUSH32 0x455243313135353A206D696E7420746F20746865207A65726F20616464726573 PUSH0 DUP3 ADD MSTORE PUSH32 0x7300000000000000000000000000000000000000000000000000000000000000 PUSH1 0x20 DUP3 ADD MSTORE POP JUMP JUMPDEST PUSH0 PUSH2 0x3CE7 PUSH1 0x21 DUP4 PUSH2 0x25B3 JUMP JUMPDEST SWAP2 POP PUSH2 0x3CF2 DUP3 PUSH2 0x3C8D JUMP JUMPDEST PUSH1 0x40 DUP3 ADD SWAP1 POP SWAP2 SWAP1 POP JUMP JUMPDEST PUSH0 PUSH1 0x20 DUP3 ADD SWAP1 POP DUP2 DUP2 SUB PUSH0 DUP4 ADD MSTORE PUSH2 0x3D14 DUP2 PUSH2 0x3CDB JUMP JUMPDEST SWAP1 POP SWAP2 SWAP1 POP JUMP JUMPDEST PUSH0 DUP2 MLOAD SWAP1 POP SWAP2 SWAP1 POP JUMP JUMPDEST PUSH0 DUP3 DUP3 MSTORE PUSH1 0x20 DUP3 ADD SWAP1 POP SWAP3 SWAP2 POP POP JUMP JUMPDEST PUSH0 PUSH2 0x3D3F DUP3 PUSH2 0x3D1B JUMP JUMPDEST PUSH2 0x3D49 DUP2 DUP6 PUSH2 0x3D25 JUMP JUMPDEST SWAP4 POP PUSH2 0x3D59 DUP2 DUP6 PUSH1 0x20 DUP7 ADD PUSH2 0x25C3 JUMP JUMPDEST PUSH2 0x3D62 DUP2 PUSH2 0x25D1 JUMP JUMPDEST DUP5 ADD SWAP2 POP POP SWAP3 SWAP2 POP POP JUMP JUMPDEST PUSH0 PUSH1 0xA0 DUP3 ADD SWAP1 POP PUSH2 0x3D80 PUSH0 DUP4 ADD DUP9 PUSH2 0x2C49 JUMP JUMPDEST PUSH2 0x3D8D PUSH1 0x20 DUP4 ADD DUP8 PUSH2 0x2C49 JUMP JUMPDEST DUP2 DUP2 SUB PUSH1 0x40 DUP4 ADD MSTORE PUSH2 0x3D9F DUP2 DUP7 PUSH2 0x2AC3 JUMP JUMPDEST SWAP1 POP DUP2 DUP2 SUB PUSH1 0x60 DUP4 ADD MSTORE PUSH2 0x3DB3 DUP2 DUP6 PUSH2 0x2AC3 JUMP JUMPDEST SWAP1 POP DUP2 DUP2 SUB PUSH1 0x80 DUP4 ADD MSTORE PUSH2 0x3DC7 DUP2 DUP5 PUSH2 0x3D35 JUMP JUMPDEST SWAP1 POP SWAP7 SWAP6 POP POP POP POP POP POP JUMP JUMPDEST PUSH0 DUP2 MLOAD SWAP1 POP PUSH2 0x3DE1 DUP2 PUSH2 0x24F6 JUMP JUMPDEST SWAP3 SWAP2 POP POP JUMP JUMPDEST PUSH0 PUSH1 0x20 DUP3 DUP5 SUB SLT ISZERO PUSH2 0x3DFC JUMPI PUSH2 0x3DFB PUSH2 0x23D0 JUMP JUMPDEST JUMPDEST PUSH0 PUSH2 0x3E09 DUP5 DUP3 DUP6 ADD PUSH2 0x3DD3 JUMP JUMPDEST SWAP2 POP POP SWAP3 SWAP2 POP POP JUMP JUMPDEST PUSH0 DUP2 PUSH1 0xE0 SHR SWAP1 POP SWAP2 SWAP1 POP JUMP JUMPDEST PUSH0 PUSH1 0x3 RETURNDATASIZE GT ISZERO PUSH2 0x3E3A JUMPI PUSH1 0x4 PUSH0 DUP1 RETURNDATACOPY PUSH2 0x3E37 PUSH0 MLOAD PUSH2 0x3E12 JUMP JUMPDEST SWAP1 POP JUMPDEST SWAP1 JUMP JUMPDEST PUSH0 PUSH1 0x44 RETURNDATASIZE LT PUSH2 0x3EC9 JUMPI PUSH2 0x3E4E PUSH2 0x23C7 JUMP JUMPDEST PUSH1 0x4 RETURNDATASIZE SUB PUSH1 0x4 DUP3 RETURNDATACOPY DUP1 MLOAD RETURNDATASIZE PUSH1 0x24 DUP3 ADD GT PUSH8 0xFFFFFFFFFFFFFFFF DUP3 GT OR ISZERO PUSH2 0x3E76 JUMPI POP POP PUSH2 0x3EC9 JUMP JUMPDEST DUP1 DUP3 ADD DUP1 MLOAD PUSH8 0xFFFFFFFFFFFFFFFF DUP2 GT ISZERO PUSH2 0x3E94 JUMPI POP POP POP POP PUSH2 0x3EC9 JUMP JUMPDEST DUP1 PUSH1 0x20 DUP4 ADD ADD PUSH1 0x4 RETURNDATASIZE SUB DUP6 ADD DUP2 GT ISZERO PUSH2 0x3EB1 JUMPI POP POP POP POP POP PUSH2 0x3EC9 JUMP JUMPDEST PUSH2 0x3EC0 DUP3 PUSH1 0x20 ADD DUP6 ADD DUP7 PUSH2 0x26A8 JUMP JUMPDEST DUP3 SWAP6 POP POP POP POP POP POP JUMPDEST SWAP1 JUMP JUMPDEST PUSH32 0x455243313135353A207472616E7366657220746F206E6F6E2045524331313535 PUSH0 DUP3 ADD MSTORE PUSH32 0x526563656976657220696D706C656D656E746572000000000000000000000000 PUSH1 0x20 DUP3 ADD MSTORE POP JUMP JUMPDEST PUSH0 PUSH2 0x3F26 PUSH1 0x34 DUP4 PUSH2 0x25B3 JUMP JUMPDEST SWAP2 POP PUSH2 0x3F31 DUP3 PUSH2 0x3ECC JUMP JUMPDEST PUSH1 0x40 DUP3 ADD SWAP1 POP SWAP2 SWAP1 POP JUMP JUMPDEST PUSH0 PUSH1 0x20 DUP3 ADD SWAP1 POP DUP2 DUP2 SUB PUSH0 DUP4 ADD MSTORE PUSH2 0x3F53 DUP2 PUSH2 0x3F1A JUMP JUMPDEST SWAP1 POP SWAP2 SWAP1 POP JUMP JUMPDEST PUSH32 0x455243313135353A204552433131353552656365697665722072656A65637465 PUSH0 DUP3 ADD MSTORE PUSH32 0x6420746F6B656E73000000000000000000000000000000000000000000000000 PUSH1 0x20 DUP3 ADD MSTORE POP JUMP JUMPDEST PUSH0 PUSH2 0x3FB4 PUSH1 0x28 DUP4 PUSH2 0x25B3 JUMP JUMPDEST SWAP2 POP PUSH2 0x3FBF DUP3 PUSH2 0x3F5A JUMP JUMPDEST PUSH1 0x40 DUP3 ADD SWAP1 POP SWAP2 SWAP1 POP JUMP JUMPDEST PUSH0 PUSH1 0x20 DUP3 ADD SWAP1 POP DUP2 DUP2 SUB PUSH0 DUP4 ADD MSTORE PUSH2 0x3FE1 DUP2 PUSH2 0x3FA8 JUMP JUMPDEST SWAP1 POP SWAP2 SWAP1 POP JUMP JUMPDEST PUSH0 PUSH1 0xA0 DUP3 ADD SWAP1 POP PUSH2 0x3FFB PUSH0 DUP4 ADD DUP9 PUSH2 0x2C49 JUMP JUMPDEST PUSH2 0x4008 PUSH1 0x20 DUP4 ADD DUP8 PUSH2 0x2C49 JUMP JUMPDEST PUSH2 0x4015 PUSH1 0x40 DUP4 ADD DUP7 PUSH2 0x24A3 JUMP JUMPDEST PUSH2 0x4022 PUSH1 0x60 DUP4 ADD DUP6 PUSH2 0x24A3 JUMP JUMPDEST DUP2 DUP2 SUB PUSH1 0x80 DUP4 ADD MSTORE PUSH2 0x4034 DUP2 DUP5 PUSH2 0x3D35 JUMP JUMPDEST SWAP1 POP SWAP7 SWAP6 POP POP POP POP POP POP JUMP INVALID LOG2 PUSH5 0x6970667358 0x22 SLT KECCAK256 BYTE 0xAA 0xC0 0xBD 0xCD 0x2B 0xB2 BALANCE LOG2 0xC0 SHL ADD EXP 0xDA BLOBHASH DUP15 PUSH22 0xE73469F0B3302B2CE493F97BD1347064736F6C634300 ADDMOD BYTE STOP CALLER "
	},
	"abi": [
		{
			"inputs": [
				{
					"internalType": "string",
					"name": "_ipfs",
					"type": "string"
				}
			],
			"stateMutability": "nonpayable",
			"type": "constructor"
		},
		{
			"anonymous": false,
			"inputs": [
				{
					"indexed": true,
					"internalType": "address",
					"name": "account",
					"type": "address"
				},
				{
					"indexed": true,
					"internalType": "address",
					"name": "operator",
					"type": "address"
				},
				{
					"indexed": false,
					"internalType": "bool",
					"name": "approved",
					"type": "bool"
				}
			],
			"name": "ApprovalForAll",
			"type": "event"
		},
		{
			"anonymous": false,
			"inputs": [
				{
					"indexed": true,
					"internalType": "uint256",
					"name": "tokenId",
					"type": "uint256"
				},
				{
					"indexed": false,
					"internalType": "uint256",
					"name": "amount",
					"type": "uint256"
				},
				{
					"indexed": false,
					"internalType": "uint256",
					"name": "price",
					"type": "uint256"
				}
			],
			"name": "BuyMusicNFT",
			"type": "event"
		},
		{
			"inputs": [
				{
					"internalType": "uint256",
					"name": "tokenId",
					"type": "uint256"
				},
				{
					"internalType": "uint256",
					"name": "amount",
					"type": "uint256"
				}
			],
			"name": "buyNFT",
			"outputs": [],
			"stateMutability": "payable",
			"type": "function"
		},
		{
			"anonymous": false,
			"inputs": [
				{
					"indexed": true,
					"internalType": "uint256",
					"name": "tokenId",
					"type": "uint256"
				},
				{
					"indexed": false,
					"internalType": "string",
					"name": "uri",
					"type": "string"
				},
				{
					"indexed": false,
					"internalType": "uint256",
					"name": "amount",
					"type": "uint256"
				},
				{
					"indexed": false,
					"internalType": "uint256",
					"name": "price",
					"type": "uint256"
				},
				{
					"indexed": false,
					"internalType": "address",
					"name": "artirt",
					"type": "address"
				}
			],
			"name": "MusicNFTCreated",
			"type": "event"
		},
		{
			"inputs": [
				{
					"internalType": "address",
					"name": "",
					"type": "address"
				},
				{
					"internalType": "address",
					"name": "",
					"type": "address"
				},
				{
					"internalType": "uint256",
					"name": "",
					"type": "uint256"
				},
				{
					"internalType": "uint256",
					"name": "",
					"type": "uint256"
				},
				{
					"internalType": "bytes",
					"name": "",
					"type": "bytes"
				}
			],
			"name": "onERC1155Received",
			"outputs": [
				{
					"internalType": "bytes4",
					"name": "",
					"type": "bytes4"
				}
			],
			"stateMutability": "nonpayable",
			"type": "function"
		},
		{
			"anonymous": false,
			"inputs": [
				{
					"indexed": true,
					"internalType": "address",
					"name": "previousOwner",
					"type": "address"
				},
				{
					"indexed": true,
					"internalType": "address",
					"name": "newOwner",
					"type": "address"
				}
			],
			"name": "OwnershipTransferred",
			"type": "event"
		},
		{
			"inputs": [],
			"name": "renounceOwnership",
			"outputs": [],
			"stateMutability": "nonpayable",
			"type": "function"
		},
		{
			"inputs": [
				{
					"internalType": "uint256",
					"name": "_tokenId",
					"type": "uint256"
				},
				{
					"internalType": "uint256",
					"name": "_amount",
					"type": "uint256"
				}
			],
			"name": "reSale",
			"outputs": [
				{
					"internalType": "uint256",
					"name": "",
					"type": "uint256"
				}
			],
			"stateMutability": "payable",
			"type": "function"
		},
		{
			"inputs": [
				{
					"internalType": "address",
					"name": "from",
					"type": "address"
				},
				{
					"internalType": "address",
					"name": "to",
					"type": "address"
				},
				{
					"internalType": "uint256[]",
					"name": "ids",
					"type": "uint256[]"
				},
				{
					"internalType": "uint256[]",
					"name": "amounts",
					"type": "uint256[]"
				},
				{
					"internalType": "bytes",
					"name": "data",
					"type": "bytes"
				}
			],
			"name": "safeBatchTransferFrom",
			"outputs": [],
			"stateMutability": "nonpayable",
			"type": "function"
		},
		{
			"inputs": [
				{
					"internalType": "string",
					"name": "_token",
					"type": "string"
				},
				{
					"internalType": "uint256",
					"name": "_amount",
					"type": "uint256"
				},
				{
					"internalType": "uint256",
					"name": "_price",
					"type": "uint256"
				}
			],
			"name": "safeMint",
			"outputs": [],
			"stateMutability": "payable",
			"type": "function"
		},
		{
			"inputs": [
				{
					"internalType": "address",
					"name": "from",
					"type": "address"
				},
				{
					"internalType": "address",
					"name": "to",
					"type": "address"
				},
				{
					"internalType": "uint256",
					"name": "id",
					"type": "uint256"
				},
				{
					"internalType": "uint256",
					"name": "amount",
					"type": "uint256"
				},
				{
					"internalType": "bytes",
					"name": "data",
					"type": "bytes"
				}
			],
			"name": "safeTransferFrom",
			"outputs": [],
			"stateMutability": "nonpayable",
			"type": "function"
		},
		{
			"inputs": [
				{
					"internalType": "address",
					"name": "operator",
					"type": "address"
				},
				{
					"internalType": "bool",
					"name": "approved",
					"type": "bool"
				}
			],
			"name": "setApprovalForAll",
			"outputs": [],
			"stateMutability": "nonpayable",
			"type": "function"
		},
		{
			"inputs": [
				{
					"internalType": "string",
					"name": "_uri",
					"type": "string"
				}
			],
			"name": "setIPFS",
			"outputs": [],
			"stateMutability": "nonpayable",
			"type": "function"
		},
		{
			"anonymous": false,
			"inputs": [
				{
					"indexed": true,
					"internalType": "address",
					"name": "operator",
					"type": "address"
				},
				{
					"indexed": true,
					"internalType": "address",
					"name": "from",
					"type": "address"
				},
				{
					"indexed": true,
					"internalType": "address",
					"name": "to",
					"type": "address"
				},
				{
					"indexed": false,
					"internalType": "uint256[]",
					"name": "ids",
					"type": "uint256[]"
				},
				{
					"indexed": false,
					"internalType": "uint256[]",
					"name": "values",
					"type": "uint256[]"
				}
			],
			"name": "TransferBatch",
			"type": "event"
		},
		{
			"inputs": [
				{
					"internalType": "address",
					"name": "newOwner",
					"type": "address"
				}
			],
			"name": "transferOwnership",
			"outputs": [],
			"stateMutability": "nonpayable",
			"type": "function"
		},
		{
			"anonymous": false,
			"inputs": [
				{
					"indexed": true,
					"internalType": "address",
					"name": "operator",
					"type": "address"
				},
				{
					"indexed": true,
					"internalType": "address",
					"name": "from",
					"type": "address"
				},
				{
					"indexed": true,
					"internalType": "address",
					"name": "to",
					"type": "address"
				},
				{
					"indexed": false,
					"internalType": "uint256",
					"name": "id",
					"type": "uint256"
				},
				{
					"indexed": false,
					"internalType": "uint256",
					"name": "value",
					"type": "uint256"
				}
			],
			"name": "TransferSingle",
			"type": "event"
		},
		{
			"anonymous": false,
			"inputs": [
				{
					"indexed": false,
					"internalType": "string",
					"name": "value",
					"type": "string"
				},
				{
					"indexed": true,
					"internalType": "uint256",
					"name": "id",
					"type": "uint256"
				}
			],
			"name": "URI",
			"type": "event"
		},
		{
			"anonymous": false,
			"inputs": [
				{
					"indexed": false,
					"internalType": "uint256",
					"name": "amount",
					"type": "uint256"
				},
				{
					"indexed": false,
					"internalType": "uint256",
					"name": "when",
					"type": "uint256"
				}
			],
			"name": "Withdrawal",
			"type": "event"
		},
		{
			"inputs": [
				{
					"internalType": "address",
					"name": "account",
					"type": "address"
				},
				{
					"internalType": "uint256",
					"name": "id",
					"type": "uint256"
				}
			],
			"name": "balanceOf",
			"outputs": [
				{
					"internalType": "uint256",
					"name": "",
					"type": "uint256"
				}
			],
			"stateMutability": "view",
			"type": "function"
		},
		{
			"inputs": [
				{
					"internalType": "address[]",
					"name": "accounts",
					"type": "address[]"
				},
				{
					"internalType": "uint256[]",
					"name": "ids",
					"type": "uint256[]"
				}
			],
			"name": "balanceOfBatch",
			"outputs": [
				{
					"internalType": "uint256[]",
					"name": "",
					"type": "uint256[]"
				}
			],
			"stateMutability": "view",
			"type": "function"
		},
		{
			"inputs": [],
			"name": "getListingFee",
			"outputs": [
				{
					"internalType": "uint256",
					"name": "",
					"type": "uint256"
				}
			],
			"stateMutability": "view",
			"type": "function"
		},
		{
			"inputs": [
				{
					"internalType": "address",
					"name": "account",
					"type": "address"
				},
				{
					"internalType": "address",
					"name": "operator",
					"type": "address"
				}
			],
			"name": "isApprovedForAll",
			"outputs": [
				{
					"internalType": "bool",
					"name": "",
					"type": "bool"
				}
			],
			"stateMutability": "view",
			"type": "function"
		},
		{
			"inputs": [
				{
					"internalType": "uint256",
					"name": "_tokenId",
					"type": "uint256"
				}
			],
			"name": "music",
			"outputs": [
				{
					"components": [
						{
							"internalType": "uint256",
							"name": "tokenId",
							"type": "uint256"
						},
						{
							"internalType": "string",
							"name": "uri",
							"type": "string"
						},
						{
							"internalType": "uint256",
							"name": "amount",
							"type": "uint256"
						},
						{
							"internalType": "uint256",
							"name": "price",
							"type": "uint256"
						},
						{
							"internalType": "address",
							"name": "artirt",
							"type": "address"
						}
					],
					"internalType": "struct MusicTuneVibe.Music",
					"name": "",
					"type": "tuple"
				}
			],
			"stateMutability": "view",
			"type": "function"
		},
		{
			"inputs": [],
			"name": "owner",
			"outputs": [
				{
					"internalType": "address",
					"name": "",
					"type": "address"
				}
			],
			"stateMutability": "view",
			"type": "function"
		},
		{
			"inputs": [
				{
					"internalType": "bytes4",
					"name": "interfaceId",
					"type": "bytes4"
				}
			],
			"name": "supportsInterface",
			"outputs": [
				{
					"internalType": "bool",
					"name": "",
					"type": "bool"
				}
			],
			"stateMutability": "view",
			"type": "function"
		},
		{
			"inputs": [
				{
					"internalType": "string",
					"name": "_hash",
					"type": "string"
				}
			],
			"name": "tokenByHash",
			"outputs": [
				{
					"components": [
						{
							"internalType": "uint256",
							"name": "tokenId",
							"type": "uint256"
						},
						{
							"internalType": "string",
							"name": "uri",
							"type": "string"
						},
						{
							"internalType": "uint256",
							"name": "amount",
							"type": "uint256"
						},
						{
							"internalType": "uint256",
							"name": "price",
							"type": "uint256"
						},
						{
							"internalType": "address",
							"name": "artirt",
							"type": "address"
						}
					],
					"internalType": "struct MusicTuneVibe.Music",
					"name": "",
					"type": "tuple"
				}
			],
			"stateMutability": "view",
			"type": "function"
		},
		{
			"inputs": [
				{
					"internalType": "uint256",
					"name": "",
					"type": "uint256"
				}
			],
			"name": "tokens",
			"outputs": [
				{
					"internalType": "string",
					"name": "",
					"type": "string"
				}
			],
			"stateMutability": "view",
			"type": "function"
		},
		{
			"inputs": [
				{
					"internalType": "uint256",
					"name": "tokenId",
					"type": "uint256"
				}
			],
			"name": "uri",
			"outputs": [
				{
					"internalType": "string",
					"name": "",
					"type": "string"
				}
			],
			"stateMutability": "view",
			"type": "function"
		}
	],
	"storageLayout": {
		"storage": [
			{
				"astId": 129,
				"contract": "contracts/MusicTuneVibe.sol:MusicTuneVibe",
				"label": "_balances",
				"offset": 0,
				"slot": "0",
				"type": "t_mapping(t_uint256,t_mapping(t_address,t_uint256))"
			},
			{
				"astId": 135,
				"contract": "contracts/MusicTuneVibe.sol:MusicTuneVibe",
				"label": "_operatorApprovals",
				"offset": 0,
				"slot": "1",
				"type": "t_mapping(t_address,t_mapping(t_address,t_bool))"
			},
			{
				"astId": 137,
				"contract": "contracts/MusicTuneVibe.sol:MusicTuneVibe",
				"label": "_uri",
				"offset": 0,
				"slot": "2",
				"type": "t_string_storage"
			},
			{
				"astId": 7,
				"contract": "contracts/MusicTuneVibe.sol:MusicTuneVibe",
				"label": "_owner",
				"offset": 0,
				"slot": "3",
				"type": "t_address"
			},
			{
				"astId": 1969,
				"contract": "contracts/MusicTuneVibe.sol:MusicTuneVibe",
				"label": "tokens",
				"offset": 0,
				"slot": "4",
				"type": "t_array(t_string_storage)dyn_storage"
			},
			{
				"astId": 1971,
				"contract": "contracts/MusicTuneVibe.sol:MusicTuneVibe",
				"label": "IPFS_PATH",
				"offset": 0,
				"slot": "5",
				"type": "t_string_storage"
			},
			{
				"astId": 1973,
				"contract": "contracts/MusicTuneVibe.sol:MusicTuneVibe",
				"label": "_owner",
				"offset": 0,
				"slot": "6",
				"type": "t_address"
			},
			{
				"astId": 1976,
				"contract": "contracts/MusicTuneVibe.sol:MusicTuneVibe",
				"label": "marketFee",
				"offset": 0,
				"slot": "7",
				"type": "t_uint256"
			},
			{
				"astId": 1980,
				"contract": "contracts/MusicTuneVibe.sol:MusicTuneVibe",
				"label": "_tokenExists",
				"offset": 0,
				"slot": "8",
				"type": "t_mapping(t_string_memory_ptr,t_bool)"
			},
			{
				"astId": 2022,
				"contract": "contracts/MusicTuneVibe.sol:MusicTuneVibe",
				"label": "musics",
				"offset": 0,
				"slot": "9",
				"type": "t_mapping(t_uint256,t_struct(Music)2009_storage)"
			}
		],
		"types": {
			"t_address": {
				"encoding": "inplace",
				"label": "address",
				"numberOfBytes": "20"
			},
			"t_array(t_string_storage)dyn_storage": {
				"base": "t_string_storage",
				"encoding": "dynamic_array",
				"label": "string[]",
				"numberOfBytes": "32"
			},
			"t_bool": {
				"encoding": "inplace",
				"label": "bool",
				"numberOfBytes": "1"
			},
			"t_mapping(t_address,t_bool)": {
				"encoding": "mapping",
				"key": "t_address",
				"label": "mapping(address => bool)",
				"numberOfBytes": "32",
				"value": "t_bool"
			},
			"t_mapping(t_address,t_mapping(t_address,t_bool))": {
				"encoding": "mapping",
				"key": "t_address",
				"label": "mapping(address => mapping(address => bool))",
				"numberOfBytes": "32",
				"value": "t_mapping(t_address,t_bool)"
			},
			"t_mapping(t_address,t_uint256)": {
				"encoding": "mapping",
				"key": "t_address",
				"label": "mapping(address => uint256)",
				"numberOfBytes": "32",
				"value": "t_uint256"
			},
			"t_mapping(t_string_memory_ptr,t_bool)": {
				"encoding": "mapping",
				"key": "t_string_memory_ptr",
				"label": "mapping(string => bool)",
				"numberOfBytes": "32",
				"value": "t_bool"
			},
			"t_mapping(t_uint256,t_mapping(t_address,t_uint256))": {
				"encoding": "mapping",
				"key": "t_uint256",
				"label": "mapping(uint256 => mapping(address => uint256))",
				"numberOfBytes": "32",
				"value": "t_mapping(t_address,t_uint256)"
			},
			"t_mapping(t_uint256,t_struct(Music)2009_storage)": {
				"encoding": "mapping",
				"key": "t_uint256",
				"label": "mapping(uint256 => struct MusicTuneVibe.Music)",
				"numberOfBytes": "32",
				"value": "t_struct(Music)2009_storage"
			},
			"t_string_memory_ptr": {
				"encoding": "bytes",
				"label": "string",
				"numberOfBytes": "32"
			},
			"t_string_storage": {
				"encoding": "bytes",
				"label": "string",
				"numberOfBytes": "32"
			},
			"t_struct(Music)2009_storage": {
				"encoding": "inplace",
				"label": "struct MusicTuneVibe.Music",
				"members": [
					{
						"astId": 2000,
						"contract": "contracts/MusicTuneVibe.sol:MusicTuneVibe",
						"label": "tokenId",
						"offset": 0,
						"slot": "0",
						"type": "t_uint256"
					},
					{
						"astId": 2002,
						"contract": "contracts/MusicTuneVibe.sol:MusicTuneVibe",
						"label": "uri",
						"offset": 0,
						"slot": "1",
						"type": "t_string_storage"
					},
					{
						"astId": 2004,
						"contract": "contracts/MusicTuneVibe.sol:MusicTuneVibe",
						"label": "amount",
						"offset": 0,
						"slot": "2",
						"type": "t_uint256"
					},
					{
						"astId": 2006,
						"contract": "contracts/MusicTuneVibe.sol:MusicTuneVibe",
						"label": "price",
						"offset": 0,
						"slot": "3",
						"type": "t_uint256"
					},
					{
						"astId": 2008,
						"contract": "contracts/MusicTuneVibe.sol:MusicTuneVibe",
						"label": "artirt",
						"offset": 0,
						"slot": "4",
						"type": "t_address"
					}
				],
				"numberOfBytes": "160"
			},
			"t_uint256": {
				"encoding": "inplace",
				"label": "uint256",
				"numberOfBytes": "32"
			}
		}
	},
	"web3Deploy": "var _ipfs = /* var of type string here */ ;\nvar musictunevibeContract = new web3.eth.Contract([{\"inputs\":[{\"internalType\":\"string\",\"name\":\"_ipfs\",\"type\":\"string\"}],\"stateMutability\":\"nonpayable\",\"type\":\"constructor\"},{\"anonymous\":false,\"inputs\":[{\"indexed\":true,\"internalType\":\"address\",\"name\":\"account\",\"type\":\"address\"},{\"indexed\":true,\"internalType\":\"address\",\"name\":\"operator\",\"type\":\"address\"},{\"indexed\":false,\"internalType\":\"bool\",\"name\":\"approved\",\"type\":\"bool\"}],\"name\":\"ApprovalForAll\",\"type\":\"event\"},{\"anonymous\":false,\"inputs\":[{\"indexed\":true,\"internalType\":\"uint256\",\"name\":\"tokenId\",\"type\":\"uint256\"},{\"indexed\":false,\"internalType\":\"uint256\",\"name\":\"amount\",\"type\":\"uint256\"},{\"indexed\":false,\"internalType\":\"uint256\",\"name\":\"price\",\"type\":\"uint256\"}],\"name\":\"BuyMusicNFT\",\"type\":\"event\"},{\"anonymous\":false,\"inputs\":[{\"indexed\":true,\"internalType\":\"uint256\",\"name\":\"tokenId\",\"type\":\"uint256\"},{\"indexed\":false,\"internalType\":\"string\",\"name\":\"uri\",\"type\":\"string\"},{\"indexed\":false,\"internalType\":\"uint256\",\"name\":\"amount\",\"type\":\"uint256\"},{\"indexed\":false,\"internalType\":\"uint256\",\"name\":\"price\",\"type\":\"uint256\"},{\"indexed\":false,\"internalType\":\"address\",\"name\":\"artirt\",\"type\":\"address\"}],\"name\":\"MusicNFTCreated\",\"type\":\"event\"},{\"anonymous\":false,\"inputs\":[{\"indexed\":true,\"internalType\":\"address\",\"name\":\"previousOwner\",\"type\":\"address\"},{\"indexed\":true,\"internalType\":\"address\",\"name\":\"newOwner\",\"type\":\"address\"}],\"name\":\"OwnershipTransferred\",\"type\":\"event\"},{\"anonymous\":false,\"inputs\":[{\"indexed\":true,\"internalType\":\"address\",\"name\":\"operator\",\"type\":\"address\"},{\"indexed\":true,\"internalType\":\"address\",\"name\":\"from\",\"type\":\"address\"},{\"indexed\":true,\"internalType\":\"address\",\"name\":\"to\",\"type\":\"address\"},{\"indexed\":false,\"internalType\":\"uint256[]\",\"name\":\"ids\",\"type\":\"uint256[]\"},{\"indexed\":false,\"internalType\":\"uint256[]\",\"name\":\"values\",\"type\":\"uint256[]\"}],\"name\":\"TransferBatch\",\"type\":\"event\"},{\"anonymous\":false,\"inputs\":[{\"indexed\":true,\"internalType\":\"address\",\"name\":\"operator\",\"type\":\"address\"},{\"indexed\":true,\"internalType\":\"address\",\"name\":\"from\",\"type\":\"address\"},{\"indexed\":true,\"internalType\":\"address\",\"name\":\"to\",\"type\":\"address\"},{\"indexed\":false,\"internalType\":\"uint256\",\"name\":\"id\",\"type\":\"uint256\"},{\"indexed\":false,\"internalType\":\"uint256\",\"name\":\"value\",\"type\":\"uint256\"}],\"name\":\"TransferSingle\",\"type\":\"event\"},{\"anonymous\":false,\"inputs\":[{\"indexed\":false,\"internalType\":\"string\",\"name\":\"value\",\"type\":\"string\"},{\"indexed\":true,\"internalType\":\"uint256\",\"name\":\"id\",\"type\":\"uint256\"}],\"name\":\"URI\",\"type\":\"event\"},{\"anonymous\":false,\"inputs\":[{\"indexed\":false,\"internalType\":\"uint256\",\"name\":\"amount\",\"type\":\"uint256\"},{\"indexed\":false,\"internalType\":\"uint256\",\"name\":\"when\",\"type\":\"uint256\"}],\"name\":\"Withdrawal\",\"type\":\"event\"},{\"inputs\":[{\"internalType\":\"address\",\"name\":\"account\",\"type\":\"address\"},{\"internalType\":\"uint256\",\"name\":\"id\",\"type\":\"uint256\"}],\"name\":\"balanceOf\",\"outputs\":[{\"internalType\":\"uint256\",\"name\":\"\",\"type\":\"uint256\"}],\"stateMutability\":\"view\",\"type\":\"function\"},{\"inputs\":[{\"internalType\":\"address[]\",\"name\":\"accounts\",\"type\":\"address[]\"},{\"internalType\":\"uint256[]\",\"name\":\"ids\",\"type\":\"uint256[]\"}],\"name\":\"balanceOfBatch\",\"outputs\":[{\"internalType\":\"uint256[]\",\"name\":\"\",\"type\":\"uint256[]\"}],\"stateMutability\":\"view\",\"type\":\"function\"},{\"inputs\":[{\"internalType\":\"uint256\",\"name\":\"tokenId\",\"type\":\"uint256\"},{\"internalType\":\"uint256\",\"name\":\"amount\",\"type\":\"uint256\"}],\"name\":\"buyNFT\",\"outputs\":[],\"stateMutability\":\"payable\",\"type\":\"function\"},{\"inputs\":[],\"name\":\"getListingFee\",\"outputs\":[{\"internalType\":\"uint256\",\"name\":\"\",\"type\":\"uint256\"}],\"stateMutability\":\"view\",\"type\":\"function\"},{\"inputs\":[{\"internalType\":\"address\",\"name\":\"account\",\"type\":\"address\"},{\"internalType\":\"address\",\"name\":\"operator\",\"type\":\"address\"}],\"name\":\"isApprovedForAll\",\"outputs\":[{\"internalType\":\"bool\",\"name\":\"\",\"type\":\"bool\"}],\"stateMutability\":\"view\",\"type\":\"function\"},{\"inputs\":[{\"internalType\":\"uint256\",\"name\":\"_tokenId\",\"type\":\"uint256\"}],\"name\":\"music\",\"outputs\":[{\"components\":[{\"internalType\":\"uint256\",\"name\":\"tokenId\",\"type\":\"uint256\"},{\"internalType\":\"string\",\"name\":\"uri\",\"type\":\"string\"},{\"internalType\":\"uint256\",\"name\":\"amount\",\"type\":\"uint256\"},{\"internalType\":\"uint256\",\"name\":\"price\",\"type\":\"uint256\"},{\"internalType\":\"address\",\"name\":\"artirt\",\"type\":\"address\"}],\"internalType\":\"struct MusicTuneVibe.Music\",\"name\":\"\",\"type\":\"tuple\"}],\"stateMutability\":\"view\",\"type\":\"function\"},{\"inputs\":[{\"internalType\":\"address\",\"name\":\"\",\"type\":\"address\"},{\"internalType\":\"address\",\"name\":\"\",\"type\":\"address\"},{\"internalType\":\"uint256\",\"name\":\"\",\"type\":\"uint256\"},{\"internalType\":\"uint256\",\"name\":\"\",\"type\":\"uint256\"},{\"internalType\":\"bytes\",\"name\":\"\",\"type\":\"bytes\"}],\"name\":\"onERC1155Received\",\"outputs\":[{\"internalType\":\"bytes4\",\"name\":\"\",\"type\":\"bytes4\"}],\"stateMutability\":\"nonpayable\",\"type\":\"function\"},{\"inputs\":[],\"name\":\"owner\",\"outputs\":[{\"internalType\":\"address\",\"name\":\"\",\"type\":\"address\"}],\"stateMutability\":\"view\",\"type\":\"function\"},{\"inputs\":[{\"internalType\":\"uint256\",\"name\":\"_tokenId\",\"type\":\"uint256\"},{\"internalType\":\"uint256\",\"name\":\"_amount\",\"type\":\"uint256\"}],\"name\":\"reSale\",\"outputs\":[{\"internalType\":\"uint256\",\"name\":\"\",\"type\":\"uint256\"}],\"stateMutability\":\"payable\",\"type\":\"function\"},{\"inputs\":[],\"name\":\"renounceOwnership\",\"outputs\":[],\"stateMutability\":\"nonpayable\",\"type\":\"function\"},{\"inputs\":[{\"internalType\":\"address\",\"name\":\"from\",\"type\":\"address\"},{\"internalType\":\"address\",\"name\":\"to\",\"type\":\"address\"},{\"internalType\":\"uint256[]\",\"name\":\"ids\",\"type\":\"uint256[]\"},{\"internalType\":\"uint256[]\",\"name\":\"amounts\",\"type\":\"uint256[]\"},{\"internalType\":\"bytes\",\"name\":\"data\",\"type\":\"bytes\"}],\"name\":\"safeBatchTransferFrom\",\"outputs\":[],\"stateMutability\":\"nonpayable\",\"type\":\"function\"},{\"inputs\":[{\"internalType\":\"string\",\"name\":\"_token\",\"type\":\"string\"},{\"internalType\":\"uint256\",\"name\":\"_amount\",\"type\":\"uint256\"},{\"internalType\":\"uint256\",\"name\":\"_price\",\"type\":\"uint256\"}],\"name\":\"safeMint\",\"outputs\":[],\"stateMutability\":\"payable\",\"type\":\"function\"},{\"inputs\":[{\"internalType\":\"address\",\"name\":\"from\",\"type\":\"address\"},{\"internalType\":\"address\",\"name\":\"to\",\"type\":\"address\"},{\"internalType\":\"uint256\",\"name\":\"id\",\"type\":\"uint256\"},{\"internalType\":\"uint256\",\"name\":\"amount\",\"type\":\"uint256\"},{\"internalType\":\"bytes\",\"name\":\"data\",\"type\":\"bytes\"}],\"name\":\"safeTransferFrom\",\"outputs\":[],\"stateMutability\":\"nonpayable\",\"type\":\"function\"},{\"inputs\":[{\"internalType\":\"address\",\"name\":\"operator\",\"type\":\"address\"},{\"internalType\":\"bool\",\"name\":\"approved\",\"type\":\"bool\"}],\"name\":\"setApprovalForAll\",\"outputs\":[],\"stateMutability\":\"nonpayable\",\"type\":\"function\"},{\"inputs\":[{\"internalType\":\"string\",\"name\":\"_uri\",\"type\":\"string\"}],\"name\":\"setIPFS\",\"outputs\":[],\"stateMutability\":\"nonpayable\",\"type\":\"function\"},{\"inputs\":[{\"internalType\":\"bytes4\",\"name\":\"interfaceId\",\"type\":\"bytes4\"}],\"name\":\"supportsInterface\",\"outputs\":[{\"internalType\":\"bool\",\"name\":\"\",\"type\":\"bool\"}],\"stateMutability\":\"view\",\"type\":\"function\"},{\"inputs\":[{\"internalType\":\"string\",\"name\":\"_hash\",\"type\":\"string\"}],\"name\":\"tokenByHash\",\"outputs\":[{\"components\":[{\"internalType\":\"uint256\",\"name\":\"tokenId\",\"type\":\"uint256\"},{\"internalType\":\"string\",\"name\":\"uri\",\"type\":\"string\"},{\"internalType\":\"uint256\",\"name\":\"amount\",\"type\":\"uint256\"},{\"internalType\":\"uint256\",\"name\":\"price\",\"type\":\"uint256\"},{\"internalType\":\"address\",\"name\":\"artirt\",\"type\":\"address\"}],\"internalType\":\"struct MusicTuneVibe.Music\",\"name\":\"\",\"type\":\"tuple\"}],\"stateMutability\":\"view\",\"type\":\"function\"},{\"inputs\":[{\"internalType\":\"uint256\",\"name\":\"\",\"type\":\"uint256\"}],\"name\":\"tokens\",\"outputs\":[{\"internalType\":\"string\",\"name\":\"\",\"type\":\"string\"}],\"stateMutability\":\"view\",\"type\":\"function\"},{\"inputs\":[{\"internalType\":\"address\",\"name\":\"newOwner\",\"type\":\"address\"}],\"name\":\"transferOwnership\",\"outputs\":[],\"stateMutability\":\"nonpayable\",\"type\":\"function\"},{\"inputs\":[{\"internalType\":\"uint256\",\"name\":\"tokenId\",\"type\":\"uint256\"}],\"name\":\"uri\",\"outputs\":[{\"internalType\":\"string\",\"name\":\"\",\"type\":\"string\"}],\"stateMutability\":\"view\",\"type\":\"function\"}]);\nvar musictunevibe = musictunevibeContract.deploy({\n     data: '0x60806040525f600755348015610013575f80fd5b50604051614696380380614696833981810160405281019061003591906102f0565b60405180602001604052805f815250610053816100c660201b60201c565b506100706100656100d960201b60201c565b6100e060201b60201c565b806005908161007f9190610544565b503360065f6101000a81548173ffffffffffffffffffffffffffffffffffffffff021916908373ffffffffffffffffffffffffffffffffffffffff16021790555050610613565b80600290816100d59190610544565b5050565b5f33905090565b5f60035f9054906101000a900473ffffffffffffffffffffffffffffffffffffffff1690508160035f6101000a81548173ffffffffffffffffffffffffffffffffffffffff021916908373ffffffffffffffffffffffffffffffffffffffff1602179055508173ffffffffffffffffffffffffffffffffffffffff168173ffffffffffffffffffffffffffffffffffffffff167f8be0079c531659141344cd1fd0a4f28419497f9722a3daafe3b4186f6b6457e060405160405180910390a35050565b5f604051905090565b5f80fd5b5f80fd5b5f80fd5b5f80fd5b5f601f19601f8301169050919050565b7f4e487b71000000000000000000000000000000000000000000000000000000005f52604160045260245ffd5b610202826101bc565b810181811067ffffffffffffffff82111715610221576102206101cc565b5b80604052505050565b5f6102336101a3565b905061023f82826101f9565b919050565b5f67ffffffffffffffff82111561025e5761025d6101cc565b5b610267826101bc565b9050602081019050919050565b8281835e5f83830152505050565b5f61029461028f84610244565b61022a565b9050828152602081018484840111156102b0576102af6101b8565b5b6102bb848285610274565b509392505050565b5f82601f8301126102d7576102d66101b4565b5b81516102e7848260208601610282565b91505092915050565b5f60208284031215610305576103046101ac565b5b5f82015167ffffffffffffffff811115610322576103216101b0565b5b61032e848285016102c3565b91505092915050565b5f81519050919050565b7f4e487b71000000000000000000000000000000000000000000000000000000005f52602260045260245ffd5b5f600282049050600182168061038557607f821691505b60208210810361039857610397610341565b5b50919050565b5f819050815f5260205f209050919050565b5f6020601f8301049050919050565b5f82821b905092915050565b5f600883026103fa7fffffffffffffffffffffffffffffffffffffffffffffffffffffffffffffffff826103bf565b61040486836103bf565b95508019841693508086168417925050509392505050565b5f819050919050565b5f819050919050565b5f61044861044361043e8461041c565b610425565b61041c565b9050919050565b5f819050919050565b6104618361042e565b61047561046d8261044f565b8484546103cb565b825550505050565b5f90565b61048961047d565b610494818484610458565b505050565b5b818110156104b7576104ac5f82610481565b60018101905061049a565b5050565b601f8211156104fc576104cd8161039e565b6104d6846103b0565b810160208510156104e5578190505b6104f96104f1856103b0565b830182610499565b50505b505050565b5f82821c905092915050565b5f61051c5f1984600802610501565b1980831691505092915050565b5f610534838361050d565b9150826002028217905092915050565b61054d82610337565b67ffffffffffffffff811115610566576105656101cc565b5b610570825461036e565b61057b8282856104bb565b5f60209050601f8311600181146105ac575f841561059a578287015190505b6105a48582610529565b86555061060b565b601f1984166105ba8661039e565b5f5b828110156105e1578489015182556001820191506020850194506020810190506105bc565b868310156105fe57848901516105fa601f89168261050d565b8355505b6001600288020188555050505b505050505050565b614076806106205f395ff3fe60806040526004361061011d575f3560e01c80638da5cb5b1161009f578063dac187c711610063578063dac187c7146103d3578063e985e9c51461040f578063f23a6e611461044b578063f242432a14610487578063f2fde38b146104af5761011d565b80638da5cb5b146102f35780639eb476671461031d578063a22cb46514610359578063b8fe6abe14610381578063d19ac77a146103ab5761011d565b80634e1273f4116100e65780634e1273f4146102195780634f64b2be146102555780636e1f94e114610291578063715018a6146102ad57806380f0a63a146102c35761011d565b8062fdd58e1461012157806301ffc9a71461015d5780630e89341c146101995780631d85bf03146101d55780632eb2c2d6146101f1575b5f80fd5b34801561012c575f80fd5b5061014760048036038101906101429190612465565b6104d7565b60405161015491906124b2565b60405180910390f35b348015610168575f80fd5b50610183600480360381019061017e9190612520565b61059a565b6040516101909190612565565b60405180910390f35b3480156101a4575f80fd5b506101bf60048036038101906101ba919061257e565b61067b565b6040516101cc9190612619565b60405180910390f35b6101ef60048036038101906101ea9190612639565b6106ba565b005b3480156101fc575f80fd5b5061021760048036038101906102129190612867565b6108d5565b005b348015610224575f80fd5b5061023f600480360381019061023a91906129f2565b610976565b60405161024c9190612b1f565b60405180910390f35b348015610260575f80fd5b5061027b6004803603810190610276919061257e565b610a87565b6040516102889190612619565b60405180910390f35b6102ab60048036038101906102a69190612bdd565b610b2d565b005b3480156102b8575f80fd5b506102c1610dfa565b005b6102dd60048036038101906102d89190612639565b610e81565b6040516102ea91906124b2565b60405180910390f35b3480156102fe575f80fd5b50610307610ed0565b6040516103149190612c58565b60405180910390f35b348015610328575f80fd5b50610343600480360381019061033e919061257e565b610ef8565b6040516103509190612d3b565b60405180910390f35b348015610364575f80fd5b5061037f600480360381019061037a9190612d85565b611025565b005b34801561038c575f80fd5b506103956111a0565b6040516103a291906124b2565b60405180910390f35b3480156103b6575f80fd5b506103d160048036038101906103cc9190612dc3565b6111a9565b005b3480156103de575f80fd5b506103f960048036038101906103f49190612dc3565b611238565b6040516104069190612d3b565b60405180910390f35b34801561041a575f80fd5b5061043560048036038101906104309190612e0a565b6114c0565b6040516104429190612565565b60405180910390f35b348015610456575f80fd5b50610471600480360381019061046c9190612e48565b61154e565b60405161047e9190612eea565b60405180910390f35b348015610492575f80fd5b506104ad60048036038101906104a89190612e48565b611562565b005b3480156104ba575f80fd5b506104d560048036038101906104d09190612f03565b611603565b005b5f8073ffffffffffffffffffffffffffffffffffffffff168373ffffffffffffffffffffffffffffffffffffffff1603610546576040517f08c379a000000000000000000000000000000000000000000000000000000000815260040161053d90612f9e565b60405180910390fd5b5f808381526020019081526020015f205f8473ffffffffffffffffffffffffffffffffffffffff1673ffffffffffffffffffffffffffffffffffffffff1681526020019081526020015f2054905092915050565b5f7fd9b67a26000000000000000000000000000000000000000000000000000000007bffffffffffffffffffffffffffffffffffffffffffffffffffffffff1916827bffffffffffffffffffffffffffffffffffffffffffffffffffffffff1916148061066457507f0e89341c000000000000000000000000000000000000000000000000000000007bffffffffffffffffffffffffffffffffffffffffffffffffffffffff1916827bffffffffffffffffffffffffffffffffffffffffffffffffffffffff1916145b806106745750610673826116f9565b5b9050919050565b6060600560095f8481526020019081526020015f206001016040516020016106a49291906130b5565b6040516020818303038152906040529050919050565b5f60095f8481526020019081526020015f206003015490505f82826106df9190613105565b90508260095f8681526020019081526020015f20600201541015610738576040517f08c379a000000000000000000000000000000000000000000000000000000000815260040161072f90613190565b60405180910390fd5b8034101561077b576040517f08c379a00000000000000000000000000000000000000000000000000000000081526004016107729061321e565b60405180910390fd5b6107c93360095f8781526020019081526020015f206004015f9054906101000a900473ffffffffffffffffffffffffffffffffffffffff165f8460405180602001604052805f815250611562565b6107e633305f60075460405180602001604052805f815250611562565b8260095f8681526020019081526020015f206002015f828254610809919061323c565b9250508190555061082b3033868660405180602001604052805f81525061154e565b50610895303360095f8881526020019081526020015f205f015460095f8981526020019081526020015f20600201546040518060400160405280600381526020017f3078300000000000000000000000000000000000000000000000000000000000815250611562565b837f73da24c1c5a65dd010b8a07187c8a579ce7225624d0efc87c73eb7beb8c8e6b884846040516108c792919061326f565b60405180910390a250505050565b6108dd611762565b73ffffffffffffffffffffffffffffffffffffffff168573ffffffffffffffffffffffffffffffffffffffff16148061092357506109228561091d611762565b6114c0565b5b610962576040517f08c379a000000000000000000000000000000000000000000000000000000000815260040161095990613306565b60405180910390fd5b61096f8585858585611769565b5050505050565b606081518351146109bc576040517f08c379a00000000000000000000000000000000000000000000000000000000081526004016109b390613394565b60405180910390fd5b5f835167ffffffffffffffff8111156109d8576109d761267b565b5b604051908082528060200260200182016040528015610a065781602001602082028036833780820191505090505b5090505f5b8451811015610a7c57610a52858281518110610a2a57610a296133b2565b5b6020026020010151858381518110610a4557610a446133b2565b5b60200260200101516104d7565b828281518110610a6557610a646133b2565b5b602002602001018181525050806001019050610a0b565b508091505092915050565b60048181548110610a96575f80fd5b905f5260205f20015f915090508054610aae90612fe9565b80601f0160208091040260200160405190810160405280929190818152602001828054610ada90612fe9565b8015610b255780601f10610afc57610100808354040283529160200191610b25565b820191905f5260205f20905b815481529060010190602001808311610b0857829003601f168201915b505050505081565b600883604051610b3d919061340f565b90815260200160405180910390205f9054906101000a900460ff1615610b98576040517f08c379a0000000000000000000000000000000000000000000000000000000008152600401610b8f9061346f565b60405180910390fd5b5f8111610bda576040517f08c379a0000000000000000000000000000000000000000000000000000000008152600401610bd1906134d7565b60405180910390fd5b6007543414610c1e576040517f08c379a0000000000000000000000000000000000000000000000000000000008152600401610c159061353f565b60405180910390fd5b5f73ffffffffffffffffffffffffffffffffffffffff166108fc3490811502906040515f60405180830381858888f19350505050158015610c61573d5f803e3d5ffd5b50600483908060018154018082558091505060019003905f5260205f20015f909190919091509081610c9391906136e8565b505f6004805490509050610cb730828560405180602001604052805f815250611a63565b6040518060a001604052808281526020018581526020018481526020018381526020013373ffffffffffffffffffffffffffffffffffffffff1681525060095f8381526020019081526020015f205f820151815f01556020820151816001019081610d2291906136e8565b5060408201518160020155606082015181600301556080820151816004015f6101000a81548173ffffffffffffffffffffffffffffffffffffffff021916908373ffffffffffffffffffffffffffffffffffffffff1602179055509050506001600885604051610d92919061340f565b90815260200160405180910390205f6101000a81548160ff021916908315150217905550807f878637f2c01e0948d56963da142376811a0261fea617351062b12de43bfb1dee85858533604051610dec94939291906137b7565b60405180910390a250505050565b610e02611762565b73ffffffffffffffffffffffffffffffffffffffff16610e20610ed0565b73ffffffffffffffffffffffffffffffffffffffff1614610e76576040517f08c379a0000000000000000000000000000000000000000000000000000000008152600401610e6d9061384b565b60405180910390fd5b610e7f5f611bee565b565b5f610e9d3330858560405180602001604052805f815250611562565b8160095f8581526020019081526020015f206002015f828254610ec09190613869565b9250508190555082905092915050565b5f60035f9054906101000a900473ffffffffffffffffffffffffffffffffffffffff16905090565b610f00612386565b60095f8381526020019081526020015f206040518060a00160405290815f8201548152602001600182018054610f3590612fe9565b80601f0160208091040260200160405190810160405280929190818152602001828054610f6190612fe9565b8015610fac5780601f10610f8357610100808354040283529160200191610fac565b820191905f5260205f20905b815481529060010190602001808311610f8f57829003601f168201915b505050505081526020016002820154815260200160038201548152602001600482015f9054906101000a900473ffffffffffffffffffffffffffffffffffffffff1673ffffffffffffffffffffffffffffffffffffffff1673ffffffffffffffffffffffffffffffffffffffff16815250509050919050565b8173ffffffffffffffffffffffffffffffffffffffff16611044611762565b73ffffffffffffffffffffffffffffffffffffffff160361109a576040517f08c379a00000000000000000000000000000000000000000000000000000000081526004016110919061390c565b60405180910390fd5b8060015f6110a6611762565b73ffffffffffffffffffffffffffffffffffffffff1673ffffffffffffffffffffffffffffffffffffffff1681526020019081526020015f205f8473ffffffffffffffffffffffffffffffffffffffff1673ffffffffffffffffffffffffffffffffffffffff1681526020019081526020015f205f6101000a81548160ff0219169083151502179055508173ffffffffffffffffffffffffffffffffffffffff1661114f611762565b73ffffffffffffffffffffffffffffffffffffffff167f17307eab39ab6107e8899845ad3d59bd9653f200f220920489ca2b5937696c31836040516111949190612565565b60405180910390a35050565b5f600754905090565b6111b1611762565b73ffffffffffffffffffffffffffffffffffffffff166111cf610ed0565b73ffffffffffffffffffffffffffffffffffffffff1614611225576040517f08c379a000000000000000000000000000000000000000000000000000000000815260040161121c9061384b565b60405180910390fd5b806005908161123491906136e8565b5050565b611240612386565b600882604051611250919061340f565b90815260200160405180910390205f9054906101000a900460ff166112aa576040517f08c379a00000000000000000000000000000000000000000000000000000000081526004016112a190613974565b60405180910390fd5b5f5b6004805490508110156114ad5761136960095f6001846112cc9190613869565b81526020019081526020015f2060010180546112e790612fe9565b80601f016020809104026020016040519081016040528092919081815260200182805461131390612fe9565b801561135e5780601f106113355761010080835404028352916020019161135e565b820191905f5260205f20905b81548152906001019060200180831161134157829003601f168201915b505050505084611cb1565b156114a05760095f60018361137e9190613869565b81526020019081526020015f206040518060a00160405290815f82015481526020016001820180546113af90612fe9565b80601f01602080910402602001604051908101604052809291908181526020018280546113db90612fe9565b80156114265780601f106113fd57610100808354040283529160200191611426565b820191905f5260205f20905b81548152906001019060200180831161140957829003601f168201915b505050505081526020016002820154815260200160038201548152602001600482015f9054906101000a900473ffffffffffffffffffffffffffffffffffffffff1673ffffffffffffffffffffffffffffffffffffffff1673ffffffffffffffffffffffffffffffffffffffff16815250509150506114bb565b80806001019150506112ac565b506114b6612386565b809150505b919050565b5f60015f8473ffffffffffffffffffffffffffffffffffffffff1673ffffffffffffffffffffffffffffffffffffffff1681526020019081526020015f205f8373ffffffffffffffffffffffffffffffffffffffff1673ffffffffffffffffffffffffffffffffffffffff1681526020019081526020015f205f9054906101000a900460ff16905092915050565b5f63f23a6e6160e01b905095945050505050565b61156a611762565b73ffffffffffffffffffffffffffffffffffffffff168573ffffffffffffffffffffffffffffffffffffffff1614806115b057506115af856115aa611762565b6114c0565b5b6115ef576040517f08c379a00000000000000000000000000000000000000000000000000000000081526004016115e690613a02565b60405180910390fd5b6115fc8585858585611cd8565b5050505050565b61160b611762565b73ffffffffffffffffffffffffffffffffffffffff16611629610ed0565b73ffffffffffffffffffffffffffffffffffffffff161461167f576040517f08c379a00000000000000000000000000000000000000000000000000000000081526004016116769061384b565b60405180910390fd5b5f73ffffffffffffffffffffffffffffffffffffffff168173ffffffffffffffffffffffffffffffffffffffff16036116ed576040517f08c379a00000000000000000000000000000000000000000000000000000000081526004016116e490613a90565b60405180910390fd5b6116f681611bee565b50565b5f7f01ffc9a7000000000000000000000000000000000000000000000000000000007bffffffffffffffffffffffffffffffffffffffffffffffffffffffff1916827bffffffffffffffffffffffffffffffffffffffffffffffffffffffff1916149050919050565b5f33905090565b81518351146117ad576040517f08c379a00000000000000000000000000000000000000000000000000000000081526004016117a490613b1e565b60405180910390fd5b5f73ffffffffffffffffffffffffffffffffffffffff168473ffffffffffffffffffffffffffffffffffffffff160361181b576040517f08c379a000000000000000000000000000000000000000000000000000000000815260040161181290613bac565b60405180910390fd5b5f611824611762565b9050611834818787878787611f49565b5f5b84518110156119ce575f858281518110611853576118526133b2565b5b602002602001015190505f858381518110611871576118706133b2565b5b602002602001015190505f805f8481526020019081526020015f205f8b73ffffffffffffffffffffffffffffffffffffffff1673ffffffffffffffffffffffffffffffffffffffff1681526020019081526020015f205490508181101561190d576040517f08c379a000000000000000000000000000000000000000000000000000000000815260040161190490613c3a565b60405180910390fd5b8181035f808581526020019081526020015f205f8c73ffffffffffffffffffffffffffffffffffffffff1673ffffffffffffffffffffffffffffffffffffffff1681526020019081526020015f2081905550815f808581526020019081526020015f205f8b73ffffffffffffffffffffffffffffffffffffffff1673ffffffffffffffffffffffffffffffffffffffff1681526020019081526020015f205f8282546119b99190613869565b92505081905550505050806001019050611836565b508473ffffffffffffffffffffffffffffffffffffffff168673ffffffffffffffffffffffffffffffffffffffff168273ffffffffffffffffffffffffffffffffffffffff167f4a39dc06d4c0dbc64b70af90fd698a233a518aa5d07e595d983b8c0526c8f7fb8787604051611a45929190613c58565b60405180910390a4611a5b818787878787611f51565b505050505050565b5f73ffffffffffffffffffffffffffffffffffffffff168473ffffffffffffffffffffffffffffffffffffffff1603611ad1576040517f08c379a0000000000000000000000000000000000000000000000000000000008152600401611ac890613cfd565b60405180910390fd5b5f611ada611762565b9050611afa815f87611aeb88612127565b611af488612127565b87611f49565b825f808681526020019081526020015f205f8773ffffffffffffffffffffffffffffffffffffffff1673ffffffffffffffffffffffffffffffffffffffff1681526020019081526020015f205f828254611b549190613869565b925050819055508473ffffffffffffffffffffffffffffffffffffffff165f73ffffffffffffffffffffffffffffffffffffffff168273ffffffffffffffffffffffffffffffffffffffff167fc3d58168c5ae7397731d063d5bbf3d657854427343f4c083240f7aacaa2d0f628787604051611bd192919061326f565b60405180910390a4611be7815f8787878761219f565b5050505050565b5f60035f9054906101000a900473ffffffffffffffffffffffffffffffffffffffff1690508160035f6101000a81548173ffffffffffffffffffffffffffffffffffffffff021916908373ffffffffffffffffffffffffffffffffffffffff1602179055508173ffffffffffffffffffffffffffffffffffffffff168173ffffffffffffffffffffffffffffffffffffffff167f8be0079c531659141344cd1fd0a4f28419497f9722a3daafe3b4186f6b6457e060405160405180910390a35050565b5f81518351148015611cd0575081805190602001208380519060200120145b905092915050565b5f73ffffffffffffffffffffffffffffffffffffffff168473ffffffffffffffffffffffffffffffffffffffff1603611d46576040517f08c379a0000000000000000000000000000000000000000000000000000000008152600401611d3d90613bac565b60405180910390fd5b5f611d4f611762565b9050611d6f818787611d6088612127565b611d6988612127565b87611f49565b5f805f8681526020019081526020015f205f8873ffffffffffffffffffffffffffffffffffffffff1673ffffffffffffffffffffffffffffffffffffffff1681526020019081526020015f2054905083811015611e01576040517f08c379a0000000000000000000000000000000000000000000000000000000008152600401611df890613c3a565b60405180910390fd5b8381035f808781526020019081526020015f205f8973ffffffffffffffffffffffffffffffffffffffff1673ffffffffffffffffffffffffffffffffffffffff1681526020019081526020015f2081905550835f808781526020019081526020015f205f8873ffffffffffffffffffffffffffffffffffffffff1673ffffffffffffffffffffffffffffffffffffffff1681526020019081526020015f205f828254611ead9190613869565b925050819055508573ffffffffffffffffffffffffffffffffffffffff168773ffffffffffffffffffffffffffffffffffffffff168373ffffffffffffffffffffffffffffffffffffffff167fc3d58168c5ae7397731d063d5bbf3d657854427343f4c083240f7aacaa2d0f628888604051611f2a92919061326f565b60405180910390a4611f4082888888888861219f565b50505050505050565b505050505050565b611f708473ffffffffffffffffffffffffffffffffffffffff16612375565b1561211f578373ffffffffffffffffffffffffffffffffffffffff1663bc197c8187878686866040518663ffffffff1660e01b8152600401611fb6959493929190613d6d565b6020604051808303815f875af1925050508015611ff157506040513d601f19601f82011682018060405250810190611fee9190613de7565b60015b61209657611ffd613e1e565b806308c379a0036120595750612011613e3d565b8061201c575061205b565b806040517f08c379a00000000000000000000000000000000000000000000000000000000081526004016120509190612619565b60405180910390fd5b505b6040517f08c379a000000000000000000000000000000000000000000000000000000000815260040161208d90613f3c565b60405180910390fd5b63bc197c8160e01b7bffffffffffffffffffffffffffffffffffffffffffffffffffffffff1916817bffffffffffffffffffffffffffffffffffffffffffffffffffffffff19161461211d576040517f08c379a000000000000000000000000000000000000000000000000000000000815260040161211490613fca565b60405180910390fd5b505b505050505050565b60605f600167ffffffffffffffff8111156121455761214461267b565b5b6040519080825280602002602001820160405280156121735781602001602082028036833780820191505090505b50905082815f8151811061218a576121896133b2565b5b60200260200101818152505080915050919050565b6121be8473ffffffffffffffffffffffffffffffffffffffff16612375565b1561236d578373ffffffffffffffffffffffffffffffffffffffff1663f23a6e6187878686866040518663ffffffff1660e01b8152600401612204959493929190613fe8565b6020604051808303815f875af192505050801561223f57506040513d601f19601f8201168201806040525081019061223c9190613de7565b60015b6122e45761224b613e1e565b806308c379a0036122a7575061225f613e3d565b8061226a57506122a9565b806040517f08c379a000000000000000000000000000000000000000000000000000000000815260040161229e9190612619565b60405180910390fd5b505b6040517f08c379a00000000000000000000000000000000000000000000000000000000081526004016122db90613f3c565b60405180910390fd5b63f23a6e6160e01b7bffffffffffffffffffffffffffffffffffffffffffffffffffffffff1916817bffffffffffffffffffffffffffffffffffffffffffffffffffffffff19161461236b576040517f08c379a000000000000000000000000000000000000000000000000000000000815260040161236290613fca565b60405180910390fd5b505b505050505050565b5f80823b90505f8111915050919050565b6040518060a001604052805f8152602001606081526020015f81526020015f81526020015f73ffffffffffffffffffffffffffffffffffffffff1681525090565b5f604051905090565b5f80fd5b5f80fd5b5f73ffffffffffffffffffffffffffffffffffffffff82169050919050565b5f612401826123d8565b9050919050565b612411816123f7565b811461241b575f80fd5b50565b5f8135905061242c81612408565b92915050565b5f819050919050565b61244481612432565b811461244e575f80fd5b50565b5f8135905061245f8161243b565b92915050565b5f806040838503121561247b5761247a6123d0565b5b5f6124888582860161241e565b925050602061249985828601612451565b9150509250929050565b6124ac81612432565b82525050565b5f6020820190506124c55f8301846124a3565b92915050565b5f7fffffffff0000000000000000000000000000000000000000000000000000000082169050919050565b6124ff816124cb565b8114612509575f80fd5b50565b5f8135905061251a816124f6565b92915050565b5f60208284031215612535576125346123d0565b5b5f6125428482850161250c565b91505092915050565b5f8115159050919050565b61255f8161254b565b82525050565b5f6020820190506125785f830184612556565b92915050565b5f60208284031215612593576125926123d0565b5b5f6125a084828501612451565b91505092915050565b5f81519050919050565b5f82825260208201905092915050565b8281835e5f83830152505050565b5f601f19601f8301169050919050565b5f6125eb826125a9565b6125f581856125b3565b93506126058185602086016125c3565b61260e816125d1565b840191505092915050565b5f6020820190508181035f83015261263181846125e1565b905092915050565b5f806040838503121561264f5761264e6123d0565b5b5f61265c85828601612451565b925050602061266d85828601612451565b9150509250929050565b5f80fd5b7f4e487b71000000000000000000000000000000000000000000000000000000005f52604160045260245ffd5b6126b1826125d1565b810181811067ffffffffffffffff821117156126d0576126cf61267b565b5b80604052505050565b5f6126e26123c7565b90506126ee82826126a8565b919050565b5f67ffffffffffffffff82111561270d5761270c61267b565b5b602082029050602081019050919050565b5f80fd5b5f61273461272f846126f3565b6126d9565b905080838252602082019050602084028301858111156127575761275661271e565b5b835b81811015612780578061276c8882612451565b845260208401935050602081019050612759565b5050509392505050565b5f82601f83011261279e5761279d612677565b5b81356127ae848260208601612722565b91505092915050565b5f80fd5b5f67ffffffffffffffff8211156127d5576127d461267b565b5b6127de826125d1565b9050602081019050919050565b828183375f83830152505050565b5f61280b612806846127bb565b6126d9565b905082815260208101848484011115612827576128266127b7565b5b6128328482856127eb565b509392505050565b5f82601f83011261284e5761284d612677565b5b813561285e8482602086016127f9565b91505092915050565b5f805f805f60a086880312156128805761287f6123d0565b5b5f61288d8882890161241e565b955050602061289e8882890161241e565b945050604086013567ffffffffffffffff8111156128bf576128be6123d4565b5b6128cb8882890161278a565b935050606086013567ffffffffffffffff8111156128ec576128eb6123d4565b5b6128f88882890161278a565b925050608086013567ffffffffffffffff811115612919576129186123d4565b5b6129258882890161283a565b9150509295509295909350565b5f67ffffffffffffffff82111561294c5761294b61267b565b5b602082029050602081019050919050565b5f61296f61296a84612932565b6126d9565b905080838252602082019050602084028301858111156129925761299161271e565b5b835b818110156129bb57806129a7888261241e565b845260208401935050602081019050612994565b5050509392505050565b5f82601f8301126129d9576129d8612677565b5b81356129e984826020860161295d565b91505092915050565b5f8060408385031215612a0857612a076123d0565b5b5f83013567ffffffffffffffff811115612a2557612a246123d4565b5b612a31858286016129c5565b925050602083013567ffffffffffffffff811115612a5257612a516123d4565b5b612a5e8582860161278a565b9150509250929050565b5f81519050919050565b5f82825260208201905092915050565b5f819050602082019050919050565b612a9a81612432565b82525050565b5f612aab8383612a91565b60208301905092915050565b5f602082019050919050565b5f612acd82612a68565b612ad78185612a72565b9350612ae283612a82565b805f5b83811015612b12578151612af98882612aa0565b9750612b0483612ab7565b925050600181019050612ae5565b5085935050505092915050565b5f6020820190508181035f830152612b378184612ac3565b905092915050565b5f67ffffffffffffffff821115612b5957612b5861267b565b5b612b62826125d1565b9050602081019050919050565b5f612b81612b7c84612b3f565b6126d9565b905082815260208101848484011115612b9d57612b9c6127b7565b5b612ba88482856127eb565b509392505050565b5f82601f830112612bc457612bc3612677565b5b8135612bd4848260208601612b6f565b91505092915050565b5f805f60608486031215612bf457612bf36123d0565b5b5f84013567ffffffffffffffff811115612c1157612c106123d4565b5b612c1d86828701612bb0565b9350506020612c2e86828701612451565b9250506040612c3f86828701612451565b9150509250925092565b612c52816123f7565b82525050565b5f602082019050612c6b5f830184612c49565b92915050565b5f82825260208201905092915050565b5f612c8b826125a9565b612c958185612c71565b9350612ca58185602086016125c3565b612cae816125d1565b840191505092915050565b612cc2816123f7565b82525050565b5f60a083015f830151612cdd5f860182612a91565b5060208301518482036020860152612cf58282612c81565b9150506040830151612d0a6040860182612a91565b506060830151612d1d6060860182612a91565b506080830151612d306080860182612cb9565b508091505092915050565b5f6020820190508181035f830152612d538184612cc8565b905092915050565b612d648161254b565b8114612d6e575f80fd5b50565b5f81359050612d7f81612d5b565b92915050565b5f8060408385031215612d9b57612d9a6123d0565b5b5f612da88582860161241e565b9250506020612db985828601612d71565b9150509250929050565b5f60208284031215612dd857612dd76123d0565b5b5f82013567ffffffffffffffff811115612df557612df46123d4565b5b612e0184828501612bb0565b91505092915050565b5f8060408385031215612e2057612e1f6123d0565b5b5f612e2d8582860161241e565b9250506020612e3e8582860161241e565b9150509250929050565b5f805f805f60a08688031215612e6157612e606123d0565b5b5f612e6e8882890161241e565b9550506020612e7f8882890161241e565b9450506040612e9088828901612451565b9350506060612ea188828901612451565b925050608086013567ffffffffffffffff811115612ec257612ec16123d4565b5b612ece8882890161283a565b9150509295509295909350565b612ee4816124cb565b82525050565b5f602082019050612efd5f830184612edb565b92915050565b5f60208284031215612f1857612f176123d0565b5b5f612f258482850161241e565b91505092915050565b7f455243313135353a2062616c616e636520717565727920666f7220746865207a5f8201527f65726f2061646472657373000000000000000000000000000000000000000000602082015250565b5f612f88602b836125b3565b9150612f9382612f2e565b604082019050919050565b5f6020820190508181035f830152612fb581612f7c565b9050919050565b7f4e487b71000000000000000000000000000000000000000000000000000000005f52602260045260245ffd5b5f600282049050600182168061300057607f821691505b60208210810361301357613012612fbc565b5b50919050565b5f81905092915050565b5f819050815f5260205f209050919050565b5f815461304181612fe9565b61304b8186613019565b9450600182165f8114613065576001811461307a576130ac565b60ff19831686528115158202860193506130ac565b61308385613023565b5f5b838110156130a457815481890152600182019150602081019050613085565b838801955050505b50505092915050565b5f6130c08285613035565b91506130cc8284613035565b91508190509392505050565b7f4e487b71000000000000000000000000000000000000000000000000000000005f52601160045260245ffd5b5f61310f82612432565b915061311a83612432565b925082820261312881612432565b9150828204841483151761313f5761313e6130d8565b5b5092915050565b7f6b6f206475206e667400000000000000000000000000000000000000000000005f82015250565b5f61317a6009836125b3565b915061318582613146565b602082019050919050565b5f6020820190508181035f8301526131a78161316e565b9050919050565b7f4e6565647320746f2062652067726561746572206f7220657175616c20746f205f8201527f7468652070726963652e00000000000000000000000000000000000000000000602082015250565b5f613208602a836125b3565b9150613213826131ae565b604082019050919050565b5f6020820190508181035f830152613235816131fc565b9050919050565b5f61324682612432565b915061325183612432565b9250828203905081811115613269576132686130d8565b5b92915050565b5f6040820190506132825f8301856124a3565b61328f60208301846124a3565b9392505050565b7f455243313135353a207472616e736665722063616c6c6572206973206e6f74205f8201527f6f776e6572206e6f7220617070726f7665640000000000000000000000000000602082015250565b5f6132f06032836125b3565b91506132fb82613296565b604082019050919050565b5f6020820190508181035f83015261331d816132e4565b9050919050565b7f455243313135353a206163636f756e747320616e6420696473206c656e6774685f8201527f206d69736d617463680000000000000000000000000000000000000000000000602082015250565b5f61337e6029836125b3565b915061338982613324565b604082019050919050565b5f6020820190508181035f8301526133ab81613372565b9050919050565b7f4e487b71000000000000000000000000000000000000000000000000000000005f52603260045260245ffd5b5f6133e9826125a9565b6133f38185613019565b93506134038185602086016125c3565b80840191505092915050565b5f61341a82846133df565b915081905092915050565b7f54686520746f6b656e205552492073686f756c6420626520756e6971756500005f82015250565b5f613459601e836125b3565b915061346482613425565b602082019050919050565b5f6020820190508181035f8301526134868161344d565b9050919050565b7f5072696365206d75737420626520706f736974697665000000000000000000005f82015250565b5f6134c16016836125b3565b91506134cc8261348d565b602082019050919050565b5f6020820190508181035f8301526134ee816134b5565b9050919050565b7f596f75722072656d61696e206d6f6e6579206e6f7420616c6c6f7700000000005f82015250565b5f613529601b836125b3565b9150613534826134f5565b602082019050919050565b5f6020820190508181035f8301526135568161351d565b9050919050565b5f6020601f8301049050919050565b5f82821b905092915050565b5f600883026135a77fffffffffffffffffffffffffffffffffffffffffffffffffffffffffffffffff8261356c565b6135b1868361356c565b95508019841693508086168417925050509392505050565b5f819050919050565b5f6135ec6135e76135e284612432565b6135c9565b612432565b9050919050565b5f819050919050565b613605836135d2565b613619613611826135f3565b848454613578565b825550505050565b5f90565b61362d613621565b6136388184846135fc565b505050565b5b8181101561365b576136505f82613625565b60018101905061363e565b5050565b601f8211156136a05761367181613023565b61367a8461355d565b81016020851015613689578190505b61369d6136958561355d565b83018261363d565b50505b505050565b5f82821c905092915050565b5f6136c05f19846008026136a5565b1980831691505092915050565b5f6136d883836136b1565b9150826002028217905092915050565b6136f1826125a9565b67ffffffffffffffff81111561370a5761370961267b565b5b6137148254612fe9565b61371f82828561365f565b5f60209050601f831160018114613750575f841561373e578287015190505b61374885826136cd565b8655506137af565b601f19841661375e86613023565b5f5b8281101561378557848901518255600182019150602085019450602081019050613760565b868310156137a2578489015161379e601f8916826136b1565b8355505b6001600288020188555050505b505050505050565b5f6080820190508181035f8301526137cf81876125e1565b90506137de60208301866124a3565b6137eb60408301856124a3565b6137f86060830184612c49565b95945050505050565b7f4f776e61626c653a2063616c6c6572206973206e6f7420746865206f776e65725f82015250565b5f6138356020836125b3565b915061384082613801565b602082019050919050565b5f6020820190508181035f83015261386281613829565b9050919050565b5f61387382612432565b915061387e83612432565b9250828201905080821115613896576138956130d8565b5b92915050565b7f455243313135353a2073657474696e6720617070726f76616c207374617475735f8201527f20666f722073656c660000000000000000000000000000000000000000000000602082015250565b5f6138f66029836125b3565b91506139018261389c565b604082019050919050565b5f6020820190508181035f830152613923816138ea565b9050919050565b7f54686520746f6b656e205552492073686f756c64206265206d696e74000000005f82015250565b5f61395e601c836125b3565b91506139698261392a565b602082019050919050565b5f6020820190508181035f83015261398b81613952565b9050919050565b7f455243313135353a2063616c6c6572206973206e6f74206f776e6572206e6f725f8201527f20617070726f7665640000000000000000000000000000000000000000000000602082015250565b5f6139ec6029836125b3565b91506139f782613992565b604082019050919050565b5f6020820190508181035f830152613a19816139e0565b9050919050565b7f4f776e61626c653a206e6577206f776e657220697320746865207a65726f20615f8201527f6464726573730000000000000000000000000000000000000000000000000000602082015250565b5f613a7a6026836125b3565b9150613a8582613a20565b604082019050919050565b5f6020820190508181035f830152613aa781613a6e565b9050919050565b7f455243313135353a2069647320616e6420616d6f756e7473206c656e677468205f8201527f6d69736d61746368000000000000000000000000000000000000000000000000602082015250565b5f613b086028836125b3565b9150613b1382613aae565b604082019050919050565b5f6020820190508181035f830152613b3581613afc565b9050919050565b7f455243313135353a207472616e7366657220746f20746865207a65726f2061645f8201527f6472657373000000000000000000000000000000000000000000000000000000602082015250565b5f613b966025836125b3565b9150613ba182613b3c565b604082019050919050565b5f6020820190508181035f830152613bc381613b8a565b9050919050565b7f455243313135353a20696e73756666696369656e742062616c616e636520666f5f8201527f72207472616e7366657200000000000000000000000000000000000000000000602082015250565b5f613c24602a836125b3565b9150613c2f82613bca565b604082019050919050565b5f6020820190508181035f830152613c5181613c18565b9050919050565b5f6040820190508181035f830152613c708185612ac3565b90508181036020830152613c848184612ac3565b90509392505050565b7f455243313135353a206d696e7420746f20746865207a65726f206164647265735f8201527f7300000000000000000000000000000000000000000000000000000000000000602082015250565b5f613ce76021836125b3565b9150613cf282613c8d565b604082019050919050565b5f6020820190508181035f830152613d1481613cdb565b9050919050565b5f81519050919050565b5f82825260208201905092915050565b5f613d3f82613d1b565b613d498185613d25565b9350613d598185602086016125c3565b613d62816125d1565b840191505092915050565b5f60a082019050613d805f830188612c49565b613d8d6020830187612c49565b8181036040830152613d9f8186612ac3565b90508181036060830152613db38185612ac3565b90508181036080830152613dc78184613d35565b90509695505050505050565b5f81519050613de1816124f6565b92915050565b5f60208284031215613dfc57613dfb6123d0565b5b5f613e0984828501613dd3565b91505092915050565b5f8160e01c9050919050565b5f60033d1115613e3a5760045f803e613e375f51613e12565b90505b90565b5f60443d10613ec957613e4e6123c7565b60043d036004823e80513d602482011167ffffffffffffffff82111715613e76575050613ec9565b808201805167ffffffffffffffff811115613e945750505050613ec9565b80602083010160043d038501811115613eb1575050505050613ec9565b613ec0826020018501866126a8565b82955050505050505b90565b7f455243313135353a207472616e7366657220746f206e6f6e20455243313135355f8201527f526563656976657220696d706c656d656e746572000000000000000000000000602082015250565b5f613f266034836125b3565b9150613f3182613ecc565b604082019050919050565b5f6020820190508181035f830152613f5381613f1a565b9050919050565b7f455243313135353a204552433131353552656365697665722072656a656374655f8201527f6420746f6b656e73000000000000000000000000000000000000000000000000602082015250565b5f613fb46028836125b3565b9150613fbf82613f5a565b604082019050919050565b5f6020820190508181035f830152613fe181613fa8565b9050919050565b5f60a082019050613ffb5f830188612c49565b6140086020830187612c49565b61401560408301866124a3565b61402260608301856124a3565b81810360808301526140348184613d35565b9050969550505050505056fea26469706673582212201aaac0bdcd2bb231a2c01b010ada498e75e73469f0b3302b2ce493f97bd1347064736f6c634300081a0033', \n     arguments: [\n          _ipfs,\n     ]\n}).send({\n     from: web3.eth.accounts[0], \n     gas: '4700000'\n   }, function (e, contract){\n    console.log(e, contract);\n    if (typeof contract.address !== 'undefined') {\n         console.log('Contract mined! address: ' + contract.address + ' transactionHash: ' + contract.transactionHash);\n    }\n })",
	"functionHashes": {
		"00fdd58e": "balanceOf(address,uint256)",
		"4e1273f4": "balanceOfBatch(address[],uint256[])",
		"1d85bf03": "buyNFT(uint256,uint256)",
		"b8fe6abe": "getListingFee()",
		"e985e9c5": "isApprovedForAll(address,address)",
		"9eb47667": "music(uint256)",
		"f23a6e61": "onERC1155Received(address,address,uint256,uint256,bytes)",
		"8da5cb5b": "owner()",
		"80f0a63a": "reSale(uint256,uint256)",
		"715018a6": "renounceOwnership()",
		"2eb2c2d6": "safeBatchTransferFrom(address,address,uint256[],uint256[],bytes)",
		"6e1f94e1": "safeMint(string,uint256,uint256)",
		"f242432a": "safeTransferFrom(address,address,uint256,uint256,bytes)",
		"a22cb465": "setApprovalForAll(address,bool)",
		"d19ac77a": "setIPFS(string)",
		"01ffc9a7": "supportsInterface(bytes4)",
		"dac187c7": "tokenByHash(string)",
		"4f64b2be": "tokens(uint256)",
		"f2fde38b": "transferOwnership(address)",
		"0e89341c": "uri(uint256)"
	},
	"gasEstimates": {
		"Creation": {
			"codeDepositCost": "3300400",
			"executionCost": "infinite",
			"totalCost": "infinite"
		},
		"External": {
			"balanceOf(address,uint256)": "infinite",
			"balanceOfBatch(address[],uint256[])": "infinite",
			"buyNFT(uint256,uint256)": "infinite",
			"getListingFee()": "2521",
			"isApprovedForAll(address,address)": "infinite",
			"music(uint256)": "infinite",
			"onERC1155Received(address,address,uint256,uint256,bytes)": "infinite",
			"owner()": "2538",
			"reSale(uint256,uint256)": "infinite",
			"renounceOwnership()": "30455",
			"safeBatchTransferFrom(address,address,uint256[],uint256[],bytes)": "infinite",
			"safeMint(string,uint256,uint256)": "infinite",
			"safeTransferFrom(address,address,uint256,uint256,bytes)": "infinite",
			"setApprovalForAll(address,bool)": "infinite",
			"setIPFS(string)": "infinite",
			"supportsInterface(bytes4)": "809",
			"tokenByHash(string)": "infinite",
			"tokens(uint256)": "infinite",
			"transferOwnership(address)": "30817",
			"uri(uint256)": "infinite"
		},
		"Internal": {
			"memcmp(bytes memory,bytes memory)": "infinite"
		}
	},
	"devdoc": {
		"events": {
			"ApprovalForAll(address,address,bool)": {
				"details": "Emitted when `account` grants or revokes permission to `operator` to transfer their tokens, according to `approved`."
			},
			"TransferBatch(address,address,address,uint256[],uint256[])": {
				"details": "Equivalent to multiple {TransferSingle} events, where `operator`, `from` and `to` are the same for all transfers."
			},
			"TransferSingle(address,address,address,uint256,uint256)": {
				"details": "Emitted when `value` tokens of token type `id` are transferred from `from` to `to` by `operator`."
			},
			"URI(string,uint256)": {
				"details": "Emitted when the URI for token type `id` changes to `value`, if it is a non-programmatic URI. If an {URI} event was emitted for `id`, the standard https://eips.ethereum.org/EIPS/eip-1155#metadata-extensions[guarantees] that `value` will equal the value returned by {IERC1155MetadataURI-uri}."
			}
		},
		"kind": "dev",
		"methods": {
			"balanceOf(address,uint256)": {
				"details": "See {IERC1155-balanceOf}. Requirements: - `account` cannot be the zero address."
			},
			"balanceOfBatch(address[],uint256[])": {
				"details": "See {IERC1155-balanceOfBatch}. Requirements: - `accounts` and `ids` must have the same length."
			},
			"isApprovedForAll(address,address)": {
				"details": "See {IERC1155-isApprovedForAll}."
			},
			"owner()": {
				"details": "Returns the address of the current owner."
			},
			"renounceOwnership()": {
				"details": "Leaves the contract without owner. It will not be possible to call `onlyOwner` functions anymore. Can only be called by the current owner. NOTE: Renouncing ownership will leave the contract without an owner, thereby removing any functionality that is only available to the owner."
			},
			"safeBatchTransferFrom(address,address,uint256[],uint256[],bytes)": {
				"details": "See {IERC1155-safeBatchTransferFrom}."
			},
			"safeTransferFrom(address,address,uint256,uint256,bytes)": {
				"details": "See {IERC1155-safeTransferFrom}."
			},
			"setApprovalForAll(address,bool)": {
				"details": "See {IERC1155-setApprovalForAll}."
			},
			"supportsInterface(bytes4)": {
				"details": "See {IERC165-supportsInterface}."
			},
			"transferOwnership(address)": {
				"details": "Transfers ownership of the contract to a new account (`newOwner`). Can only be called by the current owner."
			}
		},
		"version": 1
	},
	"userdoc": {
		"kind": "user",
		"methods": {},
		"version": 1
	},
	"Runtime Bytecode": {
		"immutableReferences": {},
		"linkReferences": {},
		"object": "60806040526004361061011d575f3560e01c80638da5cb5b1161009f578063dac187c711610063578063dac187c7146103d3578063e985e9c51461040f578063f23a6e611461044b578063f242432a14610487578063f2fde38b146104af5761011d565b80638da5cb5b146102f35780639eb476671461031d578063a22cb46514610359578063b8fe6abe14610381578063d19ac77a146103ab5761011d565b80634e1273f4116100e65780634e1273f4146102195780634f64b2be146102555780636e1f94e114610291578063715018a6146102ad57806380f0a63a146102c35761011d565b8062fdd58e1461012157806301ffc9a71461015d5780630e89341c146101995780631d85bf03146101d55780632eb2c2d6146101f1575b5f80fd5b34801561012c575f80fd5b5061014760048036038101906101429190612465565b6104d7565b60405161015491906124b2565b60405180910390f35b348015610168575f80fd5b50610183600480360381019061017e9190612520565b61059a565b6040516101909190612565565b60405180910390f35b3480156101a4575f80fd5b506101bf60048036038101906101ba919061257e565b61067b565b6040516101cc9190612619565b60405180910390f35b6101ef60048036038101906101ea9190612639565b6106ba565b005b3480156101fc575f80fd5b5061021760048036038101906102129190612867565b6108d5565b005b348015610224575f80fd5b5061023f600480360381019061023a91906129f2565b610976565b60405161024c9190612b1f565b60405180910390f35b348015610260575f80fd5b5061027b6004803603810190610276919061257e565b610a87565b6040516102889190612619565b60405180910390f35b6102ab60048036038101906102a69190612bdd565b610b2d565b005b3480156102b8575f80fd5b506102c1610dfa565b005b6102dd60048036038101906102d89190612639565b610e81565b6040516102ea91906124b2565b60405180910390f35b3480156102fe575f80fd5b50610307610ed0565b6040516103149190612c58565b60405180910390f35b348015610328575f80fd5b50610343600480360381019061033e919061257e565b610ef8565b6040516103509190612d3b565b60405180910390f35b348015610364575f80fd5b5061037f600480360381019061037a9190612d85565b611025565b005b34801561038c575f80fd5b506103956111a0565b6040516103a291906124b2565b60405180910390f35b3480156103b6575f80fd5b506103d160048036038101906103cc9190612dc3565b6111a9565b005b3480156103de575f80fd5b506103f960048036038101906103f49190612dc3565b611238565b6040516104069190612d3b565b60405180910390f35b34801561041a575f80fd5b5061043560048036038101906104309190612e0a565b6114c0565b6040516104429190612565565b60405180910390f35b348015610456575f80fd5b50610471600480360381019061046c9190612e48565b61154e565b60405161047e9190612eea565b60405180910390f35b348015610492575f80fd5b506104ad60048036038101906104a89190612e48565b611562565b005b3480156104ba575f80fd5b506104d560048036038101906104d09190612f03565b611603565b005b5f8073ffffffffffffffffffffffffffffffffffffffff168373ffffffffffffffffffffffffffffffffffffffff1603610546576040517f08c379a000000000000000000000000000000000000000000000000000000000815260040161053d90612f9e565b60405180910390fd5b5f808381526020019081526020015f205f8473ffffffffffffffffffffffffffffffffffffffff1673ffffffffffffffffffffffffffffffffffffffff1681526020019081526020015f2054905092915050565b5f7fd9b67a26000000000000000000000000000000000000000000000000000000007bffffffffffffffffffffffffffffffffffffffffffffffffffffffff1916827bffffffffffffffffffffffffffffffffffffffffffffffffffffffff1916148061066457507f0e89341c000000000000000000000000000000000000000000000000000000007bffffffffffffffffffffffffffffffffffffffffffffffffffffffff1916827bffffffffffffffffffffffffffffffffffffffffffffffffffffffff1916145b806106745750610673826116f9565b5b9050919050565b6060600560095f8481526020019081526020015f206001016040516020016106a49291906130b5565b6040516020818303038152906040529050919050565b5f60095f8481526020019081526020015f206003015490505f82826106df9190613105565b90508260095f8681526020019081526020015f20600201541015610738576040517f08c379a000000000000000000000000000000000000000000000000000000000815260040161072f90613190565b60405180910390fd5b8034101561077b576040517f08c379a00000000000000000000000000000000000000000000000000000000081526004016107729061321e565b60405180910390fd5b6107c93360095f8781526020019081526020015f206004015f9054906101000a900473ffffffffffffffffffffffffffffffffffffffff165f8460405180602001604052805f815250611562565b6107e633305f60075460405180602001604052805f815250611562565b8260095f8681526020019081526020015f206002015f828254610809919061323c565b9250508190555061082b3033868660405180602001604052805f81525061154e565b50610895303360095f8881526020019081526020015f205f015460095f8981526020019081526020015f20600201546040518060400160405280600381526020017f3078300000000000000000000000000000000000000000000000000000000000815250611562565b837f73da24c1c5a65dd010b8a07187c8a579ce7225624d0efc87c73eb7beb8c8e6b884846040516108c792919061326f565b60405180910390a250505050565b6108dd611762565b73ffffffffffffffffffffffffffffffffffffffff168573ffffffffffffffffffffffffffffffffffffffff16148061092357506109228561091d611762565b6114c0565b5b610962576040517f08c379a000000000000000000000000000000000000000000000000000000000815260040161095990613306565b60405180910390fd5b61096f8585858585611769565b5050505050565b606081518351146109bc576040517f08c379a00000000000000000000000000000000000000000000000000000000081526004016109b390613394565b60405180910390fd5b5f835167ffffffffffffffff8111156109d8576109d761267b565b5b604051908082528060200260200182016040528015610a065781602001602082028036833780820191505090505b5090505f5b8451811015610a7c57610a52858281518110610a2a57610a296133b2565b5b6020026020010151858381518110610a4557610a446133b2565b5b60200260200101516104d7565b828281518110610a6557610a646133b2565b5b602002602001018181525050806001019050610a0b565b508091505092915050565b60048181548110610a96575f80fd5b905f5260205f20015f915090508054610aae90612fe9565b80601f0160208091040260200160405190810160405280929190818152602001828054610ada90612fe9565b8015610b255780601f10610afc57610100808354040283529160200191610b25565b820191905f5260205f20905b815481529060010190602001808311610b0857829003601f168201915b505050505081565b600883604051610b3d919061340f565b90815260200160405180910390205f9054906101000a900460ff1615610b98576040517f08c379a0000000000000000000000000000000000000000000000000000000008152600401610b8f9061346f565b60405180910390fd5b5f8111610bda576040517f08c379a0000000000000000000000000000000000000000000000000000000008152600401610bd1906134d7565b60405180910390fd5b6007543414610c1e576040517f08c379a0000000000000000000000000000000000000000000000000000000008152600401610c159061353f565b60405180910390fd5b5f73ffffffffffffffffffffffffffffffffffffffff166108fc3490811502906040515f60405180830381858888f19350505050158015610c61573d5f803e3d5ffd5b50600483908060018154018082558091505060019003905f5260205f20015f909190919091509081610c9391906136e8565b505f6004805490509050610cb730828560405180602001604052805f815250611a63565b6040518060a001604052808281526020018581526020018481526020018381526020013373ffffffffffffffffffffffffffffffffffffffff1681525060095f8381526020019081526020015f205f820151815f01556020820151816001019081610d2291906136e8565b5060408201518160020155606082015181600301556080820151816004015f6101000a81548173ffffffffffffffffffffffffffffffffffffffff021916908373ffffffffffffffffffffffffffffffffffffffff1602179055509050506001600885604051610d92919061340f565b90815260200160405180910390205f6101000a81548160ff021916908315150217905550807f878637f2c01e0948d56963da142376811a0261fea617351062b12de43bfb1dee85858533604051610dec94939291906137b7565b60405180910390a250505050565b610e02611762565b73ffffffffffffffffffffffffffffffffffffffff16610e20610ed0565b73ffffffffffffffffffffffffffffffffffffffff1614610e76576040517f08c379a0000000000000000000000000000000000000000000000000000000008152600401610e6d9061384b565b60405180910390fd5b610e7f5f611bee565b565b5f610e9d3330858560405180602001604052805f815250611562565b8160095f8581526020019081526020015f206002015f828254610ec09190613869565b9250508190555082905092915050565b5f60035f9054906101000a900473ffffffffffffffffffffffffffffffffffffffff16905090565b610f00612386565b60095f8381526020019081526020015f206040518060a00160405290815f8201548152602001600182018054610f3590612fe9565b80601f0160208091040260200160405190810160405280929190818152602001828054610f6190612fe9565b8015610fac5780601f10610f8357610100808354040283529160200191610fac565b820191905f5260205f20905b815481529060010190602001808311610f8f57829003601f168201915b505050505081526020016002820154815260200160038201548152602001600482015f9054906101000a900473ffffffffffffffffffffffffffffffffffffffff1673ffffffffffffffffffffffffffffffffffffffff1673ffffffffffffffffffffffffffffffffffffffff16815250509050919050565b8173ffffffffffffffffffffffffffffffffffffffff16611044611762565b73ffffffffffffffffffffffffffffffffffffffff160361109a576040517f08c379a00000000000000000000000000000000000000000000000000000000081526004016110919061390c565b60405180910390fd5b8060015f6110a6611762565b73ffffffffffffffffffffffffffffffffffffffff1673ffffffffffffffffffffffffffffffffffffffff1681526020019081526020015f205f8473ffffffffffffffffffffffffffffffffffffffff1673ffffffffffffffffffffffffffffffffffffffff1681526020019081526020015f205f6101000a81548160ff0219169083151502179055508173ffffffffffffffffffffffffffffffffffffffff1661114f611762565b73ffffffffffffffffffffffffffffffffffffffff167f17307eab39ab6107e8899845ad3d59bd9653f200f220920489ca2b5937696c31836040516111949190612565565b60405180910390a35050565b5f600754905090565b6111b1611762565b73ffffffffffffffffffffffffffffffffffffffff166111cf610ed0565b73ffffffffffffffffffffffffffffffffffffffff1614611225576040517f08c379a000000000000000000000000000000000000000000000000000000000815260040161121c9061384b565b60405180910390fd5b806005908161123491906136e8565b5050565b611240612386565b600882604051611250919061340f565b90815260200160405180910390205f9054906101000a900460ff166112aa576040517f08c379a00000000000000000000000000000000000000000000000000000000081526004016112a190613974565b60405180910390fd5b5f5b6004805490508110156114ad5761136960095f6001846112cc9190613869565b81526020019081526020015f2060010180546112e790612fe9565b80601f016020809104026020016040519081016040528092919081815260200182805461131390612fe9565b801561135e5780601f106113355761010080835404028352916020019161135e565b820191905f5260205f20905b81548152906001019060200180831161134157829003601f168201915b505050505084611cb1565b156114a05760095f60018361137e9190613869565b81526020019081526020015f206040518060a00160405290815f82015481526020016001820180546113af90612fe9565b80601f01602080910402602001604051908101604052809291908181526020018280546113db90612fe9565b80156114265780601f106113fd57610100808354040283529160200191611426565b820191905f5260205f20905b81548152906001019060200180831161140957829003601f168201915b505050505081526020016002820154815260200160038201548152602001600482015f9054906101000a900473ffffffffffffffffffffffffffffffffffffffff1673ffffffffffffffffffffffffffffffffffffffff1673ffffffffffffffffffffffffffffffffffffffff16815250509150506114bb565b80806001019150506112ac565b506114b6612386565b809150505b919050565b5f60015f8473ffffffffffffffffffffffffffffffffffffffff1673ffffffffffffffffffffffffffffffffffffffff1681526020019081526020015f205f8373ffffffffffffffffffffffffffffffffffffffff1673ffffffffffffffffffffffffffffffffffffffff1681526020019081526020015f205f9054906101000a900460ff16905092915050565b5f63f23a6e6160e01b905095945050505050565b61156a611762565b73ffffffffffffffffffffffffffffffffffffffff168573ffffffffffffffffffffffffffffffffffffffff1614806115b057506115af856115aa611762565b6114c0565b5b6115ef576040517f08c379a00000000000000000000000000000000000000000000000000000000081526004016115e690613a02565b60405180910390fd5b6115fc8585858585611cd8565b5050505050565b61160b611762565b73ffffffffffffffffffffffffffffffffffffffff16611629610ed0565b73ffffffffffffffffffffffffffffffffffffffff161461167f576040517f08c379a00000000000000000000000000000000000000000000000000000000081526004016116769061384b565b60405180910390fd5b5f73ffffffffffffffffffffffffffffffffffffffff168173ffffffffffffffffffffffffffffffffffffffff16036116ed576040517f08c379a00000000000000000000000000000000000000000000000000000000081526004016116e490613a90565b60405180910390fd5b6116f681611bee565b50565b5f7f01ffc9a7000000000000000000000000000000000000000000000000000000007bffffffffffffffffffffffffffffffffffffffffffffffffffffffff1916827bffffffffffffffffffffffffffffffffffffffffffffffffffffffff1916149050919050565b5f33905090565b81518351146117ad576040517f08c379a00000000000000000000000000000000000000000000000000000000081526004016117a490613b1e565b60405180910390fd5b5f73ffffffffffffffffffffffffffffffffffffffff168473ffffffffffffffffffffffffffffffffffffffff160361181b576040517f08c379a000000000000000000000000000000000000000000000000000000000815260040161181290613bac565b60405180910390fd5b5f611824611762565b9050611834818787878787611f49565b5f5b84518110156119ce575f858281518110611853576118526133b2565b5b602002602001015190505f858381518110611871576118706133b2565b5b602002602001015190505f805f8481526020019081526020015f205f8b73ffffffffffffffffffffffffffffffffffffffff1673ffffffffffffffffffffffffffffffffffffffff1681526020019081526020015f205490508181101561190d576040517f08c379a000000000000000000000000000000000000000000000000000000000815260040161190490613c3a565b60405180910390fd5b8181035f808581526020019081526020015f205f8c73ffffffffffffffffffffffffffffffffffffffff1673ffffffffffffffffffffffffffffffffffffffff1681526020019081526020015f2081905550815f808581526020019081526020015f205f8b73ffffffffffffffffffffffffffffffffffffffff1673ffffffffffffffffffffffffffffffffffffffff1681526020019081526020015f205f8282546119b99190613869565b92505081905550505050806001019050611836565b508473ffffffffffffffffffffffffffffffffffffffff168673ffffffffffffffffffffffffffffffffffffffff168273ffffffffffffffffffffffffffffffffffffffff167f4a39dc06d4c0dbc64b70af90fd698a233a518aa5d07e595d983b8c0526c8f7fb8787604051611a45929190613c58565b60405180910390a4611a5b818787878787611f51565b505050505050565b5f73ffffffffffffffffffffffffffffffffffffffff168473ffffffffffffffffffffffffffffffffffffffff1603611ad1576040517f08c379a0000000000000000000000000000000000000000000000000000000008152600401611ac890613cfd565b60405180910390fd5b5f611ada611762565b9050611afa815f87611aeb88612127565b611af488612127565b87611f49565b825f808681526020019081526020015f205f8773ffffffffffffffffffffffffffffffffffffffff1673ffffffffffffffffffffffffffffffffffffffff1681526020019081526020015f205f828254611b549190613869565b925050819055508473ffffffffffffffffffffffffffffffffffffffff165f73ffffffffffffffffffffffffffffffffffffffff168273ffffffffffffffffffffffffffffffffffffffff167fc3d58168c5ae7397731d063d5bbf3d657854427343f4c083240f7aacaa2d0f628787604051611bd192919061326f565b60405180910390a4611be7815f8787878761219f565b5050505050565b5f60035f9054906101000a900473ffffffffffffffffffffffffffffffffffffffff1690508160035f6101000a81548173ffffffffffffffffffffffffffffffffffffffff021916908373ffffffffffffffffffffffffffffffffffffffff1602179055508173ffffffffffffffffffffffffffffffffffffffff168173ffffffffffffffffffffffffffffffffffffffff167f8be0079c531659141344cd1fd0a4f28419497f9722a3daafe3b4186f6b6457e060405160405180910390a35050565b5f81518351148015611cd0575081805190602001208380519060200120145b905092915050565b5f73ffffffffffffffffffffffffffffffffffffffff168473ffffffffffffffffffffffffffffffffffffffff1603611d46576040517f08c379a0000000000000000000000000000000000000000000000000000000008152600401611d3d90613bac565b60405180910390fd5b5f611d4f611762565b9050611d6f818787611d6088612127565b611d6988612127565b87611f49565b5f805f8681526020019081526020015f205f8873ffffffffffffffffffffffffffffffffffffffff1673ffffffffffffffffffffffffffffffffffffffff1681526020019081526020015f2054905083811015611e01576040517f08c379a0000000000000000000000000000000000000000000000000000000008152600401611df890613c3a565b60405180910390fd5b8381035f808781526020019081526020015f205f8973ffffffffffffffffffffffffffffffffffffffff1673ffffffffffffffffffffffffffffffffffffffff1681526020019081526020015f2081905550835f808781526020019081526020015f205f8873ffffffffffffffffffffffffffffffffffffffff1673ffffffffffffffffffffffffffffffffffffffff1681526020019081526020015f205f828254611ead9190613869565b925050819055508573ffffffffffffffffffffffffffffffffffffffff168773ffffffffffffffffffffffffffffffffffffffff168373ffffffffffffffffffffffffffffffffffffffff167fc3d58168c5ae7397731d063d5bbf3d657854427343f4c083240f7aacaa2d0f628888604051611f2a92919061326f565b60405180910390a4611f4082888888888861219f565b50505050505050565b505050505050565b611f708473ffffffffffffffffffffffffffffffffffffffff16612375565b1561211f578373ffffffffffffffffffffffffffffffffffffffff1663bc197c8187878686866040518663ffffffff1660e01b8152600401611fb6959493929190613d6d565b6020604051808303815f875af1925050508015611ff157506040513d601f19601f82011682018060405250810190611fee9190613de7565b60015b61209657611ffd613e1e565b806308c379a0036120595750612011613e3d565b8061201c575061205b565b806040517f08c379a00000000000000000000000000000000000000000000000000000000081526004016120509190612619565b60405180910390fd5b505b6040517f08c379a000000000000000000000000000000000000000000000000000000000815260040161208d90613f3c565b60405180910390fd5b63bc197c8160e01b7bffffffffffffffffffffffffffffffffffffffffffffffffffffffff1916817bffffffffffffffffffffffffffffffffffffffffffffffffffffffff19161461211d576040517f08c379a000000000000000000000000000000000000000000000000000000000815260040161211490613fca565b60405180910390fd5b505b505050505050565b60605f600167ffffffffffffffff8111156121455761214461267b565b5b6040519080825280602002602001820160405280156121735781602001602082028036833780820191505090505b50905082815f8151811061218a576121896133b2565b5b60200260200101818152505080915050919050565b6121be8473ffffffffffffffffffffffffffffffffffffffff16612375565b1561236d578373ffffffffffffffffffffffffffffffffffffffff1663f23a6e6187878686866040518663ffffffff1660e01b8152600401612204959493929190613fe8565b6020604051808303815f875af192505050801561223f57506040513d601f19601f8201168201806040525081019061223c9190613de7565b60015b6122e45761224b613e1e565b806308c379a0036122a7575061225f613e3d565b8061226a57506122a9565b806040517f08c379a000000000000000000000000000000000000000000000000000000000815260040161229e9190612619565b60405180910390fd5b505b6040517f08c379a00000000000000000000000000000000000000000000000000000000081526004016122db90613f3c565b60405180910390fd5b63f23a6e6160e01b7bffffffffffffffffffffffffffffffffffffffffffffffffffffffff1916817bffffffffffffffffffffffffffffffffffffffffffffffffffffffff19161461236b576040517f08c379a000000000000000000000000000000000000000000000000000000000815260040161236290613fca565b60405180910390fd5b505b505050505050565b5f80823b90505f8111915050919050565b6040518060a001604052805f8152602001606081526020015f81526020015f81526020015f73ffffffffffffffffffffffffffffffffffffffff1681525090565b5f604051905090565b5f80fd5b5f80fd5b5f73ffffffffffffffffffffffffffffffffffffffff82169050919050565b5f612401826123d8565b9050919050565b612411816123f7565b811461241b575f80fd5b50565b5f8135905061242c81612408565b92915050565b5f819050919050565b61244481612432565b811461244e575f80fd5b50565b5f8135905061245f8161243b565b92915050565b5f806040838503121561247b5761247a6123d0565b5b5f6124888582860161241e565b925050602061249985828601612451565b9150509250929050565b6124ac81612432565b82525050565b5f6020820190506124c55f8301846124a3565b92915050565b5f7fffffffff0000000000000000000000000000000000000000000000000000000082169050919050565b6124ff816124cb565b8114612509575f80fd5b50565b5f8135905061251a816124f6565b92915050565b5f60208284031215612535576125346123d0565b5b5f6125428482850161250c565b91505092915050565b5f8115159050919050565b61255f8161254b565b82525050565b5f6020820190506125785f830184612556565b92915050565b5f60208284031215612593576125926123d0565b5b5f6125a084828501612451565b91505092915050565b5f81519050919050565b5f82825260208201905092915050565b8281835e5f83830152505050565b5f601f19601f8301169050919050565b5f6125eb826125a9565b6125f581856125b3565b93506126058185602086016125c3565b61260e816125d1565b840191505092915050565b5f6020820190508181035f83015261263181846125e1565b905092915050565b5f806040838503121561264f5761264e6123d0565b5b5f61265c85828601612451565b925050602061266d85828601612451565b9150509250929050565b5f80fd5b7f4e487b71000000000000000000000000000000000000000000000000000000005f52604160045260245ffd5b6126b1826125d1565b810181811067ffffffffffffffff821117156126d0576126cf61267b565b5b80604052505050565b5f6126e26123c7565b90506126ee82826126a8565b919050565b5f67ffffffffffffffff82111561270d5761270c61267b565b5b602082029050602081019050919050565b5f80fd5b5f61273461272f846126f3565b6126d9565b905080838252602082019050602084028301858111156127575761275661271e565b5b835b81811015612780578061276c8882612451565b845260208401935050602081019050612759565b5050509392505050565b5f82601f83011261279e5761279d612677565b5b81356127ae848260208601612722565b91505092915050565b5f80fd5b5f67ffffffffffffffff8211156127d5576127d461267b565b5b6127de826125d1565b9050602081019050919050565b828183375f83830152505050565b5f61280b612806846127bb565b6126d9565b905082815260208101848484011115612827576128266127b7565b5b6128328482856127eb565b509392505050565b5f82601f83011261284e5761284d612677565b5b813561285e8482602086016127f9565b91505092915050565b5f805f805f60a086880312156128805761287f6123d0565b5b5f61288d8882890161241e565b955050602061289e8882890161241e565b945050604086013567ffffffffffffffff8111156128bf576128be6123d4565b5b6128cb8882890161278a565b935050606086013567ffffffffffffffff8111156128ec576128eb6123d4565b5b6128f88882890161278a565b925050608086013567ffffffffffffffff811115612919576129186123d4565b5b6129258882890161283a565b9150509295509295909350565b5f67ffffffffffffffff82111561294c5761294b61267b565b5b602082029050602081019050919050565b5f61296f61296a84612932565b6126d9565b905080838252602082019050602084028301858111156129925761299161271e565b5b835b818110156129bb57806129a7888261241e565b845260208401935050602081019050612994565b5050509392505050565b5f82601f8301126129d9576129d8612677565b5b81356129e984826020860161295d565b91505092915050565b5f8060408385031215612a0857612a076123d0565b5b5f83013567ffffffffffffffff811115612a2557612a246123d4565b5b612a31858286016129c5565b925050602083013567ffffffffffffffff811115612a5257612a516123d4565b5b612a5e8582860161278a565b9150509250929050565b5f81519050919050565b5f82825260208201905092915050565b5f819050602082019050919050565b612a9a81612432565b82525050565b5f612aab8383612a91565b60208301905092915050565b5f602082019050919050565b5f612acd82612a68565b612ad78185612a72565b9350612ae283612a82565b805f5b83811015612b12578151612af98882612aa0565b9750612b0483612ab7565b925050600181019050612ae5565b5085935050505092915050565b5f6020820190508181035f830152612b378184612ac3565b905092915050565b5f67ffffffffffffffff821115612b5957612b5861267b565b5b612b62826125d1565b9050602081019050919050565b5f612b81612b7c84612b3f565b6126d9565b905082815260208101848484011115612b9d57612b9c6127b7565b5b612ba88482856127eb565b509392505050565b5f82601f830112612bc457612bc3612677565b5b8135612bd4848260208601612b6f565b91505092915050565b5f805f60608486031215612bf457612bf36123d0565b5b5f84013567ffffffffffffffff811115612c1157612c106123d4565b5b612c1d86828701612bb0565b9350506020612c2e86828701612451565b9250506040612c3f86828701612451565b9150509250925092565b612c52816123f7565b82525050565b5f602082019050612c6b5f830184612c49565b92915050565b5f82825260208201905092915050565b5f612c8b826125a9565b612c958185612c71565b9350612ca58185602086016125c3565b612cae816125d1565b840191505092915050565b612cc2816123f7565b82525050565b5f60a083015f830151612cdd5f860182612a91565b5060208301518482036020860152612cf58282612c81565b9150506040830151612d0a6040860182612a91565b506060830151612d1d6060860182612a91565b506080830151612d306080860182612cb9565b508091505092915050565b5f6020820190508181035f830152612d538184612cc8565b905092915050565b612d648161254b565b8114612d6e575f80fd5b50565b5f81359050612d7f81612d5b565b92915050565b5f8060408385031215612d9b57612d9a6123d0565b5b5f612da88582860161241e565b9250506020612db985828601612d71565b9150509250929050565b5f60208284031215612dd857612dd76123d0565b5b5f82013567ffffffffffffffff811115612df557612df46123d4565b5b612e0184828501612bb0565b91505092915050565b5f8060408385031215612e2057612e1f6123d0565b5b5f612e2d8582860161241e565b9250506020612e3e8582860161241e565b9150509250929050565b5f805f805f60a08688031215612e6157612e606123d0565b5b5f612e6e8882890161241e565b9550506020612e7f8882890161241e565b9450506040612e9088828901612451565b9350506060612ea188828901612451565b925050608086013567ffffffffffffffff811115612ec257612ec16123d4565b5b612ece8882890161283a565b9150509295509295909350565b612ee4816124cb565b82525050565b5f602082019050612efd5f830184612edb565b92915050565b5f60208284031215612f1857612f176123d0565b5b5f612f258482850161241e565b91505092915050565b7f455243313135353a2062616c616e636520717565727920666f7220746865207a5f8201527f65726f2061646472657373000000000000000000000000000000000000000000602082015250565b5f612f88602b836125b3565b9150612f9382612f2e565b604082019050919050565b5f6020820190508181035f830152612fb581612f7c565b9050919050565b7f4e487b71000000000000000000000000000000000000000000000000000000005f52602260045260245ffd5b5f600282049050600182168061300057607f821691505b60208210810361301357613012612fbc565b5b50919050565b5f81905092915050565b5f819050815f5260205f209050919050565b5f815461304181612fe9565b61304b8186613019565b9450600182165f8114613065576001811461307a576130ac565b60ff19831686528115158202860193506130ac565b61308385613023565b5f5b838110156130a457815481890152600182019150602081019050613085565b838801955050505b50505092915050565b5f6130c08285613035565b91506130cc8284613035565b91508190509392505050565b7f4e487b71000000000000000000000000000000000000000000000000000000005f52601160045260245ffd5b5f61310f82612432565b915061311a83612432565b925082820261312881612432565b9150828204841483151761313f5761313e6130d8565b5b5092915050565b7f6b6f206475206e667400000000000000000000000000000000000000000000005f82015250565b5f61317a6009836125b3565b915061318582613146565b602082019050919050565b5f6020820190508181035f8301526131a78161316e565b9050919050565b7f4e6565647320746f2062652067726561746572206f7220657175616c20746f205f8201527f7468652070726963652e00000000000000000000000000000000000000000000602082015250565b5f613208602a836125b3565b9150613213826131ae565b604082019050919050565b5f6020820190508181035f830152613235816131fc565b9050919050565b5f61324682612432565b915061325183612432565b9250828203905081811115613269576132686130d8565b5b92915050565b5f6040820190506132825f8301856124a3565b61328f60208301846124a3565b9392505050565b7f455243313135353a207472616e736665722063616c6c6572206973206e6f74205f8201527f6f776e6572206e6f7220617070726f7665640000000000000000000000000000602082015250565b5f6132f06032836125b3565b91506132fb82613296565b604082019050919050565b5f6020820190508181035f83015261331d816132e4565b9050919050565b7f455243313135353a206163636f756e747320616e6420696473206c656e6774685f8201527f206d69736d617463680000000000000000000000000000000000000000000000602082015250565b5f61337e6029836125b3565b915061338982613324565b604082019050919050565b5f6020820190508181035f8301526133ab81613372565b9050919050565b7f4e487b71000000000000000000000000000000000000000000000000000000005f52603260045260245ffd5b5f6133e9826125a9565b6133f38185613019565b93506134038185602086016125c3565b80840191505092915050565b5f61341a82846133df565b915081905092915050565b7f54686520746f6b656e205552492073686f756c6420626520756e6971756500005f82015250565b5f613459601e836125b3565b915061346482613425565b602082019050919050565b5f6020820190508181035f8301526134868161344d565b9050919050565b7f5072696365206d75737420626520706f736974697665000000000000000000005f82015250565b5f6134c16016836125b3565b91506134cc8261348d565b602082019050919050565b5f6020820190508181035f8301526134ee816134b5565b9050919050565b7f596f75722072656d61696e206d6f6e6579206e6f7420616c6c6f7700000000005f82015250565b5f613529601b836125b3565b9150613534826134f5565b602082019050919050565b5f6020820190508181035f8301526135568161351d565b9050919050565b5f6020601f8301049050919050565b5f82821b905092915050565b5f600883026135a77fffffffffffffffffffffffffffffffffffffffffffffffffffffffffffffffff8261356c565b6135b1868361356c565b95508019841693508086168417925050509392505050565b5f819050919050565b5f6135ec6135e76135e284612432565b6135c9565b612432565b9050919050565b5f819050919050565b613605836135d2565b613619613611826135f3565b848454613578565b825550505050565b5f90565b61362d613621565b6136388184846135fc565b505050565b5b8181101561365b576136505f82613625565b60018101905061363e565b5050565b601f8211156136a05761367181613023565b61367a8461355d565b81016020851015613689578190505b61369d6136958561355d565b83018261363d565b50505b505050565b5f82821c905092915050565b5f6136c05f19846008026136a5565b1980831691505092915050565b5f6136d883836136b1565b9150826002028217905092915050565b6136f1826125a9565b67ffffffffffffffff81111561370a5761370961267b565b5b6137148254612fe9565b61371f82828561365f565b5f60209050601f831160018114613750575f841561373e578287015190505b61374885826136cd565b8655506137af565b601f19841661375e86613023565b5f5b8281101561378557848901518255600182019150602085019450602081019050613760565b868310156137a2578489015161379e601f8916826136b1565b8355505b6001600288020188555050505b505050505050565b5f6080820190508181035f8301526137cf81876125e1565b90506137de60208301866124a3565b6137eb60408301856124a3565b6137f86060830184612c49565b95945050505050565b7f4f776e61626c653a2063616c6c6572206973206e6f7420746865206f776e65725f82015250565b5f6138356020836125b3565b915061384082613801565b602082019050919050565b5f6020820190508181035f83015261386281613829565b9050919050565b5f61387382612432565b915061387e83612432565b9250828201905080821115613896576138956130d8565b5b92915050565b7f455243313135353a2073657474696e6720617070726f76616c207374617475735f8201527f20666f722073656c660000000000000000000000000000000000000000000000602082015250565b5f6138f66029836125b3565b91506139018261389c565b604082019050919050565b5f6020820190508181035f830152613923816138ea565b9050919050565b7f54686520746f6b656e205552492073686f756c64206265206d696e74000000005f82015250565b5f61395e601c836125b3565b91506139698261392a565b602082019050919050565b5f6020820190508181035f83015261398b81613952565b9050919050565b7f455243313135353a2063616c6c6572206973206e6f74206f776e6572206e6f725f8201527f20617070726f7665640000000000000000000000000000000000000000000000602082015250565b5f6139ec6029836125b3565b91506139f782613992565b604082019050919050565b5f6020820190508181035f830152613a19816139e0565b9050919050565b7f4f776e61626c653a206e6577206f776e657220697320746865207a65726f20615f8201527f6464726573730000000000000000000000000000000000000000000000000000602082015250565b5f613a7a6026836125b3565b9150613a8582613a20565b604082019050919050565b5f6020820190508181035f830152613aa781613a6e565b9050919050565b7f455243313135353a2069647320616e6420616d6f756e7473206c656e677468205f8201527f6d69736d61746368000000000000000000000000000000000000000000000000602082015250565b5f613b086028836125b3565b9150613b1382613aae565b604082019050919050565b5f6020820190508181035f830152613b3581613afc565b9050919050565b7f455243313135353a207472616e7366657220746f20746865207a65726f2061645f8201527f6472657373000000000000000000000000000000000000000000000000000000602082015250565b5f613b966025836125b3565b9150613ba182613b3c565b604082019050919050565b5f6020820190508181035f830152613bc381613b8a565b9050919050565b7f455243313135353a20696e73756666696369656e742062616c616e636520666f5f8201527f72207472616e7366657200000000000000000000000000000000000000000000602082015250565b5f613c24602a836125b3565b9150613c2f82613bca565b604082019050919050565b5f6020820190508181035f830152613c5181613c18565b9050919050565b5f6040820190508181035f830152613c708185612ac3565b90508181036020830152613c848184612ac3565b90509392505050565b7f455243313135353a206d696e7420746f20746865207a65726f206164647265735f8201527f7300000000000000000000000000000000000000000000000000000000000000602082015250565b5f613ce76021836125b3565b9150613cf282613c8d565b604082019050919050565b5f6020820190508181035f830152613d1481613cdb565b9050919050565b5f81519050919050565b5f82825260208201905092915050565b5f613d3f82613d1b565b613d498185613d25565b9350613d598185602086016125c3565b613d62816125d1565b840191505092915050565b5f60a082019050613d805f830188612c49565b613d8d6020830187612c49565b8181036040830152613d9f8186612ac3565b90508181036060830152613db38185612ac3565b90508181036080830152613dc78184613d35565b90509695505050505050565b5f81519050613de1816124f6565b92915050565b5f60208284031215613dfc57613dfb6123d0565b5b5f613e0984828501613dd3565b91505092915050565b5f8160e01c9050919050565b5f60033d1115613e3a5760045f803e613e375f51613e12565b90505b90565b5f60443d10613ec957613e4e6123c7565b60043d036004823e80513d602482011167ffffffffffffffff82111715613e76575050613ec9565b808201805167ffffffffffffffff811115613e945750505050613ec9565b80602083010160043d038501811115613eb1575050505050613ec9565b613ec0826020018501866126a8565b82955050505050505b90565b7f455243313135353a207472616e7366657220746f206e6f6e20455243313135355f8201527f526563656976657220696d706c656d656e746572000000000000000000000000602082015250565b5f613f266034836125b3565b9150613f3182613ecc565b604082019050919050565b5f6020820190508181035f830152613f5381613f1a565b9050919050565b7f455243313135353a204552433131353552656365697665722072656a656374655f8201527f6420746f6b656e73000000000000000000000000000000000000000000000000602082015250565b5f613fb46028836125b3565b9150613fbf82613f5a565b604082019050919050565b5f6020820190508181035f830152613fe181613fa8565b9050919050565b5f60a082019050613ffb5f830188612c49565b6140086020830187612c49565b61401560408301866124a3565b61402260608301856124a3565b81810360808301526140348184613d35565b9050969550505050505056fea26469706673582212201aaac0bdcd2bb231a2c01b010ada498e75e73469f0b3302b2ce493f97bd1347064736f6c634300081a0033",
		"opcodes": "PUSH1 0x80 PUSH1 0x40 MSTORE PUSH1 0x4 CALLDATASIZE LT PUSH2 0x11D JUMPI PUSH0 CALLDATALOAD PUSH1 0xE0 SHR DUP1 PUSH4 0x8DA5CB5B GT PUSH2 0x9F JUMPI DUP1 PUSH4 0xDAC187C7 GT PUSH2 0x63 JUMPI DUP1 PUSH4 0xDAC187C7 EQ PUSH2 0x3D3 JUMPI DUP1 PUSH4 0xE985E9C5 EQ PUSH2 0x40F JUMPI DUP1 PUSH4 0xF23A6E61 EQ PUSH2 0x44B JUMPI DUP1 PUSH4 0xF242432A EQ PUSH2 0x487 JUMPI DUP1 PUSH4 0xF2FDE38B EQ PUSH2 0x4AF JUMPI PUSH2 0x11D JUMP JUMPDEST DUP1 PUSH4 0x8DA5CB5B EQ PUSH2 0x2F3 JUMPI DUP1 PUSH4 0x9EB47667 EQ PUSH2 0x31D JUMPI DUP1 PUSH4 0xA22CB465 EQ PUSH2 0x359 JUMPI DUP1 PUSH4 0xB8FE6ABE EQ PUSH2 0x381 JUMPI DUP1 PUSH4 0xD19AC77A EQ PUSH2 0x3AB JUMPI PUSH2 0x11D JUMP JUMPDEST DUP1 PUSH4 0x4E1273F4 GT PUSH2 0xE6 JUMPI DUP1 PUSH4 0x4E1273F4 EQ PUSH2 0x219 JUMPI DUP1 PUSH4 0x4F64B2BE EQ PUSH2 0x255 JUMPI DUP1 PUSH4 0x6E1F94E1 EQ PUSH2 0x291 JUMPI DUP1 PUSH4 0x715018A6 EQ PUSH2 0x2AD JUMPI DUP1 PUSH4 0x80F0A63A EQ PUSH2 0x2C3 JUMPI PUSH2 0x11D JUMP JUMPDEST DUP1 PUSH3 0xFDD58E EQ PUSH2 0x121 JUMPI DUP1 PUSH4 0x1FFC9A7 EQ PUSH2 0x15D JUMPI DUP1 PUSH4 0xE89341C EQ PUSH2 0x199 JUMPI DUP1 PUSH4 0x1D85BF03 EQ PUSH2 0x1D5 JUMPI DUP1 PUSH4 0x2EB2C2D6 EQ PUSH2 0x1F1 JUMPI JUMPDEST PUSH0 DUP1 REVERT JUMPDEST CALLVALUE DUP1 ISZERO PUSH2 0x12C JUMPI PUSH0 DUP1 REVERT JUMPDEST POP PUSH2 0x147 PUSH1 0x4 DUP1 CALLDATASIZE SUB DUP2 ADD SWAP1 PUSH2 0x142 SWAP2 SWAP1 PUSH2 0x2465 JUMP JUMPDEST PUSH2 0x4D7 JUMP JUMPDEST PUSH1 0x40 MLOAD PUSH2 0x154 SWAP2 SWAP1 PUSH2 0x24B2 JUMP JUMPDEST PUSH1 0x40 MLOAD DUP1 SWAP2 SUB SWAP1 RETURN JUMPDEST CALLVALUE DUP1 ISZERO PUSH2 0x168 JUMPI PUSH0 DUP1 REVERT JUMPDEST POP PUSH2 0x183 PUSH1 0x4 DUP1 CALLDATASIZE SUB DUP2 ADD SWAP1 PUSH2 0x17E SWAP2 SWAP1 PUSH2 0x2520 JUMP JUMPDEST PUSH2 0x59A JUMP JUMPDEST PUSH1 0x40 MLOAD PUSH2 0x190 SWAP2 SWAP1 PUSH2 0x2565 JUMP JUMPDEST PUSH1 0x40 MLOAD DUP1 SWAP2 SUB SWAP1 RETURN JUMPDEST CALLVALUE DUP1 ISZERO PUSH2 0x1A4 JUMPI PUSH0 DUP1 REVERT JUMPDEST POP PUSH2 0x1BF PUSH1 0x4 DUP1 CALLDATASIZE SUB DUP2 ADD SWAP1 PUSH2 0x1BA SWAP2 SWAP1 PUSH2 0x257E JUMP JUMPDEST PUSH2 0x67B JUMP JUMPDEST PUSH1 0x40 MLOAD PUSH2 0x1CC SWAP2 SWAP1 PUSH2 0x2619 JUMP JUMPDEST PUSH1 0x40 MLOAD DUP1 SWAP2 SUB SWAP1 RETURN JUMPDEST PUSH2 0x1EF PUSH1 0x4 DUP1 CALLDATASIZE SUB DUP2 ADD SWAP1 PUSH2 0x1EA SWAP2 SWAP1 PUSH2 0x2639 JUMP JUMPDEST PUSH2 0x6BA JUMP JUMPDEST STOP JUMPDEST CALLVALUE DUP1 ISZERO PUSH2 0x1FC JUMPI PUSH0 DUP1 REVERT JUMPDEST POP PUSH2 0x217 PUSH1 0x4 DUP1 CALLDATASIZE SUB DUP2 ADD SWAP1 PUSH2 0x212 SWAP2 SWAP1 PUSH2 0x2867 JUMP JUMPDEST PUSH2 0x8D5 JUMP JUMPDEST STOP JUMPDEST CALLVALUE DUP1 ISZERO PUSH2 0x224 JUMPI PUSH0 DUP1 REVERT JUMPDEST POP PUSH2 0x23F PUSH1 0x4 DUP1 CALLDATASIZE SUB DUP2 ADD SWAP1 PUSH2 0x23A SWAP2 SWAP1 PUSH2 0x29F2 JUMP JUMPDEST PUSH2 0x976 JUMP JUMPDEST PUSH1 0x40 MLOAD PUSH2 0x24C SWAP2 SWAP1 PUSH2 0x2B1F JUMP JUMPDEST PUSH1 0x40 MLOAD DUP1 SWAP2 SUB SWAP1 RETURN JUMPDEST CALLVALUE DUP1 ISZERO PUSH2 0x260 JUMPI PUSH0 DUP1 REVERT JUMPDEST POP PUSH2 0x27B PUSH1 0x4 DUP1 CALLDATASIZE SUB DUP2 ADD SWAP1 PUSH2 0x276 SWAP2 SWAP1 PUSH2 0x257E JUMP JUMPDEST PUSH2 0xA87 JUMP JUMPDEST PUSH1 0x40 MLOAD PUSH2 0x288 SWAP2 SWAP1 PUSH2 0x2619 JUMP JUMPDEST PUSH1 0x40 MLOAD DUP1 SWAP2 SUB SWAP1 RETURN JUMPDEST PUSH2 0x2AB PUSH1 0x4 DUP1 CALLDATASIZE SUB DUP2 ADD SWAP1 PUSH2 0x2A6 SWAP2 SWAP1 PUSH2 0x2BDD JUMP JUMPDEST PUSH2 0xB2D JUMP JUMPDEST STOP JUMPDEST CALLVALUE DUP1 ISZERO PUSH2 0x2B8 JUMPI PUSH0 DUP1 REVERT JUMPDEST POP PUSH2 0x2C1 PUSH2 0xDFA JUMP JUMPDEST STOP JUMPDEST PUSH2 0x2DD PUSH1 0x4 DUP1 CALLDATASIZE SUB DUP2 ADD SWAP1 PUSH2 0x2D8 SWAP2 SWAP1 PUSH2 0x2639 JUMP JUMPDEST PUSH2 0xE81 JUMP JUMPDEST PUSH1 0x40 MLOAD PUSH2 0x2EA SWAP2 SWAP1 PUSH2 0x24B2 JUMP JUMPDEST PUSH1 0x40 MLOAD DUP1 SWAP2 SUB SWAP1 RETURN JUMPDEST CALLVALUE DUP1 ISZERO PUSH2 0x2FE JUMPI PUSH0 DUP1 REVERT JUMPDEST POP PUSH2 0x307 PUSH2 0xED0 JUMP JUMPDEST PUSH1 0x40 MLOAD PUSH2 0x314 SWAP2 SWAP1 PUSH2 0x2C58 JUMP JUMPDEST PUSH1 0x40 MLOAD DUP1 SWAP2 SUB SWAP1 RETURN JUMPDEST CALLVALUE DUP1 ISZERO PUSH2 0x328 JUMPI PUSH0 DUP1 REVERT JUMPDEST POP PUSH2 0x343 PUSH1 0x4 DUP1 CALLDATASIZE SUB DUP2 ADD SWAP1 PUSH2 0x33E SWAP2 SWAP1 PUSH2 0x257E JUMP JUMPDEST PUSH2 0xEF8 JUMP JUMPDEST PUSH1 0x40 MLOAD PUSH2 0x350 SWAP2 SWAP1 PUSH2 0x2D3B JUMP JUMPDEST PUSH1 0x40 MLOAD DUP1 SWAP2 SUB SWAP1 RETURN JUMPDEST CALLVALUE DUP1 ISZERO PUSH2 0x364 JUMPI PUSH0 DUP1 REVERT JUMPDEST POP PUSH2 0x37F PUSH1 0x4 DUP1 CALLDATASIZE SUB DUP2 ADD SWAP1 PUSH2 0x37A SWAP2 SWAP1 PUSH2 0x2D85 JUMP JUMPDEST PUSH2 0x1025 JUMP JUMPDEST STOP JUMPDEST CALLVALUE DUP1 ISZERO PUSH2 0x38C JUMPI PUSH0 DUP1 REVERT JUMPDEST POP PUSH2 0x395 PUSH2 0x11A0 JUMP JUMPDEST PUSH1 0x40 MLOAD PUSH2 0x3A2 SWAP2 SWAP1 PUSH2 0x24B2 JUMP JUMPDEST PUSH1 0x40 MLOAD DUP1 SWAP2 SUB SWAP1 RETURN JUMPDEST CALLVALUE DUP1 ISZERO PUSH2 0x3B6 JUMPI PUSH0 DUP1 REVERT JUMPDEST POP PUSH2 0x3D1 PUSH1 0x4 DUP1 CALLDATASIZE SUB DUP2 ADD SWAP1 PUSH2 0x3CC SWAP2 SWAP1 PUSH2 0x2DC3 JUMP JUMPDEST PUSH2 0x11A9 JUMP JUMPDEST STOP JUMPDEST CALLVALUE DUP1 ISZERO PUSH2 0x3DE JUMPI PUSH0 DUP1 REVERT JUMPDEST POP PUSH2 0x3F9 PUSH1 0x4 DUP1 CALLDATASIZE SUB DUP2 ADD SWAP1 PUSH2 0x3F4 SWAP2 SWAP1 PUSH2 0x2DC3 JUMP JUMPDEST PUSH2 0x1238 JUMP JUMPDEST PUSH1 0x40 MLOAD PUSH2 0x406 SWAP2 SWAP1 PUSH2 0x2D3B JUMP JUMPDEST PUSH1 0x40 MLOAD DUP1 SWAP2 SUB SWAP1 RETURN JUMPDEST CALLVALUE DUP1 ISZERO PUSH2 0x41A JUMPI PUSH0 DUP1 REVERT JUMPDEST POP PUSH2 0x435 PUSH1 0x4 DUP1 CALLDATASIZE SUB DUP2 ADD SWAP1 PUSH2 0x430 SWAP2 SWAP1 PUSH2 0x2E0A JUMP JUMPDEST PUSH2 0x14C0 JUMP JUMPDEST PUSH1 0x40 MLOAD PUSH2 0x442 SWAP2 SWAP1 PUSH2 0x2565 JUMP JUMPDEST PUSH1 0x40 MLOAD DUP1 SWAP2 SUB SWAP1 RETURN JUMPDEST CALLVALUE DUP1 ISZERO PUSH2 0x456 JUMPI PUSH0 DUP1 REVERT JUMPDEST POP PUSH2 0x471 PUSH1 0x4 DUP1 CALLDATASIZE SUB DUP2 ADD SWAP1 PUSH2 0x46C SWAP2 SWAP1 PUSH2 0x2E48 JUMP JUMPDEST PUSH2 0x154E JUMP JUMPDEST PUSH1 0x40 MLOAD PUSH2 0x47E SWAP2 SWAP1 PUSH2 0x2EEA JUMP JUMPDEST PUSH1 0x40 MLOAD DUP1 SWAP2 SUB SWAP1 RETURN JUMPDEST CALLVALUE DUP1 ISZERO PUSH2 0x492 JUMPI PUSH0 DUP1 REVERT JUMPDEST POP PUSH2 0x4AD PUSH1 0x4 DUP1 CALLDATASIZE SUB DUP2 ADD SWAP1 PUSH2 0x4A8 SWAP2 SWAP1 PUSH2 0x2E48 JUMP JUMPDEST PUSH2 0x1562 JUMP JUMPDEST STOP JUMPDEST CALLVALUE DUP1 ISZERO PUSH2 0x4BA JUMPI PUSH0 DUP1 REVERT JUMPDEST POP PUSH2 0x4D5 PUSH1 0x4 DUP1 CALLDATASIZE SUB DUP2 ADD SWAP1 PUSH2 0x4D0 SWAP2 SWAP1 PUSH2 0x2F03 JUMP JUMPDEST PUSH2 0x1603 JUMP JUMPDEST STOP JUMPDEST PUSH0 DUP1 PUSH20 0xFFFFFFFFFFFFFFFFFFFFFFFFFFFFFFFFFFFFFFFF AND DUP4 PUSH20 0xFFFFFFFFFFFFFFFFFFFFFFFFFFFFFFFFFFFFFFFF AND SUB PUSH2 0x546 JUMPI PUSH1 0x40 MLOAD PUSH32 0x8C379A000000000000000000000000000000000000000000000000000000000 DUP2 MSTORE PUSH1 0x4 ADD PUSH2 0x53D SWAP1 PUSH2 0x2F9E JUMP JUMPDEST PUSH1 0x40 MLOAD DUP1 SWAP2 SUB SWAP1 REVERT JUMPDEST PUSH0 DUP1 DUP4 DUP2 MSTORE PUSH1 0x20 ADD SWAP1 DUP2 MSTORE PUSH1 0x20 ADD PUSH0 KECCAK256 PUSH0 DUP5 PUSH20 0xFFFFFFFFFFFFFFFFFFFFFFFFFFFFFFFFFFFFFFFF AND PUSH20 0xFFFFFFFFFFFFFFFFFFFFFFFFFFFFFFFFFFFFFFFF AND DUP2 MSTORE PUSH1 0x20 ADD SWAP1 DUP2 MSTORE PUSH1 0x20 ADD PUSH0 KECCAK256 SLOAD SWAP1 POP SWAP3 SWAP2 POP POP JUMP JUMPDEST PUSH0 PUSH32 0xD9B67A2600000000000000000000000000000000000000000000000000000000 PUSH28 0xFFFFFFFFFFFFFFFFFFFFFFFFFFFFFFFFFFFFFFFFFFFFFFFFFFFFFFFF NOT AND DUP3 PUSH28 0xFFFFFFFFFFFFFFFFFFFFFFFFFFFFFFFFFFFFFFFFFFFFFFFFFFFFFFFF NOT AND EQ DUP1 PUSH2 0x664 JUMPI POP PUSH32 0xE89341C00000000000000000000000000000000000000000000000000000000 PUSH28 0xFFFFFFFFFFFFFFFFFFFFFFFFFFFFFFFFFFFFFFFFFFFFFFFFFFFFFFFF NOT AND DUP3 PUSH28 0xFFFFFFFFFFFFFFFFFFFFFFFFFFFFFFFFFFFFFFFFFFFFFFFFFFFFFFFF NOT AND EQ JUMPDEST DUP1 PUSH2 0x674 JUMPI POP PUSH2 0x673 DUP3 PUSH2 0x16F9 JUMP JUMPDEST JUMPDEST SWAP1 POP SWAP2 SWAP1 POP JUMP JUMPDEST PUSH1 0x60 PUSH1 0x5 PUSH1 0x9 PUSH0 DUP5 DUP2 MSTORE PUSH1 0x20 ADD SWAP1 DUP2 MSTORE PUSH1 0x20 ADD PUSH0 KECCAK256 PUSH1 0x1 ADD PUSH1 0x40 MLOAD PUSH1 0x20 ADD PUSH2 0x6A4 SWAP3 SWAP2 SWAP1 PUSH2 0x30B5 JUMP JUMPDEST PUSH1 0x40 MLOAD PUSH1 0x20 DUP2 DUP4 SUB SUB DUP2 MSTORE SWAP1 PUSH1 0x40 MSTORE SWAP1 POP SWAP2 SWAP1 POP JUMP JUMPDEST PUSH0 PUSH1 0x9 PUSH0 DUP5 DUP2 MSTORE PUSH1 0x20 ADD SWAP1 DUP2 MSTORE PUSH1 0x20 ADD PUSH0 KECCAK256 PUSH1 0x3 ADD SLOAD SWAP1 POP PUSH0 DUP3 DUP3 PUSH2 0x6DF SWAP2 SWAP1 PUSH2 0x3105 JUMP JUMPDEST SWAP1 POP DUP3 PUSH1 0x9 PUSH0 DUP7 DUP2 MSTORE PUSH1 0x20 ADD SWAP1 DUP2 MSTORE PUSH1 0x20 ADD PUSH0 KECCAK256 PUSH1 0x2 ADD SLOAD LT ISZERO PUSH2 0x738 JUMPI PUSH1 0x40 MLOAD PUSH32 0x8C379A000000000000000000000000000000000000000000000000000000000 DUP2 MSTORE PUSH1 0x4 ADD PUSH2 0x72F SWAP1 PUSH2 0x3190 JUMP JUMPDEST PUSH1 0x40 MLOAD DUP1 SWAP2 SUB SWAP1 REVERT JUMPDEST DUP1 CALLVALUE LT ISZERO PUSH2 0x77B JUMPI PUSH1 0x40 MLOAD PUSH32 0x8C379A000000000000000000000000000000000000000000000000000000000 DUP2 MSTORE PUSH1 0x4 ADD PUSH2 0x772 SWAP1 PUSH2 0x321E JUMP JUMPDEST PUSH1 0x40 MLOAD DUP1 SWAP2 SUB SWAP1 REVERT JUMPDEST PUSH2 0x7C9 CALLER PUSH1 0x9 PUSH0 DUP8 DUP2 MSTORE PUSH1 0x20 ADD SWAP1 DUP2 MSTORE PUSH1 0x20 ADD PUSH0 KECCAK256 PUSH1 0x4 ADD PUSH0 SWAP1 SLOAD SWAP1 PUSH2 0x100 EXP SWAP1 DIV PUSH20 0xFFFFFFFFFFFFFFFFFFFFFFFFFFFFFFFFFFFFFFFF AND PUSH0 DUP5 PUSH1 0x40 MLOAD DUP1 PUSH1 0x20 ADD PUSH1 0x40 MSTORE DUP1 PUSH0 DUP2 MSTORE POP PUSH2 0x1562 JUMP JUMPDEST PUSH2 0x7E6 CALLER ADDRESS PUSH0 PUSH1 0x7 SLOAD PUSH1 0x40 MLOAD DUP1 PUSH1 0x20 ADD PUSH1 0x40 MSTORE DUP1 PUSH0 DUP2 MSTORE POP PUSH2 0x1562 JUMP JUMPDEST DUP3 PUSH1 0x9 PUSH0 DUP7 DUP2 MSTORE PUSH1 0x20 ADD SWAP1 DUP2 MSTORE PUSH1 0x20 ADD PUSH0 KECCAK256 PUSH1 0x2 ADD PUSH0 DUP3 DUP3 SLOAD PUSH2 0x809 SWAP2 SWAP1 PUSH2 0x323C JUMP JUMPDEST SWAP3 POP POP DUP2 SWAP1 SSTORE POP PUSH2 0x82B ADDRESS CALLER DUP7 DUP7 PUSH1 0x40 MLOAD DUP1 PUSH1 0x20 ADD PUSH1 0x40 MSTORE DUP1 PUSH0 DUP2 MSTORE POP PUSH2 0x154E JUMP JUMPDEST POP PUSH2 0x895 ADDRESS CALLER PUSH1 0x9 PUSH0 DUP9 DUP2 MSTORE PUSH1 0x20 ADD SWAP1 DUP2 MSTORE PUSH1 0x20 ADD PUSH0 KECCAK256 PUSH0 ADD SLOAD PUSH1 0x9 PUSH0 DUP10 DUP2 MSTORE PUSH1 0x20 ADD SWAP1 DUP2 MSTORE PUSH1 0x20 ADD PUSH0 KECCAK256 PUSH1 0x2 ADD SLOAD PUSH1 0x40 MLOAD DUP1 PUSH1 0x40 ADD PUSH1 0x40 MSTORE DUP1 PUSH1 0x3 DUP2 MSTORE PUSH1 0x20 ADD PUSH32 0x3078300000000000000000000000000000000000000000000000000000000000 DUP2 MSTORE POP PUSH2 0x1562 JUMP JUMPDEST DUP4 PUSH32 0x73DA24C1C5A65DD010B8A07187C8A579CE7225624D0EFC87C73EB7BEB8C8E6B8 DUP5 DUP5 PUSH1 0x40 MLOAD PUSH2 0x8C7 SWAP3 SWAP2 SWAP1 PUSH2 0x326F JUMP JUMPDEST PUSH1 0x40 MLOAD DUP1 SWAP2 SUB SWAP1 LOG2 POP POP POP POP JUMP JUMPDEST PUSH2 0x8DD PUSH2 0x1762 JUMP JUMPDEST PUSH20 0xFFFFFFFFFFFFFFFFFFFFFFFFFFFFFFFFFFFFFFFF AND DUP6 PUSH20 0xFFFFFFFFFFFFFFFFFFFFFFFFFFFFFFFFFFFFFFFF AND EQ DUP1 PUSH2 0x923 JUMPI POP PUSH2 0x922 DUP6 PUSH2 0x91D PUSH2 0x1762 JUMP JUMPDEST PUSH2 0x14C0 JUMP JUMPDEST JUMPDEST PUSH2 0x962 JUMPI PUSH1 0x40 MLOAD PUSH32 0x8C379A000000000000000000000000000000000000000000000000000000000 DUP2 MSTORE PUSH1 0x4 ADD PUSH2 0x959 SWAP1 PUSH2 0x3306 JUMP JUMPDEST PUSH1 0x40 MLOAD DUP1 SWAP2 SUB SWAP1 REVERT JUMPDEST PUSH2 0x96F DUP6 DUP6 DUP6 DUP6 DUP6 PUSH2 0x1769 JUMP JUMPDEST POP POP POP POP POP JUMP JUMPDEST PUSH1 0x60 DUP2 MLOAD DUP4 MLOAD EQ PUSH2 0x9BC JUMPI PUSH1 0x40 MLOAD PUSH32 0x8C379A000000000000000000000000000000000000000000000000000000000 DUP2 MSTORE PUSH1 0x4 ADD PUSH2 0x9B3 SWAP1 PUSH2 0x3394 JUMP JUMPDEST PUSH1 0x40 MLOAD DUP1 SWAP2 SUB SWAP1 REVERT JUMPDEST PUSH0 DUP4 MLOAD PUSH8 0xFFFFFFFFFFFFFFFF DUP2 GT ISZERO PUSH2 0x9D8 JUMPI PUSH2 0x9D7 PUSH2 0x267B JUMP JUMPDEST JUMPDEST PUSH1 0x40 MLOAD SWAP1 DUP1 DUP3 MSTORE DUP1 PUSH1 0x20 MUL PUSH1 0x20 ADD DUP3 ADD PUSH1 0x40 MSTORE DUP1 ISZERO PUSH2 0xA06 JUMPI DUP2 PUSH1 0x20 ADD PUSH1 0x20 DUP3 MUL DUP1 CALLDATASIZE DUP4 CALLDATACOPY DUP1 DUP3 ADD SWAP2 POP POP SWAP1 POP JUMPDEST POP SWAP1 POP PUSH0 JUMPDEST DUP5 MLOAD DUP2 LT ISZERO PUSH2 0xA7C JUMPI PUSH2 0xA52 DUP6 DUP3 DUP2 MLOAD DUP2 LT PUSH2 0xA2A JUMPI PUSH2 0xA29 PUSH2 0x33B2 JUMP JUMPDEST JUMPDEST PUSH1 0x20 MUL PUSH1 0x20 ADD ADD MLOAD DUP6 DUP4 DUP2 MLOAD DUP2 LT PUSH2 0xA45 JUMPI PUSH2 0xA44 PUSH2 0x33B2 JUMP JUMPDEST JUMPDEST PUSH1 0x20 MUL PUSH1 0x20 ADD ADD MLOAD PUSH2 0x4D7 JUMP JUMPDEST DUP3 DUP3 DUP2 MLOAD DUP2 LT PUSH2 0xA65 JUMPI PUSH2 0xA64 PUSH2 0x33B2 JUMP JUMPDEST JUMPDEST PUSH1 0x20 MUL PUSH1 0x20 ADD ADD DUP2 DUP2 MSTORE POP POP DUP1 PUSH1 0x1 ADD SWAP1 POP PUSH2 0xA0B JUMP JUMPDEST POP DUP1 SWAP2 POP POP SWAP3 SWAP2 POP POP JUMP JUMPDEST PUSH1 0x4 DUP2 DUP2 SLOAD DUP2 LT PUSH2 0xA96 JUMPI PUSH0 DUP1 REVERT JUMPDEST SWAP1 PUSH0 MSTORE PUSH1 0x20 PUSH0 KECCAK256 ADD PUSH0 SWAP2 POP SWAP1 POP DUP1 SLOAD PUSH2 0xAAE SWAP1 PUSH2 0x2FE9 JUMP JUMPDEST DUP1 PUSH1 0x1F ADD PUSH1 0x20 DUP1 SWAP2 DIV MUL PUSH1 0x20 ADD PUSH1 0x40 MLOAD SWAP1 DUP2 ADD PUSH1 0x40 MSTORE DUP1 SWAP3 SWAP2 SWAP1 DUP2 DUP2 MSTORE PUSH1 0x20 ADD DUP3 DUP1 SLOAD PUSH2 0xADA SWAP1 PUSH2 0x2FE9 JUMP JUMPDEST DUP1 ISZERO PUSH2 0xB25 JUMPI DUP1 PUSH1 0x1F LT PUSH2 0xAFC JUMPI PUSH2 0x100 DUP1 DUP4 SLOAD DIV MUL DUP4 MSTORE SWAP2 PUSH1 0x20 ADD SWAP2 PUSH2 0xB25 JUMP JUMPDEST DUP3 ADD SWAP2 SWAP1 PUSH0 MSTORE PUSH1 0x20 PUSH0 KECCAK256 SWAP1 JUMPDEST DUP2 SLOAD DUP2 MSTORE SWAP1 PUSH1 0x1 ADD SWAP1 PUSH1 0x20 ADD DUP1 DUP4 GT PUSH2 0xB08 JUMPI DUP3 SWAP1 SUB PUSH1 0x1F AND DUP3 ADD SWAP2 JUMPDEST POP POP POP POP POP DUP2 JUMP JUMPDEST PUSH1 0x8 DUP4 PUSH1 0x40 MLOAD PUSH2 0xB3D SWAP2 SWAP1 PUSH2 0x340F JUMP JUMPDEST SWAP1 DUP2 MSTORE PUSH1 0x20 ADD PUSH1 0x40 MLOAD DUP1 SWAP2 SUB SWAP1 KECCAK256 PUSH0 SWAP1 SLOAD SWAP1 PUSH2 0x100 EXP SWAP1 DIV PUSH1 0xFF AND ISZERO PUSH2 0xB98 JUMPI PUSH1 0x40 MLOAD PUSH32 0x8C379A000000000000000000000000000000000000000000000000000000000 DUP2 MSTORE PUSH1 0x4 ADD PUSH2 0xB8F SWAP1 PUSH2 0x346F JUMP JUMPDEST PUSH1 0x40 MLOAD DUP1 SWAP2 SUB SWAP1 REVERT JUMPDEST PUSH0 DUP2 GT PUSH2 0xBDA JUMPI PUSH1 0x40 MLOAD PUSH32 0x8C379A000000000000000000000000000000000000000000000000000000000 DUP2 MSTORE PUSH1 0x4 ADD PUSH2 0xBD1 SWAP1 PUSH2 0x34D7 JUMP JUMPDEST PUSH1 0x40 MLOAD DUP1 SWAP2 SUB SWAP1 REVERT JUMPDEST PUSH1 0x7 SLOAD CALLVALUE EQ PUSH2 0xC1E JUMPI PUSH1 0x40 MLOAD PUSH32 0x8C379A000000000000000000000000000000000000000000000000000000000 DUP2 MSTORE PUSH1 0x4 ADD PUSH2 0xC15 SWAP1 PUSH2 0x353F JUMP JUMPDEST PUSH1 0x40 MLOAD DUP1 SWAP2 SUB SWAP1 REVERT JUMPDEST PUSH0 PUSH20 0xFFFFFFFFFFFFFFFFFFFFFFFFFFFFFFFFFFFFFFFF AND PUSH2 0x8FC CALLVALUE SWAP1 DUP2 ISZERO MUL SWAP1 PUSH1 0x40 MLOAD PUSH0 PUSH1 0x40 MLOAD DUP1 DUP4 SUB DUP2 DUP6 DUP9 DUP9 CALL SWAP4 POP POP POP POP ISZERO DUP1 ISZERO PUSH2 0xC61 JUMPI RETURNDATASIZE PUSH0 DUP1 RETURNDATACOPY RETURNDATASIZE PUSH0 REVERT JUMPDEST POP PUSH1 0x4 DUP4 SWAP1 DUP1 PUSH1 0x1 DUP2 SLOAD ADD DUP1 DUP3 SSTORE DUP1 SWAP2 POP POP PUSH1 0x1 SWAP1 SUB SWAP1 PUSH0 MSTORE PUSH1 0x20 PUSH0 KECCAK256 ADD PUSH0 SWAP1 SWAP2 SWAP1 SWAP2 SWAP1 SWAP2 POP SWAP1 DUP2 PUSH2 0xC93 SWAP2 SWAP1 PUSH2 0x36E8 JUMP JUMPDEST POP PUSH0 PUSH1 0x4 DUP1 SLOAD SWAP1 POP SWAP1 POP PUSH2 0xCB7 ADDRESS DUP3 DUP6 PUSH1 0x40 MLOAD DUP1 PUSH1 0x20 ADD PUSH1 0x40 MSTORE DUP1 PUSH0 DUP2 MSTORE POP PUSH2 0x1A63 JUMP JUMPDEST PUSH1 0x40 MLOAD DUP1 PUSH1 0xA0 ADD PUSH1 0x40 MSTORE DUP1 DUP3 DUP2 MSTORE PUSH1 0x20 ADD DUP6 DUP2 MSTORE PUSH1 0x20 ADD DUP5 DUP2 MSTORE PUSH1 0x20 ADD DUP4 DUP2 MSTORE PUSH1 0x20 ADD CALLER PUSH20 0xFFFFFFFFFFFFFFFFFFFFFFFFFFFFFFFFFFFFFFFF AND DUP2 MSTORE POP PUSH1 0x9 PUSH0 DUP4 DUP2 MSTORE PUSH1 0x20 ADD SWAP1 DUP2 MSTORE PUSH1 0x20 ADD PUSH0 KECCAK256 PUSH0 DUP3 ADD MLOAD DUP2 PUSH0 ADD SSTORE PUSH1 0x20 DUP3 ADD MLOAD DUP2 PUSH1 0x1 ADD SWAP1 DUP2 PUSH2 0xD22 SWAP2 SWAP1 PUSH2 0x36E8 JUMP JUMPDEST POP PUSH1 0x40 DUP3 ADD MLOAD DUP2 PUSH1 0x2 ADD SSTORE PUSH1 0x60 DUP3 ADD MLOAD DUP2 PUSH1 0x3 ADD SSTORE PUSH1 0x80 DUP3 ADD MLOAD DUP2 PUSH1 0x4 ADD PUSH0 PUSH2 0x100 EXP DUP2 SLOAD DUP2 PUSH20 0xFFFFFFFFFFFFFFFFFFFFFFFFFFFFFFFFFFFFFFFF MUL NOT AND SWAP1 DUP4 PUSH20 0xFFFFFFFFFFFFFFFFFFFFFFFFFFFFFFFFFFFFFFFF AND MUL OR SWAP1 SSTORE POP SWAP1 POP POP PUSH1 0x1 PUSH1 0x8 DUP6 PUSH1 0x40 MLOAD PUSH2 0xD92 SWAP2 SWAP1 PUSH2 0x340F JUMP JUMPDEST SWAP1 DUP2 MSTORE PUSH1 0x20 ADD PUSH1 0x40 MLOAD DUP1 SWAP2 SUB SWAP1 KECCAK256 PUSH0 PUSH2 0x100 EXP DUP2 SLOAD DUP2 PUSH1 0xFF MUL NOT AND SWAP1 DUP4 ISZERO ISZERO MUL OR SWAP1 SSTORE POP DUP1 PUSH32 0x878637F2C01E0948D56963DA142376811A0261FEA617351062B12DE43BFB1DEE DUP6 DUP6 DUP6 CALLER PUSH1 0x40 MLOAD PUSH2 0xDEC SWAP5 SWAP4 SWAP3 SWAP2 SWAP1 PUSH2 0x37B7 JUMP JUMPDEST PUSH1 0x40 MLOAD DUP1 SWAP2 SUB SWAP1 LOG2 POP POP POP POP JUMP JUMPDEST PUSH2 0xE02 PUSH2 0x1762 JUMP JUMPDEST PUSH20 0xFFFFFFFFFFFFFFFFFFFFFFFFFFFFFFFFFFFFFFFF AND PUSH2 0xE20 PUSH2 0xED0 JUMP JUMPDEST PUSH20 0xFFFFFFFFFFFFFFFFFFFFFFFFFFFFFFFFFFFFFFFF AND EQ PUSH2 0xE76 JUMPI PUSH1 0x40 MLOAD PUSH32 0x8C379A000000000000000000000000000000000000000000000000000000000 DUP2 MSTORE PUSH1 0x4 ADD PUSH2 0xE6D SWAP1 PUSH2 0x384B JUMP JUMPDEST PUSH1 0x40 MLOAD DUP1 SWAP2 SUB SWAP1 REVERT JUMPDEST PUSH2 0xE7F PUSH0 PUSH2 0x1BEE JUMP JUMPDEST JUMP JUMPDEST PUSH0 PUSH2 0xE9D CALLER ADDRESS DUP6 DUP6 PUSH1 0x40 MLOAD DUP1 PUSH1 0x20 ADD PUSH1 0x40 MSTORE DUP1 PUSH0 DUP2 MSTORE POP PUSH2 0x1562 JUMP JUMPDEST DUP2 PUSH1 0x9 PUSH0 DUP6 DUP2 MSTORE PUSH1 0x20 ADD SWAP1 DUP2 MSTORE PUSH1 0x20 ADD PUSH0 KECCAK256 PUSH1 0x2 ADD PUSH0 DUP3 DUP3 SLOAD PUSH2 0xEC0 SWAP2 SWAP1 PUSH2 0x3869 JUMP JUMPDEST SWAP3 POP POP DUP2 SWAP1 SSTORE POP DUP3 SWAP1 POP SWAP3 SWAP2 POP POP JUMP JUMPDEST PUSH0 PUSH1 0x3 PUSH0 SWAP1 SLOAD SWAP1 PUSH2 0x100 EXP SWAP1 DIV PUSH20 0xFFFFFFFFFFFFFFFFFFFFFFFFFFFFFFFFFFFFFFFF AND SWAP1 POP SWAP1 JUMP JUMPDEST PUSH2 0xF00 PUSH2 0x2386 JUMP JUMPDEST PUSH1 0x9 PUSH0 DUP4 DUP2 MSTORE PUSH1 0x20 ADD SWAP1 DUP2 MSTORE PUSH1 0x20 ADD PUSH0 KECCAK256 PUSH1 0x40 MLOAD DUP1 PUSH1 0xA0 ADD PUSH1 0x40 MSTORE SWAP1 DUP2 PUSH0 DUP3 ADD SLOAD DUP2 MSTORE PUSH1 0x20 ADD PUSH1 0x1 DUP3 ADD DUP1 SLOAD PUSH2 0xF35 SWAP1 PUSH2 0x2FE9 JUMP JUMPDEST DUP1 PUSH1 0x1F ADD PUSH1 0x20 DUP1 SWAP2 DIV MUL PUSH1 0x20 ADD PUSH1 0x40 MLOAD SWAP1 DUP2 ADD PUSH1 0x40 MSTORE DUP1 SWAP3 SWAP2 SWAP1 DUP2 DUP2 MSTORE PUSH1 0x20 ADD DUP3 DUP1 SLOAD PUSH2 0xF61 SWAP1 PUSH2 0x2FE9 JUMP JUMPDEST DUP1 ISZERO PUSH2 0xFAC JUMPI DUP1 PUSH1 0x1F LT PUSH2 0xF83 JUMPI PUSH2 0x100 DUP1 DUP4 SLOAD DIV MUL DUP4 MSTORE SWAP2 PUSH1 0x20 ADD SWAP2 PUSH2 0xFAC JUMP JUMPDEST DUP3 ADD SWAP2 SWAP1 PUSH0 MSTORE PUSH1 0x20 PUSH0 KECCAK256 SWAP1 JUMPDEST DUP2 SLOAD DUP2 MSTORE SWAP1 PUSH1 0x1 ADD SWAP1 PUSH1 0x20 ADD DUP1 DUP4 GT PUSH2 0xF8F JUMPI DUP3 SWAP1 SUB PUSH1 0x1F AND DUP3 ADD SWAP2 JUMPDEST POP POP POP POP POP DUP2 MSTORE PUSH1 0x20 ADD PUSH1 0x2 DUP3 ADD SLOAD DUP2 MSTORE PUSH1 0x20 ADD PUSH1 0x3 DUP3 ADD SLOAD DUP2 MSTORE PUSH1 0x20 ADD PUSH1 0x4 DUP3 ADD PUSH0 SWAP1 SLOAD SWAP1 PUSH2 0x100 EXP SWAP1 DIV PUSH20 0xFFFFFFFFFFFFFFFFFFFFFFFFFFFFFFFFFFFFFFFF AND PUSH20 0xFFFFFFFFFFFFFFFFFFFFFFFFFFFFFFFFFFFFFFFF AND PUSH20 0xFFFFFFFFFFFFFFFFFFFFFFFFFFFFFFFFFFFFFFFF AND DUP2 MSTORE POP POP SWAP1 POP SWAP2 SWAP1 POP JUMP JUMPDEST DUP2 PUSH20 0xFFFFFFFFFFFFFFFFFFFFFFFFFFFFFFFFFFFFFFFF AND PUSH2 0x1044 PUSH2 0x1762 JUMP JUMPDEST PUSH20 0xFFFFFFFFFFFFFFFFFFFFFFFFFFFFFFFFFFFFFFFF AND SUB PUSH2 0x109A JUMPI PUSH1 0x40 MLOAD PUSH32 0x8C379A000000000000000000000000000000000000000000000000000000000 DUP2 MSTORE PUSH1 0x4 ADD PUSH2 0x1091 SWAP1 PUSH2 0x390C JUMP JUMPDEST PUSH1 0x40 MLOAD DUP1 SWAP2 SUB SWAP1 REVERT JUMPDEST DUP1 PUSH1 0x1 PUSH0 PUSH2 0x10A6 PUSH2 0x1762 JUMP JUMPDEST PUSH20 0xFFFFFFFFFFFFFFFFFFFFFFFFFFFFFFFFFFFFFFFF AND PUSH20 0xFFFFFFFFFFFFFFFFFFFFFFFFFFFFFFFFFFFFFFFF AND DUP2 MSTORE PUSH1 0x20 ADD SWAP1 DUP2 MSTORE PUSH1 0x20 ADD PUSH0 KECCAK256 PUSH0 DUP5 PUSH20 0xFFFFFFFFFFFFFFFFFFFFFFFFFFFFFFFFFFFFFFFF AND PUSH20 0xFFFFFFFFFFFFFFFFFFFFFFFFFFFFFFFFFFFFFFFF AND DUP2 MSTORE PUSH1 0x20 ADD SWAP1 DUP2 MSTORE PUSH1 0x20 ADD PUSH0 KECCAK256 PUSH0 PUSH2 0x100 EXP DUP2 SLOAD DUP2 PUSH1 0xFF MUL NOT AND SWAP1 DUP4 ISZERO ISZERO MUL OR SWAP1 SSTORE POP DUP2 PUSH20 0xFFFFFFFFFFFFFFFFFFFFFFFFFFFFFFFFFFFFFFFF AND PUSH2 0x114F PUSH2 0x1762 JUMP JUMPDEST PUSH20 0xFFFFFFFFFFFFFFFFFFFFFFFFFFFFFFFFFFFFFFFF AND PUSH32 0x17307EAB39AB6107E8899845AD3D59BD9653F200F220920489CA2B5937696C31 DUP4 PUSH1 0x40 MLOAD PUSH2 0x1194 SWAP2 SWAP1 PUSH2 0x2565 JUMP JUMPDEST PUSH1 0x40 MLOAD DUP1 SWAP2 SUB SWAP1 LOG3 POP POP JUMP JUMPDEST PUSH0 PUSH1 0x7 SLOAD SWAP1 POP SWAP1 JUMP JUMPDEST PUSH2 0x11B1 PUSH2 0x1762 JUMP JUMPDEST PUSH20 0xFFFFFFFFFFFFFFFFFFFFFFFFFFFFFFFFFFFFFFFF AND PUSH2 0x11CF PUSH2 0xED0 JUMP JUMPDEST PUSH20 0xFFFFFFFFFFFFFFFFFFFFFFFFFFFFFFFFFFFFFFFF AND EQ PUSH2 0x1225 JUMPI PUSH1 0x40 MLOAD PUSH32 0x8C379A000000000000000000000000000000000000000000000000000000000 DUP2 MSTORE PUSH1 0x4 ADD PUSH2 0x121C SWAP1 PUSH2 0x384B JUMP JUMPDEST PUSH1 0x40 MLOAD DUP1 SWAP2 SUB SWAP1 REVERT JUMPDEST DUP1 PUSH1 0x5 SWAP1 DUP2 PUSH2 0x1234 SWAP2 SWAP1 PUSH2 0x36E8 JUMP JUMPDEST POP POP JUMP JUMPDEST PUSH2 0x1240 PUSH2 0x2386 JUMP JUMPDEST PUSH1 0x8 DUP3 PUSH1 0x40 MLOAD PUSH2 0x1250 SWAP2 SWAP1 PUSH2 0x340F JUMP JUMPDEST SWAP1 DUP2 MSTORE PUSH1 0x20 ADD PUSH1 0x40 MLOAD DUP1 SWAP2 SUB SWAP1 KECCAK256 PUSH0 SWAP1 SLOAD SWAP1 PUSH2 0x100 EXP SWAP1 DIV PUSH1 0xFF AND PUSH2 0x12AA JUMPI PUSH1 0x40 MLOAD PUSH32 0x8C379A000000000000000000000000000000000000000000000000000000000 DUP2 MSTORE PUSH1 0x4 ADD PUSH2 0x12A1 SWAP1 PUSH2 0x3974 JUMP JUMPDEST PUSH1 0x40 MLOAD DUP1 SWAP2 SUB SWAP1 REVERT JUMPDEST PUSH0 JUMPDEST PUSH1 0x4 DUP1 SLOAD SWAP1 POP DUP2 LT ISZERO PUSH2 0x14AD JUMPI PUSH2 0x1369 PUSH1 0x9 PUSH0 PUSH1 0x1 DUP5 PUSH2 0x12CC SWAP2 SWAP1 PUSH2 0x3869 JUMP JUMPDEST DUP2 MSTORE PUSH1 0x20 ADD SWAP1 DUP2 MSTORE PUSH1 0x20 ADD PUSH0 KECCAK256 PUSH1 0x1 ADD DUP1 SLOAD PUSH2 0x12E7 SWAP1 PUSH2 0x2FE9 JUMP JUMPDEST DUP1 PUSH1 0x1F ADD PUSH1 0x20 DUP1 SWAP2 DIV MUL PUSH1 0x20 ADD PUSH1 0x40 MLOAD SWAP1 DUP2 ADD PUSH1 0x40 MSTORE DUP1 SWAP3 SWAP2 SWAP1 DUP2 DUP2 MSTORE PUSH1 0x20 ADD DUP3 DUP1 SLOAD PUSH2 0x1313 SWAP1 PUSH2 0x2FE9 JUMP JUMPDEST DUP1 ISZERO PUSH2 0x135E JUMPI DUP1 PUSH1 0x1F LT PUSH2 0x1335 JUMPI PUSH2 0x100 DUP1 DUP4 SLOAD DIV MUL DUP4 MSTORE SWAP2 PUSH1 0x20 ADD SWAP2 PUSH2 0x135E JUMP JUMPDEST DUP3 ADD SWAP2 SWAP1 PUSH0 MSTORE PUSH1 0x20 PUSH0 KECCAK256 SWAP1 JUMPDEST DUP2 SLOAD DUP2 MSTORE SWAP1 PUSH1 0x1 ADD SWAP1 PUSH1 0x20 ADD DUP1 DUP4 GT PUSH2 0x1341 JUMPI DUP3 SWAP1 SUB PUSH1 0x1F AND DUP3 ADD SWAP2 JUMPDEST POP POP POP POP POP DUP5 PUSH2 0x1CB1 JUMP JUMPDEST ISZERO PUSH2 0x14A0 JUMPI PUSH1 0x9 PUSH0 PUSH1 0x1 DUP4 PUSH2 0x137E SWAP2 SWAP1 PUSH2 0x3869 JUMP JUMPDEST DUP2 MSTORE PUSH1 0x20 ADD SWAP1 DUP2 MSTORE PUSH1 0x20 ADD PUSH0 KECCAK256 PUSH1 0x40 MLOAD DUP1 PUSH1 0xA0 ADD PUSH1 0x40 MSTORE SWAP1 DUP2 PUSH0 DUP3 ADD SLOAD DUP2 MSTORE PUSH1 0x20 ADD PUSH1 0x1 DUP3 ADD DUP1 SLOAD PUSH2 0x13AF SWAP1 PUSH2 0x2FE9 JUMP JUMPDEST DUP1 PUSH1 0x1F ADD PUSH1 0x20 DUP1 SWAP2 DIV MUL PUSH1 0x20 ADD PUSH1 0x40 MLOAD SWAP1 DUP2 ADD PUSH1 0x40 MSTORE DUP1 SWAP3 SWAP2 SWAP1 DUP2 DUP2 MSTORE PUSH1 0x20 ADD DUP3 DUP1 SLOAD PUSH2 0x13DB SWAP1 PUSH2 0x2FE9 JUMP JUMPDEST DUP1 ISZERO PUSH2 0x1426 JUMPI DUP1 PUSH1 0x1F LT PUSH2 0x13FD JUMPI PUSH2 0x100 DUP1 DUP4 SLOAD DIV MUL DUP4 MSTORE SWAP2 PUSH1 0x20 ADD SWAP2 PUSH2 0x1426 JUMP JUMPDEST DUP3 ADD SWAP2 SWAP1 PUSH0 MSTORE PUSH1 0x20 PUSH0 KECCAK256 SWAP1 JUMPDEST DUP2 SLOAD DUP2 MSTORE SWAP1 PUSH1 0x1 ADD SWAP1 PUSH1 0x20 ADD DUP1 DUP4 GT PUSH2 0x1409 JUMPI DUP3 SWAP1 SUB PUSH1 0x1F AND DUP3 ADD SWAP2 JUMPDEST POP POP POP POP POP DUP2 MSTORE PUSH1 0x20 ADD PUSH1 0x2 DUP3 ADD SLOAD DUP2 MSTORE PUSH1 0x20 ADD PUSH1 0x3 DUP3 ADD SLOAD DUP2 MSTORE PUSH1 0x20 ADD PUSH1 0x4 DUP3 ADD PUSH0 SWAP1 SLOAD SWAP1 PUSH2 0x100 EXP SWAP1 DIV PUSH20 0xFFFFFFFFFFFFFFFFFFFFFFFFFFFFFFFFFFFFFFFF AND PUSH20 0xFFFFFFFFFFFFFFFFFFFFFFFFFFFFFFFFFFFFFFFF AND PUSH20 0xFFFFFFFFFFFFFFFFFFFFFFFFFFFFFFFFFFFFFFFF AND DUP2 MSTORE POP POP SWAP2 POP POP PUSH2 0x14BB JUMP JUMPDEST DUP1 DUP1 PUSH1 0x1 ADD SWAP2 POP POP PUSH2 0x12AC JUMP JUMPDEST POP PUSH2 0x14B6 PUSH2 0x2386 JUMP JUMPDEST DUP1 SWAP2 POP POP JUMPDEST SWAP2 SWAP1 POP JUMP JUMPDEST PUSH0 PUSH1 0x1 PUSH0 DUP5 PUSH20 0xFFFFFFFFFFFFFFFFFFFFFFFFFFFFFFFFFFFFFFFF AND PUSH20 0xFFFFFFFFFFFFFFFFFFFFFFFFFFFFFFFFFFFFFFFF AND DUP2 MSTORE PUSH1 0x20 ADD SWAP1 DUP2 MSTORE PUSH1 0x20 ADD PUSH0 KECCAK256 PUSH0 DUP4 PUSH20 0xFFFFFFFFFFFFFFFFFFFFFFFFFFFFFFFFFFFFFFFF AND PUSH20 0xFFFFFFFFFFFFFFFFFFFFFFFFFFFFFFFFFFFFFFFF AND DUP2 MSTORE PUSH1 0x20 ADD SWAP1 DUP2 MSTORE PUSH1 0x20 ADD PUSH0 KECCAK256 PUSH0 SWAP1 SLOAD SWAP1 PUSH2 0x100 EXP SWAP1 DIV PUSH1 0xFF AND SWAP1 POP SWAP3 SWAP2 POP POP JUMP JUMPDEST PUSH0 PUSH4 0xF23A6E61 PUSH1 0xE0 SHL SWAP1 POP SWAP6 SWAP5 POP POP POP POP POP JUMP JUMPDEST PUSH2 0x156A PUSH2 0x1762 JUMP JUMPDEST PUSH20 0xFFFFFFFFFFFFFFFFFFFFFFFFFFFFFFFFFFFFFFFF AND DUP6 PUSH20 0xFFFFFFFFFFFFFFFFFFFFFFFFFFFFFFFFFFFFFFFF AND EQ DUP1 PUSH2 0x15B0 JUMPI POP PUSH2 0x15AF DUP6 PUSH2 0x15AA PUSH2 0x1762 JUMP JUMPDEST PUSH2 0x14C0 JUMP JUMPDEST JUMPDEST PUSH2 0x15EF JUMPI PUSH1 0x40 MLOAD PUSH32 0x8C379A000000000000000000000000000000000000000000000000000000000 DUP2 MSTORE PUSH1 0x4 ADD PUSH2 0x15E6 SWAP1 PUSH2 0x3A02 JUMP JUMPDEST PUSH1 0x40 MLOAD DUP1 SWAP2 SUB SWAP1 REVERT JUMPDEST PUSH2 0x15FC DUP6 DUP6 DUP6 DUP6 DUP6 PUSH2 0x1CD8 JUMP JUMPDEST POP POP POP POP POP JUMP JUMPDEST PUSH2 0x160B PUSH2 0x1762 JUMP JUMPDEST PUSH20 0xFFFFFFFFFFFFFFFFFFFFFFFFFFFFFFFFFFFFFFFF AND PUSH2 0x1629 PUSH2 0xED0 JUMP JUMPDEST PUSH20 0xFFFFFFFFFFFFFFFFFFFFFFFFFFFFFFFFFFFFFFFF AND EQ PUSH2 0x167F JUMPI PUSH1 0x40 MLOAD PUSH32 0x8C379A000000000000000000000000000000000000000000000000000000000 DUP2 MSTORE PUSH1 0x4 ADD PUSH2 0x1676 SWAP1 PUSH2 0x384B JUMP JUMPDEST PUSH1 0x40 MLOAD DUP1 SWAP2 SUB SWAP1 REVERT JUMPDEST PUSH0 PUSH20 0xFFFFFFFFFFFFFFFFFFFFFFFFFFFFFFFFFFFFFFFF AND DUP2 PUSH20 0xFFFFFFFFFFFFFFFFFFFFFFFFFFFFFFFFFFFFFFFF AND SUB PUSH2 0x16ED JUMPI PUSH1 0x40 MLOAD PUSH32 0x8C379A000000000000000000000000000000000000000000000000000000000 DUP2 MSTORE PUSH1 0x4 ADD PUSH2 0x16E4 SWAP1 PUSH2 0x3A90 JUMP JUMPDEST PUSH1 0x40 MLOAD DUP1 SWAP2 SUB SWAP1 REVERT JUMPDEST PUSH2 0x16F6 DUP2 PUSH2 0x1BEE JUMP JUMPDEST POP JUMP JUMPDEST PUSH0 PUSH32 0x1FFC9A700000000000000000000000000000000000000000000000000000000 PUSH28 0xFFFFFFFFFFFFFFFFFFFFFFFFFFFFFFFFFFFFFFFFFFFFFFFFFFFFFFFF NOT AND DUP3 PUSH28 0xFFFFFFFFFFFFFFFFFFFFFFFFFFFFFFFFFFFFFFFFFFFFFFFFFFFFFFFF NOT AND EQ SWAP1 POP SWAP2 SWAP1 POP JUMP JUMPDEST PUSH0 CALLER SWAP1 POP SWAP1 JUMP JUMPDEST DUP2 MLOAD DUP4 MLOAD EQ PUSH2 0x17AD JUMPI PUSH1 0x40 MLOAD PUSH32 0x8C379A000000000000000000000000000000000000000000000000000000000 DUP2 MSTORE PUSH1 0x4 ADD PUSH2 0x17A4 SWAP1 PUSH2 0x3B1E JUMP JUMPDEST PUSH1 0x40 MLOAD DUP1 SWAP2 SUB SWAP1 REVERT JUMPDEST PUSH0 PUSH20 0xFFFFFFFFFFFFFFFFFFFFFFFFFFFFFFFFFFFFFFFF AND DUP5 PUSH20 0xFFFFFFFFFFFFFFFFFFFFFFFFFFFFFFFFFFFFFFFF AND SUB PUSH2 0x181B JUMPI PUSH1 0x40 MLOAD PUSH32 0x8C379A000000000000000000000000000000000000000000000000000000000 DUP2 MSTORE PUSH1 0x4 ADD PUSH2 0x1812 SWAP1 PUSH2 0x3BAC JUMP JUMPDEST PUSH1 0x40 MLOAD DUP1 SWAP2 SUB SWAP1 REVERT JUMPDEST PUSH0 PUSH2 0x1824 PUSH2 0x1762 JUMP JUMPDEST SWAP1 POP PUSH2 0x1834 DUP2 DUP8 DUP8 DUP8 DUP8 DUP8 PUSH2 0x1F49 JUMP JUMPDEST PUSH0 JUMPDEST DUP5 MLOAD DUP2 LT ISZERO PUSH2 0x19CE JUMPI PUSH0 DUP6 DUP3 DUP2 MLOAD DUP2 LT PUSH2 0x1853 JUMPI PUSH2 0x1852 PUSH2 0x33B2 JUMP JUMPDEST JUMPDEST PUSH1 0x20 MUL PUSH1 0x20 ADD ADD MLOAD SWAP1 POP PUSH0 DUP6 DUP4 DUP2 MLOAD DUP2 LT PUSH2 0x1871 JUMPI PUSH2 0x1870 PUSH2 0x33B2 JUMP JUMPDEST JUMPDEST PUSH1 0x20 MUL PUSH1 0x20 ADD ADD MLOAD SWAP1 POP PUSH0 DUP1 PUSH0 DUP5 DUP2 MSTORE PUSH1 0x20 ADD SWAP1 DUP2 MSTORE PUSH1 0x20 ADD PUSH0 KECCAK256 PUSH0 DUP12 PUSH20 0xFFFFFFFFFFFFFFFFFFFFFFFFFFFFFFFFFFFFFFFF AND PUSH20 0xFFFFFFFFFFFFFFFFFFFFFFFFFFFFFFFFFFFFFFFF AND DUP2 MSTORE PUSH1 0x20 ADD SWAP1 DUP2 MSTORE PUSH1 0x20 ADD PUSH0 KECCAK256 SLOAD SWAP1 POP DUP2 DUP2 LT ISZERO PUSH2 0x190D JUMPI PUSH1 0x40 MLOAD PUSH32 0x8C379A000000000000000000000000000000000000000000000000000000000 DUP2 MSTORE PUSH1 0x4 ADD PUSH2 0x1904 SWAP1 PUSH2 0x3C3A JUMP JUMPDEST PUSH1 0x40 MLOAD DUP1 SWAP2 SUB SWAP1 REVERT JUMPDEST DUP2 DUP2 SUB PUSH0 DUP1 DUP6 DUP2 MSTORE PUSH1 0x20 ADD SWAP1 DUP2 MSTORE PUSH1 0x20 ADD PUSH0 KECCAK256 PUSH0 DUP13 PUSH20 0xFFFFFFFFFFFFFFFFFFFFFFFFFFFFFFFFFFFFFFFF AND PUSH20 0xFFFFFFFFFFFFFFFFFFFFFFFFFFFFFFFFFFFFFFFF AND DUP2 MSTORE PUSH1 0x20 ADD SWAP1 DUP2 MSTORE PUSH1 0x20 ADD PUSH0 KECCAK256 DUP2 SWAP1 SSTORE POP DUP2 PUSH0 DUP1 DUP6 DUP2 MSTORE PUSH1 0x20 ADD SWAP1 DUP2 MSTORE PUSH1 0x20 ADD PUSH0 KECCAK256 PUSH0 DUP12 PUSH20 0xFFFFFFFFFFFFFFFFFFFFFFFFFFFFFFFFFFFFFFFF AND PUSH20 0xFFFFFFFFFFFFFFFFFFFFFFFFFFFFFFFFFFFFFFFF AND DUP2 MSTORE PUSH1 0x20 ADD SWAP1 DUP2 MSTORE PUSH1 0x20 ADD PUSH0 KECCAK256 PUSH0 DUP3 DUP3 SLOAD PUSH2 0x19B9 SWAP2 SWAP1 PUSH2 0x3869 JUMP JUMPDEST SWAP3 POP POP DUP2 SWAP1 SSTORE POP POP POP POP DUP1 PUSH1 0x1 ADD SWAP1 POP PUSH2 0x1836 JUMP JUMPDEST POP DUP5 PUSH20 0xFFFFFFFFFFFFFFFFFFFFFFFFFFFFFFFFFFFFFFFF AND DUP7 PUSH20 0xFFFFFFFFFFFFFFFFFFFFFFFFFFFFFFFFFFFFFFFF AND DUP3 PUSH20 0xFFFFFFFFFFFFFFFFFFFFFFFFFFFFFFFFFFFFFFFF AND PUSH32 0x4A39DC06D4C0DBC64B70AF90FD698A233A518AA5D07E595D983B8C0526C8F7FB DUP8 DUP8 PUSH1 0x40 MLOAD PUSH2 0x1A45 SWAP3 SWAP2 SWAP1 PUSH2 0x3C58 JUMP JUMPDEST PUSH1 0x40 MLOAD DUP1 SWAP2 SUB SWAP1 LOG4 PUSH2 0x1A5B DUP2 DUP8 DUP8 DUP8 DUP8 DUP8 PUSH2 0x1F51 JUMP JUMPDEST POP POP POP POP POP POP JUMP JUMPDEST PUSH0 PUSH20 0xFFFFFFFFFFFFFFFFFFFFFFFFFFFFFFFFFFFFFFFF AND DUP5 PUSH20 0xFFFFFFFFFFFFFFFFFFFFFFFFFFFFFFFFFFFFFFFF AND SUB PUSH2 0x1AD1 JUMPI PUSH1 0x40 MLOAD PUSH32 0x8C379A000000000000000000000000000000000000000000000000000000000 DUP2 MSTORE PUSH1 0x4 ADD PUSH2 0x1AC8 SWAP1 PUSH2 0x3CFD JUMP JUMPDEST PUSH1 0x40 MLOAD DUP1 SWAP2 SUB SWAP1 REVERT JUMPDEST PUSH0 PUSH2 0x1ADA PUSH2 0x1762 JUMP JUMPDEST SWAP1 POP PUSH2 0x1AFA DUP2 PUSH0 DUP8 PUSH2 0x1AEB DUP9 PUSH2 0x2127 JUMP JUMPDEST PUSH2 0x1AF4 DUP9 PUSH2 0x2127 JUMP JUMPDEST DUP8 PUSH2 0x1F49 JUMP JUMPDEST DUP3 PUSH0 DUP1 DUP7 DUP2 MSTORE PUSH1 0x20 ADD SWAP1 DUP2 MSTORE PUSH1 0x20 ADD PUSH0 KECCAK256 PUSH0 DUP8 PUSH20 0xFFFFFFFFFFFFFFFFFFFFFFFFFFFFFFFFFFFFFFFF AND PUSH20 0xFFFFFFFFFFFFFFFFFFFFFFFFFFFFFFFFFFFFFFFF AND DUP2 MSTORE PUSH1 0x20 ADD SWAP1 DUP2 MSTORE PUSH1 0x20 ADD PUSH0 KECCAK256 PUSH0 DUP3 DUP3 SLOAD PUSH2 0x1B54 SWAP2 SWAP1 PUSH2 0x3869 JUMP JUMPDEST SWAP3 POP POP DUP2 SWAP1 SSTORE POP DUP5 PUSH20 0xFFFFFFFFFFFFFFFFFFFFFFFFFFFFFFFFFFFFFFFF AND PUSH0 PUSH20 0xFFFFFFFFFFFFFFFFFFFFFFFFFFFFFFFFFFFFFFFF AND DUP3 PUSH20 0xFFFFFFFFFFFFFFFFFFFFFFFFFFFFFFFFFFFFFFFF AND PUSH32 0xC3D58168C5AE7397731D063D5BBF3D657854427343F4C083240F7AACAA2D0F62 DUP8 DUP8 PUSH1 0x40 MLOAD PUSH2 0x1BD1 SWAP3 SWAP2 SWAP1 PUSH2 0x326F JUMP JUMPDEST PUSH1 0x40 MLOAD DUP1 SWAP2 SUB SWAP1 LOG4 PUSH2 0x1BE7 DUP2 PUSH0 DUP8 DUP8 DUP8 DUP8 PUSH2 0x219F JUMP JUMPDEST POP POP POP POP POP JUMP JUMPDEST PUSH0 PUSH1 0x3 PUSH0 SWAP1 SLOAD SWAP1 PUSH2 0x100 EXP SWAP1 DIV PUSH20 0xFFFFFFFFFFFFFFFFFFFFFFFFFFFFFFFFFFFFFFFF AND SWAP1 POP DUP2 PUSH1 0x3 PUSH0 PUSH2 0x100 EXP DUP2 SLOAD DUP2 PUSH20 0xFFFFFFFFFFFFFFFFFFFFFFFFFFFFFFFFFFFFFFFF MUL NOT AND SWAP1 DUP4 PUSH20 0xFFFFFFFFFFFFFFFFFFFFFFFFFFFFFFFFFFFFFFFF AND MUL OR SWAP1 SSTORE POP DUP2 PUSH20 0xFFFFFFFFFFFFFFFFFFFFFFFFFFFFFFFFFFFFFFFF AND DUP2 PUSH20 0xFFFFFFFFFFFFFFFFFFFFFFFFFFFFFFFFFFFFFFFF AND PUSH32 0x8BE0079C531659141344CD1FD0A4F28419497F9722A3DAAFE3B4186F6B6457E0 PUSH1 0x40 MLOAD PUSH1 0x40 MLOAD DUP1 SWAP2 SUB SWAP1 LOG3 POP POP JUMP JUMPDEST PUSH0 DUP2 MLOAD DUP4 MLOAD EQ DUP1 ISZERO PUSH2 0x1CD0 JUMPI POP DUP2 DUP1 MLOAD SWAP1 PUSH1 0x20 ADD KECCAK256 DUP4 DUP1 MLOAD SWAP1 PUSH1 0x20 ADD KECCAK256 EQ JUMPDEST SWAP1 POP SWAP3 SWAP2 POP POP JUMP JUMPDEST PUSH0 PUSH20 0xFFFFFFFFFFFFFFFFFFFFFFFFFFFFFFFFFFFFFFFF AND DUP5 PUSH20 0xFFFFFFFFFFFFFFFFFFFFFFFFFFFFFFFFFFFFFFFF AND SUB PUSH2 0x1D46 JUMPI PUSH1 0x40 MLOAD PUSH32 0x8C379A000000000000000000000000000000000000000000000000000000000 DUP2 MSTORE PUSH1 0x4 ADD PUSH2 0x1D3D SWAP1 PUSH2 0x3BAC JUMP JUMPDEST PUSH1 0x40 MLOAD DUP1 SWAP2 SUB SWAP1 REVERT JUMPDEST PUSH0 PUSH2 0x1D4F PUSH2 0x1762 JUMP JUMPDEST SWAP1 POP PUSH2 0x1D6F DUP2 DUP8 DUP8 PUSH2 0x1D60 DUP9 PUSH2 0x2127 JUMP JUMPDEST PUSH2 0x1D69 DUP9 PUSH2 0x2127 JUMP JUMPDEST DUP8 PUSH2 0x1F49 JUMP JUMPDEST PUSH0 DUP1 PUSH0 DUP7 DUP2 MSTORE PUSH1 0x20 ADD SWAP1 DUP2 MSTORE PUSH1 0x20 ADD PUSH0 KECCAK256 PUSH0 DUP9 PUSH20 0xFFFFFFFFFFFFFFFFFFFFFFFFFFFFFFFFFFFFFFFF AND PUSH20 0xFFFFFFFFFFFFFFFFFFFFFFFFFFFFFFFFFFFFFFFF AND DUP2 MSTORE PUSH1 0x20 ADD SWAP1 DUP2 MSTORE PUSH1 0x20 ADD PUSH0 KECCAK256 SLOAD SWAP1 POP DUP4 DUP2 LT ISZERO PUSH2 0x1E01 JUMPI PUSH1 0x40 MLOAD PUSH32 0x8C379A000000000000000000000000000000000000000000000000000000000 DUP2 MSTORE PUSH1 0x4 ADD PUSH2 0x1DF8 SWAP1 PUSH2 0x3C3A JUMP JUMPDEST PUSH1 0x40 MLOAD DUP1 SWAP2 SUB SWAP1 REVERT JUMPDEST DUP4 DUP2 SUB PUSH0 DUP1 DUP8 DUP2 MSTORE PUSH1 0x20 ADD SWAP1 DUP2 MSTORE PUSH1 0x20 ADD PUSH0 KECCAK256 PUSH0 DUP10 PUSH20 0xFFFFFFFFFFFFFFFFFFFFFFFFFFFFFFFFFFFFFFFF AND PUSH20 0xFFFFFFFFFFFFFFFFFFFFFFFFFFFFFFFFFFFFFFFF AND DUP2 MSTORE PUSH1 0x20 ADD SWAP1 DUP2 MSTORE PUSH1 0x20 ADD PUSH0 KECCAK256 DUP2 SWAP1 SSTORE POP DUP4 PUSH0 DUP1 DUP8 DUP2 MSTORE PUSH1 0x20 ADD SWAP1 DUP2 MSTORE PUSH1 0x20 ADD PUSH0 KECCAK256 PUSH0 DUP9 PUSH20 0xFFFFFFFFFFFFFFFFFFFFFFFFFFFFFFFFFFFFFFFF AND PUSH20 0xFFFFFFFFFFFFFFFFFFFFFFFFFFFFFFFFFFFFFFFF AND DUP2 MSTORE PUSH1 0x20 ADD SWAP1 DUP2 MSTORE PUSH1 0x20 ADD PUSH0 KECCAK256 PUSH0 DUP3 DUP3 SLOAD PUSH2 0x1EAD SWAP2 SWAP1 PUSH2 0x3869 JUMP JUMPDEST SWAP3 POP POP DUP2 SWAP1 SSTORE POP DUP6 PUSH20 0xFFFFFFFFFFFFFFFFFFFFFFFFFFFFFFFFFFFFFFFF AND DUP8 PUSH20 0xFFFFFFFFFFFFFFFFFFFFFFFFFFFFFFFFFFFFFFFF AND DUP4 PUSH20 0xFFFFFFFFFFFFFFFFFFFFFFFFFFFFFFFFFFFFFFFF AND PUSH32 0xC3D58168C5AE7397731D063D5BBF3D657854427343F4C083240F7AACAA2D0F62 DUP9 DUP9 PUSH1 0x40 MLOAD PUSH2 0x1F2A SWAP3 SWAP2 SWAP1 PUSH2 0x326F JUMP JUMPDEST PUSH1 0x40 MLOAD DUP1 SWAP2 SUB SWAP1 LOG4 PUSH2 0x1F40 DUP3 DUP9 DUP9 DUP9 DUP9 DUP9 PUSH2 0x219F JUMP JUMPDEST POP POP POP POP POP POP POP JUMP JUMPDEST POP POP POP POP POP POP JUMP JUMPDEST PUSH2 0x1F70 DUP5 PUSH20 0xFFFFFFFFFFFFFFFFFFFFFFFFFFFFFFFFFFFFFFFF AND PUSH2 0x2375 JUMP JUMPDEST ISZERO PUSH2 0x211F JUMPI DUP4 PUSH20 0xFFFFFFFFFFFFFFFFFFFFFFFFFFFFFFFFFFFFFFFF AND PUSH4 0xBC197C81 DUP8 DUP8 DUP7 DUP7 DUP7 PUSH1 0x40 MLOAD DUP7 PUSH4 0xFFFFFFFF AND PUSH1 0xE0 SHL DUP2 MSTORE PUSH1 0x4 ADD PUSH2 0x1FB6 SWAP6 SWAP5 SWAP4 SWAP3 SWAP2 SWAP1 PUSH2 0x3D6D JUMP JUMPDEST PUSH1 0x20 PUSH1 0x40 MLOAD DUP1 DUP4 SUB DUP2 PUSH0 DUP8 GAS CALL SWAP3 POP POP POP DUP1 ISZERO PUSH2 0x1FF1 JUMPI POP PUSH1 0x40 MLOAD RETURNDATASIZE PUSH1 0x1F NOT PUSH1 0x1F DUP3 ADD AND DUP3 ADD DUP1 PUSH1 0x40 MSTORE POP DUP2 ADD SWAP1 PUSH2 0x1FEE SWAP2 SWAP1 PUSH2 0x3DE7 JUMP JUMPDEST PUSH1 0x1 JUMPDEST PUSH2 0x2096 JUMPI PUSH2 0x1FFD PUSH2 0x3E1E JUMP JUMPDEST DUP1 PUSH4 0x8C379A0 SUB PUSH2 0x2059 JUMPI POP PUSH2 0x2011 PUSH2 0x3E3D JUMP JUMPDEST DUP1 PUSH2 0x201C JUMPI POP PUSH2 0x205B JUMP JUMPDEST DUP1 PUSH1 0x40 MLOAD PUSH32 0x8C379A000000000000000000000000000000000000000000000000000000000 DUP2 MSTORE PUSH1 0x4 ADD PUSH2 0x2050 SWAP2 SWAP1 PUSH2 0x2619 JUMP JUMPDEST PUSH1 0x40 MLOAD DUP1 SWAP2 SUB SWAP1 REVERT JUMPDEST POP JUMPDEST PUSH1 0x40 MLOAD PUSH32 0x8C379A000000000000000000000000000000000000000000000000000000000 DUP2 MSTORE PUSH1 0x4 ADD PUSH2 0x208D SWAP1 PUSH2 0x3F3C JUMP JUMPDEST PUSH1 0x40 MLOAD DUP1 SWAP2 SUB SWAP1 REVERT JUMPDEST PUSH4 0xBC197C81 PUSH1 0xE0 SHL PUSH28 0xFFFFFFFFFFFFFFFFFFFFFFFFFFFFFFFFFFFFFFFFFFFFFFFFFFFFFFFF NOT AND DUP2 PUSH28 0xFFFFFFFFFFFFFFFFFFFFFFFFFFFFFFFFFFFFFFFFFFFFFFFFFFFFFFFF NOT AND EQ PUSH2 0x211D JUMPI PUSH1 0x40 MLOAD PUSH32 0x8C379A000000000000000000000000000000000000000000000000000000000 DUP2 MSTORE PUSH1 0x4 ADD PUSH2 0x2114 SWAP1 PUSH2 0x3FCA JUMP JUMPDEST PUSH1 0x40 MLOAD DUP1 SWAP2 SUB SWAP1 REVERT JUMPDEST POP JUMPDEST POP POP POP POP POP POP JUMP JUMPDEST PUSH1 0x60 PUSH0 PUSH1 0x1 PUSH8 0xFFFFFFFFFFFFFFFF DUP2 GT ISZERO PUSH2 0x2145 JUMPI PUSH2 0x2144 PUSH2 0x267B JUMP JUMPDEST JUMPDEST PUSH1 0x40 MLOAD SWAP1 DUP1 DUP3 MSTORE DUP1 PUSH1 0x20 MUL PUSH1 0x20 ADD DUP3 ADD PUSH1 0x40 MSTORE DUP1 ISZERO PUSH2 0x2173 JUMPI DUP2 PUSH1 0x20 ADD PUSH1 0x20 DUP3 MUL DUP1 CALLDATASIZE DUP4 CALLDATACOPY DUP1 DUP3 ADD SWAP2 POP POP SWAP1 POP JUMPDEST POP SWAP1 POP DUP3 DUP2 PUSH0 DUP2 MLOAD DUP2 LT PUSH2 0x218A JUMPI PUSH2 0x2189 PUSH2 0x33B2 JUMP JUMPDEST JUMPDEST PUSH1 0x20 MUL PUSH1 0x20 ADD ADD DUP2 DUP2 MSTORE POP POP DUP1 SWAP2 POP POP SWAP2 SWAP1 POP JUMP JUMPDEST PUSH2 0x21BE DUP5 PUSH20 0xFFFFFFFFFFFFFFFFFFFFFFFFFFFFFFFFFFFFFFFF AND PUSH2 0x2375 JUMP JUMPDEST ISZERO PUSH2 0x236D JUMPI DUP4 PUSH20 0xFFFFFFFFFFFFFFFFFFFFFFFFFFFFFFFFFFFFFFFF AND PUSH4 0xF23A6E61 DUP8 DUP8 DUP7 DUP7 DUP7 PUSH1 0x40 MLOAD DUP7 PUSH4 0xFFFFFFFF AND PUSH1 0xE0 SHL DUP2 MSTORE PUSH1 0x4 ADD PUSH2 0x2204 SWAP6 SWAP5 SWAP4 SWAP3 SWAP2 SWAP1 PUSH2 0x3FE8 JUMP JUMPDEST PUSH1 0x20 PUSH1 0x40 MLOAD DUP1 DUP4 SUB DUP2 PUSH0 DUP8 GAS CALL SWAP3 POP POP POP DUP1 ISZERO PUSH2 0x223F JUMPI POP PUSH1 0x40 MLOAD RETURNDATASIZE PUSH1 0x1F NOT PUSH1 0x1F DUP3 ADD AND DUP3 ADD DUP1 PUSH1 0x40 MSTORE POP DUP2 ADD SWAP1 PUSH2 0x223C SWAP2 SWAP1 PUSH2 0x3DE7 JUMP JUMPDEST PUSH1 0x1 JUMPDEST PUSH2 0x22E4 JUMPI PUSH2 0x224B PUSH2 0x3E1E JUMP JUMPDEST DUP1 PUSH4 0x8C379A0 SUB PUSH2 0x22A7 JUMPI POP PUSH2 0x225F PUSH2 0x3E3D JUMP JUMPDEST DUP1 PUSH2 0x226A JUMPI POP PUSH2 0x22A9 JUMP JUMPDEST DUP1 PUSH1 0x40 MLOAD PUSH32 0x8C379A000000000000000000000000000000000000000000000000000000000 DUP2 MSTORE PUSH1 0x4 ADD PUSH2 0x229E SWAP2 SWAP1 PUSH2 0x2619 JUMP JUMPDEST PUSH1 0x40 MLOAD DUP1 SWAP2 SUB SWAP1 REVERT JUMPDEST POP JUMPDEST PUSH1 0x40 MLOAD PUSH32 0x8C379A000000000000000000000000000000000000000000000000000000000 DUP2 MSTORE PUSH1 0x4 ADD PUSH2 0x22DB SWAP1 PUSH2 0x3F3C JUMP JUMPDEST PUSH1 0x40 MLOAD DUP1 SWAP2 SUB SWAP1 REVERT JUMPDEST PUSH4 0xF23A6E61 PUSH1 0xE0 SHL PUSH28 0xFFFFFFFFFFFFFFFFFFFFFFFFFFFFFFFFFFFFFFFFFFFFFFFFFFFFFFFF NOT AND DUP2 PUSH28 0xFFFFFFFFFFFFFFFFFFFFFFFFFFFFFFFFFFFFFFFFFFFFFFFFFFFFFFFF NOT AND EQ PUSH2 0x236B JUMPI PUSH1 0x40 MLOAD PUSH32 0x8C379A000000000000000000000000000000000000000000000000000000000 DUP2 MSTORE PUSH1 0x4 ADD PUSH2 0x2362 SWAP1 PUSH2 0x3FCA JUMP JUMPDEST PUSH1 0x40 MLOAD DUP1 SWAP2 SUB SWAP1 REVERT JUMPDEST POP JUMPDEST POP POP POP POP POP POP JUMP JUMPDEST PUSH0 DUP1 DUP3 EXTCODESIZE SWAP1 POP PUSH0 DUP2 GT SWAP2 POP POP SWAP2 SWAP1 POP JUMP JUMPDEST PUSH1 0x40 MLOAD DUP1 PUSH1 0xA0 ADD PUSH1 0x40 MSTORE DUP1 PUSH0 DUP2 MSTORE PUSH1 0x20 ADD PUSH1 0x60 DUP2 MSTORE PUSH1 0x20 ADD PUSH0 DUP2 MSTORE PUSH1 0x20 ADD PUSH0 DUP2 MSTORE PUSH1 0x20 ADD PUSH0 PUSH20 0xFFFFFFFFFFFFFFFFFFFFFFFFFFFFFFFFFFFFFFFF AND DUP2 MSTORE POP SWAP1 JUMP JUMPDEST PUSH0 PUSH1 0x40 MLOAD SWAP1 POP SWAP1 JUMP JUMPDEST PUSH0 DUP1 REVERT JUMPDEST PUSH0 DUP1 REVERT JUMPDEST PUSH0 PUSH20 0xFFFFFFFFFFFFFFFFFFFFFFFFFFFFFFFFFFFFFFFF DUP3 AND SWAP1 POP SWAP2 SWAP1 POP JUMP JUMPDEST PUSH0 PUSH2 0x2401 DUP3 PUSH2 0x23D8 JUMP JUMPDEST SWAP1 POP SWAP2 SWAP1 POP JUMP JUMPDEST PUSH2 0x2411 DUP2 PUSH2 0x23F7 JUMP JUMPDEST DUP2 EQ PUSH2 0x241B JUMPI PUSH0 DUP1 REVERT JUMPDEST POP JUMP JUMPDEST PUSH0 DUP2 CALLDATALOAD SWAP1 POP PUSH2 0x242C DUP2 PUSH2 0x2408 JUMP JUMPDEST SWAP3 SWAP2 POP POP JUMP JUMPDEST PUSH0 DUP2 SWAP1 POP SWAP2 SWAP1 POP JUMP JUMPDEST PUSH2 0x2444 DUP2 PUSH2 0x2432 JUMP JUMPDEST DUP2 EQ PUSH2 0x244E JUMPI PUSH0 DUP1 REVERT JUMPDEST POP JUMP JUMPDEST PUSH0 DUP2 CALLDATALOAD SWAP1 POP PUSH2 0x245F DUP2 PUSH2 0x243B JUMP JUMPDEST SWAP3 SWAP2 POP POP JUMP JUMPDEST PUSH0 DUP1 PUSH1 0x40 DUP4 DUP6 SUB SLT ISZERO PUSH2 0x247B JUMPI PUSH2 0x247A PUSH2 0x23D0 JUMP JUMPDEST JUMPDEST PUSH0 PUSH2 0x2488 DUP6 DUP3 DUP7 ADD PUSH2 0x241E JUMP JUMPDEST SWAP3 POP POP PUSH1 0x20 PUSH2 0x2499 DUP6 DUP3 DUP7 ADD PUSH2 0x2451 JUMP JUMPDEST SWAP2 POP POP SWAP3 POP SWAP3 SWAP1 POP JUMP JUMPDEST PUSH2 0x24AC DUP2 PUSH2 0x2432 JUMP JUMPDEST DUP3 MSTORE POP POP JUMP JUMPDEST PUSH0 PUSH1 0x20 DUP3 ADD SWAP1 POP PUSH2 0x24C5 PUSH0 DUP4 ADD DUP5 PUSH2 0x24A3 JUMP JUMPDEST SWAP3 SWAP2 POP POP JUMP JUMPDEST PUSH0 PUSH32 0xFFFFFFFF00000000000000000000000000000000000000000000000000000000 DUP3 AND SWAP1 POP SWAP2 SWAP1 POP JUMP JUMPDEST PUSH2 0x24FF DUP2 PUSH2 0x24CB JUMP JUMPDEST DUP2 EQ PUSH2 0x2509 JUMPI PUSH0 DUP1 REVERT JUMPDEST POP JUMP JUMPDEST PUSH0 DUP2 CALLDATALOAD SWAP1 POP PUSH2 0x251A DUP2 PUSH2 0x24F6 JUMP JUMPDEST SWAP3 SWAP2 POP POP JUMP JUMPDEST PUSH0 PUSH1 0x20 DUP3 DUP5 SUB SLT ISZERO PUSH2 0x2535 JUMPI PUSH2 0x2534 PUSH2 0x23D0 JUMP JUMPDEST JUMPDEST PUSH0 PUSH2 0x2542 DUP5 DUP3 DUP6 ADD PUSH2 0x250C JUMP JUMPDEST SWAP2 POP POP SWAP3 SWAP2 POP POP JUMP JUMPDEST PUSH0 DUP2 ISZERO ISZERO SWAP1 POP SWAP2 SWAP1 POP JUMP JUMPDEST PUSH2 0x255F DUP2 PUSH2 0x254B JUMP JUMPDEST DUP3 MSTORE POP POP JUMP JUMPDEST PUSH0 PUSH1 0x20 DUP3 ADD SWAP1 POP PUSH2 0x2578 PUSH0 DUP4 ADD DUP5 PUSH2 0x2556 JUMP JUMPDEST SWAP3 SWAP2 POP POP JUMP JUMPDEST PUSH0 PUSH1 0x20 DUP3 DUP5 SUB SLT ISZERO PUSH2 0x2593 JUMPI PUSH2 0x2592 PUSH2 0x23D0 JUMP JUMPDEST JUMPDEST PUSH0 PUSH2 0x25A0 DUP5 DUP3 DUP6 ADD PUSH2 0x2451 JUMP JUMPDEST SWAP2 POP POP SWAP3 SWAP2 POP POP JUMP JUMPDEST PUSH0 DUP2 MLOAD SWAP1 POP SWAP2 SWAP1 POP JUMP JUMPDEST PUSH0 DUP3 DUP3 MSTORE PUSH1 0x20 DUP3 ADD SWAP1 POP SWAP3 SWAP2 POP POP JUMP JUMPDEST DUP3 DUP2 DUP4 MCOPY PUSH0 DUP4 DUP4 ADD MSTORE POP POP POP JUMP JUMPDEST PUSH0 PUSH1 0x1F NOT PUSH1 0x1F DUP4 ADD AND SWAP1 POP SWAP2 SWAP1 POP JUMP JUMPDEST PUSH0 PUSH2 0x25EB DUP3 PUSH2 0x25A9 JUMP JUMPDEST PUSH2 0x25F5 DUP2 DUP6 PUSH2 0x25B3 JUMP JUMPDEST SWAP4 POP PUSH2 0x2605 DUP2 DUP6 PUSH1 0x20 DUP7 ADD PUSH2 0x25C3 JUMP JUMPDEST PUSH2 0x260E DUP2 PUSH2 0x25D1 JUMP JUMPDEST DUP5 ADD SWAP2 POP POP SWAP3 SWAP2 POP POP JUMP JUMPDEST PUSH0 PUSH1 0x20 DUP3 ADD SWAP1 POP DUP2 DUP2 SUB PUSH0 DUP4 ADD MSTORE PUSH2 0x2631 DUP2 DUP5 PUSH2 0x25E1 JUMP JUMPDEST SWAP1 POP SWAP3 SWAP2 POP POP JUMP JUMPDEST PUSH0 DUP1 PUSH1 0x40 DUP4 DUP6 SUB SLT ISZERO PUSH2 0x264F JUMPI PUSH2 0x264E PUSH2 0x23D0 JUMP JUMPDEST JUMPDEST PUSH0 PUSH2 0x265C DUP6 DUP3 DUP7 ADD PUSH2 0x2451 JUMP JUMPDEST SWAP3 POP POP PUSH1 0x20 PUSH2 0x266D DUP6 DUP3 DUP7 ADD PUSH2 0x2451 JUMP JUMPDEST SWAP2 POP POP SWAP3 POP SWAP3 SWAP1 POP JUMP JUMPDEST PUSH0 DUP1 REVERT JUMPDEST PUSH32 0x4E487B7100000000000000000000000000000000000000000000000000000000 PUSH0 MSTORE PUSH1 0x41 PUSH1 0x4 MSTORE PUSH1 0x24 PUSH0 REVERT JUMPDEST PUSH2 0x26B1 DUP3 PUSH2 0x25D1 JUMP JUMPDEST DUP2 ADD DUP2 DUP2 LT PUSH8 0xFFFFFFFFFFFFFFFF DUP3 GT OR ISZERO PUSH2 0x26D0 JUMPI PUSH2 0x26CF PUSH2 0x267B JUMP JUMPDEST JUMPDEST DUP1 PUSH1 0x40 MSTORE POP POP POP JUMP JUMPDEST PUSH0 PUSH2 0x26E2 PUSH2 0x23C7 JUMP JUMPDEST SWAP1 POP PUSH2 0x26EE DUP3 DUP3 PUSH2 0x26A8 JUMP JUMPDEST SWAP2 SWAP1 POP JUMP JUMPDEST PUSH0 PUSH8 0xFFFFFFFFFFFFFFFF DUP3 GT ISZERO PUSH2 0x270D JUMPI PUSH2 0x270C PUSH2 0x267B JUMP JUMPDEST JUMPDEST PUSH1 0x20 DUP3 MUL SWAP1 POP PUSH1 0x20 DUP2 ADD SWAP1 POP SWAP2 SWAP1 POP JUMP JUMPDEST PUSH0 DUP1 REVERT JUMPDEST PUSH0 PUSH2 0x2734 PUSH2 0x272F DUP5 PUSH2 0x26F3 JUMP JUMPDEST PUSH2 0x26D9 JUMP JUMPDEST SWAP1 POP DUP1 DUP4 DUP3 MSTORE PUSH1 0x20 DUP3 ADD SWAP1 POP PUSH1 0x20 DUP5 MUL DUP4 ADD DUP6 DUP2 GT ISZERO PUSH2 0x2757 JUMPI PUSH2 0x2756 PUSH2 0x271E JUMP JUMPDEST JUMPDEST DUP4 JUMPDEST DUP2 DUP2 LT ISZERO PUSH2 0x2780 JUMPI DUP1 PUSH2 0x276C DUP9 DUP3 PUSH2 0x2451 JUMP JUMPDEST DUP5 MSTORE PUSH1 0x20 DUP5 ADD SWAP4 POP POP PUSH1 0x20 DUP2 ADD SWAP1 POP PUSH2 0x2759 JUMP JUMPDEST POP POP POP SWAP4 SWAP3 POP POP POP JUMP JUMPDEST PUSH0 DUP3 PUSH1 0x1F DUP4 ADD SLT PUSH2 0x279E JUMPI PUSH2 0x279D PUSH2 0x2677 JUMP JUMPDEST JUMPDEST DUP2 CALLDATALOAD PUSH2 0x27AE DUP5 DUP3 PUSH1 0x20 DUP7 ADD PUSH2 0x2722 JUMP JUMPDEST SWAP2 POP POP SWAP3 SWAP2 POP POP JUMP JUMPDEST PUSH0 DUP1 REVERT JUMPDEST PUSH0 PUSH8 0xFFFFFFFFFFFFFFFF DUP3 GT ISZERO PUSH2 0x27D5 JUMPI PUSH2 0x27D4 PUSH2 0x267B JUMP JUMPDEST JUMPDEST PUSH2 0x27DE DUP3 PUSH2 0x25D1 JUMP JUMPDEST SWAP1 POP PUSH1 0x20 DUP2 ADD SWAP1 POP SWAP2 SWAP1 POP JUMP JUMPDEST DUP3 DUP2 DUP4 CALLDATACOPY PUSH0 DUP4 DUP4 ADD MSTORE POP POP POP JUMP JUMPDEST PUSH0 PUSH2 0x280B PUSH2 0x2806 DUP5 PUSH2 0x27BB JUMP JUMPDEST PUSH2 0x26D9 JUMP JUMPDEST SWAP1 POP DUP3 DUP2 MSTORE PUSH1 0x20 DUP2 ADD DUP5 DUP5 DUP5 ADD GT ISZERO PUSH2 0x2827 JUMPI PUSH2 0x2826 PUSH2 0x27B7 JUMP JUMPDEST JUMPDEST PUSH2 0x2832 DUP5 DUP3 DUP6 PUSH2 0x27EB JUMP JUMPDEST POP SWAP4 SWAP3 POP POP POP JUMP JUMPDEST PUSH0 DUP3 PUSH1 0x1F DUP4 ADD SLT PUSH2 0x284E JUMPI PUSH2 0x284D PUSH2 0x2677 JUMP JUMPDEST JUMPDEST DUP2 CALLDATALOAD PUSH2 0x285E DUP5 DUP3 PUSH1 0x20 DUP7 ADD PUSH2 0x27F9 JUMP JUMPDEST SWAP2 POP POP SWAP3 SWAP2 POP POP JUMP JUMPDEST PUSH0 DUP1 PUSH0 DUP1 PUSH0 PUSH1 0xA0 DUP7 DUP9 SUB SLT ISZERO PUSH2 0x2880 JUMPI PUSH2 0x287F PUSH2 0x23D0 JUMP JUMPDEST JUMPDEST PUSH0 PUSH2 0x288D DUP9 DUP3 DUP10 ADD PUSH2 0x241E JUMP JUMPDEST SWAP6 POP POP PUSH1 0x20 PUSH2 0x289E DUP9 DUP3 DUP10 ADD PUSH2 0x241E JUMP JUMPDEST SWAP5 POP POP PUSH1 0x40 DUP7 ADD CALLDATALOAD PUSH8 0xFFFFFFFFFFFFFFFF DUP2 GT ISZERO PUSH2 0x28BF JUMPI PUSH2 0x28BE PUSH2 0x23D4 JUMP JUMPDEST JUMPDEST PUSH2 0x28CB DUP9 DUP3 DUP10 ADD PUSH2 0x278A JUMP JUMPDEST SWAP4 POP POP PUSH1 0x60 DUP7 ADD CALLDATALOAD PUSH8 0xFFFFFFFFFFFFFFFF DUP2 GT ISZERO PUSH2 0x28EC JUMPI PUSH2 0x28EB PUSH2 0x23D4 JUMP JUMPDEST JUMPDEST PUSH2 0x28F8 DUP9 DUP3 DUP10 ADD PUSH2 0x278A JUMP JUMPDEST SWAP3 POP POP PUSH1 0x80 DUP7 ADD CALLDATALOAD PUSH8 0xFFFFFFFFFFFFFFFF DUP2 GT ISZERO PUSH2 0x2919 JUMPI PUSH2 0x2918 PUSH2 0x23D4 JUMP JUMPDEST JUMPDEST PUSH2 0x2925 DUP9 DUP3 DUP10 ADD PUSH2 0x283A JUMP JUMPDEST SWAP2 POP POP SWAP3 SWAP6 POP SWAP3 SWAP6 SWAP1 SWAP4 POP JUMP JUMPDEST PUSH0 PUSH8 0xFFFFFFFFFFFFFFFF DUP3 GT ISZERO PUSH2 0x294C JUMPI PUSH2 0x294B PUSH2 0x267B JUMP JUMPDEST JUMPDEST PUSH1 0x20 DUP3 MUL SWAP1 POP PUSH1 0x20 DUP2 ADD SWAP1 POP SWAP2 SWAP1 POP JUMP JUMPDEST PUSH0 PUSH2 0x296F PUSH2 0x296A DUP5 PUSH2 0x2932 JUMP JUMPDEST PUSH2 0x26D9 JUMP JUMPDEST SWAP1 POP DUP1 DUP4 DUP3 MSTORE PUSH1 0x20 DUP3 ADD SWAP1 POP PUSH1 0x20 DUP5 MUL DUP4 ADD DUP6 DUP2 GT ISZERO PUSH2 0x2992 JUMPI PUSH2 0x2991 PUSH2 0x271E JUMP JUMPDEST JUMPDEST DUP4 JUMPDEST DUP2 DUP2 LT ISZERO PUSH2 0x29BB JUMPI DUP1 PUSH2 0x29A7 DUP9 DUP3 PUSH2 0x241E JUMP JUMPDEST DUP5 MSTORE PUSH1 0x20 DUP5 ADD SWAP4 POP POP PUSH1 0x20 DUP2 ADD SWAP1 POP PUSH2 0x2994 JUMP JUMPDEST POP POP POP SWAP4 SWAP3 POP POP POP JUMP JUMPDEST PUSH0 DUP3 PUSH1 0x1F DUP4 ADD SLT PUSH2 0x29D9 JUMPI PUSH2 0x29D8 PUSH2 0x2677 JUMP JUMPDEST JUMPDEST DUP2 CALLDATALOAD PUSH2 0x29E9 DUP5 DUP3 PUSH1 0x20 DUP7 ADD PUSH2 0x295D JUMP JUMPDEST SWAP2 POP POP SWAP3 SWAP2 POP POP JUMP JUMPDEST PUSH0 DUP1 PUSH1 0x40 DUP4 DUP6 SUB SLT ISZERO PUSH2 0x2A08 JUMPI PUSH2 0x2A07 PUSH2 0x23D0 JUMP JUMPDEST JUMPDEST PUSH0 DUP4 ADD CALLDATALOAD PUSH8 0xFFFFFFFFFFFFFFFF DUP2 GT ISZERO PUSH2 0x2A25 JUMPI PUSH2 0x2A24 PUSH2 0x23D4 JUMP JUMPDEST JUMPDEST PUSH2 0x2A31 DUP6 DUP3 DUP7 ADD PUSH2 0x29C5 JUMP JUMPDEST SWAP3 POP POP PUSH1 0x20 DUP4 ADD CALLDATALOAD PUSH8 0xFFFFFFFFFFFFFFFF DUP2 GT ISZERO PUSH2 0x2A52 JUMPI PUSH2 0x2A51 PUSH2 0x23D4 JUMP JUMPDEST JUMPDEST PUSH2 0x2A5E DUP6 DUP3 DUP7 ADD PUSH2 0x278A JUMP JUMPDEST SWAP2 POP POP SWAP3 POP SWAP3 SWAP1 POP JUMP JUMPDEST PUSH0 DUP2 MLOAD SWAP1 POP SWAP2 SWAP1 POP JUMP JUMPDEST PUSH0 DUP3 DUP3 MSTORE PUSH1 0x20 DUP3 ADD SWAP1 POP SWAP3 SWAP2 POP POP JUMP JUMPDEST PUSH0 DUP2 SWAP1 POP PUSH1 0x20 DUP3 ADD SWAP1 POP SWAP2 SWAP1 POP JUMP JUMPDEST PUSH2 0x2A9A DUP2 PUSH2 0x2432 JUMP JUMPDEST DUP3 MSTORE POP POP JUMP JUMPDEST PUSH0 PUSH2 0x2AAB DUP4 DUP4 PUSH2 0x2A91 JUMP JUMPDEST PUSH1 0x20 DUP4 ADD SWAP1 POP SWAP3 SWAP2 POP POP JUMP JUMPDEST PUSH0 PUSH1 0x20 DUP3 ADD SWAP1 POP SWAP2 SWAP1 POP JUMP JUMPDEST PUSH0 PUSH2 0x2ACD DUP3 PUSH2 0x2A68 JUMP JUMPDEST PUSH2 0x2AD7 DUP2 DUP6 PUSH2 0x2A72 JUMP JUMPDEST SWAP4 POP PUSH2 0x2AE2 DUP4 PUSH2 0x2A82 JUMP JUMPDEST DUP1 PUSH0 JUMPDEST DUP4 DUP2 LT ISZERO PUSH2 0x2B12 JUMPI DUP2 MLOAD PUSH2 0x2AF9 DUP9 DUP3 PUSH2 0x2AA0 JUMP JUMPDEST SWAP8 POP PUSH2 0x2B04 DUP4 PUSH2 0x2AB7 JUMP JUMPDEST SWAP3 POP POP PUSH1 0x1 DUP2 ADD SWAP1 POP PUSH2 0x2AE5 JUMP JUMPDEST POP DUP6 SWAP4 POP POP POP POP SWAP3 SWAP2 POP POP JUMP JUMPDEST PUSH0 PUSH1 0x20 DUP3 ADD SWAP1 POP DUP2 DUP2 SUB PUSH0 DUP4 ADD MSTORE PUSH2 0x2B37 DUP2 DUP5 PUSH2 0x2AC3 JUMP JUMPDEST SWAP1 POP SWAP3 SWAP2 POP POP JUMP JUMPDEST PUSH0 PUSH8 0xFFFFFFFFFFFFFFFF DUP3 GT ISZERO PUSH2 0x2B59 JUMPI PUSH2 0x2B58 PUSH2 0x267B JUMP JUMPDEST JUMPDEST PUSH2 0x2B62 DUP3 PUSH2 0x25D1 JUMP JUMPDEST SWAP1 POP PUSH1 0x20 DUP2 ADD SWAP1 POP SWAP2 SWAP1 POP JUMP JUMPDEST PUSH0 PUSH2 0x2B81 PUSH2 0x2B7C DUP5 PUSH2 0x2B3F JUMP JUMPDEST PUSH2 0x26D9 JUMP JUMPDEST SWAP1 POP DUP3 DUP2 MSTORE PUSH1 0x20 DUP2 ADD DUP5 DUP5 DUP5 ADD GT ISZERO PUSH2 0x2B9D JUMPI PUSH2 0x2B9C PUSH2 0x27B7 JUMP JUMPDEST JUMPDEST PUSH2 0x2BA8 DUP5 DUP3 DUP6 PUSH2 0x27EB JUMP JUMPDEST POP SWAP4 SWAP3 POP POP POP JUMP JUMPDEST PUSH0 DUP3 PUSH1 0x1F DUP4 ADD SLT PUSH2 0x2BC4 JUMPI PUSH2 0x2BC3 PUSH2 0x2677 JUMP JUMPDEST JUMPDEST DUP2 CALLDATALOAD PUSH2 0x2BD4 DUP5 DUP3 PUSH1 0x20 DUP7 ADD PUSH2 0x2B6F JUMP JUMPDEST SWAP2 POP POP SWAP3 SWAP2 POP POP JUMP JUMPDEST PUSH0 DUP1 PUSH0 PUSH1 0x60 DUP5 DUP7 SUB SLT ISZERO PUSH2 0x2BF4 JUMPI PUSH2 0x2BF3 PUSH2 0x23D0 JUMP JUMPDEST JUMPDEST PUSH0 DUP5 ADD CALLDATALOAD PUSH8 0xFFFFFFFFFFFFFFFF DUP2 GT ISZERO PUSH2 0x2C11 JUMPI PUSH2 0x2C10 PUSH2 0x23D4 JUMP JUMPDEST JUMPDEST PUSH2 0x2C1D DUP7 DUP3 DUP8 ADD PUSH2 0x2BB0 JUMP JUMPDEST SWAP4 POP POP PUSH1 0x20 PUSH2 0x2C2E DUP7 DUP3 DUP8 ADD PUSH2 0x2451 JUMP JUMPDEST SWAP3 POP POP PUSH1 0x40 PUSH2 0x2C3F DUP7 DUP3 DUP8 ADD PUSH2 0x2451 JUMP JUMPDEST SWAP2 POP POP SWAP3 POP SWAP3 POP SWAP3 JUMP JUMPDEST PUSH2 0x2C52 DUP2 PUSH2 0x23F7 JUMP JUMPDEST DUP3 MSTORE POP POP JUMP JUMPDEST PUSH0 PUSH1 0x20 DUP3 ADD SWAP1 POP PUSH2 0x2C6B PUSH0 DUP4 ADD DUP5 PUSH2 0x2C49 JUMP JUMPDEST SWAP3 SWAP2 POP POP JUMP JUMPDEST PUSH0 DUP3 DUP3 MSTORE PUSH1 0x20 DUP3 ADD SWAP1 POP SWAP3 SWAP2 POP POP JUMP JUMPDEST PUSH0 PUSH2 0x2C8B DUP3 PUSH2 0x25A9 JUMP JUMPDEST PUSH2 0x2C95 DUP2 DUP6 PUSH2 0x2C71 JUMP JUMPDEST SWAP4 POP PUSH2 0x2CA5 DUP2 DUP6 PUSH1 0x20 DUP7 ADD PUSH2 0x25C3 JUMP JUMPDEST PUSH2 0x2CAE DUP2 PUSH2 0x25D1 JUMP JUMPDEST DUP5 ADD SWAP2 POP POP SWAP3 SWAP2 POP POP JUMP JUMPDEST PUSH2 0x2CC2 DUP2 PUSH2 0x23F7 JUMP JUMPDEST DUP3 MSTORE POP POP JUMP JUMPDEST PUSH0 PUSH1 0xA0 DUP4 ADD PUSH0 DUP4 ADD MLOAD PUSH2 0x2CDD PUSH0 DUP7 ADD DUP3 PUSH2 0x2A91 JUMP JUMPDEST POP PUSH1 0x20 DUP4 ADD MLOAD DUP5 DUP3 SUB PUSH1 0x20 DUP7 ADD MSTORE PUSH2 0x2CF5 DUP3 DUP3 PUSH2 0x2C81 JUMP JUMPDEST SWAP2 POP POP PUSH1 0x40 DUP4 ADD MLOAD PUSH2 0x2D0A PUSH1 0x40 DUP7 ADD DUP3 PUSH2 0x2A91 JUMP JUMPDEST POP PUSH1 0x60 DUP4 ADD MLOAD PUSH2 0x2D1D PUSH1 0x60 DUP7 ADD DUP3 PUSH2 0x2A91 JUMP JUMPDEST POP PUSH1 0x80 DUP4 ADD MLOAD PUSH2 0x2D30 PUSH1 0x80 DUP7 ADD DUP3 PUSH2 0x2CB9 JUMP JUMPDEST POP DUP1 SWAP2 POP POP SWAP3 SWAP2 POP POP JUMP JUMPDEST PUSH0 PUSH1 0x20 DUP3 ADD SWAP1 POP DUP2 DUP2 SUB PUSH0 DUP4 ADD MSTORE PUSH2 0x2D53 DUP2 DUP5 PUSH2 0x2CC8 JUMP JUMPDEST SWAP1 POP SWAP3 SWAP2 POP POP JUMP JUMPDEST PUSH2 0x2D64 DUP2 PUSH2 0x254B JUMP JUMPDEST DUP2 EQ PUSH2 0x2D6E JUMPI PUSH0 DUP1 REVERT JUMPDEST POP JUMP JUMPDEST PUSH0 DUP2 CALLDATALOAD SWAP1 POP PUSH2 0x2D7F DUP2 PUSH2 0x2D5B JUMP JUMPDEST SWAP3 SWAP2 POP POP JUMP JUMPDEST PUSH0 DUP1 PUSH1 0x40 DUP4 DUP6 SUB SLT ISZERO PUSH2 0x2D9B JUMPI PUSH2 0x2D9A PUSH2 0x23D0 JUMP JUMPDEST JUMPDEST PUSH0 PUSH2 0x2DA8 DUP6 DUP3 DUP7 ADD PUSH2 0x241E JUMP JUMPDEST SWAP3 POP POP PUSH1 0x20 PUSH2 0x2DB9 DUP6 DUP3 DUP7 ADD PUSH2 0x2D71 JUMP JUMPDEST SWAP2 POP POP SWAP3 POP SWAP3 SWAP1 POP JUMP JUMPDEST PUSH0 PUSH1 0x20 DUP3 DUP5 SUB SLT ISZERO PUSH2 0x2DD8 JUMPI PUSH2 0x2DD7 PUSH2 0x23D0 JUMP JUMPDEST JUMPDEST PUSH0 DUP3 ADD CALLDATALOAD PUSH8 0xFFFFFFFFFFFFFFFF DUP2 GT ISZERO PUSH2 0x2DF5 JUMPI PUSH2 0x2DF4 PUSH2 0x23D4 JUMP JUMPDEST JUMPDEST PUSH2 0x2E01 DUP5 DUP3 DUP6 ADD PUSH2 0x2BB0 JUMP JUMPDEST SWAP2 POP POP SWAP3 SWAP2 POP POP JUMP JUMPDEST PUSH0 DUP1 PUSH1 0x40 DUP4 DUP6 SUB SLT ISZERO PUSH2 0x2E20 JUMPI PUSH2 0x2E1F PUSH2 0x23D0 JUMP JUMPDEST JUMPDEST PUSH0 PUSH2 0x2E2D DUP6 DUP3 DUP7 ADD PUSH2 0x241E JUMP JUMPDEST SWAP3 POP POP PUSH1 0x20 PUSH2 0x2E3E DUP6 DUP3 DUP7 ADD PUSH2 0x241E JUMP JUMPDEST SWAP2 POP POP SWAP3 POP SWAP3 SWAP1 POP JUMP JUMPDEST PUSH0 DUP1 PUSH0 DUP1 PUSH0 PUSH1 0xA0 DUP7 DUP9 SUB SLT ISZERO PUSH2 0x2E61 JUMPI PUSH2 0x2E60 PUSH2 0x23D0 JUMP JUMPDEST JUMPDEST PUSH0 PUSH2 0x2E6E DUP9 DUP3 DUP10 ADD PUSH2 0x241E JUMP JUMPDEST SWAP6 POP POP PUSH1 0x20 PUSH2 0x2E7F DUP9 DUP3 DUP10 ADD PUSH2 0x241E JUMP JUMPDEST SWAP5 POP POP PUSH1 0x40 PUSH2 0x2E90 DUP9 DUP3 DUP10 ADD PUSH2 0x2451 JUMP JUMPDEST SWAP4 POP POP PUSH1 0x60 PUSH2 0x2EA1 DUP9 DUP3 DUP10 ADD PUSH2 0x2451 JUMP JUMPDEST SWAP3 POP POP PUSH1 0x80 DUP7 ADD CALLDATALOAD PUSH8 0xFFFFFFFFFFFFFFFF DUP2 GT ISZERO PUSH2 0x2EC2 JUMPI PUSH2 0x2EC1 PUSH2 0x23D4 JUMP JUMPDEST JUMPDEST PUSH2 0x2ECE DUP9 DUP3 DUP10 ADD PUSH2 0x283A JUMP JUMPDEST SWAP2 POP POP SWAP3 SWAP6 POP SWAP3 SWAP6 SWAP1 SWAP4 POP JUMP JUMPDEST PUSH2 0x2EE4 DUP2 PUSH2 0x24CB JUMP JUMPDEST DUP3 MSTORE POP POP JUMP JUMPDEST PUSH0 PUSH1 0x20 DUP3 ADD SWAP1 POP PUSH2 0x2EFD PUSH0 DUP4 ADD DUP5 PUSH2 0x2EDB JUMP JUMPDEST SWAP3 SWAP2 POP POP JUMP JUMPDEST PUSH0 PUSH1 0x20 DUP3 DUP5 SUB SLT ISZERO PUSH2 0x2F18 JUMPI PUSH2 0x2F17 PUSH2 0x23D0 JUMP JUMPDEST JUMPDEST PUSH0 PUSH2 0x2F25 DUP5 DUP3 DUP6 ADD PUSH2 0x241E JUMP JUMPDEST SWAP2 POP POP SWAP3 SWAP2 POP POP JUMP JUMPDEST PUSH32 0x455243313135353A2062616C616E636520717565727920666F7220746865207A PUSH0 DUP3 ADD MSTORE PUSH32 0x65726F2061646472657373000000000000000000000000000000000000000000 PUSH1 0x20 DUP3 ADD MSTORE POP JUMP JUMPDEST PUSH0 PUSH2 0x2F88 PUSH1 0x2B DUP4 PUSH2 0x25B3 JUMP JUMPDEST SWAP2 POP PUSH2 0x2F93 DUP3 PUSH2 0x2F2E JUMP JUMPDEST PUSH1 0x40 DUP3 ADD SWAP1 POP SWAP2 SWAP1 POP JUMP JUMPDEST PUSH0 PUSH1 0x20 DUP3 ADD SWAP1 POP DUP2 DUP2 SUB PUSH0 DUP4 ADD MSTORE PUSH2 0x2FB5 DUP2 PUSH2 0x2F7C JUMP JUMPDEST SWAP1 POP SWAP2 SWAP1 POP JUMP JUMPDEST PUSH32 0x4E487B7100000000000000000000000000000000000000000000000000000000 PUSH0 MSTORE PUSH1 0x22 PUSH1 0x4 MSTORE PUSH1 0x24 PUSH0 REVERT JUMPDEST PUSH0 PUSH1 0x2 DUP3 DIV SWAP1 POP PUSH1 0x1 DUP3 AND DUP1 PUSH2 0x3000 JUMPI PUSH1 0x7F DUP3 AND SWAP2 POP JUMPDEST PUSH1 0x20 DUP3 LT DUP2 SUB PUSH2 0x3013 JUMPI PUSH2 0x3012 PUSH2 0x2FBC JUMP JUMPDEST JUMPDEST POP SWAP2 SWAP1 POP JUMP JUMPDEST PUSH0 DUP2 SWAP1 POP SWAP3 SWAP2 POP POP JUMP JUMPDEST PUSH0 DUP2 SWAP1 POP DUP2 PUSH0 MSTORE PUSH1 0x20 PUSH0 KECCAK256 SWAP1 POP SWAP2 SWAP1 POP JUMP JUMPDEST PUSH0 DUP2 SLOAD PUSH2 0x3041 DUP2 PUSH2 0x2FE9 JUMP JUMPDEST PUSH2 0x304B DUP2 DUP7 PUSH2 0x3019 JUMP JUMPDEST SWAP5 POP PUSH1 0x1 DUP3 AND PUSH0 DUP2 EQ PUSH2 0x3065 JUMPI PUSH1 0x1 DUP2 EQ PUSH2 0x307A JUMPI PUSH2 0x30AC JUMP JUMPDEST PUSH1 0xFF NOT DUP4 AND DUP7 MSTORE DUP2 ISZERO ISZERO DUP3 MUL DUP7 ADD SWAP4 POP PUSH2 0x30AC JUMP JUMPDEST PUSH2 0x3083 DUP6 PUSH2 0x3023 JUMP JUMPDEST PUSH0 JUMPDEST DUP4 DUP2 LT ISZERO PUSH2 0x30A4 JUMPI DUP2 SLOAD DUP2 DUP10 ADD MSTORE PUSH1 0x1 DUP3 ADD SWAP2 POP PUSH1 0x20 DUP2 ADD SWAP1 POP PUSH2 0x3085 JUMP JUMPDEST DUP4 DUP9 ADD SWAP6 POP POP POP JUMPDEST POP POP POP SWAP3 SWAP2 POP POP JUMP JUMPDEST PUSH0 PUSH2 0x30C0 DUP3 DUP6 PUSH2 0x3035 JUMP JUMPDEST SWAP2 POP PUSH2 0x30CC DUP3 DUP5 PUSH2 0x3035 JUMP JUMPDEST SWAP2 POP DUP2 SWAP1 POP SWAP4 SWAP3 POP POP POP JUMP JUMPDEST PUSH32 0x4E487B7100000000000000000000000000000000000000000000000000000000 PUSH0 MSTORE PUSH1 0x11 PUSH1 0x4 MSTORE PUSH1 0x24 PUSH0 REVERT JUMPDEST PUSH0 PUSH2 0x310F DUP3 PUSH2 0x2432 JUMP JUMPDEST SWAP2 POP PUSH2 0x311A DUP4 PUSH2 0x2432 JUMP JUMPDEST SWAP3 POP DUP3 DUP3 MUL PUSH2 0x3128 DUP2 PUSH2 0x2432 JUMP JUMPDEST SWAP2 POP DUP3 DUP3 DIV DUP5 EQ DUP4 ISZERO OR PUSH2 0x313F JUMPI PUSH2 0x313E PUSH2 0x30D8 JUMP JUMPDEST JUMPDEST POP SWAP3 SWAP2 POP POP JUMP JUMPDEST PUSH32 0x6B6F206475206E66740000000000000000000000000000000000000000000000 PUSH0 DUP3 ADD MSTORE POP JUMP JUMPDEST PUSH0 PUSH2 0x317A PUSH1 0x9 DUP4 PUSH2 0x25B3 JUMP JUMPDEST SWAP2 POP PUSH2 0x3185 DUP3 PUSH2 0x3146 JUMP JUMPDEST PUSH1 0x20 DUP3 ADD SWAP1 POP SWAP2 SWAP1 POP JUMP JUMPDEST PUSH0 PUSH1 0x20 DUP3 ADD SWAP1 POP DUP2 DUP2 SUB PUSH0 DUP4 ADD MSTORE PUSH2 0x31A7 DUP2 PUSH2 0x316E JUMP JUMPDEST SWAP1 POP SWAP2 SWAP1 POP JUMP JUMPDEST PUSH32 0x4E6565647320746F2062652067726561746572206F7220657175616C20746F20 PUSH0 DUP3 ADD MSTORE PUSH32 0x7468652070726963652E00000000000000000000000000000000000000000000 PUSH1 0x20 DUP3 ADD MSTORE POP JUMP JUMPDEST PUSH0 PUSH2 0x3208 PUSH1 0x2A DUP4 PUSH2 0x25B3 JUMP JUMPDEST SWAP2 POP PUSH2 0x3213 DUP3 PUSH2 0x31AE JUMP JUMPDEST PUSH1 0x40 DUP3 ADD SWAP1 POP SWAP2 SWAP1 POP JUMP JUMPDEST PUSH0 PUSH1 0x20 DUP3 ADD SWAP1 POP DUP2 DUP2 SUB PUSH0 DUP4 ADD MSTORE PUSH2 0x3235 DUP2 PUSH2 0x31FC JUMP JUMPDEST SWAP1 POP SWAP2 SWAP1 POP JUMP JUMPDEST PUSH0 PUSH2 0x3246 DUP3 PUSH2 0x2432 JUMP JUMPDEST SWAP2 POP PUSH2 0x3251 DUP4 PUSH2 0x2432 JUMP JUMPDEST SWAP3 POP DUP3 DUP3 SUB SWAP1 POP DUP2 DUP2 GT ISZERO PUSH2 0x3269 JUMPI PUSH2 0x3268 PUSH2 0x30D8 JUMP JUMPDEST JUMPDEST SWAP3 SWAP2 POP POP JUMP JUMPDEST PUSH0 PUSH1 0x40 DUP3 ADD SWAP1 POP PUSH2 0x3282 PUSH0 DUP4 ADD DUP6 PUSH2 0x24A3 JUMP JUMPDEST PUSH2 0x328F PUSH1 0x20 DUP4 ADD DUP5 PUSH2 0x24A3 JUMP JUMPDEST SWAP4 SWAP3 POP POP POP JUMP JUMPDEST PUSH32 0x455243313135353A207472616E736665722063616C6C6572206973206E6F7420 PUSH0 DUP3 ADD MSTORE PUSH32 0x6F776E6572206E6F7220617070726F7665640000000000000000000000000000 PUSH1 0x20 DUP3 ADD MSTORE POP JUMP JUMPDEST PUSH0 PUSH2 0x32F0 PUSH1 0x32 DUP4 PUSH2 0x25B3 JUMP JUMPDEST SWAP2 POP PUSH2 0x32FB DUP3 PUSH2 0x3296 JUMP JUMPDEST PUSH1 0x40 DUP3 ADD SWAP1 POP SWAP2 SWAP1 POP JUMP JUMPDEST PUSH0 PUSH1 0x20 DUP3 ADD SWAP1 POP DUP2 DUP2 SUB PUSH0 DUP4 ADD MSTORE PUSH2 0x331D DUP2 PUSH2 0x32E4 JUMP JUMPDEST SWAP1 POP SWAP2 SWAP1 POP JUMP JUMPDEST PUSH32 0x455243313135353A206163636F756E747320616E6420696473206C656E677468 PUSH0 DUP3 ADD MSTORE PUSH32 0x206D69736D617463680000000000000000000000000000000000000000000000 PUSH1 0x20 DUP3 ADD MSTORE POP JUMP JUMPDEST PUSH0 PUSH2 0x337E PUSH1 0x29 DUP4 PUSH2 0x25B3 JUMP JUMPDEST SWAP2 POP PUSH2 0x3389 DUP3 PUSH2 0x3324 JUMP JUMPDEST PUSH1 0x40 DUP3 ADD SWAP1 POP SWAP2 SWAP1 POP JUMP JUMPDEST PUSH0 PUSH1 0x20 DUP3 ADD SWAP1 POP DUP2 DUP2 SUB PUSH0 DUP4 ADD MSTORE PUSH2 0x33AB DUP2 PUSH2 0x3372 JUMP JUMPDEST SWAP1 POP SWAP2 SWAP1 POP JUMP JUMPDEST PUSH32 0x4E487B7100000000000000000000000000000000000000000000000000000000 PUSH0 MSTORE PUSH1 0x32 PUSH1 0x4 MSTORE PUSH1 0x24 PUSH0 REVERT JUMPDEST PUSH0 PUSH2 0x33E9 DUP3 PUSH2 0x25A9 JUMP JUMPDEST PUSH2 0x33F3 DUP2 DUP6 PUSH2 0x3019 JUMP JUMPDEST SWAP4 POP PUSH2 0x3403 DUP2 DUP6 PUSH1 0x20 DUP7 ADD PUSH2 0x25C3 JUMP JUMPDEST DUP1 DUP5 ADD SWAP2 POP POP SWAP3 SWAP2 POP POP JUMP JUMPDEST PUSH0 PUSH2 0x341A DUP3 DUP5 PUSH2 0x33DF JUMP JUMPDEST SWAP2 POP DUP2 SWAP1 POP SWAP3 SWAP2 POP POP JUMP JUMPDEST PUSH32 0x54686520746F6B656E205552492073686F756C6420626520756E697175650000 PUSH0 DUP3 ADD MSTORE POP JUMP JUMPDEST PUSH0 PUSH2 0x3459 PUSH1 0x1E DUP4 PUSH2 0x25B3 JUMP JUMPDEST SWAP2 POP PUSH2 0x3464 DUP3 PUSH2 0x3425 JUMP JUMPDEST PUSH1 0x20 DUP3 ADD SWAP1 POP SWAP2 SWAP1 POP JUMP JUMPDEST PUSH0 PUSH1 0x20 DUP3 ADD SWAP1 POP DUP2 DUP2 SUB PUSH0 DUP4 ADD MSTORE PUSH2 0x3486 DUP2 PUSH2 0x344D JUMP JUMPDEST SWAP1 POP SWAP2 SWAP1 POP JUMP JUMPDEST PUSH32 0x5072696365206D75737420626520706F73697469766500000000000000000000 PUSH0 DUP3 ADD MSTORE POP JUMP JUMPDEST PUSH0 PUSH2 0x34C1 PUSH1 0x16 DUP4 PUSH2 0x25B3 JUMP JUMPDEST SWAP2 POP PUSH2 0x34CC DUP3 PUSH2 0x348D JUMP JUMPDEST PUSH1 0x20 DUP3 ADD SWAP1 POP SWAP2 SWAP1 POP JUMP JUMPDEST PUSH0 PUSH1 0x20 DUP3 ADD SWAP1 POP DUP2 DUP2 SUB PUSH0 DUP4 ADD MSTORE PUSH2 0x34EE DUP2 PUSH2 0x34B5 JUMP JUMPDEST SWAP1 POP SWAP2 SWAP1 POP JUMP JUMPDEST PUSH32 0x596F75722072656D61696E206D6F6E6579206E6F7420616C6C6F770000000000 PUSH0 DUP3 ADD MSTORE POP JUMP JUMPDEST PUSH0 PUSH2 0x3529 PUSH1 0x1B DUP4 PUSH2 0x25B3 JUMP JUMPDEST SWAP2 POP PUSH2 0x3534 DUP3 PUSH2 0x34F5 JUMP JUMPDEST PUSH1 0x20 DUP3 ADD SWAP1 POP SWAP2 SWAP1 POP JUMP JUMPDEST PUSH0 PUSH1 0x20 DUP3 ADD SWAP1 POP DUP2 DUP2 SUB PUSH0 DUP4 ADD MSTORE PUSH2 0x3556 DUP2 PUSH2 0x351D JUMP JUMPDEST SWAP1 POP SWAP2 SWAP1 POP JUMP JUMPDEST PUSH0 PUSH1 0x20 PUSH1 0x1F DUP4 ADD DIV SWAP1 POP SWAP2 SWAP1 POP JUMP JUMPDEST PUSH0 DUP3 DUP3 SHL SWAP1 POP SWAP3 SWAP2 POP POP JUMP JUMPDEST PUSH0 PUSH1 0x8 DUP4 MUL PUSH2 0x35A7 PUSH32 0xFFFFFFFFFFFFFFFFFFFFFFFFFFFFFFFFFFFFFFFFFFFFFFFFFFFFFFFFFFFFFFFF DUP3 PUSH2 0x356C JUMP JUMPDEST PUSH2 0x35B1 DUP7 DUP4 PUSH2 0x356C JUMP JUMPDEST SWAP6 POP DUP1 NOT DUP5 AND SWAP4 POP DUP1 DUP7 AND DUP5 OR SWAP3 POP POP POP SWAP4 SWAP3 POP POP POP JUMP JUMPDEST PUSH0 DUP2 SWAP1 POP SWAP2 SWAP1 POP JUMP JUMPDEST PUSH0 PUSH2 0x35EC PUSH2 0x35E7 PUSH2 0x35E2 DUP5 PUSH2 0x2432 JUMP JUMPDEST PUSH2 0x35C9 JUMP JUMPDEST PUSH2 0x2432 JUMP JUMPDEST SWAP1 POP SWAP2 SWAP1 POP JUMP JUMPDEST PUSH0 DUP2 SWAP1 POP SWAP2 SWAP1 POP JUMP JUMPDEST PUSH2 0x3605 DUP4 PUSH2 0x35D2 JUMP JUMPDEST PUSH2 0x3619 PUSH2 0x3611 DUP3 PUSH2 0x35F3 JUMP JUMPDEST DUP5 DUP5 SLOAD PUSH2 0x3578 JUMP JUMPDEST DUP3 SSTORE POP POP POP POP JUMP JUMPDEST PUSH0 SWAP1 JUMP JUMPDEST PUSH2 0x362D PUSH2 0x3621 JUMP JUMPDEST PUSH2 0x3638 DUP2 DUP5 DUP5 PUSH2 0x35FC JUMP JUMPDEST POP POP POP JUMP JUMPDEST JUMPDEST DUP2 DUP2 LT ISZERO PUSH2 0x365B JUMPI PUSH2 0x3650 PUSH0 DUP3 PUSH2 0x3625 JUMP JUMPDEST PUSH1 0x1 DUP2 ADD SWAP1 POP PUSH2 0x363E JUMP JUMPDEST POP POP JUMP JUMPDEST PUSH1 0x1F DUP3 GT ISZERO PUSH2 0x36A0 JUMPI PUSH2 0x3671 DUP2 PUSH2 0x3023 JUMP JUMPDEST PUSH2 0x367A DUP5 PUSH2 0x355D JUMP JUMPDEST DUP2 ADD PUSH1 0x20 DUP6 LT ISZERO PUSH2 0x3689 JUMPI DUP2 SWAP1 POP JUMPDEST PUSH2 0x369D PUSH2 0x3695 DUP6 PUSH2 0x355D JUMP JUMPDEST DUP4 ADD DUP3 PUSH2 0x363D JUMP JUMPDEST POP POP JUMPDEST POP POP POP JUMP JUMPDEST PUSH0 DUP3 DUP3 SHR SWAP1 POP SWAP3 SWAP2 POP POP JUMP JUMPDEST PUSH0 PUSH2 0x36C0 PUSH0 NOT DUP5 PUSH1 0x8 MUL PUSH2 0x36A5 JUMP JUMPDEST NOT DUP1 DUP4 AND SWAP2 POP POP SWAP3 SWAP2 POP POP JUMP JUMPDEST PUSH0 PUSH2 0x36D8 DUP4 DUP4 PUSH2 0x36B1 JUMP JUMPDEST SWAP2 POP DUP3 PUSH1 0x2 MUL DUP3 OR SWAP1 POP SWAP3 SWAP2 POP POP JUMP JUMPDEST PUSH2 0x36F1 DUP3 PUSH2 0x25A9 JUMP JUMPDEST PUSH8 0xFFFFFFFFFFFFFFFF DUP2 GT ISZERO PUSH2 0x370A JUMPI PUSH2 0x3709 PUSH2 0x267B JUMP JUMPDEST JUMPDEST PUSH2 0x3714 DUP3 SLOAD PUSH2 0x2FE9 JUMP JUMPDEST PUSH2 0x371F DUP3 DUP3 DUP6 PUSH2 0x365F JUMP JUMPDEST PUSH0 PUSH1 0x20 SWAP1 POP PUSH1 0x1F DUP4 GT PUSH1 0x1 DUP2 EQ PUSH2 0x3750 JUMPI PUSH0 DUP5 ISZERO PUSH2 0x373E JUMPI DUP3 DUP8 ADD MLOAD SWAP1 POP JUMPDEST PUSH2 0x3748 DUP6 DUP3 PUSH2 0x36CD JUMP JUMPDEST DUP7 SSTORE POP PUSH2 0x37AF JUMP JUMPDEST PUSH1 0x1F NOT DUP5 AND PUSH2 0x375E DUP7 PUSH2 0x3023 JUMP JUMPDEST PUSH0 JUMPDEST DUP3 DUP2 LT ISZERO PUSH2 0x3785 JUMPI DUP5 DUP10 ADD MLOAD DUP3 SSTORE PUSH1 0x1 DUP3 ADD SWAP2 POP PUSH1 0x20 DUP6 ADD SWAP5 POP PUSH1 0x20 DUP2 ADD SWAP1 POP PUSH2 0x3760 JUMP JUMPDEST DUP7 DUP4 LT ISZERO PUSH2 0x37A2 JUMPI DUP5 DUP10 ADD MLOAD PUSH2 0x379E PUSH1 0x1F DUP10 AND DUP3 PUSH2 0x36B1 JUMP JUMPDEST DUP4 SSTORE POP JUMPDEST PUSH1 0x1 PUSH1 0x2 DUP9 MUL ADD DUP9 SSTORE POP POP POP JUMPDEST POP POP POP POP POP POP JUMP JUMPDEST PUSH0 PUSH1 0x80 DUP3 ADD SWAP1 POP DUP2 DUP2 SUB PUSH0 DUP4 ADD MSTORE PUSH2 0x37CF DUP2 DUP8 PUSH2 0x25E1 JUMP JUMPDEST SWAP1 POP PUSH2 0x37DE PUSH1 0x20 DUP4 ADD DUP7 PUSH2 0x24A3 JUMP JUMPDEST PUSH2 0x37EB PUSH1 0x40 DUP4 ADD DUP6 PUSH2 0x24A3 JUMP JUMPDEST PUSH2 0x37F8 PUSH1 0x60 DUP4 ADD DUP5 PUSH2 0x2C49 JUMP JUMPDEST SWAP6 SWAP5 POP POP POP POP POP JUMP JUMPDEST PUSH32 0x4F776E61626C653A2063616C6C6572206973206E6F7420746865206F776E6572 PUSH0 DUP3 ADD MSTORE POP JUMP JUMPDEST PUSH0 PUSH2 0x3835 PUSH1 0x20 DUP4 PUSH2 0x25B3 JUMP JUMPDEST SWAP2 POP PUSH2 0x3840 DUP3 PUSH2 0x3801 JUMP JUMPDEST PUSH1 0x20 DUP3 ADD SWAP1 POP SWAP2 SWAP1 POP JUMP JUMPDEST PUSH0 PUSH1 0x20 DUP3 ADD SWAP1 POP DUP2 DUP2 SUB PUSH0 DUP4 ADD MSTORE PUSH2 0x3862 DUP2 PUSH2 0x3829 JUMP JUMPDEST SWAP1 POP SWAP2 SWAP1 POP JUMP JUMPDEST PUSH0 PUSH2 0x3873 DUP3 PUSH2 0x2432 JUMP JUMPDEST SWAP2 POP PUSH2 0x387E DUP4 PUSH2 0x2432 JUMP JUMPDEST SWAP3 POP DUP3 DUP3 ADD SWAP1 POP DUP1 DUP3 GT ISZERO PUSH2 0x3896 JUMPI PUSH2 0x3895 PUSH2 0x30D8 JUMP JUMPDEST JUMPDEST SWAP3 SWAP2 POP POP JUMP JUMPDEST PUSH32 0x455243313135353A2073657474696E6720617070726F76616C20737461747573 PUSH0 DUP3 ADD MSTORE PUSH32 0x20666F722073656C660000000000000000000000000000000000000000000000 PUSH1 0x20 DUP3 ADD MSTORE POP JUMP JUMPDEST PUSH0 PUSH2 0x38F6 PUSH1 0x29 DUP4 PUSH2 0x25B3 JUMP JUMPDEST SWAP2 POP PUSH2 0x3901 DUP3 PUSH2 0x389C JUMP JUMPDEST PUSH1 0x40 DUP3 ADD SWAP1 POP SWAP2 SWAP1 POP JUMP JUMPDEST PUSH0 PUSH1 0x20 DUP3 ADD SWAP1 POP DUP2 DUP2 SUB PUSH0 DUP4 ADD MSTORE PUSH2 0x3923 DUP2 PUSH2 0x38EA JUMP JUMPDEST SWAP1 POP SWAP2 SWAP1 POP JUMP JUMPDEST PUSH32 0x54686520746F6B656E205552492073686F756C64206265206D696E7400000000 PUSH0 DUP3 ADD MSTORE POP JUMP JUMPDEST PUSH0 PUSH2 0x395E PUSH1 0x1C DUP4 PUSH2 0x25B3 JUMP JUMPDEST SWAP2 POP PUSH2 0x3969 DUP3 PUSH2 0x392A JUMP JUMPDEST PUSH1 0x20 DUP3 ADD SWAP1 POP SWAP2 SWAP1 POP JUMP JUMPDEST PUSH0 PUSH1 0x20 DUP3 ADD SWAP1 POP DUP2 DUP2 SUB PUSH0 DUP4 ADD MSTORE PUSH2 0x398B DUP2 PUSH2 0x3952 JUMP JUMPDEST SWAP1 POP SWAP2 SWAP1 POP JUMP JUMPDEST PUSH32 0x455243313135353A2063616C6C6572206973206E6F74206F776E6572206E6F72 PUSH0 DUP3 ADD MSTORE PUSH32 0x20617070726F7665640000000000000000000000000000000000000000000000 PUSH1 0x20 DUP3 ADD MSTORE POP JUMP JUMPDEST PUSH0 PUSH2 0x39EC PUSH1 0x29 DUP4 PUSH2 0x25B3 JUMP JUMPDEST SWAP2 POP PUSH2 0x39F7 DUP3 PUSH2 0x3992 JUMP JUMPDEST PUSH1 0x40 DUP3 ADD SWAP1 POP SWAP2 SWAP1 POP JUMP JUMPDEST PUSH0 PUSH1 0x20 DUP3 ADD SWAP1 POP DUP2 DUP2 SUB PUSH0 DUP4 ADD MSTORE PUSH2 0x3A19 DUP2 PUSH2 0x39E0 JUMP JUMPDEST SWAP1 POP SWAP2 SWAP1 POP JUMP JUMPDEST PUSH32 0x4F776E61626C653A206E6577206F776E657220697320746865207A65726F2061 PUSH0 DUP3 ADD MSTORE PUSH32 0x6464726573730000000000000000000000000000000000000000000000000000 PUSH1 0x20 DUP3 ADD MSTORE POP JUMP JUMPDEST PUSH0 PUSH2 0x3A7A PUSH1 0x26 DUP4 PUSH2 0x25B3 JUMP JUMPDEST SWAP2 POP PUSH2 0x3A85 DUP3 PUSH2 0x3A20 JUMP JUMPDEST PUSH1 0x40 DUP3 ADD SWAP1 POP SWAP2 SWAP1 POP JUMP JUMPDEST PUSH0 PUSH1 0x20 DUP3 ADD SWAP1 POP DUP2 DUP2 SUB PUSH0 DUP4 ADD MSTORE PUSH2 0x3AA7 DUP2 PUSH2 0x3A6E JUMP JUMPDEST SWAP1 POP SWAP2 SWAP1 POP JUMP JUMPDEST PUSH32 0x455243313135353A2069647320616E6420616D6F756E7473206C656E67746820 PUSH0 DUP3 ADD MSTORE PUSH32 0x6D69736D61746368000000000000000000000000000000000000000000000000 PUSH1 0x20 DUP3 ADD MSTORE POP JUMP JUMPDEST PUSH0 PUSH2 0x3B08 PUSH1 0x28 DUP4 PUSH2 0x25B3 JUMP JUMPDEST SWAP2 POP PUSH2 0x3B13 DUP3 PUSH2 0x3AAE JUMP JUMPDEST PUSH1 0x40 DUP3 ADD SWAP1 POP SWAP2 SWAP1 POP JUMP JUMPDEST PUSH0 PUSH1 0x20 DUP3 ADD SWAP1 POP DUP2 DUP2 SUB PUSH0 DUP4 ADD MSTORE PUSH2 0x3B35 DUP2 PUSH2 0x3AFC JUMP JUMPDEST SWAP1 POP SWAP2 SWAP1 POP JUMP JUMPDEST PUSH32 0x455243313135353A207472616E7366657220746F20746865207A65726F206164 PUSH0 DUP3 ADD MSTORE PUSH32 0x6472657373000000000000000000000000000000000000000000000000000000 PUSH1 0x20 DUP3 ADD MSTORE POP JUMP JUMPDEST PUSH0 PUSH2 0x3B96 PUSH1 0x25 DUP4 PUSH2 0x25B3 JUMP JUMPDEST SWAP2 POP PUSH2 0x3BA1 DUP3 PUSH2 0x3B3C JUMP JUMPDEST PUSH1 0x40 DUP3 ADD SWAP1 POP SWAP2 SWAP1 POP JUMP JUMPDEST PUSH0 PUSH1 0x20 DUP3 ADD SWAP1 POP DUP2 DUP2 SUB PUSH0 DUP4 ADD MSTORE PUSH2 0x3BC3 DUP2 PUSH2 0x3B8A JUMP JUMPDEST SWAP1 POP SWAP2 SWAP1 POP JUMP JUMPDEST PUSH32 0x455243313135353A20696E73756666696369656E742062616C616E636520666F PUSH0 DUP3 ADD MSTORE PUSH32 0x72207472616E7366657200000000000000000000000000000000000000000000 PUSH1 0x20 DUP3 ADD MSTORE POP JUMP JUMPDEST PUSH0 PUSH2 0x3C24 PUSH1 0x2A DUP4 PUSH2 0x25B3 JUMP JUMPDEST SWAP2 POP PUSH2 0x3C2F DUP3 PUSH2 0x3BCA JUMP JUMPDEST PUSH1 0x40 DUP3 ADD SWAP1 POP SWAP2 SWAP1 POP JUMP JUMPDEST PUSH0 PUSH1 0x20 DUP3 ADD SWAP1 POP DUP2 DUP2 SUB PUSH0 DUP4 ADD MSTORE PUSH2 0x3C51 DUP2 PUSH2 0x3C18 JUMP JUMPDEST SWAP1 POP SWAP2 SWAP1 POP JUMP JUMPDEST PUSH0 PUSH1 0x40 DUP3 ADD SWAP1 POP DUP2 DUP2 SUB PUSH0 DUP4 ADD MSTORE PUSH2 0x3C70 DUP2 DUP6 PUSH2 0x2AC3 JUMP JUMPDEST SWAP1 POP DUP2 DUP2 SUB PUSH1 0x20 DUP4 ADD MSTORE PUSH2 0x3C84 DUP2 DUP5 PUSH2 0x2AC3 JUMP JUMPDEST SWAP1 POP SWAP4 SWAP3 POP POP POP JUMP JUMPDEST PUSH32 0x455243313135353A206D696E7420746F20746865207A65726F20616464726573 PUSH0 DUP3 ADD MSTORE PUSH32 0x7300000000000000000000000000000000000000000000000000000000000000 PUSH1 0x20 DUP3 ADD MSTORE POP JUMP JUMPDEST PUSH0 PUSH2 0x3CE7 PUSH1 0x21 DUP4 PUSH2 0x25B3 JUMP JUMPDEST SWAP2 POP PUSH2 0x3CF2 DUP3 PUSH2 0x3C8D JUMP JUMPDEST PUSH1 0x40 DUP3 ADD SWAP1 POP SWAP2 SWAP1 POP JUMP JUMPDEST PUSH0 PUSH1 0x20 DUP3 ADD SWAP1 POP DUP2 DUP2 SUB PUSH0 DUP4 ADD MSTORE PUSH2 0x3D14 DUP2 PUSH2 0x3CDB JUMP JUMPDEST SWAP1 POP SWAP2 SWAP1 POP JUMP JUMPDEST PUSH0 DUP2 MLOAD SWAP1 POP SWAP2 SWAP1 POP JUMP JUMPDEST PUSH0 DUP3 DUP3 MSTORE PUSH1 0x20 DUP3 ADD SWAP1 POP SWAP3 SWAP2 POP POP JUMP JUMPDEST PUSH0 PUSH2 0x3D3F DUP3 PUSH2 0x3D1B JUMP JUMPDEST PUSH2 0x3D49 DUP2 DUP6 PUSH2 0x3D25 JUMP JUMPDEST SWAP4 POP PUSH2 0x3D59 DUP2 DUP6 PUSH1 0x20 DUP7 ADD PUSH2 0x25C3 JUMP JUMPDEST PUSH2 0x3D62 DUP2 PUSH2 0x25D1 JUMP JUMPDEST DUP5 ADD SWAP2 POP POP SWAP3 SWAP2 POP POP JUMP JUMPDEST PUSH0 PUSH1 0xA0 DUP3 ADD SWAP1 POP PUSH2 0x3D80 PUSH0 DUP4 ADD DUP9 PUSH2 0x2C49 JUMP JUMPDEST PUSH2 0x3D8D PUSH1 0x20 DUP4 ADD DUP8 PUSH2 0x2C49 JUMP JUMPDEST DUP2 DUP2 SUB PUSH1 0x40 DUP4 ADD MSTORE PUSH2 0x3D9F DUP2 DUP7 PUSH2 0x2AC3 JUMP JUMPDEST SWAP1 POP DUP2 DUP2 SUB PUSH1 0x60 DUP4 ADD MSTORE PUSH2 0x3DB3 DUP2 DUP6 PUSH2 0x2AC3 JUMP JUMPDEST SWAP1 POP DUP2 DUP2 SUB PUSH1 0x80 DUP4 ADD MSTORE PUSH2 0x3DC7 DUP2 DUP5 PUSH2 0x3D35 JUMP JUMPDEST SWAP1 POP SWAP7 SWAP6 POP POP POP POP POP POP JUMP JUMPDEST PUSH0 DUP2 MLOAD SWAP1 POP PUSH2 0x3DE1 DUP2 PUSH2 0x24F6 JUMP JUMPDEST SWAP3 SWAP2 POP POP JUMP JUMPDEST PUSH0 PUSH1 0x20 DUP3 DUP5 SUB SLT ISZERO PUSH2 0x3DFC JUMPI PUSH2 0x3DFB PUSH2 0x23D0 JUMP JUMPDEST JUMPDEST PUSH0 PUSH2 0x3E09 DUP5 DUP3 DUP6 ADD PUSH2 0x3DD3 JUMP JUMPDEST SWAP2 POP POP SWAP3 SWAP2 POP POP JUMP JUMPDEST PUSH0 DUP2 PUSH1 0xE0 SHR SWAP1 POP SWAP2 SWAP1 POP JUMP JUMPDEST PUSH0 PUSH1 0x3 RETURNDATASIZE GT ISZERO PUSH2 0x3E3A JUMPI PUSH1 0x4 PUSH0 DUP1 RETURNDATACOPY PUSH2 0x3E37 PUSH0 MLOAD PUSH2 0x3E12 JUMP JUMPDEST SWAP1 POP JUMPDEST SWAP1 JUMP JUMPDEST PUSH0 PUSH1 0x44 RETURNDATASIZE LT PUSH2 0x3EC9 JUMPI PUSH2 0x3E4E PUSH2 0x23C7 JUMP JUMPDEST PUSH1 0x4 RETURNDATASIZE SUB PUSH1 0x4 DUP3 RETURNDATACOPY DUP1 MLOAD RETURNDATASIZE PUSH1 0x24 DUP3 ADD GT PUSH8 0xFFFFFFFFFFFFFFFF DUP3 GT OR ISZERO PUSH2 0x3E76 JUMPI POP POP PUSH2 0x3EC9 JUMP JUMPDEST DUP1 DUP3 ADD DUP1 MLOAD PUSH8 0xFFFFFFFFFFFFFFFF DUP2 GT ISZERO PUSH2 0x3E94 JUMPI POP POP POP POP PUSH2 0x3EC9 JUMP JUMPDEST DUP1 PUSH1 0x20 DUP4 ADD ADD PUSH1 0x4 RETURNDATASIZE SUB DUP6 ADD DUP2 GT ISZERO PUSH2 0x3EB1 JUMPI POP POP POP POP POP PUSH2 0x3EC9 JUMP JUMPDEST PUSH2 0x3EC0 DUP3 PUSH1 0x20 ADD DUP6 ADD DUP7 PUSH2 0x26A8 JUMP JUMPDEST DUP3 SWAP6 POP POP POP POP POP POP JUMPDEST SWAP1 JUMP JUMPDEST PUSH32 0x455243313135353A207472616E7366657220746F206E6F6E2045524331313535 PUSH0 DUP3 ADD MSTORE PUSH32 0x526563656976657220696D706C656D656E746572000000000000000000000000 PUSH1 0x20 DUP3 ADD MSTORE POP JUMP JUMPDEST PUSH0 PUSH2 0x3F26 PUSH1 0x34 DUP4 PUSH2 0x25B3 JUMP JUMPDEST SWAP2 POP PUSH2 0x3F31 DUP3 PUSH2 0x3ECC JUMP JUMPDEST PUSH1 0x40 DUP3 ADD SWAP1 POP SWAP2 SWAP1 POP JUMP JUMPDEST PUSH0 PUSH1 0x20 DUP3 ADD SWAP1 POP DUP2 DUP2 SUB PUSH0 DUP4 ADD MSTORE PUSH2 0x3F53 DUP2 PUSH2 0x3F1A JUMP JUMPDEST SWAP1 POP SWAP2 SWAP1 POP JUMP JUMPDEST PUSH32 0x455243313135353A204552433131353552656365697665722072656A65637465 PUSH0 DUP3 ADD MSTORE PUSH32 0x6420746F6B656E73000000000000000000000000000000000000000000000000 PUSH1 0x20 DUP3 ADD MSTORE POP JUMP JUMPDEST PUSH0 PUSH2 0x3FB4 PUSH1 0x28 DUP4 PUSH2 0x25B3 JUMP JUMPDEST SWAP2 POP PUSH2 0x3FBF DUP3 PUSH2 0x3F5A JUMP JUMPDEST PUSH1 0x40 DUP3 ADD SWAP1 POP SWAP2 SWAP1 POP JUMP JUMPDEST PUSH0 PUSH1 0x20 DUP3 ADD SWAP1 POP DUP2 DUP2 SUB PUSH0 DUP4 ADD MSTORE PUSH2 0x3FE1 DUP2 PUSH2 0x3FA8 JUMP JUMPDEST SWAP1 POP SWAP2 SWAP1 POP JUMP JUMPDEST PUSH0 PUSH1 0xA0 DUP3 ADD SWAP1 POP PUSH2 0x3FFB PUSH0 DUP4 ADD DUP9 PUSH2 0x2C49 JUMP JUMPDEST PUSH2 0x4008 PUSH1 0x20 DUP4 ADD DUP8 PUSH2 0x2C49 JUMP JUMPDEST PUSH2 0x4015 PUSH1 0x40 DUP4 ADD DUP7 PUSH2 0x24A3 JUMP JUMPDEST PUSH2 0x4022 PUSH1 0x60 DUP4 ADD DUP6 PUSH2 0x24A3 JUMP JUMPDEST DUP2 DUP2 SUB PUSH1 0x80 DUP4 ADD MSTORE PUSH2 0x4034 DUP2 DUP5 PUSH2 0x3D35 JUMP JUMPDEST SWAP1 POP SWAP7 SWAP6 POP POP POP POP POP POP JUMP INVALID LOG2 PUSH5 0x6970667358 0x22 SLT KECCAK256 BYTE 0xAA 0xC0 0xBD 0xCD 0x2B 0xB2 BALANCE LOG2 0xC0 SHL ADD EXP 0xDA BLOBHASH DUP15 PUSH22 0xE73469F0B3302B2CE493F97BD1347064736F6C634300 ADDMOD BYTE STOP CALLER "
	},
	"Assembly": ".code\n  PUSH 80\t\t\tcontract MusicTuneVibe is ERC1...\n  PUSH 40\t\t\tcontract MusicTuneVibe is ERC1...\n  MSTORE \t\t\tcontract MusicTuneVibe is ERC1...\n  PUSH 0\t\t\t0 ether\n  PUSH 7\t\t\tuint256 marketFee = 0 ether\n  SSTORE \t\t\tuint256 marketFee = 0 ether\n  CALLVALUE \t\t\tconstructor(\\n        string m...\n  DUP1 \t\t\tconstructor(\\n        string m...\n  ISZERO \t\t\tconstructor(\\n        string m...\n  PUSH [tag] 1\t\t\tconstructor(\\n        string m...\n  JUMPI \t\t\tconstructor(\\n        string m...\n  PUSH 0\t\t\tconstructor(\\n        string m...\n  DUP1 \t\t\tconstructor(\\n        string m...\n  REVERT \t\t\tconstructor(\\n        string m...\ntag 1\t\t\tconstructor(\\n        string m...\n  JUMPDEST \t\t\tconstructor(\\n        string m...\n  POP \t\t\tconstructor(\\n        string m...\n  PUSH 40\t\t\tconstructor(\\n        string m...\n  MLOAD \t\t\tconstructor(\\n        string m...\n  PUSHSIZE \t\t\tconstructor(\\n        string m...\n  CODESIZE \t\t\tconstructor(\\n        string m...\n  SUB \t\t\tconstructor(\\n        string m...\n  DUP1 \t\t\tconstructor(\\n        string m...\n  PUSHSIZE \t\t\tconstructor(\\n        string m...\n  DUP4 \t\t\tconstructor(\\n        string m...\n  CODECOPY \t\t\tconstructor(\\n        string m...\n  DUP2 \t\t\tconstructor(\\n        string m...\n  DUP2 \t\t\tconstructor(\\n        string m...\n  ADD \t\t\tconstructor(\\n        string m...\n  PUSH 40\t\t\tconstructor(\\n        string m...\n  MSTORE \t\t\tconstructor(\\n        string m...\n  DUP2 \t\t\tconstructor(\\n        string m...\n  ADD \t\t\tconstructor(\\n        string m...\n  SWAP1 \t\t\tconstructor(\\n        string m...\n  PUSH [tag] 2\t\t\tconstructor(\\n        string m...\n  SWAP2 \t\t\tconstructor(\\n        string m...\n  SWAP1 \t\t\tconstructor(\\n        string m...\n  PUSH [tag] 3\t\t\tconstructor(\\n        string m...\n  JUMP \t\t\tconstructor(\\n        string m...\ntag 2\t\t\tconstructor(\\n        string m...\n  JUMPDEST \t\t\tconstructor(\\n        string m...\n  PUSH 40\t\t\try _ipfs\\n    ) ERC1155(\"\") Ow...\n  MLOAD \t\t\try _ipfs\\n    ) ERC1155(\"\") Ow...\n  DUP1 \t\t\try _ipfs\\n    ) ERC1155(\"\") Ow...\n  PUSH 20\t\t\try _ipfs\\n    ) ERC1155(\"\") Ow...\n  ADD \t\t\try _ipfs\\n    ) ERC1155(\"\") Ow...\n  PUSH 40\t\t\try _ipfs\\n    ) ERC1155(\"\") Ow...\n  MSTORE \t\t\try _ipfs\\n    ) ERC1155(\"\") Ow...\n  DUP1 \t\t\try _ipfs\\n    ) ERC1155(\"\") Ow...\n  PUSH 0\t\t\try _ipfs\\n    ) ERC1155(\"\") Ow...\n  DUP2 \t\t\try _ipfs\\n    ) ERC1155(\"\") Ow...\n  MSTORE \t\t\try _ipfs\\n    ) ERC1155(\"\") Ow...\n  POP \t\t\try _ipfs\\n    ) ERC1155(\"\") Ow...\n  PUSH [tag] 8\t\t\t     IPFS_PAT\n  DUP2 \t\t\tS_PA\n  PUSH [tag] 9\t\t\t     IP\n  PUSH 20\t\t\t     IP\n  SHL \t\t\t     IP\n  PUSH 20\t\t\t     IPFS_PAT\n  SHR \t\t\t     IPFS_PAT\n  JUMP \t\t\t     IPFS_PAT\ntag 8\t\t\t     IPFS_PAT\n  JUMPDEST \t\t\t     IPFS_PAT\n  POP \t\t\try _ipfs\\n    ) ERC1155(\"\") Ow...\n  PUSH [tag] 11\t\t\t\\n    event BuyMusicNFT(\n  PUSH [tag] 12\t\t\t BuyMusicNFT\n  PUSH [tag] 13\t\t\t BuyMusicN\n  PUSH 20\t\t\t BuyMusicN\n  SHL \t\t\t BuyMusicN\n  PUSH 20\t\t\t BuyMusicNFT\n  SHR \t\t\t BuyMusicNFT\n  JUMP \t\t\t BuyMusicNFT\ntag 12\t\t\t BuyMusicNFT\n  JUMPDEST \t\t\t BuyMusicNFT\n  PUSH [tag] 14\t\t\t\\n    even\n  PUSH 20\t\t\t\\n    even\n  SHL \t\t\t\\n    even\n  PUSH 20\t\t\t\\n    event BuyMusicNFT(\n  SHR \t\t\t\\n    event BuyMusicNFT(\n  JUMP \t\t\t\\n    event BuyMusicNFT(\ntag 11\t\t\t\\n    event BuyMusicNFT(\n  JUMPDEST \t\t\t\\n    event BuyMusicNFT(\n  DUP1 \t\t\t_ipfs\n  PUSH 5\t\t\tIPFS_PATH\n  SWAP1 \t\t\tIPFS_PATH = _ipfs\n  DUP2 \t\t\tIPFS_PATH = _ipfs\n  PUSH [tag] 16\t\t\tIPFS_PATH = _ipfs\n  SWAP2 \t\t\tIPFS_PATH = _ipfs\n  SWAP1 \t\t\tIPFS_PATH = _ipfs\n  PUSH [tag] 17\t\t\tIPFS_PATH = _ipfs\n  JUMP \t\t\tIPFS_PATH = _ipfs\ntag 16\t\t\tIPFS_PATH = _ipfs\n  JUMPDEST \t\t\tIPFS_PATH = _ipfs\n  POP \t\t\tIPFS_PATH = _ipfs\n  CALLER \t\t\tmsg.sender\n  PUSH 6\t\t\t_owner\n  PUSH 0\t\t\t_owner\n  PUSH 100\t\t\t_owner = msg.sender\n  EXP \t\t\t_owner = msg.sender\n  DUP2 \t\t\t_owner = msg.sender\n  SLOAD \t\t\t_owner = msg.sender\n  DUP2 \t\t\t_owner = msg.sender\n  PUSH FFFFFFFFFFFFFFFFFFFFFFFFFFFFFFFFFFFFFFFF\t\t\t_owner = msg.sender\n  MUL \t\t\t_owner = msg.sender\n  NOT \t\t\t_owner = msg.sender\n  AND \t\t\t_owner = msg.sender\n  SWAP1 \t\t\t_owner = msg.sender\n  DUP4 \t\t\t_owner = msg.sender\n  PUSH FFFFFFFFFFFFFFFFFFFFFFFFFFFFFFFFFFFFFFFF\t\t\t_owner = msg.sender\n  AND \t\t\t_owner = msg.sender\n  MUL \t\t\t_owner = msg.sender\n  OR \t\t\t_owner = msg.sender\n  SWAP1 \t\t\t_owner = msg.sender\n  SSTORE \t\t\t_owner = msg.sender\n  POP \t\t\t_owner = msg.sender\n  POP \t\t\tconstructor(\\n        string m...\n  PUSH [tag] 18\t\t\tcontract MusicTuneVibe is ERC1...\n  JUMP \t\t\tcontract MusicTuneVibe is ERC1...\ntag 9\t\t\t\n  JUMPDEST \t\t\t\n  DUP1 \t\t\t\n  PUSH 2\t\t\t\n  SWAP1 \t\t\t\n  DUP2 \t\t\t\n  PUSH [tag] 20\t\t\t\n  SWAP2 \t\t\t\n  SWAP1 \t\t\t\n  PUSH [tag] 17\t\t\t\n  JUMP \t\t\t\ntag 20\t\t\t\n  JUMPDEST \t\t\t\n  POP \t\t\t\n  POP \t\t\t\n  JUMP \t\t\t\ntag 13\t\t\tCreated(\\n        uint256 inde...\n  JUMPDEST \t\t\tCreated(\\n        uint256 inde...\n  PUSH 0\t\t\ting uri\n  CALLER \t\t\tmount,\\n   \n  SWAP1 \t\t\tnt256 amount,\\n   \n  POP \t\t\tnt256 amount,\\n   \n  SWAP1 \t\t\tCreated(\\n        uint256 inde...\n  JUMP \t\t\tCreated(\\n        uint256 inde...\ntag 14\t\t\t[_token] = true;\\n\\n        em...\n  JUMPDEST \t\t\t[_token] = true;\\n\\n        em...\n  PUSH 0\t\t\t     _id,\\n      \n  PUSH 3\t\t\t   _to\n  PUSH 0\t\t\t   _to\n  SWAP1 \t\t\t   _to\n  SLOAD \t\t\t   _to\n  SWAP1 \t\t\t   _to\n  PUSH 100\t\t\t   _to\n  EXP \t\t\t   _to\n  SWAP1 \t\t\t   _to\n  DIV \t\t\t   _to\n  PUSH FFFFFFFFFFFFFFFFFFFFFFFFFFFFFFFFFFFFFFFF\t\t\t   _to\n  AND \t\t\t   _to\n  SWAP1 \t\t\t     _id,\\n            _to\n  POP \t\t\t     _id,\\n            _to\n  DUP2 \t\t\tmount,\\n \n  PUSH 3\t\t\t      \n  PUSH 0\t\t\t      \n  PUSH 100\t\t\t       _amount,\\n \n  EXP \t\t\t       _amount,\\n \n  DUP2 \t\t\t       _amount,\\n \n  SLOAD \t\t\t       _amount,\\n \n  DUP2 \t\t\t       _amount,\\n \n  PUSH FFFFFFFFFFFFFFFFFFFFFFFFFFFFFFFFFFFFFFFF\t\t\t       _amount,\\n \n  MUL \t\t\t       _amount,\\n \n  NOT \t\t\t       _amount,\\n \n  AND \t\t\t       _amount,\\n \n  SWAP1 \t\t\t       _amount,\\n \n  DUP4 \t\t\t       _amount,\\n \n  PUSH FFFFFFFFFFFFFFFFFFFFFFFFFFFFFFFFFFFFFFFF\t\t\t       _amount,\\n \n  AND \t\t\t       _amount,\\n \n  MUL \t\t\t       _amount,\\n \n  OR \t\t\t       _amount,\\n \n  SWAP1 \t\t\t       _amount,\\n \n  SSTORE \t\t\t       _amount,\\n \n  POP \t\t\t       _amount,\\n \n  DUP2 \t\t\tder)\\n   \n  PUSH FFFFFFFFFFFFFFFFFFFFFFFFFFFFFFFFFFFFFFFF\t\t\tce,\\n            address(msg.s...\n  AND \t\t\tce,\\n            address(msg.s...\n  DUP2 \t\t\tss(msg.s\n  PUSH FFFFFFFFFFFFFFFFFFFFFFFFFFFFFFFFFFFFFFFF\t\t\tce,\\n            address(msg.s...\n  AND \t\t\tce,\\n            address(msg.s...\n  PUSH 8BE0079C531659141344CD1FD0A4F28419497F9722A3DAAFE3B4186F6B6457E0\t\t\tce,\\n            address(msg.s...\n  PUSH 40\t\t\tce,\\n            address(msg.s...\n  MLOAD \t\t\tce,\\n            address(msg.s...\n  PUSH 40\t\t\tce,\\n            address(msg.s...\n  MLOAD \t\t\tce,\\n            address(msg.s...\n  DUP1 \t\t\tce,\\n            address(msg.s...\n  SWAP2 \t\t\tce,\\n            address(msg.s...\n  SUB \t\t\tce,\\n            address(msg.s...\n  SWAP1 \t\t\tce,\\n            address(msg.s...\n  LOG3 \t\t\tce,\\n            address(msg.s...\n  POP \t\t\td(\\n            _id,\\n        ...\n  POP \t\t\t[_token] = true;\\n\\n        em...\n  JUMP \t\t\t[_token] = true;\\n\\n        em...\ntag 23\t\t\t-License-Identifier: MIT\\nprag...\n  JUMPDEST \t\t\t-License-Identifier: MIT\\nprag...\n  PUSH 0\t\t\tolidit\n  PUSH 40\t\t\tpe\n  MLOAD \t\t\tpenzeppel\n  SWAP1 \t\t\timport \"@openzeppel\n  POP \t\t\timport \"@openzeppel\n  SWAP1 \t\t\t-License-Identifier: MIT\\nprag...\n  JUMP \t\t\t-License-Identifier: MIT\\nprag...\ntag 24\t\t\t@4.2.0/token/ERC1155/ERC1155.s...\n  JUMPDEST \t\t\t@4.2.0/token/ERC1155/ERC1155.s...\n  PUSH 0\t\t\tp\n  DUP1 \t\t\tz\n  REVERT \t\t\t \"@openzeppe\ntag 25\t\t\ts@4.2.0/access/Ownable.sol\";\\n...\n  JUMPDEST \t\t\ts@4.2.0/access/Ownable.sol\";\\n...\n  PUSH 0\t\t\t\\n\n  DUP1 \t\t\t\"\n  REVERT \t\t\tver.sol\";\\n\\nc\ntag 26\t\t\tcTuneVibe is ERC1155, Ownable{...\n  JUMPDEST \t\t\tcTuneVibe is ERC1155, Ownable{...\n  PUSH 0\t\t\t\\n\n  DUP1 \t\t\te\n  REVERT \t\t\tte _owner;\\n \ntag 27\t\t\tarketFee = 0 ether;\\n\\n    map...\n  JUMPDEST \t\t\tarketFee = 0 ether;\\n\\n    map...\n  PUSH 0\t\t\t\\n\n  DUP1 \t\t\tn\n  REVERT \t\t\tint when);\\n\\n\ntag 28\t\t\tsicNFTCreated(\\n        uint25...\n  JUMPDEST \t\t\tsicNFTCreated(\\n        uint25...\n  PUSH 0\t\t\tkenId,\n  PUSH 1F\t\t\t  \n  NOT \t\t\tnt,\\n   \n  PUSH 1F\t\t\t a\n  DUP4 \t\t\tuint2\n  ADD \t\t\t    uint256 am\n  AND \t\t\t        uint256 amount,\\n    \n  SWAP1 \t\t\tring uri,\\n        uint256 amo...\n  POP \t\t\tring uri,\\n        uint256 amo...\n  SWAP2 \t\t\tsicNFTCreated(\\n        uint25...\n  SWAP1 \t\t\tsicNFTCreated(\\n        uint25...\n  POP \t\t\tsicNFTCreated(\\n        uint25...\n  JUMP \t\t\tsicNFTCreated(\\n        uint25...\ntag 29\t\t\tprice,\\n        address artirt...\n  JUMPDEST \t\t\tprice,\\n        address artirt...\n  PUSH 4E487B7100000000000000000000000000000000000000000000000000000000\t\t\t Music {\\n        uint256 toke...\n  PUSH 0\t\t\tu\n  MSTORE \t\t\t    struct Music {\\n        ui...\n  PUSH 41\t\t\tce;\\n\n  PUSH 4\t\t\tp\n  MSTORE \t\t\tint256 price;\\n \n  PUSH 24\t\t\trt;\\n\n  PUSH 0\t\t\tr\n  REVERT \t\t\tdress artirt;\\n \ntag 30\t\t\tent BuyMusicNFT(uint256 indexe...\n  JUMPDEST \t\t\tent BuyMusicNFT(uint256 indexe...\n  PUSH [tag] 64\t\t\tng(uint256 => Music) privat\n  DUP3 \t\t\triva\n  PUSH [tag] 28\t\t\tng(uint256 => Music) privat\n  JUMP \t\t\tng(uint256 => Music) privat\ntag 64\t\t\tng(uint256 => Music) privat\n  JUMPDEST \t\t\tng(uint256 => Music) privat\n  DUP2 \t\t\t   map\n  ADD \t\t\t;\\n\\n    mapping(uint256 => Mu...\n  DUP2 \t\t\t = _ip\n  DUP2 \t\t\t   IPFS_PA\n  LT \t\t\t      IPFS_PATH = _ipf\n  PUSH FFFFFFFFFFFFFFFF\t\t\t55(\"\") Ownable() {\n  DUP3 \t\t\t\\n    ) ERC\n  GT \t\t\tpfs\\n    ) ERC1155(\"\") Ownable...\n  OR \t\t\t _ipfs\\n    ) ERC1155(\"\") Owna...\n  ISZERO \t\t\tory _ipfs\\n    ) ERC1155(\"\") O...\n  PUSH [tag] 65\t\t\tory _ipfs\\n    ) ERC1155(\"\") O...\n  JUMPI \t\t\tory _ipfs\\n    ) ERC1155(\"\") O...\n  PUSH [tag] 66\t\t\t       _owner = ms\n  PUSH [tag] 29\t\t\t       _owner = ms\n  JUMP \t\t\t       _owner = ms\ntag 66\t\t\t       _owner = ms\n  JUMPDEST \t\t\t       _owner = ms\ntag 65\t\t\tory _ipfs\\n    ) ERC1155(\"\") O...\n  JUMPDEST \t\t\tory _ipfs\\n    ) ERC1155(\"\") O...\n  DUP1 \t\t\tunction se\n  PUSH 40\t\t\t  \n  MSTORE \t\t\t   }\\n\\n    function set\n  POP \t\t\tnt256 amount, uint256 price);\\...\n  POP \t\t\tent BuyMusicNFT(uint256 indexe...\n  POP \t\t\tent BuyMusicNFT(uint256 indexe...\n  JUMP \t\t\tent BuyMusicNFT(uint256 indexe...\ntag 31\t\t\tmemory _uri) public onlyOwner ...\n  JUMPDEST \t\t\tmemory _uri) public onlyOwner ...\n  PUSH 0\t\t\t      \n  PUSH [tag] 68\t\t\t }\\n\\n    function uri\n  PUSH [tag] 23\t\t\t }\\n\\n    function uri\n  JUMP \t\t\t }\\n\\n    function uri\ntag 68\t\t\t }\\n\\n    function uri\n  JUMPDEST \t\t\t }\\n\\n    function uri\n  SWAP1 \t\t\t _uri;\\n    }\\n\\n    function ...\n  POP \t\t\t _uri;\\n    }\\n\\n    function ...\n  PUSH [tag] 69\t\t\ttokenId) public view override ...\n  DUP3 \t\t\te re\n  DUP3 \t\t\t overr\n  PUSH [tag] 30\t\t\ttokenId) public view override ...\n  JUMP \t\t\ttokenId) public view override ...\ntag 69\t\t\ttokenId) public view override ...\n  JUMPDEST \t\t\ttokenId) public view override ...\n  SWAP2 \t\t\tmemory _uri) public onlyOwner ...\n  SWAP1 \t\t\tmemory _uri) public onlyOwner ...\n  POP \t\t\tmemory _uri) public onlyOwner ...\n  JUMP \t\t\tmemory _uri) public onlyOwner ...\ntag 32\t\t\t memory) {\\n        // require...\n  JUMPDEST \t\t\t memory) {\\n        // require...\n  PUSH 0\t\t\t non\n  PUSH FFFFFFFFFFFFFFFF\t\t\ti));\\n    }\\n\\n    fu\n  DUP3 \t\t\tenId].\n  GT \t\t\ttokenId].uri));\\n    }\\n\\n    ...\n  ISZERO \t\t\tcs[tokenId].uri));\\n    }\\n\\n ...\n  PUSH [tag] 71\t\t\tcs[tokenId].uri));\\n    }\\n\\n ...\n  JUMPI \t\t\tcs[tokenId].uri));\\n    }\\n\\n ...\n  PUSH [tag] 72\t\t\ton safeMint(\\n     \n  PUSH [tag] 29\t\t\ton safeMint(\\n     \n  JUMP \t\t\ton safeMint(\\n     \ntag 72\t\t\ton safeMint(\\n     \n  JUMPDEST \t\t\ton safeMint(\\n     \ntag 71\t\t\tcs[tokenId].uri));\\n    }\\n\\n ...\n  JUMPDEST \t\t\tcs[tokenId].uri));\\n    }\\n\\n ...\n  PUSH [tag] 73\t\t\tken,\\n        uint256 _amount,\n  DUP3 \t\t\tamount\n  PUSH [tag] 28\t\t\tken,\\n        uint256 _amount,\n  JUMP \t\t\tken,\\n        uint256 _amount,\ntag 73\t\t\tken,\\n        uint256 _amount,\n  JUMPDEST \t\t\tken,\\n        uint256 _amount,\n  SWAP1 \t\t\tmory _token,\\n        uint256 ...\n  POP \t\t\tmory _token,\\n        uint256 ...\n  PUSH 20\t\t\trequ\n  DUP2 \t\t\t    \n  ADD \t\t\t{\\n        requi\n  SWAP1 \t\t\tpayable {\\n        requi\n  POP \t\t\tpayable {\\n        requi\n  SWAP2 \t\t\t memory) {\\n        // require...\n  SWAP1 \t\t\t memory) {\\n        // require...\n  POP \t\t\t memory) {\\n        // require...\n  JUMP \t\t\t memory) {\\n        // require...\ntag 33\t\t\tsts[_token], \"The token URI sh...\n  JUMPDEST \t\t\tsts[_token], \"The token URI sh...\n  DUP3 \t\t\te posi\n  DUP2 \t\t\tust\n  DUP4 \t\t\tice\n  MCOPY \t\t\t0, \"Price must be posit\n  PUSH 0\t\t\t=\n  DUP4 \t\t\tg.valu\n  DUP4 \t\t\tre(\n  ADD \t\t\tequire(msg.value\n  MSTORE \t\t\t      require(msg.value == \n  POP \t\t\tsts[_token], \"The token URI sh...\n  POP \t\t\tsts[_token], \"The token URI sh...\n  POP \t\t\tsts[_token], \"The token URI sh...\n  JUMP \t\t\tsts[_token], \"The token URI sh...\ntag 34\t\t\tour remain money not allow\");\\...\n  JUMPDEST \t\t\tour remain money not allow\");\\...\n  PUSH 0\t\t\ttoken\n  PUSH [tag] 76\t\t\t    uint256 _id = tokens.lengt...\n  PUSH [tag] 77\t\t\t= tokens.length;\\n        _min...\n  DUP5 \t\t\ts), _i\n  PUSH [tag] 32\t\t\t= tokens.length;\\n        _min...\n  JUMP \t\t\t= tokens.length;\\n        _min...\ntag 77\t\t\t= tokens.length;\\n        _min...\n  JUMPDEST \t\t\t= tokens.length;\\n        _min...\n  PUSH [tag] 31\t\t\t    uint256 _id = tokens.lengt...\n  JUMP \t\t\t    uint256 _id = tokens.lengt...\ntag 76\t\t\t    uint256 _id = tokens.lengt...\n  JUMPDEST \t\t\t    uint256 _id = tokens.lengt...\n  SWAP1 \t\t\ten);\\n        uint256 _id = to...\n  POP \t\t\ten);\\n        uint256 _id = to...\n  DUP3 \t\t\tmusics\n  DUP2 \t\t\t     \n  MSTORE \t\t\t \"\");\\n        musics[\n  PUSH 20\t\t\tnt, \n  DUP2 \t\t\t, _am\n  ADD \t\t\token, _amount, _\n  DUP5 \t\t\tnEx\n  DUP5 \t\t\t    _t\n  DUP5 \t\t\t\\n  \n  ADD \t\t\ter);\\n        _to\n  GT \t\t\tender);\\n        _tokenExi\n  ISZERO \t\t\tg.sender);\\n        _tokenExis...\n  PUSH [tag] 78\t\t\tg.sender);\\n        _tokenExis...\n  JUMPI \t\t\tg.sender);\\n        _tokenExis...\n  PUSH [tag] 79\t\t\t[_token] = true;\\n\\n        em...\n  PUSH [tag] 27\t\t\t[_token] = true;\\n\\n        em...\n  JUMP \t\t\t[_token] = true;\\n\\n        em...\ntag 79\t\t\t[_token] = true;\\n\\n        em...\n  JUMPDEST \t\t\t[_token] = true;\\n\\n        em...\ntag 78\t\t\tg.sender);\\n        _tokenExis...\n  JUMPDEST \t\t\tg.sender);\\n        _tokenExis...\n  PUSH [tag] 80\t\t\t       _amount,\\n            _...\n  DUP5 \t\t\t   add\n  DUP3 \t\t\t   \n  DUP6 \t\t\t\\n  \n  PUSH [tag] 33\t\t\t       _amount,\\n            _...\n  JUMP \t\t\t       _amount,\\n            _...\ntag 80\t\t\t       _amount,\\n            _...\n  JUMPDEST \t\t\t       _amount,\\n            _...\n  POP \t\t\t.push(_token);\\n        uint25...\n  SWAP4 \t\t\tour remain money not allow\");\\...\n  SWAP3 \t\t\tour remain money not allow\");\\...\n  POP \t\t\tour remain money not allow\");\\...\n  POP \t\t\tour remain money not allow\");\\...\n  POP \t\t\tour remain money not allow\");\\...\n  JUMP \t\t\tour remain money not allow\");\\...\ntag 35\t\t\t\\n    }\\n\\n    function music(...\n  JUMPDEST \t\t\t\\n    }\\n\\n    function music(...\n  PUSH 0\t\t\tusic \n  DUP3 \t\t\t   \n  PUSH 1F\t\t\tnId]\n  DUP4 \t\t\tcs[_to\n  ADD \t\t\tmusics[_tokenId];\n  SLT \t\t\turn musics[_tokenId];\\n    }\n  PUSH [tag] 82\t\t\t       return musics[_tokenId]...\n  JUMPI \t\t\t       return musics[_tokenId]...\n  PUSH [tag] 83\t\t\t function memcmp(\\n        byt...\n  PUSH [tag] 26\t\t\t function memcmp(\\n        byt...\n  JUMP \t\t\t function memcmp(\\n        byt...\ntag 83\t\t\t function memcmp(\\n        byt...\n  JUMPDEST \t\t\t function memcmp(\\n        byt...\ntag 82\t\t\t       return musics[_tokenId]...\n  JUMPDEST \t\t\t       return musics[_tokenId]...\n  DUP2 \t\t\treturn\n  MLOAD \t\t\t      return \n  PUSH [tag] 84\t\t\tgth) && (keccak256(a) == kecca...\n  DUP5 \t\t\tg m\n  DUP3 \t\t\t   str\n  PUSH 20\t\t\t(\\n  \n  DUP7 \t\t\tenByHa\n  ADD \t\t\t tokenByHash(\\n   \n  PUSH [tag] 34\t\t\tgth) && (keccak256(a) == kecca...\n  JUMP \t\t\tgth) && (keccak256(a) == kecca...\ntag 84\t\t\tgth) && (keccak256(a) == kecca...\n  JUMPDEST \t\t\tgth) && (keccak256(a) == kecca...\n  SWAP2 \t\t\t == b.length) && (keccak256(a)...\n  POP \t\t\t == b.length) && (keccak256(a)...\n  POP \t\t\temory) {\\n        return music...\n  SWAP3 \t\t\t\\n    }\\n\\n    function music(...\n  SWAP2 \t\t\t\\n    }\\n\\n    function music(...\n  POP \t\t\t\\n    }\\n\\n    function music(...\n  POP \t\t\t\\n    }\\n\\n    function music(...\n  JUMP \t\t\t\\n    }\\n\\n    function music(...\ntag 3\t\t\t   ) public view returns (Musi...\n  JUMPDEST \t\t\t   ) public view returns (Musi...\n  PUSH 0\t\t\tThe to\n  PUSH 20\t\t\tt2\n  DUP3 \t\t\t    for (\n  DUP5 \t\t\t\");\\n\\n  \n  SUB \t\t\tmint\");\\n\\n        for (u\n  SLT \t\t\t be mint\");\\n\\n        for (ui...\n  ISZERO \t\t\tuld be mint\");\\n\\n        for ...\n  PUSH [tag] 86\t\t\tuld be mint\");\\n\\n        for ...\n  JUMPI \t\t\tuld be mint\");\\n\\n        for ...\n  PUSH [tag] 87\t\t\t = 0; i < tokens.length; i++) ...\n  PUSH [tag] 24\t\t\t = 0; i < tokens.length; i++) ...\n  JUMP \t\t\t = 0; i < tokens.length; i++) ...\ntag 87\t\t\t = 0; i < tokens.length; i++) ...\n  JUMPDEST \t\t\t = 0; i < tokens.length; i++) ...\ntag 86\t\t\tuld be mint\");\\n\\n        for ...\n  JUMPDEST \t\t\tuld be mint\");\\n\\n        for ...\n  PUSH 0\t\t\t \n  DUP3 \t\t\t+ 1];\\n   \n  ADD \t\t\ts[i + 1];\\n       \n  MLOAD \t\t\t musics[i + 1];\\n        \n  PUSH FFFFFFFFFFFFFFFF\t\t\tic memory emptyPro\n  DUP2 \t\t\t     M\n  GT \t\t\t        Music memory emptyProp\n  ISZERO \t\t\t }\\n        Music memory empty...\n  PUSH [tag] 88\t\t\t }\\n        Music memory empty...\n  JUMPI \t\t\t }\\n        Music memory empty...\n  PUSH [tag] 89\t\t\tyObj;\\n        return emptyPro...\n  PUSH [tag] 25\t\t\tyObj;\\n        return emptyPro...\n  JUMP \t\t\tyObj;\\n        return emptyPro...\ntag 89\t\t\tyObj;\\n        return emptyPro...\n  JUMPDEST \t\t\tyObj;\\n        return emptyPro...\ntag 88\t\t\t }\\n        Music memory empty...\n  JUMPDEST \t\t\t }\\n        Music memory empty...\n  PUSH [tag] 90\t\t\t{\\n        return marketFee;\\n...\n  DUP5 \t\t\tenId, u\n  DUP3 \t\t\tnt256 \n  DUP6 \t\t\tn buyNFT(\n  ADD \t\t\tction buyNFT(uint256 t\n  PUSH [tag] 35\t\t\t{\\n        return marketFee;\\n...\n  JUMP \t\t\t{\\n        return marketFee;\\n...\ntag 90\t\t\t{\\n        return marketFee;\\n...\n  JUMPDEST \t\t\t{\\n        return marketFee;\\n...\n  SWAP2 \t\t\t(uint256) {\\n        return ma...\n  POP \t\t\t(uint256) {\\n        return ma...\n  POP \t\t\th))) {\\n                return...\n  SWAP3 \t\t\t   ) public view returns (Musi...\n  SWAP2 \t\t\t   ) public view returns (Musi...\n  POP \t\t\t   ) public view returns (Musi...\n  POP \t\t\t   ) public view returns (Musi...\n  JUMP \t\t\t   ) public view returns (Musi...\ntag 36\t\t\tpayable {\\n        uint256 pri...\n  JUMPDEST \t\t\tpayable {\\n        uint256 pri...\n  PUSH 0\t\t\tice;\\n\\n\n  DUP2 \t\t\tprice\n  MLOAD \t\t\tice = price \n  SWAP1 \t\t\t256 salePrice = price \n  POP \t\t\t256 salePrice = price \n  SWAP2 \t\t\tpayable {\\n        uint256 pri...\n  SWAP1 \t\t\tpayable {\\n        uint256 pri...\n  POP \t\t\tpayable {\\n        uint256 pri...\n  JUMP \t\t\tpayable {\\n        uint256 pri...\ntag 37\t\t\t     require(musics[tokenId].a...\n  JUMPDEST \t\t\t     require(musics[tokenId].a...\n  PUSH 4E487B7100000000000000000000000000000000000000000000000000000000\t\t\tko du nft\");\\n        require(...\n  PUSH 0\t\t\t,\n  MSTORE \t\t\t amount, \"ko du nft\");\\n      ...\n  PUSH 22\t\t\tr or\n  PUSH 4\t\t\ta\n  MSTORE \t\t\t be greater or \n  PUSH 24\t\t\t\"\\n  \n  PUSH 0\t\t\tc\n  REVERT \t\t\tthe price.\"\\n   \ntag 38\t\t\t     safeTransferFrom(\\n      ...\n  JUMPDEST \t\t\t     safeTransferFrom(\\n      ...\n  PUSH 0\t\t\tr,\\n   \n  PUSH 2\t\t\t,\n  DUP3 \t\t\tarti\n  DIV \t\t\tId].artirt,\\n\n  SWAP1 \t\t\tsics[tokenId].artirt,\\n\n  POP \t\t\tsics[tokenId].artirt,\\n\n  PUSH 1\t\t\t \n  DUP3 \t\t\t    \n  AND \t\t\te,\\n         \n  DUP1 \t\t\t      safeTransfer\n  PUSH [tag] 94\t\t\t     );\\n        safeTransferF...\n  JUMPI \t\t\t     );\\n        safeTransferF...\n  PUSH 7F\t\t\tketF\n  DUP3 \t\t\t, 0, m\n  AND \t\t\this), 0, marketFe\n  SWAP2 \t\t\t address(this), 0, marketFe\n  POP \t\t\t address(this), 0, marketFe\ntag 94\t\t\t     );\\n        safeTransferF...\n  JUMPDEST \t\t\t     );\\n        safeTransferF...\n  PUSH 20\t\t\t  \n  DUP3 \t\t\t;\\n\\n   \n  LT \t\t\tunt;\\n\\n        \n  DUP2 \t\t\tkenId].amount -= a\n  SUB \t\t\t[tokenId].amount -= amount;\\n\\...\n  PUSH [tag] 95\t\t\tics[tokenId].amount -= amount;...\n  JUMPI \t\t\tics[tokenId].amount -= amount;...\n  PUSH [tag] 96\t\t\td(address(this), m\n  PUSH [tag] 37\t\t\td(address(this), m\n  JUMP \t\t\td(address(this), m\ntag 96\t\t\td(address(this), m\n  JUMPDEST \t\t\td(address(this), m\ntag 95\t\t\tics[tokenId].amount -= amount;...\n  JUMPDEST \t\t\tics[tokenId].amount -= amount;...\n  POP \t\t\t        musics[tokenId].artirt...\n  SWAP2 \t\t\t     safeTransferFrom(\\n      ...\n  SWAP1 \t\t\t     safeTransferFrom(\\n      ...\n  POP \t\t\t     safeTransferFrom(\\n      ...\n  JUMP \t\t\t     safeTransferFrom(\\n      ...\ntag 39\t\t\tount, \"\");\\n        safeTransf...\n  JUMPDEST \t\t\tount, \"\");\\n        safeTransf...\n  PUSH 0\t\t\taddr\n  DUP2 \t\t\t   \n  SWAP1 \t\t\t           \n  POP \t\t\t           \n  DUP2 \t\t\t   \n  PUSH 0\t\t\t \n  MSTORE \t\t\tr,\\n           \n  PUSH 20\t\t\t    \n  PUSH 0\t\t\t \n  KECCAK256 \t\t\ttokenId,\\n         \n  SWAP1 \t\t\tokenId].tokenId,\\n         \n  POP \t\t\tokenId].tokenId,\\n         \n  SWAP2 \t\t\tount, \"\");\\n        safeTransf...\n  SWAP1 \t\t\tount, \"\");\\n        safeTransf...\n  POP \t\t\tount, \"\");\\n        safeTransf...\n  JUMP \t\t\tount, \"\");\\n        safeTransf...\ntag 40\t\t\tenId].amount,\\n            \"0x...\n  JUMPDEST \t\t\tenId].amount,\\n            \"0x...\n  PUSH 0\t\t\t   );\\n\n  PUSH 20\t\t\t, \n  PUSH 1F\t\t\tmo\n  DUP4 \t\t\tenId,\n  ADD \t\t\t(tokenId, amou\n  DIV \t\t\tcNFT(tokenId, amount, p\n  SWAP1 \t\t\tit BuyMusicNFT(tokenId, amount...\n  POP \t\t\tit BuyMusicNFT(tokenId, amount...\n  SWAP2 \t\t\tenId].amount,\\n            \"0x...\n  SWAP1 \t\t\tenId].amount,\\n            \"0x...\n  POP \t\t\tenId].amount,\\n            \"0x...\n  JUMP \t\t\tenId].amount,\\n            \"0x...\ntag 41\t\t\t\\nfunction onERC1155Received(\\...\n  JUMPDEST \t\t\t\\nfunction onERC1155Received(\\...\n  PUSH 0\t\t\t,\\n      \n  DUP3 \t\t\t6,\\n  \n  DUP3 \t\t\tuint\n  SHL \t\t\t    uint256,\\n   \n  SWAP1 \t\t\t        uint256,\\n        uint...\n  POP \t\t\t        uint256,\\n        uint...\n  SWAP3 \t\t\t\\nfunction onERC1155Received(\\...\n  SWAP2 \t\t\t\\nfunction onERC1155Received(\\...\n  POP \t\t\t\\nfunction onERC1155Received(\\...\n  POP \t\t\t\\nfunction onERC1155Received(\\...\n  JUMP \t\t\t\\nfunction onERC1155Received(\\...\ntag 42\t\t\tmory\\n    ) public virtual ret...\n  JUMPDEST \t\t\tmory\\n    ) public virtual ret...\n  PUSH 0\t\t\tC1155R\n  PUSH 8\t\t\t\\n\n  DUP4 \t\t\ttion reSal\n  MUL \t\t\tfunction reSale(\\n \n  PUSH [tag] 101\t\t\tId,\\n        uint256 _amount\\n...\n  PUSH FFFFFFFFFFFFFFFFFFFFFFFFFFFFFFFFFFFFFFFFFFFFFFFFFFFFFFFFFFFFFFFF\t\t\t  ) public payable returns (ui...\n  DUP3 \t\t\t _amount\\n\n  PUSH [tag] 41\t\t\tId,\\n        uint256 _amount\\n...\n  JUMP \t\t\tId,\\n        uint256 _amount\\n...\ntag 101\t\t\tId,\\n        uint256 _amount\\n...\n  JUMPDEST \t\t\tId,\\n        uint256 _amount\\n...\n  PUSH [tag] 102\t\t\t), _tokenId, _amount, \"\");\\n  ...\n  DUP7 \t\t\t     mus\n  DUP4 \t\t\tt, \"\");\\n \n  PUSH [tag] 41\t\t\t), _tokenId, _amount, \"\");\\n  ...\n  JUMP \t\t\t), _tokenId, _amount, \"\");\\n  ...\ntag 102\t\t\t), _tokenId, _amount, \"\");\\n  ...\n  JUMPDEST \t\t\t), _tokenId, _amount, \"\");\\n  ...\n  SWAP6 \t\t\taddress(this), _tokenId, _amou...\n  POP \t\t\taddress(this), _tokenId, _amou...\n  DUP1 \t\t\t    \n  NOT \t\t\tt;\\n\\n     \n  DUP5 \t\t\t _amo\n  AND \t\t\tt += _amount;\\n\\n      \n  SWAP4 \t\t\tId].amount += _amount;\\n\\n    ...\n  POP \t\t\tId].amount += _amount;\\n\\n    ...\n  DUP1 \t\t\t\n  DUP7 \t\t\t\n  AND \t\t\t\n  DUP5 \t\t\t }\\n}\\n\n  OR \t\t\t    }\\n}\\n\n  SWAP3 \t\t\t_tokenId;\\n    }\\n}\\n\n  POP \t\t\t_tokenId;\\n    }\\n}\\n\n  POP \t\t\tceived.selector;\\n    }\\n    f...\n  POP \t\t\tceived.selector;\\n    }\\n    f...\n  SWAP4 \t\t\tmory\\n    ) public virtual ret...\n  SWAP3 \t\t\tmory\\n    ) public virtual ret...\n  POP \t\t\tmory\\n    ) public virtual ret...\n  POP \t\t\tmory\\n    ) public virtual ret...\n  POP \t\t\tmory\\n    ) public virtual ret...\n  JUMP \t\t\tmory\\n    ) public virtual ret...\ntag 43\t\t\t\n  JUMPDEST \t\t\t\n  PUSH 0\t\t\t\n  DUP2 \t\t\t\n  SWAP1 \t\t\t\n  POP \t\t\t\n  SWAP2 \t\t\t\n  SWAP1 \t\t\t\n  POP \t\t\t\n  JUMP \t\t\t\ntag 44\t\t\t\n  JUMPDEST \t\t\t\n  PUSH 0\t\t\t\n  DUP2 \t\t\t\n  SWAP1 \t\t\t\n  POP \t\t\t\n  SWAP2 \t\t\t\n  SWAP1 \t\t\t\n  POP \t\t\t\n  JUMP \t\t\t\ntag 45\t\t\t\n  JUMPDEST \t\t\t\n  PUSH 0\t\t\t\n  PUSH [tag] 106\t\t\t\n  PUSH [tag] 107\t\t\t\n  PUSH [tag] 108\t\t\t\n  DUP5 \t\t\t\n  PUSH [tag] 43\t\t\t\n  JUMP \t\t\t\ntag 108\t\t\t\n  JUMPDEST \t\t\t\n  PUSH [tag] 44\t\t\t\n  JUMP \t\t\t\ntag 107\t\t\t\n  JUMPDEST \t\t\t\n  PUSH [tag] 43\t\t\t\n  JUMP \t\t\t\ntag 106\t\t\t\n  JUMPDEST \t\t\t\n  SWAP1 \t\t\t\n  POP \t\t\t\n  SWAP2 \t\t\t\n  SWAP1 \t\t\t\n  POP \t\t\t\n  JUMP \t\t\t\ntag 46\t\t\t\n  JUMPDEST \t\t\t\n  PUSH 0\t\t\t\n  DUP2 \t\t\t\n  SWAP1 \t\t\t\n  POP \t\t\t\n  SWAP2 \t\t\t\n  SWAP1 \t\t\t\n  POP \t\t\t\n  JUMP \t\t\t\ntag 47\t\t\t\n  JUMPDEST \t\t\t\n  PUSH [tag] 111\t\t\t\n  DUP4 \t\t\t\n  PUSH [tag] 45\t\t\t\n  JUMP \t\t\t\ntag 111\t\t\t\n  JUMPDEST \t\t\t\n  PUSH [tag] 112\t\t\t\n  PUSH [tag] 113\t\t\t\n  DUP3 \t\t\t\n  PUSH [tag] 46\t\t\t\n  JUMP \t\t\t\ntag 113\t\t\t\n  JUMPDEST \t\t\t\n  DUP5 \t\t\t\n  DUP5 \t\t\t\n  SLOAD \t\t\t\n  PUSH [tag] 42\t\t\t\n  JUMP \t\t\t\ntag 112\t\t\t\n  JUMPDEST \t\t\t\n  DUP3 \t\t\t\n  SSTORE \t\t\t\n  POP \t\t\t\n  POP \t\t\t\n  POP \t\t\t\n  POP \t\t\t\n  JUMP \t\t\t\ntag 48\t\t\t\n  JUMPDEST \t\t\t\n  PUSH 0\t\t\t\n  SWAP1 \t\t\t\n  JUMP \t\t\t\ntag 49\t\t\t\n  JUMPDEST \t\t\t\n  PUSH [tag] 116\t\t\t\n  PUSH [tag] 48\t\t\t\n  JUMP \t\t\t\ntag 116\t\t\t\n  JUMPDEST \t\t\t\n  PUSH [tag] 117\t\t\t\n  DUP2 \t\t\t\n  DUP5 \t\t\t\n  DUP5 \t\t\t\n  PUSH [tag] 47\t\t\t\n  JUMP \t\t\t\ntag 117\t\t\t\n  JUMPDEST \t\t\t\n  POP \t\t\t\n  POP \t\t\t\n  POP \t\t\t\n  JUMP \t\t\t\ntag 50\t\t\t\n  JUMPDEST \t\t\t\ntag 119\t\t\t\n  JUMPDEST \t\t\t\n  DUP2 \t\t\t\n  DUP2 \t\t\t\n  LT \t\t\t\n  ISZERO \t\t\t\n  PUSH [tag] 121\t\t\t\n  JUMPI \t\t\t\n  PUSH [tag] 122\t\t\t\n  PUSH 0\t\t\t\n  DUP3 \t\t\t\n  PUSH [tag] 49\t\t\t\n  JUMP \t\t\t\ntag 122\t\t\t\n  JUMPDEST \t\t\t\n  PUSH 1\t\t\t\n  DUP2 \t\t\t\n  ADD \t\t\t\n  SWAP1 \t\t\t\n  POP \t\t\t\n  PUSH [tag] 119\t\t\t\n  JUMP \t\t\t\ntag 121\t\t\t\n  JUMPDEST \t\t\t\n  POP \t\t\t\n  POP \t\t\t\n  JUMP \t\t\t\ntag 51\t\t\t\n  JUMPDEST \t\t\t\n  PUSH 1F\t\t\t\n  DUP3 \t\t\t\n  GT \t\t\t\n  ISZERO \t\t\t\n  PUSH [tag] 124\t\t\t\n  JUMPI \t\t\t\n  PUSH [tag] 125\t\t\t\n  DUP2 \t\t\t\n  PUSH [tag] 39\t\t\t\n  JUMP \t\t\t\ntag 125\t\t\t\n  JUMPDEST \t\t\t\n  PUSH [tag] 126\t\t\t\n  DUP5 \t\t\t\n  PUSH [tag] 40\t\t\t\n  JUMP \t\t\t\ntag 126\t\t\t\n  JUMPDEST \t\t\t\n  DUP2 \t\t\t\n  ADD \t\t\t\n  PUSH 20\t\t\t\n  DUP6 \t\t\t\n  LT \t\t\t\n  ISZERO \t\t\t\n  PUSH [tag] 127\t\t\t\n  JUMPI \t\t\t\n  DUP2 \t\t\t\n  SWAP1 \t\t\t\n  POP \t\t\t\ntag 127\t\t\t\n  JUMPDEST \t\t\t\n  PUSH [tag] 128\t\t\t\n  PUSH [tag] 129\t\t\t\n  DUP6 \t\t\t\n  PUSH [tag] 40\t\t\t\n  JUMP \t\t\t\ntag 129\t\t\t\n  JUMPDEST \t\t\t\n  DUP4 \t\t\t\n  ADD \t\t\t\n  DUP3 \t\t\t\n  PUSH [tag] 50\t\t\t\n  JUMP \t\t\t\ntag 128\t\t\t\n  JUMPDEST \t\t\t\n  POP \t\t\t\n  POP \t\t\t\ntag 124\t\t\t\n  JUMPDEST \t\t\t\n  POP \t\t\t\n  POP \t\t\t\n  POP \t\t\t\n  JUMP \t\t\t\ntag 52\t\t\t\n  JUMPDEST \t\t\t\n  PUSH 0\t\t\t\n  DUP3 \t\t\t\n  DUP3 \t\t\t\n  SHR \t\t\t\n  SWAP1 \t\t\t\n  POP \t\t\t\n  SWAP3 \t\t\t\n  SWAP2 \t\t\t\n  POP \t\t\t\n  POP \t\t\t\n  JUMP \t\t\t\ntag 53\t\t\t\n  JUMPDEST \t\t\t\n  PUSH 0\t\t\t\n  PUSH [tag] 132\t\t\t\n  PUSH 0\t\t\t\n  NOT \t\t\t\n  DUP5 \t\t\t\n  PUSH 8\t\t\t\n  MUL \t\t\t\n  PUSH [tag] 52\t\t\t\n  JUMP \t\t\t\ntag 132\t\t\t\n  JUMPDEST \t\t\t\n  NOT \t\t\t\n  DUP1 \t\t\t\n  DUP4 \t\t\t\n  AND \t\t\t\n  SWAP2 \t\t\t\n  POP \t\t\t\n  POP \t\t\t\n  SWAP3 \t\t\t\n  SWAP2 \t\t\t\n  POP \t\t\t\n  POP \t\t\t\n  JUMP \t\t\t\ntag 54\t\t\t\n  JUMPDEST \t\t\t\n  PUSH 0\t\t\t\n  PUSH [tag] 134\t\t\t\n  DUP4 \t\t\t\n  DUP4 \t\t\t\n  PUSH [tag] 53\t\t\t\n  JUMP \t\t\t\ntag 134\t\t\t\n  JUMPDEST \t\t\t\n  SWAP2 \t\t\t\n  POP \t\t\t\n  DUP3 \t\t\t\n  PUSH 2\t\t\t\n  MUL \t\t\t\n  DUP3 \t\t\t\n  OR \t\t\t\n  SWAP1 \t\t\t\n  POP \t\t\t\n  SWAP3 \t\t\t\n  SWAP2 \t\t\t\n  POP \t\t\t\n  POP \t\t\t\n  JUMP \t\t\t\ntag 17\t\t\t\n  JUMPDEST \t\t\t\n  PUSH [tag] 136\t\t\t\n  DUP3 \t\t\t\n  PUSH [tag] 36\t\t\t\n  JUMP \t\t\t\ntag 136\t\t\t\n  JUMPDEST \t\t\t\n  PUSH FFFFFFFFFFFFFFFF\t\t\t\n  DUP2 \t\t\t\n  GT \t\t\t\n  ISZERO \t\t\t\n  PUSH [tag] 137\t\t\t\n  JUMPI \t\t\t\n  PUSH [tag] 138\t\t\t\n  PUSH [tag] 29\t\t\t\n  JUMP \t\t\t\ntag 138\t\t\t\n  JUMPDEST \t\t\t\ntag 137\t\t\t\n  JUMPDEST \t\t\t\n  PUSH [tag] 139\t\t\t\n  DUP3 \t\t\t\n  SLOAD \t\t\t\n  PUSH [tag] 38\t\t\t\n  JUMP \t\t\t\ntag 139\t\t\t\n  JUMPDEST \t\t\t\n  PUSH [tag] 140\t\t\t\n  DUP3 \t\t\t\n  DUP3 \t\t\t\n  DUP6 \t\t\t\n  PUSH [tag] 51\t\t\t\n  JUMP \t\t\t\ntag 140\t\t\t\n  JUMPDEST \t\t\t\n  PUSH 0\t\t\t\n  PUSH 20\t\t\t\n  SWAP1 \t\t\t\n  POP \t\t\t\n  PUSH 1F\t\t\t\n  DUP4 \t\t\t\n  GT \t\t\t\n  PUSH 1\t\t\t\n  DUP2 \t\t\t\n  EQ \t\t\t\n  PUSH [tag] 142\t\t\t\n  JUMPI \t\t\t\n  PUSH 0\t\t\t\n  DUP5 \t\t\t\n  ISZERO \t\t\t\n  PUSH [tag] 143\t\t\t\n  JUMPI \t\t\t\n  DUP3 \t\t\t\n  DUP8 \t\t\t\n  ADD \t\t\t\n  MLOAD \t\t\t\n  SWAP1 \t\t\t\n  POP \t\t\t\ntag 143\t\t\t\n  JUMPDEST \t\t\t\n  PUSH [tag] 144\t\t\t\n  DUP6 \t\t\t\n  DUP3 \t\t\t\n  PUSH [tag] 54\t\t\t\n  JUMP \t\t\t\ntag 144\t\t\t\n  JUMPDEST \t\t\t\n  DUP7 \t\t\t\n  SSTORE \t\t\t\n  POP \t\t\t\n  PUSH [tag] 141\t\t\t\n  JUMP \t\t\t\ntag 142\t\t\t\n  JUMPDEST \t\t\t\n  PUSH 1F\t\t\t\n  NOT \t\t\t\n  DUP5 \t\t\t\n  AND \t\t\t\n  PUSH [tag] 145\t\t\t\n  DUP7 \t\t\t\n  PUSH [tag] 39\t\t\t\n  JUMP \t\t\t\ntag 145\t\t\t\n  JUMPDEST \t\t\t\n  PUSH 0\t\t\t\ntag 146\t\t\t\n  JUMPDEST \t\t\t\n  DUP3 \t\t\t\n  DUP2 \t\t\t\n  LT \t\t\t\n  ISZERO \t\t\t\n  PUSH [tag] 148\t\t\t\n  JUMPI \t\t\t\n  DUP5 \t\t\t\n  DUP10 \t\t\t\n  ADD \t\t\t\n  MLOAD \t\t\t\n  DUP3 \t\t\t\n  SSTORE \t\t\t\n  PUSH 1\t\t\t\n  DUP3 \t\t\t\n  ADD \t\t\t\n  SWAP2 \t\t\t\n  POP \t\t\t\n  PUSH 20\t\t\t\n  DUP6 \t\t\t\n  ADD \t\t\t\n  SWAP5 \t\t\t\n  POP \t\t\t\n  PUSH 20\t\t\t\n  DUP2 \t\t\t\n  ADD \t\t\t\n  SWAP1 \t\t\t\n  POP \t\t\t\n  PUSH [tag] 146\t\t\t\n  JUMP \t\t\t\ntag 148\t\t\t\n  JUMPDEST \t\t\t\n  DUP7 \t\t\t\n  DUP4 \t\t\t\n  LT \t\t\t\n  ISZERO \t\t\t\n  PUSH [tag] 149\t\t\t\n  JUMPI \t\t\t\n  DUP5 \t\t\t\n  DUP10 \t\t\t\n  ADD \t\t\t\n  MLOAD \t\t\t\n  PUSH [tag] 150\t\t\t\n  PUSH 1F\t\t\t\n  DUP10 \t\t\t\n  AND \t\t\t\n  DUP3 \t\t\t\n  PUSH [tag] 53\t\t\t\n  JUMP \t\t\t\ntag 150\t\t\t\n  JUMPDEST \t\t\t\n  DUP4 \t\t\t\n  SSTORE \t\t\t\n  POP \t\t\t\ntag 149\t\t\t\n  JUMPDEST \t\t\t\n  PUSH 1\t\t\t\n  PUSH 2\t\t\t\n  DUP9 \t\t\t\n  MUL \t\t\t\n  ADD \t\t\t\n  DUP9 \t\t\t\n  SSTORE \t\t\t\n  POP \t\t\t\n  POP \t\t\t\n  POP \t\t\t\ntag 141\t\t\t\n  JUMPDEST \t\t\t\n  POP \t\t\t\n  POP \t\t\t\n  POP \t\t\t\n  POP \t\t\t\n  POP \t\t\t\n  POP \t\t\t\n  JUMP \t\t\t\ntag 18\t\t\tcontract MusicTuneVibe is ERC1...\n  JUMPDEST \t\t\tcontract MusicTuneVibe is ERC1...\n  PUSH #[$] 0000000000000000000000000000000000000000000000000000000000000000\t\t\tcontract MusicTuneVibe is ERC1...\n  DUP1 \t\t\tcontract MusicTuneVibe is ERC1...\n  PUSH [$] 0000000000000000000000000000000000000000000000000000000000000000\t\t\tcontract MusicTuneVibe is ERC1...\n  PUSH 0\t\t\tcontract MusicTuneVibe is ERC1...\n  CODECOPY \t\t\tcontract MusicTuneVibe is ERC1...\n  PUSH 0\t\t\tcontract MusicTuneVibe is ERC1...\n  RETURN \t\t\tcontract MusicTuneVibe is ERC1...\n.data\n  0:\n    .code\n      PUSH 80\t\t\tcontract MusicTuneVibe is ERC1...\n      PUSH 40\t\t\tcontract MusicTuneVibe is ERC1...\n      MSTORE \t\t\tcontract MusicTuneVibe is ERC1...\n      PUSH 4\t\t\tcontract MusicTuneVibe is ERC1...\n      CALLDATASIZE \t\t\tcontract MusicTuneVibe is ERC1...\n      LT \t\t\tcontract MusicTuneVibe is ERC1...\n      PUSH [tag] 1\t\t\tcontract MusicTuneVibe is ERC1...\n      JUMPI \t\t\tcontract MusicTuneVibe is ERC1...\n      PUSH 0\t\t\tcontract MusicTuneVibe is ERC1...\n      CALLDATALOAD \t\t\tcontract MusicTuneVibe is ERC1...\n      PUSH E0\t\t\tcontract MusicTuneVibe is ERC1...\n      SHR \t\t\tcontract MusicTuneVibe is ERC1...\n      DUP1 \t\t\tcontract MusicTuneVibe is ERC1...\n      PUSH 8DA5CB5B\t\t\tcontract MusicTuneVibe is ERC1...\n      GT \t\t\tcontract MusicTuneVibe is ERC1...\n      PUSH [tag] 22\t\t\tcontract MusicTuneVibe is ERC1...\n      JUMPI \t\t\tcontract MusicTuneVibe is ERC1...\n      DUP1 \t\t\tcontract MusicTuneVibe is ERC1...\n      PUSH DAC187C7\t\t\tcontract MusicTuneVibe is ERC1...\n      GT \t\t\tcontract MusicTuneVibe is ERC1...\n      PUSH [tag] 23\t\t\tcontract MusicTuneVibe is ERC1...\n      JUMPI \t\t\tcontract MusicTuneVibe is ERC1...\n      DUP1 \t\t\tcontract MusicTuneVibe is ERC1...\n      PUSH DAC187C7\t\t\tcontract MusicTuneVibe is ERC1...\n      EQ \t\t\tcontract MusicTuneVibe is ERC1...\n      PUSH [tag] 17\t\t\tcontract MusicTuneVibe is ERC1...\n      JUMPI \t\t\tcontract MusicTuneVibe is ERC1...\n      DUP1 \t\t\tcontract MusicTuneVibe is ERC1...\n      PUSH E985E9C5\t\t\tcontract MusicTuneVibe is ERC1...\n      EQ \t\t\tcontract MusicTuneVibe is ERC1...\n      PUSH [tag] 18\t\t\tcontract MusicTuneVibe is ERC1...\n      JUMPI \t\t\tcontract MusicTuneVibe is ERC1...\n      DUP1 \t\t\tcontract MusicTuneVibe is ERC1...\n      PUSH F23A6E61\t\t\tcontract MusicTuneVibe is ERC1...\n      EQ \t\t\tcontract MusicTuneVibe is ERC1...\n      PUSH [tag] 19\t\t\tcontract MusicTuneVibe is ERC1...\n      JUMPI \t\t\tcontract MusicTuneVibe is ERC1...\n      DUP1 \t\t\tcontract MusicTuneVibe is ERC1...\n      PUSH F242432A\t\t\tcontract MusicTuneVibe is ERC1...\n      EQ \t\t\tcontract MusicTuneVibe is ERC1...\n      PUSH [tag] 20\t\t\tcontract MusicTuneVibe is ERC1...\n      JUMPI \t\t\tcontract MusicTuneVibe is ERC1...\n      DUP1 \t\t\tcontract MusicTuneVibe is ERC1...\n      PUSH F2FDE38B\t\t\tcontract MusicTuneVibe is ERC1...\n      EQ \t\t\tcontract MusicTuneVibe is ERC1...\n      PUSH [tag] 21\t\t\tcontract MusicTuneVibe is ERC1...\n      JUMPI \t\t\tcontract MusicTuneVibe is ERC1...\n      PUSH [tag] 1\t\t\tcontract MusicTuneVibe is ERC1...\n      JUMP \t\t\tcontract MusicTuneVibe is ERC1...\n    tag 23\t\t\tcontract MusicTuneVibe is ERC1...\n      JUMPDEST \t\t\tcontract MusicTuneVibe is ERC1...\n      DUP1 \t\t\tcontract MusicTuneVibe is ERC1...\n      PUSH 8DA5CB5B\t\t\tcontract MusicTuneVibe is ERC1...\n      EQ \t\t\tcontract MusicTuneVibe is ERC1...\n      PUSH [tag] 12\t\t\tcontract MusicTuneVibe is ERC1...\n      JUMPI \t\t\tcontract MusicTuneVibe is ERC1...\n      DUP1 \t\t\tcontract MusicTuneVibe is ERC1...\n      PUSH 9EB47667\t\t\tcontract MusicTuneVibe is ERC1...\n      EQ \t\t\tcontract MusicTuneVibe is ERC1...\n      PUSH [tag] 13\t\t\tcontract MusicTuneVibe is ERC1...\n      JUMPI \t\t\tcontract MusicTuneVibe is ERC1...\n      DUP1 \t\t\tcontract MusicTuneVibe is ERC1...\n      PUSH A22CB465\t\t\tcontract MusicTuneVibe is ERC1...\n      EQ \t\t\tcontract MusicTuneVibe is ERC1...\n      PUSH [tag] 14\t\t\tcontract MusicTuneVibe is ERC1...\n      JUMPI \t\t\tcontract MusicTuneVibe is ERC1...\n      DUP1 \t\t\tcontract MusicTuneVibe is ERC1...\n      PUSH B8FE6ABE\t\t\tcontract MusicTuneVibe is ERC1...\n      EQ \t\t\tcontract MusicTuneVibe is ERC1...\n      PUSH [tag] 15\t\t\tcontract MusicTuneVibe is ERC1...\n      JUMPI \t\t\tcontract MusicTuneVibe is ERC1...\n      DUP1 \t\t\tcontract MusicTuneVibe is ERC1...\n      PUSH D19AC77A\t\t\tcontract MusicTuneVibe is ERC1...\n      EQ \t\t\tcontract MusicTuneVibe is ERC1...\n      PUSH [tag] 16\t\t\tcontract MusicTuneVibe is ERC1...\n      JUMPI \t\t\tcontract MusicTuneVibe is ERC1...\n      PUSH [tag] 1\t\t\tcontract MusicTuneVibe is ERC1...\n      JUMP \t\t\tcontract MusicTuneVibe is ERC1...\n    tag 22\t\t\tcontract MusicTuneVibe is ERC1...\n      JUMPDEST \t\t\tcontract MusicTuneVibe is ERC1...\n      DUP1 \t\t\tcontract MusicTuneVibe is ERC1...\n      PUSH 4E1273F4\t\t\tcontract MusicTuneVibe is ERC1...\n      GT \t\t\tcontract MusicTuneVibe is ERC1...\n      PUSH [tag] 24\t\t\tcontract MusicTuneVibe is ERC1...\n      JUMPI \t\t\tcontract MusicTuneVibe is ERC1...\n      DUP1 \t\t\tcontract MusicTuneVibe is ERC1...\n      PUSH 4E1273F4\t\t\tcontract MusicTuneVibe is ERC1...\n      EQ \t\t\tcontract MusicTuneVibe is ERC1...\n      PUSH [tag] 7\t\t\tcontract MusicTuneVibe is ERC1...\n      JUMPI \t\t\tcontract MusicTuneVibe is ERC1...\n      DUP1 \t\t\tcontract MusicTuneVibe is ERC1...\n      PUSH 4F64B2BE\t\t\tcontract MusicTuneVibe is ERC1...\n      EQ \t\t\tcontract MusicTuneVibe is ERC1...\n      PUSH [tag] 8\t\t\tcontract MusicTuneVibe is ERC1...\n      JUMPI \t\t\tcontract MusicTuneVibe is ERC1...\n      DUP1 \t\t\tcontract MusicTuneVibe is ERC1...\n      PUSH 6E1F94E1\t\t\tcontract MusicTuneVibe is ERC1...\n      EQ \t\t\tcontract MusicTuneVibe is ERC1...\n      PUSH [tag] 9\t\t\tcontract MusicTuneVibe is ERC1...\n      JUMPI \t\t\tcontract MusicTuneVibe is ERC1...\n      DUP1 \t\t\tcontract MusicTuneVibe is ERC1...\n      PUSH 715018A6\t\t\tcontract MusicTuneVibe is ERC1...\n      EQ \t\t\tcontract MusicTuneVibe is ERC1...\n      PUSH [tag] 10\t\t\tcontract MusicTuneVibe is ERC1...\n      JUMPI \t\t\tcontract MusicTuneVibe is ERC1...\n      DUP1 \t\t\tcontract MusicTuneVibe is ERC1...\n      PUSH 80F0A63A\t\t\tcontract MusicTuneVibe is ERC1...\n      EQ \t\t\tcontract MusicTuneVibe is ERC1...\n      PUSH [tag] 11\t\t\tcontract MusicTuneVibe is ERC1...\n      JUMPI \t\t\tcontract MusicTuneVibe is ERC1...\n      PUSH [tag] 1\t\t\tcontract MusicTuneVibe is ERC1...\n      JUMP \t\t\tcontract MusicTuneVibe is ERC1...\n    tag 24\t\t\tcontract MusicTuneVibe is ERC1...\n      JUMPDEST \t\t\tcontract MusicTuneVibe is ERC1...\n      DUP1 \t\t\tcontract MusicTuneVibe is ERC1...\n      PUSH FDD58E\t\t\tcontract MusicTuneVibe is ERC1...\n      EQ \t\t\tcontract MusicTuneVibe is ERC1...\n      PUSH [tag] 2\t\t\tcontract MusicTuneVibe is ERC1...\n      JUMPI \t\t\tcontract MusicTuneVibe is ERC1...\n      DUP1 \t\t\tcontract MusicTuneVibe is ERC1...\n      PUSH 1FFC9A7\t\t\tcontract MusicTuneVibe is ERC1...\n      EQ \t\t\tcontract MusicTuneVibe is ERC1...\n      PUSH [tag] 3\t\t\tcontract MusicTuneVibe is ERC1...\n      JUMPI \t\t\tcontract MusicTuneVibe is ERC1...\n      DUP1 \t\t\tcontract MusicTuneVibe is ERC1...\n      PUSH E89341C\t\t\tcontract MusicTuneVibe is ERC1...\n      EQ \t\t\tcontract MusicTuneVibe is ERC1...\n      PUSH [tag] 4\t\t\tcontract MusicTuneVibe is ERC1...\n      JUMPI \t\t\tcontract MusicTuneVibe is ERC1...\n      DUP1 \t\t\tcontract MusicTuneVibe is ERC1...\n      PUSH 1D85BF03\t\t\tcontract MusicTuneVibe is ERC1...\n      EQ \t\t\tcontract MusicTuneVibe is ERC1...\n      PUSH [tag] 5\t\t\tcontract MusicTuneVibe is ERC1...\n      JUMPI \t\t\tcontract MusicTuneVibe is ERC1...\n      DUP1 \t\t\tcontract MusicTuneVibe is ERC1...\n      PUSH 2EB2C2D6\t\t\tcontract MusicTuneVibe is ERC1...\n      EQ \t\t\tcontract MusicTuneVibe is ERC1...\n      PUSH [tag] 6\t\t\tcontract MusicTuneVibe is ERC1...\n      JUMPI \t\t\tcontract MusicTuneVibe is ERC1...\n    tag 1\t\t\tcontract MusicTuneVibe is ERC1...\n      JUMPDEST \t\t\tcontract MusicTuneVibe is ERC1...\n      PUSH 0\t\t\tcontract MusicTuneVibe is ERC1...\n      DUP1 \t\t\tcontract MusicTuneVibe is ERC1...\n      REVERT \t\t\tcontract MusicTuneVibe is ERC1...\n    tag 2\t\t\t         _token,\\n            ...\n      JUMPDEST \t\t\t         _token,\\n            ...\n      CALLVALUE \t\t\t         _token,\\n            ...\n      DUP1 \t\t\t         _token,\\n            ...\n      ISZERO \t\t\t         _token,\\n            ...\n      PUSH [tag] 25\t\t\t         _token,\\n            ...\n      JUMPI \t\t\t         _token,\\n            ...\n      PUSH 0\t\t\t         _token,\\n            ...\n      DUP1 \t\t\t         _token,\\n            ...\n      REVERT \t\t\t         _token,\\n            ...\n    tag 25\t\t\t         _token,\\n            ...\n      JUMPDEST \t\t\t         _token,\\n            ...\n      POP \t\t\t         _token,\\n            ...\n      PUSH [tag] 26\t\t\t         _token,\\n            ...\n      PUSH 4\t\t\t         _token,\\n            ...\n      DUP1 \t\t\t         _token,\\n            ...\n      CALLDATASIZE \t\t\t         _token,\\n            ...\n      SUB \t\t\t         _token,\\n            ...\n      DUP2 \t\t\t         _token,\\n            ...\n      ADD \t\t\t         _token,\\n            ...\n      SWAP1 \t\t\t         _token,\\n            ...\n      PUSH [tag] 27\t\t\t         _token,\\n            ...\n      SWAP2 \t\t\t         _token,\\n            ...\n      SWAP1 \t\t\t         _token,\\n            ...\n      PUSH [tag] 28\t\t\t         _token,\\n            ...\n      JUMP \t\t\t         _token,\\n            ...\n    tag 27\t\t\t         _token,\\n            ...\n      JUMPDEST \t\t\t         _token,\\n            ...\n      PUSH [tag] 29\t\t\t         _token,\\n            ...\n      JUMP \t\t\t         _token,\\n            ...\n    tag 26\t\t\t         _token,\\n            ...\n      JUMPDEST \t\t\t         _token,\\n            ...\n      PUSH 40\t\t\t         _token,\\n            ...\n      MLOAD \t\t\t         _token,\\n            ...\n      PUSH [tag] 30\t\t\t         _token,\\n            ...\n      SWAP2 \t\t\t         _token,\\n            ...\n      SWAP1 \t\t\t         _token,\\n            ...\n      PUSH [tag] 31\t\t\t         _token,\\n            ...\n      JUMP \t\t\t         _token,\\n            ...\n    tag 30\t\t\t         _token,\\n            ...\n      JUMPDEST \t\t\t         _token,\\n            ...\n      PUSH 40\t\t\t         _token,\\n            ...\n      MLOAD \t\t\t         _token,\\n            ...\n      DUP1 \t\t\t         _token,\\n            ...\n      SWAP2 \t\t\t         _token,\\n            ...\n      SUB \t\t\t         _token,\\n            ...\n      SWAP1 \t\t\t         _token,\\n            ...\n      RETURN \t\t\t         _token,\\n            ...\n    tag 3\t\t\t memory _uri) public onlyOwner...\n      JUMPDEST \t\t\t memory _uri) public onlyOwner...\n      CALLVALUE \t\t\t memory _uri) public onlyOwner...\n      DUP1 \t\t\t memory _uri) public onlyOwner...\n      ISZERO \t\t\t memory _uri) public onlyOwner...\n      PUSH [tag] 32\t\t\t memory _uri) public onlyOwner...\n      JUMPI \t\t\t memory _uri) public onlyOwner...\n      PUSH 0\t\t\t memory _uri) public onlyOwner...\n      DUP1 \t\t\t memory _uri) public onlyOwner...\n      REVERT \t\t\t memory _uri) public onlyOwner...\n    tag 32\t\t\t memory _uri) public onlyOwner...\n      JUMPDEST \t\t\t memory _uri) public onlyOwner...\n      POP \t\t\t memory _uri) public onlyOwner...\n      PUSH [tag] 33\t\t\t memory _uri) public onlyOwner...\n      PUSH 4\t\t\t memory _uri) public onlyOwner...\n      DUP1 \t\t\t memory _uri) public onlyOwner...\n      CALLDATASIZE \t\t\t memory _uri) public onlyOwner...\n      SUB \t\t\t memory _uri) public onlyOwner...\n      DUP2 \t\t\t memory _uri) public onlyOwner...\n      ADD \t\t\t memory _uri) public onlyOwner...\n      SWAP1 \t\t\t memory _uri) public onlyOwner...\n      PUSH [tag] 34\t\t\t memory _uri) public onlyOwner...\n      SWAP2 \t\t\t memory _uri) public onlyOwner...\n      SWAP1 \t\t\t memory _uri) public onlyOwner...\n      PUSH [tag] 35\t\t\t memory _uri) public onlyOwner...\n      JUMP \t\t\t memory _uri) public onlyOwner...\n    tag 34\t\t\t memory _uri) public onlyOwner...\n      JUMPDEST \t\t\t memory _uri) public onlyOwner...\n      PUSH [tag] 36\t\t\t memory _uri) public onlyOwner...\n      JUMP \t\t\t memory _uri) public onlyOwner...\n    tag 33\t\t\t memory _uri) public onlyOwner...\n      JUMPDEST \t\t\t memory _uri) public onlyOwner...\n      PUSH 40\t\t\t memory _uri) public onlyOwner...\n      MLOAD \t\t\t memory _uri) public onlyOwner...\n      PUSH [tag] 37\t\t\t memory _uri) public onlyOwner...\n      SWAP2 \t\t\t memory _uri) public onlyOwner...\n      SWAP1 \t\t\t memory _uri) public onlyOwner...\n      PUSH [tag] 38\t\t\t memory _uri) public onlyOwner...\n      JUMP \t\t\t memory _uri) public onlyOwner...\n    tag 37\t\t\t memory _uri) public onlyOwner...\n      JUMPDEST \t\t\t memory _uri) public onlyOwner...\n      PUSH 40\t\t\t memory _uri) public onlyOwner...\n      MLOAD \t\t\t memory _uri) public onlyOwner...\n      DUP1 \t\t\t memory _uri) public onlyOwner...\n      SWAP2 \t\t\t memory _uri) public onlyOwner...\n      SUB \t\t\t memory _uri) public onlyOwner...\n      SWAP1 \t\t\t memory _uri) public onlyOwner...\n      RETURN \t\t\t memory _uri) public onlyOwner...\n    tag 4\t\t\tfunction uri(uint256 tokenId) ...\n      JUMPDEST \t\t\tfunction uri(uint256 tokenId) ...\n      CALLVALUE \t\t\tfunction uri(uint256 tokenId) ...\n      DUP1 \t\t\tfunction uri(uint256 tokenId) ...\n      ISZERO \t\t\tfunction uri(uint256 tokenId) ...\n      PUSH [tag] 39\t\t\tfunction uri(uint256 tokenId) ...\n      JUMPI \t\t\tfunction uri(uint256 tokenId) ...\n      PUSH 0\t\t\tfunction uri(uint256 tokenId) ...\n      DUP1 \t\t\tfunction uri(uint256 tokenId) ...\n      REVERT \t\t\tfunction uri(uint256 tokenId) ...\n    tag 39\t\t\tfunction uri(uint256 tokenId) ...\n      JUMPDEST \t\t\tfunction uri(uint256 tokenId) ...\n      POP \t\t\tfunction uri(uint256 tokenId) ...\n      PUSH [tag] 40\t\t\tfunction uri(uint256 tokenId) ...\n      PUSH 4\t\t\tfunction uri(uint256 tokenId) ...\n      DUP1 \t\t\tfunction uri(uint256 tokenId) ...\n      CALLDATASIZE \t\t\tfunction uri(uint256 tokenId) ...\n      SUB \t\t\tfunction uri(uint256 tokenId) ...\n      DUP2 \t\t\tfunction uri(uint256 tokenId) ...\n      ADD \t\t\tfunction uri(uint256 tokenId) ...\n      SWAP1 \t\t\tfunction uri(uint256 tokenId) ...\n      PUSH [tag] 41\t\t\tfunction uri(uint256 tokenId) ...\n      SWAP2 \t\t\tfunction uri(uint256 tokenId) ...\n      SWAP1 \t\t\tfunction uri(uint256 tokenId) ...\n      PUSH [tag] 42\t\t\tfunction uri(uint256 tokenId) ...\n      JUMP \t\t\tfunction uri(uint256 tokenId) ...\n    tag 41\t\t\tfunction uri(uint256 tokenId) ...\n      JUMPDEST \t\t\tfunction uri(uint256 tokenId) ...\n      PUSH [tag] 43\t\t\tfunction uri(uint256 tokenId) ...\n      JUMP \t\t\tfunction uri(uint256 tokenId) ...\n    tag 40\t\t\tfunction uri(uint256 tokenId) ...\n      JUMPDEST \t\t\tfunction uri(uint256 tokenId) ...\n      PUSH 40\t\t\tfunction uri(uint256 tokenId) ...\n      MLOAD \t\t\tfunction uri(uint256 tokenId) ...\n      PUSH [tag] 44\t\t\tfunction uri(uint256 tokenId) ...\n      SWAP2 \t\t\tfunction uri(uint256 tokenId) ...\n      SWAP1 \t\t\tfunction uri(uint256 tokenId) ...\n      PUSH [tag] 45\t\t\tfunction uri(uint256 tokenId) ...\n      JUMP \t\t\tfunction uri(uint256 tokenId) ...\n    tag 44\t\t\tfunction uri(uint256 tokenId) ...\n      JUMPDEST \t\t\tfunction uri(uint256 tokenId) ...\n      PUSH 40\t\t\tfunction uri(uint256 tokenId) ...\n      MLOAD \t\t\tfunction uri(uint256 tokenId) ...\n      DUP1 \t\t\tfunction uri(uint256 tokenId) ...\n      SWAP2 \t\t\tfunction uri(uint256 tokenId) ...\n      SUB \t\t\tfunction uri(uint256 tokenId) ...\n      SWAP1 \t\t\tfunction uri(uint256 tokenId) ...\n      RETURN \t\t\tfunction uri(uint256 tokenId) ...\n    tag 5\t\t\tfunction buyNFT(uint256 tokenI...\n      JUMPDEST \t\t\tfunction buyNFT(uint256 tokenI...\n      PUSH [tag] 46\t\t\tfunction buyNFT(uint256 tokenI...\n      PUSH 4\t\t\tfunction buyNFT(uint256 tokenI...\n      DUP1 \t\t\tfunction buyNFT(uint256 tokenI...\n      CALLDATASIZE \t\t\tfunction buyNFT(uint256 tokenI...\n      SUB \t\t\tfunction buyNFT(uint256 tokenI...\n      DUP2 \t\t\tfunction buyNFT(uint256 tokenI...\n      ADD \t\t\tfunction buyNFT(uint256 tokenI...\n      SWAP1 \t\t\tfunction buyNFT(uint256 tokenI...\n      PUSH [tag] 47\t\t\tfunction buyNFT(uint256 tokenI...\n      SWAP2 \t\t\tfunction buyNFT(uint256 tokenI...\n      SWAP1 \t\t\tfunction buyNFT(uint256 tokenI...\n      PUSH [tag] 48\t\t\tfunction buyNFT(uint256 tokenI...\n      JUMP \t\t\tfunction buyNFT(uint256 tokenI...\n    tag 47\t\t\tfunction buyNFT(uint256 tokenI...\n      JUMPDEST \t\t\tfunction buyNFT(uint256 tokenI...\n      PUSH [tag] 49\t\t\tfunction buyNFT(uint256 tokenI...\n      JUMP \t\t\tfunction buyNFT(uint256 tokenI...\n    tag 46\t\t\tfunction buyNFT(uint256 tokenI...\n      JUMPDEST \t\t\tfunction buyNFT(uint256 tokenI...\n      STOP \t\t\tfunction buyNFT(uint256 tokenI...\n    tag 6\t\t\this.onERC1155Received.selector...\n      JUMPDEST \t\t\this.onERC1155Received.selector...\n      CALLVALUE \t\t\this.onERC1155Received.selector...\n      DUP1 \t\t\this.onERC1155Received.selector...\n      ISZERO \t\t\this.onERC1155Received.selector...\n      PUSH [tag] 50\t\t\this.onERC1155Received.selector...\n      JUMPI \t\t\this.onERC1155Received.selector...\n      PUSH 0\t\t\this.onERC1155Received.selector...\n      DUP1 \t\t\this.onERC1155Received.selector...\n      REVERT \t\t\this.onERC1155Received.selector...\n    tag 50\t\t\this.onERC1155Received.selector...\n      JUMPDEST \t\t\this.onERC1155Received.selector...\n      POP \t\t\this.onERC1155Received.selector...\n      PUSH [tag] 51\t\t\this.onERC1155Received.selector...\n      PUSH 4\t\t\this.onERC1155Received.selector...\n      DUP1 \t\t\this.onERC1155Received.selector...\n      CALLDATASIZE \t\t\this.onERC1155Received.selector...\n      SUB \t\t\this.onERC1155Received.selector...\n      DUP2 \t\t\this.onERC1155Received.selector...\n      ADD \t\t\this.onERC1155Received.selector...\n      SWAP1 \t\t\this.onERC1155Received.selector...\n      PUSH [tag] 52\t\t\this.onERC1155Received.selector...\n      SWAP2 \t\t\this.onERC1155Received.selector...\n      SWAP1 \t\t\this.onERC1155Received.selector...\n      PUSH [tag] 53\t\t\this.onERC1155Received.selector...\n      JUMP \t\t\this.onERC1155Received.selector...\n    tag 52\t\t\this.onERC1155Received.selector...\n      JUMPDEST \t\t\this.onERC1155Received.selector...\n      PUSH [tag] 54\t\t\this.onERC1155Received.selector...\n      JUMP \t\t\this.onERC1155Received.selector...\n    tag 51\t\t\this.onERC1155Received.selector...\n      JUMPDEST \t\t\this.onERC1155Received.selector...\n      STOP \t\t\this.onERC1155Received.selector...\n    tag 7\t\t\teccak256(b));\\n    }\\n\\n    fu...\n      JUMPDEST \t\t\teccak256(b));\\n    }\\n\\n    fu...\n      CALLVALUE \t\t\teccak256(b));\\n    }\\n\\n    fu...\n      DUP1 \t\t\teccak256(b));\\n    }\\n\\n    fu...\n      ISZERO \t\t\teccak256(b));\\n    }\\n\\n    fu...\n      PUSH [tag] 55\t\t\teccak256(b));\\n    }\\n\\n    fu...\n      JUMPI \t\t\teccak256(b));\\n    }\\n\\n    fu...\n      PUSH 0\t\t\teccak256(b));\\n    }\\n\\n    fu...\n      DUP1 \t\t\teccak256(b));\\n    }\\n\\n    fu...\n      REVERT \t\t\teccak256(b));\\n    }\\n\\n    fu...\n    tag 55\t\t\teccak256(b));\\n    }\\n\\n    fu...\n      JUMPDEST \t\t\teccak256(b));\\n    }\\n\\n    fu...\n      POP \t\t\teccak256(b));\\n    }\\n\\n    fu...\n      PUSH [tag] 56\t\t\teccak256(b));\\n    }\\n\\n    fu...\n      PUSH 4\t\t\teccak256(b));\\n    }\\n\\n    fu...\n      DUP1 \t\t\teccak256(b));\\n    }\\n\\n    fu...\n      CALLDATASIZE \t\t\teccak256(b));\\n    }\\n\\n    fu...\n      SUB \t\t\teccak256(b));\\n    }\\n\\n    fu...\n      DUP2 \t\t\teccak256(b));\\n    }\\n\\n    fu...\n      ADD \t\t\teccak256(b));\\n    }\\n\\n    fu...\n      SWAP1 \t\t\teccak256(b));\\n    }\\n\\n    fu...\n      PUSH [tag] 57\t\t\teccak256(b));\\n    }\\n\\n    fu...\n      SWAP2 \t\t\teccak256(b));\\n    }\\n\\n    fu...\n      SWAP1 \t\t\teccak256(b));\\n    }\\n\\n    fu...\n      PUSH [tag] 58\t\t\teccak256(b));\\n    }\\n\\n    fu...\n      JUMP \t\t\teccak256(b));\\n    }\\n\\n    fu...\n    tag 57\t\t\teccak256(b));\\n    }\\n\\n    fu...\n      JUMPDEST \t\t\teccak256(b));\\n    }\\n\\n    fu...\n      PUSH [tag] 59\t\t\teccak256(b));\\n    }\\n\\n    fu...\n      JUMP \t\t\teccak256(b));\\n    }\\n\\n    fu...\n    tag 56\t\t\teccak256(b));\\n    }\\n\\n    fu...\n      JUMPDEST \t\t\teccak256(b));\\n    }\\n\\n    fu...\n      PUSH 40\t\t\teccak256(b));\\n    }\\n\\n    fu...\n      MLOAD \t\t\teccak256(b));\\n    }\\n\\n    fu...\n      PUSH [tag] 60\t\t\teccak256(b));\\n    }\\n\\n    fu...\n      SWAP2 \t\t\teccak256(b));\\n    }\\n\\n    fu...\n      SWAP1 \t\t\teccak256(b));\\n    }\\n\\n    fu...\n      PUSH [tag] 61\t\t\teccak256(b));\\n    }\\n\\n    fu...\n      JUMP \t\t\teccak256(b));\\n    }\\n\\n    fu...\n    tag 60\t\t\teccak256(b));\\n    }\\n\\n    fu...\n      JUMPDEST \t\t\teccak256(b));\\n    }\\n\\n    fu...\n      PUSH 40\t\t\teccak256(b));\\n    }\\n\\n    fu...\n      MLOAD \t\t\teccak256(b));\\n    }\\n\\n    fu...\n      DUP1 \t\t\teccak256(b));\\n    }\\n\\n    fu...\n      SWAP2 \t\t\teccak256(b));\\n    }\\n\\n    fu...\n      SUB \t\t\teccak256(b));\\n    }\\n\\n    fu...\n      SWAP1 \t\t\teccak256(b));\\n    }\\n\\n    fu...\n      RETURN \t\t\teccak256(b));\\n    }\\n\\n    fu...\n    tag 8\t\t\tstring[] public tokens\n      JUMPDEST \t\t\tstring[] public tokens\n      CALLVALUE \t\t\tstring[] public tokens\n      DUP1 \t\t\tstring[] public tokens\n      ISZERO \t\t\tstring[] public tokens\n      PUSH [tag] 62\t\t\tstring[] public tokens\n      JUMPI \t\t\tstring[] public tokens\n      PUSH 0\t\t\tstring[] public tokens\n      DUP1 \t\t\tstring[] public tokens\n      REVERT \t\t\tstring[] public tokens\n    tag 62\t\t\tstring[] public tokens\n      JUMPDEST \t\t\tstring[] public tokens\n      POP \t\t\tstring[] public tokens\n      PUSH [tag] 63\t\t\tstring[] public tokens\n      PUSH 4\t\t\tstring[] public tokens\n      DUP1 \t\t\tstring[] public tokens\n      CALLDATASIZE \t\t\tstring[] public tokens\n      SUB \t\t\tstring[] public tokens\n      DUP2 \t\t\tstring[] public tokens\n      ADD \t\t\tstring[] public tokens\n      SWAP1 \t\t\tstring[] public tokens\n      PUSH [tag] 64\t\t\tstring[] public tokens\n      SWAP2 \t\t\tstring[] public tokens\n      SWAP1 \t\t\tstring[] public tokens\n      PUSH [tag] 42\t\t\tstring[] public tokens\n      JUMP \t\t\tstring[] public tokens\n    tag 64\t\t\tstring[] public tokens\n      JUMPDEST \t\t\tstring[] public tokens\n      PUSH [tag] 65\t\t\tstring[] public tokens\n      JUMP \t\t\tstring[] public tokens\n    tag 63\t\t\tstring[] public tokens\n      JUMPDEST \t\t\tstring[] public tokens\n      PUSH 40\t\t\tstring[] public tokens\n      MLOAD \t\t\tstring[] public tokens\n      PUSH [tag] 66\t\t\tstring[] public tokens\n      SWAP2 \t\t\tstring[] public tokens\n      SWAP1 \t\t\tstring[] public tokens\n      PUSH [tag] 45\t\t\tstring[] public tokens\n      JUMP \t\t\tstring[] public tokens\n    tag 66\t\t\tstring[] public tokens\n      JUMPDEST \t\t\tstring[] public tokens\n      PUSH 40\t\t\tstring[] public tokens\n      MLOAD \t\t\tstring[] public tokens\n      DUP1 \t\t\tstring[] public tokens\n      SWAP2 \t\t\tstring[] public tokens\n      SUB \t\t\tstring[] public tokens\n      SWAP1 \t\t\tstring[] public tokens\n      RETURN \t\t\tstring[] public tokens\n    tag 9\t\t\tfunction safeMint(\\n        st...\n      JUMPDEST \t\t\tfunction safeMint(\\n        st...\n      PUSH [tag] 67\t\t\tfunction safeMint(\\n        st...\n      PUSH 4\t\t\tfunction safeMint(\\n        st...\n      DUP1 \t\t\tfunction safeMint(\\n        st...\n      CALLDATASIZE \t\t\tfunction safeMint(\\n        st...\n      SUB \t\t\tfunction safeMint(\\n        st...\n      DUP2 \t\t\tfunction safeMint(\\n        st...\n      ADD \t\t\tfunction safeMint(\\n        st...\n      SWAP1 \t\t\tfunction safeMint(\\n        st...\n      PUSH [tag] 68\t\t\tfunction safeMint(\\n        st...\n      SWAP2 \t\t\tfunction safeMint(\\n        st...\n      SWAP1 \t\t\tfunction safeMint(\\n        st...\n      PUSH [tag] 69\t\t\tfunction safeMint(\\n        st...\n      JUMP \t\t\tfunction safeMint(\\n        st...\n    tag 68\t\t\tfunction safeMint(\\n        st...\n      JUMPDEST \t\t\tfunction safeMint(\\n        st...\n      PUSH [tag] 70\t\t\tfunction safeMint(\\n        st...\n      JUMP \t\t\tfunction safeMint(\\n        st...\n    tag 67\t\t\tfunction safeMint(\\n        st...\n      JUMPDEST \t\t\tfunction safeMint(\\n        st...\n      STOP \t\t\tfunction safeMint(\\n        st...\n    tag 10\t\t\tenExists[_token], \"The token U...\n      JUMPDEST \t\t\tenExists[_token], \"The token U...\n      CALLVALUE \t\t\tenExists[_token], \"The token U...\n      DUP1 \t\t\tenExists[_token], \"The token U...\n      ISZERO \t\t\tenExists[_token], \"The token U...\n      PUSH [tag] 71\t\t\tenExists[_token], \"The token U...\n      JUMPI \t\t\tenExists[_token], \"The token U...\n      PUSH 0\t\t\tenExists[_token], \"The token U...\n      DUP1 \t\t\tenExists[_token], \"The token U...\n      REVERT \t\t\tenExists[_token], \"The token U...\n    tag 71\t\t\tenExists[_token], \"The token U...\n      JUMPDEST \t\t\tenExists[_token], \"The token U...\n      POP \t\t\tenExists[_token], \"The token U...\n      PUSH [tag] 72\t\t\tenExists[_token], \"The token U...\n      PUSH [tag] 73\t\t\tenExists[_token], \"The token U...\n      JUMP \t\t\tenExists[_token], \"The token U...\n    tag 72\t\t\tenExists[_token], \"The token U...\n      JUMPDEST \t\t\tenExists[_token], \"The token U...\n      STOP \t\t\tenExists[_token], \"The token U...\n    tag 11\t\t\tfunction reSale(\\n        uint...\n      JUMPDEST \t\t\tfunction reSale(\\n        uint...\n      PUSH [tag] 74\t\t\tfunction reSale(\\n        uint...\n      PUSH 4\t\t\tfunction reSale(\\n        uint...\n      DUP1 \t\t\tfunction reSale(\\n        uint...\n      CALLDATASIZE \t\t\tfunction reSale(\\n        uint...\n      SUB \t\t\tfunction reSale(\\n        uint...\n      DUP2 \t\t\tfunction reSale(\\n        uint...\n      ADD \t\t\tfunction reSale(\\n        uint...\n      SWAP1 \t\t\tfunction reSale(\\n        uint...\n      PUSH [tag] 75\t\t\tfunction reSale(\\n        uint...\n      SWAP2 \t\t\tfunction reSale(\\n        uint...\n      SWAP1 \t\t\tfunction reSale(\\n        uint...\n      PUSH [tag] 48\t\t\tfunction reSale(\\n        uint...\n      JUMP \t\t\tfunction reSale(\\n        uint...\n    tag 75\t\t\tfunction reSale(\\n        uint...\n      JUMPDEST \t\t\tfunction reSale(\\n        uint...\n      PUSH [tag] 76\t\t\tfunction reSale(\\n        uint...\n      JUMP \t\t\tfunction reSale(\\n        uint...\n    tag 74\t\t\tfunction reSale(\\n        uint...\n      JUMPDEST \t\t\tfunction reSale(\\n        uint...\n      PUSH 40\t\t\tfunction reSale(\\n        uint...\n      MLOAD \t\t\tfunction reSale(\\n        uint...\n      PUSH [tag] 77\t\t\tfunction reSale(\\n        uint...\n      SWAP2 \t\t\tfunction reSale(\\n        uint...\n      SWAP1 \t\t\tfunction reSale(\\n        uint...\n      PUSH [tag] 31\t\t\tfunction reSale(\\n        uint...\n      JUMP \t\t\tfunction reSale(\\n        uint...\n    tag 77\t\t\tfunction reSale(\\n        uint...\n      JUMPDEST \t\t\tfunction reSale(\\n        uint...\n      PUSH 40\t\t\tfunction reSale(\\n        uint...\n      MLOAD \t\t\tfunction reSale(\\n        uint...\n      DUP1 \t\t\tfunction reSale(\\n        uint...\n      SWAP2 \t\t\tfunction reSale(\\n        uint...\n      SUB \t\t\tfunction reSale(\\n        uint...\n      SWAP1 \t\t\tfunction reSale(\\n        uint...\n      RETURN \t\t\tfunction reSale(\\n        uint...\n    tag 12\t\t\tsic) private musics;\\n\\n    co...\n      JUMPDEST \t\t\tsic) private musics;\\n\\n    co...\n      CALLVALUE \t\t\tsic) private musics;\\n\\n    co...\n      DUP1 \t\t\tsic) private musics;\\n\\n    co...\n      ISZERO \t\t\tsic) private musics;\\n\\n    co...\n      PUSH [tag] 78\t\t\tsic) private musics;\\n\\n    co...\n      JUMPI \t\t\tsic) private musics;\\n\\n    co...\n      PUSH 0\t\t\tsic) private musics;\\n\\n    co...\n      DUP1 \t\t\tsic) private musics;\\n\\n    co...\n      REVERT \t\t\tsic) private musics;\\n\\n    co...\n    tag 78\t\t\tsic) private musics;\\n\\n    co...\n      JUMPDEST \t\t\tsic) private musics;\\n\\n    co...\n      POP \t\t\tsic) private musics;\\n\\n    co...\n      PUSH [tag] 79\t\t\tsic) private musics;\\n\\n    co...\n      PUSH [tag] 80\t\t\tsic) private musics;\\n\\n    co...\n      JUMP \t\t\tsic) private musics;\\n\\n    co...\n    tag 79\t\t\tsic) private musics;\\n\\n    co...\n      JUMPDEST \t\t\tsic) private musics;\\n\\n    co...\n      PUSH 40\t\t\tsic) private musics;\\n\\n    co...\n      MLOAD \t\t\tsic) private musics;\\n\\n    co...\n      PUSH [tag] 81\t\t\tsic) private musics;\\n\\n    co...\n      SWAP2 \t\t\tsic) private musics;\\n\\n    co...\n      SWAP1 \t\t\tsic) private musics;\\n\\n    co...\n      PUSH [tag] 82\t\t\tsic) private musics;\\n\\n    co...\n      JUMP \t\t\tsic) private musics;\\n\\n    co...\n    tag 81\t\t\tsic) private musics;\\n\\n    co...\n      JUMPDEST \t\t\tsic) private musics;\\n\\n    co...\n      PUSH 40\t\t\tsic) private musics;\\n\\n    co...\n      MLOAD \t\t\tsic) private musics;\\n\\n    co...\n      DUP1 \t\t\tsic) private musics;\\n\\n    co...\n      SWAP2 \t\t\tsic) private musics;\\n\\n    co...\n      SUB \t\t\tsic) private musics;\\n\\n    co...\n      SWAP1 \t\t\tsic) private musics;\\n\\n    co...\n      RETURN \t\t\tsic) private musics;\\n\\n    co...\n    tag 13\t\t\tfunction music(uint256 _tokenI...\n      JUMPDEST \t\t\tfunction music(uint256 _tokenI...\n      CALLVALUE \t\t\tfunction music(uint256 _tokenI...\n      DUP1 \t\t\tfunction music(uint256 _tokenI...\n      ISZERO \t\t\tfunction music(uint256 _tokenI...\n      PUSH [tag] 83\t\t\tfunction music(uint256 _tokenI...\n      JUMPI \t\t\tfunction music(uint256 _tokenI...\n      PUSH 0\t\t\tfunction music(uint256 _tokenI...\n      DUP1 \t\t\tfunction music(uint256 _tokenI...\n      REVERT \t\t\tfunction music(uint256 _tokenI...\n    tag 83\t\t\tfunction music(uint256 _tokenI...\n      JUMPDEST \t\t\tfunction music(uint256 _tokenI...\n      POP \t\t\tfunction music(uint256 _tokenI...\n      PUSH [tag] 84\t\t\tfunction music(uint256 _tokenI...\n      PUSH 4\t\t\tfunction music(uint256 _tokenI...\n      DUP1 \t\t\tfunction music(uint256 _tokenI...\n      CALLDATASIZE \t\t\tfunction music(uint256 _tokenI...\n      SUB \t\t\tfunction music(uint256 _tokenI...\n      DUP2 \t\t\tfunction music(uint256 _tokenI...\n      ADD \t\t\tfunction music(uint256 _tokenI...\n      SWAP1 \t\t\tfunction music(uint256 _tokenI...\n      PUSH [tag] 85\t\t\tfunction music(uint256 _tokenI...\n      SWAP2 \t\t\tfunction music(uint256 _tokenI...\n      SWAP1 \t\t\tfunction music(uint256 _tokenI...\n      PUSH [tag] 42\t\t\tfunction music(uint256 _tokenI...\n      JUMP \t\t\tfunction music(uint256 _tokenI...\n    tag 85\t\t\tfunction music(uint256 _tokenI...\n      JUMPDEST \t\t\tfunction music(uint256 _tokenI...\n      PUSH [tag] 86\t\t\tfunction music(uint256 _tokenI...\n      JUMP \t\t\tfunction music(uint256 _tokenI...\n    tag 84\t\t\tfunction music(uint256 _tokenI...\n      JUMPDEST \t\t\tfunction music(uint256 _tokenI...\n      PUSH 40\t\t\tfunction music(uint256 _tokenI...\n      MLOAD \t\t\tfunction music(uint256 _tokenI...\n      PUSH [tag] 87\t\t\tfunction music(uint256 _tokenI...\n      SWAP2 \t\t\tfunction music(uint256 _tokenI...\n      SWAP1 \t\t\tfunction music(uint256 _tokenI...\n      PUSH [tag] 88\t\t\tfunction music(uint256 _tokenI...\n      JUMP \t\t\tfunction music(uint256 _tokenI...\n    tag 87\t\t\tfunction music(uint256 _tokenI...\n      JUMPDEST \t\t\tfunction music(uint256 _tokenI...\n      PUSH 40\t\t\tfunction music(uint256 _tokenI...\n      MLOAD \t\t\tfunction music(uint256 _tokenI...\n      DUP1 \t\t\tfunction music(uint256 _tokenI...\n      SWAP2 \t\t\tfunction music(uint256 _tokenI...\n      SUB \t\t\tfunction music(uint256 _tokenI...\n      SWAP1 \t\t\tfunction music(uint256 _tokenI...\n      RETURN \t\t\tfunction music(uint256 _tokenI...\n    tag 14\t\t\tnId, uint256 amount) external ...\n      JUMPDEST \t\t\tnId, uint256 amount) external ...\n      CALLVALUE \t\t\tnId, uint256 amount) external ...\n      DUP1 \t\t\tnId, uint256 amount) external ...\n      ISZERO \t\t\tnId, uint256 amount) external ...\n      PUSH [tag] 89\t\t\tnId, uint256 amount) external ...\n      JUMPI \t\t\tnId, uint256 amount) external ...\n      PUSH 0\t\t\tnId, uint256 amount) external ...\n      DUP1 \t\t\tnId, uint256 amount) external ...\n      REVERT \t\t\tnId, uint256 amount) external ...\n    tag 89\t\t\tnId, uint256 amount) external ...\n      JUMPDEST \t\t\tnId, uint256 amount) external ...\n      POP \t\t\tnId, uint256 amount) external ...\n      PUSH [tag] 90\t\t\tnId, uint256 amount) external ...\n      PUSH 4\t\t\tnId, uint256 amount) external ...\n      DUP1 \t\t\tnId, uint256 amount) external ...\n      CALLDATASIZE \t\t\tnId, uint256 amount) external ...\n      SUB \t\t\tnId, uint256 amount) external ...\n      DUP2 \t\t\tnId, uint256 amount) external ...\n      ADD \t\t\tnId, uint256 amount) external ...\n      SWAP1 \t\t\tnId, uint256 amount) external ...\n      PUSH [tag] 91\t\t\tnId, uint256 amount) external ...\n      SWAP2 \t\t\tnId, uint256 amount) external ...\n      SWAP1 \t\t\tnId, uint256 amount) external ...\n      PUSH [tag] 92\t\t\tnId, uint256 amount) external ...\n      JUMP \t\t\tnId, uint256 amount) external ...\n    tag 91\t\t\tnId, uint256 amount) external ...\n      JUMPDEST \t\t\tnId, uint256 amount) external ...\n      PUSH [tag] 93\t\t\tnId, uint256 amount) external ...\n      JUMP \t\t\tnId, uint256 amount) external ...\n    tag 90\t\t\tnId, uint256 amount) external ...\n      JUMPDEST \t\t\tnId, uint256 amount) external ...\n      STOP \t\t\tnId, uint256 amount) external ...\n    tag 15\t\t\tfunction getListingFee() publi...\n      JUMPDEST \t\t\tfunction getListingFee() publi...\n      CALLVALUE \t\t\tfunction getListingFee() publi...\n      DUP1 \t\t\tfunction getListingFee() publi...\n      ISZERO \t\t\tfunction getListingFee() publi...\n      PUSH [tag] 94\t\t\tfunction getListingFee() publi...\n      JUMPI \t\t\tfunction getListingFee() publi...\n      PUSH 0\t\t\tfunction getListingFee() publi...\n      DUP1 \t\t\tfunction getListingFee() publi...\n      REVERT \t\t\tfunction getListingFee() publi...\n    tag 94\t\t\tfunction getListingFee() publi...\n      JUMPDEST \t\t\tfunction getListingFee() publi...\n      POP \t\t\tfunction getListingFee() publi...\n      PUSH [tag] 95\t\t\tfunction getListingFee() publi...\n      PUSH [tag] 96\t\t\tfunction getListingFee() publi...\n      JUMP \t\t\tfunction getListingFee() publi...\n    tag 95\t\t\tfunction getListingFee() publi...\n      JUMPDEST \t\t\tfunction getListingFee() publi...\n      PUSH 40\t\t\tfunction getListingFee() publi...\n      MLOAD \t\t\tfunction getListingFee() publi...\n      PUSH [tag] 97\t\t\tfunction getListingFee() publi...\n      SWAP2 \t\t\tfunction getListingFee() publi...\n      SWAP1 \t\t\tfunction getListingFee() publi...\n      PUSH [tag] 31\t\t\tfunction getListingFee() publi...\n      JUMP \t\t\tfunction getListingFee() publi...\n    tag 97\t\t\tfunction getListingFee() publi...\n      JUMPDEST \t\t\tfunction getListingFee() publi...\n      PUSH 40\t\t\tfunction getListingFee() publi...\n      MLOAD \t\t\tfunction getListingFee() publi...\n      DUP1 \t\t\tfunction getListingFee() publi...\n      SWAP2 \t\t\tfunction getListingFee() publi...\n      SUB \t\t\tfunction getListingFee() publi...\n      SWAP1 \t\t\tfunction getListingFee() publi...\n      RETURN \t\t\tfunction getListingFee() publi...\n    tag 16\t\t\tfunction setIPFS(string memory...\n      JUMPDEST \t\t\tfunction setIPFS(string memory...\n      CALLVALUE \t\t\tfunction setIPFS(string memory...\n      DUP1 \t\t\tfunction setIPFS(string memory...\n      ISZERO \t\t\tfunction setIPFS(string memory...\n      PUSH [tag] 98\t\t\tfunction setIPFS(string memory...\n      JUMPI \t\t\tfunction setIPFS(string memory...\n      PUSH 0\t\t\tfunction setIPFS(string memory...\n      DUP1 \t\t\tfunction setIPFS(string memory...\n      REVERT \t\t\tfunction setIPFS(string memory...\n    tag 98\t\t\tfunction setIPFS(string memory...\n      JUMPDEST \t\t\tfunction setIPFS(string memory...\n      POP \t\t\tfunction setIPFS(string memory...\n      PUSH [tag] 99\t\t\tfunction setIPFS(string memory...\n      PUSH 4\t\t\tfunction setIPFS(string memory...\n      DUP1 \t\t\tfunction setIPFS(string memory...\n      CALLDATASIZE \t\t\tfunction setIPFS(string memory...\n      SUB \t\t\tfunction setIPFS(string memory...\n      DUP2 \t\t\tfunction setIPFS(string memory...\n      ADD \t\t\tfunction setIPFS(string memory...\n      SWAP1 \t\t\tfunction setIPFS(string memory...\n      PUSH [tag] 100\t\t\tfunction setIPFS(string memory...\n      SWAP2 \t\t\tfunction setIPFS(string memory...\n      SWAP1 \t\t\tfunction setIPFS(string memory...\n      PUSH [tag] 101\t\t\tfunction setIPFS(string memory...\n      JUMP \t\t\tfunction setIPFS(string memory...\n    tag 100\t\t\tfunction setIPFS(string memory...\n      JUMPDEST \t\t\tfunction setIPFS(string memory...\n      PUSH [tag] 102\t\t\tfunction setIPFS(string memory...\n      JUMP \t\t\tfunction setIPFS(string memory...\n    tag 99\t\t\tfunction setIPFS(string memory...\n      JUMPDEST \t\t\tfunction setIPFS(string memory...\n      STOP \t\t\tfunction setIPFS(string memory...\n    tag 17\t\t\tfunction tokenByHash(\\n       ...\n      JUMPDEST \t\t\tfunction tokenByHash(\\n       ...\n      CALLVALUE \t\t\tfunction tokenByHash(\\n       ...\n      DUP1 \t\t\tfunction tokenByHash(\\n       ...\n      ISZERO \t\t\tfunction tokenByHash(\\n       ...\n      PUSH [tag] 103\t\t\tfunction tokenByHash(\\n       ...\n      JUMPI \t\t\tfunction tokenByHash(\\n       ...\n      PUSH 0\t\t\tfunction tokenByHash(\\n       ...\n      DUP1 \t\t\tfunction tokenByHash(\\n       ...\n      REVERT \t\t\tfunction tokenByHash(\\n       ...\n    tag 103\t\t\tfunction tokenByHash(\\n       ...\n      JUMPDEST \t\t\tfunction tokenByHash(\\n       ...\n      POP \t\t\tfunction tokenByHash(\\n       ...\n      PUSH [tag] 104\t\t\tfunction tokenByHash(\\n       ...\n      PUSH 4\t\t\tfunction tokenByHash(\\n       ...\n      DUP1 \t\t\tfunction tokenByHash(\\n       ...\n      CALLDATASIZE \t\t\tfunction tokenByHash(\\n       ...\n      SUB \t\t\tfunction tokenByHash(\\n       ...\n      DUP2 \t\t\tfunction tokenByHash(\\n       ...\n      ADD \t\t\tfunction tokenByHash(\\n       ...\n      SWAP1 \t\t\tfunction tokenByHash(\\n       ...\n      PUSH [tag] 105\t\t\tfunction tokenByHash(\\n       ...\n      SWAP2 \t\t\tfunction tokenByHash(\\n       ...\n      SWAP1 \t\t\tfunction tokenByHash(\\n       ...\n      PUSH [tag] 101\t\t\tfunction tokenByHash(\\n       ...\n      JUMP \t\t\tfunction tokenByHash(\\n       ...\n    tag 105\t\t\tfunction tokenByHash(\\n       ...\n      JUMPDEST \t\t\tfunction tokenByHash(\\n       ...\n      PUSH [tag] 106\t\t\tfunction tokenByHash(\\n       ...\n      JUMP \t\t\tfunction tokenByHash(\\n       ...\n    tag 104\t\t\tfunction tokenByHash(\\n       ...\n      JUMPDEST \t\t\tfunction tokenByHash(\\n       ...\n      PUSH 40\t\t\tfunction tokenByHash(\\n       ...\n      MLOAD \t\t\tfunction tokenByHash(\\n       ...\n      PUSH [tag] 107\t\t\tfunction tokenByHash(\\n       ...\n      SWAP2 \t\t\tfunction tokenByHash(\\n       ...\n      SWAP1 \t\t\tfunction tokenByHash(\\n       ...\n      PUSH [tag] 88\t\t\tfunction tokenByHash(\\n       ...\n      JUMP \t\t\tfunction tokenByHash(\\n       ...\n    tag 107\t\t\tfunction tokenByHash(\\n       ...\n      JUMPDEST \t\t\tfunction tokenByHash(\\n       ...\n      PUSH 40\t\t\tfunction tokenByHash(\\n       ...\n      MLOAD \t\t\tfunction tokenByHash(\\n       ...\n      DUP1 \t\t\tfunction tokenByHash(\\n       ...\n      SWAP2 \t\t\tfunction tokenByHash(\\n       ...\n      SUB \t\t\tfunction tokenByHash(\\n       ...\n      SWAP1 \t\t\tfunction tokenByHash(\\n       ...\n      RETURN \t\t\tfunction tokenByHash(\\n       ...\n    tag 18\t\t\t       musics[tokenId].artirt,...\n      JUMPDEST \t\t\t       musics[tokenId].artirt,...\n      CALLVALUE \t\t\t       musics[tokenId].artirt,...\n      DUP1 \t\t\t       musics[tokenId].artirt,...\n      ISZERO \t\t\t       musics[tokenId].artirt,...\n      PUSH [tag] 108\t\t\t       musics[tokenId].artirt,...\n      JUMPI \t\t\t       musics[tokenId].artirt,...\n      PUSH 0\t\t\t       musics[tokenId].artirt,...\n      DUP1 \t\t\t       musics[tokenId].artirt,...\n      REVERT \t\t\t       musics[tokenId].artirt,...\n    tag 108\t\t\t       musics[tokenId].artirt,...\n      JUMPDEST \t\t\t       musics[tokenId].artirt,...\n      POP \t\t\t       musics[tokenId].artirt,...\n      PUSH [tag] 109\t\t\t       musics[tokenId].artirt,...\n      PUSH 4\t\t\t       musics[tokenId].artirt,...\n      DUP1 \t\t\t       musics[tokenId].artirt,...\n      CALLDATASIZE \t\t\t       musics[tokenId].artirt,...\n      SUB \t\t\t       musics[tokenId].artirt,...\n      DUP2 \t\t\t       musics[tokenId].artirt,...\n      ADD \t\t\t       musics[tokenId].artirt,...\n      SWAP1 \t\t\t       musics[tokenId].artirt,...\n      PUSH [tag] 110\t\t\t       musics[tokenId].artirt,...\n      SWAP2 \t\t\t       musics[tokenId].artirt,...\n      SWAP1 \t\t\t       musics[tokenId].artirt,...\n      PUSH [tag] 111\t\t\t       musics[tokenId].artirt,...\n      JUMP \t\t\t       musics[tokenId].artirt,...\n    tag 110\t\t\t       musics[tokenId].artirt,...\n      JUMPDEST \t\t\t       musics[tokenId].artirt,...\n      PUSH [tag] 112\t\t\t       musics[tokenId].artirt,...\n      JUMP \t\t\t       musics[tokenId].artirt,...\n    tag 109\t\t\t       musics[tokenId].artirt,...\n      JUMPDEST \t\t\t       musics[tokenId].artirt,...\n      PUSH 40\t\t\t       musics[tokenId].artirt,...\n      MLOAD \t\t\t       musics[tokenId].artirt,...\n      PUSH [tag] 113\t\t\t       musics[tokenId].artirt,...\n      SWAP2 \t\t\t       musics[tokenId].artirt,...\n      SWAP1 \t\t\t       musics[tokenId].artirt,...\n      PUSH [tag] 38\t\t\t       musics[tokenId].artirt,...\n      JUMP \t\t\t       musics[tokenId].artirt,...\n    tag 113\t\t\t       musics[tokenId].artirt,...\n      JUMPDEST \t\t\t       musics[tokenId].artirt,...\n      PUSH 40\t\t\t       musics[tokenId].artirt,...\n      MLOAD \t\t\t       musics[tokenId].artirt,...\n      DUP1 \t\t\t       musics[tokenId].artirt,...\n      SWAP2 \t\t\t       musics[tokenId].artirt,...\n      SUB \t\t\t       musics[tokenId].artirt,...\n      SWAP1 \t\t\t       musics[tokenId].artirt,...\n      RETURN \t\t\t       musics[tokenId].artirt,...\n    tag 19\t\t\tfunction onERC1155Received(\\n ...\n      JUMPDEST \t\t\tfunction onERC1155Received(\\n ...\n      CALLVALUE \t\t\tfunction onERC1155Received(\\n ...\n      DUP1 \t\t\tfunction onERC1155Received(\\n ...\n      ISZERO \t\t\tfunction onERC1155Received(\\n ...\n      PUSH [tag] 114\t\t\tfunction onERC1155Received(\\n ...\n      JUMPI \t\t\tfunction onERC1155Received(\\n ...\n      PUSH 0\t\t\tfunction onERC1155Received(\\n ...\n      DUP1 \t\t\tfunction onERC1155Received(\\n ...\n      REVERT \t\t\tfunction onERC1155Received(\\n ...\n    tag 114\t\t\tfunction onERC1155Received(\\n ...\n      JUMPDEST \t\t\tfunction onERC1155Received(\\n ...\n      POP \t\t\tfunction onERC1155Received(\\n ...\n      PUSH [tag] 115\t\t\tfunction onERC1155Received(\\n ...\n      PUSH 4\t\t\tfunction onERC1155Received(\\n ...\n      DUP1 \t\t\tfunction onERC1155Received(\\n ...\n      CALLDATASIZE \t\t\tfunction onERC1155Received(\\n ...\n      SUB \t\t\tfunction onERC1155Received(\\n ...\n      DUP2 \t\t\tfunction onERC1155Received(\\n ...\n      ADD \t\t\tfunction onERC1155Received(\\n ...\n      SWAP1 \t\t\tfunction onERC1155Received(\\n ...\n      PUSH [tag] 116\t\t\tfunction onERC1155Received(\\n ...\n      SWAP2 \t\t\tfunction onERC1155Received(\\n ...\n      SWAP1 \t\t\tfunction onERC1155Received(\\n ...\n      PUSH [tag] 117\t\t\tfunction onERC1155Received(\\n ...\n      JUMP \t\t\tfunction onERC1155Received(\\n ...\n    tag 116\t\t\tfunction onERC1155Received(\\n ...\n      JUMPDEST \t\t\tfunction onERC1155Received(\\n ...\n      PUSH [tag] 118\t\t\tfunction onERC1155Received(\\n ...\n      JUMP \t\t\tfunction onERC1155Received(\\n ...\n    tag 115\t\t\tfunction onERC1155Received(\\n ...\n      JUMPDEST \t\t\tfunction onERC1155Received(\\n ...\n      PUSH 40\t\t\tfunction onERC1155Received(\\n ...\n      MLOAD \t\t\tfunction onERC1155Received(\\n ...\n      PUSH [tag] 119\t\t\tfunction onERC1155Received(\\n ...\n      SWAP2 \t\t\tfunction onERC1155Received(\\n ...\n      SWAP1 \t\t\tfunction onERC1155Received(\\n ...\n      PUSH [tag] 120\t\t\tfunction onERC1155Received(\\n ...\n      JUMP \t\t\tfunction onERC1155Received(\\n ...\n    tag 119\t\t\tfunction onERC1155Received(\\n ...\n      JUMPDEST \t\t\tfunction onERC1155Received(\\n ...\n      PUSH 40\t\t\tfunction onERC1155Received(\\n ...\n      MLOAD \t\t\tfunction onERC1155Received(\\n ...\n      DUP1 \t\t\tfunction onERC1155Received(\\n ...\n      SWAP2 \t\t\tfunction onERC1155Received(\\n ...\n      SUB \t\t\tfunction onERC1155Received(\\n ...\n      SWAP1 \t\t\tfunction onERC1155Received(\\n ...\n      RETURN \t\t\tfunction onERC1155Received(\\n ...\n    tag 20\t\t\ted(address(this), msg.sender, ...\n      JUMPDEST \t\t\ted(address(this), msg.sender, ...\n      CALLVALUE \t\t\ted(address(this), msg.sender, ...\n      DUP1 \t\t\ted(address(this), msg.sender, ...\n      ISZERO \t\t\ted(address(this), msg.sender, ...\n      PUSH [tag] 121\t\t\ted(address(this), msg.sender, ...\n      JUMPI \t\t\ted(address(this), msg.sender, ...\n      PUSH 0\t\t\ted(address(this), msg.sender, ...\n      DUP1 \t\t\ted(address(this), msg.sender, ...\n      REVERT \t\t\ted(address(this), msg.sender, ...\n    tag 121\t\t\ted(address(this), msg.sender, ...\n      JUMPDEST \t\t\ted(address(this), msg.sender, ...\n      POP \t\t\ted(address(this), msg.sender, ...\n      PUSH [tag] 122\t\t\ted(address(this), msg.sender, ...\n      PUSH 4\t\t\ted(address(this), msg.sender, ...\n      DUP1 \t\t\ted(address(this), msg.sender, ...\n      CALLDATASIZE \t\t\ted(address(this), msg.sender, ...\n      SUB \t\t\ted(address(this), msg.sender, ...\n      DUP2 \t\t\ted(address(this), msg.sender, ...\n      ADD \t\t\ted(address(this), msg.sender, ...\n      SWAP1 \t\t\ted(address(this), msg.sender, ...\n      PUSH [tag] 123\t\t\ted(address(this), msg.sender, ...\n      SWAP2 \t\t\ted(address(this), msg.sender, ...\n      SWAP1 \t\t\ted(address(this), msg.sender, ...\n      PUSH [tag] 117\t\t\ted(address(this), msg.sender, ...\n      JUMP \t\t\ted(address(this), msg.sender, ...\n    tag 123\t\t\ted(address(this), msg.sender, ...\n      JUMPDEST \t\t\ted(address(this), msg.sender, ...\n      PUSH [tag] 124\t\t\ted(address(this), msg.sender, ...\n      JUMP \t\t\ted(address(this), msg.sender, ...\n    tag 122\t\t\ted(address(this), msg.sender, ...\n      JUMPDEST \t\t\ted(address(this), msg.sender, ...\n      STOP \t\t\ted(address(this), msg.sender, ...\n    tag 21\t\t\tkens.push(_token);\\n        ui...\n      JUMPDEST \t\t\tkens.push(_token);\\n        ui...\n      CALLVALUE \t\t\tkens.push(_token);\\n        ui...\n      DUP1 \t\t\tkens.push(_token);\\n        ui...\n      ISZERO \t\t\tkens.push(_token);\\n        ui...\n      PUSH [tag] 125\t\t\tkens.push(_token);\\n        ui...\n      JUMPI \t\t\tkens.push(_token);\\n        ui...\n      PUSH 0\t\t\tkens.push(_token);\\n        ui...\n      DUP1 \t\t\tkens.push(_token);\\n        ui...\n      REVERT \t\t\tkens.push(_token);\\n        ui...\n    tag 125\t\t\tkens.push(_token);\\n        ui...\n      JUMPDEST \t\t\tkens.push(_token);\\n        ui...\n      POP \t\t\tkens.push(_token);\\n        ui...\n      PUSH [tag] 126\t\t\tkens.push(_token);\\n        ui...\n      PUSH 4\t\t\tkens.push(_token);\\n        ui...\n      DUP1 \t\t\tkens.push(_token);\\n        ui...\n      CALLDATASIZE \t\t\tkens.push(_token);\\n        ui...\n      SUB \t\t\tkens.push(_token);\\n        ui...\n      DUP2 \t\t\tkens.push(_token);\\n        ui...\n      ADD \t\t\tkens.push(_token);\\n        ui...\n      SWAP1 \t\t\tkens.push(_token);\\n        ui...\n      PUSH [tag] 127\t\t\tkens.push(_token);\\n        ui...\n      SWAP2 \t\t\tkens.push(_token);\\n        ui...\n      SWAP1 \t\t\tkens.push(_token);\\n        ui...\n      PUSH [tag] 128\t\t\tkens.push(_token);\\n        ui...\n      JUMP \t\t\tkens.push(_token);\\n        ui...\n    tag 127\t\t\tkens.push(_token);\\n        ui...\n      JUMPDEST \t\t\tkens.push(_token);\\n        ui...\n      PUSH [tag] 129\t\t\tkens.push(_token);\\n        ui...\n      JUMP \t\t\tkens.push(_token);\\n        ui...\n    tag 126\t\t\tkens.push(_token);\\n        ui...\n      JUMPDEST \t\t\tkens.push(_token);\\n        ui...\n      STOP \t\t\tkens.push(_token);\\n        ui...\n    tag 29\t\t\t         _token,\\n            ...\n      JUMPDEST \t\t\t         _token,\\n            ...\n      PUSH 0\t\t\ter)\\n   \n      DUP1 \t\t\t5\n      PUSH FFFFFFFFFFFFFFFFFFFFFFFFFFFFFFFFFFFFFFFF\t\t\tunction music(uint256\n      AND \t\t\tunction music(uint256\n      DUP4 \t\t\tunction\n      PUSH FFFFFFFFFFFFFFFFFFFFFFFFFFFFFFFFFFFFFFFF\t\t\tunction music(uint256\n      AND \t\t\tunction music(uint256\n      SUB \t\t\tunction music(uint256\n      PUSH [tag] 131\t\t\t}\\n\\n    function music(uint25...\n      JUMPI \t\t\t}\\n\\n    function music(uint25...\n      PUSH 40\t\t\t}\\n\\n    function music(uint25...\n      MLOAD \t\t\t}\\n\\n    function music(uint25...\n      PUSH 8C379A000000000000000000000000000000000000000000000000000000000\t\t\t}\\n\\n    function music(uint25...\n      DUP2 \t\t\t}\\n\\n    function music(uint25...\n      MSTORE \t\t\t}\\n\\n    function music(uint25...\n      PUSH 4\t\t\t}\\n\\n    function music(uint25...\n      ADD \t\t\t}\\n\\n    function music(uint25...\n      PUSH [tag] 132\t\t\t}\\n\\n    function music(uint25...\n      SWAP1 \t\t\t}\\n\\n    function music(uint25...\n      PUSH [tag] 133\t\t\t}\\n\\n    function music(uint25...\n      JUMP \t\t\t}\\n\\n    function music(uint25...\n    tag 132\t\t\t}\\n\\n    function music(uint25...\n      JUMPDEST \t\t\t}\\n\\n    function music(uint25...\n      PUSH 40\t\t\t}\\n\\n    function music(uint25...\n      MLOAD \t\t\t}\\n\\n    function music(uint25...\n      DUP1 \t\t\t}\\n\\n    function music(uint25...\n      SWAP2 \t\t\t}\\n\\n    function music(uint25...\n      SUB \t\t\t}\\n\\n    function music(uint25...\n      SWAP1 \t\t\t}\\n\\n    function music(uint25...\n      REVERT \t\t\t}\\n\\n    function music(uint25...\n    tag 131\t\t\t}\\n\\n    function music(uint25...\n      JUMPDEST \t\t\t}\\n\\n    function music(uint25...\n      PUSH 0\t\t\tsics[_tok\n      DUP1 \t\t\tsics[_tokenId\n      DUP4 \t\t\tnI\n      DUP2 \t\t\tsics[_tokenId\n      MSTORE \t\t\tsics[_tokenId\n      PUSH 20\t\t\tsics[_tokenId\n      ADD \t\t\tsics[_tokenId\n      SWAP1 \t\t\tsics[_tokenId\n      DUP2 \t\t\tsics[_tokenId\n      MSTORE \t\t\tsics[_tokenId\n      PUSH 20\t\t\tsics[_tokenId\n      ADD \t\t\tsics[_tokenId\n      PUSH 0\t\t\tsics[_tokenId\n      KECCAK256 \t\t\tsics[_tokenId\n      PUSH 0\t\t\tsics[_tokenId];\\n    }\\n\n      DUP5 \t\t\t;\\n    }\n      PUSH FFFFFFFFFFFFFFFFFFFFFFFFFFFFFFFFFFFFFFFF\t\t\tsics[_tokenId];\\n    }\\n\n      AND \t\t\tsics[_tokenId];\\n    }\\n\n      PUSH FFFFFFFFFFFFFFFFFFFFFFFFFFFFFFFFFFFFFFFF\t\t\tsics[_tokenId];\\n    }\\n\n      AND \t\t\tsics[_tokenId];\\n    }\\n\n      DUP2 \t\t\tsics[_tokenId];\\n    }\\n\n      MSTORE \t\t\tsics[_tokenId];\\n    }\\n\n      PUSH 20\t\t\tsics[_tokenId];\\n    }\\n\n      ADD \t\t\tsics[_tokenId];\\n    }\\n\n      SWAP1 \t\t\tsics[_tokenId];\\n    }\\n\n      DUP2 \t\t\tsics[_tokenId];\\n    }\\n\n      MSTORE \t\t\tsics[_tokenId];\\n    }\\n\n      PUSH 20\t\t\tsics[_tokenId];\\n    }\\n\n      ADD \t\t\tsics[_tokenId];\\n    }\\n\n      PUSH 0\t\t\tsics[_tokenId];\\n    }\\n\n      KECCAK256 \t\t\tsics[_tokenId];\\n    }\\n\n      SLOAD \t\t\tsics[_tokenId];\\n    }\\n\n      SWAP1 \t\t\tturn musics[_tokenId];\\n    }\\...\n      POP \t\t\tturn musics[_tokenId];\\n    }\\...\n      SWAP3 \t\t\t         _token,\\n            ...\n      SWAP2 \t\t\t         _token,\\n            ...\n      POP \t\t\t         _token,\\n            ...\n      POP \t\t\t         _token,\\n            ...\n      JUMP \t\t\t         _token,\\n            ...\n    tag 36\t\t\t memory _uri) public onlyOwner...\n      JUMPDEST \t\t\t memory _uri) public onlyOwner...\n      PUSH 0\t\t\tblic\n      PUSH D9B67A2600000000000000000000000000000000000000000000000000000000\t\t\t   // require(_exists(toke\n      PUSH FFFFFFFFFFFFFFFFFFFFFFFFFFFFFFFFFFFFFFFFFFFFFFFFFFFFFFFF\t\t\tmemory) {\\n        // require(...\n      NOT \t\t\tmemory) {\\n        // require(...\n      AND \t\t\tmemory) {\\n        // require(...\n      DUP3 \t\t\tmemory) {\\n \n      PUSH FFFFFFFFFFFFFFFFFFFFFFFFFFFFFFFFFFFFFFFFFFFFFFFFFFFFFFFF\t\t\tmemory) {\\n        // require(...\n      NOT \t\t\tmemory) {\\n        // require(...\n      AND \t\t\tmemory) {\\n        // require(...\n      EQ \t\t\tmemory) {\\n        // require(...\n      DUP1 \t\t\tmemory) {\\n        // require(...\n      PUSH [tag] 135\t\t\tmemory) {\\n        // require(...\n      JUMPI \t\t\tmemory) {\\n        // require(...\n      POP \t\t\tmemory) {\\n        // require(...\n      PUSH E89341C00000000000000000000000000000000000000000000000000000000\t\t\tt token\");\\n        return str...\n      PUSH FFFFFFFFFFFFFFFFFFFFFFFFFFFFFFFFFFFFFFFFFFFFFFFFFFFFFFFF\t\t\t for nonexistent token\");\\n   ...\n      NOT \t\t\t for nonexistent token\");\\n   ...\n      AND \t\t\t for nonexistent token\");\\n   ...\n      DUP3 \t\t\t for nonexi\n      PUSH FFFFFFFFFFFFFFFFFFFFFFFFFFFFFFFFFFFFFFFFFFFFFFFFFFFFFFFF\t\t\t for nonexistent token\");\\n   ...\n      NOT \t\t\t for nonexistent token\");\\n   ...\n      AND \t\t\t for nonexistent token\");\\n   ...\n      EQ \t\t\t for nonexistent token\");\\n   ...\n    tag 135\t\t\tmemory) {\\n        // require(...\n      JUMPDEST \t\t\tmemory) {\\n        // require(...\n      DUP1 \t\t\tmemory) {\\n        // require(...\n      PUSH [tag] 136\t\t\tmemory) {\\n        // require(...\n      JUMPI \t\t\tmemory) {\\n        // require(...\n      POP \t\t\tmemory) {\\n        // require(...\n      PUSH [tag] 137\t\t\tS_PATH, musics[tokenId].uri));...\n      DUP3 \t\t\turi));\\n    \n      PUSH [tag] 138\t\t\tS_PATH, musics[tokenId]\n      JUMP \t\t\tS_PATH, musics[tokenId].uri));...\n    tag 137\t\t\tS_PATH, musics[tokenId].uri));...\n      JUMPDEST \t\t\tS_PATH, musics[tokenId].uri));...\n    tag 136\t\t\tmemory) {\\n        // require(...\n      JUMPDEST \t\t\tmemory) {\\n        // require(...\n      SWAP1 \t\t\tde returns (string memory) {\\n...\n      POP \t\t\tde returns (string memory) {\\n...\n      SWAP2 \t\t\t memory _uri) public onlyOwner...\n      SWAP1 \t\t\t memory _uri) public onlyOwner...\n      POP \t\t\t memory _uri) public onlyOwner...\n      JUMP \t\t\t memory _uri) public onlyOwner...\n    tag 43\t\t\tfunction uri(uint256 tokenId) ...\n      JUMPDEST \t\t\tfunction uri(uint256 tokenId) ...\n      PUSH 60\t\t\tstring memory\n      PUSH 5\t\t\tIPFS_PATH\n      PUSH 9\t\t\tmusics\n      PUSH 0\t\t\tmusics[tokenId]\n      DUP5 \t\t\ttokenId\n      DUP2 \t\t\tmusics[tokenId]\n      MSTORE \t\t\tmusics[tokenId]\n      PUSH 20\t\t\tmusics[tokenId]\n      ADD \t\t\tmusics[tokenId]\n      SWAP1 \t\t\tmusics[tokenId]\n      DUP2 \t\t\tmusics[tokenId]\n      MSTORE \t\t\tmusics[tokenId]\n      PUSH 20\t\t\tmusics[tokenId]\n      ADD \t\t\tmusics[tokenId]\n      PUSH 0\t\t\tmusics[tokenId]\n      KECCAK256 \t\t\tmusics[tokenId]\n      PUSH 1\t\t\tmusics[tokenId].uri\n      ADD \t\t\tmusics[tokenId].uri\n      PUSH 40\t\t\tabi.encodePacked(IPFS_PATH, mu...\n      MLOAD \t\t\tabi.encodePacked(IPFS_PATH, mu...\n      PUSH 20\t\t\tabi.encodePacked(IPFS_PATH, mu...\n      ADD \t\t\tabi.encodePacked(IPFS_PATH, mu...\n      PUSH [tag] 140\t\t\tabi.encodePacked(IPFS_PATH, mu...\n      SWAP3 \t\t\tabi.encodePacked(IPFS_PATH, mu...\n      SWAP2 \t\t\tabi.encodePacked(IPFS_PATH, mu...\n      SWAP1 \t\t\tabi.encodePacked(IPFS_PATH, mu...\n      PUSH [tag] 141\t\t\tabi.encodePacked(IPFS_PATH, mu...\n      JUMP \t\t\tabi.encodePacked(IPFS_PATH, mu...\n    tag 140\t\t\tabi.encodePacked(IPFS_PATH, mu...\n      JUMPDEST \t\t\tabi.encodePacked(IPFS_PATH, mu...\n      PUSH 40\t\t\tabi.encodePacked(IPFS_PATH, mu...\n      MLOAD \t\t\tabi.encodePacked(IPFS_PATH, mu...\n      PUSH 20\t\t\tabi.encodePacked(IPFS_PATH, mu...\n      DUP2 \t\t\tabi.encodePacked(IPFS_PATH, mu...\n      DUP4 \t\t\tabi.encodePacked(IPFS_PATH, mu...\n      SUB \t\t\tabi.encodePacked(IPFS_PATH, mu...\n      SUB \t\t\tabi.encodePacked(IPFS_PATH, mu...\n      DUP2 \t\t\tabi.encodePacked(IPFS_PATH, mu...\n      MSTORE \t\t\tabi.encodePacked(IPFS_PATH, mu...\n      SWAP1 \t\t\tabi.encodePacked(IPFS_PATH, mu...\n      PUSH 40\t\t\tabi.encodePacked(IPFS_PATH, mu...\n      MSTORE \t\t\tabi.encodePacked(IPFS_PATH, mu...\n      SWAP1 \t\t\treturn string(abi.encodePacked...\n      POP \t\t\treturn string(abi.encodePacked...\n      SWAP2 \t\t\tfunction uri(uint256 tokenId) ...\n      SWAP1 \t\t\tfunction uri(uint256 tokenId) ...\n      POP \t\t\tfunction uri(uint256 tokenId) ...\n      JUMP \t\t\tfunction uri(uint256 tokenId) ...\n    tag 49\t\t\tfunction buyNFT(uint256 tokenI...\n      JUMPDEST \t\t\tfunction buyNFT(uint256 tokenI...\n      PUSH 0\t\t\tuint256 price\n      PUSH 9\t\t\tmusics\n      PUSH 0\t\t\tmusics[tokenId]\n      DUP5 \t\t\ttokenId\n      DUP2 \t\t\tmusics[tokenId]\n      MSTORE \t\t\tmusics[tokenId]\n      PUSH 20\t\t\tmusics[tokenId]\n      ADD \t\t\tmusics[tokenId]\n      SWAP1 \t\t\tmusics[tokenId]\n      DUP2 \t\t\tmusics[tokenId]\n      MSTORE \t\t\tmusics[tokenId]\n      PUSH 20\t\t\tmusics[tokenId]\n      ADD \t\t\tmusics[tokenId]\n      PUSH 0\t\t\tmusics[tokenId]\n      KECCAK256 \t\t\tmusics[tokenId]\n      PUSH 3\t\t\tmusics[tokenId].price\n      ADD \t\t\tmusics[tokenId].price\n      SLOAD \t\t\tmusics[tokenId].price\n      SWAP1 \t\t\tuint256 price = musics[tokenId...\n      POP \t\t\tuint256 price = musics[tokenId...\n      PUSH 0\t\t\tuint256 salePrice\n      DUP3 \t\t\tamount\n      DUP3 \t\t\tprice\n      PUSH [tag] 143\t\t\tprice * amount\n      SWAP2 \t\t\tprice * amount\n      SWAP1 \t\t\tprice * amount\n      PUSH [tag] 144\t\t\tprice * amount\n      JUMP \t\t\tprice * amount\n    tag 143\t\t\tprice * amount\n      JUMPDEST \t\t\tprice * amount\n      SWAP1 \t\t\tuint256 salePrice = price * am...\n      POP \t\t\tuint256 salePrice = price * am...\n      DUP3 \t\t\tamount\n      PUSH 9\t\t\tmusics\n      PUSH 0\t\t\tmusics[tokenId]\n      DUP7 \t\t\ttokenId\n      DUP2 \t\t\tmusics[tokenId]\n      MSTORE \t\t\tmusics[tokenId]\n      PUSH 20\t\t\tmusics[tokenId]\n      ADD \t\t\tmusics[tokenId]\n      SWAP1 \t\t\tmusics[tokenId]\n      DUP2 \t\t\tmusics[tokenId]\n      MSTORE \t\t\tmusics[tokenId]\n      PUSH 20\t\t\tmusics[tokenId]\n      ADD \t\t\tmusics[tokenId]\n      PUSH 0\t\t\tmusics[tokenId]\n      KECCAK256 \t\t\tmusics[tokenId]\n      PUSH 2\t\t\tmusics[tokenId].amount\n      ADD \t\t\tmusics[tokenId].amount\n      SLOAD \t\t\tmusics[tokenId].amount\n      LT \t\t\tmusics[tokenId].amount >= amou...\n      ISZERO \t\t\tmusics[tokenId].amount >= amou...\n      PUSH [tag] 145\t\t\trequire(musics[tokenId].amount...\n      JUMPI \t\t\trequire(musics[tokenId].amount...\n      PUSH 40\t\t\trequire(musics[tokenId].amount...\n      MLOAD \t\t\trequire(musics[tokenId].amount...\n      PUSH 8C379A000000000000000000000000000000000000000000000000000000000\t\t\trequire(musics[tokenId].amount...\n      DUP2 \t\t\trequire(musics[tokenId].amount...\n      MSTORE \t\t\trequire(musics[tokenId].amount...\n      PUSH 4\t\t\trequire(musics[tokenId].amount...\n      ADD \t\t\trequire(musics[tokenId].amount...\n      PUSH [tag] 146\t\t\trequire(musics[tokenId].amount...\n      SWAP1 \t\t\trequire(musics[tokenId].amount...\n      PUSH [tag] 147\t\t\trequire(musics[tokenId].amount...\n      JUMP \t\t\trequire(musics[tokenId].amount...\n    tag 146\t\t\trequire(musics[tokenId].amount...\n      JUMPDEST \t\t\trequire(musics[tokenId].amount...\n      PUSH 40\t\t\trequire(musics[tokenId].amount...\n      MLOAD \t\t\trequire(musics[tokenId].amount...\n      DUP1 \t\t\trequire(musics[tokenId].amount...\n      SWAP2 \t\t\trequire(musics[tokenId].amount...\n      SUB \t\t\trequire(musics[tokenId].amount...\n      SWAP1 \t\t\trequire(musics[tokenId].amount...\n      REVERT \t\t\trequire(musics[tokenId].amount...\n    tag 145\t\t\trequire(musics[tokenId].amount...\n      JUMPDEST \t\t\trequire(musics[tokenId].amount...\n      DUP1 \t\t\tsalePrice\n      CALLVALUE \t\t\tmsg.value\n      LT \t\t\tmsg.value >= salePrice\n      ISZERO \t\t\tmsg.value >= salePrice\n      PUSH [tag] 148\t\t\trequire(\\n            msg.valu...\n      JUMPI \t\t\trequire(\\n            msg.valu...\n      PUSH 40\t\t\trequire(\\n            msg.valu...\n      MLOAD \t\t\trequire(\\n            msg.valu...\n      PUSH 8C379A000000000000000000000000000000000000000000000000000000000\t\t\trequire(\\n            msg.valu...\n      DUP2 \t\t\trequire(\\n            msg.valu...\n      MSTORE \t\t\trequire(\\n            msg.valu...\n      PUSH 4\t\t\trequire(\\n            msg.valu...\n      ADD \t\t\trequire(\\n            msg.valu...\n      PUSH [tag] 149\t\t\trequire(\\n            msg.valu...\n      SWAP1 \t\t\trequire(\\n            msg.valu...\n      PUSH [tag] 150\t\t\trequire(\\n            msg.valu...\n      JUMP \t\t\trequire(\\n            msg.valu...\n    tag 149\t\t\trequire(\\n            msg.valu...\n      JUMPDEST \t\t\trequire(\\n            msg.valu...\n      PUSH 40\t\t\trequire(\\n            msg.valu...\n      MLOAD \t\t\trequire(\\n            msg.valu...\n      DUP1 \t\t\trequire(\\n            msg.valu...\n      SWAP2 \t\t\trequire(\\n            msg.valu...\n      SUB \t\t\trequire(\\n            msg.valu...\n      SWAP1 \t\t\trequire(\\n            msg.valu...\n      REVERT \t\t\trequire(\\n            msg.valu...\n    tag 148\t\t\trequire(\\n            msg.valu...\n      JUMPDEST \t\t\trequire(\\n            msg.valu...\n      PUSH [tag] 151\t\t\tsafeTransferFrom(\\n           ...\n      CALLER \t\t\tmsg.sender\n      PUSH 9\t\t\tmusics\n      PUSH 0\t\t\tmusics[tokenId]\n      DUP8 \t\t\ttokenId\n      DUP2 \t\t\tmusics[tokenId]\n      MSTORE \t\t\tmusics[tokenId]\n      PUSH 20\t\t\tmusics[tokenId]\n      ADD \t\t\tmusics[tokenId]\n      SWAP1 \t\t\tmusics[tokenId]\n      DUP2 \t\t\tmusics[tokenId]\n      MSTORE \t\t\tmusics[tokenId]\n      PUSH 20\t\t\tmusics[tokenId]\n      ADD \t\t\tmusics[tokenId]\n      PUSH 0\t\t\tmusics[tokenId]\n      KECCAK256 \t\t\tmusics[tokenId]\n      PUSH 4\t\t\tmusics[tokenId].artirt\n      ADD \t\t\tmusics[tokenId].artirt\n      PUSH 0\t\t\tmusics[tokenId].artirt\n      SWAP1 \t\t\tmusics[tokenId].artirt\n      SLOAD \t\t\tmusics[tokenId].artirt\n      SWAP1 \t\t\tmusics[tokenId].artirt\n      PUSH 100\t\t\tmusics[tokenId].artirt\n      EXP \t\t\tmusics[tokenId].artirt\n      SWAP1 \t\t\tmusics[tokenId].artirt\n      DIV \t\t\tmusics[tokenId].artirt\n      PUSH FFFFFFFFFFFFFFFFFFFFFFFFFFFFFFFFFFFFFFFF\t\t\tmusics[tokenId].artirt\n      AND \t\t\tmusics[tokenId].artirt\n      PUSH 0\t\t\t0\n      DUP5 \t\t\tsalePrice\n      PUSH 40\t\t\tsafeTransferFrom(\\n           ...\n      MLOAD \t\t\tsafeTransferFrom(\\n           ...\n      DUP1 \t\t\tsafeTransferFrom(\\n           ...\n      PUSH 20\t\t\tsafeTransferFrom(\\n           ...\n      ADD \t\t\tsafeTransferFrom(\\n           ...\n      PUSH 40\t\t\tsafeTransferFrom(\\n           ...\n      MSTORE \t\t\tsafeTransferFrom(\\n           ...\n      DUP1 \t\t\tsafeTransferFrom(\\n           ...\n      PUSH 0\t\t\tsafeTransferFrom(\\n           ...\n      DUP2 \t\t\tsafeTransferFrom(\\n           ...\n      MSTORE \t\t\tsafeTransferFrom(\\n           ...\n      POP \t\t\tsafeTransferFrom(\\n           ...\n      PUSH [tag] 124\t\t\tsafeTransferFrom\n      JUMP \t\t\tsafeTransferFrom(\\n           ...\n    tag 151\t\t\tsafeTransferFrom(\\n           ...\n      JUMPDEST \t\t\tsafeTransferFrom(\\n           ...\n      PUSH [tag] 152\t\t\tsafeTransferFrom(msg.sender, a...\n      CALLER \t\t\tmsg.sender\n      ADDRESS \t\t\tthis\n      PUSH 0\t\t\t0\n      PUSH 7\t\t\tmarketFee\n      SLOAD \t\t\tmarketFee\n      PUSH 40\t\t\tsafeTransferFrom(msg.sender, a...\n      MLOAD \t\t\tsafeTransferFrom(msg.sender, a...\n      DUP1 \t\t\tsafeTransferFrom(msg.sender, a...\n      PUSH 20\t\t\tsafeTransferFrom(msg.sender, a...\n      ADD \t\t\tsafeTransferFrom(msg.sender, a...\n      PUSH 40\t\t\tsafeTransferFrom(msg.sender, a...\n      MSTORE \t\t\tsafeTransferFrom(msg.sender, a...\n      DUP1 \t\t\tsafeTransferFrom(msg.sender, a...\n      PUSH 0\t\t\tsafeTransferFrom(msg.sender, a...\n      DUP2 \t\t\tsafeTransferFrom(msg.sender, a...\n      MSTORE \t\t\tsafeTransferFrom(msg.sender, a...\n      POP \t\t\tsafeTransferFrom(msg.sender, a...\n      PUSH [tag] 124\t\t\tsafeTransferFrom\n      JUMP \t\t\tsafeTransferFrom(msg.sender, a...\n    tag 152\t\t\tsafeTransferFrom(msg.sender, a...\n      JUMPDEST \t\t\tsafeTransferFrom(msg.sender, a...\n      DUP3 \t\t\tamount\n      PUSH 9\t\t\tmusics\n      PUSH 0\t\t\tmusics[tokenId]\n      DUP7 \t\t\ttokenId\n      DUP2 \t\t\tmusics[tokenId]\n      MSTORE \t\t\tmusics[tokenId]\n      PUSH 20\t\t\tmusics[tokenId]\n      ADD \t\t\tmusics[tokenId]\n      SWAP1 \t\t\tmusics[tokenId]\n      DUP2 \t\t\tmusics[tokenId]\n      MSTORE \t\t\tmusics[tokenId]\n      PUSH 20\t\t\tmusics[tokenId]\n      ADD \t\t\tmusics[tokenId]\n      PUSH 0\t\t\tmusics[tokenId]\n      KECCAK256 \t\t\tmusics[tokenId]\n      PUSH 2\t\t\tmusics[tokenId].amount\n      ADD \t\t\tmusics[tokenId].amount\n      PUSH 0\t\t\tmusics[tokenId].amount\n      DUP3 \t\t\tmusics[tokenId].amount -= amou...\n      DUP3 \t\t\tmusics[tokenId].amount -= amou...\n      SLOAD \t\t\tmusics[tokenId].amount -= amou...\n      PUSH [tag] 153\t\t\tmusics[tokenId].amount -= amou...\n      SWAP2 \t\t\tmusics[tokenId].amount -= amou...\n      SWAP1 \t\t\tmusics[tokenId].amount -= amou...\n      PUSH [tag] 154\t\t\tmusics[tokenId].amount -= amou...\n      JUMP \t\t\tmusics[tokenId].amount -= amou...\n    tag 153\t\t\tmusics[tokenId].amount -= amou...\n      JUMPDEST \t\t\tmusics[tokenId].amount -= amou...\n      SWAP3 \t\t\tmusics[tokenId].amount -= amou...\n      POP \t\t\tmusics[tokenId].amount -= amou...\n      POP \t\t\tmusics[tokenId].amount -= amou...\n      DUP2 \t\t\tmusics[tokenId].amount -= amou...\n      SWAP1 \t\t\tmusics[tokenId].amount -= amou...\n      SSTORE \t\t\tmusics[tokenId].amount -= amou...\n      POP \t\t\tmusics[tokenId].amount -= amou...\n      PUSH [tag] 155\t\t\tonERC1155Received(address(this...\n      ADDRESS \t\t\tthis\n      CALLER \t\t\tmsg.sender\n      DUP7 \t\t\ttokenId\n      DUP7 \t\t\tamount\n      PUSH 40\t\t\tonERC1155Received(address(this...\n      MLOAD \t\t\tonERC1155Received(address(this...\n      DUP1 \t\t\tonERC1155Received(address(this...\n      PUSH 20\t\t\tonERC1155Received(address(this...\n      ADD \t\t\tonERC1155Received(address(this...\n      PUSH 40\t\t\tonERC1155Received(address(this...\n      MSTORE \t\t\tonERC1155Received(address(this...\n      DUP1 \t\t\tonERC1155Received(address(this...\n      PUSH 0\t\t\tonERC1155Received(address(this...\n      DUP2 \t\t\tonERC1155Received(address(this...\n      MSTORE \t\t\tonERC1155Received(address(this...\n      POP \t\t\tonERC1155Received(address(this...\n      PUSH [tag] 118\t\t\tonERC1155Received\n      JUMP \t\t\tonERC1155Received(address(this...\n    tag 155\t\t\tonERC1155Received(address(this...\n      JUMPDEST \t\t\tonERC1155Received(address(this...\n      POP \t\t\tonERC1155Received(address(this...\n      PUSH [tag] 156\t\t\tsafeTransferFrom(\\n           ...\n      ADDRESS \t\t\tthis\n      CALLER \t\t\tmsg.sender\n      PUSH 9\t\t\tmusics\n      PUSH 0\t\t\tmusics[tokenId]\n      DUP9 \t\t\ttokenId\n      DUP2 \t\t\tmusics[tokenId]\n      MSTORE \t\t\tmusics[tokenId]\n      PUSH 20\t\t\tmusics[tokenId]\n      ADD \t\t\tmusics[tokenId]\n      SWAP1 \t\t\tmusics[tokenId]\n      DUP2 \t\t\tmusics[tokenId]\n      MSTORE \t\t\tmusics[tokenId]\n      PUSH 20\t\t\tmusics[tokenId]\n      ADD \t\t\tmusics[tokenId]\n      PUSH 0\t\t\tmusics[tokenId]\n      KECCAK256 \t\t\tmusics[tokenId]\n      PUSH 0\t\t\tmusics[tokenId].tokenId\n      ADD \t\t\tmusics[tokenId].tokenId\n      SLOAD \t\t\tmusics[tokenId].tokenId\n      PUSH 9\t\t\tmusics\n      PUSH 0\t\t\tmusics[tokenId]\n      DUP10 \t\t\ttokenId\n      DUP2 \t\t\tmusics[tokenId]\n      MSTORE \t\t\tmusics[tokenId]\n      PUSH 20\t\t\tmusics[tokenId]\n      ADD \t\t\tmusics[tokenId]\n      SWAP1 \t\t\tmusics[tokenId]\n      DUP2 \t\t\tmusics[tokenId]\n      MSTORE \t\t\tmusics[tokenId]\n      PUSH 20\t\t\tmusics[tokenId]\n      ADD \t\t\tmusics[tokenId]\n      PUSH 0\t\t\tmusics[tokenId]\n      KECCAK256 \t\t\tmusics[tokenId]\n      PUSH 2\t\t\tmusics[tokenId].amount\n      ADD \t\t\tmusics[tokenId].amount\n      SLOAD \t\t\tmusics[tokenId].amount\n      PUSH 40\t\t\tsafeTransferFrom(\\n           ...\n      MLOAD \t\t\tsafeTransferFrom(\\n           ...\n      DUP1 \t\t\tsafeTransferFrom(\\n           ...\n      PUSH 40\t\t\tsafeTransferFrom(\\n           ...\n      ADD \t\t\tsafeTransferFrom(\\n           ...\n      PUSH 40\t\t\tsafeTransferFrom(\\n           ...\n      MSTORE \t\t\tsafeTransferFrom(\\n           ...\n      DUP1 \t\t\tsafeTransferFrom(\\n           ...\n      PUSH 3\t\t\tsafeTransferFrom(\\n           ...\n      DUP2 \t\t\tsafeTransferFrom(\\n           ...\n      MSTORE \t\t\tsafeTransferFrom(\\n           ...\n      PUSH 20\t\t\tsafeTransferFrom(\\n           ...\n      ADD \t\t\tsafeTransferFrom(\\n           ...\n      PUSH 3078300000000000000000000000000000000000000000000000000000000000\t\t\tsafeTransferFrom(\\n           ...\n      DUP2 \t\t\tsafeTransferFrom(\\n           ...\n      MSTORE \t\t\tsafeTransferFrom(\\n           ...\n      POP \t\t\tsafeTransferFrom(\\n           ...\n      PUSH [tag] 124\t\t\tsafeTransferFrom\n      JUMP \t\t\tsafeTransferFrom(\\n           ...\n    tag 156\t\t\tsafeTransferFrom(\\n           ...\n      JUMPDEST \t\t\tsafeTransferFrom(\\n           ...\n      DUP4 \t\t\ttokenId\n      PUSH 73DA24C1C5A65DD010B8A07187C8A579CE7225624D0EFC87C73EB7BEB8C8E6B8\t\t\tBuyMusicNFT(tokenId, amount, p...\n      DUP5 \t\t\tamount\n      DUP5 \t\t\tprice\n      PUSH 40\t\t\tBuyMusicNFT(tokenId, amount, p...\n      MLOAD \t\t\tBuyMusicNFT(tokenId, amount, p...\n      PUSH [tag] 157\t\t\tBuyMusicNFT(tokenId, amount, p...\n      SWAP3 \t\t\tBuyMusicNFT(tokenId, amount, p...\n      SWAP2 \t\t\tBuyMusicNFT(tokenId, amount, p...\n      SWAP1 \t\t\tBuyMusicNFT(tokenId, amount, p...\n      PUSH [tag] 158\t\t\tBuyMusicNFT(tokenId, amount, p...\n      JUMP \t\t\tBuyMusicNFT(tokenId, amount, p...\n    tag 157\t\t\tBuyMusicNFT(tokenId, amount, p...\n      JUMPDEST \t\t\tBuyMusicNFT(tokenId, amount, p...\n      PUSH 40\t\t\tBuyMusicNFT(tokenId, amount, p...\n      MLOAD \t\t\tBuyMusicNFT(tokenId, amount, p...\n      DUP1 \t\t\tBuyMusicNFT(tokenId, amount, p...\n      SWAP2 \t\t\tBuyMusicNFT(tokenId, amount, p...\n      SUB \t\t\tBuyMusicNFT(tokenId, amount, p...\n      SWAP1 \t\t\tBuyMusicNFT(tokenId, amount, p...\n      LOG2 \t\t\tBuyMusicNFT(tokenId, amount, p...\n      POP \t\t\t{\\n        uint256 price = mus...\n      POP \t\t\t{\\n        uint256 price = mus...\n      POP \t\t\tfunction buyNFT(uint256 tokenI...\n      POP \t\t\tfunction buyNFT(uint256 tokenI...\n      JUMP \t\t\tfunction buyNFT(uint256 tokenI...\n    tag 54\t\t\this.onERC1155Received.selector...\n      JUMPDEST \t\t\this.onERC1155Received.selector...\n      PUSH [tag] 160\t\t\t musics[_tok\n      PUSH [tag] 161\t\t\t musics[_t\n      JUMP \t\t\t musics[_tok\n    tag 160\t\t\t musics[_tok\n      JUMPDEST \t\t\t musics[_tok\n      PUSH FFFFFFFFFFFFFFFFFFFFFFFFFFFFFFFFFFFFFFFF\t\t\t\\n        musics[_tok\n      AND \t\t\t\\n        musics[_tok\n      DUP6 \t\t\t\\n   \n      PUSH FFFFFFFFFFFFFFFFFFFFFFFFFFFFFFFFFFFFFFFF\t\t\t\\n        musics[_tok\n      AND \t\t\t\\n        musics[_tok\n      EQ \t\t\t\\n        musics[_tok\n      DUP1 \t\t\t\\n        musics[_tokenId].amo...\n      PUSH [tag] 162\t\t\t\\n        musics[_tokenId].amo...\n      JUMPI \t\t\t\\n        musics[_tokenId].amo...\n      POP \t\t\t\\n        musics[_tokenId].amo...\n      PUSH [tag] 163\t\t\t].amount += _amount;\\n\\n      ...\n      DUP6 \t\t\tnt;\\n\n      PUSH [tag] 164\t\t\t       retur\n      PUSH [tag] 161\t\t\t       ret\n      JUMP \t\t\t       retur\n    tag 164\t\t\t       retur\n      JUMPDEST \t\t\t       retur\n      PUSH [tag] 112\t\t\t].amount += _amo\n      JUMP \t\t\t].amount += _amount;\\n\\n      ...\n    tag 163\t\t\t].amount += _amount;\\n\\n      ...\n      JUMPDEST \t\t\t].amount += _amount;\\n\\n      ...\n    tag 162\t\t\t\\n        musics[_tokenId].amo...\n      JUMPDEST \t\t\t\\n        musics[_tokenId].amo...\n      PUSH [tag] 165\t\t\tokenId, _amount, \"\");\\n       ...\n      JUMPI \t\t\tokenId, _amount, \"\");\\n       ...\n      PUSH 40\t\t\tokenId, _amount, \"\");\\n       ...\n      MLOAD \t\t\tokenId, _amount, \"\");\\n       ...\n      PUSH 8C379A000000000000000000000000000000000000000000000000000000000\t\t\tokenId, _amount, \"\");\\n       ...\n      DUP2 \t\t\tokenId, _amount, \"\");\\n       ...\n      MSTORE \t\t\tokenId, _amount, \"\");\\n       ...\n      PUSH 4\t\t\tokenId, _amount, \"\");\\n       ...\n      ADD \t\t\tokenId, _amount, \"\");\\n       ...\n      PUSH [tag] 166\t\t\tokenId, _amount, \"\");\\n       ...\n      SWAP1 \t\t\tokenId, _amount, \"\");\\n       ...\n      PUSH [tag] 167\t\t\tokenId, _amount, \"\");\\n       ...\n      JUMP \t\t\tokenId, _amount, \"\");\\n       ...\n    tag 166\t\t\tokenId, _amount, \"\");\\n       ...\n      JUMPDEST \t\t\tokenId, _amount, \"\");\\n       ...\n      PUSH 40\t\t\tokenId, _amount, \"\");\\n       ...\n      MLOAD \t\t\tokenId, _amount, \"\");\\n       ...\n      DUP1 \t\t\tokenId, _amount, \"\");\\n       ...\n      SWAP2 \t\t\tokenId, _amount, \"\");\\n       ...\n      SUB \t\t\tokenId, _amount, \"\");\\n       ...\n      SWAP1 \t\t\tokenId, _amount, \"\");\\n       ...\n      REVERT \t\t\tokenId, _amount, \"\");\\n       ...\n    tag 165\t\t\tokenId, _amount, \"\");\\n       ...\n      JUMPDEST \t\t\tokenId, _amount, \"\");\\n       ...\n      PUSH [tag] 168\t\t\t\n      DUP6 \t\t\t\n      DUP6 \t\t\t\n      DUP6 \t\t\t\n      DUP6 \t\t\t\n      DUP6 \t\t\t\n      PUSH [tag] 169\t\t\t\n      JUMP \t\t\t\n    tag 168\t\t\t\n      JUMPDEST \t\t\t\n      POP \t\t\this.onERC1155Received.selector...\n      POP \t\t\this.onERC1155Received.selector...\n      POP \t\t\this.onERC1155Received.selector...\n      POP \t\t\this.onERC1155Received.selector...\n      POP \t\t\this.onERC1155Received.selector...\n      JUMP \t\t\this.onERC1155Received.selector...\n    tag 59\t\t\teccak256(b));\\n    }\\n\\n    fu...\n      JUMPDEST \t\t\teccak256(b));\\n    }\\n\\n    fu...\n      PUSH 60\t\t\th], \"The token U\n      DUP2 \t\t\ti =\n      MLOAD \t\t\ti = 0; i <\n      DUP4 \t\t\t      fo\n      MLOAD \t\t\t      for (uint\n      EQ \t\t\t      for (uint256 i = 0; i <\n      PUSH [tag] 171\t\t\tt\");\\n\\n        for (uint256 i...\n      JUMPI \t\t\tt\");\\n\\n        for (uint256 i...\n      PUSH 40\t\t\tt\");\\n\\n        for (uint256 i...\n      MLOAD \t\t\tt\");\\n\\n        for (uint256 i...\n      PUSH 8C379A000000000000000000000000000000000000000000000000000000000\t\t\tt\");\\n\\n        for (uint256 i...\n      DUP2 \t\t\tt\");\\n\\n        for (uint256 i...\n      MSTORE \t\t\tt\");\\n\\n        for (uint256 i...\n      PUSH 4\t\t\tt\");\\n\\n        for (uint256 i...\n      ADD \t\t\tt\");\\n\\n        for (uint256 i...\n      PUSH [tag] 172\t\t\tt\");\\n\\n        for (uint256 i...\n      SWAP1 \t\t\tt\");\\n\\n        for (uint256 i...\n      PUSH [tag] 173\t\t\tt\");\\n\\n        for (uint256 i...\n      JUMP \t\t\tt\");\\n\\n        for (uint256 i...\n    tag 172\t\t\tt\");\\n\\n        for (uint256 i...\n      JUMPDEST \t\t\tt\");\\n\\n        for (uint256 i...\n      PUSH 40\t\t\tt\");\\n\\n        for (uint256 i...\n      MLOAD \t\t\tt\");\\n\\n        for (uint256 i...\n      DUP1 \t\t\tt\");\\n\\n        for (uint256 i...\n      SWAP2 \t\t\tt\");\\n\\n        for (uint256 i...\n      SUB \t\t\tt\");\\n\\n        for (uint256 i...\n      SWAP1 \t\t\tt\");\\n\\n        for (uint256 i...\n      REVERT \t\t\tt\");\\n\\n        for (uint256 i...\n    tag 171\t\t\tt\");\\n\\n        for (uint256 i...\n      JUMPDEST \t\t\tt\");\\n\\n        for (uint256 i...\n      PUSH 0\t\t\ts[i + 1].uri), bytes(_hash))) \n      DUP4 \t\t\t return \n      MLOAD \t\t\t return musics[\n      PUSH FFFFFFFFFFFFFFFF\t\t\t               return musics[i\n      DUP2 \t\t\t               return musics[i\n      GT \t\t\t               return musics[i\n      ISZERO \t\t\t               return musics[i\n      PUSH [tag] 174\t\t\t               return musics[i\n      JUMPI \t\t\t               return musics[i\n      PUSH [tag] 175\t\t\t               return musics[i\n      PUSH [tag] 176\t\t\t               return musics[i\n      JUMP \t\t\t               return musics[i\n    tag 175\t\t\t               return musics[i\n      JUMPDEST \t\t\t               return musics[i\n    tag 174\t\t\t               return musics[i\n      JUMPDEST \t\t\t               return musics[i\n      PUSH 40\t\t\t               return musics[i\n      MLOAD \t\t\t               return musics[i\n      SWAP1 \t\t\t               return musics[i\n      DUP1 \t\t\t               return musics[i\n      DUP3 \t\t\t               return musics[i\n      MSTORE \t\t\t               return musics[i\n      DUP1 \t\t\t               return musics[i\n      PUSH 20\t\t\t               return musics[i\n      MUL \t\t\t               return musics[i\n      PUSH 20\t\t\t               return musics[i\n      ADD \t\t\t               return musics[i\n      DUP3 \t\t\t               return musics[i\n      ADD \t\t\t               return musics[i\n      PUSH 40\t\t\t               return musics[i\n      MSTORE \t\t\t               return musics[i\n      DUP1 \t\t\t               return musics[i\n      ISZERO \t\t\t               return musics[i\n      PUSH [tag] 177\t\t\t               return musics[i\n      JUMPI \t\t\t               return musics[i\n      DUP2 \t\t\t               return musics[i\n      PUSH 20\t\t\t               return musics[i\n      ADD \t\t\t               return musics[i\n      PUSH 20\t\t\t               return musics[i\n      DUP3 \t\t\t               return musics[i\n      MUL \t\t\t               return musics[i\n      DUP1 \t\t\t               return musics[i\n      CALLDATASIZE \t\t\t               return musics[i\n      DUP4 \t\t\t               return musics[i\n      CALLDATACOPY \t\t\t               return musics[i\n      DUP1 \t\t\t               return musics[i\n      DUP3 \t\t\t               return musics[i\n      ADD \t\t\t               return musics[i\n      SWAP2 \t\t\t               return musics[i\n      POP \t\t\t               return musics[i\n      POP \t\t\t               return musics[i\n      SWAP1 \t\t\t               return musics[i\n      POP \t\t\t               return musics[i\n    tag 177\t\t\t               return musics[i\n      JUMPDEST \t\t\t               return musics[i\n      POP \t\t\t               return musics[i\n      SWAP1 \t\t\ts[i + 1].uri), bytes(_hash))) ...\n      POP \t\t\ts[i + 1].uri), bytes(_hash))) ...\n      PUSH 0\t\t\t   }\\n    \n    tag 178\t\t\t        }\\n        }\\n        ...\n      JUMPDEST \t\t\t        }\\n        }\\n        ...\n      DUP5 \t\t\t    Musi\n      MLOAD \t\t\t    Music memor\n      DUP2 \t\t\t \n      LT \t\t\t        Music memor\n      ISZERO \t\t\t        }\\n        }\\n        ...\n      PUSH [tag] 179\t\t\t        }\\n        }\\n        ...\n      JUMPI \t\t\t        }\\n        }\\n        ...\n      PUSH [tag] 181\t\t\tPropertyObj;\\n    }\\n\\n    fun...\n      DUP6 \t\t\tj;\\n    }\n      DUP3 \t\t\t\\n\n      DUP2 \t\t\tj;\\n    }\\n\\n \n      MLOAD \t\t\tj;\\n    }\\n\\n \n      DUP2 \t\t\tj;\\n    }\\n\\n \n      LT \t\t\tj;\\n    }\\n\\n \n      PUSH [tag] 182\t\t\tj;\\n    }\\n\\n \n      JUMPI \t\t\tj;\\n    }\\n\\n \n      PUSH [tag] 183\t\t\tj;\\n    }\\n\\n \n      PUSH [tag] 184\t\t\tj;\\n    }\\n\\n \n      JUMP \t\t\tj;\\n    }\\n\\n \n    tag 183\t\t\tj;\\n    }\\n\\n \n      JUMPDEST \t\t\tj;\\n    }\\n\\n \n    tag 182\t\t\tj;\\n    }\\n\\n \n      JUMPDEST \t\t\tj;\\n    }\\n\\n \n      PUSH 20\t\t\tj;\\n    }\\n\\n \n      MUL \t\t\tj;\\n    }\\n\\n \n      PUSH 20\t\t\tj;\\n    }\\n\\n \n      ADD \t\t\tj;\\n    }\\n\\n \n      ADD \t\t\tj;\\n    }\\n\\n \n      MLOAD \t\t\tj;\\n    }\\n\\n \n      DUP6 \t\t\t fu\n      DUP4 \t\t\tc\n      DUP2 \t\t\t funct\n      MLOAD \t\t\t funct\n      DUP2 \t\t\t funct\n      LT \t\t\t funct\n      PUSH [tag] 185\t\t\t funct\n      JUMPI \t\t\t funct\n      PUSH [tag] 186\t\t\t funct\n      PUSH [tag] 184\t\t\t funct\n      JUMP \t\t\t funct\n    tag 186\t\t\t funct\n      JUMPDEST \t\t\t funct\n    tag 185\t\t\t funct\n      JUMPDEST \t\t\t funct\n      PUSH 20\t\t\t funct\n      MUL \t\t\t funct\n      PUSH 20\t\t\t funct\n      ADD \t\t\t funct\n      ADD \t\t\t funct\n      MLOAD \t\t\t funct\n      PUSH [tag] 29\t\t\tPropertyO\n      JUMP \t\t\tPropertyObj;\\n    }\\n\\n    fun...\n    tag 181\t\t\tPropertyObj;\\n    }\\n\\n    fun...\n      JUMPDEST \t\t\tPropertyObj;\\n    }\\n\\n    fun...\n      DUP3 \t\t\t       return\n      DUP3 \t\t\te\n      DUP2 \t\t\t       return em\n      MLOAD \t\t\t       return em\n      DUP2 \t\t\t       return em\n      LT \t\t\t       return em\n      PUSH [tag] 187\t\t\t       return em\n      JUMPI \t\t\t       return em\n      PUSH [tag] 188\t\t\t       return em\n      PUSH [tag] 184\t\t\t       return em\n      JUMP \t\t\t       return em\n    tag 188\t\t\t       return em\n      JUMPDEST \t\t\t       return em\n    tag 187\t\t\t       return em\n      JUMPDEST \t\t\t       return em\n      PUSH 20\t\t\t       return em\n      MUL \t\t\t       return em\n      PUSH 20\t\t\t       return em\n      ADD \t\t\t       return em\n      ADD \t\t\t       return em\n      DUP2 \t\t\t       return emptyPropertyObj...\n      DUP2 \t\t\t       return emptyPropertyObj...\n      MSTORE \t\t\t       return emptyPropertyObj...\n      POP \t\t\t       return emptyPropertyObj...\n      POP \t\t\t       return emptyPropertyObj...\n      DUP1 \t\t\temp\n      PUSH 1\t\t\temp\n      ADD \t\t\temp\n      SWAP1 \t\t\temp\n      POP \t\t\temp\n      PUSH [tag] 178\t\t\t        }\\n        }\\n        ...\n      JUMP \t\t\t        }\\n        }\\n        ...\n    tag 179\t\t\t        }\\n        }\\n        ...\n      JUMPDEST \t\t\t        }\\n        }\\n        ...\n      POP \t\t\t        }\\n        }\\n        ...\n      DUP1 \t\t\tew returns (u\n      SWAP2 \t\t\tblic view returns (u\n      POP \t\t\tblic view returns (u\n      POP \t\t\tblic view returns (u\n      SWAP3 \t\t\teccak256(b));\\n    }\\n\\n    fu...\n      SWAP2 \t\t\teccak256(b));\\n    }\\n\\n    fu...\n      POP \t\t\teccak256(b));\\n    }\\n\\n    fu...\n      POP \t\t\teccak256(b));\\n    }\\n\\n    fu...\n      JUMP \t\t\teccak256(b));\\n    }\\n\\n    fu...\n    tag 65\t\t\tstring[] public tokens\n      JUMPDEST \t\t\tstring[] public tokens\n      PUSH 4\t\t\tstring[] public tokens\n      DUP2 \t\t\tstring[] public tokens\n      DUP2 \t\t\tstring[] public tokens\n      SLOAD \t\t\tstring[] public tokens\n      DUP2 \t\t\tstring[] public tokens\n      LT \t\t\tstring[] public tokens\n      PUSH [tag] 189\t\t\tstring[] public tokens\n      JUMPI \t\t\tstring[] public tokens\n      PUSH 0\t\t\tstring[] public tokens\n      DUP1 \t\t\tstring[] public tokens\n      REVERT \t\t\tstring[] public tokens\n    tag 189\t\t\tstring[] public tokens\n      JUMPDEST \t\t\tstring[] public tokens\n      SWAP1 \t\t\tstring[] public tokens\n      PUSH 0\t\t\tstring[] public tokens\n      MSTORE \t\t\tstring[] public tokens\n      PUSH 20\t\t\tstring[] public tokens\n      PUSH 0\t\t\tstring[] public tokens\n      KECCAK256 \t\t\tstring[] public tokens\n      ADD \t\t\tstring[] public tokens\n      PUSH 0\t\t\tstring[] public tokens\n      SWAP2 \t\t\tstring[] public tokens\n      POP \t\t\tstring[] public tokens\n      SWAP1 \t\t\tstring[] public tokens\n      POP \t\t\tstring[] public tokens\n      DUP1 \t\t\tstring[] public tokens\n      SLOAD \t\t\tstring[] public tokens\n      PUSH [tag] 191\t\t\tstring[] public tokens\n      SWAP1 \t\t\tstring[] public tokens\n      PUSH [tag] 192\t\t\tstring[] public tokens\n      JUMP \t\t\tstring[] public tokens\n    tag 191\t\t\tstring[] public tokens\n      JUMPDEST \t\t\tstring[] public tokens\n      DUP1 \t\t\tstring[] public tokens\n      PUSH 1F\t\t\tstring[] public tokens\n      ADD \t\t\tstring[] public tokens\n      PUSH 20\t\t\tstring[] public tokens\n      DUP1 \t\t\tstring[] public tokens\n      SWAP2 \t\t\tstring[] public tokens\n      DIV \t\t\tstring[] public tokens\n      MUL \t\t\tstring[] public tokens\n      PUSH 20\t\t\tstring[] public tokens\n      ADD \t\t\tstring[] public tokens\n      PUSH 40\t\t\tstring[] public tokens\n      MLOAD \t\t\tstring[] public tokens\n      SWAP1 \t\t\tstring[] public tokens\n      DUP2 \t\t\tstring[] public tokens\n      ADD \t\t\tstring[] public tokens\n      PUSH 40\t\t\tstring[] public tokens\n      MSTORE \t\t\tstring[] public tokens\n      DUP1 \t\t\tstring[] public tokens\n      SWAP3 \t\t\tstring[] public tokens\n      SWAP2 \t\t\tstring[] public tokens\n      SWAP1 \t\t\tstring[] public tokens\n      DUP2 \t\t\tstring[] public tokens\n      DUP2 \t\t\tstring[] public tokens\n      MSTORE \t\t\tstring[] public tokens\n      PUSH 20\t\t\tstring[] public tokens\n      ADD \t\t\tstring[] public tokens\n      DUP3 \t\t\tstring[] public tokens\n      DUP1 \t\t\tstring[] public tokens\n      SLOAD \t\t\tstring[] public tokens\n      PUSH [tag] 193\t\t\tstring[] public tokens\n      SWAP1 \t\t\tstring[] public tokens\n      PUSH [tag] 192\t\t\tstring[] public tokens\n      JUMP \t\t\tstring[] public tokens\n    tag 193\t\t\tstring[] public tokens\n      JUMPDEST \t\t\tstring[] public tokens\n      DUP1 \t\t\tstring[] public tokens\n      ISZERO \t\t\tstring[] public tokens\n      PUSH [tag] 194\t\t\tstring[] public tokens\n      JUMPI \t\t\tstring[] public tokens\n      DUP1 \t\t\tstring[] public tokens\n      PUSH 1F\t\t\tstring[] public tokens\n      LT \t\t\tstring[] public tokens\n      PUSH [tag] 195\t\t\tstring[] public tokens\n      JUMPI \t\t\tstring[] public tokens\n      PUSH 100\t\t\tstring[] public tokens\n      DUP1 \t\t\tstring[] public tokens\n      DUP4 \t\t\tstring[] public tokens\n      SLOAD \t\t\tstring[] public tokens\n      DIV \t\t\tstring[] public tokens\n      MUL \t\t\tstring[] public tokens\n      DUP4 \t\t\tstring[] public tokens\n      MSTORE \t\t\tstring[] public tokens\n      SWAP2 \t\t\tstring[] public tokens\n      PUSH 20\t\t\tstring[] public tokens\n      ADD \t\t\tstring[] public tokens\n      SWAP2 \t\t\tstring[] public tokens\n      PUSH [tag] 194\t\t\tstring[] public tokens\n      JUMP \t\t\tstring[] public tokens\n    tag 195\t\t\tstring[] public tokens\n      JUMPDEST \t\t\tstring[] public tokens\n      DUP3 \t\t\tstring[] public tokens\n      ADD \t\t\tstring[] public tokens\n      SWAP2 \t\t\tstring[] public tokens\n      SWAP1 \t\t\tstring[] public tokens\n      PUSH 0\t\t\tstring[] public tokens\n      MSTORE \t\t\tstring[] public tokens\n      PUSH 20\t\t\tstring[] public tokens\n      PUSH 0\t\t\tstring[] public tokens\n      KECCAK256 \t\t\tstring[] public tokens\n      SWAP1 \t\t\tstring[] public tokens\n    tag 196\t\t\tstring[] public tokens\n      JUMPDEST \t\t\tstring[] public tokens\n      DUP2 \t\t\tstring[] public tokens\n      SLOAD \t\t\tstring[] public tokens\n      DUP2 \t\t\tstring[] public tokens\n      MSTORE \t\t\tstring[] public tokens\n      SWAP1 \t\t\tstring[] public tokens\n      PUSH 1\t\t\tstring[] public tokens\n      ADD \t\t\tstring[] public tokens\n      SWAP1 \t\t\tstring[] public tokens\n      PUSH 20\t\t\tstring[] public tokens\n      ADD \t\t\tstring[] public tokens\n      DUP1 \t\t\tstring[] public tokens\n      DUP4 \t\t\tstring[] public tokens\n      GT \t\t\tstring[] public tokens\n      PUSH [tag] 196\t\t\tstring[] public tokens\n      JUMPI \t\t\tstring[] public tokens\n      DUP3 \t\t\tstring[] public tokens\n      SWAP1 \t\t\tstring[] public tokens\n      SUB \t\t\tstring[] public tokens\n      PUSH 1F\t\t\tstring[] public tokens\n      AND \t\t\tstring[] public tokens\n      DUP3 \t\t\tstring[] public tokens\n      ADD \t\t\tstring[] public tokens\n      SWAP2 \t\t\tstring[] public tokens\n    tag 194\t\t\tstring[] public tokens\n      JUMPDEST \t\t\tstring[] public tokens\n      POP \t\t\tstring[] public tokens\n      POP \t\t\tstring[] public tokens\n      POP \t\t\tstring[] public tokens\n      POP \t\t\tstring[] public tokens\n      POP \t\t\tstring[] public tokens\n      DUP2 \t\t\tstring[] public tokens\n      JUMP \t\t\tstring[] public tokens\n    tag 70\t\t\tfunction safeMint(\\n        st...\n      JUMPDEST \t\t\tfunction safeMint(\\n        st...\n      PUSH 8\t\t\t_tokenExists\n      DUP4 \t\t\t_token\n      PUSH 40\t\t\t_tokenExists[_token]\n      MLOAD \t\t\t_tokenExists[_token]\n      PUSH [tag] 198\t\t\t_tokenExists[_token]\n      SWAP2 \t\t\t_tokenExists[_token]\n      SWAP1 \t\t\t_tokenExists[_token]\n      PUSH [tag] 199\t\t\t_tokenExists[_token]\n      JUMP \t\t\t_tokenExists[_token]\n    tag 198\t\t\t_tokenExists[_token]\n      JUMPDEST \t\t\t_tokenExists[_token]\n      SWAP1 \t\t\t_tokenExists[_token]\n      DUP2 \t\t\t_tokenExists[_token]\n      MSTORE \t\t\t_tokenExists[_token]\n      PUSH 20\t\t\t_tokenExists[_token]\n      ADD \t\t\t_tokenExists[_token]\n      PUSH 40\t\t\t_tokenExists[_token]\n      MLOAD \t\t\t_tokenExists[_token]\n      DUP1 \t\t\t_tokenExists[_token]\n      SWAP2 \t\t\t_tokenExists[_token]\n      SUB \t\t\t_tokenExists[_token]\n      SWAP1 \t\t\t_tokenExists[_token]\n      KECCAK256 \t\t\t_tokenExists[_token]\n      PUSH 0\t\t\t_tokenExists[_token]\n      SWAP1 \t\t\t_tokenExists[_token]\n      SLOAD \t\t\t_tokenExists[_token]\n      SWAP1 \t\t\t_tokenExists[_token]\n      PUSH 100\t\t\t_tokenExists[_token]\n      EXP \t\t\t_tokenExists[_token]\n      SWAP1 \t\t\t_tokenExists[_token]\n      DIV \t\t\t_tokenExists[_token]\n      PUSH FF\t\t\t_tokenExists[_token]\n      AND \t\t\t_tokenExists[_token]\n      ISZERO \t\t\t!_tokenExists[_token]\n      PUSH [tag] 200\t\t\trequire(!_tokenExists[_token],...\n      JUMPI \t\t\trequire(!_tokenExists[_token],...\n      PUSH 40\t\t\trequire(!_tokenExists[_token],...\n      MLOAD \t\t\trequire(!_tokenExists[_token],...\n      PUSH 8C379A000000000000000000000000000000000000000000000000000000000\t\t\trequire(!_tokenExists[_token],...\n      DUP2 \t\t\trequire(!_tokenExists[_token],...\n      MSTORE \t\t\trequire(!_tokenExists[_token],...\n      PUSH 4\t\t\trequire(!_tokenExists[_token],...\n      ADD \t\t\trequire(!_tokenExists[_token],...\n      PUSH [tag] 201\t\t\trequire(!_tokenExists[_token],...\n      SWAP1 \t\t\trequire(!_tokenExists[_token],...\n      PUSH [tag] 202\t\t\trequire(!_tokenExists[_token],...\n      JUMP \t\t\trequire(!_tokenExists[_token],...\n    tag 201\t\t\trequire(!_tokenExists[_token],...\n      JUMPDEST \t\t\trequire(!_tokenExists[_token],...\n      PUSH 40\t\t\trequire(!_tokenExists[_token],...\n      MLOAD \t\t\trequire(!_tokenExists[_token],...\n      DUP1 \t\t\trequire(!_tokenExists[_token],...\n      SWAP2 \t\t\trequire(!_tokenExists[_token],...\n      SUB \t\t\trequire(!_tokenExists[_token],...\n      SWAP1 \t\t\trequire(!_tokenExists[_token],...\n      REVERT \t\t\trequire(!_tokenExists[_token],...\n    tag 200\t\t\trequire(!_tokenExists[_token],...\n      JUMPDEST \t\t\trequire(!_tokenExists[_token],...\n      PUSH 0\t\t\t0\n      DUP2 \t\t\t_price\n      GT \t\t\t_price > 0\n      PUSH [tag] 203\t\t\trequire(_price > 0, \"Price mus...\n      JUMPI \t\t\trequire(_price > 0, \"Price mus...\n      PUSH 40\t\t\trequire(_price > 0, \"Price mus...\n      MLOAD \t\t\trequire(_price > 0, \"Price mus...\n      PUSH 8C379A000000000000000000000000000000000000000000000000000000000\t\t\trequire(_price > 0, \"Price mus...\n      DUP2 \t\t\trequire(_price > 0, \"Price mus...\n      MSTORE \t\t\trequire(_price > 0, \"Price mus...\n      PUSH 4\t\t\trequire(_price > 0, \"Price mus...\n      ADD \t\t\trequire(_price > 0, \"Price mus...\n      PUSH [tag] 204\t\t\trequire(_price > 0, \"Price mus...\n      SWAP1 \t\t\trequire(_price > 0, \"Price mus...\n      PUSH [tag] 205\t\t\trequire(_price > 0, \"Price mus...\n      JUMP \t\t\trequire(_price > 0, \"Price mus...\n    tag 204\t\t\trequire(_price > 0, \"Price mus...\n      JUMPDEST \t\t\trequire(_price > 0, \"Price mus...\n      PUSH 40\t\t\trequire(_price > 0, \"Price mus...\n      MLOAD \t\t\trequire(_price > 0, \"Price mus...\n      DUP1 \t\t\trequire(_price > 0, \"Price mus...\n      SWAP2 \t\t\trequire(_price > 0, \"Price mus...\n      SUB \t\t\trequire(_price > 0, \"Price mus...\n      SWAP1 \t\t\trequire(_price > 0, \"Price mus...\n      REVERT \t\t\trequire(_price > 0, \"Price mus...\n    tag 203\t\t\trequire(_price > 0, \"Price mus...\n      JUMPDEST \t\t\trequire(_price > 0, \"Price mus...\n      PUSH 7\t\t\tmarketFee\n      SLOAD \t\t\tmarketFee\n      CALLVALUE \t\t\tmsg.value\n      EQ \t\t\tmsg.value == marketFee\n      PUSH [tag] 206\t\t\trequire(msg.value == marketFee...\n      JUMPI \t\t\trequire(msg.value == marketFee...\n      PUSH 40\t\t\trequire(msg.value == marketFee...\n      MLOAD \t\t\trequire(msg.value == marketFee...\n      PUSH 8C379A000000000000000000000000000000000000000000000000000000000\t\t\trequire(msg.value == marketFee...\n      DUP2 \t\t\trequire(msg.value == marketFee...\n      MSTORE \t\t\trequire(msg.value == marketFee...\n      PUSH 4\t\t\trequire(msg.value == marketFee...\n      ADD \t\t\trequire(msg.value == marketFee...\n      PUSH [tag] 207\t\t\trequire(msg.value == marketFee...\n      SWAP1 \t\t\trequire(msg.value == marketFee...\n      PUSH [tag] 208\t\t\trequire(msg.value == marketFee...\n      JUMP \t\t\trequire(msg.value == marketFee...\n    tag 207\t\t\trequire(msg.value == marketFee...\n      JUMPDEST \t\t\trequire(msg.value == marketFee...\n      PUSH 40\t\t\trequire(msg.value == marketFee...\n      MLOAD \t\t\trequire(msg.value == marketFee...\n      DUP1 \t\t\trequire(msg.value == marketFee...\n      SWAP2 \t\t\trequire(msg.value == marketFee...\n      SUB \t\t\trequire(msg.value == marketFee...\n      SWAP1 \t\t\trequire(msg.value == marketFee...\n      REVERT \t\t\trequire(msg.value == marketFee...\n    tag 206\t\t\trequire(msg.value == marketFee...\n      JUMPDEST \t\t\trequire(msg.value == marketFee...\n      PUSH 0\t\t\t0\n      PUSH FFFFFFFFFFFFFFFFFFFFFFFFFFFFFFFFFFFFFFFF\t\t\tpayable(address(0)).transfer\n      AND \t\t\tpayable(address(0)).transfer\n      PUSH 8FC\t\t\tpayable(address(0)).transfer(m...\n      CALLVALUE \t\t\tmsg.value\n      SWAP1 \t\t\tpayable(address(0)).transfer(m...\n      DUP2 \t\t\tpayable(address(0)).transfer(m...\n      ISZERO \t\t\tpayable(address(0)).transfer(m...\n      MUL \t\t\tpayable(address(0)).transfer(m...\n      SWAP1 \t\t\tpayable(address(0)).transfer(m...\n      PUSH 40\t\t\tpayable(address(0)).transfer(m...\n      MLOAD \t\t\tpayable(address(0)).transfer(m...\n      PUSH 0\t\t\tpayable(address(0)).transfer(m...\n      PUSH 40\t\t\tpayable(address(0)).transfer(m...\n      MLOAD \t\t\tpayable(address(0)).transfer(m...\n      DUP1 \t\t\tpayable(address(0)).transfer(m...\n      DUP4 \t\t\tpayable(address(0)).transfer(m...\n      SUB \t\t\tpayable(address(0)).transfer(m...\n      DUP2 \t\t\tpayable(address(0)).transfer(m...\n      DUP6 \t\t\tpayable(address(0)).transfer(m...\n      DUP9 \t\t\tpayable(address(0)).transfer(m...\n      DUP9 \t\t\tpayable(address(0)).transfer(m...\n      CALL \t\t\tpayable(address(0)).transfer(m...\n      SWAP4 \t\t\tpayable(address(0)).transfer(m...\n      POP \t\t\tpayable(address(0)).transfer(m...\n      POP \t\t\tpayable(address(0)).transfer(m...\n      POP \t\t\tpayable(address(0)).transfer(m...\n      POP \t\t\tpayable(address(0)).transfer(m...\n      ISZERO \t\t\tpayable(address(0)).transfer(m...\n      DUP1 \t\t\tpayable(address(0)).transfer(m...\n      ISZERO \t\t\tpayable(address(0)).transfer(m...\n      PUSH [tag] 210\t\t\tpayable(address(0)).transfer(m...\n      JUMPI \t\t\tpayable(address(0)).transfer(m...\n      RETURNDATASIZE \t\t\tpayable(address(0)).transfer(m...\n      PUSH 0\t\t\tpayable(address(0)).transfer(m...\n      DUP1 \t\t\tpayable(address(0)).transfer(m...\n      RETURNDATACOPY \t\t\tpayable(address(0)).transfer(m...\n      RETURNDATASIZE \t\t\tpayable(address(0)).transfer(m...\n      PUSH 0\t\t\tpayable(address(0)).transfer(m...\n      REVERT \t\t\tpayable(address(0)).transfer(m...\n    tag 210\t\t\tpayable(address(0)).transfer(m...\n      JUMPDEST \t\t\tpayable(address(0)).transfer(m...\n      POP \t\t\tpayable(address(0)).transfer(m...\n      PUSH 4\t\t\ttokens\n      DUP4 \t\t\t_token\n      SWAP1 \t\t\ttokens.push(_token)\n      DUP1 \t\t\ttokens.push(_token)\n      PUSH 1\t\t\ttokens.push(_token)\n      DUP2 \t\t\ttokens.push(_token)\n      SLOAD \t\t\ttokens.push(_token)\n      ADD \t\t\ttokens.push(_token)\n      DUP1 \t\t\ttokens.push(_token)\n      DUP3 \t\t\ttokens.push(_token)\n      SSTORE \t\t\ttokens.push(_token)\n      DUP1 \t\t\ttokens.push(_token)\n      SWAP2 \t\t\ttokens.push(_token)\n      POP \t\t\ttokens.push(_token)\n      POP \t\t\ttokens.push(_token)\n      PUSH 1\t\t\ttokens.push(_token)\n      SWAP1 \t\t\ttokens.push(_token)\n      SUB \t\t\ttokens.push(_token)\n      SWAP1 \t\t\ttokens.push(_token)\n      PUSH 0\t\t\ttokens.push(_token)\n      MSTORE \t\t\ttokens.push(_token)\n      PUSH 20\t\t\ttokens.push(_token)\n      PUSH 0\t\t\ttokens.push(_token)\n      KECCAK256 \t\t\ttokens.push(_token)\n      ADD \t\t\ttokens.push(_token)\n      PUSH 0\t\t\ttokens.push(_token)\n      SWAP1 \t\t\ttokens.push(_token)\n      SWAP2 \t\t\ttokens.push(_token)\n      SWAP1 \t\t\ttokens.push(_token)\n      SWAP2 \t\t\ttokens.push(_token)\n      SWAP1 \t\t\ttokens.push(_token)\n      SWAP2 \t\t\ttokens.push(_token)\n      POP \t\t\ttokens.push(_token)\n      SWAP1 \t\t\ttokens.push(_token)\n      DUP2 \t\t\ttokens.push(_token)\n      PUSH [tag] 212\t\t\ttokens.push(_token)\n      SWAP2 \t\t\ttokens.push(_token)\n      SWAP1 \t\t\ttokens.push(_token)\n      PUSH [tag] 213\t\t\ttokens.push(_token)\n      JUMP \t\t\ttokens.push(_token)\n    tag 212\t\t\ttokens.push(_token)\n      JUMPDEST \t\t\ttokens.push(_token)\n      POP \t\t\ttokens.push(_token)\n      PUSH 0\t\t\tuint256 _id\n      PUSH 4\t\t\ttokens\n      DUP1 \t\t\ttokens.length\n      SLOAD \t\t\ttokens.length\n      SWAP1 \t\t\ttokens.length\n      POP \t\t\ttokens.length\n      SWAP1 \t\t\tuint256 _id = tokens.length\n      POP \t\t\tuint256 _id = tokens.length\n      PUSH [tag] 214\t\t\t_mint(address(this), _id, _amo...\n      ADDRESS \t\t\tthis\n      DUP3 \t\t\t_id\n      DUP6 \t\t\t_amount\n      PUSH 40\t\t\t_mint(address(this), _id, _amo...\n      MLOAD \t\t\t_mint(address(this), _id, _amo...\n      DUP1 \t\t\t_mint(address(this), _id, _amo...\n      PUSH 20\t\t\t_mint(address(this), _id, _amo...\n      ADD \t\t\t_mint(address(this), _id, _amo...\n      PUSH 40\t\t\t_mint(address(this), _id, _amo...\n      MSTORE \t\t\t_mint(address(this), _id, _amo...\n      DUP1 \t\t\t_mint(address(this), _id, _amo...\n      PUSH 0\t\t\t_mint(address(this), _id, _amo...\n      DUP2 \t\t\t_mint(address(this), _id, _amo...\n      MSTORE \t\t\t_mint(address(this), _id, _amo...\n      POP \t\t\t_mint(address(this), _id, _amo...\n      PUSH [tag] 215\t\t\t_mint\n      JUMP \t\t\t_mint(address(this), _id, _amo...\n    tag 214\t\t\t_mint(address(this), _id, _amo...\n      JUMPDEST \t\t\t_mint(address(this), _id, _amo...\n      PUSH 40\t\t\tMusic(_id, _token, _amount, _p...\n      MLOAD \t\t\tMusic(_id, _token, _amount, _p...\n      DUP1 \t\t\tMusic(_id, _token, _amount, _p...\n      PUSH A0\t\t\tMusic(_id, _token, _amount, _p...\n      ADD \t\t\tMusic(_id, _token, _amount, _p...\n      PUSH 40\t\t\tMusic(_id, _token, _amount, _p...\n      MSTORE \t\t\tMusic(_id, _token, _amount, _p...\n      DUP1 \t\t\tMusic(_id, _token, _amount, _p...\n      DUP3 \t\t\t_id\n      DUP2 \t\t\tMusic(_id, _token, _amount, _p...\n      MSTORE \t\t\tMusic(_id, _token, _amount, _p...\n      PUSH 20\t\t\tMusic(_id, _token, _amount, _p...\n      ADD \t\t\tMusic(_id, _token, _amount, _p...\n      DUP6 \t\t\t_token\n      DUP2 \t\t\tMusic(_id, _token, _amount, _p...\n      MSTORE \t\t\tMusic(_id, _token, _amount, _p...\n      PUSH 20\t\t\tMusic(_id, _token, _amount, _p...\n      ADD \t\t\tMusic(_id, _token, _amount, _p...\n      DUP5 \t\t\t_amount\n      DUP2 \t\t\tMusic(_id, _token, _amount, _p...\n      MSTORE \t\t\tMusic(_id, _token, _amount, _p...\n      PUSH 20\t\t\tMusic(_id, _token, _amount, _p...\n      ADD \t\t\tMusic(_id, _token, _amount, _p...\n      DUP4 \t\t\t_price\n      DUP2 \t\t\tMusic(_id, _token, _amount, _p...\n      MSTORE \t\t\tMusic(_id, _token, _amount, _p...\n      PUSH 20\t\t\tMusic(_id, _token, _amount, _p...\n      ADD \t\t\tMusic(_id, _token, _amount, _p...\n      CALLER \t\t\tmsg.sender\n      PUSH FFFFFFFFFFFFFFFFFFFFFFFFFFFFFFFFFFFFFFFF\t\t\tMusic(_id, _token, _amount, _p...\n      AND \t\t\tMusic(_id, _token, _amount, _p...\n      DUP2 \t\t\tMusic(_id, _token, _amount, _p...\n      MSTORE \t\t\tMusic(_id, _token, _amount, _p...\n      POP \t\t\tMusic(_id, _token, _amount, _p...\n      PUSH 9\t\t\tmusics\n      PUSH 0\t\t\tmusics[_id]\n      DUP4 \t\t\t_id\n      DUP2 \t\t\tmusics[_id]\n      MSTORE \t\t\tmusics[_id]\n      PUSH 20\t\t\tmusics[_id]\n      ADD \t\t\tmusics[_id]\n      SWAP1 \t\t\tmusics[_id]\n      DUP2 \t\t\tmusics[_id]\n      MSTORE \t\t\tmusics[_id]\n      PUSH 20\t\t\tmusics[_id]\n      ADD \t\t\tmusics[_id]\n      PUSH 0\t\t\tmusics[_id]\n      KECCAK256 \t\t\tmusics[_id]\n      PUSH 0\t\t\tmusics[_id] = Music(_id, _toke...\n      DUP3 \t\t\tmusics[_id] = Music(_id, _toke...\n      ADD \t\t\tmusics[_id] = Music(_id, _toke...\n      MLOAD \t\t\tmusics[_id] = Music(_id, _toke...\n      DUP2 \t\t\tmusics[_id] = Music(_id, _toke...\n      PUSH 0\t\t\tmusics[_id] = Music(_id, _toke...\n      ADD \t\t\tmusics[_id] = Music(_id, _toke...\n      SSTORE \t\t\tmusics[_id] = Music(_id, _toke...\n      PUSH 20\t\t\tmusics[_id] = Music(_id, _toke...\n      DUP3 \t\t\tmusics[_id] = Music(_id, _toke...\n      ADD \t\t\tmusics[_id] = Music(_id, _toke...\n      MLOAD \t\t\tmusics[_id] = Music(_id, _toke...\n      DUP2 \t\t\tmusics[_id] = Music(_id, _toke...\n      PUSH 1\t\t\tmusics[_id] = Music(_id, _toke...\n      ADD \t\t\tmusics[_id] = Music(_id, _toke...\n      SWAP1 \t\t\tmusics[_id] = Music(_id, _toke...\n      DUP2 \t\t\tmusics[_id] = Music(_id, _toke...\n      PUSH [tag] 216\t\t\tmusics[_id] = Music(_id, _toke...\n      SWAP2 \t\t\tmusics[_id] = Music(_id, _toke...\n      SWAP1 \t\t\tmusics[_id] = Music(_id, _toke...\n      PUSH [tag] 213\t\t\tmusics[_id] = Music(_id, _toke...\n      JUMP \t\t\tmusics[_id] = Music(_id, _toke...\n    tag 216\t\t\tmusics[_id] = Music(_id, _toke...\n      JUMPDEST \t\t\tmusics[_id] = Music(_id, _toke...\n      POP \t\t\tmusics[_id] = Music(_id, _toke...\n      PUSH 40\t\t\tmusics[_id] = Music(_id, _toke...\n      DUP3 \t\t\tmusics[_id] = Music(_id, _toke...\n      ADD \t\t\tmusics[_id] = Music(_id, _toke...\n      MLOAD \t\t\tmusics[_id] = Music(_id, _toke...\n      DUP2 \t\t\tmusics[_id] = Music(_id, _toke...\n      PUSH 2\t\t\tmusics[_id] = Music(_id, _toke...\n      ADD \t\t\tmusics[_id] = Music(_id, _toke...\n      SSTORE \t\t\tmusics[_id] = Music(_id, _toke...\n      PUSH 60\t\t\tmusics[_id] = Music(_id, _toke...\n      DUP3 \t\t\tmusics[_id] = Music(_id, _toke...\n      ADD \t\t\tmusics[_id] = Music(_id, _toke...\n      MLOAD \t\t\tmusics[_id] = Music(_id, _toke...\n      DUP2 \t\t\tmusics[_id] = Music(_id, _toke...\n      PUSH 3\t\t\tmusics[_id] = Music(_id, _toke...\n      ADD \t\t\tmusics[_id] = Music(_id, _toke...\n      SSTORE \t\t\tmusics[_id] = Music(_id, _toke...\n      PUSH 80\t\t\tmusics[_id] = Music(_id, _toke...\n      DUP3 \t\t\tmusics[_id] = Music(_id, _toke...\n      ADD \t\t\tmusics[_id] = Music(_id, _toke...\n      MLOAD \t\t\tmusics[_id] = Music(_id, _toke...\n      DUP2 \t\t\tmusics[_id] = Music(_id, _toke...\n      PUSH 4\t\t\tmusics[_id] = Music(_id, _toke...\n      ADD \t\t\tmusics[_id] = Music(_id, _toke...\n      PUSH 0\t\t\tmusics[_id] = Music(_id, _toke...\n      PUSH 100\t\t\tmusics[_id] = Music(_id, _toke...\n      EXP \t\t\tmusics[_id] = Music(_id, _toke...\n      DUP2 \t\t\tmusics[_id] = Music(_id, _toke...\n      SLOAD \t\t\tmusics[_id] = Music(_id, _toke...\n      DUP2 \t\t\tmusics[_id] = Music(_id, _toke...\n      PUSH FFFFFFFFFFFFFFFFFFFFFFFFFFFFFFFFFFFFFFFF\t\t\tmusics[_id] = Music(_id, _toke...\n      MUL \t\t\tmusics[_id] = Music(_id, _toke...\n      NOT \t\t\tmusics[_id] = Music(_id, _toke...\n      AND \t\t\tmusics[_id] = Music(_id, _toke...\n      SWAP1 \t\t\tmusics[_id] = Music(_id, _toke...\n      DUP4 \t\t\tmusics[_id] = Music(_id, _toke...\n      PUSH FFFFFFFFFFFFFFFFFFFFFFFFFFFFFFFFFFFFFFFF\t\t\tmusics[_id] = Music(_id, _toke...\n      AND \t\t\tmusics[_id] = Music(_id, _toke...\n      MUL \t\t\tmusics[_id] = Music(_id, _toke...\n      OR \t\t\tmusics[_id] = Music(_id, _toke...\n      SWAP1 \t\t\tmusics[_id] = Music(_id, _toke...\n      SSTORE \t\t\tmusics[_id] = Music(_id, _toke...\n      POP \t\t\tmusics[_id] = Music(_id, _toke...\n      SWAP1 \t\t\tmusics[_id] = Music(_id, _toke...\n      POP \t\t\tmusics[_id] = Music(_id, _toke...\n      POP \t\t\tmusics[_id] = Music(_id, _toke...\n      PUSH 1\t\t\ttrue\n      PUSH 8\t\t\t_tokenExists\n      DUP6 \t\t\t_token\n      PUSH 40\t\t\t_tokenExists[_token]\n      MLOAD \t\t\t_tokenExists[_token]\n      PUSH [tag] 217\t\t\t_tokenExists[_token]\n      SWAP2 \t\t\t_tokenExists[_token]\n      SWAP1 \t\t\t_tokenExists[_token]\n      PUSH [tag] 199\t\t\t_tokenExists[_token]\n      JUMP \t\t\t_tokenExists[_token]\n    tag 217\t\t\t_tokenExists[_token]\n      JUMPDEST \t\t\t_tokenExists[_token]\n      SWAP1 \t\t\t_tokenExists[_token]\n      DUP2 \t\t\t_tokenExists[_token]\n      MSTORE \t\t\t_tokenExists[_token]\n      PUSH 20\t\t\t_tokenExists[_token]\n      ADD \t\t\t_tokenExists[_token]\n      PUSH 40\t\t\t_tokenExists[_token]\n      MLOAD \t\t\t_tokenExists[_token]\n      DUP1 \t\t\t_tokenExists[_token]\n      SWAP2 \t\t\t_tokenExists[_token]\n      SUB \t\t\t_tokenExists[_token]\n      SWAP1 \t\t\t_tokenExists[_token]\n      KECCAK256 \t\t\t_tokenExists[_token]\n      PUSH 0\t\t\t_tokenExists[_token]\n      PUSH 100\t\t\t_tokenExists[_token] = true\n      EXP \t\t\t_tokenExists[_token] = true\n      DUP2 \t\t\t_tokenExists[_token] = true\n      SLOAD \t\t\t_tokenExists[_token] = true\n      DUP2 \t\t\t_tokenExists[_token] = true\n      PUSH FF\t\t\t_tokenExists[_token] = true\n      MUL \t\t\t_tokenExists[_token] = true\n      NOT \t\t\t_tokenExists[_token] = true\n      AND \t\t\t_tokenExists[_token] = true\n      SWAP1 \t\t\t_tokenExists[_token] = true\n      DUP4 \t\t\t_tokenExists[_token] = true\n      ISZERO \t\t\t_tokenExists[_token] = true\n      ISZERO \t\t\t_tokenExists[_token] = true\n      MUL \t\t\t_tokenExists[_token] = true\n      OR \t\t\t_tokenExists[_token] = true\n      SWAP1 \t\t\t_tokenExists[_token] = true\n      SSTORE \t\t\t_tokenExists[_token] = true\n      POP \t\t\t_tokenExists[_token] = true\n      DUP1 \t\t\t_id\n      PUSH 878637F2C01E0948D56963DA142376811A0261FEA617351062B12DE43BFB1DEE\t\t\tMusicNFTCreated(\\n            ...\n      DUP6 \t\t\t_token\n      DUP6 \t\t\t_amount\n      DUP6 \t\t\t_price\n      CALLER \t\t\tmsg.sender\n      PUSH 40\t\t\tMusicNFTCreated(\\n            ...\n      MLOAD \t\t\tMusicNFTCreated(\\n            ...\n      PUSH [tag] 218\t\t\tMusicNFTCreated(\\n            ...\n      SWAP5 \t\t\tMusicNFTCreated(\\n            ...\n      SWAP4 \t\t\tMusicNFTCreated(\\n            ...\n      SWAP3 \t\t\tMusicNFTCreated(\\n            ...\n      SWAP2 \t\t\tMusicNFTCreated(\\n            ...\n      SWAP1 \t\t\tMusicNFTCreated(\\n            ...\n      PUSH [tag] 219\t\t\tMusicNFTCreated(\\n            ...\n      JUMP \t\t\tMusicNFTCreated(\\n            ...\n    tag 218\t\t\tMusicNFTCreated(\\n            ...\n      JUMPDEST \t\t\tMusicNFTCreated(\\n            ...\n      PUSH 40\t\t\tMusicNFTCreated(\\n            ...\n      MLOAD \t\t\tMusicNFTCreated(\\n            ...\n      DUP1 \t\t\tMusicNFTCreated(\\n            ...\n      SWAP2 \t\t\tMusicNFTCreated(\\n            ...\n      SUB \t\t\tMusicNFTCreated(\\n            ...\n      SWAP1 \t\t\tMusicNFTCreated(\\n            ...\n      LOG2 \t\t\tMusicNFTCreated(\\n            ...\n      POP \t\t\t{\\n        require(!_tokenExis...\n      POP \t\t\tfunction safeMint(\\n        st...\n      POP \t\t\tfunction safeMint(\\n        st...\n      POP \t\t\tfunction safeMint(\\n        st...\n      JUMP \t\t\tfunction safeMint(\\n        st...\n    tag 73\t\t\tenExists[_token], \"The token U...\n      JUMPDEST \t\t\tenExists[_token], \"The token U...\n      PUSH [tag] 221\t\t\t     IPFS_PA\n      PUSH [tag] 161\t\t\t     IPFS_\n      JUMP \t\t\t     IPFS_PA\n    tag 221\t\t\t     IPFS_PA\n      JUMPDEST \t\t\t     IPFS_PA\n      PUSH FFFFFFFFFFFFFFFFFFFFFFFFFFFFFFFFFFFFFFFF\t\t\tOwner {\\n        IPFS_PA\n      AND \t\t\tOwner {\\n        IPFS_PA\n      PUSH [tag] 222\t\t\tOwner {\n      PUSH [tag] 80\t\t\tOwner\n      JUMP \t\t\tOwner {\n    tag 222\t\t\tOwner {\n      JUMPDEST \t\t\tOwner {\n      PUSH FFFFFFFFFFFFFFFFFFFFFFFFFFFFFFFFFFFFFFFF\t\t\tOwner {\\n        IPFS_PA\n      AND \t\t\tOwner {\\n        IPFS_PA\n      EQ \t\t\tOwner {\\n        IPFS_PA\n      PUSH [tag] 223\t\t\tlic onlyOwner {\\n        IPFS_...\n      JUMPI \t\t\tlic onlyOwner {\\n        IPFS_...\n      PUSH 40\t\t\tlic onlyOwner {\\n        IPFS_...\n      MLOAD \t\t\tlic onlyOwner {\\n        IPFS_...\n      PUSH 8C379A000000000000000000000000000000000000000000000000000000000\t\t\tlic onlyOwner {\\n        IPFS_...\n      DUP2 \t\t\tlic onlyOwner {\\n        IPFS_...\n      MSTORE \t\t\tlic onlyOwner {\\n        IPFS_...\n      PUSH 4\t\t\tlic onlyOwner {\\n        IPFS_...\n      ADD \t\t\tlic onlyOwner {\\n        IPFS_...\n      PUSH [tag] 224\t\t\tlic onlyOwner {\\n        IPFS_...\n      SWAP1 \t\t\tlic onlyOwner {\\n        IPFS_...\n      PUSH [tag] 225\t\t\tlic onlyOwner {\\n        IPFS_...\n      JUMP \t\t\tlic onlyOwner {\\n        IPFS_...\n    tag 224\t\t\tlic onlyOwner {\\n        IPFS_...\n      JUMPDEST \t\t\tlic onlyOwner {\\n        IPFS_...\n      PUSH 40\t\t\tlic onlyOwner {\\n        IPFS_...\n      MLOAD \t\t\tlic onlyOwner {\\n        IPFS_...\n      DUP1 \t\t\tlic onlyOwner {\\n        IPFS_...\n      SWAP2 \t\t\tlic onlyOwner {\\n        IPFS_...\n      SUB \t\t\tlic onlyOwner {\\n        IPFS_...\n      SWAP1 \t\t\tlic onlyOwner {\\n        IPFS_...\n      REVERT \t\t\tlic onlyOwner {\\n        IPFS_...\n    tag 223\t\t\tlic onlyOwner {\\n        IPFS_...\n      JUMPDEST \t\t\tlic onlyOwner {\\n        IPFS_...\n      PUSH [tag] 227\t\t\tuire(_price > 0, \"Pri\n      PUSH 0\t\t\tP\n      PUSH [tag] 228\t\t\tuire(_pri\n      JUMP \t\t\tuire(_price > 0, \"Pri\n    tag 227\t\t\tuire(_price > 0, \"Pri\n      JUMPDEST \t\t\tuire(_price > 0, \"Pri\n      JUMP \t\t\tenExists[_token], \"The token U...\n    tag 76\t\t\tfunction reSale(\\n        uint...\n      JUMPDEST \t\t\tfunction reSale(\\n        uint...\n      PUSH 0\t\t\tuint256\n      PUSH [tag] 230\t\t\tsafeTransferFrom(msg.sender, a...\n      CALLER \t\t\tmsg.sender\n      ADDRESS \t\t\tthis\n      DUP6 \t\t\t_tokenId\n      DUP6 \t\t\t_amount\n      PUSH 40\t\t\tsafeTransferFrom(msg.sender, a...\n      MLOAD \t\t\tsafeTransferFrom(msg.sender, a...\n      DUP1 \t\t\tsafeTransferFrom(msg.sender, a...\n      PUSH 20\t\t\tsafeTransferFrom(msg.sender, a...\n      ADD \t\t\tsafeTransferFrom(msg.sender, a...\n      PUSH 40\t\t\tsafeTransferFrom(msg.sender, a...\n      MSTORE \t\t\tsafeTransferFrom(msg.sender, a...\n      DUP1 \t\t\tsafeTransferFrom(msg.sender, a...\n      PUSH 0\t\t\tsafeTransferFrom(msg.sender, a...\n      DUP2 \t\t\tsafeTransferFrom(msg.sender, a...\n      MSTORE \t\t\tsafeTransferFrom(msg.sender, a...\n      POP \t\t\tsafeTransferFrom(msg.sender, a...\n      PUSH [tag] 124\t\t\tsafeTransferFrom\n      JUMP \t\t\tsafeTransferFrom(msg.sender, a...\n    tag 230\t\t\tsafeTransferFrom(msg.sender, a...\n      JUMPDEST \t\t\tsafeTransferFrom(msg.sender, a...\n      DUP2 \t\t\t_amount\n      PUSH 9\t\t\tmusics\n      PUSH 0\t\t\tmusics[_tokenId]\n      DUP6 \t\t\t_tokenId\n      DUP2 \t\t\tmusics[_tokenId]\n      MSTORE \t\t\tmusics[_tokenId]\n      PUSH 20\t\t\tmusics[_tokenId]\n      ADD \t\t\tmusics[_tokenId]\n      SWAP1 \t\t\tmusics[_tokenId]\n      DUP2 \t\t\tmusics[_tokenId]\n      MSTORE \t\t\tmusics[_tokenId]\n      PUSH 20\t\t\tmusics[_tokenId]\n      ADD \t\t\tmusics[_tokenId]\n      PUSH 0\t\t\tmusics[_tokenId]\n      KECCAK256 \t\t\tmusics[_tokenId]\n      PUSH 2\t\t\tmusics[_tokenId].amount\n      ADD \t\t\tmusics[_tokenId].amount\n      PUSH 0\t\t\tmusics[_tokenId].amount\n      DUP3 \t\t\tmusics[_tokenId].amount += _am...\n      DUP3 \t\t\tmusics[_tokenId].amount += _am...\n      SLOAD \t\t\tmusics[_tokenId].amount += _am...\n      PUSH [tag] 231\t\t\tmusics[_tokenId].amount += _am...\n      SWAP2 \t\t\tmusics[_tokenId].amount += _am...\n      SWAP1 \t\t\tmusics[_tokenId].amount += _am...\n      PUSH [tag] 232\t\t\tmusics[_tokenId].amount += _am...\n      JUMP \t\t\tmusics[_tokenId].amount += _am...\n    tag 231\t\t\tmusics[_tokenId].amount += _am...\n      JUMPDEST \t\t\tmusics[_tokenId].amount += _am...\n      SWAP3 \t\t\tmusics[_tokenId].amount += _am...\n      POP \t\t\tmusics[_tokenId].amount += _am...\n      POP \t\t\tmusics[_tokenId].amount += _am...\n      DUP2 \t\t\tmusics[_tokenId].amount += _am...\n      SWAP1 \t\t\tmusics[_tokenId].amount += _am...\n      SSTORE \t\t\tmusics[_tokenId].amount += _am...\n      POP \t\t\tmusics[_tokenId].amount += _am...\n      DUP3 \t\t\t_tokenId\n      SWAP1 \t\t\treturn _tokenId\n      POP \t\t\treturn _tokenId\n      SWAP3 \t\t\tfunction reSale(\\n        uint...\n      SWAP2 \t\t\tfunction reSale(\\n        uint...\n      POP \t\t\tfunction reSale(\\n        uint...\n      POP \t\t\tfunction reSale(\\n        uint...\n      JUMP \t\t\tfunction reSale(\\n        uint...\n    tag 80\t\t\tsic) private musics;\\n\\n    co...\n      JUMPDEST \t\t\tsic) private musics;\\n\\n    co...\n      PUSH 0\t\t\t string\n      PUSH 3\t\t\t ERC11\n      PUSH 0\t\t\t ERC11\n      SWAP1 \t\t\t ERC11\n      SLOAD \t\t\t ERC11\n      SWAP1 \t\t\t ERC11\n      PUSH 100\t\t\t ERC11\n      EXP \t\t\t ERC11\n      SWAP1 \t\t\t ERC11\n      DIV \t\t\t ERC11\n      PUSH FFFFFFFFFFFFFFFFFFFFFFFFFFFFFFFFFFFFFFFF\t\t\t ERC11\n      AND \t\t\t ERC11\n      SWAP1 \t\t\ts\\n    ) ERC11\n      POP \t\t\ts\\n    ) ERC11\n      SWAP1 \t\t\tsic) private musics;\\n\\n    co...\n      JUMP \t\t\tsic) private musics;\\n\\n    co...\n    tag 86\t\t\tfunction music(uint256 _tokenI...\n      JUMPDEST \t\t\tfunction music(uint256 _tokenI...\n      PUSH [tag] 234\t\t\tMusic memory\n      PUSH [tag] 235\t\t\tMusic memory\n      JUMP \t\t\tMusic memory\n    tag 234\t\t\tMusic memory\n      JUMPDEST \t\t\tMusic memory\n      PUSH 9\t\t\tmusics\n      PUSH 0\t\t\tmusics[_tokenId]\n      DUP4 \t\t\t_tokenId\n      DUP2 \t\t\tmusics[_tokenId]\n      MSTORE \t\t\tmusics[_tokenId]\n      PUSH 20\t\t\tmusics[_tokenId]\n      ADD \t\t\tmusics[_tokenId]\n      SWAP1 \t\t\tmusics[_tokenId]\n      DUP2 \t\t\tmusics[_tokenId]\n      MSTORE \t\t\tmusics[_tokenId]\n      PUSH 20\t\t\tmusics[_tokenId]\n      ADD \t\t\tmusics[_tokenId]\n      PUSH 0\t\t\tmusics[_tokenId]\n      KECCAK256 \t\t\tmusics[_tokenId]\n      PUSH 40\t\t\treturn musics[_tokenId]\n      MLOAD \t\t\treturn musics[_tokenId]\n      DUP1 \t\t\treturn musics[_tokenId]\n      PUSH A0\t\t\treturn musics[_tokenId]\n      ADD \t\t\treturn musics[_tokenId]\n      PUSH 40\t\t\treturn musics[_tokenId]\n      MSTORE \t\t\treturn musics[_tokenId]\n      SWAP1 \t\t\treturn musics[_tokenId]\n      DUP2 \t\t\treturn musics[_tokenId]\n      PUSH 0\t\t\treturn musics[_tokenId]\n      DUP3 \t\t\treturn musics[_tokenId]\n      ADD \t\t\treturn musics[_tokenId]\n      SLOAD \t\t\treturn musics[_tokenId]\n      DUP2 \t\t\treturn musics[_tokenId]\n      MSTORE \t\t\treturn musics[_tokenId]\n      PUSH 20\t\t\treturn musics[_tokenId]\n      ADD \t\t\treturn musics[_tokenId]\n      PUSH 1\t\t\treturn musics[_tokenId]\n      DUP3 \t\t\treturn musics[_tokenId]\n      ADD \t\t\treturn musics[_tokenId]\n      DUP1 \t\t\treturn musics[_tokenId]\n      SLOAD \t\t\treturn musics[_tokenId]\n      PUSH [tag] 237\t\t\treturn musics[_tokenId]\n      SWAP1 \t\t\treturn musics[_tokenId]\n      PUSH [tag] 192\t\t\treturn musics[_tokenId]\n      JUMP \t\t\treturn musics[_tokenId]\n    tag 237\t\t\treturn musics[_tokenId]\n      JUMPDEST \t\t\treturn musics[_tokenId]\n      DUP1 \t\t\treturn musics[_tokenId]\n      PUSH 1F\t\t\treturn musics[_tokenId]\n      ADD \t\t\treturn musics[_tokenId]\n      PUSH 20\t\t\treturn musics[_tokenId]\n      DUP1 \t\t\treturn musics[_tokenId]\n      SWAP2 \t\t\treturn musics[_tokenId]\n      DIV \t\t\treturn musics[_tokenId]\n      MUL \t\t\treturn musics[_tokenId]\n      PUSH 20\t\t\treturn musics[_tokenId]\n      ADD \t\t\treturn musics[_tokenId]\n      PUSH 40\t\t\treturn musics[_tokenId]\n      MLOAD \t\t\treturn musics[_tokenId]\n      SWAP1 \t\t\treturn musics[_tokenId]\n      DUP2 \t\t\treturn musics[_tokenId]\n      ADD \t\t\treturn musics[_tokenId]\n      PUSH 40\t\t\treturn musics[_tokenId]\n      MSTORE \t\t\treturn musics[_tokenId]\n      DUP1 \t\t\treturn musics[_tokenId]\n      SWAP3 \t\t\treturn musics[_tokenId]\n      SWAP2 \t\t\treturn musics[_tokenId]\n      SWAP1 \t\t\treturn musics[_tokenId]\n      DUP2 \t\t\treturn musics[_tokenId]\n      DUP2 \t\t\treturn musics[_tokenId]\n      MSTORE \t\t\treturn musics[_tokenId]\n      PUSH 20\t\t\treturn musics[_tokenId]\n      ADD \t\t\treturn musics[_tokenId]\n      DUP3 \t\t\treturn musics[_tokenId]\n      DUP1 \t\t\treturn musics[_tokenId]\n      SLOAD \t\t\treturn musics[_tokenId]\n      PUSH [tag] 238\t\t\treturn musics[_tokenId]\n      SWAP1 \t\t\treturn musics[_tokenId]\n      PUSH [tag] 192\t\t\treturn musics[_tokenId]\n      JUMP \t\t\treturn musics[_tokenId]\n    tag 238\t\t\treturn musics[_tokenId]\n      JUMPDEST \t\t\treturn musics[_tokenId]\n      DUP1 \t\t\treturn musics[_tokenId]\n      ISZERO \t\t\treturn musics[_tokenId]\n      PUSH [tag] 239\t\t\treturn musics[_tokenId]\n      JUMPI \t\t\treturn musics[_tokenId]\n      DUP1 \t\t\treturn musics[_tokenId]\n      PUSH 1F\t\t\treturn musics[_tokenId]\n      LT \t\t\treturn musics[_tokenId]\n      PUSH [tag] 240\t\t\treturn musics[_tokenId]\n      JUMPI \t\t\treturn musics[_tokenId]\n      PUSH 100\t\t\treturn musics[_tokenId]\n      DUP1 \t\t\treturn musics[_tokenId]\n      DUP4 \t\t\treturn musics[_tokenId]\n      SLOAD \t\t\treturn musics[_tokenId]\n      DIV \t\t\treturn musics[_tokenId]\n      MUL \t\t\treturn musics[_tokenId]\n      DUP4 \t\t\treturn musics[_tokenId]\n      MSTORE \t\t\treturn musics[_tokenId]\n      SWAP2 \t\t\treturn musics[_tokenId]\n      PUSH 20\t\t\treturn musics[_tokenId]\n      ADD \t\t\treturn musics[_tokenId]\n      SWAP2 \t\t\treturn musics[_tokenId]\n      PUSH [tag] 239\t\t\treturn musics[_tokenId]\n      JUMP \t\t\treturn musics[_tokenId]\n    tag 240\t\t\treturn musics[_tokenId]\n      JUMPDEST \t\t\treturn musics[_tokenId]\n      DUP3 \t\t\treturn musics[_tokenId]\n      ADD \t\t\treturn musics[_tokenId]\n      SWAP2 \t\t\treturn musics[_tokenId]\n      SWAP1 \t\t\treturn musics[_tokenId]\n      PUSH 0\t\t\treturn musics[_tokenId]\n      MSTORE \t\t\treturn musics[_tokenId]\n      PUSH 20\t\t\treturn musics[_tokenId]\n      PUSH 0\t\t\treturn musics[_tokenId]\n      KECCAK256 \t\t\treturn musics[_tokenId]\n      SWAP1 \t\t\treturn musics[_tokenId]\n    tag 241\t\t\treturn musics[_tokenId]\n      JUMPDEST \t\t\treturn musics[_tokenId]\n      DUP2 \t\t\treturn musics[_tokenId]\n      SLOAD \t\t\treturn musics[_tokenId]\n      DUP2 \t\t\treturn musics[_tokenId]\n      MSTORE \t\t\treturn musics[_tokenId]\n      SWAP1 \t\t\treturn musics[_tokenId]\n      PUSH 1\t\t\treturn musics[_tokenId]\n      ADD \t\t\treturn musics[_tokenId]\n      SWAP1 \t\t\treturn musics[_tokenId]\n      PUSH 20\t\t\treturn musics[_tokenId]\n      ADD \t\t\treturn musics[_tokenId]\n      DUP1 \t\t\treturn musics[_tokenId]\n      DUP4 \t\t\treturn musics[_tokenId]\n      GT \t\t\treturn musics[_tokenId]\n      PUSH [tag] 241\t\t\treturn musics[_tokenId]\n      JUMPI \t\t\treturn musics[_tokenId]\n      DUP3 \t\t\treturn musics[_tokenId]\n      SWAP1 \t\t\treturn musics[_tokenId]\n      SUB \t\t\treturn musics[_tokenId]\n      PUSH 1F\t\t\treturn musics[_tokenId]\n      AND \t\t\treturn musics[_tokenId]\n      DUP3 \t\t\treturn musics[_tokenId]\n      ADD \t\t\treturn musics[_tokenId]\n      SWAP2 \t\t\treturn musics[_tokenId]\n    tag 239\t\t\treturn musics[_tokenId]\n      JUMPDEST \t\t\treturn musics[_tokenId]\n      POP \t\t\treturn musics[_tokenId]\n      POP \t\t\treturn musics[_tokenId]\n      POP \t\t\treturn musics[_tokenId]\n      POP \t\t\treturn musics[_tokenId]\n      POP \t\t\treturn musics[_tokenId]\n      DUP2 \t\t\treturn musics[_tokenId]\n      MSTORE \t\t\treturn musics[_tokenId]\n      PUSH 20\t\t\treturn musics[_tokenId]\n      ADD \t\t\treturn musics[_tokenId]\n      PUSH 2\t\t\treturn musics[_tokenId]\n      DUP3 \t\t\treturn musics[_tokenId]\n      ADD \t\t\treturn musics[_tokenId]\n      SLOAD \t\t\treturn musics[_tokenId]\n      DUP2 \t\t\treturn musics[_tokenId]\n      MSTORE \t\t\treturn musics[_tokenId]\n      PUSH 20\t\t\treturn musics[_tokenId]\n      ADD \t\t\treturn musics[_tokenId]\n      PUSH 3\t\t\treturn musics[_tokenId]\n      DUP3 \t\t\treturn musics[_tokenId]\n      ADD \t\t\treturn musics[_tokenId]\n      SLOAD \t\t\treturn musics[_tokenId]\n      DUP2 \t\t\treturn musics[_tokenId]\n      MSTORE \t\t\treturn musics[_tokenId]\n      PUSH 20\t\t\treturn musics[_tokenId]\n      ADD \t\t\treturn musics[_tokenId]\n      PUSH 4\t\t\treturn musics[_tokenId]\n      DUP3 \t\t\treturn musics[_tokenId]\n      ADD \t\t\treturn musics[_tokenId]\n      PUSH 0\t\t\treturn musics[_tokenId]\n      SWAP1 \t\t\treturn musics[_tokenId]\n      SLOAD \t\t\treturn musics[_tokenId]\n      SWAP1 \t\t\treturn musics[_tokenId]\n      PUSH 100\t\t\treturn musics[_tokenId]\n      EXP \t\t\treturn musics[_tokenId]\n      SWAP1 \t\t\treturn musics[_tokenId]\n      DIV \t\t\treturn musics[_tokenId]\n      PUSH FFFFFFFFFFFFFFFFFFFFFFFFFFFFFFFFFFFFFFFF\t\t\treturn musics[_tokenId]\n      AND \t\t\treturn musics[_tokenId]\n      PUSH FFFFFFFFFFFFFFFFFFFFFFFFFFFFFFFFFFFFFFFF\t\t\treturn musics[_tokenId]\n      AND \t\t\treturn musics[_tokenId]\n      PUSH FFFFFFFFFFFFFFFFFFFFFFFFFFFFFFFFFFFFFFFF\t\t\treturn musics[_tokenId]\n      AND \t\t\treturn musics[_tokenId]\n      DUP2 \t\t\treturn musics[_tokenId]\n      MSTORE \t\t\treturn musics[_tokenId]\n      POP \t\t\treturn musics[_tokenId]\n      POP \t\t\treturn musics[_tokenId]\n      SWAP1 \t\t\treturn musics[_tokenId]\n      POP \t\t\treturn musics[_tokenId]\n      SWAP2 \t\t\tfunction music(uint256 _tokenI...\n      SWAP1 \t\t\tfunction music(uint256 _tokenI...\n      POP \t\t\tfunction music(uint256 _tokenI...\n      JUMP \t\t\tfunction music(uint256 _tokenI...\n    tag 93\t\t\tnId, uint256 amount) external ...\n      JUMPDEST \t\t\tnId, uint256 amount) external ...\n      DUP2 \t\t\tice * am\n      PUSH FFFFFFFFFFFFFFFFFFFFFFFFFFFFFFFFFFFFFFFF\t\t\t6 salePrice = price * am\n      AND \t\t\t6 salePrice = price * am\n      PUSH [tag] 243\t\t\t6 salePrice \n      PUSH [tag] 161\t\t\t6 salePric\n      JUMP \t\t\t6 salePrice \n    tag 243\t\t\t6 salePrice \n      JUMPDEST \t\t\t6 salePrice \n      PUSH FFFFFFFFFFFFFFFFFFFFFFFFFFFFFFFFFFFFFFFF\t\t\t6 salePrice = price * am\n      AND \t\t\t6 salePrice = price * am\n      SUB \t\t\t6 salePrice = price * am\n      PUSH [tag] 244\t\t\t  uint256 salePrice = price * ...\n      JUMPI \t\t\t  uint256 salePrice = price * ...\n      PUSH 40\t\t\t  uint256 salePrice = price * ...\n      MLOAD \t\t\t  uint256 salePrice = price * ...\n      PUSH 8C379A000000000000000000000000000000000000000000000000000000000\t\t\t  uint256 salePrice = price * ...\n      DUP2 \t\t\t  uint256 salePrice = price * ...\n      MSTORE \t\t\t  uint256 salePrice = price * ...\n      PUSH 4\t\t\t  uint256 salePrice = price * ...\n      ADD \t\t\t  uint256 salePrice = price * ...\n      PUSH [tag] 245\t\t\t  uint256 salePrice = price * ...\n      SWAP1 \t\t\t  uint256 salePrice = price * ...\n      PUSH [tag] 246\t\t\t  uint256 salePrice = price * ...\n      JUMP \t\t\t  uint256 salePrice = price * ...\n    tag 245\t\t\t  uint256 salePrice = price * ...\n      JUMPDEST \t\t\t  uint256 salePrice = price * ...\n      PUSH 40\t\t\t  uint256 salePrice = price * ...\n      MLOAD \t\t\t  uint256 salePrice = price * ...\n      DUP1 \t\t\t  uint256 salePrice = price * ...\n      SWAP2 \t\t\t  uint256 salePrice = price * ...\n      SUB \t\t\t  uint256 salePrice = price * ...\n      SWAP1 \t\t\t  uint256 salePrice = price * ...\n      REVERT \t\t\t  uint256 salePrice = price * ...\n    tag 244\t\t\t  uint256 salePrice = price * ...\n      JUMPDEST \t\t\t  uint256 salePrice = price * ...\n      DUP1 \t\t\t.value >\n      PUSH 1\t\t\tko du nft\");\\n     \n      PUSH 0\t\t\tko du nft\");\\n        require(...\n      PUSH [tag] 247\t\t\t  require(\\n \n      PUSH [tag] 161\t\t\t  require(\n      JUMP \t\t\t  require(\\n \n    tag 247\t\t\t  require(\\n \n      JUMPDEST \t\t\t  require(\\n \n      PUSH FFFFFFFFFFFFFFFFFFFFFFFFFFFFFFFFFFFFFFFF\t\t\tko du nft\");\\n        require(...\n      AND \t\t\tko du nft\");\\n        require(...\n      PUSH FFFFFFFFFFFFFFFFFFFFFFFFFFFFFFFFFFFFFFFF\t\t\tko du nft\");\\n        require(...\n      AND \t\t\tko du nft\");\\n        require(...\n      DUP2 \t\t\tko du nft\");\\n        require(...\n      MSTORE \t\t\tko du nft\");\\n        require(...\n      PUSH 20\t\t\tko du nft\");\\n        require(...\n      ADD \t\t\tko du nft\");\\n        require(...\n      SWAP1 \t\t\tko du nft\");\\n        require(...\n      DUP2 \t\t\tko du nft\");\\n        require(...\n      MSTORE \t\t\tko du nft\");\\n        require(...\n      PUSH 20\t\t\tko du nft\");\\n        require(...\n      ADD \t\t\tko du nft\");\\n        require(...\n      PUSH 0\t\t\tko du nft\");\\n        require(...\n      KECCAK256 \t\t\tko du nft\");\\n        require(...\n      PUSH 0\t\t\tko du nft\");\\n        require(...\n      DUP5 \t\t\t        \n      PUSH FFFFFFFFFFFFFFFFFFFFFFFFFFFFFFFFFFFFFFFF\t\t\tko du nft\");\\n        require(...\n      AND \t\t\tko du nft\");\\n        require(...\n      PUSH FFFFFFFFFFFFFFFFFFFFFFFFFFFFFFFFFFFFFFFF\t\t\tko du nft\");\\n        require(...\n      AND \t\t\tko du nft\");\\n        require(...\n      DUP2 \t\t\tko du nft\");\\n        require(...\n      MSTORE \t\t\tko du nft\");\\n        require(...\n      PUSH 20\t\t\tko du nft\");\\n        require(...\n      ADD \t\t\tko du nft\");\\n        require(...\n      SWAP1 \t\t\tko du nft\");\\n        require(...\n      DUP2 \t\t\tko du nft\");\\n        require(...\n      MSTORE \t\t\tko du nft\");\\n        require(...\n      PUSH 20\t\t\tko du nft\");\\n        require(...\n      ADD \t\t\tko du nft\");\\n        require(...\n      PUSH 0\t\t\tko du nft\");\\n        require(...\n      KECCAK256 \t\t\tko du nft\");\\n        require(...\n      PUSH 0\t\t\tko du nft\");\\n        require(...\n      PUSH 100\t\t\tko du nft\");\\n        require(...\n      EXP \t\t\tko du nft\");\\n        require(...\n      DUP2 \t\t\tko du nft\");\\n        require(...\n      SLOAD \t\t\tko du nft\");\\n        require(...\n      DUP2 \t\t\tko du nft\");\\n        require(...\n      PUSH FF\t\t\tko du nft\");\\n        require(...\n      MUL \t\t\tko du nft\");\\n        require(...\n      NOT \t\t\tko du nft\");\\n        require(...\n      AND \t\t\tko du nft\");\\n        require(...\n      SWAP1 \t\t\tko du nft\");\\n        require(...\n      DUP4 \t\t\tko du nft\");\\n        require(...\n      ISZERO \t\t\tko du nft\");\\n        require(...\n      ISZERO \t\t\tko du nft\");\\n        require(...\n      MUL \t\t\tko du nft\");\\n        require(...\n      OR \t\t\tko du nft\");\\n        require(...\n      SWAP1 \t\t\tko du nft\");\\n        require(...\n      SSTORE \t\t\tko du nft\");\\n        require(...\n      POP \t\t\tko du nft\");\\n        require(...\n      DUP2 \t\t\tr or equ\n      PUSH FFFFFFFFFFFFFFFFFFFFFFFFFFFFFFFFFFFFFFFF\t\t\t          \"Needs to be greater...\n      AND \t\t\t          \"Needs to be greater...\n      PUSH [tag] 248\t\t\ts to be grea\n      PUSH [tag] 161\t\t\ts to be gr\n      JUMP \t\t\ts to be grea\n    tag 248\t\t\ts to be grea\n      JUMPDEST \t\t\ts to be grea\n      PUSH FFFFFFFFFFFFFFFFFFFFFFFFFFFFFFFFFFFFFFFF\t\t\t          \"Needs to be greater...\n      AND \t\t\t          \"Needs to be greater...\n      PUSH 17307EAB39AB6107E8899845AD3D59BD9653F200F220920489CA2B5937696C31\t\t\t          \"Needs to be greater...\n      DUP4 \t\t\t to the \n      PUSH 40\t\t\t          \"Needs to be greater...\n      MLOAD \t\t\t          \"Needs to be greater...\n      PUSH [tag] 249\t\t\t          \"Needs to be greater...\n      SWAP2 \t\t\t          \"Needs to be greater...\n      SWAP1 \t\t\t          \"Needs to be greater...\n      PUSH [tag] 38\t\t\t          \"Needs to be greater...\n      JUMP \t\t\t          \"Needs to be greater...\n    tag 249\t\t\t          \"Needs to be greater...\n      JUMPDEST \t\t\t          \"Needs to be greater...\n      PUSH 40\t\t\t          \"Needs to be greater...\n      MLOAD \t\t\t          \"Needs to be greater...\n      DUP1 \t\t\t          \"Needs to be greater...\n      SWAP2 \t\t\t          \"Needs to be greater...\n      SUB \t\t\t          \"Needs to be greater...\n      SWAP1 \t\t\t          \"Needs to be greater...\n      LOG3 \t\t\t          \"Needs to be greater...\n      POP \t\t\tnId, uint256 amount) external ...\n      POP \t\t\tnId, uint256 amount) external ...\n      JUMP \t\t\tnId, uint256 amount) external ...\n    tag 96\t\t\tfunction getListingFee() publi...\n      JUMPDEST \t\t\tfunction getListingFee() publi...\n      PUSH 0\t\t\tuint256\n      PUSH 7\t\t\tmarketFee\n      SLOAD \t\t\tmarketFee\n      SWAP1 \t\t\treturn marketFee\n      POP \t\t\treturn marketFee\n      SWAP1 \t\t\tfunction getListingFee() publi...\n      JUMP \t\t\tfunction getListingFee() publi...\n    tag 102\t\t\tfunction setIPFS(string memory...\n      JUMPDEST \t\t\tfunction setIPFS(string memory...\n      PUSH [tag] 252\t\t\t     IPFS_PA\n      PUSH [tag] 161\t\t\t     IPFS_\n      JUMP \t\t\t     IPFS_PA\n    tag 252\t\t\t     IPFS_PA\n      JUMPDEST \t\t\t     IPFS_PA\n      PUSH FFFFFFFFFFFFFFFFFFFFFFFFFFFFFFFFFFFFFFFF\t\t\tOwner {\\n        IPFS_PA\n      AND \t\t\tOwner {\\n        IPFS_PA\n      PUSH [tag] 253\t\t\tOwner {\n      PUSH [tag] 80\t\t\tOwner\n      JUMP \t\t\tOwner {\n    tag 253\t\t\tOwner {\n      JUMPDEST \t\t\tOwner {\n      PUSH FFFFFFFFFFFFFFFFFFFFFFFFFFFFFFFFFFFFFFFF\t\t\tOwner {\\n        IPFS_PA\n      AND \t\t\tOwner {\\n        IPFS_PA\n      EQ \t\t\tOwner {\\n        IPFS_PA\n      PUSH [tag] 254\t\t\tlic onlyOwner {\\n        IPFS_...\n      JUMPI \t\t\tlic onlyOwner {\\n        IPFS_...\n      PUSH 40\t\t\tlic onlyOwner {\\n        IPFS_...\n      MLOAD \t\t\tlic onlyOwner {\\n        IPFS_...\n      PUSH 8C379A000000000000000000000000000000000000000000000000000000000\t\t\tlic onlyOwner {\\n        IPFS_...\n      DUP2 \t\t\tlic onlyOwner {\\n        IPFS_...\n      MSTORE \t\t\tlic onlyOwner {\\n        IPFS_...\n      PUSH 4\t\t\tlic onlyOwner {\\n        IPFS_...\n      ADD \t\t\tlic onlyOwner {\\n        IPFS_...\n      PUSH [tag] 255\t\t\tlic onlyOwner {\\n        IPFS_...\n      SWAP1 \t\t\tlic onlyOwner {\\n        IPFS_...\n      PUSH [tag] 225\t\t\tlic onlyOwner {\\n        IPFS_...\n      JUMP \t\t\tlic onlyOwner {\\n        IPFS_...\n    tag 255\t\t\tlic onlyOwner {\\n        IPFS_...\n      JUMPDEST \t\t\tlic onlyOwner {\\n        IPFS_...\n      PUSH 40\t\t\tlic onlyOwner {\\n        IPFS_...\n      MLOAD \t\t\tlic onlyOwner {\\n        IPFS_...\n      DUP1 \t\t\tlic onlyOwner {\\n        IPFS_...\n      SWAP2 \t\t\tlic onlyOwner {\\n        IPFS_...\n      SUB \t\t\tlic onlyOwner {\\n        IPFS_...\n      SWAP1 \t\t\tlic onlyOwner {\\n        IPFS_...\n      REVERT \t\t\tlic onlyOwner {\\n        IPFS_...\n    tag 254\t\t\tlic onlyOwner {\\n        IPFS_...\n      JUMPDEST \t\t\tlic onlyOwner {\\n        IPFS_...\n      DUP1 \t\t\t_uri\n      PUSH 5\t\t\tIPFS_PATH\n      SWAP1 \t\t\tIPFS_PATH = _uri\n      DUP2 \t\t\tIPFS_PATH = _uri\n      PUSH [tag] 257\t\t\tIPFS_PATH = _uri\n      SWAP2 \t\t\tIPFS_PATH = _uri\n      SWAP1 \t\t\tIPFS_PATH = _uri\n      PUSH [tag] 213\t\t\tIPFS_PATH = _uri\n      JUMP \t\t\tIPFS_PATH = _uri\n    tag 257\t\t\tIPFS_PATH = _uri\n      JUMPDEST \t\t\tIPFS_PATH = _uri\n      POP \t\t\tIPFS_PATH = _uri\n      POP \t\t\tfunction setIPFS(string memory...\n      JUMP \t\t\tfunction setIPFS(string memory...\n    tag 106\t\t\tfunction tokenByHash(\\n       ...\n      JUMPDEST \t\t\tfunction tokenByHash(\\n       ...\n      PUSH [tag] 258\t\t\tMusic memory\n      PUSH [tag] 235\t\t\tMusic memory\n      JUMP \t\t\tMusic memory\n    tag 258\t\t\tMusic memory\n      JUMPDEST \t\t\tMusic memory\n      PUSH 8\t\t\t_tokenExists\n      DUP3 \t\t\t_hash\n      PUSH 40\t\t\t_tokenExists[_hash]\n      MLOAD \t\t\t_tokenExists[_hash]\n      PUSH [tag] 260\t\t\t_tokenExists[_hash]\n      SWAP2 \t\t\t_tokenExists[_hash]\n      SWAP1 \t\t\t_tokenExists[_hash]\n      PUSH [tag] 199\t\t\t_tokenExists[_hash]\n      JUMP \t\t\t_tokenExists[_hash]\n    tag 260\t\t\t_tokenExists[_hash]\n      JUMPDEST \t\t\t_tokenExists[_hash]\n      SWAP1 \t\t\t_tokenExists[_hash]\n      DUP2 \t\t\t_tokenExists[_hash]\n      MSTORE \t\t\t_tokenExists[_hash]\n      PUSH 20\t\t\t_tokenExists[_hash]\n      ADD \t\t\t_tokenExists[_hash]\n      PUSH 40\t\t\t_tokenExists[_hash]\n      MLOAD \t\t\t_tokenExists[_hash]\n      DUP1 \t\t\t_tokenExists[_hash]\n      SWAP2 \t\t\t_tokenExists[_hash]\n      SUB \t\t\t_tokenExists[_hash]\n      SWAP1 \t\t\t_tokenExists[_hash]\n      KECCAK256 \t\t\t_tokenExists[_hash]\n      PUSH 0\t\t\t_tokenExists[_hash]\n      SWAP1 \t\t\t_tokenExists[_hash]\n      SLOAD \t\t\t_tokenExists[_hash]\n      SWAP1 \t\t\t_tokenExists[_hash]\n      PUSH 100\t\t\t_tokenExists[_hash]\n      EXP \t\t\t_tokenExists[_hash]\n      SWAP1 \t\t\t_tokenExists[_hash]\n      DIV \t\t\t_tokenExists[_hash]\n      PUSH FF\t\t\t_tokenExists[_hash]\n      AND \t\t\t_tokenExists[_hash]\n      PUSH [tag] 261\t\t\trequire(_tokenExists[_hash], \"...\n      JUMPI \t\t\trequire(_tokenExists[_hash], \"...\n      PUSH 40\t\t\trequire(_tokenExists[_hash], \"...\n      MLOAD \t\t\trequire(_tokenExists[_hash], \"...\n      PUSH 8C379A000000000000000000000000000000000000000000000000000000000\t\t\trequire(_tokenExists[_hash], \"...\n      DUP2 \t\t\trequire(_tokenExists[_hash], \"...\n      MSTORE \t\t\trequire(_tokenExists[_hash], \"...\n      PUSH 4\t\t\trequire(_tokenExists[_hash], \"...\n      ADD \t\t\trequire(_tokenExists[_hash], \"...\n      PUSH [tag] 262\t\t\trequire(_tokenExists[_hash], \"...\n      SWAP1 \t\t\trequire(_tokenExists[_hash], \"...\n      PUSH [tag] 263\t\t\trequire(_tokenExists[_hash], \"...\n      JUMP \t\t\trequire(_tokenExists[_hash], \"...\n    tag 262\t\t\trequire(_tokenExists[_hash], \"...\n      JUMPDEST \t\t\trequire(_tokenExists[_hash], \"...\n      PUSH 40\t\t\trequire(_tokenExists[_hash], \"...\n      MLOAD \t\t\trequire(_tokenExists[_hash], \"...\n      DUP1 \t\t\trequire(_tokenExists[_hash], \"...\n      SWAP2 \t\t\trequire(_tokenExists[_hash], \"...\n      SUB \t\t\trequire(_tokenExists[_hash], \"...\n      SWAP1 \t\t\trequire(_tokenExists[_hash], \"...\n      REVERT \t\t\trequire(_tokenExists[_hash], \"...\n    tag 261\t\t\trequire(_tokenExists[_hash], \"...\n      JUMPDEST \t\t\trequire(_tokenExists[_hash], \"...\n      PUSH 0\t\t\tuint256 i\n    tag 264\t\t\tfor (uint256 i = 0; i < tokens...\n      JUMPDEST \t\t\tfor (uint256 i = 0; i < tokens...\n      PUSH 4\t\t\ttokens\n      DUP1 \t\t\ttokens.length\n      SLOAD \t\t\ttokens.length\n      SWAP1 \t\t\ttokens.length\n      POP \t\t\ttokens.length\n      DUP2 \t\t\ti\n      LT \t\t\ti < tokens.length\n      ISZERO \t\t\tfor (uint256 i = 0; i < tokens...\n      PUSH [tag] 265\t\t\tfor (uint256 i = 0; i < tokens...\n      JUMPI \t\t\tfor (uint256 i = 0; i < tokens...\n      PUSH [tag] 267\t\t\tmemcmp(bytes(musics[i + 1].uri...\n      PUSH 9\t\t\tmusics\n      PUSH 0\t\t\tmusics[i + 1]\n      PUSH 1\t\t\t1\n      DUP5 \t\t\ti\n      PUSH [tag] 268\t\t\ti + 1\n      SWAP2 \t\t\ti + 1\n      SWAP1 \t\t\ti + 1\n      PUSH [tag] 232\t\t\ti + 1\n      JUMP \t\t\ti + 1\n    tag 268\t\t\ti + 1\n      JUMPDEST \t\t\ti + 1\n      DUP2 \t\t\tmusics[i + 1]\n      MSTORE \t\t\tmusics[i + 1]\n      PUSH 20\t\t\tmusics[i + 1]\n      ADD \t\t\tmusics[i + 1]\n      SWAP1 \t\t\tmusics[i + 1]\n      DUP2 \t\t\tmusics[i + 1]\n      MSTORE \t\t\tmusics[i + 1]\n      PUSH 20\t\t\tmusics[i + 1]\n      ADD \t\t\tmusics[i + 1]\n      PUSH 0\t\t\tmusics[i + 1]\n      KECCAK256 \t\t\tmusics[i + 1]\n      PUSH 1\t\t\tmusics[i + 1].uri\n      ADD \t\t\tmusics[i + 1].uri\n      DUP1 \t\t\tmemcmp(bytes(musics[i + 1].uri...\n      SLOAD \t\t\tmemcmp(bytes(musics[i + 1].uri...\n      PUSH [tag] 269\t\t\tmemcmp(bytes(musics[i + 1].uri...\n      SWAP1 \t\t\tmemcmp(bytes(musics[i + 1].uri...\n      PUSH [tag] 192\t\t\tmemcmp(bytes(musics[i + 1].uri...\n      JUMP \t\t\tmemcmp(bytes(musics[i + 1].uri...\n    tag 269\t\t\tmemcmp(bytes(musics[i + 1].uri...\n      JUMPDEST \t\t\tmemcmp(bytes(musics[i + 1].uri...\n      DUP1 \t\t\tmemcmp(bytes(musics[i + 1].uri...\n      PUSH 1F\t\t\tmemcmp(bytes(musics[i + 1].uri...\n      ADD \t\t\tmemcmp(bytes(musics[i + 1].uri...\n      PUSH 20\t\t\tmemcmp(bytes(musics[i + 1].uri...\n      DUP1 \t\t\tmemcmp(bytes(musics[i + 1].uri...\n      SWAP2 \t\t\tmemcmp(bytes(musics[i + 1].uri...\n      DIV \t\t\tmemcmp(bytes(musics[i + 1].uri...\n      MUL \t\t\tmemcmp(bytes(musics[i + 1].uri...\n      PUSH 20\t\t\tmemcmp(bytes(musics[i + 1].uri...\n      ADD \t\t\tmemcmp(bytes(musics[i + 1].uri...\n      PUSH 40\t\t\tmemcmp(bytes(musics[i + 1].uri...\n      MLOAD \t\t\tmemcmp(bytes(musics[i + 1].uri...\n      SWAP1 \t\t\tmemcmp(bytes(musics[i + 1].uri...\n      DUP2 \t\t\tmemcmp(bytes(musics[i + 1].uri...\n      ADD \t\t\tmemcmp(bytes(musics[i + 1].uri...\n      PUSH 40\t\t\tmemcmp(bytes(musics[i + 1].uri...\n      MSTORE \t\t\tmemcmp(bytes(musics[i + 1].uri...\n      DUP1 \t\t\tmemcmp(bytes(musics[i + 1].uri...\n      SWAP3 \t\t\tmemcmp(bytes(musics[i + 1].uri...\n      SWAP2 \t\t\tmemcmp(bytes(musics[i + 1].uri...\n      SWAP1 \t\t\tmemcmp(bytes(musics[i + 1].uri...\n      DUP2 \t\t\tmemcmp(bytes(musics[i + 1].uri...\n      DUP2 \t\t\tmemcmp(bytes(musics[i + 1].uri...\n      MSTORE \t\t\tmemcmp(bytes(musics[i + 1].uri...\n      PUSH 20\t\t\tmemcmp(bytes(musics[i + 1].uri...\n      ADD \t\t\tmemcmp(bytes(musics[i + 1].uri...\n      DUP3 \t\t\tmemcmp(bytes(musics[i + 1].uri...\n      DUP1 \t\t\tmemcmp(bytes(musics[i + 1].uri...\n      SLOAD \t\t\tmemcmp(bytes(musics[i + 1].uri...\n      PUSH [tag] 270\t\t\tmemcmp(bytes(musics[i + 1].uri...\n      SWAP1 \t\t\tmemcmp(bytes(musics[i + 1].uri...\n      PUSH [tag] 192\t\t\tmemcmp(bytes(musics[i + 1].uri...\n      JUMP \t\t\tmemcmp(bytes(musics[i + 1].uri...\n    tag 270\t\t\tmemcmp(bytes(musics[i + 1].uri...\n      JUMPDEST \t\t\tmemcmp(bytes(musics[i + 1].uri...\n      DUP1 \t\t\tmemcmp(bytes(musics[i + 1].uri...\n      ISZERO \t\t\tmemcmp(bytes(musics[i + 1].uri...\n      PUSH [tag] 271\t\t\tmemcmp(bytes(musics[i + 1].uri...\n      JUMPI \t\t\tmemcmp(bytes(musics[i + 1].uri...\n      DUP1 \t\t\tmemcmp(bytes(musics[i + 1].uri...\n      PUSH 1F\t\t\tmemcmp(bytes(musics[i + 1].uri...\n      LT \t\t\tmemcmp(bytes(musics[i + 1].uri...\n      PUSH [tag] 272\t\t\tmemcmp(bytes(musics[i + 1].uri...\n      JUMPI \t\t\tmemcmp(bytes(musics[i + 1].uri...\n      PUSH 100\t\t\tmemcmp(bytes(musics[i + 1].uri...\n      DUP1 \t\t\tmemcmp(bytes(musics[i + 1].uri...\n      DUP4 \t\t\tmemcmp(bytes(musics[i + 1].uri...\n      SLOAD \t\t\tmemcmp(bytes(musics[i + 1].uri...\n      DIV \t\t\tmemcmp(bytes(musics[i + 1].uri...\n      MUL \t\t\tmemcmp(bytes(musics[i + 1].uri...\n      DUP4 \t\t\tmemcmp(bytes(musics[i + 1].uri...\n      MSTORE \t\t\tmemcmp(bytes(musics[i + 1].uri...\n      SWAP2 \t\t\tmemcmp(bytes(musics[i + 1].uri...\n      PUSH 20\t\t\tmemcmp(bytes(musics[i + 1].uri...\n      ADD \t\t\tmemcmp(bytes(musics[i + 1].uri...\n      SWAP2 \t\t\tmemcmp(bytes(musics[i + 1].uri...\n      PUSH [tag] 271\t\t\tmemcmp(bytes(musics[i + 1].uri...\n      JUMP \t\t\tmemcmp(bytes(musics[i + 1].uri...\n    tag 272\t\t\tmemcmp(bytes(musics[i + 1].uri...\n      JUMPDEST \t\t\tmemcmp(bytes(musics[i + 1].uri...\n      DUP3 \t\t\tmemcmp(bytes(musics[i + 1].uri...\n      ADD \t\t\tmemcmp(bytes(musics[i + 1].uri...\n      SWAP2 \t\t\tmemcmp(bytes(musics[i + 1].uri...\n      SWAP1 \t\t\tmemcmp(bytes(musics[i + 1].uri...\n      PUSH 0\t\t\tmemcmp(bytes(musics[i + 1].uri...\n      MSTORE \t\t\tmemcmp(bytes(musics[i + 1].uri...\n      PUSH 20\t\t\tmemcmp(bytes(musics[i + 1].uri...\n      PUSH 0\t\t\tmemcmp(bytes(musics[i + 1].uri...\n      KECCAK256 \t\t\tmemcmp(bytes(musics[i + 1].uri...\n      SWAP1 \t\t\tmemcmp(bytes(musics[i + 1].uri...\n    tag 273\t\t\tmemcmp(bytes(musics[i + 1].uri...\n      JUMPDEST \t\t\tmemcmp(bytes(musics[i + 1].uri...\n      DUP2 \t\t\tmemcmp(bytes(musics[i + 1].uri...\n      SLOAD \t\t\tmemcmp(bytes(musics[i + 1].uri...\n      DUP2 \t\t\tmemcmp(bytes(musics[i + 1].uri...\n      MSTORE \t\t\tmemcmp(bytes(musics[i + 1].uri...\n      SWAP1 \t\t\tmemcmp(bytes(musics[i + 1].uri...\n      PUSH 1\t\t\tmemcmp(bytes(musics[i + 1].uri...\n      ADD \t\t\tmemcmp(bytes(musics[i + 1].uri...\n      SWAP1 \t\t\tmemcmp(bytes(musics[i + 1].uri...\n      PUSH 20\t\t\tmemcmp(bytes(musics[i + 1].uri...\n      ADD \t\t\tmemcmp(bytes(musics[i + 1].uri...\n      DUP1 \t\t\tmemcmp(bytes(musics[i + 1].uri...\n      DUP4 \t\t\tmemcmp(bytes(musics[i + 1].uri...\n      GT \t\t\tmemcmp(bytes(musics[i + 1].uri...\n      PUSH [tag] 273\t\t\tmemcmp(bytes(musics[i + 1].uri...\n      JUMPI \t\t\tmemcmp(bytes(musics[i + 1].uri...\n      DUP3 \t\t\tmemcmp(bytes(musics[i + 1].uri...\n      SWAP1 \t\t\tmemcmp(bytes(musics[i + 1].uri...\n      SUB \t\t\tmemcmp(bytes(musics[i + 1].uri...\n      PUSH 1F\t\t\tmemcmp(bytes(musics[i + 1].uri...\n      AND \t\t\tmemcmp(bytes(musics[i + 1].uri...\n      DUP3 \t\t\tmemcmp(bytes(musics[i + 1].uri...\n      ADD \t\t\tmemcmp(bytes(musics[i + 1].uri...\n      SWAP2 \t\t\tmemcmp(bytes(musics[i + 1].uri...\n    tag 271\t\t\tmemcmp(bytes(musics[i + 1].uri...\n      JUMPDEST \t\t\tmemcmp(bytes(musics[i + 1].uri...\n      POP \t\t\tmemcmp(bytes(musics[i + 1].uri...\n      POP \t\t\tmemcmp(bytes(musics[i + 1].uri...\n      POP \t\t\tmemcmp(bytes(musics[i + 1].uri...\n      POP \t\t\tmemcmp(bytes(musics[i + 1].uri...\n      POP \t\t\tmemcmp(bytes(musics[i + 1].uri...\n      DUP5 \t\t\t_hash\n      PUSH [tag] 274\t\t\tmemcmp\n      JUMP \t\t\tmemcmp(bytes(musics[i + 1].uri...\n    tag 267\t\t\tmemcmp(bytes(musics[i + 1].uri...\n      JUMPDEST \t\t\tmemcmp(bytes(musics[i + 1].uri...\n      ISZERO \t\t\tif (memcmp(bytes(musics[i + 1]...\n      PUSH [tag] 275\t\t\tif (memcmp(bytes(musics[i + 1]...\n      JUMPI \t\t\tif (memcmp(bytes(musics[i + 1]...\n      PUSH 9\t\t\tmusics\n      PUSH 0\t\t\tmusics[i + 1]\n      PUSH 1\t\t\t1\n      DUP4 \t\t\ti\n      PUSH [tag] 276\t\t\ti + 1\n      SWAP2 \t\t\ti + 1\n      SWAP1 \t\t\ti + 1\n      PUSH [tag] 232\t\t\ti + 1\n      JUMP \t\t\ti + 1\n    tag 276\t\t\ti + 1\n      JUMPDEST \t\t\ti + 1\n      DUP2 \t\t\tmusics[i + 1]\n      MSTORE \t\t\tmusics[i + 1]\n      PUSH 20\t\t\tmusics[i + 1]\n      ADD \t\t\tmusics[i + 1]\n      SWAP1 \t\t\tmusics[i + 1]\n      DUP2 \t\t\tmusics[i + 1]\n      MSTORE \t\t\tmusics[i + 1]\n      PUSH 20\t\t\tmusics[i + 1]\n      ADD \t\t\tmusics[i + 1]\n      PUSH 0\t\t\tmusics[i + 1]\n      KECCAK256 \t\t\tmusics[i + 1]\n      PUSH 40\t\t\treturn musics[i + 1]\n      MLOAD \t\t\treturn musics[i + 1]\n      DUP1 \t\t\treturn musics[i + 1]\n      PUSH A0\t\t\treturn musics[i + 1]\n      ADD \t\t\treturn musics[i + 1]\n      PUSH 40\t\t\treturn musics[i + 1]\n      MSTORE \t\t\treturn musics[i + 1]\n      SWAP1 \t\t\treturn musics[i + 1]\n      DUP2 \t\t\treturn musics[i + 1]\n      PUSH 0\t\t\treturn musics[i + 1]\n      DUP3 \t\t\treturn musics[i + 1]\n      ADD \t\t\treturn musics[i + 1]\n      SLOAD \t\t\treturn musics[i + 1]\n      DUP2 \t\t\treturn musics[i + 1]\n      MSTORE \t\t\treturn musics[i + 1]\n      PUSH 20\t\t\treturn musics[i + 1]\n      ADD \t\t\treturn musics[i + 1]\n      PUSH 1\t\t\treturn musics[i + 1]\n      DUP3 \t\t\treturn musics[i + 1]\n      ADD \t\t\treturn musics[i + 1]\n      DUP1 \t\t\treturn musics[i + 1]\n      SLOAD \t\t\treturn musics[i + 1]\n      PUSH [tag] 277\t\t\treturn musics[i + 1]\n      SWAP1 \t\t\treturn musics[i + 1]\n      PUSH [tag] 192\t\t\treturn musics[i + 1]\n      JUMP \t\t\treturn musics[i + 1]\n    tag 277\t\t\treturn musics[i + 1]\n      JUMPDEST \t\t\treturn musics[i + 1]\n      DUP1 \t\t\treturn musics[i + 1]\n      PUSH 1F\t\t\treturn musics[i + 1]\n      ADD \t\t\treturn musics[i + 1]\n      PUSH 20\t\t\treturn musics[i + 1]\n      DUP1 \t\t\treturn musics[i + 1]\n      SWAP2 \t\t\treturn musics[i + 1]\n      DIV \t\t\treturn musics[i + 1]\n      MUL \t\t\treturn musics[i + 1]\n      PUSH 20\t\t\treturn musics[i + 1]\n      ADD \t\t\treturn musics[i + 1]\n      PUSH 40\t\t\treturn musics[i + 1]\n      MLOAD \t\t\treturn musics[i + 1]\n      SWAP1 \t\t\treturn musics[i + 1]\n      DUP2 \t\t\treturn musics[i + 1]\n      ADD \t\t\treturn musics[i + 1]\n      PUSH 40\t\t\treturn musics[i + 1]\n      MSTORE \t\t\treturn musics[i + 1]\n      DUP1 \t\t\treturn musics[i + 1]\n      SWAP3 \t\t\treturn musics[i + 1]\n      SWAP2 \t\t\treturn musics[i + 1]\n      SWAP1 \t\t\treturn musics[i + 1]\n      DUP2 \t\t\treturn musics[i + 1]\n      DUP2 \t\t\treturn musics[i + 1]\n      MSTORE \t\t\treturn musics[i + 1]\n      PUSH 20\t\t\treturn musics[i + 1]\n      ADD \t\t\treturn musics[i + 1]\n      DUP3 \t\t\treturn musics[i + 1]\n      DUP1 \t\t\treturn musics[i + 1]\n      SLOAD \t\t\treturn musics[i + 1]\n      PUSH [tag] 278\t\t\treturn musics[i + 1]\n      SWAP1 \t\t\treturn musics[i + 1]\n      PUSH [tag] 192\t\t\treturn musics[i + 1]\n      JUMP \t\t\treturn musics[i + 1]\n    tag 278\t\t\treturn musics[i + 1]\n      JUMPDEST \t\t\treturn musics[i + 1]\n      DUP1 \t\t\treturn musics[i + 1]\n      ISZERO \t\t\treturn musics[i + 1]\n      PUSH [tag] 279\t\t\treturn musics[i + 1]\n      JUMPI \t\t\treturn musics[i + 1]\n      DUP1 \t\t\treturn musics[i + 1]\n      PUSH 1F\t\t\treturn musics[i + 1]\n      LT \t\t\treturn musics[i + 1]\n      PUSH [tag] 280\t\t\treturn musics[i + 1]\n      JUMPI \t\t\treturn musics[i + 1]\n      PUSH 100\t\t\treturn musics[i + 1]\n      DUP1 \t\t\treturn musics[i + 1]\n      DUP4 \t\t\treturn musics[i + 1]\n      SLOAD \t\t\treturn musics[i + 1]\n      DIV \t\t\treturn musics[i + 1]\n      MUL \t\t\treturn musics[i + 1]\n      DUP4 \t\t\treturn musics[i + 1]\n      MSTORE \t\t\treturn musics[i + 1]\n      SWAP2 \t\t\treturn musics[i + 1]\n      PUSH 20\t\t\treturn musics[i + 1]\n      ADD \t\t\treturn musics[i + 1]\n      SWAP2 \t\t\treturn musics[i + 1]\n      PUSH [tag] 279\t\t\treturn musics[i + 1]\n      JUMP \t\t\treturn musics[i + 1]\n    tag 280\t\t\treturn musics[i + 1]\n      JUMPDEST \t\t\treturn musics[i + 1]\n      DUP3 \t\t\treturn musics[i + 1]\n      ADD \t\t\treturn musics[i + 1]\n      SWAP2 \t\t\treturn musics[i + 1]\n      SWAP1 \t\t\treturn musics[i + 1]\n      PUSH 0\t\t\treturn musics[i + 1]\n      MSTORE \t\t\treturn musics[i + 1]\n      PUSH 20\t\t\treturn musics[i + 1]\n      PUSH 0\t\t\treturn musics[i + 1]\n      KECCAK256 \t\t\treturn musics[i + 1]\n      SWAP1 \t\t\treturn musics[i + 1]\n    tag 281\t\t\treturn musics[i + 1]\n      JUMPDEST \t\t\treturn musics[i + 1]\n      DUP2 \t\t\treturn musics[i + 1]\n      SLOAD \t\t\treturn musics[i + 1]\n      DUP2 \t\t\treturn musics[i + 1]\n      MSTORE \t\t\treturn musics[i + 1]\n      SWAP1 \t\t\treturn musics[i + 1]\n      PUSH 1\t\t\treturn musics[i + 1]\n      ADD \t\t\treturn musics[i + 1]\n      SWAP1 \t\t\treturn musics[i + 1]\n      PUSH 20\t\t\treturn musics[i + 1]\n      ADD \t\t\treturn musics[i + 1]\n      DUP1 \t\t\treturn musics[i + 1]\n      DUP4 \t\t\treturn musics[i + 1]\n      GT \t\t\treturn musics[i + 1]\n      PUSH [tag] 281\t\t\treturn musics[i + 1]\n      JUMPI \t\t\treturn musics[i + 1]\n      DUP3 \t\t\treturn musics[i + 1]\n      SWAP1 \t\t\treturn musics[i + 1]\n      SUB \t\t\treturn musics[i + 1]\n      PUSH 1F\t\t\treturn musics[i + 1]\n      AND \t\t\treturn musics[i + 1]\n      DUP3 \t\t\treturn musics[i + 1]\n      ADD \t\t\treturn musics[i + 1]\n      SWAP2 \t\t\treturn musics[i + 1]\n    tag 279\t\t\treturn musics[i + 1]\n      JUMPDEST \t\t\treturn musics[i + 1]\n      POP \t\t\treturn musics[i + 1]\n      POP \t\t\treturn musics[i + 1]\n      POP \t\t\treturn musics[i + 1]\n      POP \t\t\treturn musics[i + 1]\n      POP \t\t\treturn musics[i + 1]\n      DUP2 \t\t\treturn musics[i + 1]\n      MSTORE \t\t\treturn musics[i + 1]\n      PUSH 20\t\t\treturn musics[i + 1]\n      ADD \t\t\treturn musics[i + 1]\n      PUSH 2\t\t\treturn musics[i + 1]\n      DUP3 \t\t\treturn musics[i + 1]\n      ADD \t\t\treturn musics[i + 1]\n      SLOAD \t\t\treturn musics[i + 1]\n      DUP2 \t\t\treturn musics[i + 1]\n      MSTORE \t\t\treturn musics[i + 1]\n      PUSH 20\t\t\treturn musics[i + 1]\n      ADD \t\t\treturn musics[i + 1]\n      PUSH 3\t\t\treturn musics[i + 1]\n      DUP3 \t\t\treturn musics[i + 1]\n      ADD \t\t\treturn musics[i + 1]\n      SLOAD \t\t\treturn musics[i + 1]\n      DUP2 \t\t\treturn musics[i + 1]\n      MSTORE \t\t\treturn musics[i + 1]\n      PUSH 20\t\t\treturn musics[i + 1]\n      ADD \t\t\treturn musics[i + 1]\n      PUSH 4\t\t\treturn musics[i + 1]\n      DUP3 \t\t\treturn musics[i + 1]\n      ADD \t\t\treturn musics[i + 1]\n      PUSH 0\t\t\treturn musics[i + 1]\n      SWAP1 \t\t\treturn musics[i + 1]\n      SLOAD \t\t\treturn musics[i + 1]\n      SWAP1 \t\t\treturn musics[i + 1]\n      PUSH 100\t\t\treturn musics[i + 1]\n      EXP \t\t\treturn musics[i + 1]\n      SWAP1 \t\t\treturn musics[i + 1]\n      DIV \t\t\treturn musics[i + 1]\n      PUSH FFFFFFFFFFFFFFFFFFFFFFFFFFFFFFFFFFFFFFFF\t\t\treturn musics[i + 1]\n      AND \t\t\treturn musics[i + 1]\n      PUSH FFFFFFFFFFFFFFFFFFFFFFFFFFFFFFFFFFFFFFFF\t\t\treturn musics[i + 1]\n      AND \t\t\treturn musics[i + 1]\n      PUSH FFFFFFFFFFFFFFFFFFFFFFFFFFFFFFFFFFFFFFFF\t\t\treturn musics[i + 1]\n      AND \t\t\treturn musics[i + 1]\n      DUP2 \t\t\treturn musics[i + 1]\n      MSTORE \t\t\treturn musics[i + 1]\n      POP \t\t\treturn musics[i + 1]\n      POP \t\t\treturn musics[i + 1]\n      SWAP2 \t\t\treturn musics[i + 1]\n      POP \t\t\treturn musics[i + 1]\n      POP \t\t\treturn musics[i + 1]\n      PUSH [tag] 259\t\t\treturn musics[i + 1]\n      JUMP \t\t\treturn musics[i + 1]\n    tag 275\t\t\tif (memcmp(bytes(musics[i + 1]...\n      JUMPDEST \t\t\tif (memcmp(bytes(musics[i + 1]...\n      DUP1 \t\t\ti++\n      DUP1 \t\t\ti++\n      PUSH 1\t\t\ti++\n      ADD \t\t\ti++\n      SWAP2 \t\t\ti++\n      POP \t\t\ti++\n      POP \t\t\ti++\n      PUSH [tag] 264\t\t\tfor (uint256 i = 0; i < tokens...\n      JUMP \t\t\tfor (uint256 i = 0; i < tokens...\n    tag 265\t\t\tfor (uint256 i = 0; i < tokens...\n      JUMPDEST \t\t\tfor (uint256 i = 0; i < tokens...\n      POP \t\t\tfor (uint256 i = 0; i < tokens...\n      PUSH [tag] 282\t\t\tMusic memory emptyPropertyObj\n      PUSH [tag] 235\t\t\tMusic memory emptyPropertyObj\n      JUMP \t\t\tMusic memory emptyPropertyObj\n    tag 282\t\t\tMusic memory emptyPropertyObj\n      JUMPDEST \t\t\tMusic memory emptyPropertyObj\n      DUP1 \t\t\temptyPropertyObj\n      SWAP2 \t\t\treturn emptyPropertyObj\n      POP \t\t\treturn emptyPropertyObj\n      POP \t\t\treturn emptyPropertyObj\n    tag 259\t\t\tfunction tokenByHash(\\n       ...\n      JUMPDEST \t\t\tfunction tokenByHash(\\n       ...\n      SWAP2 \t\t\tfunction tokenByHash(\\n       ...\n      SWAP1 \t\t\tfunction tokenByHash(\\n       ...\n      POP \t\t\tfunction tokenByHash(\\n       ...\n      JUMP \t\t\tfunction tokenByHash(\\n       ...\n    tag 112\t\t\t       musics[tokenId].artirt,...\n      JUMPDEST \t\t\t       musics[tokenId].artirt,...\n      PUSH 0\t\t\t    \n      PUSH 1\t\t\tg.sender, address(\n      PUSH 0\t\t\tg.sender, address(this), 0,\n      DUP5 \t\t\this), 0\n      PUSH FFFFFFFFFFFFFFFFFFFFFFFFFFFFFFFFFFFFFFFF\t\t\tg.sender, address(this), 0,\n      AND \t\t\tg.sender, address(this), 0,\n      PUSH FFFFFFFFFFFFFFFFFFFFFFFFFFFFFFFFFFFFFFFF\t\t\tg.sender, address(this), 0,\n      AND \t\t\tg.sender, address(this), 0,\n      DUP2 \t\t\tg.sender, address(this), 0,\n      MSTORE \t\t\tg.sender, address(this), 0,\n      PUSH 20\t\t\tg.sender, address(this), 0,\n      ADD \t\t\tg.sender, address(this), 0,\n      SWAP1 \t\t\tg.sender, address(this), 0,\n      DUP2 \t\t\tg.sender, address(this), 0,\n      MSTORE \t\t\tg.sender, address(this), 0,\n      PUSH 20\t\t\tg.sender, address(this), 0,\n      ADD \t\t\tg.sender, address(this), 0,\n      PUSH 0\t\t\tg.sender, address(this), 0,\n      KECCAK256 \t\t\tg.sender, address(this), 0,\n      PUSH 0\t\t\tg.sender, address(this), 0, ma...\n      DUP4 \t\t\tmarketFe\n      PUSH FFFFFFFFFFFFFFFFFFFFFFFFFFFFFFFFFFFFFFFF\t\t\tg.sender, address(this), 0, ma...\n      AND \t\t\tg.sender, address(this), 0, ma...\n      PUSH FFFFFFFFFFFFFFFFFFFFFFFFFFFFFFFFFFFFFFFF\t\t\tg.sender, address(this), 0, ma...\n      AND \t\t\tg.sender, address(this), 0, ma...\n      DUP2 \t\t\tg.sender, address(this), 0, ma...\n      MSTORE \t\t\tg.sender, address(this), 0, ma...\n      PUSH 20\t\t\tg.sender, address(this), 0, ma...\n      ADD \t\t\tg.sender, address(this), 0, ma...\n      SWAP1 \t\t\tg.sender, address(this), 0, ma...\n      DUP2 \t\t\tg.sender, address(this), 0, ma...\n      MSTORE \t\t\tg.sender, address(this), 0, ma...\n      PUSH 20\t\t\tg.sender, address(this), 0, ma...\n      ADD \t\t\tg.sender, address(this), 0, ma...\n      PUSH 0\t\t\tg.sender, address(this), 0, ma...\n      KECCAK256 \t\t\tg.sender, address(this), 0, ma...\n      PUSH 0\t\t\tg.sender, address(this), 0, ma...\n      SWAP1 \t\t\tg.sender, address(this), 0, ma...\n      SLOAD \t\t\tg.sender, address(this), 0, ma...\n      SWAP1 \t\t\tg.sender, address(this), 0, ma...\n      PUSH 100\t\t\tg.sender, address(this), 0, ma...\n      EXP \t\t\tg.sender, address(this), 0, ma...\n      SWAP1 \t\t\tg.sender, address(this), 0, ma...\n      DIV \t\t\tg.sender, address(this), 0, ma...\n      PUSH FF\t\t\tg.sender, address(this), 0, ma...\n      AND \t\t\tg.sender, address(this), 0, ma...\n      SWAP1 \t\t\tFrom(msg.sender, address(this)...\n      POP \t\t\tFrom(msg.sender, address(this)...\n      SWAP3 \t\t\t       musics[tokenId].artirt,...\n      SWAP2 \t\t\t       musics[tokenId].artirt,...\n      POP \t\t\t       musics[tokenId].artirt,...\n      POP \t\t\t       musics[tokenId].artirt,...\n      JUMP \t\t\t       musics[tokenId].artirt,...\n    tag 118\t\t\tfunction onERC1155Received(\\n ...\n      JUMPDEST \t\t\tfunction onERC1155Received(\\n ...\n      PUSH 0\t\t\tbytes4\n      PUSH F23A6E61\t\t\tthis.onERC1155Received.selecto...\n      PUSH E0\t\t\tthis.onERC1155Received.selecto...\n      SHL \t\t\tthis.onERC1155Received.selecto...\n      SWAP1 \t\t\treturn this.onERC1155Received....\n      POP \t\t\treturn this.onERC1155Received....\n      SWAP6 \t\t\tfunction onERC1155Received(\\n ...\n      SWAP5 \t\t\tfunction onERC1155Received(\\n ...\n      POP \t\t\tfunction onERC1155Received(\\n ...\n      POP \t\t\tfunction onERC1155Received(\\n ...\n      POP \t\t\tfunction onERC1155Received(\\n ...\n      POP \t\t\tfunction onERC1155Received(\\n ...\n      POP \t\t\tfunction onERC1155Received(\\n ...\n      JUMP \t\t\tfunction onERC1155Received(\\n ...\n    tag 124\t\t\ted(address(this), msg.sender, ...\n      JUMPDEST \t\t\ted(address(this), msg.sender, ...\n      PUSH [tag] 286\t\t\t      \"0x0\"\\n\n      PUSH [tag] 161\t\t\t      \"0x0\n      JUMP \t\t\t      \"0x0\"\\n\n    tag 286\t\t\t      \"0x0\"\\n\n      JUMPDEST \t\t\t      \"0x0\"\\n\n      PUSH FFFFFFFFFFFFFFFFFFFFFFFFFFFFFFFFFFFFFFFF\t\t\t,\\n            \"0x0\"\\n\n      AND \t\t\t,\\n            \"0x0\"\\n\n      DUP6 \t\t\t,\\n  \n      PUSH FFFFFFFFFFFFFFFFFFFFFFFFFFFFFFFFFFFFFFFF\t\t\t,\\n            \"0x0\"\\n\n      AND \t\t\t,\\n            \"0x0\"\\n\n      EQ \t\t\t,\\n            \"0x0\"\\n\n      DUP1 \t\t\t,\\n            \"0x0\"\\n        ...\n      PUSH [tag] 287\t\t\t,\\n            \"0x0\"\\n        ...\n      JUMPI \t\t\t,\\n            \"0x0\"\\n        ...\n      POP \t\t\t,\\n            \"0x0\"\\n        ...\n      PUSH [tag] 288\t\t\t    );\\n\\n        emit BuyMusi...\n      DUP6 \t\t\tmit \n      PUSH [tag] 289\t\t\tyMusicNFT(to\n      PUSH [tag] 161\t\t\tyMusicNFT(\n      JUMP \t\t\tyMusicNFT(to\n    tag 289\t\t\tyMusicNFT(to\n      JUMPDEST \t\t\tyMusicNFT(to\n      PUSH [tag] 112\t\t\t    );\\n\\n        \n      JUMP \t\t\t    );\\n\\n        emit BuyMusi...\n    tag 288\t\t\t    );\\n\\n        emit BuyMusi...\n      JUMPDEST \t\t\t    );\\n\\n        emit BuyMusi...\n    tag 287\t\t\t,\\n            \"0x0\"\\n        ...\n      JUMPDEST \t\t\t,\\n            \"0x0\"\\n        ...\n      PUSH [tag] 290\t\t\tusics[tokenId].amount,\\n      ...\n      JUMPI \t\t\tusics[tokenId].amount,\\n      ...\n      PUSH 40\t\t\tusics[tokenId].amount,\\n      ...\n      MLOAD \t\t\tusics[tokenId].amount,\\n      ...\n      PUSH 8C379A000000000000000000000000000000000000000000000000000000000\t\t\tusics[tokenId].amount,\\n      ...\n      DUP2 \t\t\tusics[tokenId].amount,\\n      ...\n      MSTORE \t\t\tusics[tokenId].amount,\\n      ...\n      PUSH 4\t\t\tusics[tokenId].amount,\\n      ...\n      ADD \t\t\tusics[tokenId].amount,\\n      ...\n      PUSH [tag] 291\t\t\tusics[tokenId].amount,\\n      ...\n      SWAP1 \t\t\tusics[tokenId].amount,\\n      ...\n      PUSH [tag] 292\t\t\tusics[tokenId].amount,\\n      ...\n      JUMP \t\t\tusics[tokenId].amount,\\n      ...\n    tag 291\t\t\tusics[tokenId].amount,\\n      ...\n      JUMPDEST \t\t\tusics[tokenId].amount,\\n      ...\n      PUSH 40\t\t\tusics[tokenId].amount,\\n      ...\n      MLOAD \t\t\tusics[tokenId].amount,\\n      ...\n      DUP1 \t\t\tusics[tokenId].amount,\\n      ...\n      SWAP2 \t\t\tusics[tokenId].amount,\\n      ...\n      SUB \t\t\tusics[tokenId].amount,\\n      ...\n      SWAP1 \t\t\tusics[tokenId].amount,\\n      ...\n      REVERT \t\t\tusics[tokenId].amount,\\n      ...\n    tag 290\t\t\tusics[tokenId].amount,\\n      ...\n      JUMPDEST \t\t\tusics[tokenId].amount,\\n      ...\n      PUSH [tag] 293\t\t\t    address,\\n        uint256,...\n      DUP6 \t\t\t   u\n      DUP6 \t\t\tt2\n      DUP6 \t\t\t,\\n\n      DUP6 \t\t\t      \n      DUP6 \t\t\tnt25\n      PUSH [tag] 294\t\t\t    address,\\n    \n      JUMP \t\t\t    address,\\n        uint256,...\n    tag 293\t\t\t    address,\\n        uint256,...\n      JUMPDEST \t\t\t    address,\\n        uint256,...\n      POP \t\t\ted(address(this), msg.sender, ...\n      POP \t\t\ted(address(this), msg.sender, ...\n      POP \t\t\ted(address(this), msg.sender, ...\n      POP \t\t\ted(address(this), msg.sender, ...\n      POP \t\t\ted(address(this), msg.sender, ...\n      JUMP \t\t\ted(address(this), msg.sender, ...\n    tag 129\t\t\tkens.push(_token);\\n        ui...\n      JUMPDEST \t\t\tkens.push(_token);\\n        ui...\n      PUSH [tag] 296\t\t\t     IPFS_PA\n      PUSH [tag] 161\t\t\t     IPFS_\n      JUMP \t\t\t     IPFS_PA\n    tag 296\t\t\t     IPFS_PA\n      JUMPDEST \t\t\t     IPFS_PA\n      PUSH FFFFFFFFFFFFFFFFFFFFFFFFFFFFFFFFFFFFFFFF\t\t\tOwner {\\n        IPFS_PA\n      AND \t\t\tOwner {\\n        IPFS_PA\n      PUSH [tag] 297\t\t\tOwner {\n      PUSH [tag] 80\t\t\tOwner\n      JUMP \t\t\tOwner {\n    tag 297\t\t\tOwner {\n      JUMPDEST \t\t\tOwner {\n      PUSH FFFFFFFFFFFFFFFFFFFFFFFFFFFFFFFFFFFFFFFF\t\t\tOwner {\\n        IPFS_PA\n      AND \t\t\tOwner {\\n        IPFS_PA\n      EQ \t\t\tOwner {\\n        IPFS_PA\n      PUSH [tag] 298\t\t\tlic onlyOwner {\\n        IPFS_...\n      JUMPI \t\t\tlic onlyOwner {\\n        IPFS_...\n      PUSH 40\t\t\tlic onlyOwner {\\n        IPFS_...\n      MLOAD \t\t\tlic onlyOwner {\\n        IPFS_...\n      PUSH 8C379A000000000000000000000000000000000000000000000000000000000\t\t\tlic onlyOwner {\\n        IPFS_...\n      DUP2 \t\t\tlic onlyOwner {\\n        IPFS_...\n      MSTORE \t\t\tlic onlyOwner {\\n        IPFS_...\n      PUSH 4\t\t\tlic onlyOwner {\\n        IPFS_...\n      ADD \t\t\tlic onlyOwner {\\n        IPFS_...\n      PUSH [tag] 299\t\t\tlic onlyOwner {\\n        IPFS_...\n      SWAP1 \t\t\tlic onlyOwner {\\n        IPFS_...\n      PUSH [tag] 225\t\t\tlic onlyOwner {\\n        IPFS_...\n      JUMP \t\t\tlic onlyOwner {\\n        IPFS_...\n    tag 299\t\t\tlic onlyOwner {\\n        IPFS_...\n      JUMPDEST \t\t\tlic onlyOwner {\\n        IPFS_...\n      PUSH 40\t\t\tlic onlyOwner {\\n        IPFS_...\n      MLOAD \t\t\tlic onlyOwner {\\n        IPFS_...\n      DUP1 \t\t\tlic onlyOwner {\\n        IPFS_...\n      SWAP2 \t\t\tlic onlyOwner {\\n        IPFS_...\n      SUB \t\t\tlic onlyOwner {\\n        IPFS_...\n      SWAP1 \t\t\tlic onlyOwner {\\n        IPFS_...\n      REVERT \t\t\tlic onlyOwner {\\n        IPFS_...\n    tag 298\t\t\tlic onlyOwner {\\n        IPFS_...\n      JUMPDEST \t\t\tlic onlyOwner {\\n        IPFS_...\n      PUSH 0\t\t\t \n      PUSH FFFFFFFFFFFFFFFFFFFFFFFFFFFFFFFFFFFFFFFF\t\t\t, _amount, \"\");\\n      \n      AND \t\t\t, _amount, \"\");\\n      \n      DUP2 \t\t\t, _amoun\n      PUSH FFFFFFFFFFFFFFFFFFFFFFFFFFFFFFFFFFFFFFFF\t\t\t, _amount, \"\");\\n      \n      AND \t\t\t, _amount, \"\");\\n      \n      SUB \t\t\t, _amount, \"\");\\n      \n      PUSH [tag] 301\t\t\tis), _id, _amount, \"\");\\n     ...\n      JUMPI \t\t\tis), _id, _amount, \"\");\\n     ...\n      PUSH 40\t\t\tis), _id, _amount, \"\");\\n     ...\n      MLOAD \t\t\tis), _id, _amount, \"\");\\n     ...\n      PUSH 8C379A000000000000000000000000000000000000000000000000000000000\t\t\tis), _id, _amount, \"\");\\n     ...\n      DUP2 \t\t\tis), _id, _amount, \"\");\\n     ...\n      MSTORE \t\t\tis), _id, _amount, \"\");\\n     ...\n      PUSH 4\t\t\tis), _id, _amount, \"\");\\n     ...\n      ADD \t\t\tis), _id, _amount, \"\");\\n     ...\n      PUSH [tag] 302\t\t\tis), _id, _amount, \"\");\\n     ...\n      SWAP1 \t\t\tis), _id, _amount, \"\");\\n     ...\n      PUSH [tag] 303\t\t\tis), _id, _amount, \"\");\\n     ...\n      JUMP \t\t\tis), _id, _amount, \"\");\\n     ...\n    tag 302\t\t\tis), _id, _amount, \"\");\\n     ...\n      JUMPDEST \t\t\tis), _id, _amount, \"\");\\n     ...\n      PUSH 40\t\t\tis), _id, _amount, \"\");\\n     ...\n      MLOAD \t\t\tis), _id, _amount, \"\");\\n     ...\n      DUP1 \t\t\tis), _id, _amount, \"\");\\n     ...\n      SWAP2 \t\t\tis), _id, _amount, \"\");\\n     ...\n      SUB \t\t\tis), _id, _amount, \"\");\\n     ...\n      SWAP1 \t\t\tis), _id, _amount, \"\");\\n     ...\n      REVERT \t\t\tis), _id, _amount, \"\");\\n     ...\n    tag 301\t\t\tis), _id, _amount, \"\");\\n     ...\n      JUMPDEST \t\t\tis), _id, _amount, \"\");\\n     ...\n      PUSH [tag] 304\t\t\tsg.sender);\\n       \n      DUP2 \t\t\t;\\n      \n      PUSH [tag] 228\t\t\tsg.sender\n      JUMP \t\t\tsg.sender);\\n       \n    tag 304\t\t\tsg.sender);\\n       \n      JUMPDEST \t\t\tsg.sender);\\n       \n      POP \t\t\tkens.push(_token);\\n        ui...\n      JUMP \t\t\tkens.push(_token);\\n        ui...\n    tag 138\t\t\tkenId;\\n        string uri;\\n ...\n      JUMPDEST \t\t\tkenId;\\n        string uri;\\n ...\n      PUSH 0\t\t\tress\n      PUSH 1FFC9A700000000000000000000000000000000000000000000000000000000\t\t\tNFT(uint256 indexed token\n      PUSH FFFFFFFFFFFFFFFFFFFFFFFFFFFFFFFFFFFFFFFFFFFFFFFFFFFFFFFF\t\t\t event BuyMusicNFT(uint256 ind...\n      NOT \t\t\t event BuyMusicNFT(uint256 ind...\n      AND \t\t\t event BuyMusicNFT(uint256 ind...\n      DUP3 \t\t\t event BuyM\n      PUSH FFFFFFFFFFFFFFFFFFFFFFFFFFFFFFFFFFFFFFFFFFFFFFFFFFFFFFFF\t\t\t event BuyMusicNFT(uint256 ind...\n      NOT \t\t\t event BuyMusicNFT(uint256 ind...\n      AND \t\t\t event BuyMusicNFT(uint256 ind...\n      EQ \t\t\t event BuyMusicNFT(uint256 ind...\n      SWAP1 \t\t\t }\\n\\n    event BuyMusicNFT(ui...\n      POP \t\t\t }\\n\\n    event BuyMusicNFT(ui...\n      SWAP2 \t\t\tkenId;\\n        string uri;\\n ...\n      SWAP1 \t\t\tkenId;\\n        string uri;\\n ...\n      POP \t\t\tkenId;\\n        string uri;\\n ...\n      JUMP \t\t\tkenId;\\n        string uri;\\n ...\n    tag 161\t\t\tCreated(\\n        uint256 inde...\n      JUMPDEST \t\t\tCreated(\\n        uint256 inde...\n      PUSH 0\t\t\ting uri\n      CALLER \t\t\tmount,\\n   \n      SWAP1 \t\t\tnt256 amount,\\n   \n      POP \t\t\tnt256 amount,\\n   \n      SWAP1 \t\t\tCreated(\\n        uint256 inde...\n      JUMP \t\t\tCreated(\\n        uint256 inde...\n    tag 169\t\t\t\n      JUMPDEST \t\t\t\n      DUP2 \t\t\t\n      MLOAD \t\t\t\n      DUP4 \t\t\t\n      MLOAD \t\t\t\n      EQ \t\t\t\n      PUSH [tag] 308\t\t\t\n      JUMPI \t\t\t\n      PUSH 40\t\t\t\n      MLOAD \t\t\t\n      PUSH 8C379A000000000000000000000000000000000000000000000000000000000\t\t\t\n      DUP2 \t\t\t\n      MSTORE \t\t\t\n      PUSH 4\t\t\t\n      ADD \t\t\t\n      PUSH [tag] 309\t\t\t\n      SWAP1 \t\t\t\n      PUSH [tag] 310\t\t\t\n      JUMP \t\t\t\n    tag 309\t\t\t\n      JUMPDEST \t\t\t\n      PUSH 40\t\t\t\n      MLOAD \t\t\t\n      DUP1 \t\t\t\n      SWAP2 \t\t\t\n      SUB \t\t\t\n      SWAP1 \t\t\t\n      REVERT \t\t\t\n    tag 308\t\t\t\n      JUMPDEST \t\t\t\n      PUSH 0\t\t\t\n      PUSH FFFFFFFFFFFFFFFFFFFFFFFFFFFFFFFFFFFFFFFF\t\t\t\n      AND \t\t\t\n      DUP5 \t\t\t\n      PUSH FFFFFFFFFFFFFFFFFFFFFFFFFFFFFFFFFFFFFFFF\t\t\t\n      AND \t\t\t\n      SUB \t\t\t\n      PUSH [tag] 311\t\t\t\n      JUMPI \t\t\t\n      PUSH 40\t\t\t\n      MLOAD \t\t\t\n      PUSH 8C379A000000000000000000000000000000000000000000000000000000000\t\t\t\n      DUP2 \t\t\t\n      MSTORE \t\t\t\n      PUSH 4\t\t\t\n      ADD \t\t\t\n      PUSH [tag] 312\t\t\t\n      SWAP1 \t\t\t\n      PUSH [tag] 313\t\t\t\n      JUMP \t\t\t\n    tag 312\t\t\t\n      JUMPDEST \t\t\t\n      PUSH 40\t\t\t\n      MLOAD \t\t\t\n      DUP1 \t\t\t\n      SWAP2 \t\t\t\n      SUB \t\t\t\n      SWAP1 \t\t\t\n      REVERT \t\t\t\n    tag 311\t\t\t\n      JUMPDEST \t\t\t\n      PUSH 0\t\t\t\n      PUSH [tag] 314\t\t\t\n      PUSH [tag] 161\t\t\t\n      JUMP \t\t\t\n    tag 314\t\t\t\n      JUMPDEST \t\t\t\n      SWAP1 \t\t\t\n      POP \t\t\t\n      PUSH [tag] 315\t\t\t\n      DUP2 \t\t\t\n      DUP8 \t\t\t\n      DUP8 \t\t\t\n      DUP8 \t\t\t\n      DUP8 \t\t\t\n      DUP8 \t\t\t\n      PUSH [tag] 316\t\t\t\n      JUMP \t\t\t\n    tag 315\t\t\t\n      JUMPDEST \t\t\t\n      PUSH 0\t\t\t\n    tag 317\t\t\t\n      JUMPDEST \t\t\t\n      DUP5 \t\t\t\n      MLOAD \t\t\t\n      DUP2 \t\t\t\n      LT \t\t\t\n      ISZERO \t\t\t\n      PUSH [tag] 318\t\t\t\n      JUMPI \t\t\t\n      PUSH 0\t\t\t\n      DUP6 \t\t\t\n      DUP3 \t\t\t\n      DUP2 \t\t\t\n      MLOAD \t\t\t\n      DUP2 \t\t\t\n      LT \t\t\t\n      PUSH [tag] 320\t\t\t\n      JUMPI \t\t\t\n      PUSH [tag] 321\t\t\t\n      PUSH [tag] 184\t\t\t\n      JUMP \t\t\t\n    tag 321\t\t\t\n      JUMPDEST \t\t\t\n    tag 320\t\t\t\n      JUMPDEST \t\t\t\n      PUSH 20\t\t\t\n      MUL \t\t\t\n      PUSH 20\t\t\t\n      ADD \t\t\t\n      ADD \t\t\t\n      MLOAD \t\t\t\n      SWAP1 \t\t\t\n      POP \t\t\t\n      PUSH 0\t\t\t\n      DUP6 \t\t\t\n      DUP4 \t\t\t\n      DUP2 \t\t\t\n      MLOAD \t\t\t\n      DUP2 \t\t\t\n      LT \t\t\t\n      PUSH [tag] 322\t\t\t\n      JUMPI \t\t\t\n      PUSH [tag] 323\t\t\t\n      PUSH [tag] 184\t\t\t\n      JUMP \t\t\t\n    tag 323\t\t\t\n      JUMPDEST \t\t\t\n    tag 322\t\t\t\n      JUMPDEST \t\t\t\n      PUSH 20\t\t\t\n      MUL \t\t\t\n      PUSH 20\t\t\t\n      ADD \t\t\t\n      ADD \t\t\t\n      MLOAD \t\t\t\n      SWAP1 \t\t\t\n      POP \t\t\t\n      PUSH 0\t\t\t\n      DUP1 \t\t\t\n      PUSH 0\t\t\t\n      DUP5 \t\t\t\n      DUP2 \t\t\t\n      MSTORE \t\t\t\n      PUSH 20\t\t\t\n      ADD \t\t\t\n      SWAP1 \t\t\t\n      DUP2 \t\t\t\n      MSTORE \t\t\t\n      PUSH 20\t\t\t\n      ADD \t\t\t\n      PUSH 0\t\t\t\n      KECCAK256 \t\t\t\n      PUSH 0\t\t\t\n      DUP12 \t\t\t\n      PUSH FFFFFFFFFFFFFFFFFFFFFFFFFFFFFFFFFFFFFFFF\t\t\t\n      AND \t\t\t\n      PUSH FFFFFFFFFFFFFFFFFFFFFFFFFFFFFFFFFFFFFFFF\t\t\t\n      AND \t\t\t\n      DUP2 \t\t\t\n      MSTORE \t\t\t\n      PUSH 20\t\t\t\n      ADD \t\t\t\n      SWAP1 \t\t\t\n      DUP2 \t\t\t\n      MSTORE \t\t\t\n      PUSH 20\t\t\t\n      ADD \t\t\t\n      PUSH 0\t\t\t\n      KECCAK256 \t\t\t\n      SLOAD \t\t\t\n      SWAP1 \t\t\t\n      POP \t\t\t\n      DUP2 \t\t\t\n      DUP2 \t\t\t\n      LT \t\t\t\n      ISZERO \t\t\t\n      PUSH [tag] 324\t\t\t\n      JUMPI \t\t\t\n      PUSH 40\t\t\t\n      MLOAD \t\t\t\n      PUSH 8C379A000000000000000000000000000000000000000000000000000000000\t\t\t\n      DUP2 \t\t\t\n      MSTORE \t\t\t\n      PUSH 4\t\t\t\n      ADD \t\t\t\n      PUSH [tag] 325\t\t\t\n      SWAP1 \t\t\t\n      PUSH [tag] 326\t\t\t\n      JUMP \t\t\t\n    tag 325\t\t\t\n      JUMPDEST \t\t\t\n      PUSH 40\t\t\t\n      MLOAD \t\t\t\n      DUP1 \t\t\t\n      SWAP2 \t\t\t\n      SUB \t\t\t\n      SWAP1 \t\t\t\n      REVERT \t\t\t\n    tag 324\t\t\t\n      JUMPDEST \t\t\t\n      DUP2 \t\t\t\n      DUP2 \t\t\t\n      SUB \t\t\t\n      PUSH 0\t\t\t\n      DUP1 \t\t\t\n      DUP6 \t\t\t\n      DUP2 \t\t\t\n      MSTORE \t\t\t\n      PUSH 20\t\t\t\n      ADD \t\t\t\n      SWAP1 \t\t\t\n      DUP2 \t\t\t\n      MSTORE \t\t\t\n      PUSH 20\t\t\t\n      ADD \t\t\t\n      PUSH 0\t\t\t\n      KECCAK256 \t\t\t\n      PUSH 0\t\t\t\n      DUP13 \t\t\t\n      PUSH FFFFFFFFFFFFFFFFFFFFFFFFFFFFFFFFFFFFFFFF\t\t\t\n      AND \t\t\t\n      PUSH FFFFFFFFFFFFFFFFFFFFFFFFFFFFFFFFFFFFFFFF\t\t\t\n      AND \t\t\t\n      DUP2 \t\t\t\n      MSTORE \t\t\t\n      PUSH 20\t\t\t\n      ADD \t\t\t\n      SWAP1 \t\t\t\n      DUP2 \t\t\t\n      MSTORE \t\t\t\n      PUSH 20\t\t\t\n      ADD \t\t\t\n      PUSH 0\t\t\t\n      KECCAK256 \t\t\t\n      DUP2 \t\t\t\n      SWAP1 \t\t\t\n      SSTORE \t\t\t\n      POP \t\t\t\n      DUP2 \t\t\t\n      PUSH 0\t\t\t\n      DUP1 \t\t\t\n      DUP6 \t\t\t\n      DUP2 \t\t\t\n      MSTORE \t\t\t\n      PUSH 20\t\t\t\n      ADD \t\t\t\n      SWAP1 \t\t\t\n      DUP2 \t\t\t\n      MSTORE \t\t\t\n      PUSH 20\t\t\t\n      ADD \t\t\t\n      PUSH 0\t\t\t\n      KECCAK256 \t\t\t\n      PUSH 0\t\t\t\n      DUP12 \t\t\t\n      PUSH FFFFFFFFFFFFFFFFFFFFFFFFFFFFFFFFFFFFFFFF\t\t\t\n      AND \t\t\t\n      PUSH FFFFFFFFFFFFFFFFFFFFFFFFFFFFFFFFFFFFFFFF\t\t\t\n      AND \t\t\t\n      DUP2 \t\t\t\n      MSTORE \t\t\t\n      PUSH 20\t\t\t\n      ADD \t\t\t\n      SWAP1 \t\t\t\n      DUP2 \t\t\t\n      MSTORE \t\t\t\n      PUSH 20\t\t\t\n      ADD \t\t\t\n      PUSH 0\t\t\t\n      KECCAK256 \t\t\t\n      PUSH 0\t\t\t\n      DUP3 \t\t\t\n      DUP3 \t\t\t\n      SLOAD \t\t\t\n      PUSH [tag] 327\t\t\t\n      SWAP2 \t\t\t\n      SWAP1 \t\t\t\n      PUSH [tag] 232\t\t\t\n      JUMP \t\t\t\n    tag 327\t\t\t\n      JUMPDEST \t\t\t\n      SWAP3 \t\t\t\n      POP \t\t\t\n      POP \t\t\t\n      DUP2 \t\t\t\n      SWAP1 \t\t\t\n      SSTORE \t\t\t\n      POP \t\t\t\n      POP \t\t\t\n      POP \t\t\t\n      POP \t\t\t\n      DUP1 \t\t\t\n      PUSH 1\t\t\t\n      ADD \t\t\t\n      SWAP1 \t\t\t\n      POP \t\t\t\n      PUSH [tag] 317\t\t\t\n      JUMP \t\t\t\n    tag 318\t\t\t\n      JUMPDEST \t\t\t\n      POP \t\t\t\n      DUP5 \t\t\t\n      PUSH FFFFFFFFFFFFFFFFFFFFFFFFFFFFFFFFFFFFFFFF\t\t\t\n      AND \t\t\t\n      DUP7 \t\t\t\n      PUSH FFFFFFFFFFFFFFFFFFFFFFFFFFFFFFFFFFFFFFFF\t\t\t\n      AND \t\t\t\n      DUP3 \t\t\t\n      PUSH FFFFFFFFFFFFFFFFFFFFFFFFFFFFFFFFFFFFFFFF\t\t\t\n      AND \t\t\t\n      PUSH 4A39DC06D4C0DBC64B70AF90FD698A233A518AA5D07E595D983B8C0526C8F7FB\t\t\t\n      DUP8 \t\t\t\n      DUP8 \t\t\t\n      PUSH 40\t\t\t\n      MLOAD \t\t\t\n      PUSH [tag] 328\t\t\t\n      SWAP3 \t\t\t\n      SWAP2 \t\t\t\n      SWAP1 \t\t\t\n      PUSH [tag] 329\t\t\t\n      JUMP \t\t\t\n    tag 328\t\t\t\n      JUMPDEST \t\t\t\n      PUSH 40\t\t\t\n      MLOAD \t\t\t\n      DUP1 \t\t\t\n      SWAP2 \t\t\t\n      SUB \t\t\t\n      SWAP1 \t\t\t\n      LOG4 \t\t\t\n      PUSH [tag] 330\t\t\t\n      DUP2 \t\t\t\n      DUP8 \t\t\t\n      DUP8 \t\t\t\n      DUP8 \t\t\t\n      DUP8 \t\t\t\n      DUP8 \t\t\t\n      PUSH [tag] 331\t\t\t\n      JUMP \t\t\t\n    tag 330\t\t\t\n      JUMPDEST \t\t\t\n      POP \t\t\t\n      POP \t\t\t\n      POP \t\t\t\n      POP \t\t\t\n      POP \t\t\t\n      POP \t\t\t\n      JUMP \t\t\t\n    tag 215\t\t\t\n      JUMPDEST \t\t\t\n      PUSH 0\t\t\t\n      PUSH FFFFFFFFFFFFFFFFFFFFFFFFFFFFFFFFFFFFFFFF\t\t\t\n      AND \t\t\t\n      DUP5 \t\t\t\n      PUSH FFFFFFFFFFFFFFFFFFFFFFFFFFFFFFFFFFFFFFFF\t\t\t\n      AND \t\t\t\n      SUB \t\t\t\n      PUSH [tag] 333\t\t\t\n      JUMPI \t\t\t\n      PUSH 40\t\t\t\n      MLOAD \t\t\t\n      PUSH 8C379A000000000000000000000000000000000000000000000000000000000\t\t\t\n      DUP2 \t\t\t\n      MSTORE \t\t\t\n      PUSH 4\t\t\t\n      ADD \t\t\t\n      PUSH [tag] 334\t\t\t\n      SWAP1 \t\t\t\n      PUSH [tag] 335\t\t\t\n      JUMP \t\t\t\n    tag 334\t\t\t\n      JUMPDEST \t\t\t\n      PUSH 40\t\t\t\n      MLOAD \t\t\t\n      DUP1 \t\t\t\n      SWAP2 \t\t\t\n      SUB \t\t\t\n      SWAP1 \t\t\t\n      REVERT \t\t\t\n    tag 333\t\t\t\n      JUMPDEST \t\t\t\n      PUSH 0\t\t\t\n      PUSH [tag] 336\t\t\t\n      PUSH [tag] 161\t\t\t\n      JUMP \t\t\t\n    tag 336\t\t\t\n      JUMPDEST \t\t\t\n      SWAP1 \t\t\t\n      POP \t\t\t\n      PUSH [tag] 337\t\t\t\n      DUP2 \t\t\t\n      PUSH 0\t\t\t\n      DUP8 \t\t\t\n      PUSH [tag] 338\t\t\t\n      DUP9 \t\t\t\n      PUSH [tag] 339\t\t\t\n      JUMP \t\t\t\n    tag 338\t\t\t\n      JUMPDEST \t\t\t\n      PUSH [tag] 340\t\t\t\n      DUP9 \t\t\t\n      PUSH [tag] 339\t\t\t\n      JUMP \t\t\t\n    tag 340\t\t\t\n      JUMPDEST \t\t\t\n      DUP8 \t\t\t\n      PUSH [tag] 316\t\t\t\n      JUMP \t\t\t\n    tag 337\t\t\t\n      JUMPDEST \t\t\t\n      DUP3 \t\t\t\n      PUSH 0\t\t\t\n      DUP1 \t\t\t\n      DUP7 \t\t\t\n      DUP2 \t\t\t\n      MSTORE \t\t\t\n      PUSH 20\t\t\t\n      ADD \t\t\t\n      SWAP1 \t\t\t\n      DUP2 \t\t\t\n      MSTORE \t\t\t\n      PUSH 20\t\t\t\n      ADD \t\t\t\n      PUSH 0\t\t\t\n      KECCAK256 \t\t\t\n      PUSH 0\t\t\t\n      DUP8 \t\t\t\n      PUSH FFFFFFFFFFFFFFFFFFFFFFFFFFFFFFFFFFFFFFFF\t\t\t\n      AND \t\t\t\n      PUSH FFFFFFFFFFFFFFFFFFFFFFFFFFFFFFFFFFFFFFFF\t\t\t\n      AND \t\t\t\n      DUP2 \t\t\t\n      MSTORE \t\t\t\n      PUSH 20\t\t\t\n      ADD \t\t\t\n      SWAP1 \t\t\t\n      DUP2 \t\t\t\n      MSTORE \t\t\t\n      PUSH 20\t\t\t\n      ADD \t\t\t\n      PUSH 0\t\t\t\n      KECCAK256 \t\t\t\n      PUSH 0\t\t\t\n      DUP3 \t\t\t\n      DUP3 \t\t\t\n      SLOAD \t\t\t\n      PUSH [tag] 341\t\t\t\n      SWAP2 \t\t\t\n      SWAP1 \t\t\t\n      PUSH [tag] 232\t\t\t\n      JUMP \t\t\t\n    tag 341\t\t\t\n      JUMPDEST \t\t\t\n      SWAP3 \t\t\t\n      POP \t\t\t\n      POP \t\t\t\n      DUP2 \t\t\t\n      SWAP1 \t\t\t\n      SSTORE \t\t\t\n      POP \t\t\t\n      DUP5 \t\t\t\n      PUSH FFFFFFFFFFFFFFFFFFFFFFFFFFFFFFFFFFFFFFFF\t\t\t\n      AND \t\t\t\n      PUSH 0\t\t\t\n      PUSH FFFFFFFFFFFFFFFFFFFFFFFFFFFFFFFFFFFFFFFF\t\t\t\n      AND \t\t\t\n      DUP3 \t\t\t\n      PUSH FFFFFFFFFFFFFFFFFFFFFFFFFFFFFFFFFFFFFFFF\t\t\t\n      AND \t\t\t\n      PUSH C3D58168C5AE7397731D063D5BBF3D657854427343F4C083240F7AACAA2D0F62\t\t\t\n      DUP8 \t\t\t\n      DUP8 \t\t\t\n      PUSH 40\t\t\t\n      MLOAD \t\t\t\n      PUSH [tag] 342\t\t\t\n      SWAP3 \t\t\t\n      SWAP2 \t\t\t\n      SWAP1 \t\t\t\n      PUSH [tag] 158\t\t\t\n      JUMP \t\t\t\n    tag 342\t\t\t\n      JUMPDEST \t\t\t\n      PUSH 40\t\t\t\n      MLOAD \t\t\t\n      DUP1 \t\t\t\n      SWAP2 \t\t\t\n      SUB \t\t\t\n      SWAP1 \t\t\t\n      LOG4 \t\t\t\n      PUSH [tag] 343\t\t\t\n      DUP2 \t\t\t\n      PUSH 0\t\t\t\n      DUP8 \t\t\t\n      DUP8 \t\t\t\n      DUP8 \t\t\t\n      DUP8 \t\t\t\n      PUSH [tag] 344\t\t\t\n      JUMP \t\t\t\n    tag 343\t\t\t\n      JUMPDEST \t\t\t\n      POP \t\t\t\n      POP \t\t\t\n      POP \t\t\t\n      POP \t\t\t\n      POP \t\t\t\n      JUMP \t\t\t\n    tag 228\t\t\t[_token] = true;\\n\\n        em...\n      JUMPDEST \t\t\t[_token] = true;\\n\\n        em...\n      PUSH 0\t\t\t     _id,\\n      \n      PUSH 3\t\t\t   _to\n      PUSH 0\t\t\t   _to\n      SWAP1 \t\t\t   _to\n      SLOAD \t\t\t   _to\n      SWAP1 \t\t\t   _to\n      PUSH 100\t\t\t   _to\n      EXP \t\t\t   _to\n      SWAP1 \t\t\t   _to\n      DIV \t\t\t   _to\n      PUSH FFFFFFFFFFFFFFFFFFFFFFFFFFFFFFFFFFFFFFFF\t\t\t   _to\n      AND \t\t\t   _to\n      SWAP1 \t\t\t     _id,\\n            _to\n      POP \t\t\t     _id,\\n            _to\n      DUP2 \t\t\tmount,\\n \n      PUSH 3\t\t\t      \n      PUSH 0\t\t\t      \n      PUSH 100\t\t\t       _amount,\\n \n      EXP \t\t\t       _amount,\\n \n      DUP2 \t\t\t       _amount,\\n \n      SLOAD \t\t\t       _amount,\\n \n      DUP2 \t\t\t       _amount,\\n \n      PUSH FFFFFFFFFFFFFFFFFFFFFFFFFFFFFFFFFFFFFFFF\t\t\t       _amount,\\n \n      MUL \t\t\t       _amount,\\n \n      NOT \t\t\t       _amount,\\n \n      AND \t\t\t       _amount,\\n \n      SWAP1 \t\t\t       _amount,\\n \n      DUP4 \t\t\t       _amount,\\n \n      PUSH FFFFFFFFFFFFFFFFFFFFFFFFFFFFFFFFFFFFFFFF\t\t\t       _amount,\\n \n      AND \t\t\t       _amount,\\n \n      MUL \t\t\t       _amount,\\n \n      OR \t\t\t       _amount,\\n \n      SWAP1 \t\t\t       _amount,\\n \n      SSTORE \t\t\t       _amount,\\n \n      POP \t\t\t       _amount,\\n \n      DUP2 \t\t\tder)\\n   \n      PUSH FFFFFFFFFFFFFFFFFFFFFFFFFFFFFFFFFFFFFFFF\t\t\tce,\\n            address(msg.s...\n      AND \t\t\tce,\\n            address(msg.s...\n      DUP2 \t\t\tss(msg.s\n      PUSH FFFFFFFFFFFFFFFFFFFFFFFFFFFFFFFFFFFFFFFF\t\t\tce,\\n            address(msg.s...\n      AND \t\t\tce,\\n            address(msg.s...\n      PUSH 8BE0079C531659141344CD1FD0A4F28419497F9722A3DAAFE3B4186F6B6457E0\t\t\tce,\\n            address(msg.s...\n      PUSH 40\t\t\tce,\\n            address(msg.s...\n      MLOAD \t\t\tce,\\n            address(msg.s...\n      PUSH 40\t\t\tce,\\n            address(msg.s...\n      MLOAD \t\t\tce,\\n            address(msg.s...\n      DUP1 \t\t\tce,\\n            address(msg.s...\n      SWAP2 \t\t\tce,\\n            address(msg.s...\n      SUB \t\t\tce,\\n            address(msg.s...\n      SWAP1 \t\t\tce,\\n            address(msg.s...\n      LOG3 \t\t\tce,\\n            address(msg.s...\n      POP \t\t\td(\\n            _id,\\n        ...\n      POP \t\t\t[_token] = true;\\n\\n        em...\n      JUMP \t\t\t[_token] = true;\\n\\n        em...\n    tag 274\t\t\tfunction memcmp(\\n        byte...\n      JUMPDEST \t\t\tfunction memcmp(\\n        byte...\n      PUSH 0\t\t\tbool\n      DUP2 \t\t\tb\n      MLOAD \t\t\tb.length\n      DUP4 \t\t\ta\n      MLOAD \t\t\ta.length\n      EQ \t\t\ta.length == b.length\n      DUP1 \t\t\t(a.length == b.length) && (kec...\n      ISZERO \t\t\t(a.length == b.length) && (kec...\n      PUSH [tag] 347\t\t\t(a.length == b.length) && (kec...\n      JUMPI \t\t\t(a.length == b.length) && (kec...\n      POP \t\t\t(a.length == b.length) && (kec...\n      DUP2 \t\t\tb\n      DUP1 \t\t\tkeccak256(b)\n      MLOAD \t\t\tkeccak256(b)\n      SWAP1 \t\t\tkeccak256(b)\n      PUSH 20\t\t\tkeccak256(b)\n      ADD \t\t\tkeccak256(b)\n      KECCAK256 \t\t\tkeccak256(b)\n      DUP4 \t\t\ta\n      DUP1 \t\t\tkeccak256(a)\n      MLOAD \t\t\tkeccak256(a)\n      SWAP1 \t\t\tkeccak256(a)\n      PUSH 20\t\t\tkeccak256(a)\n      ADD \t\t\tkeccak256(a)\n      KECCAK256 \t\t\tkeccak256(a)\n      EQ \t\t\tkeccak256(a) == keccak256(b)\n    tag 347\t\t\t(a.length == b.length) && (kec...\n      JUMPDEST \t\t\t(a.length == b.length) && (kec...\n      SWAP1 \t\t\treturn (a.length == b.length) ...\n      POP \t\t\treturn (a.length == b.length) ...\n      SWAP3 \t\t\tfunction memcmp(\\n        byte...\n      SWAP2 \t\t\tfunction memcmp(\\n        byte...\n      POP \t\t\tfunction memcmp(\\n        byte...\n      POP \t\t\tfunction memcmp(\\n        byte...\n      JUMP \t\t\tfunction memcmp(\\n        byte...\n    tag 294\t\t\t\n      JUMPDEST \t\t\t\n      PUSH 0\t\t\t\n      PUSH FFFFFFFFFFFFFFFFFFFFFFFFFFFFFFFFFFFFFFFF\t\t\t\n      AND \t\t\t\n      DUP5 \t\t\t\n      PUSH FFFFFFFFFFFFFFFFFFFFFFFFFFFFFFFFFFFFFFFF\t\t\t\n      AND \t\t\t\n      SUB \t\t\t\n      PUSH [tag] 349\t\t\t\n      JUMPI \t\t\t\n      PUSH 40\t\t\t\n      MLOAD \t\t\t\n      PUSH 8C379A000000000000000000000000000000000000000000000000000000000\t\t\t\n      DUP2 \t\t\t\n      MSTORE \t\t\t\n      PUSH 4\t\t\t\n      ADD \t\t\t\n      PUSH [tag] 350\t\t\t\n      SWAP1 \t\t\t\n      PUSH [tag] 313\t\t\t\n      JUMP \t\t\t\n    tag 350\t\t\t\n      JUMPDEST \t\t\t\n      PUSH 40\t\t\t\n      MLOAD \t\t\t\n      DUP1 \t\t\t\n      SWAP2 \t\t\t\n      SUB \t\t\t\n      SWAP1 \t\t\t\n      REVERT \t\t\t\n    tag 349\t\t\t\n      JUMPDEST \t\t\t\n      PUSH 0\t\t\t\n      PUSH [tag] 351\t\t\t\n      PUSH [tag] 161\t\t\t\n      JUMP \t\t\t\n    tag 351\t\t\t\n      JUMPDEST \t\t\t\n      SWAP1 \t\t\t\n      POP \t\t\t\n      PUSH [tag] 352\t\t\t\n      DUP2 \t\t\t\n      DUP8 \t\t\t\n      DUP8 \t\t\t\n      PUSH [tag] 353\t\t\t\n      DUP9 \t\t\t\n      PUSH [tag] 339\t\t\t\n      JUMP \t\t\t\n    tag 353\t\t\t\n      JUMPDEST \t\t\t\n      PUSH [tag] 354\t\t\t\n      DUP9 \t\t\t\n      PUSH [tag] 339\t\t\t\n      JUMP \t\t\t\n    tag 354\t\t\t\n      JUMPDEST \t\t\t\n      DUP8 \t\t\t\n      PUSH [tag] 316\t\t\t\n      JUMP \t\t\t\n    tag 352\t\t\t\n      JUMPDEST \t\t\t\n      PUSH 0\t\t\t\n      DUP1 \t\t\t\n      PUSH 0\t\t\t\n      DUP7 \t\t\t\n      DUP2 \t\t\t\n      MSTORE \t\t\t\n      PUSH 20\t\t\t\n      ADD \t\t\t\n      SWAP1 \t\t\t\n      DUP2 \t\t\t\n      MSTORE \t\t\t\n      PUSH 20\t\t\t\n      ADD \t\t\t\n      PUSH 0\t\t\t\n      KECCAK256 \t\t\t\n      PUSH 0\t\t\t\n      DUP9 \t\t\t\n      PUSH FFFFFFFFFFFFFFFFFFFFFFFFFFFFFFFFFFFFFFFF\t\t\t\n      AND \t\t\t\n      PUSH FFFFFFFFFFFFFFFFFFFFFFFFFFFFFFFFFFFFFFFF\t\t\t\n      AND \t\t\t\n      DUP2 \t\t\t\n      MSTORE \t\t\t\n      PUSH 20\t\t\t\n      ADD \t\t\t\n      SWAP1 \t\t\t\n      DUP2 \t\t\t\n      MSTORE \t\t\t\n      PUSH 20\t\t\t\n      ADD \t\t\t\n      PUSH 0\t\t\t\n      KECCAK256 \t\t\t\n      SLOAD \t\t\t\n      SWAP1 \t\t\t\n      POP \t\t\t\n      DUP4 \t\t\t\n      DUP2 \t\t\t\n      LT \t\t\t\n      ISZERO \t\t\t\n      PUSH [tag] 355\t\t\t\n      JUMPI \t\t\t\n      PUSH 40\t\t\t\n      MLOAD \t\t\t\n      PUSH 8C379A000000000000000000000000000000000000000000000000000000000\t\t\t\n      DUP2 \t\t\t\n      MSTORE \t\t\t\n      PUSH 4\t\t\t\n      ADD \t\t\t\n      PUSH [tag] 356\t\t\t\n      SWAP1 \t\t\t\n      PUSH [tag] 326\t\t\t\n      JUMP \t\t\t\n    tag 356\t\t\t\n      JUMPDEST \t\t\t\n      PUSH 40\t\t\t\n      MLOAD \t\t\t\n      DUP1 \t\t\t\n      SWAP2 \t\t\t\n      SUB \t\t\t\n      SWAP1 \t\t\t\n      REVERT \t\t\t\n    tag 355\t\t\t\n      JUMPDEST \t\t\t\n      DUP4 \t\t\t\n      DUP2 \t\t\t\n      SUB \t\t\t\n      PUSH 0\t\t\t\n      DUP1 \t\t\t\n      DUP8 \t\t\t\n      DUP2 \t\t\t\n      MSTORE \t\t\t\n      PUSH 20\t\t\t\n      ADD \t\t\t\n      SWAP1 \t\t\t\n      DUP2 \t\t\t\n      MSTORE \t\t\t\n      PUSH 20\t\t\t\n      ADD \t\t\t\n      PUSH 0\t\t\t\n      KECCAK256 \t\t\t\n      PUSH 0\t\t\t\n      DUP10 \t\t\t\n      PUSH FFFFFFFFFFFFFFFFFFFFFFFFFFFFFFFFFFFFFFFF\t\t\t\n      AND \t\t\t\n      PUSH FFFFFFFFFFFFFFFFFFFFFFFFFFFFFFFFFFFFFFFF\t\t\t\n      AND \t\t\t\n      DUP2 \t\t\t\n      MSTORE \t\t\t\n      PUSH 20\t\t\t\n      ADD \t\t\t\n      SWAP1 \t\t\t\n      DUP2 \t\t\t\n      MSTORE \t\t\t\n      PUSH 20\t\t\t\n      ADD \t\t\t\n      PUSH 0\t\t\t\n      KECCAK256 \t\t\t\n      DUP2 \t\t\t\n      SWAP1 \t\t\t\n      SSTORE \t\t\t\n      POP \t\t\t\n      DUP4 \t\t\t\n      PUSH 0\t\t\t\n      DUP1 \t\t\t\n      DUP8 \t\t\t\n      DUP2 \t\t\t\n      MSTORE \t\t\t\n      PUSH 20\t\t\t\n      ADD \t\t\t\n      SWAP1 \t\t\t\n      DUP2 \t\t\t\n      MSTORE \t\t\t\n      PUSH 20\t\t\t\n      ADD \t\t\t\n      PUSH 0\t\t\t\n      KECCAK256 \t\t\t\n      PUSH 0\t\t\t\n      DUP9 \t\t\t\n      PUSH FFFFFFFFFFFFFFFFFFFFFFFFFFFFFFFFFFFFFFFF\t\t\t\n      AND \t\t\t\n      PUSH FFFFFFFFFFFFFFFFFFFFFFFFFFFFFFFFFFFFFFFF\t\t\t\n      AND \t\t\t\n      DUP2 \t\t\t\n      MSTORE \t\t\t\n      PUSH 20\t\t\t\n      ADD \t\t\t\n      SWAP1 \t\t\t\n      DUP2 \t\t\t\n      MSTORE \t\t\t\n      PUSH 20\t\t\t\n      ADD \t\t\t\n      PUSH 0\t\t\t\n      KECCAK256 \t\t\t\n      PUSH 0\t\t\t\n      DUP3 \t\t\t\n      DUP3 \t\t\t\n      SLOAD \t\t\t\n      PUSH [tag] 357\t\t\t\n      SWAP2 \t\t\t\n      SWAP1 \t\t\t\n      PUSH [tag] 232\t\t\t\n      JUMP \t\t\t\n    tag 357\t\t\t\n      JUMPDEST \t\t\t\n      SWAP3 \t\t\t\n      POP \t\t\t\n      POP \t\t\t\n      DUP2 \t\t\t\n      SWAP1 \t\t\t\n      SSTORE \t\t\t\n      POP \t\t\t\n      DUP6 \t\t\t\n      PUSH FFFFFFFFFFFFFFFFFFFFFFFFFFFFFFFFFFFFFFFF\t\t\t\n      AND \t\t\t\n      DUP8 \t\t\t\n      PUSH FFFFFFFFFFFFFFFFFFFFFFFFFFFFFFFFFFFFFFFF\t\t\t\n      AND \t\t\t\n      DUP4 \t\t\t\n      PUSH FFFFFFFFFFFFFFFFFFFFFFFFFFFFFFFFFFFFFFFF\t\t\t\n      AND \t\t\t\n      PUSH C3D58168C5AE7397731D063D5BBF3D657854427343F4C083240F7AACAA2D0F62\t\t\t\n      DUP9 \t\t\t\n      DUP9 \t\t\t\n      PUSH 40\t\t\t\n      MLOAD \t\t\t\n      PUSH [tag] 358\t\t\t\n      SWAP3 \t\t\t\n      SWAP2 \t\t\t\n      SWAP1 \t\t\t\n      PUSH [tag] 158\t\t\t\n      JUMP \t\t\t\n    tag 358\t\t\t\n      JUMPDEST \t\t\t\n      PUSH 40\t\t\t\n      MLOAD \t\t\t\n      DUP1 \t\t\t\n      SWAP2 \t\t\t\n      SUB \t\t\t\n      SWAP1 \t\t\t\n      LOG4 \t\t\t\n      PUSH [tag] 359\t\t\t\n      DUP3 \t\t\t\n      DUP9 \t\t\t\n      DUP9 \t\t\t\n      DUP9 \t\t\t\n      DUP9 \t\t\t\n      DUP9 \t\t\t\n      PUSH [tag] 344\t\t\t\n      JUMP \t\t\t\n    tag 359\t\t\t\n      JUMPDEST \t\t\t\n      POP \t\t\t\n      POP \t\t\t\n      POP \t\t\t\n      POP \t\t\t\n      POP \t\t\t\n      POP \t\t\t\n      POP \t\t\t\n      JUMP \t\t\t\n    tag 316\t\t\t\n      JUMPDEST \t\t\t\n      POP \t\t\t\n      POP \t\t\t\n      POP \t\t\t\n      POP \t\t\t\n      POP \t\t\t\n      POP \t\t\t\n      JUMP \t\t\t\n    tag 331\t\t\t\n      JUMPDEST \t\t\t\n      PUSH [tag] 362\t\t\t\n      DUP5 \t\t\t\n      PUSH FFFFFFFFFFFFFFFFFFFFFFFFFFFFFFFFFFFFFFFF\t\t\t\n      AND \t\t\t\n      PUSH [tag] 363\t\t\t\n      JUMP \t\t\t\n    tag 362\t\t\t\n      JUMPDEST \t\t\t\n      ISZERO \t\t\t\n      PUSH [tag] 364\t\t\t\n      JUMPI \t\t\t\n      DUP4 \t\t\t\n      PUSH FFFFFFFFFFFFFFFFFFFFFFFFFFFFFFFFFFFFFFFF\t\t\t\n      AND \t\t\t\n      PUSH BC197C81\t\t\t\n      DUP8 \t\t\t\n      DUP8 \t\t\t\n      DUP7 \t\t\t\n      DUP7 \t\t\t\n      DUP7 \t\t\t\n      PUSH 40\t\t\t\n      MLOAD \t\t\t\n      DUP7 \t\t\t\n      PUSH FFFFFFFF\t\t\t\n      AND \t\t\t\n      PUSH E0\t\t\t\n      SHL \t\t\t\n      DUP2 \t\t\t\n      MSTORE \t\t\t\n      PUSH 4\t\t\t\n      ADD \t\t\t\n      PUSH [tag] 365\t\t\t\n      SWAP6 \t\t\t\n      SWAP5 \t\t\t\n      SWAP4 \t\t\t\n      SWAP3 \t\t\t\n      SWAP2 \t\t\t\n      SWAP1 \t\t\t\n      PUSH [tag] 366\t\t\t\n      JUMP \t\t\t\n    tag 365\t\t\t\n      JUMPDEST \t\t\t\n      PUSH 20\t\t\t\n      PUSH 40\t\t\t\n      MLOAD \t\t\t\n      DUP1 \t\t\t\n      DUP4 \t\t\t\n      SUB \t\t\t\n      DUP2 \t\t\t\n      PUSH 0\t\t\t\n      DUP8 \t\t\t\n      GAS \t\t\t\n      CALL \t\t\t\n      SWAP3 \t\t\t\n      POP \t\t\t\n      POP \t\t\t\n      POP \t\t\t\n      DUP1 \t\t\t\n      ISZERO \t\t\t\n      PUSH [tag] 367\t\t\t\n      JUMPI \t\t\t\n      POP \t\t\t\n      PUSH 40\t\t\t\n      MLOAD \t\t\t\n      RETURNDATASIZE \t\t\t\n      PUSH 1F\t\t\t\n      NOT \t\t\t\n      PUSH 1F\t\t\t\n      DUP3 \t\t\t\n      ADD \t\t\t\n      AND \t\t\t\n      DUP3 \t\t\t\n      ADD \t\t\t\n      DUP1 \t\t\t\n      PUSH 40\t\t\t\n      MSTORE \t\t\t\n      POP \t\t\t\n      DUP2 \t\t\t\n      ADD \t\t\t\n      SWAP1 \t\t\t\n      PUSH [tag] 368\t\t\t\n      SWAP2 \t\t\t\n      SWAP1 \t\t\t\n      PUSH [tag] 369\t\t\t\n      JUMP \t\t\t\n    tag 368\t\t\t\n      JUMPDEST \t\t\t\n      PUSH 1\t\t\t\n    tag 367\t\t\t\n      JUMPDEST \t\t\t\n      PUSH [tag] 370\t\t\t\n      JUMPI \t\t\t\n      PUSH [tag] 374\t\t\t\n      PUSH [tag] 375\t\t\t\n      JUMP \t\t\t\n    tag 374\t\t\t\n      JUMPDEST \t\t\t\n      DUP1 \t\t\t\n      PUSH 8C379A0\t\t\t\n      SUB \t\t\t\n      PUSH [tag] 373\t\t\t\n      JUMPI \t\t\t\n      POP \t\t\t\n      PUSH [tag] 376\t\t\t\n      PUSH [tag] 377\t\t\t\n      JUMP \t\t\t\n    tag 376\t\t\t\n      JUMPDEST \t\t\t\n      DUP1 \t\t\t\n      PUSH [tag] 378\t\t\t\n      JUMPI \t\t\t\n      POP \t\t\t\n      PUSH [tag] 372\t\t\t\n      JUMP \t\t\t\n    tag 378\t\t\t\n      JUMPDEST \t\t\t\n      DUP1 \t\t\t\n      PUSH 40\t\t\t\n      MLOAD \t\t\t\n      PUSH 8C379A000000000000000000000000000000000000000000000000000000000\t\t\t\n      DUP2 \t\t\t\n      MSTORE \t\t\t\n      PUSH 4\t\t\t\n      ADD \t\t\t\n      PUSH [tag] 379\t\t\t\n      SWAP2 \t\t\t\n      SWAP1 \t\t\t\n      PUSH [tag] 45\t\t\t\n      JUMP \t\t\t\n    tag 379\t\t\t\n      JUMPDEST \t\t\t\n      PUSH 40\t\t\t\n      MLOAD \t\t\t\n      DUP1 \t\t\t\n      SWAP2 \t\t\t\n      SUB \t\t\t\n      SWAP1 \t\t\t\n      REVERT \t\t\t\n    tag 373\t\t\t\n      JUMPDEST \t\t\t\n      POP \t\t\t\n    tag 372\t\t\t\n      JUMPDEST \t\t\t\n      PUSH 40\t\t\t\n      MLOAD \t\t\t\n      PUSH 8C379A000000000000000000000000000000000000000000000000000000000\t\t\t\n      DUP2 \t\t\t\n      MSTORE \t\t\t\n      PUSH 4\t\t\t\n      ADD \t\t\t\n      PUSH [tag] 380\t\t\t\n      SWAP1 \t\t\t\n      PUSH [tag] 381\t\t\t\n      JUMP \t\t\t\n    tag 380\t\t\t\n      JUMPDEST \t\t\t\n      PUSH 40\t\t\t\n      MLOAD \t\t\t\n      DUP1 \t\t\t\n      SWAP2 \t\t\t\n      SUB \t\t\t\n      SWAP1 \t\t\t\n      REVERT \t\t\t\n    tag 370\t\t\t\n      JUMPDEST \t\t\t\n      PUSH BC197C81\t\t\t\n      PUSH E0\t\t\t\n      SHL \t\t\t\n      PUSH FFFFFFFFFFFFFFFFFFFFFFFFFFFFFFFFFFFFFFFFFFFFFFFFFFFFFFFF\t\t\t\n      NOT \t\t\t\n      AND \t\t\t\n      DUP2 \t\t\t\n      PUSH FFFFFFFFFFFFFFFFFFFFFFFFFFFFFFFFFFFFFFFFFFFFFFFFFFFFFFFF\t\t\t\n      NOT \t\t\t\n      AND \t\t\t\n      EQ \t\t\t\n      PUSH [tag] 383\t\t\t\n      JUMPI \t\t\t\n      PUSH 40\t\t\t\n      MLOAD \t\t\t\n      PUSH 8C379A000000000000000000000000000000000000000000000000000000000\t\t\t\n      DUP2 \t\t\t\n      MSTORE \t\t\t\n      PUSH 4\t\t\t\n      ADD \t\t\t\n      PUSH [tag] 384\t\t\t\n      SWAP1 \t\t\t\n      PUSH [tag] 385\t\t\t\n      JUMP \t\t\t\n    tag 384\t\t\t\n      JUMPDEST \t\t\t\n      PUSH 40\t\t\t\n      MLOAD \t\t\t\n      DUP1 \t\t\t\n      SWAP2 \t\t\t\n      SUB \t\t\t\n      SWAP1 \t\t\t\n      REVERT \t\t\t\n    tag 383\t\t\t\n      JUMPDEST \t\t\t\n      POP \t\t\t\n    tag 364\t\t\t\n      JUMPDEST \t\t\t\n      POP \t\t\t\n      POP \t\t\t\n      POP \t\t\t\n      POP \t\t\t\n      POP \t\t\t\n      POP \t\t\t\n      JUMP \t\t\t\n    tag 339\t\t\t\n      JUMPDEST \t\t\t\n      PUSH 60\t\t\t\n      PUSH 0\t\t\t\n      PUSH 1\t\t\t\n      PUSH FFFFFFFFFFFFFFFF\t\t\t\n      DUP2 \t\t\t\n      GT \t\t\t\n      ISZERO \t\t\t\n      PUSH [tag] 387\t\t\t\n      JUMPI \t\t\t\n      PUSH [tag] 388\t\t\t\n      PUSH [tag] 176\t\t\t\n      JUMP \t\t\t\n    tag 388\t\t\t\n      JUMPDEST \t\t\t\n    tag 387\t\t\t\n      JUMPDEST \t\t\t\n      PUSH 40\t\t\t\n      MLOAD \t\t\t\n      SWAP1 \t\t\t\n      DUP1 \t\t\t\n      DUP3 \t\t\t\n      MSTORE \t\t\t\n      DUP1 \t\t\t\n      PUSH 20\t\t\t\n      MUL \t\t\t\n      PUSH 20\t\t\t\n      ADD \t\t\t\n      DUP3 \t\t\t\n      ADD \t\t\t\n      PUSH 40\t\t\t\n      MSTORE \t\t\t\n      DUP1 \t\t\t\n      ISZERO \t\t\t\n      PUSH [tag] 389\t\t\t\n      JUMPI \t\t\t\n      DUP2 \t\t\t\n      PUSH 20\t\t\t\n      ADD \t\t\t\n      PUSH 20\t\t\t\n      DUP3 \t\t\t\n      MUL \t\t\t\n      DUP1 \t\t\t\n      CALLDATASIZE \t\t\t\n      DUP4 \t\t\t\n      CALLDATACOPY \t\t\t\n      DUP1 \t\t\t\n      DUP3 \t\t\t\n      ADD \t\t\t\n      SWAP2 \t\t\t\n      POP \t\t\t\n      POP \t\t\t\n      SWAP1 \t\t\t\n      POP \t\t\t\n    tag 389\t\t\t\n      JUMPDEST \t\t\t\n      POP \t\t\t\n      SWAP1 \t\t\t\n      POP \t\t\t\n      DUP3 \t\t\t\n      DUP2 \t\t\t\n      PUSH 0\t\t\t\n      DUP2 \t\t\t\n      MLOAD \t\t\t\n      DUP2 \t\t\t\n      LT \t\t\t\n      PUSH [tag] 390\t\t\t\n      JUMPI \t\t\t\n      PUSH [tag] 391\t\t\t\n      PUSH [tag] 184\t\t\t\n      JUMP \t\t\t\n    tag 391\t\t\t\n      JUMPDEST \t\t\t\n    tag 390\t\t\t\n      JUMPDEST \t\t\t\n      PUSH 20\t\t\t\n      MUL \t\t\t\n      PUSH 20\t\t\t\n      ADD \t\t\t\n      ADD \t\t\t\n      DUP2 \t\t\t\n      DUP2 \t\t\t\n      MSTORE \t\t\t\n      POP \t\t\t\n      POP \t\t\t\n      DUP1 \t\t\t\n      SWAP2 \t\t\t\n      POP \t\t\t\n      POP \t\t\t\n      SWAP2 \t\t\t\n      SWAP1 \t\t\t\n      POP \t\t\t\n      JUMP \t\t\t\n    tag 344\t\t\t\n      JUMPDEST \t\t\t\n      PUSH [tag] 393\t\t\t\n      DUP5 \t\t\t\n      PUSH FFFFFFFFFFFFFFFFFFFFFFFFFFFFFFFFFFFFFFFF\t\t\t\n      AND \t\t\t\n      PUSH [tag] 363\t\t\t\n      JUMP \t\t\t\n    tag 393\t\t\t\n      JUMPDEST \t\t\t\n      ISZERO \t\t\t\n      PUSH [tag] 394\t\t\t\n      JUMPI \t\t\t\n      DUP4 \t\t\t\n      PUSH FFFFFFFFFFFFFFFFFFFFFFFFFFFFFFFFFFFFFFFF\t\t\t\n      AND \t\t\t\n      PUSH F23A6E61\t\t\t\n      DUP8 \t\t\t\n      DUP8 \t\t\t\n      DUP7 \t\t\t\n      DUP7 \t\t\t\n      DUP7 \t\t\t\n      PUSH 40\t\t\t\n      MLOAD \t\t\t\n      DUP7 \t\t\t\n      PUSH FFFFFFFF\t\t\t\n      AND \t\t\t\n      PUSH E0\t\t\t\n      SHL \t\t\t\n      DUP2 \t\t\t\n      MSTORE \t\t\t\n      PUSH 4\t\t\t\n      ADD \t\t\t\n      PUSH [tag] 395\t\t\t\n      SWAP6 \t\t\t\n      SWAP5 \t\t\t\n      SWAP4 \t\t\t\n      SWAP3 \t\t\t\n      SWAP2 \t\t\t\n      SWAP1 \t\t\t\n      PUSH [tag] 396\t\t\t\n      JUMP \t\t\t\n    tag 395\t\t\t\n      JUMPDEST \t\t\t\n      PUSH 20\t\t\t\n      PUSH 40\t\t\t\n      MLOAD \t\t\t\n      DUP1 \t\t\t\n      DUP4 \t\t\t\n      SUB \t\t\t\n      DUP2 \t\t\t\n      PUSH 0\t\t\t\n      DUP8 \t\t\t\n      GAS \t\t\t\n      CALL \t\t\t\n      SWAP3 \t\t\t\n      POP \t\t\t\n      POP \t\t\t\n      POP \t\t\t\n      DUP1 \t\t\t\n      ISZERO \t\t\t\n      PUSH [tag] 397\t\t\t\n      JUMPI \t\t\t\n      POP \t\t\t\n      PUSH 40\t\t\t\n      MLOAD \t\t\t\n      RETURNDATASIZE \t\t\t\n      PUSH 1F\t\t\t\n      NOT \t\t\t\n      PUSH 1F\t\t\t\n      DUP3 \t\t\t\n      ADD \t\t\t\n      AND \t\t\t\n      DUP3 \t\t\t\n      ADD \t\t\t\n      DUP1 \t\t\t\n      PUSH 40\t\t\t\n      MSTORE \t\t\t\n      POP \t\t\t\n      DUP2 \t\t\t\n      ADD \t\t\t\n      SWAP1 \t\t\t\n      PUSH [tag] 398\t\t\t\n      SWAP2 \t\t\t\n      SWAP1 \t\t\t\n      PUSH [tag] 369\t\t\t\n      JUMP \t\t\t\n    tag 398\t\t\t\n      JUMPDEST \t\t\t\n      PUSH 1\t\t\t\n    tag 397\t\t\t\n      JUMPDEST \t\t\t\n      PUSH [tag] 399\t\t\t\n      JUMPI \t\t\t\n      PUSH [tag] 403\t\t\t\n      PUSH [tag] 375\t\t\t\n      JUMP \t\t\t\n    tag 403\t\t\t\n      JUMPDEST \t\t\t\n      DUP1 \t\t\t\n      PUSH 8C379A0\t\t\t\n      SUB \t\t\t\n      PUSH [tag] 402\t\t\t\n      JUMPI \t\t\t\n      POP \t\t\t\n      PUSH [tag] 404\t\t\t\n      PUSH [tag] 377\t\t\t\n      JUMP \t\t\t\n    tag 404\t\t\t\n      JUMPDEST \t\t\t\n      DUP1 \t\t\t\n      PUSH [tag] 405\t\t\t\n      JUMPI \t\t\t\n      POP \t\t\t\n      PUSH [tag] 401\t\t\t\n      JUMP \t\t\t\n    tag 405\t\t\t\n      JUMPDEST \t\t\t\n      DUP1 \t\t\t\n      PUSH 40\t\t\t\n      MLOAD \t\t\t\n      PUSH 8C379A000000000000000000000000000000000000000000000000000000000\t\t\t\n      DUP2 \t\t\t\n      MSTORE \t\t\t\n      PUSH 4\t\t\t\n      ADD \t\t\t\n      PUSH [tag] 406\t\t\t\n      SWAP2 \t\t\t\n      SWAP1 \t\t\t\n      PUSH [tag] 45\t\t\t\n      JUMP \t\t\t\n    tag 406\t\t\t\n      JUMPDEST \t\t\t\n      PUSH 40\t\t\t\n      MLOAD \t\t\t\n      DUP1 \t\t\t\n      SWAP2 \t\t\t\n      SUB \t\t\t\n      SWAP1 \t\t\t\n      REVERT \t\t\t\n    tag 402\t\t\t\n      JUMPDEST \t\t\t\n      POP \t\t\t\n    tag 401\t\t\t\n      JUMPDEST \t\t\t\n      PUSH 40\t\t\t\n      MLOAD \t\t\t\n      PUSH 8C379A000000000000000000000000000000000000000000000000000000000\t\t\t\n      DUP2 \t\t\t\n      MSTORE \t\t\t\n      PUSH 4\t\t\t\n      ADD \t\t\t\n      PUSH [tag] 407\t\t\t\n      SWAP1 \t\t\t\n      PUSH [tag] 381\t\t\t\n      JUMP \t\t\t\n    tag 407\t\t\t\n      JUMPDEST \t\t\t\n      PUSH 40\t\t\t\n      MLOAD \t\t\t\n      DUP1 \t\t\t\n      SWAP2 \t\t\t\n      SUB \t\t\t\n      SWAP1 \t\t\t\n      REVERT \t\t\t\n    tag 399\t\t\t\n      JUMPDEST \t\t\t\n      PUSH F23A6E61\t\t\t\n      PUSH E0\t\t\t\n      SHL \t\t\t\n      PUSH FFFFFFFFFFFFFFFFFFFFFFFFFFFFFFFFFFFFFFFFFFFFFFFFFFFFFFFF\t\t\t\n      NOT \t\t\t\n      AND \t\t\t\n      DUP2 \t\t\t\n      PUSH FFFFFFFFFFFFFFFFFFFFFFFFFFFFFFFFFFFFFFFFFFFFFFFFFFFFFFFF\t\t\t\n      NOT \t\t\t\n      AND \t\t\t\n      EQ \t\t\t\n      PUSH [tag] 409\t\t\t\n      JUMPI \t\t\t\n      PUSH 40\t\t\t\n      MLOAD \t\t\t\n      PUSH 8C379A000000000000000000000000000000000000000000000000000000000\t\t\t\n      DUP2 \t\t\t\n      MSTORE \t\t\t\n      PUSH 4\t\t\t\n      ADD \t\t\t\n      PUSH [tag] 410\t\t\t\n      SWAP1 \t\t\t\n      PUSH [tag] 385\t\t\t\n      JUMP \t\t\t\n    tag 410\t\t\t\n      JUMPDEST \t\t\t\n      PUSH 40\t\t\t\n      MLOAD \t\t\t\n      DUP1 \t\t\t\n      SWAP2 \t\t\t\n      SUB \t\t\t\n      SWAP1 \t\t\t\n      REVERT \t\t\t\n    tag 409\t\t\t\n      JUMPDEST \t\t\t\n      POP \t\t\t\n    tag 394\t\t\t\n      JUMPDEST \t\t\t\n      POP \t\t\t\n      POP \t\t\t\n      POP \t\t\t\n      POP \t\t\t\n      POP \t\t\t\n      POP \t\t\t\n      JUMP \t\t\t\n    tag 363\t\t\t    );\\n\\n    struct Music {\\n...\n      JUMPDEST \t\t\t    );\\n\\n    struct Music {\\n...\n      PUSH 0\t\t\tstri\n      DUP1 \t\t\tvate musics;\n      DUP3 \t\t\tERC1155\n      EXTCODESIZE \t\t\t_ipfs\\n    ) ERC1155(\n      SWAP1 \t\t\t memory _ipfs\\n    ) ERC1155(\n      POP \t\t\t memory _ipfs\\n    ) ERC1155(\n      PUSH 0\t\t\t \n      DUP2 \t\t\tFS_P\n      GT \t\t\tFS_PATH \n      SWAP2 \t\t\t     IPFS_PATH \n      POP \t\t\t     IPFS_PATH \n      POP \t\t\t     IPFS_PATH \n      SWAP2 \t\t\t    );\\n\\n    struct Music {\\n...\n      SWAP1 \t\t\t    );\\n\\n    struct Music {\\n...\n      POP \t\t\t    );\\n\\n    struct Music {\\n...\n      JUMP \t\t\t    );\\n\\n    struct Music {\\n...\n    tag 235\t\t\t\n      JUMPDEST \t\t\t\n      PUSH 40\t\t\t\n      MLOAD \t\t\t\n      DUP1 \t\t\t\n      PUSH A0\t\t\t\n      ADD \t\t\t\n      PUSH 40\t\t\t\n      MSTORE \t\t\t\n      DUP1 \t\t\t\n      PUSH 0\t\t\t\n      DUP2 \t\t\t\n      MSTORE \t\t\t\n      PUSH 20\t\t\t\n      ADD \t\t\t\n      PUSH 60\t\t\t\n      DUP2 \t\t\t\n      MSTORE \t\t\t\n      PUSH 20\t\t\t\n      ADD \t\t\t\n      PUSH 0\t\t\t\n      DUP2 \t\t\t\n      MSTORE \t\t\t\n      PUSH 20\t\t\t\n      ADD \t\t\t\n      PUSH 0\t\t\t\n      DUP2 \t\t\t\n      MSTORE \t\t\t\n      PUSH 20\t\t\t\n      ADD \t\t\t\n      PUSH 0\t\t\t\n      PUSH FFFFFFFFFFFFFFFFFFFFFFFFFFFFFFFFFFFFFFFF\t\t\t\n      AND \t\t\t\n      DUP2 \t\t\t\n      MSTORE \t\t\t\n      POP \t\t\t\n      SWAP1 \t\t\t\n      JUMP \t\t\t\n    tag 412\t\t\t-License-Identifier: MIT\\nprag...\n      JUMPDEST \t\t\t-License-Identifier: MIT\\nprag...\n      PUSH 0\t\t\tolidit\n      PUSH 40\t\t\tpe\n      MLOAD \t\t\tpenzeppel\n      SWAP1 \t\t\timport \"@openzeppel\n      POP \t\t\timport \"@openzeppel\n      SWAP1 \t\t\t-License-Identifier: MIT\\nprag...\n      JUMP \t\t\t-License-Identifier: MIT\\nprag...\n    tag 413\t\t\t@4.2.0/token/ERC1155/ERC1155.s...\n      JUMPDEST \t\t\t@4.2.0/token/ERC1155/ERC1155.s...\n      PUSH 0\t\t\tp\n      DUP1 \t\t\tz\n      REVERT \t\t\t \"@openzeppe\n    tag 414\t\t\ts@4.2.0/access/Ownable.sol\";\\n...\n      JUMPDEST \t\t\ts@4.2.0/access/Ownable.sol\";\\n...\n      PUSH 0\t\t\t\\n\n      DUP1 \t\t\t\"\n      REVERT \t\t\tver.sol\";\\n\\nc\n    tag 415\t\t\tcTuneVibe is ERC1155, Ownable{...\n      JUMPDEST \t\t\tcTuneVibe is ERC1155, Ownable{...\n      PUSH 0\t\t\ttring[]\n      PUSH FFFFFFFFFFFFFFFFFFFFFFFFFFFFFFFFFFFFFFFF\t\t\tATH;\\n    address private _own...\n      DUP3 \t\t\t IPFS\n      AND \t\t\tring IPFS_PATH;\\n    address p...\n      SWAP1 \t\t\tens;\\n    string IPFS_PATH;\\n ...\n      POP \t\t\tens;\\n    string IPFS_PATH;\\n ...\n      SWAP2 \t\t\tcTuneVibe is ERC1155, Ownable{...\n      SWAP1 \t\t\tcTuneVibe is ERC1155, Ownable{...\n      POP \t\t\tcTuneVibe is ERC1155, Ownable{...\n      JUMP \t\t\tcTuneVibe is ERC1155, Ownable{...\n    tag 416\t\t\t= 0 ether;\\n\\n    mapping(stri...\n      JUMPDEST \t\t\t= 0 ether;\\n\\n    mapping(stri...\n      PUSH 0\t\t\tl) _tok\n      PUSH [tag] 535\t\t\tithdrawal(uint amount, u\n      DUP3 \t\t\tunt, \n      PUSH [tag] 415\t\t\tithdrawal(uint amount, u\n      JUMP \t\t\tithdrawal(uint amount, u\n    tag 535\t\t\tithdrawal(uint amount, u\n      JUMPDEST \t\t\tithdrawal(uint amount, u\n      SWAP1 \t\t\t    event Withdrawal(uint amou...\n      POP \t\t\t    event Withdrawal(uint amou...\n      SWAP2 \t\t\t= 0 ether;\\n\\n    mapping(stri...\n      SWAP1 \t\t\t= 0 ether;\\n\\n    mapping(stri...\n      POP \t\t\t= 0 ether;\\n\\n    mapping(stri...\n      JUMP \t\t\t= 0 ether;\\n\\n    mapping(stri...\n    tag 417\t\t\t    event MusicNFTCreated(\\n  ...\n      JUMPDEST \t\t\t    event MusicNFTCreated(\\n  ...\n      PUSH [tag] 537\t\t\tg uri,\\n        uint256 a\n      DUP2 \t\t\tt256 \n      PUSH [tag] 416\t\t\tg uri,\\n        uint256 a\n      JUMP \t\t\tg uri,\\n        uint256 a\n    tag 537\t\t\tg uri,\\n        uint256 a\n      JUMPDEST \t\t\tg uri,\\n        uint256 a\n      DUP2 \t\t\t  str\n      EQ \t\t\t     string uri,\\n        uint...\n      PUSH [tag] 538\t\t\tkenId,\\n        string uri,\\n ...\n      JUMPI \t\t\tkenId,\\n        string uri,\\n ...\n      PUSH 0\t\t\tu\n      DUP1 \t\t\t \n      REVERT \t\t\t,\\n        ui\n    tag 538\t\t\tkenId,\\n        string uri,\\n ...\n      JUMPDEST \t\t\tkenId,\\n        string uri,\\n ...\n      POP \t\t\t    event MusicNFTCreated(\\n  ...\n      JUMP \t\t\t    event MusicNFTCreated(\\n  ...\n    tag 418\t\t\t       address artirt\\n    );\\...\n      JUMPDEST \t\t\t       address artirt\\n    );\\...\n      PUSH 0\t\t\t {\\n  \n      DUP2 \t\t\tring u\n      CALLDATALOAD \t\t\td;\\n        string ur\n      SWAP1 \t\t\t56 tokenId;\\n        string ur\n      POP \t\t\t56 tokenId;\\n        string ur\n      PUSH [tag] 540\t\t\t  uint256 amount;\\n        uin...\n      DUP2 \t\t\tint25\n      PUSH [tag] 417\t\t\t  uint256 amount;\\n        uin...\n      JUMP \t\t\t  uint256 amount;\\n        uin...\n    tag 540\t\t\t  uint256 amount;\\n        uin...\n      JUMPDEST \t\t\t  uint256 amount;\\n        uin...\n      SWAP3 \t\t\t       address artirt\\n    );\\...\n      SWAP2 \t\t\t       address artirt\\n    );\\...\n      POP \t\t\t       address artirt\\n    );\\...\n      POP \t\t\t       address artirt\\n    );\\...\n      JUMP \t\t\t       address artirt\\n    );\\...\n    tag 419\t\t\t    address artirt;\\n    }\\n\\n...\n      JUMPDEST \t\t\t    address artirt;\\n    }\\n\\n...\n      PUSH 0\t\t\tBuyMusi\n      DUP2 \t\t\tokenI\n      SWAP1 \t\t\t6 indexed tokenI\n      POP \t\t\t6 indexed tokenI\n      SWAP2 \t\t\t    address artirt;\\n    }\\n\\n...\n      SWAP1 \t\t\t    address artirt;\\n    }\\n\\n...\n      POP \t\t\t    address artirt;\\n    }\\n\\n...\n      JUMP \t\t\t    address artirt;\\n    }\\n\\n...\n    tag 420\t\t\tmount, uint256 price);\\n\\n    ...\n      JUMPDEST \t\t\tmount, uint256 price);\\n\\n    ...\n      PUSH [tag] 543\t\t\t  constructor(\\n        s\n      DUP2 \t\t\t     \n      PUSH [tag] 419\t\t\t  constructor(\\n        s\n      JUMP \t\t\t  constructor(\\n        s\n    tag 543\t\t\t  constructor(\\n        s\n      JUMPDEST \t\t\t  constructor(\\n        s\n      DUP2 \t\t\tcs;\\n\\n\n      EQ \t\t\tusics;\\n\\n    constructor(\\n  ...\n      PUSH [tag] 544\t\t\t private musics;\\n\\n    constr...\n      JUMPI \t\t\t private musics;\\n\\n    constr...\n      PUSH 0\t\t\tp\n      DUP1 \t\t\t \n      REVERT \t\t\t memory _ipf\n    tag 544\t\t\t private musics;\\n\\n    constr...\n      JUMPDEST \t\t\t private musics;\\n\\n    constr...\n      POP \t\t\tmount, uint256 price);\\n\\n    ...\n      JUMP \t\t\tmount, uint256 price);\\n\\n    ...\n    tag 421\t\t\t5(\"\") Ownable() {\\n        IPF...\n      JUMPDEST \t\t\t5(\"\") Ownable() {\\n        IPF...\n      PUSH 0\t\t\t     \n      DUP2 \t\t\t funct\n      CALLDATALOAD \t\t\tr;\\n    }\\n\\n    functi\n      SWAP1 \t\t\tmsg.sender;\\n    }\\n\\n    func...\n      POP \t\t\tmsg.sender;\\n    }\\n\\n    func...\n      PUSH [tag] 546\t\t\tS(string memory _uri) public o...\n      DUP2 \t\t\tc onl\n      PUSH [tag] 420\t\t\tS(string memory _uri) public o...\n      JUMP \t\t\tS(string memory _uri) public o...\n    tag 546\t\t\tS(string memory _uri) public o...\n      JUMPDEST \t\t\tS(string memory _uri) public o...\n      SWAP3 \t\t\t5(\"\") Ownable() {\\n        IPF...\n      SWAP2 \t\t\t5(\"\") Ownable() {\\n        IPF...\n      POP \t\t\t5(\"\") Ownable() {\\n        IPF...\n      POP \t\t\t5(\"\") Ownable() {\\n        IPF...\n      JUMP \t\t\t5(\"\") Ownable() {\\n        IPF...\n    tag 28\t\t\t    IPFS_PATH = _uri;\\n    }\\n...\n      JUMPDEST \t\t\t    IPFS_PATH = _uri;\\n    }\\n...\n      PUSH 0\t\t\tc view\n      DUP1 \t\t\tverrid\n      PUSH 40\t\t\tir\n      DUP4 \t\t\t     // r\n      DUP6 \t\t\try) {\\n \n      SUB \t\t\tmemory) {\\n        // re\n      SLT \t\t\ting memory) {\\n        // requ...\n      ISZERO \t\t\tstring memory) {\\n        // r...\n      PUSH [tag] 548\t\t\tstring memory) {\\n        // r...\n      JUMPI \t\t\tstring memory) {\\n        // r...\n      PUSH [tag] 549\t\t\txists(tokenId), \"URI query for...\n      PUSH [tag] 413\t\t\txists(tokenId), \"URI query for...\n      JUMP \t\t\txists(tokenId), \"URI query for...\n    tag 549\t\t\txists(tokenId), \"URI query for...\n      JUMPDEST \t\t\txists(tokenId), \"URI query for...\n    tag 548\t\t\tstring memory) {\\n        // r...\n      JUMPDEST \t\t\tstring memory) {\\n        // r...\n      PUSH 0\t\t\ti\n      PUSH [tag] 550\t\t\tsafeMint(\\n        string memo...\n      DUP6 \t\t\t   uint\n      DUP3 \t\t\ten,\\n  \n      DUP7 \t\t\tmemory _t\n      ADD \t\t\ting memory _token,\\n   \n      PUSH [tag] 418\t\t\tsafeMint(\\n        string memo...\n      JUMP \t\t\tsafeMint(\\n        string memo...\n    tag 550\t\t\tsafeMint(\\n        string memo...\n      JUMPDEST \t\t\tsafeMint(\\n        string memo...\n      SWAP3 \t\t\t function safeMint(\\n        s...\n      POP \t\t\t function safeMint(\\n        s...\n      POP \t\t\tIPFS_PATH, musics[tokenId].uri...\n      PUSH 20\t\t\tay\n      PUSH [tag] 551\t\t\t_tokenExists[_token], \"The tok...\n      DUP6 \t\t\te uniqu\n      DUP3 \t\t\t shoul\n      DUP7 \t\t\te token U\n      ADD \t\t\t \"The token URI should\n      PUSH [tag] 421\t\t\t_tokenExists[_token], \"The tok...\n      JUMP \t\t\t_tokenExists[_token], \"The tok...\n    tag 551\t\t\t_tokenExists[_token], \"The tok...\n      JUMPDEST \t\t\t_tokenExists[_token], \"The tok...\n      SWAP2 \t\t\t require(!_tokenExists[_token]...\n      POP \t\t\t require(!_tokenExists[_token]...\n      POP \t\t\tuint256 _price\\n    ) public p...\n      SWAP3 \t\t\t    IPFS_PATH = _uri;\\n    }\\n...\n      POP \t\t\t    IPFS_PATH = _uri;\\n    }\\n...\n      SWAP3 \t\t\t    IPFS_PATH = _uri;\\n    }\\n...\n      SWAP1 \t\t\t    IPFS_PATH = _uri;\\n    }\\n...\n      POP \t\t\t    IPFS_PATH = _uri;\\n    }\\n...\n      JUMP \t\t\t    IPFS_PATH = _uri;\\n    }\\n...\n    tag 422\t\t\tice > 0, \"Price must be positi...\n      JUMPDEST \t\t\tice > 0, \"Price must be positi...\n      PUSH [tag] 553\t\t\tn money not allow\");\\n\\n  \n      DUP2 \t\t\t);\\n\\n \n      PUSH [tag] 419\t\t\tn money not allow\");\\n\\n  \n      JUMP \t\t\tn money not allow\");\\n\\n  \n    tag 553\t\t\tn money not allow\");\\n\\n  \n      JUMPDEST \t\t\tn money not allow\");\\n\\n  \n      DUP3 \t\t\trem\n      MSTORE \t\t\t \"Your remain money not allow\"...\n      POP \t\t\tice > 0, \"Price must be positi...\n      POP \t\t\tice > 0, \"Price must be positi...\n      JUMP \t\t\tice > 0, \"Price must be positi...\n    tag 31\t\t\t(address(0)).transfer(msg.valu...\n      JUMPDEST \t\t\t(address(0)).transfer(msg.valu...\n      PUSH 0\t\t\tleng\n      PUSH 20\t\t\tid\n      DUP3 \t\t\tss(this),\n      ADD \t\t\tddress(this), _id,\n      SWAP1 \t\t\t _mint(address(this), _id,\n      POP \t\t\t _mint(address(this), _id,\n      PUSH [tag] 555\t\t\t\"\");\\n        musics[_id] = Mu...\n      PUSH 0\t\t\te\n      DUP4 \t\t\trice, msg\n      ADD \t\t\t, _price, msg.sen\n      DUP5 \t\t\t, _amo\n      PUSH [tag] 422\t\t\t\"\");\\n        musics[_id] = Mu...\n      JUMP \t\t\t\"\");\\n        musics[_id] = Mu...\n    tag 555\t\t\t\"\");\\n        musics[_id] = Mu...\n      JUMPDEST \t\t\t\"\");\\n        musics[_id] = Mu...\n      SWAP3 \t\t\t(address(0)).transfer(msg.valu...\n      SWAP2 \t\t\t(address(0)).transfer(msg.valu...\n      POP \t\t\t(address(0)).transfer(msg.valu...\n      POP \t\t\t(address(0)).transfer(msg.valu...\n      JUMP \t\t\t(address(0)).transfer(msg.valu...\n    tag 423\t\t\t_tokenExists[_token] = true;\\n...\n      JUMPDEST \t\t\t_tokenExists[_token] = true;\\n...\n      PUSH 0\t\t\t  emit \n      PUSH FFFFFFFF00000000000000000000000000000000000000000000000000000000\t\t\t\\n            _token,\\n       ...\n      DUP3 \t\t\t   _i\n      AND \t\t\t       _id,\\n            _toke...\n      SWAP1 \t\t\tated(\\n            _id,\\n     ...\n      POP \t\t\tated(\\n            _id,\\n     ...\n      SWAP2 \t\t\t_tokenExists[_token] = true;\\n...\n      SWAP1 \t\t\t_tokenExists[_token] = true;\\n...\n      POP \t\t\t_tokenExists[_token] = true;\\n...\n      JUMP \t\t\t_tokenExists[_token] = true;\\n...\n    tag 424\t\t\tss(msg.sender)\\n        );\\n  ...\n      JUMPDEST \t\t\tss(msg.sender)\\n        );\\n  ...\n      PUSH [tag] 558\t\t\tblic view returns (Musi\n      DUP2 \t\t\t (Mus\n      PUSH [tag] 423\t\t\tblic view returns (Musi\n      JUMP \t\t\tblic view returns (Musi\n    tag 558\t\t\tblic view returns (Musi\n      JUMPDEST \t\t\tblic view returns (Musi\n      DUP2 \t\t\tnId) \n      EQ \t\t\tokenId) public view returns (M...\n      PUSH [tag] 559\t\t\tuint256 _tokenId) public view ...\n      JUMPI \t\t\tuint256 _tokenId) public view ...\n      PUSH 0\t\t\t \n      DUP1 \t\t\t \n      REVERT \t\t\tory) {\\n     \n    tag 559\t\t\tuint256 _tokenId) public view ...\n      JUMPDEST \t\t\tuint256 _tokenId) public view ...\n      POP \t\t\tss(msg.sender)\\n        );\\n  ...\n      JUMP \t\t\tss(msg.sender)\\n        );\\n  ...\n    tag 425\t\t\tcs[_tokenId];\\n    }\\n    func...\n      JUMPDEST \t\t\tcs[_tokenId];\\n    }\\n    func...\n      PUSH 0\t\t\t    b\n      DUP2 \t\t\try b\\n \n      CALLDATALOAD \t\t\t   bytes memory b\\n  \n      SWAP1 \t\t\t a,\\n        bytes memory b\\n ...\n      POP \t\t\t a,\\n        bytes memory b\\n ...\n      PUSH [tag] 561\t\t\tnal pure returns (bool) {\\n   ...\n      DUP2 \t\t\t     \n      PUSH [tag] 424\t\t\tnal pure returns (bool) {\\n   ...\n      JUMP \t\t\tnal pure returns (bool) {\\n   ...\n    tag 561\t\t\tnal pure returns (bool) {\\n   ...\n      JUMPDEST \t\t\tnal pure returns (bool) {\\n   ...\n      SWAP3 \t\t\tcs[_tokenId];\\n    }\\n    func...\n      SWAP2 \t\t\tcs[_tokenId];\\n    }\\n    func...\n      POP \t\t\tcs[_tokenId];\\n    }\\n    func...\n      POP \t\t\tcs[_tokenId];\\n    }\\n    func...\n      JUMP \t\t\tcs[_tokenId];\\n    }\\n    func...\n    tag 35\t\t\tlength == b.length) && (keccak...\n      JUMPDEST \t\t\tlength == b.length) && (keccak...\n      PUSH 0\t\t\t }\\n\\n  \n      PUSH 20\t\t\try\n      DUP3 \t\t\t string m\n      DUP5 \t\t\t(\\n     \n      SUB \t\t\tHash(\\n        string me\n      SLT \t\t\tenByHash(\\n        string memo...\n      ISZERO \t\t\ttokenByHash(\\n        string m...\n      PUSH [tag] 563\t\t\ttokenByHash(\\n        string m...\n      JUMPI \t\t\ttokenByHash(\\n        string m...\n      PUSH [tag] 564\t\t\tsh\\n    ) public view returns ...\n      PUSH [tag] 413\t\t\tsh\\n    ) public view returns ...\n      JUMP \t\t\tsh\\n    ) public view returns ...\n    tag 564\t\t\tsh\\n    ) public view returns ...\n      JUMPDEST \t\t\tsh\\n    ) public view returns ...\n    tag 563\t\t\ttokenByHash(\\n        string m...\n      JUMPDEST \t\t\ttokenByHash(\\n        string m...\n      PUSH 0\t\t\t \n      PUSH [tag] 565\t\t\ti < tokens.length; i++) {\\n   ...\n      DUP5 \t\t\tmcmp(by\n      DUP3 \t\t\t   if \n      DUP6 \t\t\t{\\n       \n      ADD \t\t\t++) {\\n            if (\n      PUSH [tag] 425\t\t\ti < tokens.length; i++) {\\n   ...\n      JUMP \t\t\ti < tokens.length; i++) {\\n   ...\n    tag 565\t\t\ti < tokens.length; i++) {\\n   ...\n      JUMPDEST \t\t\ti < tokens.length; i++) {\\n   ...\n      SWAP2 \t\t\t56 i = 0; i < tokens.length; i...\n      POP \t\t\t56 i = 0; i < tokens.length; i...\n      POP \t\t\ten URI should be mint\");\\n\\n  ...\n      SWAP3 \t\t\tlength == b.length) && (keccak...\n      SWAP2 \t\t\tlength == b.length) && (keccak...\n      POP \t\t\tlength == b.length) && (keccak...\n      POP \t\t\tlength == b.length) && (keccak...\n      JUMP \t\t\tlength == b.length) && (keccak...\n    tag 426\t\t\tbytes(_hash))) {\\n            ...\n      JUMPDEST \t\t\tbytes(_hash))) {\\n            ...\n      PUSH 0\t\t\teturn m\n      DUP2 \t\t\t}\\n   \n      ISZERO \t\t\t       }\\n    \n      ISZERO \t\t\t    }\\n        }\\n     \n      SWAP1 \t\t\t];\\n            }\\n        }\\n...\n      POP \t\t\t];\\n            }\\n        }\\n...\n      SWAP2 \t\t\tbytes(_hash))) {\\n            ...\n      SWAP1 \t\t\tbytes(_hash))) {\\n            ...\n      POP \t\t\tbytes(_hash))) {\\n            ...\n      JUMP \t\t\tbytes(_hash))) {\\n            ...\n    tag 427\t\t\tory emptyPropertyObj;\\n       ...\n      JUMPDEST \t\t\tory emptyPropertyObj;\\n       ...\n      PUSH [tag] 568\t\t\ttingFee() public view\n      DUP2 \t\t\tc vie\n      PUSH [tag] 426\t\t\ttingFee() public view\n      JUMP \t\t\ttingFee() public view\n    tag 568\t\t\ttingFee() public view\n      JUMPDEST \t\t\ttingFee() public view\n      DUP3 \t\t\tetL\n      MSTORE \t\t\tction getListingFee() public v...\n      POP \t\t\tory emptyPropertyObj;\\n       ...\n      POP \t\t\tory emptyPropertyObj;\\n       ...\n      JUMP \t\t\tory emptyPropertyObj;\\n       ...\n    tag 38\t\t\tt256) {\\n        return market...\n      JUMPDEST \t\t\tt256) {\\n        return market...\n      PUSH 0\t\t\tmoun\n      PUSH 20\t\t\t25\n      DUP3 \t\t\t       ui\n      ADD \t\t\t {\\n        uint256\n      SWAP1 \t\t\t payable {\\n        uint256\n      POP \t\t\t payable {\\n        uint256\n      PUSH [tag] 570\t\t\tusics[tokenId].price;\\n\\n     ...\n      PUSH 0\t\t\tu\n      DUP4 \t\t\tprice * a\n      ADD \t\t\te = price * amoun\n      DUP5 \t\t\t saleP\n      PUSH [tag] 427\t\t\tusics[tokenId].price;\\n\\n     ...\n      JUMP \t\t\tusics[tokenId].price;\\n\\n     ...\n    tag 570\t\t\tusics[tokenId].price;\\n\\n     ...\n      JUMPDEST \t\t\tusics[tokenId].price;\\n\\n     ...\n      SWAP3 \t\t\tt256) {\\n        return market...\n      SWAP2 \t\t\tt256) {\\n        return market...\n      POP \t\t\tt256) {\\n        return market...\n      POP \t\t\tt256) {\\n        return market...\n      JUMP \t\t\tt256) {\\n        return market...\n    tag 42\t\t\tuire(musics[tokenId].amount >=...\n      JUMPDEST \t\t\tuire(musics[tokenId].amount >=...\n      PUSH 0\t\t\t  requ\n      PUSH 20\t\t\t  \n      DUP3 \t\t\talePrice,\n      DUP5 \t\t\talue >=\n      SUB \t\t\tsg.value >= salePrice,\\n\n      SLT \t\t\t   msg.value >= salePrice,\\n  ...\n      ISZERO \t\t\t      msg.value >= salePrice,\\...\n      PUSH [tag] 572\t\t\t      msg.value >= salePrice,\\...\n      JUMPI \t\t\t      msg.value >= salePrice,\\...\n      PUSH [tag] 573\t\t\t    \"Needs to be greater or eq...\n      PUSH [tag] 413\t\t\t    \"Needs to be greater or eq...\n      JUMP \t\t\t    \"Needs to be greater or eq...\n    tag 573\t\t\t    \"Needs to be greater or eq...\n      JUMPDEST \t\t\t    \"Needs to be greater or eq...\n    tag 572\t\t\t      msg.value >= salePrice,\\...\n      JUMPDEST \t\t\t      msg.value >= salePrice,\\...\n      PUSH 0\t\t\t \n      PUSH [tag] 574\t\t\t,\\n            0,\\n           ...\n      DUP5 \t\t\t       \n      DUP3 \t\t\tce,\\n  \n      DUP6 \t\t\t    saleP\n      ADD \t\t\t        salePrice,\\n   \n      PUSH [tag] 421\t\t\t,\\n            0,\\n           ...\n      JUMP \t\t\t,\\n            0,\\n           ...\n    tag 574\t\t\t,\\n            0,\\n           ...\n      JUMPDEST \t\t\t,\\n            0,\\n           ...\n      SWAP2 \t\t\tId].artirt,\\n            0,\\n ...\n      POP \t\t\tId].artirt,\\n            0,\\n ...\n      POP \t\t\t        msg.sender,\\n         ...\n      SWAP3 \t\t\tuire(musics[tokenId].amount >=...\n      SWAP2 \t\t\tuire(musics[tokenId].amount >=...\n      POP \t\t\tuire(musics[tokenId].amount >=...\n      POP \t\t\tuire(musics[tokenId].amount >=...\n      JUMP \t\t\tuire(musics[tokenId].amount >=...\n    tag 428\t\t\tfeTransferFrom(msg.sender, add...\n      JUMPDEST \t\t\tfeTransferFrom(msg.sender, add...\n      PUSH 0\t\t\tee, \"\"\n      DUP2 \t\t\tamoun\n      MLOAD \t\t\tenId].amount\n      SWAP1 \t\t\tmusics[tokenId].amount\n      POP \t\t\tmusics[tokenId].amount\n      SWAP2 \t\t\tfeTransferFrom(msg.sender, add...\n      SWAP1 \t\t\tfeTransferFrom(msg.sender, add...\n      POP \t\t\tfeTransferFrom(msg.sender, add...\n      JUMP \t\t\tfeTransferFrom(msg.sender, add...\n    tag 429\t\t\t        onERC1155Received(addr...\n      JUMPDEST \t\t\t        onERC1155Received(addr...\n      PUSH 0\t\t\tafeTransfer\n      DUP3 \t\t\tss(thi\n      DUP3 \t\t\tadd\n      MSTORE \t\t\t       address(this\n      PUSH 20\t\t\t    \n      DUP3 \t\t\t   \n      ADD \t\t\tr,\\n           \n      SWAP1 \t\t\t      msg.sender,\\n           \n      POP \t\t\t      msg.sender,\\n           \n      SWAP3 \t\t\t        onERC1155Received(addr...\n      SWAP2 \t\t\t        onERC1155Received(addr...\n      POP \t\t\t        onERC1155Received(addr...\n      POP \t\t\t        onERC1155Received(addr...\n      JUMP \t\t\t        onERC1155Received(addr...\n    tag 430\t\t\tnId].tokenId,\\n            mus...\n      JUMPDEST \t\t\tnId].tokenId,\\n            mus...\n      DUP3 \t\t\tmit Bu\n      DUP2 \t\t\t   \n      DUP4 \t\t\t\\n  \n      MCOPY \t\t\t   );\\n\\n        emit Buy\n      PUSH 0\t\t\t \n      DUP4 \t\t\t price\n      DUP4 \t\t\toun\n      ADD \t\t\t, amount, price)\n      MSTORE \t\t\ttokenId, amount, price);\\n  \n      POP \t\t\tnId].tokenId,\\n            mus...\n      POP \t\t\tnId].tokenId,\\n            mus...\n      POP \t\t\tnId].tokenId,\\n            mus...\n      JUMP \t\t\tnId].tokenId,\\n            mus...\n    tag 431\t\t\tonERC1155Received(\\n        ad...\n      JUMPDEST \t\t\tonERC1155Received(\\n        ad...\n      PUSH 0\t\t\t   add\n      PUSH 1F\t\t\t  \n      NOT \t\t\t       \n      PUSH 1F\t\t\t56\n      DUP4 \t\t\t  uin\n      ADD \t\t\t      uint256,\n      AND \t\t\t,\\n        uint256,\\n        b\n      SWAP1 \t\t\t   uint256,\\n        uint256,\\...\n      POP \t\t\t   uint256,\\n        uint256,\\...\n      SWAP2 \t\t\tonERC1155Received(\\n        ad...\n      SWAP1 \t\t\tonERC1155Received(\\n        ad...\n      POP \t\t\tonERC1155Received(\\n        ad...\n      JUMP \t\t\tonERC1155Received(\\n        ad...\n    tag 432\t\t\t    ) public virtual returns (...\n      JUMPDEST \t\t\t    ) public virtual returns (...\n      PUSH 0\t\t\t   \n      PUSH [tag] 580\t\t\t       uint256 _tokenId,\\n    ...\n      DUP3 \t\t\tuint2\n      PUSH [tag] 428\t\t\t       uint256 _tokenId,\\n    ...\n      JUMP \t\t\t       uint256 _tokenId,\\n    ...\n    tag 580\t\t\t       uint256 _tokenId,\\n    ...\n      JUMPDEST \t\t\t       uint256 _tokenId,\\n    ...\n      PUSH [tag] 581\t\t\tpublic payable returns (uint25...\n      DUP2 \t\t\tsender\n      DUP6 \t\t\t(ms\n      PUSH [tag] 429\t\t\tpublic payable returns (uint25...\n      JUMP \t\t\tpublic payable returns (uint25...\n    tag 581\t\t\tpublic payable returns (uint25...\n      JUMPDEST \t\t\tpublic payable returns (uint25...\n      SWAP4 \t\t\t\\n    ) public payable returns...\n      POP \t\t\t\\n    ) public payable returns...\n      PUSH [tag] 582\t\t\tthis), _tokenId, _amount, \"\");...\n      DUP2 \t\t\tount +\n      DUP6 \t\t\td].\n      PUSH 20\t\t\t_tok\n      DUP7 \t\t\tmusic\n      ADD \t\t\t    musics[_toke\n      PUSH [tag] 430\t\t\tthis), _tokenId, _amount, \"\");...\n      JUMP \t\t\tthis), _tokenId, _amount, \"\");...\n    tag 582\t\t\tthis), _tokenId, _amount, \"\");...\n      JUMPDEST \t\t\tthis), _tokenId, _amount, \"\");...\n      PUSH [tag] 583\t\t\t _tokenId;\\n    }\\n}\\n\n      DUP2 \t\t\t\n      PUSH [tag] 431\t\t\t _tokenId;\\n    }\\n}\\n\n      JUMP \t\t\t _tokenId;\\n    }\\n}\\n\n    tag 583\t\t\t _tokenId;\\n    }\\n}\\n\n      JUMPDEST \t\t\t _tokenId;\\n    }\\n}\\n\n      DUP5 \t\t\tetu\n      ADD \t\t\t   return _tokenId;\\n    }\\n}\\...\n      SWAP2 \t\t\t\\n\\n        return _tokenId;\\n...\n      POP \t\t\t\\n\\n        return _tokenId;\\n...\n      POP \t\t\t}\\n    function reSale(\\n     ...\n      SWAP3 \t\t\t    ) public virtual returns (...\n      SWAP2 \t\t\t    ) public virtual returns (...\n      POP \t\t\t    ) public virtual returns (...\n      POP \t\t\t    ) public virtual returns (...\n      JUMP \t\t\t    ) public virtual returns (...\n    tag 45\t\t\t\n      JUMPDEST \t\t\t\n      PUSH 0\t\t\t\n      PUSH 20\t\t\t\n      DUP3 \t\t\t\n      ADD \t\t\t\n      SWAP1 \t\t\t\n      POP \t\t\t\n      DUP2 \t\t\t\n      DUP2 \t\t\t\n      SUB \t\t\t\n      PUSH 0\t\t\t\n      DUP4 \t\t\t\n      ADD \t\t\t\n      MSTORE \t\t\t\n      PUSH [tag] 585\t\t\t\n      DUP2 \t\t\t\n      DUP5 \t\t\t\n      PUSH [tag] 432\t\t\t\n      JUMP \t\t\t\n    tag 585\t\t\t\n      JUMPDEST \t\t\t\n      SWAP1 \t\t\t\n      POP \t\t\t\n      SWAP3 \t\t\t\n      SWAP2 \t\t\t\n      POP \t\t\t\n      POP \t\t\t\n      JUMP \t\t\t\n    tag 48\t\t\t\n      JUMPDEST \t\t\t\n      PUSH 0\t\t\t\n      DUP1 \t\t\t\n      PUSH 40\t\t\t\n      DUP4 \t\t\t\n      DUP6 \t\t\t\n      SUB \t\t\t\n      SLT \t\t\t\n      ISZERO \t\t\t\n      PUSH [tag] 587\t\t\t\n      JUMPI \t\t\t\n      PUSH [tag] 588\t\t\t\n      PUSH [tag] 413\t\t\t\n      JUMP \t\t\t\n    tag 588\t\t\t\n      JUMPDEST \t\t\t\n    tag 587\t\t\t\n      JUMPDEST \t\t\t\n      PUSH 0\t\t\t\n      PUSH [tag] 589\t\t\t\n      DUP6 \t\t\t\n      DUP3 \t\t\t\n      DUP7 \t\t\t\n      ADD \t\t\t\n      PUSH [tag] 421\t\t\t\n      JUMP \t\t\t\n    tag 589\t\t\t\n      JUMPDEST \t\t\t\n      SWAP3 \t\t\t\n      POP \t\t\t\n      POP \t\t\t\n      PUSH 20\t\t\t\n      PUSH [tag] 590\t\t\t\n      DUP6 \t\t\t\n      DUP3 \t\t\t\n      DUP7 \t\t\t\n      ADD \t\t\t\n      PUSH [tag] 421\t\t\t\n      JUMP \t\t\t\n    tag 590\t\t\t\n      JUMPDEST \t\t\t\n      SWAP2 \t\t\t\n      POP \t\t\t\n      POP \t\t\t\n      SWAP3 \t\t\t\n      POP \t\t\t\n      SWAP3 \t\t\t\n      SWAP1 \t\t\t\n      POP \t\t\t\n      JUMP \t\t\t\n    tag 433\t\t\t\n      JUMPDEST \t\t\t\n      PUSH 0\t\t\t\n      DUP1 \t\t\t\n      REVERT \t\t\t\n    tag 176\t\t\t\n      JUMPDEST \t\t\t\n      PUSH 4E487B7100000000000000000000000000000000000000000000000000000000\t\t\t\n      PUSH 0\t\t\t\n      MSTORE \t\t\t\n      PUSH 41\t\t\t\n      PUSH 4\t\t\t\n      MSTORE \t\t\t\n      PUSH 24\t\t\t\n      PUSH 0\t\t\t\n      REVERT \t\t\t\n    tag 434\t\t\t\n      JUMPDEST \t\t\t\n      PUSH [tag] 594\t\t\t\n      DUP3 \t\t\t\n      PUSH [tag] 431\t\t\t\n      JUMP \t\t\t\n    tag 594\t\t\t\n      JUMPDEST \t\t\t\n      DUP2 \t\t\t\n      ADD \t\t\t\n      DUP2 \t\t\t\n      DUP2 \t\t\t\n      LT \t\t\t\n      PUSH FFFFFFFFFFFFFFFF\t\t\t\n      DUP3 \t\t\t\n      GT \t\t\t\n      OR \t\t\t\n      ISZERO \t\t\t\n      PUSH [tag] 595\t\t\t\n      JUMPI \t\t\t\n      PUSH [tag] 596\t\t\t\n      PUSH [tag] 176\t\t\t\n      JUMP \t\t\t\n    tag 596\t\t\t\n      JUMPDEST \t\t\t\n    tag 595\t\t\t\n      JUMPDEST \t\t\t\n      DUP1 \t\t\t\n      PUSH 40\t\t\t\n      MSTORE \t\t\t\n      POP \t\t\t\n      POP \t\t\t\n      POP \t\t\t\n      JUMP \t\t\t\n    tag 435\t\t\t\n      JUMPDEST \t\t\t\n      PUSH 0\t\t\t\n      PUSH [tag] 598\t\t\t\n      PUSH [tag] 412\t\t\t\n      JUMP \t\t\t\n    tag 598\t\t\t\n      JUMPDEST \t\t\t\n      SWAP1 \t\t\t\n      POP \t\t\t\n      PUSH [tag] 599\t\t\t\n      DUP3 \t\t\t\n      DUP3 \t\t\t\n      PUSH [tag] 434\t\t\t\n      JUMP \t\t\t\n    tag 599\t\t\t\n      JUMPDEST \t\t\t\n      SWAP2 \t\t\t\n      SWAP1 \t\t\t\n      POP \t\t\t\n      JUMP \t\t\t\n    tag 436\t\t\t\n      JUMPDEST \t\t\t\n      PUSH 0\t\t\t\n      PUSH FFFFFFFFFFFFFFFF\t\t\t\n      DUP3 \t\t\t\n      GT \t\t\t\n      ISZERO \t\t\t\n      PUSH [tag] 601\t\t\t\n      JUMPI \t\t\t\n      PUSH [tag] 602\t\t\t\n      PUSH [tag] 176\t\t\t\n      JUMP \t\t\t\n    tag 602\t\t\t\n      JUMPDEST \t\t\t\n    tag 601\t\t\t\n      JUMPDEST \t\t\t\n      PUSH 20\t\t\t\n      DUP3 \t\t\t\n      MUL \t\t\t\n      SWAP1 \t\t\t\n      POP \t\t\t\n      PUSH 20\t\t\t\n      DUP2 \t\t\t\n      ADD \t\t\t\n      SWAP1 \t\t\t\n      POP \t\t\t\n      SWAP2 \t\t\t\n      SWAP1 \t\t\t\n      POP \t\t\t\n      JUMP \t\t\t\n    tag 437\t\t\t\n      JUMPDEST \t\t\t\n      PUSH 0\t\t\t\n      DUP1 \t\t\t\n      REVERT \t\t\t\n    tag 438\t\t\t\n      JUMPDEST \t\t\t\n      PUSH 0\t\t\t\n      PUSH [tag] 605\t\t\t\n      PUSH [tag] 606\t\t\t\n      DUP5 \t\t\t\n      PUSH [tag] 436\t\t\t\n      JUMP \t\t\t\n    tag 606\t\t\t\n      JUMPDEST \t\t\t\n      PUSH [tag] 435\t\t\t\n      JUMP \t\t\t\n    tag 605\t\t\t\n      JUMPDEST \t\t\t\n      SWAP1 \t\t\t\n      POP \t\t\t\n      DUP1 \t\t\t\n      DUP4 \t\t\t\n      DUP3 \t\t\t\n      MSTORE \t\t\t\n      PUSH 20\t\t\t\n      DUP3 \t\t\t\n      ADD \t\t\t\n      SWAP1 \t\t\t\n      POP \t\t\t\n      PUSH 20\t\t\t\n      DUP5 \t\t\t\n      MUL \t\t\t\n      DUP4 \t\t\t\n      ADD \t\t\t\n      DUP6 \t\t\t\n      DUP2 \t\t\t\n      GT \t\t\t\n      ISZERO \t\t\t\n      PUSH [tag] 607\t\t\t\n      JUMPI \t\t\t\n      PUSH [tag] 608\t\t\t\n      PUSH [tag] 437\t\t\t\n      JUMP \t\t\t\n    tag 608\t\t\t\n      JUMPDEST \t\t\t\n    tag 607\t\t\t\n      JUMPDEST \t\t\t\n      DUP4 \t\t\t\n    tag 609\t\t\t\n      JUMPDEST \t\t\t\n      DUP2 \t\t\t\n      DUP2 \t\t\t\n      LT \t\t\t\n      ISZERO \t\t\t\n      PUSH [tag] 611\t\t\t\n      JUMPI \t\t\t\n      DUP1 \t\t\t\n      PUSH [tag] 612\t\t\t\n      DUP9 \t\t\t\n      DUP3 \t\t\t\n      PUSH [tag] 421\t\t\t\n      JUMP \t\t\t\n    tag 612\t\t\t\n      JUMPDEST \t\t\t\n      DUP5 \t\t\t\n      MSTORE \t\t\t\n      PUSH 20\t\t\t\n      DUP5 \t\t\t\n      ADD \t\t\t\n      SWAP4 \t\t\t\n      POP \t\t\t\n      POP \t\t\t\n      PUSH 20\t\t\t\n      DUP2 \t\t\t\n      ADD \t\t\t\n      SWAP1 \t\t\t\n      POP \t\t\t\n      PUSH [tag] 609\t\t\t\n      JUMP \t\t\t\n    tag 611\t\t\t\n      JUMPDEST \t\t\t\n      POP \t\t\t\n      POP \t\t\t\n      POP \t\t\t\n      SWAP4 \t\t\t\n      SWAP3 \t\t\t\n      POP \t\t\t\n      POP \t\t\t\n      POP \t\t\t\n      JUMP \t\t\t\n    tag 439\t\t\t\n      JUMPDEST \t\t\t\n      PUSH 0\t\t\t\n      DUP3 \t\t\t\n      PUSH 1F\t\t\t\n      DUP4 \t\t\t\n      ADD \t\t\t\n      SLT \t\t\t\n      PUSH [tag] 614\t\t\t\n      JUMPI \t\t\t\n      PUSH [tag] 615\t\t\t\n      PUSH [tag] 433\t\t\t\n      JUMP \t\t\t\n    tag 615\t\t\t\n      JUMPDEST \t\t\t\n    tag 614\t\t\t\n      JUMPDEST \t\t\t\n      DUP2 \t\t\t\n      CALLDATALOAD \t\t\t\n      PUSH [tag] 616\t\t\t\n      DUP5 \t\t\t\n      DUP3 \t\t\t\n      PUSH 20\t\t\t\n      DUP7 \t\t\t\n      ADD \t\t\t\n      PUSH [tag] 438\t\t\t\n      JUMP \t\t\t\n    tag 616\t\t\t\n      JUMPDEST \t\t\t\n      SWAP2 \t\t\t\n      POP \t\t\t\n      POP \t\t\t\n      SWAP3 \t\t\t\n      SWAP2 \t\t\t\n      POP \t\t\t\n      POP \t\t\t\n      JUMP \t\t\t\n    tag 440\t\t\t\n      JUMPDEST \t\t\t\n      PUSH 0\t\t\t\n      DUP1 \t\t\t\n      REVERT \t\t\t\n    tag 441\t\t\t\n      JUMPDEST \t\t\t\n      PUSH 0\t\t\t\n      PUSH FFFFFFFFFFFFFFFF\t\t\t\n      DUP3 \t\t\t\n      GT \t\t\t\n      ISZERO \t\t\t\n      PUSH [tag] 619\t\t\t\n      JUMPI \t\t\t\n      PUSH [tag] 620\t\t\t\n      PUSH [tag] 176\t\t\t\n      JUMP \t\t\t\n    tag 620\t\t\t\n      JUMPDEST \t\t\t\n    tag 619\t\t\t\n      JUMPDEST \t\t\t\n      PUSH [tag] 621\t\t\t\n      DUP3 \t\t\t\n      PUSH [tag] 431\t\t\t\n      JUMP \t\t\t\n    tag 621\t\t\t\n      JUMPDEST \t\t\t\n      SWAP1 \t\t\t\n      POP \t\t\t\n      PUSH 20\t\t\t\n      DUP2 \t\t\t\n      ADD \t\t\t\n      SWAP1 \t\t\t\n      POP \t\t\t\n      SWAP2 \t\t\t\n      SWAP1 \t\t\t\n      POP \t\t\t\n      JUMP \t\t\t\n    tag 442\t\t\t\n      JUMPDEST \t\t\t\n      DUP3 \t\t\t\n      DUP2 \t\t\t\n      DUP4 \t\t\t\n      CALLDATACOPY \t\t\t\n      PUSH 0\t\t\t\n      DUP4 \t\t\t\n      DUP4 \t\t\t\n      ADD \t\t\t\n      MSTORE \t\t\t\n      POP \t\t\t\n      POP \t\t\t\n      POP \t\t\t\n      JUMP \t\t\t\n    tag 443\t\t\t\n      JUMPDEST \t\t\t\n      PUSH 0\t\t\t\n      PUSH [tag] 624\t\t\t\n      PUSH [tag] 625\t\t\t\n      DUP5 \t\t\t\n      PUSH [tag] 441\t\t\t\n      JUMP \t\t\t\n    tag 625\t\t\t\n      JUMPDEST \t\t\t\n      PUSH [tag] 435\t\t\t\n      JUMP \t\t\t\n    tag 624\t\t\t\n      JUMPDEST \t\t\t\n      SWAP1 \t\t\t\n      POP \t\t\t\n      DUP3 \t\t\t\n      DUP2 \t\t\t\n      MSTORE \t\t\t\n      PUSH 20\t\t\t\n      DUP2 \t\t\t\n      ADD \t\t\t\n      DUP5 \t\t\t\n      DUP5 \t\t\t\n      DUP5 \t\t\t\n      ADD \t\t\t\n      GT \t\t\t\n      ISZERO \t\t\t\n      PUSH [tag] 626\t\t\t\n      JUMPI \t\t\t\n      PUSH [tag] 627\t\t\t\n      PUSH [tag] 440\t\t\t\n      JUMP \t\t\t\n    tag 627\t\t\t\n      JUMPDEST \t\t\t\n    tag 626\t\t\t\n      JUMPDEST \t\t\t\n      PUSH [tag] 628\t\t\t\n      DUP5 \t\t\t\n      DUP3 \t\t\t\n      DUP6 \t\t\t\n      PUSH [tag] 442\t\t\t\n      JUMP \t\t\t\n    tag 628\t\t\t\n      JUMPDEST \t\t\t\n      POP \t\t\t\n      SWAP4 \t\t\t\n      SWAP3 \t\t\t\n      POP \t\t\t\n      POP \t\t\t\n      POP \t\t\t\n      JUMP \t\t\t\n    tag 444\t\t\t\n      JUMPDEST \t\t\t\n      PUSH 0\t\t\t\n      DUP3 \t\t\t\n      PUSH 1F\t\t\t\n      DUP4 \t\t\t\n      ADD \t\t\t\n      SLT \t\t\t\n      PUSH [tag] 630\t\t\t\n      JUMPI \t\t\t\n      PUSH [tag] 631\t\t\t\n      PUSH [tag] 433\t\t\t\n      JUMP \t\t\t\n    tag 631\t\t\t\n      JUMPDEST \t\t\t\n    tag 630\t\t\t\n      JUMPDEST \t\t\t\n      DUP2 \t\t\t\n      CALLDATALOAD \t\t\t\n      PUSH [tag] 632\t\t\t\n      DUP5 \t\t\t\n      DUP3 \t\t\t\n      PUSH 20\t\t\t\n      DUP7 \t\t\t\n      ADD \t\t\t\n      PUSH [tag] 443\t\t\t\n      JUMP \t\t\t\n    tag 632\t\t\t\n      JUMPDEST \t\t\t\n      SWAP2 \t\t\t\n      POP \t\t\t\n      POP \t\t\t\n      SWAP3 \t\t\t\n      SWAP2 \t\t\t\n      POP \t\t\t\n      POP \t\t\t\n      JUMP \t\t\t\n    tag 53\t\t\t\n      JUMPDEST \t\t\t\n      PUSH 0\t\t\t\n      DUP1 \t\t\t\n      PUSH 0\t\t\t\n      DUP1 \t\t\t\n      PUSH 0\t\t\t\n      PUSH A0\t\t\t\n      DUP7 \t\t\t\n      DUP9 \t\t\t\n      SUB \t\t\t\n      SLT \t\t\t\n      ISZERO \t\t\t\n      PUSH [tag] 634\t\t\t\n      JUMPI \t\t\t\n      PUSH [tag] 635\t\t\t\n      PUSH [tag] 413\t\t\t\n      JUMP \t\t\t\n    tag 635\t\t\t\n      JUMPDEST \t\t\t\n    tag 634\t\t\t\n      JUMPDEST \t\t\t\n      PUSH 0\t\t\t\n      PUSH [tag] 636\t\t\t\n      DUP9 \t\t\t\n      DUP3 \t\t\t\n      DUP10 \t\t\t\n      ADD \t\t\t\n      PUSH [tag] 418\t\t\t\n      JUMP \t\t\t\n    tag 636\t\t\t\n      JUMPDEST \t\t\t\n      SWAP6 \t\t\t\n      POP \t\t\t\n      POP \t\t\t\n      PUSH 20\t\t\t\n      PUSH [tag] 637\t\t\t\n      DUP9 \t\t\t\n      DUP3 \t\t\t\n      DUP10 \t\t\t\n      ADD \t\t\t\n      PUSH [tag] 418\t\t\t\n      JUMP \t\t\t\n    tag 637\t\t\t\n      JUMPDEST \t\t\t\n      SWAP5 \t\t\t\n      POP \t\t\t\n      POP \t\t\t\n      PUSH 40\t\t\t\n      DUP7 \t\t\t\n      ADD \t\t\t\n      CALLDATALOAD \t\t\t\n      PUSH FFFFFFFFFFFFFFFF\t\t\t\n      DUP2 \t\t\t\n      GT \t\t\t\n      ISZERO \t\t\t\n      PUSH [tag] 638\t\t\t\n      JUMPI \t\t\t\n      PUSH [tag] 639\t\t\t\n      PUSH [tag] 414\t\t\t\n      JUMP \t\t\t\n    tag 639\t\t\t\n      JUMPDEST \t\t\t\n    tag 638\t\t\t\n      JUMPDEST \t\t\t\n      PUSH [tag] 640\t\t\t\n      DUP9 \t\t\t\n      DUP3 \t\t\t\n      DUP10 \t\t\t\n      ADD \t\t\t\n      PUSH [tag] 439\t\t\t\n      JUMP \t\t\t\n    tag 640\t\t\t\n      JUMPDEST \t\t\t\n      SWAP4 \t\t\t\n      POP \t\t\t\n      POP \t\t\t\n      PUSH 60\t\t\t\n      DUP7 \t\t\t\n      ADD \t\t\t\n      CALLDATALOAD \t\t\t\n      PUSH FFFFFFFFFFFFFFFF\t\t\t\n      DUP2 \t\t\t\n      GT \t\t\t\n      ISZERO \t\t\t\n      PUSH [tag] 641\t\t\t\n      JUMPI \t\t\t\n      PUSH [tag] 642\t\t\t\n      PUSH [tag] 414\t\t\t\n      JUMP \t\t\t\n    tag 642\t\t\t\n      JUMPDEST \t\t\t\n    tag 641\t\t\t\n      JUMPDEST \t\t\t\n      PUSH [tag] 643\t\t\t\n      DUP9 \t\t\t\n      DUP3 \t\t\t\n      DUP10 \t\t\t\n      ADD \t\t\t\n      PUSH [tag] 439\t\t\t\n      JUMP \t\t\t\n    tag 643\t\t\t\n      JUMPDEST \t\t\t\n      SWAP3 \t\t\t\n      POP \t\t\t\n      POP \t\t\t\n      PUSH 80\t\t\t\n      DUP7 \t\t\t\n      ADD \t\t\t\n      CALLDATALOAD \t\t\t\n      PUSH FFFFFFFFFFFFFFFF\t\t\t\n      DUP2 \t\t\t\n      GT \t\t\t\n      ISZERO \t\t\t\n      PUSH [tag] 644\t\t\t\n      JUMPI \t\t\t\n      PUSH [tag] 645\t\t\t\n      PUSH [tag] 414\t\t\t\n      JUMP \t\t\t\n    tag 645\t\t\t\n      JUMPDEST \t\t\t\n    tag 644\t\t\t\n      JUMPDEST \t\t\t\n      PUSH [tag] 646\t\t\t\n      DUP9 \t\t\t\n      DUP3 \t\t\t\n      DUP10 \t\t\t\n      ADD \t\t\t\n      PUSH [tag] 444\t\t\t\n      JUMP \t\t\t\n    tag 646\t\t\t\n      JUMPDEST \t\t\t\n      SWAP2 \t\t\t\n      POP \t\t\t\n      POP \t\t\t\n      SWAP3 \t\t\t\n      SWAP6 \t\t\t\n      POP \t\t\t\n      SWAP3 \t\t\t\n      SWAP6 \t\t\t\n      SWAP1 \t\t\t\n      SWAP4 \t\t\t\n      POP \t\t\t\n      JUMP \t\t\t\n    tag 445\t\t\t\n      JUMPDEST \t\t\t\n      PUSH 0\t\t\t\n      PUSH FFFFFFFFFFFFFFFF\t\t\t\n      DUP3 \t\t\t\n      GT \t\t\t\n      ISZERO \t\t\t\n      PUSH [tag] 648\t\t\t\n      JUMPI \t\t\t\n      PUSH [tag] 649\t\t\t\n      PUSH [tag] 176\t\t\t\n      JUMP \t\t\t\n    tag 649\t\t\t\n      JUMPDEST \t\t\t\n    tag 648\t\t\t\n      JUMPDEST \t\t\t\n      PUSH 20\t\t\t\n      DUP3 \t\t\t\n      MUL \t\t\t\n      SWAP1 \t\t\t\n      POP \t\t\t\n      PUSH 20\t\t\t\n      DUP2 \t\t\t\n      ADD \t\t\t\n      SWAP1 \t\t\t\n      POP \t\t\t\n      SWAP2 \t\t\t\n      SWAP1 \t\t\t\n      POP \t\t\t\n      JUMP \t\t\t\n    tag 446\t\t\t\n      JUMPDEST \t\t\t\n      PUSH 0\t\t\t\n      PUSH [tag] 651\t\t\t\n      PUSH [tag] 652\t\t\t\n      DUP5 \t\t\t\n      PUSH [tag] 445\t\t\t\n      JUMP \t\t\t\n    tag 652\t\t\t\n      JUMPDEST \t\t\t\n      PUSH [tag] 435\t\t\t\n      JUMP \t\t\t\n    tag 651\t\t\t\n      JUMPDEST \t\t\t\n      SWAP1 \t\t\t\n      POP \t\t\t\n      DUP1 \t\t\t\n      DUP4 \t\t\t\n      DUP3 \t\t\t\n      MSTORE \t\t\t\n      PUSH 20\t\t\t\n      DUP3 \t\t\t\n      ADD \t\t\t\n      SWAP1 \t\t\t\n      POP \t\t\t\n      PUSH 20\t\t\t\n      DUP5 \t\t\t\n      MUL \t\t\t\n      DUP4 \t\t\t\n      ADD \t\t\t\n      DUP6 \t\t\t\n      DUP2 \t\t\t\n      GT \t\t\t\n      ISZERO \t\t\t\n      PUSH [tag] 653\t\t\t\n      JUMPI \t\t\t\n      PUSH [tag] 654\t\t\t\n      PUSH [tag] 437\t\t\t\n      JUMP \t\t\t\n    tag 654\t\t\t\n      JUMPDEST \t\t\t\n    tag 653\t\t\t\n      JUMPDEST \t\t\t\n      DUP4 \t\t\t\n    tag 655\t\t\t\n      JUMPDEST \t\t\t\n      DUP2 \t\t\t\n      DUP2 \t\t\t\n      LT \t\t\t\n      ISZERO \t\t\t\n      PUSH [tag] 657\t\t\t\n      JUMPI \t\t\t\n      DUP1 \t\t\t\n      PUSH [tag] 658\t\t\t\n      DUP9 \t\t\t\n      DUP3 \t\t\t\n      PUSH [tag] 418\t\t\t\n      JUMP \t\t\t\n    tag 658\t\t\t\n      JUMPDEST \t\t\t\n      DUP5 \t\t\t\n      MSTORE \t\t\t\n      PUSH 20\t\t\t\n      DUP5 \t\t\t\n      ADD \t\t\t\n      SWAP4 \t\t\t\n      POP \t\t\t\n      POP \t\t\t\n      PUSH 20\t\t\t\n      DUP2 \t\t\t\n      ADD \t\t\t\n      SWAP1 \t\t\t\n      POP \t\t\t\n      PUSH [tag] 655\t\t\t\n      JUMP \t\t\t\n    tag 657\t\t\t\n      JUMPDEST \t\t\t\n      POP \t\t\t\n      POP \t\t\t\n      POP \t\t\t\n      SWAP4 \t\t\t\n      SWAP3 \t\t\t\n      POP \t\t\t\n      POP \t\t\t\n      POP \t\t\t\n      JUMP \t\t\t\n    tag 447\t\t\t\n      JUMPDEST \t\t\t\n      PUSH 0\t\t\t\n      DUP3 \t\t\t\n      PUSH 1F\t\t\t\n      DUP4 \t\t\t\n      ADD \t\t\t\n      SLT \t\t\t\n      PUSH [tag] 660\t\t\t\n      JUMPI \t\t\t\n      PUSH [tag] 661\t\t\t\n      PUSH [tag] 433\t\t\t\n      JUMP \t\t\t\n    tag 661\t\t\t\n      JUMPDEST \t\t\t\n    tag 660\t\t\t\n      JUMPDEST \t\t\t\n      DUP2 \t\t\t\n      CALLDATALOAD \t\t\t\n      PUSH [tag] 662\t\t\t\n      DUP5 \t\t\t\n      DUP3 \t\t\t\n      PUSH 20\t\t\t\n      DUP7 \t\t\t\n      ADD \t\t\t\n      PUSH [tag] 446\t\t\t\n      JUMP \t\t\t\n    tag 662\t\t\t\n      JUMPDEST \t\t\t\n      SWAP2 \t\t\t\n      POP \t\t\t\n      POP \t\t\t\n      SWAP3 \t\t\t\n      SWAP2 \t\t\t\n      POP \t\t\t\n      POP \t\t\t\n      JUMP \t\t\t\n    tag 58\t\t\t\n      JUMPDEST \t\t\t\n      PUSH 0\t\t\t\n      DUP1 \t\t\t\n      PUSH 40\t\t\t\n      DUP4 \t\t\t\n      DUP6 \t\t\t\n      SUB \t\t\t\n      SLT \t\t\t\n      ISZERO \t\t\t\n      PUSH [tag] 664\t\t\t\n      JUMPI \t\t\t\n      PUSH [tag] 665\t\t\t\n      PUSH [tag] 413\t\t\t\n      JUMP \t\t\t\n    tag 665\t\t\t\n      JUMPDEST \t\t\t\n    tag 664\t\t\t\n      JUMPDEST \t\t\t\n      PUSH 0\t\t\t\n      DUP4 \t\t\t\n      ADD \t\t\t\n      CALLDATALOAD \t\t\t\n      PUSH FFFFFFFFFFFFFFFF\t\t\t\n      DUP2 \t\t\t\n      GT \t\t\t\n      ISZERO \t\t\t\n      PUSH [tag] 666\t\t\t\n      JUMPI \t\t\t\n      PUSH [tag] 667\t\t\t\n      PUSH [tag] 414\t\t\t\n      JUMP \t\t\t\n    tag 667\t\t\t\n      JUMPDEST \t\t\t\n    tag 666\t\t\t\n      JUMPDEST \t\t\t\n      PUSH [tag] 668\t\t\t\n      DUP6 \t\t\t\n      DUP3 \t\t\t\n      DUP7 \t\t\t\n      ADD \t\t\t\n      PUSH [tag] 447\t\t\t\n      JUMP \t\t\t\n    tag 668\t\t\t\n      JUMPDEST \t\t\t\n      SWAP3 \t\t\t\n      POP \t\t\t\n      POP \t\t\t\n      PUSH 20\t\t\t\n      DUP4 \t\t\t\n      ADD \t\t\t\n      CALLDATALOAD \t\t\t\n      PUSH FFFFFFFFFFFFFFFF\t\t\t\n      DUP2 \t\t\t\n      GT \t\t\t\n      ISZERO \t\t\t\n      PUSH [tag] 669\t\t\t\n      JUMPI \t\t\t\n      PUSH [tag] 670\t\t\t\n      PUSH [tag] 414\t\t\t\n      JUMP \t\t\t\n    tag 670\t\t\t\n      JUMPDEST \t\t\t\n    tag 669\t\t\t\n      JUMPDEST \t\t\t\n      PUSH [tag] 671\t\t\t\n      DUP6 \t\t\t\n      DUP3 \t\t\t\n      DUP7 \t\t\t\n      ADD \t\t\t\n      PUSH [tag] 439\t\t\t\n      JUMP \t\t\t\n    tag 671\t\t\t\n      JUMPDEST \t\t\t\n      SWAP2 \t\t\t\n      POP \t\t\t\n      POP \t\t\t\n      SWAP3 \t\t\t\n      POP \t\t\t\n      SWAP3 \t\t\t\n      SWAP1 \t\t\t\n      POP \t\t\t\n      JUMP \t\t\t\n    tag 448\t\t\t\n      JUMPDEST \t\t\t\n      PUSH 0\t\t\t\n      DUP2 \t\t\t\n      MLOAD \t\t\t\n      SWAP1 \t\t\t\n      POP \t\t\t\n      SWAP2 \t\t\t\n      SWAP1 \t\t\t\n      POP \t\t\t\n      JUMP \t\t\t\n    tag 449\t\t\t\n      JUMPDEST \t\t\t\n      PUSH 0\t\t\t\n      DUP3 \t\t\t\n      DUP3 \t\t\t\n      MSTORE \t\t\t\n      PUSH 20\t\t\t\n      DUP3 \t\t\t\n      ADD \t\t\t\n      SWAP1 \t\t\t\n      POP \t\t\t\n      SWAP3 \t\t\t\n      SWAP2 \t\t\t\n      POP \t\t\t\n      POP \t\t\t\n      JUMP \t\t\t\n    tag 450\t\t\t\n      JUMPDEST \t\t\t\n      PUSH 0\t\t\t\n      DUP2 \t\t\t\n      SWAP1 \t\t\t\n      POP \t\t\t\n      PUSH 20\t\t\t\n      DUP3 \t\t\t\n      ADD \t\t\t\n      SWAP1 \t\t\t\n      POP \t\t\t\n      SWAP2 \t\t\t\n      SWAP1 \t\t\t\n      POP \t\t\t\n      JUMP \t\t\t\n    tag 451\t\t\t\n      JUMPDEST \t\t\t\n      PUSH [tag] 676\t\t\t\n      DUP2 \t\t\t\n      PUSH [tag] 419\t\t\t\n      JUMP \t\t\t\n    tag 676\t\t\t\n      JUMPDEST \t\t\t\n      DUP3 \t\t\t\n      MSTORE \t\t\t\n      POP \t\t\t\n      POP \t\t\t\n      JUMP \t\t\t\n    tag 452\t\t\t\n      JUMPDEST \t\t\t\n      PUSH 0\t\t\t\n      PUSH [tag] 678\t\t\t\n      DUP4 \t\t\t\n      DUP4 \t\t\t\n      PUSH [tag] 451\t\t\t\n      JUMP \t\t\t\n    tag 678\t\t\t\n      JUMPDEST \t\t\t\n      PUSH 20\t\t\t\n      DUP4 \t\t\t\n      ADD \t\t\t\n      SWAP1 \t\t\t\n      POP \t\t\t\n      SWAP3 \t\t\t\n      SWAP2 \t\t\t\n      POP \t\t\t\n      POP \t\t\t\n      JUMP \t\t\t\n    tag 453\t\t\t\n      JUMPDEST \t\t\t\n      PUSH 0\t\t\t\n      PUSH 20\t\t\t\n      DUP3 \t\t\t\n      ADD \t\t\t\n      SWAP1 \t\t\t\n      POP \t\t\t\n      SWAP2 \t\t\t\n      SWAP1 \t\t\t\n      POP \t\t\t\n      JUMP \t\t\t\n    tag 454\t\t\t\n      JUMPDEST \t\t\t\n      PUSH 0\t\t\t\n      PUSH [tag] 681\t\t\t\n      DUP3 \t\t\t\n      PUSH [tag] 448\t\t\t\n      JUMP \t\t\t\n    tag 681\t\t\t\n      JUMPDEST \t\t\t\n      PUSH [tag] 682\t\t\t\n      DUP2 \t\t\t\n      DUP6 \t\t\t\n      PUSH [tag] 449\t\t\t\n      JUMP \t\t\t\n    tag 682\t\t\t\n      JUMPDEST \t\t\t\n      SWAP4 \t\t\t\n      POP \t\t\t\n      PUSH [tag] 683\t\t\t\n      DUP4 \t\t\t\n      PUSH [tag] 450\t\t\t\n      JUMP \t\t\t\n    tag 683\t\t\t\n      JUMPDEST \t\t\t\n      DUP1 \t\t\t\n      PUSH 0\t\t\t\n    tag 684\t\t\t\n      JUMPDEST \t\t\t\n      DUP4 \t\t\t\n      DUP2 \t\t\t\n      LT \t\t\t\n      ISZERO \t\t\t\n      PUSH [tag] 686\t\t\t\n      JUMPI \t\t\t\n      DUP2 \t\t\t\n      MLOAD \t\t\t\n      PUSH [tag] 687\t\t\t\n      DUP9 \t\t\t\n      DUP3 \t\t\t\n      PUSH [tag] 452\t\t\t\n      JUMP \t\t\t\n    tag 687\t\t\t\n      JUMPDEST \t\t\t\n      SWAP8 \t\t\t\n      POP \t\t\t\n      PUSH [tag] 688\t\t\t\n      DUP4 \t\t\t\n      PUSH [tag] 453\t\t\t\n      JUMP \t\t\t\n    tag 688\t\t\t\n      JUMPDEST \t\t\t\n      SWAP3 \t\t\t\n      POP \t\t\t\n      POP \t\t\t\n      PUSH 1\t\t\t\n      DUP2 \t\t\t\n      ADD \t\t\t\n      SWAP1 \t\t\t\n      POP \t\t\t\n      PUSH [tag] 684\t\t\t\n      JUMP \t\t\t\n    tag 686\t\t\t\n      JUMPDEST \t\t\t\n      POP \t\t\t\n      DUP6 \t\t\t\n      SWAP4 \t\t\t\n      POP \t\t\t\n      POP \t\t\t\n      POP \t\t\t\n      POP \t\t\t\n      SWAP3 \t\t\t\n      SWAP2 \t\t\t\n      POP \t\t\t\n      POP \t\t\t\n      JUMP \t\t\t\n    tag 61\t\t\t\n      JUMPDEST \t\t\t\n      PUSH 0\t\t\t\n      PUSH 20\t\t\t\n      DUP3 \t\t\t\n      ADD \t\t\t\n      SWAP1 \t\t\t\n      POP \t\t\t\n      DUP2 \t\t\t\n      DUP2 \t\t\t\n      SUB \t\t\t\n      PUSH 0\t\t\t\n      DUP4 \t\t\t\n      ADD \t\t\t\n      MSTORE \t\t\t\n      PUSH [tag] 690\t\t\t\n      DUP2 \t\t\t\n      DUP5 \t\t\t\n      PUSH [tag] 454\t\t\t\n      JUMP \t\t\t\n    tag 690\t\t\t\n      JUMPDEST \t\t\t\n      SWAP1 \t\t\t\n      POP \t\t\t\n      SWAP3 \t\t\t\n      SWAP2 \t\t\t\n      POP \t\t\t\n      POP \t\t\t\n      JUMP \t\t\t\n    tag 455\t\t\t\n      JUMPDEST \t\t\t\n      PUSH 0\t\t\t\n      PUSH FFFFFFFFFFFFFFFF\t\t\t\n      DUP3 \t\t\t\n      GT \t\t\t\n      ISZERO \t\t\t\n      PUSH [tag] 692\t\t\t\n      JUMPI \t\t\t\n      PUSH [tag] 693\t\t\t\n      PUSH [tag] 176\t\t\t\n      JUMP \t\t\t\n    tag 693\t\t\t\n      JUMPDEST \t\t\t\n    tag 692\t\t\t\n      JUMPDEST \t\t\t\n      PUSH [tag] 694\t\t\t\n      DUP3 \t\t\t\n      PUSH [tag] 431\t\t\t\n      JUMP \t\t\t\n    tag 694\t\t\t\n      JUMPDEST \t\t\t\n      SWAP1 \t\t\t\n      POP \t\t\t\n      PUSH 20\t\t\t\n      DUP2 \t\t\t\n      ADD \t\t\t\n      SWAP1 \t\t\t\n      POP \t\t\t\n      SWAP2 \t\t\t\n      SWAP1 \t\t\t\n      POP \t\t\t\n      JUMP \t\t\t\n    tag 456\t\t\t\n      JUMPDEST \t\t\t\n      PUSH 0\t\t\t\n      PUSH [tag] 696\t\t\t\n      PUSH [tag] 697\t\t\t\n      DUP5 \t\t\t\n      PUSH [tag] 455\t\t\t\n      JUMP \t\t\t\n    tag 697\t\t\t\n      JUMPDEST \t\t\t\n      PUSH [tag] 435\t\t\t\n      JUMP \t\t\t\n    tag 696\t\t\t\n      JUMPDEST \t\t\t\n      SWAP1 \t\t\t\n      POP \t\t\t\n      DUP3 \t\t\t\n      DUP2 \t\t\t\n      MSTORE \t\t\t\n      PUSH 20\t\t\t\n      DUP2 \t\t\t\n      ADD \t\t\t\n      DUP5 \t\t\t\n      DUP5 \t\t\t\n      DUP5 \t\t\t\n      ADD \t\t\t\n      GT \t\t\t\n      ISZERO \t\t\t\n      PUSH [tag] 698\t\t\t\n      JUMPI \t\t\t\n      PUSH [tag] 699\t\t\t\n      PUSH [tag] 440\t\t\t\n      JUMP \t\t\t\n    tag 699\t\t\t\n      JUMPDEST \t\t\t\n    tag 698\t\t\t\n      JUMPDEST \t\t\t\n      PUSH [tag] 700\t\t\t\n      DUP5 \t\t\t\n      DUP3 \t\t\t\n      DUP6 \t\t\t\n      PUSH [tag] 442\t\t\t\n      JUMP \t\t\t\n    tag 700\t\t\t\n      JUMPDEST \t\t\t\n      POP \t\t\t\n      SWAP4 \t\t\t\n      SWAP3 \t\t\t\n      POP \t\t\t\n      POP \t\t\t\n      POP \t\t\t\n      JUMP \t\t\t\n    tag 457\t\t\t\n      JUMPDEST \t\t\t\n      PUSH 0\t\t\t\n      DUP3 \t\t\t\n      PUSH 1F\t\t\t\n      DUP4 \t\t\t\n      ADD \t\t\t\n      SLT \t\t\t\n      PUSH [tag] 702\t\t\t\n      JUMPI \t\t\t\n      PUSH [tag] 703\t\t\t\n      PUSH [tag] 433\t\t\t\n      JUMP \t\t\t\n    tag 703\t\t\t\n      JUMPDEST \t\t\t\n    tag 702\t\t\t\n      JUMPDEST \t\t\t\n      DUP2 \t\t\t\n      CALLDATALOAD \t\t\t\n      PUSH [tag] 704\t\t\t\n      DUP5 \t\t\t\n      DUP3 \t\t\t\n      PUSH 20\t\t\t\n      DUP7 \t\t\t\n      ADD \t\t\t\n      PUSH [tag] 456\t\t\t\n      JUMP \t\t\t\n    tag 704\t\t\t\n      JUMPDEST \t\t\t\n      SWAP2 \t\t\t\n      POP \t\t\t\n      POP \t\t\t\n      SWAP3 \t\t\t\n      SWAP2 \t\t\t\n      POP \t\t\t\n      POP \t\t\t\n      JUMP \t\t\t\n    tag 69\t\t\t\n      JUMPDEST \t\t\t\n      PUSH 0\t\t\t\n      DUP1 \t\t\t\n      PUSH 0\t\t\t\n      PUSH 60\t\t\t\n      DUP5 \t\t\t\n      DUP7 \t\t\t\n      SUB \t\t\t\n      SLT \t\t\t\n      ISZERO \t\t\t\n      PUSH [tag] 706\t\t\t\n      JUMPI \t\t\t\n      PUSH [tag] 707\t\t\t\n      PUSH [tag] 413\t\t\t\n      JUMP \t\t\t\n    tag 707\t\t\t\n      JUMPDEST \t\t\t\n    tag 706\t\t\t\n      JUMPDEST \t\t\t\n      PUSH 0\t\t\t\n      DUP5 \t\t\t\n      ADD \t\t\t\n      CALLDATALOAD \t\t\t\n      PUSH FFFFFFFFFFFFFFFF\t\t\t\n      DUP2 \t\t\t\n      GT \t\t\t\n      ISZERO \t\t\t\n      PUSH [tag] 708\t\t\t\n      JUMPI \t\t\t\n      PUSH [tag] 709\t\t\t\n      PUSH [tag] 414\t\t\t\n      JUMP \t\t\t\n    tag 709\t\t\t\n      JUMPDEST \t\t\t\n    tag 708\t\t\t\n      JUMPDEST \t\t\t\n      PUSH [tag] 710\t\t\t\n      DUP7 \t\t\t\n      DUP3 \t\t\t\n      DUP8 \t\t\t\n      ADD \t\t\t\n      PUSH [tag] 457\t\t\t\n      JUMP \t\t\t\n    tag 710\t\t\t\n      JUMPDEST \t\t\t\n      SWAP4 \t\t\t\n      POP \t\t\t\n      POP \t\t\t\n      PUSH 20\t\t\t\n      PUSH [tag] 711\t\t\t\n      DUP7 \t\t\t\n      DUP3 \t\t\t\n      DUP8 \t\t\t\n      ADD \t\t\t\n      PUSH [tag] 421\t\t\t\n      JUMP \t\t\t\n    tag 711\t\t\t\n      JUMPDEST \t\t\t\n      SWAP3 \t\t\t\n      POP \t\t\t\n      POP \t\t\t\n      PUSH 40\t\t\t\n      PUSH [tag] 712\t\t\t\n      DUP7 \t\t\t\n      DUP3 \t\t\t\n      DUP8 \t\t\t\n      ADD \t\t\t\n      PUSH [tag] 421\t\t\t\n      JUMP \t\t\t\n    tag 712\t\t\t\n      JUMPDEST \t\t\t\n      SWAP2 \t\t\t\n      POP \t\t\t\n      POP \t\t\t\n      SWAP3 \t\t\t\n      POP \t\t\t\n      SWAP3 \t\t\t\n      POP \t\t\t\n      SWAP3 \t\t\t\n      JUMP \t\t\t\n    tag 458\t\t\t\n      JUMPDEST \t\t\t\n      PUSH [tag] 714\t\t\t\n      DUP2 \t\t\t\n      PUSH [tag] 416\t\t\t\n      JUMP \t\t\t\n    tag 714\t\t\t\n      JUMPDEST \t\t\t\n      DUP3 \t\t\t\n      MSTORE \t\t\t\n      POP \t\t\t\n      POP \t\t\t\n      JUMP \t\t\t\n    tag 82\t\t\t\n      JUMPDEST \t\t\t\n      PUSH 0\t\t\t\n      PUSH 20\t\t\t\n      DUP3 \t\t\t\n      ADD \t\t\t\n      SWAP1 \t\t\t\n      POP \t\t\t\n      PUSH [tag] 716\t\t\t\n      PUSH 0\t\t\t\n      DUP4 \t\t\t\n      ADD \t\t\t\n      DUP5 \t\t\t\n      PUSH [tag] 458\t\t\t\n      JUMP \t\t\t\n    tag 716\t\t\t\n      JUMPDEST \t\t\t\n      SWAP3 \t\t\t\n      SWAP2 \t\t\t\n      POP \t\t\t\n      POP \t\t\t\n      JUMP \t\t\t\n    tag 459\t\t\t\n      JUMPDEST \t\t\t\n      PUSH 0\t\t\t\n      DUP3 \t\t\t\n      DUP3 \t\t\t\n      MSTORE \t\t\t\n      PUSH 20\t\t\t\n      DUP3 \t\t\t\n      ADD \t\t\t\n      SWAP1 \t\t\t\n      POP \t\t\t\n      SWAP3 \t\t\t\n      SWAP2 \t\t\t\n      POP \t\t\t\n      POP \t\t\t\n      JUMP \t\t\t\n    tag 460\t\t\t\n      JUMPDEST \t\t\t\n      PUSH 0\t\t\t\n      PUSH [tag] 719\t\t\t\n      DUP3 \t\t\t\n      PUSH [tag] 428\t\t\t\n      JUMP \t\t\t\n    tag 719\t\t\t\n      JUMPDEST \t\t\t\n      PUSH [tag] 720\t\t\t\n      DUP2 \t\t\t\n      DUP6 \t\t\t\n      PUSH [tag] 459\t\t\t\n      JUMP \t\t\t\n    tag 720\t\t\t\n      JUMPDEST \t\t\t\n      SWAP4 \t\t\t\n      POP \t\t\t\n      PUSH [tag] 721\t\t\t\n      DUP2 \t\t\t\n      DUP6 \t\t\t\n      PUSH 20\t\t\t\n      DUP7 \t\t\t\n      ADD \t\t\t\n      PUSH [tag] 430\t\t\t\n      JUMP \t\t\t\n    tag 721\t\t\t\n      JUMPDEST \t\t\t\n      PUSH [tag] 722\t\t\t\n      DUP2 \t\t\t\n      PUSH [tag] 431\t\t\t\n      JUMP \t\t\t\n    tag 722\t\t\t\n      JUMPDEST \t\t\t\n      DUP5 \t\t\t\n      ADD \t\t\t\n      SWAP2 \t\t\t\n      POP \t\t\t\n      POP \t\t\t\n      SWAP3 \t\t\t\n      SWAP2 \t\t\t\n      POP \t\t\t\n      POP \t\t\t\n      JUMP \t\t\t\n    tag 461\t\t\t\n      JUMPDEST \t\t\t\n      PUSH [tag] 724\t\t\t\n      DUP2 \t\t\t\n      PUSH [tag] 416\t\t\t\n      JUMP \t\t\t\n    tag 724\t\t\t\n      JUMPDEST \t\t\t\n      DUP3 \t\t\t\n      MSTORE \t\t\t\n      POP \t\t\t\n      POP \t\t\t\n      JUMP \t\t\t\n    tag 462\t\t\t\n      JUMPDEST \t\t\t\n      PUSH 0\t\t\t\n      PUSH A0\t\t\t\n      DUP4 \t\t\t\n      ADD \t\t\t\n      PUSH 0\t\t\t\n      DUP4 \t\t\t\n      ADD \t\t\t\n      MLOAD \t\t\t\n      PUSH [tag] 726\t\t\t\n      PUSH 0\t\t\t\n      DUP7 \t\t\t\n      ADD \t\t\t\n      DUP3 \t\t\t\n      PUSH [tag] 451\t\t\t\n      JUMP \t\t\t\n    tag 726\t\t\t\n      JUMPDEST \t\t\t\n      POP \t\t\t\n      PUSH 20\t\t\t\n      DUP4 \t\t\t\n      ADD \t\t\t\n      MLOAD \t\t\t\n      DUP5 \t\t\t\n      DUP3 \t\t\t\n      SUB \t\t\t\n      PUSH 20\t\t\t\n      DUP7 \t\t\t\n      ADD \t\t\t\n      MSTORE \t\t\t\n      PUSH [tag] 727\t\t\t\n      DUP3 \t\t\t\n      DUP3 \t\t\t\n      PUSH [tag] 460\t\t\t\n      JUMP \t\t\t\n    tag 727\t\t\t\n      JUMPDEST \t\t\t\n      SWAP2 \t\t\t\n      POP \t\t\t\n      POP \t\t\t\n      PUSH 40\t\t\t\n      DUP4 \t\t\t\n      ADD \t\t\t\n      MLOAD \t\t\t\n      PUSH [tag] 728\t\t\t\n      PUSH 40\t\t\t\n      DUP7 \t\t\t\n      ADD \t\t\t\n      DUP3 \t\t\t\n      PUSH [tag] 451\t\t\t\n      JUMP \t\t\t\n    tag 728\t\t\t\n      JUMPDEST \t\t\t\n      POP \t\t\t\n      PUSH 60\t\t\t\n      DUP4 \t\t\t\n      ADD \t\t\t\n      MLOAD \t\t\t\n      PUSH [tag] 729\t\t\t\n      PUSH 60\t\t\t\n      DUP7 \t\t\t\n      ADD \t\t\t\n      DUP3 \t\t\t\n      PUSH [tag] 451\t\t\t\n      JUMP \t\t\t\n    tag 729\t\t\t\n      JUMPDEST \t\t\t\n      POP \t\t\t\n      PUSH 80\t\t\t\n      DUP4 \t\t\t\n      ADD \t\t\t\n      MLOAD \t\t\t\n      PUSH [tag] 730\t\t\t\n      PUSH 80\t\t\t\n      DUP7 \t\t\t\n      ADD \t\t\t\n      DUP3 \t\t\t\n      PUSH [tag] 461\t\t\t\n      JUMP \t\t\t\n    tag 730\t\t\t\n      JUMPDEST \t\t\t\n      POP \t\t\t\n      DUP1 \t\t\t\n      SWAP2 \t\t\t\n      POP \t\t\t\n      POP \t\t\t\n      SWAP3 \t\t\t\n      SWAP2 \t\t\t\n      POP \t\t\t\n      POP \t\t\t\n      JUMP \t\t\t\n    tag 88\t\t\t\n      JUMPDEST \t\t\t\n      PUSH 0\t\t\t\n      PUSH 20\t\t\t\n      DUP3 \t\t\t\n      ADD \t\t\t\n      SWAP1 \t\t\t\n      POP \t\t\t\n      DUP2 \t\t\t\n      DUP2 \t\t\t\n      SUB \t\t\t\n      PUSH 0\t\t\t\n      DUP4 \t\t\t\n      ADD \t\t\t\n      MSTORE \t\t\t\n      PUSH [tag] 732\t\t\t\n      DUP2 \t\t\t\n      DUP5 \t\t\t\n      PUSH [tag] 462\t\t\t\n      JUMP \t\t\t\n    tag 732\t\t\t\n      JUMPDEST \t\t\t\n      SWAP1 \t\t\t\n      POP \t\t\t\n      SWAP3 \t\t\t\n      SWAP2 \t\t\t\n      POP \t\t\t\n      POP \t\t\t\n      JUMP \t\t\t\n    tag 463\t\t\t\n      JUMPDEST \t\t\t\n      PUSH [tag] 734\t\t\t\n      DUP2 \t\t\t\n      PUSH [tag] 426\t\t\t\n      JUMP \t\t\t\n    tag 734\t\t\t\n      JUMPDEST \t\t\t\n      DUP2 \t\t\t\n      EQ \t\t\t\n      PUSH [tag] 735\t\t\t\n      JUMPI \t\t\t\n      PUSH 0\t\t\t\n      DUP1 \t\t\t\n      REVERT \t\t\t\n    tag 735\t\t\t\n      JUMPDEST \t\t\t\n      POP \t\t\t\n      JUMP \t\t\t\n    tag 464\t\t\t\n      JUMPDEST \t\t\t\n      PUSH 0\t\t\t\n      DUP2 \t\t\t\n      CALLDATALOAD \t\t\t\n      SWAP1 \t\t\t\n      POP \t\t\t\n      PUSH [tag] 737\t\t\t\n      DUP2 \t\t\t\n      PUSH [tag] 463\t\t\t\n      JUMP \t\t\t\n    tag 737\t\t\t\n      JUMPDEST \t\t\t\n      SWAP3 \t\t\t\n      SWAP2 \t\t\t\n      POP \t\t\t\n      POP \t\t\t\n      JUMP \t\t\t\n    tag 92\t\t\t\n      JUMPDEST \t\t\t\n      PUSH 0\t\t\t\n      DUP1 \t\t\t\n      PUSH 40\t\t\t\n      DUP4 \t\t\t\n      DUP6 \t\t\t\n      SUB \t\t\t\n      SLT \t\t\t\n      ISZERO \t\t\t\n      PUSH [tag] 739\t\t\t\n      JUMPI \t\t\t\n      PUSH [tag] 740\t\t\t\n      PUSH [tag] 413\t\t\t\n      JUMP \t\t\t\n    tag 740\t\t\t\n      JUMPDEST \t\t\t\n    tag 739\t\t\t\n      JUMPDEST \t\t\t\n      PUSH 0\t\t\t\n      PUSH [tag] 741\t\t\t\n      DUP6 \t\t\t\n      DUP3 \t\t\t\n      DUP7 \t\t\t\n      ADD \t\t\t\n      PUSH [tag] 418\t\t\t\n      JUMP \t\t\t\n    tag 741\t\t\t\n      JUMPDEST \t\t\t\n      SWAP3 \t\t\t\n      POP \t\t\t\n      POP \t\t\t\n      PUSH 20\t\t\t\n      PUSH [tag] 742\t\t\t\n      DUP6 \t\t\t\n      DUP3 \t\t\t\n      DUP7 \t\t\t\n      ADD \t\t\t\n      PUSH [tag] 464\t\t\t\n      JUMP \t\t\t\n    tag 742\t\t\t\n      JUMPDEST \t\t\t\n      SWAP2 \t\t\t\n      POP \t\t\t\n      POP \t\t\t\n      SWAP3 \t\t\t\n      POP \t\t\t\n      SWAP3 \t\t\t\n      SWAP1 \t\t\t\n      POP \t\t\t\n      JUMP \t\t\t\n    tag 101\t\t\t\n      JUMPDEST \t\t\t\n      PUSH 0\t\t\t\n      PUSH 20\t\t\t\n      DUP3 \t\t\t\n      DUP5 \t\t\t\n      SUB \t\t\t\n      SLT \t\t\t\n      ISZERO \t\t\t\n      PUSH [tag] 744\t\t\t\n      JUMPI \t\t\t\n      PUSH [tag] 745\t\t\t\n      PUSH [tag] 413\t\t\t\n      JUMP \t\t\t\n    tag 745\t\t\t\n      JUMPDEST \t\t\t\n    tag 744\t\t\t\n      JUMPDEST \t\t\t\n      PUSH 0\t\t\t\n      DUP3 \t\t\t\n      ADD \t\t\t\n      CALLDATALOAD \t\t\t\n      PUSH FFFFFFFFFFFFFFFF\t\t\t\n      DUP2 \t\t\t\n      GT \t\t\t\n      ISZERO \t\t\t\n      PUSH [tag] 746\t\t\t\n      JUMPI \t\t\t\n      PUSH [tag] 747\t\t\t\n      PUSH [tag] 414\t\t\t\n      JUMP \t\t\t\n    tag 747\t\t\t\n      JUMPDEST \t\t\t\n    tag 746\t\t\t\n      JUMPDEST \t\t\t\n      PUSH [tag] 748\t\t\t\n      DUP5 \t\t\t\n      DUP3 \t\t\t\n      DUP6 \t\t\t\n      ADD \t\t\t\n      PUSH [tag] 457\t\t\t\n      JUMP \t\t\t\n    tag 748\t\t\t\n      JUMPDEST \t\t\t\n      SWAP2 \t\t\t\n      POP \t\t\t\n      POP \t\t\t\n      SWAP3 \t\t\t\n      SWAP2 \t\t\t\n      POP \t\t\t\n      POP \t\t\t\n      JUMP \t\t\t\n    tag 111\t\t\t\n      JUMPDEST \t\t\t\n      PUSH 0\t\t\t\n      DUP1 \t\t\t\n      PUSH 40\t\t\t\n      DUP4 \t\t\t\n      DUP6 \t\t\t\n      SUB \t\t\t\n      SLT \t\t\t\n      ISZERO \t\t\t\n      PUSH [tag] 750\t\t\t\n      JUMPI \t\t\t\n      PUSH [tag] 751\t\t\t\n      PUSH [tag] 413\t\t\t\n      JUMP \t\t\t\n    tag 751\t\t\t\n      JUMPDEST \t\t\t\n    tag 750\t\t\t\n      JUMPDEST \t\t\t\n      PUSH 0\t\t\t\n      PUSH [tag] 752\t\t\t\n      DUP6 \t\t\t\n      DUP3 \t\t\t\n      DUP7 \t\t\t\n      ADD \t\t\t\n      PUSH [tag] 418\t\t\t\n      JUMP \t\t\t\n    tag 752\t\t\t\n      JUMPDEST \t\t\t\n      SWAP3 \t\t\t\n      POP \t\t\t\n      POP \t\t\t\n      PUSH 20\t\t\t\n      PUSH [tag] 753\t\t\t\n      DUP6 \t\t\t\n      DUP3 \t\t\t\n      DUP7 \t\t\t\n      ADD \t\t\t\n      PUSH [tag] 418\t\t\t\n      JUMP \t\t\t\n    tag 753\t\t\t\n      JUMPDEST \t\t\t\n      SWAP2 \t\t\t\n      POP \t\t\t\n      POP \t\t\t\n      SWAP3 \t\t\t\n      POP \t\t\t\n      SWAP3 \t\t\t\n      SWAP1 \t\t\t\n      POP \t\t\t\n      JUMP \t\t\t\n    tag 117\t\t\t\n      JUMPDEST \t\t\t\n      PUSH 0\t\t\t\n      DUP1 \t\t\t\n      PUSH 0\t\t\t\n      DUP1 \t\t\t\n      PUSH 0\t\t\t\n      PUSH A0\t\t\t\n      DUP7 \t\t\t\n      DUP9 \t\t\t\n      SUB \t\t\t\n      SLT \t\t\t\n      ISZERO \t\t\t\n      PUSH [tag] 755\t\t\t\n      JUMPI \t\t\t\n      PUSH [tag] 756\t\t\t\n      PUSH [tag] 413\t\t\t\n      JUMP \t\t\t\n    tag 756\t\t\t\n      JUMPDEST \t\t\t\n    tag 755\t\t\t\n      JUMPDEST \t\t\t\n      PUSH 0\t\t\t\n      PUSH [tag] 757\t\t\t\n      DUP9 \t\t\t\n      DUP3 \t\t\t\n      DUP10 \t\t\t\n      ADD \t\t\t\n      PUSH [tag] 418\t\t\t\n      JUMP \t\t\t\n    tag 757\t\t\t\n      JUMPDEST \t\t\t\n      SWAP6 \t\t\t\n      POP \t\t\t\n      POP \t\t\t\n      PUSH 20\t\t\t\n      PUSH [tag] 758\t\t\t\n      DUP9 \t\t\t\n      DUP3 \t\t\t\n      DUP10 \t\t\t\n      ADD \t\t\t\n      PUSH [tag] 418\t\t\t\n      JUMP \t\t\t\n    tag 758\t\t\t\n      JUMPDEST \t\t\t\n      SWAP5 \t\t\t\n      POP \t\t\t\n      POP \t\t\t\n      PUSH 40\t\t\t\n      PUSH [tag] 759\t\t\t\n      DUP9 \t\t\t\n      DUP3 \t\t\t\n      DUP10 \t\t\t\n      ADD \t\t\t\n      PUSH [tag] 421\t\t\t\n      JUMP \t\t\t\n    tag 759\t\t\t\n      JUMPDEST \t\t\t\n      SWAP4 \t\t\t\n      POP \t\t\t\n      POP \t\t\t\n      PUSH 60\t\t\t\n      PUSH [tag] 760\t\t\t\n      DUP9 \t\t\t\n      DUP3 \t\t\t\n      DUP10 \t\t\t\n      ADD \t\t\t\n      PUSH [tag] 421\t\t\t\n      JUMP \t\t\t\n    tag 760\t\t\t\n      JUMPDEST \t\t\t\n      SWAP3 \t\t\t\n      POP \t\t\t\n      POP \t\t\t\n      PUSH 80\t\t\t\n      DUP7 \t\t\t\n      ADD \t\t\t\n      CALLDATALOAD \t\t\t\n      PUSH FFFFFFFFFFFFFFFF\t\t\t\n      DUP2 \t\t\t\n      GT \t\t\t\n      ISZERO \t\t\t\n      PUSH [tag] 761\t\t\t\n      JUMPI \t\t\t\n      PUSH [tag] 762\t\t\t\n      PUSH [tag] 414\t\t\t\n      JUMP \t\t\t\n    tag 762\t\t\t\n      JUMPDEST \t\t\t\n    tag 761\t\t\t\n      JUMPDEST \t\t\t\n      PUSH [tag] 763\t\t\t\n      DUP9 \t\t\t\n      DUP3 \t\t\t\n      DUP10 \t\t\t\n      ADD \t\t\t\n      PUSH [tag] 444\t\t\t\n      JUMP \t\t\t\n    tag 763\t\t\t\n      JUMPDEST \t\t\t\n      SWAP2 \t\t\t\n      POP \t\t\t\n      POP \t\t\t\n      SWAP3 \t\t\t\n      SWAP6 \t\t\t\n      POP \t\t\t\n      SWAP3 \t\t\t\n      SWAP6 \t\t\t\n      SWAP1 \t\t\t\n      SWAP4 \t\t\t\n      POP \t\t\t\n      JUMP \t\t\t\n    tag 465\t\t\t\n      JUMPDEST \t\t\t\n      PUSH [tag] 765\t\t\t\n      DUP2 \t\t\t\n      PUSH [tag] 423\t\t\t\n      JUMP \t\t\t\n    tag 765\t\t\t\n      JUMPDEST \t\t\t\n      DUP3 \t\t\t\n      MSTORE \t\t\t\n      POP \t\t\t\n      POP \t\t\t\n      JUMP \t\t\t\n    tag 120\t\t\t\n      JUMPDEST \t\t\t\n      PUSH 0\t\t\t\n      PUSH 20\t\t\t\n      DUP3 \t\t\t\n      ADD \t\t\t\n      SWAP1 \t\t\t\n      POP \t\t\t\n      PUSH [tag] 767\t\t\t\n      PUSH 0\t\t\t\n      DUP4 \t\t\t\n      ADD \t\t\t\n      DUP5 \t\t\t\n      PUSH [tag] 465\t\t\t\n      JUMP \t\t\t\n    tag 767\t\t\t\n      JUMPDEST \t\t\t\n      SWAP3 \t\t\t\n      SWAP2 \t\t\t\n      POP \t\t\t\n      POP \t\t\t\n      JUMP \t\t\t\n    tag 128\t\t\t\n      JUMPDEST \t\t\t\n      PUSH 0\t\t\t\n      PUSH 20\t\t\t\n      DUP3 \t\t\t\n      DUP5 \t\t\t\n      SUB \t\t\t\n      SLT \t\t\t\n      ISZERO \t\t\t\n      PUSH [tag] 769\t\t\t\n      JUMPI \t\t\t\n      PUSH [tag] 770\t\t\t\n      PUSH [tag] 413\t\t\t\n      JUMP \t\t\t\n    tag 770\t\t\t\n      JUMPDEST \t\t\t\n    tag 769\t\t\t\n      JUMPDEST \t\t\t\n      PUSH 0\t\t\t\n      PUSH [tag] 771\t\t\t\n      DUP5 \t\t\t\n      DUP3 \t\t\t\n      DUP6 \t\t\t\n      ADD \t\t\t\n      PUSH [tag] 418\t\t\t\n      JUMP \t\t\t\n    tag 771\t\t\t\n      JUMPDEST \t\t\t\n      SWAP2 \t\t\t\n      POP \t\t\t\n      POP \t\t\t\n      SWAP3 \t\t\t\n      SWAP2 \t\t\t\n      POP \t\t\t\n      POP \t\t\t\n      JUMP \t\t\t\n    tag 466\t\t\t\n      JUMPDEST \t\t\t\n      PUSH 455243313135353A2062616C616E636520717565727920666F7220746865207A\t\t\t\n      PUSH 0\t\t\t\n      DUP3 \t\t\t\n      ADD \t\t\t\n      MSTORE \t\t\t\n      PUSH 65726F2061646472657373000000000000000000000000000000000000000000\t\t\t\n      PUSH 20\t\t\t\n      DUP3 \t\t\t\n      ADD \t\t\t\n      MSTORE \t\t\t\n      POP \t\t\t\n      JUMP \t\t\t\n    tag 467\t\t\t\n      JUMPDEST \t\t\t\n      PUSH 0\t\t\t\n      PUSH [tag] 774\t\t\t\n      PUSH 2B\t\t\t\n      DUP4 \t\t\t\n      PUSH [tag] 429\t\t\t\n      JUMP \t\t\t\n    tag 774\t\t\t\n      JUMPDEST \t\t\t\n      SWAP2 \t\t\t\n      POP \t\t\t\n      PUSH [tag] 775\t\t\t\n      DUP3 \t\t\t\n      PUSH [tag] 466\t\t\t\n      JUMP \t\t\t\n    tag 775\t\t\t\n      JUMPDEST \t\t\t\n      PUSH 40\t\t\t\n      DUP3 \t\t\t\n      ADD \t\t\t\n      SWAP1 \t\t\t\n      POP \t\t\t\n      SWAP2 \t\t\t\n      SWAP1 \t\t\t\n      POP \t\t\t\n      JUMP \t\t\t\n    tag 133\t\t\t\n      JUMPDEST \t\t\t\n      PUSH 0\t\t\t\n      PUSH 20\t\t\t\n      DUP3 \t\t\t\n      ADD \t\t\t\n      SWAP1 \t\t\t\n      POP \t\t\t\n      DUP2 \t\t\t\n      DUP2 \t\t\t\n      SUB \t\t\t\n      PUSH 0\t\t\t\n      DUP4 \t\t\t\n      ADD \t\t\t\n      MSTORE \t\t\t\n      PUSH [tag] 777\t\t\t\n      DUP2 \t\t\t\n      PUSH [tag] 467\t\t\t\n      JUMP \t\t\t\n    tag 777\t\t\t\n      JUMPDEST \t\t\t\n      SWAP1 \t\t\t\n      POP \t\t\t\n      SWAP2 \t\t\t\n      SWAP1 \t\t\t\n      POP \t\t\t\n      JUMP \t\t\t\n    tag 468\t\t\t\n      JUMPDEST \t\t\t\n      PUSH 4E487B7100000000000000000000000000000000000000000000000000000000\t\t\t\n      PUSH 0\t\t\t\n      MSTORE \t\t\t\n      PUSH 22\t\t\t\n      PUSH 4\t\t\t\n      MSTORE \t\t\t\n      PUSH 24\t\t\t\n      PUSH 0\t\t\t\n      REVERT \t\t\t\n    tag 192\t\t\t\n      JUMPDEST \t\t\t\n      PUSH 0\t\t\t\n      PUSH 2\t\t\t\n      DUP3 \t\t\t\n      DIV \t\t\t\n      SWAP1 \t\t\t\n      POP \t\t\t\n      PUSH 1\t\t\t\n      DUP3 \t\t\t\n      AND \t\t\t\n      DUP1 \t\t\t\n      PUSH [tag] 780\t\t\t\n      JUMPI \t\t\t\n      PUSH 7F\t\t\t\n      DUP3 \t\t\t\n      AND \t\t\t\n      SWAP2 \t\t\t\n      POP \t\t\t\n    tag 780\t\t\t\n      JUMPDEST \t\t\t\n      PUSH 20\t\t\t\n      DUP3 \t\t\t\n      LT \t\t\t\n      DUP2 \t\t\t\n      SUB \t\t\t\n      PUSH [tag] 781\t\t\t\n      JUMPI \t\t\t\n      PUSH [tag] 782\t\t\t\n      PUSH [tag] 468\t\t\t\n      JUMP \t\t\t\n    tag 782\t\t\t\n      JUMPDEST \t\t\t\n    tag 781\t\t\t\n      JUMPDEST \t\t\t\n      POP \t\t\t\n      SWAP2 \t\t\t\n      SWAP1 \t\t\t\n      POP \t\t\t\n      JUMP \t\t\t\n    tag 469\t\t\t\n      JUMPDEST \t\t\t\n      PUSH 0\t\t\t\n      DUP2 \t\t\t\n      SWAP1 \t\t\t\n      POP \t\t\t\n      SWAP3 \t\t\t\n      SWAP2 \t\t\t\n      POP \t\t\t\n      POP \t\t\t\n      JUMP \t\t\t\n    tag 470\t\t\t\n      JUMPDEST \t\t\t\n      PUSH 0\t\t\t\n      DUP2 \t\t\t\n      SWAP1 \t\t\t\n      POP \t\t\t\n      DUP2 \t\t\t\n      PUSH 0\t\t\t\n      MSTORE \t\t\t\n      PUSH 20\t\t\t\n      PUSH 0\t\t\t\n      KECCAK256 \t\t\t\n      SWAP1 \t\t\t\n      POP \t\t\t\n      SWAP2 \t\t\t\n      SWAP1 \t\t\t\n      POP \t\t\t\n      JUMP \t\t\t\n    tag 471\t\t\t\n      JUMPDEST \t\t\t\n      PUSH 0\t\t\t\n      DUP2 \t\t\t\n      SLOAD \t\t\t\n      PUSH [tag] 786\t\t\t\n      DUP2 \t\t\t\n      PUSH [tag] 192\t\t\t\n      JUMP \t\t\t\n    tag 786\t\t\t\n      JUMPDEST \t\t\t\n      PUSH [tag] 787\t\t\t\n      DUP2 \t\t\t\n      DUP7 \t\t\t\n      PUSH [tag] 469\t\t\t\n      JUMP \t\t\t\n    tag 787\t\t\t\n      JUMPDEST \t\t\t\n      SWAP5 \t\t\t\n      POP \t\t\t\n      PUSH 1\t\t\t\n      DUP3 \t\t\t\n      AND \t\t\t\n      PUSH 0\t\t\t\n      DUP2 \t\t\t\n      EQ \t\t\t\n      PUSH [tag] 789\t\t\t\n      JUMPI \t\t\t\n      PUSH 1\t\t\t\n      DUP2 \t\t\t\n      EQ \t\t\t\n      PUSH [tag] 790\t\t\t\n      JUMPI \t\t\t\n      PUSH [tag] 788\t\t\t\n      JUMP \t\t\t\n    tag 789\t\t\t\n      JUMPDEST \t\t\t\n      PUSH FF\t\t\t\n      NOT \t\t\t\n      DUP4 \t\t\t\n      AND \t\t\t\n      DUP7 \t\t\t\n      MSTORE \t\t\t\n      DUP2 \t\t\t\n      ISZERO \t\t\t\n      ISZERO \t\t\t\n      DUP3 \t\t\t\n      MUL \t\t\t\n      DUP7 \t\t\t\n      ADD \t\t\t\n      SWAP4 \t\t\t\n      POP \t\t\t\n      PUSH [tag] 788\t\t\t\n      JUMP \t\t\t\n    tag 790\t\t\t\n      JUMPDEST \t\t\t\n      PUSH [tag] 791\t\t\t\n      DUP6 \t\t\t\n      PUSH [tag] 470\t\t\t\n      JUMP \t\t\t\n    tag 791\t\t\t\n      JUMPDEST \t\t\t\n      PUSH 0\t\t\t\n    tag 792\t\t\t\n      JUMPDEST \t\t\t\n      DUP4 \t\t\t\n      DUP2 \t\t\t\n      LT \t\t\t\n      ISZERO \t\t\t\n      PUSH [tag] 794\t\t\t\n      JUMPI \t\t\t\n      DUP2 \t\t\t\n      SLOAD \t\t\t\n      DUP2 \t\t\t\n      DUP10 \t\t\t\n      ADD \t\t\t\n      MSTORE \t\t\t\n      PUSH 1\t\t\t\n      DUP3 \t\t\t\n      ADD \t\t\t\n      SWAP2 \t\t\t\n      POP \t\t\t\n      PUSH 20\t\t\t\n      DUP2 \t\t\t\n      ADD \t\t\t\n      SWAP1 \t\t\t\n      POP \t\t\t\n      PUSH [tag] 792\t\t\t\n      JUMP \t\t\t\n    tag 794\t\t\t\n      JUMPDEST \t\t\t\n      DUP4 \t\t\t\n      DUP9 \t\t\t\n      ADD \t\t\t\n      SWAP6 \t\t\t\n      POP \t\t\t\n      POP \t\t\t\n      POP \t\t\t\n    tag 788\t\t\t\n      JUMPDEST \t\t\t\n      POP \t\t\t\n      POP \t\t\t\n      POP \t\t\t\n      SWAP3 \t\t\t\n      SWAP2 \t\t\t\n      POP \t\t\t\n      POP \t\t\t\n      JUMP \t\t\t\n    tag 141\t\t\t\n      JUMPDEST \t\t\t\n      PUSH 0\t\t\t\n      PUSH [tag] 796\t\t\t\n      DUP3 \t\t\t\n      DUP6 \t\t\t\n      PUSH [tag] 471\t\t\t\n      JUMP \t\t\t\n    tag 796\t\t\t\n      JUMPDEST \t\t\t\n      SWAP2 \t\t\t\n      POP \t\t\t\n      PUSH [tag] 797\t\t\t\n      DUP3 \t\t\t\n      DUP5 \t\t\t\n      PUSH [tag] 471\t\t\t\n      JUMP \t\t\t\n    tag 797\t\t\t\n      JUMPDEST \t\t\t\n      SWAP2 \t\t\t\n      POP \t\t\t\n      DUP2 \t\t\t\n      SWAP1 \t\t\t\n      POP \t\t\t\n      SWAP4 \t\t\t\n      SWAP3 \t\t\t\n      POP \t\t\t\n      POP \t\t\t\n      POP \t\t\t\n      JUMP \t\t\t\n    tag 472\t\t\t\n      JUMPDEST \t\t\t\n      PUSH 4E487B7100000000000000000000000000000000000000000000000000000000\t\t\t\n      PUSH 0\t\t\t\n      MSTORE \t\t\t\n      PUSH 11\t\t\t\n      PUSH 4\t\t\t\n      MSTORE \t\t\t\n      PUSH 24\t\t\t\n      PUSH 0\t\t\t\n      REVERT \t\t\t\n    tag 144\t\t\t\n      JUMPDEST \t\t\t\n      PUSH 0\t\t\t\n      PUSH [tag] 800\t\t\t\n      DUP3 \t\t\t\n      PUSH [tag] 419\t\t\t\n      JUMP \t\t\t\n    tag 800\t\t\t\n      JUMPDEST \t\t\t\n      SWAP2 \t\t\t\n      POP \t\t\t\n      PUSH [tag] 801\t\t\t\n      DUP4 \t\t\t\n      PUSH [tag] 419\t\t\t\n      JUMP \t\t\t\n    tag 801\t\t\t\n      JUMPDEST \t\t\t\n      SWAP3 \t\t\t\n      POP \t\t\t\n      DUP3 \t\t\t\n      DUP3 \t\t\t\n      MUL \t\t\t\n      PUSH [tag] 802\t\t\t\n      DUP2 \t\t\t\n      PUSH [tag] 419\t\t\t\n      JUMP \t\t\t\n    tag 802\t\t\t\n      JUMPDEST \t\t\t\n      SWAP2 \t\t\t\n      POP \t\t\t\n      DUP3 \t\t\t\n      DUP3 \t\t\t\n      DIV \t\t\t\n      DUP5 \t\t\t\n      EQ \t\t\t\n      DUP4 \t\t\t\n      ISZERO \t\t\t\n      OR \t\t\t\n      PUSH [tag] 803\t\t\t\n      JUMPI \t\t\t\n      PUSH [tag] 804\t\t\t\n      PUSH [tag] 472\t\t\t\n      JUMP \t\t\t\n    tag 804\t\t\t\n      JUMPDEST \t\t\t\n    tag 803\t\t\t\n      JUMPDEST \t\t\t\n      POP \t\t\t\n      SWAP3 \t\t\t\n      SWAP2 \t\t\t\n      POP \t\t\t\n      POP \t\t\t\n      JUMP \t\t\t\n    tag 473\t\t\t\n      JUMPDEST \t\t\t\n      PUSH 6B6F206475206E66740000000000000000000000000000000000000000000000\t\t\t\n      PUSH 0\t\t\t\n      DUP3 \t\t\t\n      ADD \t\t\t\n      MSTORE \t\t\t\n      POP \t\t\t\n      JUMP \t\t\t\n    tag 474\t\t\t\n      JUMPDEST \t\t\t\n      PUSH 0\t\t\t\n      PUSH [tag] 807\t\t\t\n      PUSH 9\t\t\t\n      DUP4 \t\t\t\n      PUSH [tag] 429\t\t\t\n      JUMP \t\t\t\n    tag 807\t\t\t\n      JUMPDEST \t\t\t\n      SWAP2 \t\t\t\n      POP \t\t\t\n      PUSH [tag] 808\t\t\t\n      DUP3 \t\t\t\n      PUSH [tag] 473\t\t\t\n      JUMP \t\t\t\n    tag 808\t\t\t\n      JUMPDEST \t\t\t\n      PUSH 20\t\t\t\n      DUP3 \t\t\t\n      ADD \t\t\t\n      SWAP1 \t\t\t\n      POP \t\t\t\n      SWAP2 \t\t\t\n      SWAP1 \t\t\t\n      POP \t\t\t\n      JUMP \t\t\t\n    tag 147\t\t\t\n      JUMPDEST \t\t\t\n      PUSH 0\t\t\t\n      PUSH 20\t\t\t\n      DUP3 \t\t\t\n      ADD \t\t\t\n      SWAP1 \t\t\t\n      POP \t\t\t\n      DUP2 \t\t\t\n      DUP2 \t\t\t\n      SUB \t\t\t\n      PUSH 0\t\t\t\n      DUP4 \t\t\t\n      ADD \t\t\t\n      MSTORE \t\t\t\n      PUSH [tag] 810\t\t\t\n      DUP2 \t\t\t\n      PUSH [tag] 474\t\t\t\n      JUMP \t\t\t\n    tag 810\t\t\t\n      JUMPDEST \t\t\t\n      SWAP1 \t\t\t\n      POP \t\t\t\n      SWAP2 \t\t\t\n      SWAP1 \t\t\t\n      POP \t\t\t\n      JUMP \t\t\t\n    tag 475\t\t\t\n      JUMPDEST \t\t\t\n      PUSH 4E6565647320746F2062652067726561746572206F7220657175616C20746F20\t\t\t\n      PUSH 0\t\t\t\n      DUP3 \t\t\t\n      ADD \t\t\t\n      MSTORE \t\t\t\n      PUSH 7468652070726963652E00000000000000000000000000000000000000000000\t\t\t\n      PUSH 20\t\t\t\n      DUP3 \t\t\t\n      ADD \t\t\t\n      MSTORE \t\t\t\n      POP \t\t\t\n      JUMP \t\t\t\n    tag 476\t\t\t\n      JUMPDEST \t\t\t\n      PUSH 0\t\t\t\n      PUSH [tag] 813\t\t\t\n      PUSH 2A\t\t\t\n      DUP4 \t\t\t\n      PUSH [tag] 429\t\t\t\n      JUMP \t\t\t\n    tag 813\t\t\t\n      JUMPDEST \t\t\t\n      SWAP2 \t\t\t\n      POP \t\t\t\n      PUSH [tag] 814\t\t\t\n      DUP3 \t\t\t\n      PUSH [tag] 475\t\t\t\n      JUMP \t\t\t\n    tag 814\t\t\t\n      JUMPDEST \t\t\t\n      PUSH 40\t\t\t\n      DUP3 \t\t\t\n      ADD \t\t\t\n      SWAP1 \t\t\t\n      POP \t\t\t\n      SWAP2 \t\t\t\n      SWAP1 \t\t\t\n      POP \t\t\t\n      JUMP \t\t\t\n    tag 150\t\t\t\n      JUMPDEST \t\t\t\n      PUSH 0\t\t\t\n      PUSH 20\t\t\t\n      DUP3 \t\t\t\n      ADD \t\t\t\n      SWAP1 \t\t\t\n      POP \t\t\t\n      DUP2 \t\t\t\n      DUP2 \t\t\t\n      SUB \t\t\t\n      PUSH 0\t\t\t\n      DUP4 \t\t\t\n      ADD \t\t\t\n      MSTORE \t\t\t\n      PUSH [tag] 816\t\t\t\n      DUP2 \t\t\t\n      PUSH [tag] 476\t\t\t\n      JUMP \t\t\t\n    tag 816\t\t\t\n      JUMPDEST \t\t\t\n      SWAP1 \t\t\t\n      POP \t\t\t\n      SWAP2 \t\t\t\n      SWAP1 \t\t\t\n      POP \t\t\t\n      JUMP \t\t\t\n    tag 154\t\t\t\n      JUMPDEST \t\t\t\n      PUSH 0\t\t\t\n      PUSH [tag] 818\t\t\t\n      DUP3 \t\t\t\n      PUSH [tag] 419\t\t\t\n      JUMP \t\t\t\n    tag 818\t\t\t\n      JUMPDEST \t\t\t\n      SWAP2 \t\t\t\n      POP \t\t\t\n      PUSH [tag] 819\t\t\t\n      DUP4 \t\t\t\n      PUSH [tag] 419\t\t\t\n      JUMP \t\t\t\n    tag 819\t\t\t\n      JUMPDEST \t\t\t\n      SWAP3 \t\t\t\n      POP \t\t\t\n      DUP3 \t\t\t\n      DUP3 \t\t\t\n      SUB \t\t\t\n      SWAP1 \t\t\t\n      POP \t\t\t\n      DUP2 \t\t\t\n      DUP2 \t\t\t\n      GT \t\t\t\n      ISZERO \t\t\t\n      PUSH [tag] 820\t\t\t\n      JUMPI \t\t\t\n      PUSH [tag] 821\t\t\t\n      PUSH [tag] 472\t\t\t\n      JUMP \t\t\t\n    tag 821\t\t\t\n      JUMPDEST \t\t\t\n    tag 820\t\t\t\n      JUMPDEST \t\t\t\n      SWAP3 \t\t\t\n      SWAP2 \t\t\t\n      POP \t\t\t\n      POP \t\t\t\n      JUMP \t\t\t\n    tag 158\t\t\t\n      JUMPDEST \t\t\t\n      PUSH 0\t\t\t\n      PUSH 40\t\t\t\n      DUP3 \t\t\t\n      ADD \t\t\t\n      SWAP1 \t\t\t\n      POP \t\t\t\n      PUSH [tag] 823\t\t\t\n      PUSH 0\t\t\t\n      DUP4 \t\t\t\n      ADD \t\t\t\n      DUP6 \t\t\t\n      PUSH [tag] 422\t\t\t\n      JUMP \t\t\t\n    tag 823\t\t\t\n      JUMPDEST \t\t\t\n      PUSH [tag] 824\t\t\t\n      PUSH 20\t\t\t\n      DUP4 \t\t\t\n      ADD \t\t\t\n      DUP5 \t\t\t\n      PUSH [tag] 422\t\t\t\n      JUMP \t\t\t\n    tag 824\t\t\t\n      JUMPDEST \t\t\t\n      SWAP4 \t\t\t\n      SWAP3 \t\t\t\n      POP \t\t\t\n      POP \t\t\t\n      POP \t\t\t\n      JUMP \t\t\t\n    tag 477\t\t\t\n      JUMPDEST \t\t\t\n      PUSH 455243313135353A207472616E736665722063616C6C6572206973206E6F7420\t\t\t\n      PUSH 0\t\t\t\n      DUP3 \t\t\t\n      ADD \t\t\t\n      MSTORE \t\t\t\n      PUSH 6F776E6572206E6F7220617070726F7665640000000000000000000000000000\t\t\t\n      PUSH 20\t\t\t\n      DUP3 \t\t\t\n      ADD \t\t\t\n      MSTORE \t\t\t\n      POP \t\t\t\n      JUMP \t\t\t\n    tag 478\t\t\t\n      JUMPDEST \t\t\t\n      PUSH 0\t\t\t\n      PUSH [tag] 827\t\t\t\n      PUSH 32\t\t\t\n      DUP4 \t\t\t\n      PUSH [tag] 429\t\t\t\n      JUMP \t\t\t\n    tag 827\t\t\t\n      JUMPDEST \t\t\t\n      SWAP2 \t\t\t\n      POP \t\t\t\n      PUSH [tag] 828\t\t\t\n      DUP3 \t\t\t\n      PUSH [tag] 477\t\t\t\n      JUMP \t\t\t\n    tag 828\t\t\t\n      JUMPDEST \t\t\t\n      PUSH 40\t\t\t\n      DUP3 \t\t\t\n      ADD \t\t\t\n      SWAP1 \t\t\t\n      POP \t\t\t\n      SWAP2 \t\t\t\n      SWAP1 \t\t\t\n      POP \t\t\t\n      JUMP \t\t\t\n    tag 167\t\t\t\n      JUMPDEST \t\t\t\n      PUSH 0\t\t\t\n      PUSH 20\t\t\t\n      DUP3 \t\t\t\n      ADD \t\t\t\n      SWAP1 \t\t\t\n      POP \t\t\t\n      DUP2 \t\t\t\n      DUP2 \t\t\t\n      SUB \t\t\t\n      PUSH 0\t\t\t\n      DUP4 \t\t\t\n      ADD \t\t\t\n      MSTORE \t\t\t\n      PUSH [tag] 830\t\t\t\n      DUP2 \t\t\t\n      PUSH [tag] 478\t\t\t\n      JUMP \t\t\t\n    tag 830\t\t\t\n      JUMPDEST \t\t\t\n      SWAP1 \t\t\t\n      POP \t\t\t\n      SWAP2 \t\t\t\n      SWAP1 \t\t\t\n      POP \t\t\t\n      JUMP \t\t\t\n    tag 479\t\t\t\n      JUMPDEST \t\t\t\n      PUSH 455243313135353A206163636F756E747320616E6420696473206C656E677468\t\t\t\n      PUSH 0\t\t\t\n      DUP3 \t\t\t\n      ADD \t\t\t\n      MSTORE \t\t\t\n      PUSH 206D69736D617463680000000000000000000000000000000000000000000000\t\t\t\n      PUSH 20\t\t\t\n      DUP3 \t\t\t\n      ADD \t\t\t\n      MSTORE \t\t\t\n      POP \t\t\t\n      JUMP \t\t\t\n    tag 480\t\t\t\n      JUMPDEST \t\t\t\n      PUSH 0\t\t\t\n      PUSH [tag] 833\t\t\t\n      PUSH 29\t\t\t\n      DUP4 \t\t\t\n      PUSH [tag] 429\t\t\t\n      JUMP \t\t\t\n    tag 833\t\t\t\n      JUMPDEST \t\t\t\n      SWAP2 \t\t\t\n      POP \t\t\t\n      PUSH [tag] 834\t\t\t\n      DUP3 \t\t\t\n      PUSH [tag] 479\t\t\t\n      JUMP \t\t\t\n    tag 834\t\t\t\n      JUMPDEST \t\t\t\n      PUSH 40\t\t\t\n      DUP3 \t\t\t\n      ADD \t\t\t\n      SWAP1 \t\t\t\n      POP \t\t\t\n      SWAP2 \t\t\t\n      SWAP1 \t\t\t\n      POP \t\t\t\n      JUMP \t\t\t\n    tag 173\t\t\t\n      JUMPDEST \t\t\t\n      PUSH 0\t\t\t\n      PUSH 20\t\t\t\n      DUP3 \t\t\t\n      ADD \t\t\t\n      SWAP1 \t\t\t\n      POP \t\t\t\n      DUP2 \t\t\t\n      DUP2 \t\t\t\n      SUB \t\t\t\n      PUSH 0\t\t\t\n      DUP4 \t\t\t\n      ADD \t\t\t\n      MSTORE \t\t\t\n      PUSH [tag] 836\t\t\t\n      DUP2 \t\t\t\n      PUSH [tag] 480\t\t\t\n      JUMP \t\t\t\n    tag 836\t\t\t\n      JUMPDEST \t\t\t\n      SWAP1 \t\t\t\n      POP \t\t\t\n      SWAP2 \t\t\t\n      SWAP1 \t\t\t\n      POP \t\t\t\n      JUMP \t\t\t\n    tag 184\t\t\t\n      JUMPDEST \t\t\t\n      PUSH 4E487B7100000000000000000000000000000000000000000000000000000000\t\t\t\n      PUSH 0\t\t\t\n      MSTORE \t\t\t\n      PUSH 32\t\t\t\n      PUSH 4\t\t\t\n      MSTORE \t\t\t\n      PUSH 24\t\t\t\n      PUSH 0\t\t\t\n      REVERT \t\t\t\n    tag 481\t\t\t\n      JUMPDEST \t\t\t\n      PUSH 0\t\t\t\n      PUSH [tag] 839\t\t\t\n      DUP3 \t\t\t\n      PUSH [tag] 428\t\t\t\n      JUMP \t\t\t\n    tag 839\t\t\t\n      JUMPDEST \t\t\t\n      PUSH [tag] 840\t\t\t\n      DUP2 \t\t\t\n      DUP6 \t\t\t\n      PUSH [tag] 469\t\t\t\n      JUMP \t\t\t\n    tag 840\t\t\t\n      JUMPDEST \t\t\t\n      SWAP4 \t\t\t\n      POP \t\t\t\n      PUSH [tag] 841\t\t\t\n      DUP2 \t\t\t\n      DUP6 \t\t\t\n      PUSH 20\t\t\t\n      DUP7 \t\t\t\n      ADD \t\t\t\n      PUSH [tag] 430\t\t\t\n      JUMP \t\t\t\n    tag 841\t\t\t\n      JUMPDEST \t\t\t\n      DUP1 \t\t\t\n      DUP5 \t\t\t\n      ADD \t\t\t\n      SWAP2 \t\t\t\n      POP \t\t\t\n      POP \t\t\t\n      SWAP3 \t\t\t\n      SWAP2 \t\t\t\n      POP \t\t\t\n      POP \t\t\t\n      JUMP \t\t\t\n    tag 199\t\t\t\n      JUMPDEST \t\t\t\n      PUSH 0\t\t\t\n      PUSH [tag] 843\t\t\t\n      DUP3 \t\t\t\n      DUP5 \t\t\t\n      PUSH [tag] 481\t\t\t\n      JUMP \t\t\t\n    tag 843\t\t\t\n      JUMPDEST \t\t\t\n      SWAP2 \t\t\t\n      POP \t\t\t\n      DUP2 \t\t\t\n      SWAP1 \t\t\t\n      POP \t\t\t\n      SWAP3 \t\t\t\n      SWAP2 \t\t\t\n      POP \t\t\t\n      POP \t\t\t\n      JUMP \t\t\t\n    tag 482\t\t\t\n      JUMPDEST \t\t\t\n      PUSH 54686520746F6B656E205552492073686F756C6420626520756E697175650000\t\t\t\n      PUSH 0\t\t\t\n      DUP3 \t\t\t\n      ADD \t\t\t\n      MSTORE \t\t\t\n      POP \t\t\t\n      JUMP \t\t\t\n    tag 483\t\t\t\n      JUMPDEST \t\t\t\n      PUSH 0\t\t\t\n      PUSH [tag] 846\t\t\t\n      PUSH 1E\t\t\t\n      DUP4 \t\t\t\n      PUSH [tag] 429\t\t\t\n      JUMP \t\t\t\n    tag 846\t\t\t\n      JUMPDEST \t\t\t\n      SWAP2 \t\t\t\n      POP \t\t\t\n      PUSH [tag] 847\t\t\t\n      DUP3 \t\t\t\n      PUSH [tag] 482\t\t\t\n      JUMP \t\t\t\n    tag 847\t\t\t\n      JUMPDEST \t\t\t\n      PUSH 20\t\t\t\n      DUP3 \t\t\t\n      ADD \t\t\t\n      SWAP1 \t\t\t\n      POP \t\t\t\n      SWAP2 \t\t\t\n      SWAP1 \t\t\t\n      POP \t\t\t\n      JUMP \t\t\t\n    tag 202\t\t\t\n      JUMPDEST \t\t\t\n      PUSH 0\t\t\t\n      PUSH 20\t\t\t\n      DUP3 \t\t\t\n      ADD \t\t\t\n      SWAP1 \t\t\t\n      POP \t\t\t\n      DUP2 \t\t\t\n      DUP2 \t\t\t\n      SUB \t\t\t\n      PUSH 0\t\t\t\n      DUP4 \t\t\t\n      ADD \t\t\t\n      MSTORE \t\t\t\n      PUSH [tag] 849\t\t\t\n      DUP2 \t\t\t\n      PUSH [tag] 483\t\t\t\n      JUMP \t\t\t\n    tag 849\t\t\t\n      JUMPDEST \t\t\t\n      SWAP1 \t\t\t\n      POP \t\t\t\n      SWAP2 \t\t\t\n      SWAP1 \t\t\t\n      POP \t\t\t\n      JUMP \t\t\t\n    tag 484\t\t\t\n      JUMPDEST \t\t\t\n      PUSH 5072696365206D75737420626520706F73697469766500000000000000000000\t\t\t\n      PUSH 0\t\t\t\n      DUP3 \t\t\t\n      ADD \t\t\t\n      MSTORE \t\t\t\n      POP \t\t\t\n      JUMP \t\t\t\n    tag 485\t\t\t\n      JUMPDEST \t\t\t\n      PUSH 0\t\t\t\n      PUSH [tag] 852\t\t\t\n      PUSH 16\t\t\t\n      DUP4 \t\t\t\n      PUSH [tag] 429\t\t\t\n      JUMP \t\t\t\n    tag 852\t\t\t\n      JUMPDEST \t\t\t\n      SWAP2 \t\t\t\n      POP \t\t\t\n      PUSH [tag] 853\t\t\t\n      DUP3 \t\t\t\n      PUSH [tag] 484\t\t\t\n      JUMP \t\t\t\n    tag 853\t\t\t\n      JUMPDEST \t\t\t\n      PUSH 20\t\t\t\n      DUP3 \t\t\t\n      ADD \t\t\t\n      SWAP1 \t\t\t\n      POP \t\t\t\n      SWAP2 \t\t\t\n      SWAP1 \t\t\t\n      POP \t\t\t\n      JUMP \t\t\t\n    tag 205\t\t\t\n      JUMPDEST \t\t\t\n      PUSH 0\t\t\t\n      PUSH 20\t\t\t\n      DUP3 \t\t\t\n      ADD \t\t\t\n      SWAP1 \t\t\t\n      POP \t\t\t\n      DUP2 \t\t\t\n      DUP2 \t\t\t\n      SUB \t\t\t\n      PUSH 0\t\t\t\n      DUP4 \t\t\t\n      ADD \t\t\t\n      MSTORE \t\t\t\n      PUSH [tag] 855\t\t\t\n      DUP2 \t\t\t\n      PUSH [tag] 485\t\t\t\n      JUMP \t\t\t\n    tag 855\t\t\t\n      JUMPDEST \t\t\t\n      SWAP1 \t\t\t\n      POP \t\t\t\n      SWAP2 \t\t\t\n      SWAP1 \t\t\t\n      POP \t\t\t\n      JUMP \t\t\t\n    tag 486\t\t\t\n      JUMPDEST \t\t\t\n      PUSH 596F75722072656D61696E206D6F6E6579206E6F7420616C6C6F770000000000\t\t\t\n      PUSH 0\t\t\t\n      DUP3 \t\t\t\n      ADD \t\t\t\n      MSTORE \t\t\t\n      POP \t\t\t\n      JUMP \t\t\t\n    tag 487\t\t\t\n      JUMPDEST \t\t\t\n      PUSH 0\t\t\t\n      PUSH [tag] 858\t\t\t\n      PUSH 1B\t\t\t\n      DUP4 \t\t\t\n      PUSH [tag] 429\t\t\t\n      JUMP \t\t\t\n    tag 858\t\t\t\n      JUMPDEST \t\t\t\n      SWAP2 \t\t\t\n      POP \t\t\t\n      PUSH [tag] 859\t\t\t\n      DUP3 \t\t\t\n      PUSH [tag] 486\t\t\t\n      JUMP \t\t\t\n    tag 859\t\t\t\n      JUMPDEST \t\t\t\n      PUSH 20\t\t\t\n      DUP3 \t\t\t\n      ADD \t\t\t\n      SWAP1 \t\t\t\n      POP \t\t\t\n      SWAP2 \t\t\t\n      SWAP1 \t\t\t\n      POP \t\t\t\n      JUMP \t\t\t\n    tag 208\t\t\t\n      JUMPDEST \t\t\t\n      PUSH 0\t\t\t\n      PUSH 20\t\t\t\n      DUP3 \t\t\t\n      ADD \t\t\t\n      SWAP1 \t\t\t\n      POP \t\t\t\n      DUP2 \t\t\t\n      DUP2 \t\t\t\n      SUB \t\t\t\n      PUSH 0\t\t\t\n      DUP4 \t\t\t\n      ADD \t\t\t\n      MSTORE \t\t\t\n      PUSH [tag] 861\t\t\t\n      DUP2 \t\t\t\n      PUSH [tag] 487\t\t\t\n      JUMP \t\t\t\n    tag 861\t\t\t\n      JUMPDEST \t\t\t\n      SWAP1 \t\t\t\n      POP \t\t\t\n      SWAP2 \t\t\t\n      SWAP1 \t\t\t\n      POP \t\t\t\n      JUMP \t\t\t\n    tag 488\t\t\t\n      JUMPDEST \t\t\t\n      PUSH 0\t\t\t\n      PUSH 20\t\t\t\n      PUSH 1F\t\t\t\n      DUP4 \t\t\t\n      ADD \t\t\t\n      DIV \t\t\t\n      SWAP1 \t\t\t\n      POP \t\t\t\n      SWAP2 \t\t\t\n      SWAP1 \t\t\t\n      POP \t\t\t\n      JUMP \t\t\t\n    tag 489\t\t\t\n      JUMPDEST \t\t\t\n      PUSH 0\t\t\t\n      DUP3 \t\t\t\n      DUP3 \t\t\t\n      SHL \t\t\t\n      SWAP1 \t\t\t\n      POP \t\t\t\n      SWAP3 \t\t\t\n      SWAP2 \t\t\t\n      POP \t\t\t\n      POP \t\t\t\n      JUMP \t\t\t\n    tag 490\t\t\t\n      JUMPDEST \t\t\t\n      PUSH 0\t\t\t\n      PUSH 8\t\t\t\n      DUP4 \t\t\t\n      MUL \t\t\t\n      PUSH [tag] 865\t\t\t\n      PUSH FFFFFFFFFFFFFFFFFFFFFFFFFFFFFFFFFFFFFFFFFFFFFFFFFFFFFFFFFFFFFFFF\t\t\t\n      DUP3 \t\t\t\n      PUSH [tag] 489\t\t\t\n      JUMP \t\t\t\n    tag 865\t\t\t\n      JUMPDEST \t\t\t\n      PUSH [tag] 866\t\t\t\n      DUP7 \t\t\t\n      DUP4 \t\t\t\n      PUSH [tag] 489\t\t\t\n      JUMP \t\t\t\n    tag 866\t\t\t\n      JUMPDEST \t\t\t\n      SWAP6 \t\t\t\n      POP \t\t\t\n      DUP1 \t\t\t\n      NOT \t\t\t\n      DUP5 \t\t\t\n      AND \t\t\t\n      SWAP4 \t\t\t\n      POP \t\t\t\n      DUP1 \t\t\t\n      DUP7 \t\t\t\n      AND \t\t\t\n      DUP5 \t\t\t\n      OR \t\t\t\n      SWAP3 \t\t\t\n      POP \t\t\t\n      POP \t\t\t\n      POP \t\t\t\n      SWAP4 \t\t\t\n      SWAP3 \t\t\t\n      POP \t\t\t\n      POP \t\t\t\n      POP \t\t\t\n      JUMP \t\t\t\n    tag 491\t\t\t\n      JUMPDEST \t\t\t\n      PUSH 0\t\t\t\n      DUP2 \t\t\t\n      SWAP1 \t\t\t\n      POP \t\t\t\n      SWAP2 \t\t\t\n      SWAP1 \t\t\t\n      POP \t\t\t\n      JUMP \t\t\t\n    tag 492\t\t\t\n      JUMPDEST \t\t\t\n      PUSH 0\t\t\t\n      PUSH [tag] 869\t\t\t\n      PUSH [tag] 870\t\t\t\n      PUSH [tag] 871\t\t\t\n      DUP5 \t\t\t\n      PUSH [tag] 419\t\t\t\n      JUMP \t\t\t\n    tag 871\t\t\t\n      JUMPDEST \t\t\t\n      PUSH [tag] 491\t\t\t\n      JUMP \t\t\t\n    tag 870\t\t\t\n      JUMPDEST \t\t\t\n      PUSH [tag] 419\t\t\t\n      JUMP \t\t\t\n    tag 869\t\t\t\n      JUMPDEST \t\t\t\n      SWAP1 \t\t\t\n      POP \t\t\t\n      SWAP2 \t\t\t\n      SWAP1 \t\t\t\n      POP \t\t\t\n      JUMP \t\t\t\n    tag 493\t\t\t\n      JUMPDEST \t\t\t\n      PUSH 0\t\t\t\n      DUP2 \t\t\t\n      SWAP1 \t\t\t\n      POP \t\t\t\n      SWAP2 \t\t\t\n      SWAP1 \t\t\t\n      POP \t\t\t\n      JUMP \t\t\t\n    tag 494\t\t\t\n      JUMPDEST \t\t\t\n      PUSH [tag] 874\t\t\t\n      DUP4 \t\t\t\n      PUSH [tag] 492\t\t\t\n      JUMP \t\t\t\n    tag 874\t\t\t\n      JUMPDEST \t\t\t\n      PUSH [tag] 875\t\t\t\n      PUSH [tag] 876\t\t\t\n      DUP3 \t\t\t\n      PUSH [tag] 493\t\t\t\n      JUMP \t\t\t\n    tag 876\t\t\t\n      JUMPDEST \t\t\t\n      DUP5 \t\t\t\n      DUP5 \t\t\t\n      SLOAD \t\t\t\n      PUSH [tag] 490\t\t\t\n      JUMP \t\t\t\n    tag 875\t\t\t\n      JUMPDEST \t\t\t\n      DUP3 \t\t\t\n      SSTORE \t\t\t\n      POP \t\t\t\n      POP \t\t\t\n      POP \t\t\t\n      POP \t\t\t\n      JUMP \t\t\t\n    tag 495\t\t\t\n      JUMPDEST \t\t\t\n      PUSH 0\t\t\t\n      SWAP1 \t\t\t\n      JUMP \t\t\t\n    tag 496\t\t\t\n      JUMPDEST \t\t\t\n      PUSH [tag] 879\t\t\t\n      PUSH [tag] 495\t\t\t\n      JUMP \t\t\t\n    tag 879\t\t\t\n      JUMPDEST \t\t\t\n      PUSH [tag] 880\t\t\t\n      DUP2 \t\t\t\n      DUP5 \t\t\t\n      DUP5 \t\t\t\n      PUSH [tag] 494\t\t\t\n      JUMP \t\t\t\n    tag 880\t\t\t\n      JUMPDEST \t\t\t\n      POP \t\t\t\n      POP \t\t\t\n      POP \t\t\t\n      JUMP \t\t\t\n    tag 497\t\t\t\n      JUMPDEST \t\t\t\n    tag 882\t\t\t\n      JUMPDEST \t\t\t\n      DUP2 \t\t\t\n      DUP2 \t\t\t\n      LT \t\t\t\n      ISZERO \t\t\t\n      PUSH [tag] 884\t\t\t\n      JUMPI \t\t\t\n      PUSH [tag] 885\t\t\t\n      PUSH 0\t\t\t\n      DUP3 \t\t\t\n      PUSH [tag] 496\t\t\t\n      JUMP \t\t\t\n    tag 885\t\t\t\n      JUMPDEST \t\t\t\n      PUSH 1\t\t\t\n      DUP2 \t\t\t\n      ADD \t\t\t\n      SWAP1 \t\t\t\n      POP \t\t\t\n      PUSH [tag] 882\t\t\t\n      JUMP \t\t\t\n    tag 884\t\t\t\n      JUMPDEST \t\t\t\n      POP \t\t\t\n      POP \t\t\t\n      JUMP \t\t\t\n    tag 498\t\t\t\n      JUMPDEST \t\t\t\n      PUSH 1F\t\t\t\n      DUP3 \t\t\t\n      GT \t\t\t\n      ISZERO \t\t\t\n      PUSH [tag] 887\t\t\t\n      JUMPI \t\t\t\n      PUSH [tag] 888\t\t\t\n      DUP2 \t\t\t\n      PUSH [tag] 470\t\t\t\n      JUMP \t\t\t\n    tag 888\t\t\t\n      JUMPDEST \t\t\t\n      PUSH [tag] 889\t\t\t\n      DUP5 \t\t\t\n      PUSH [tag] 488\t\t\t\n      JUMP \t\t\t\n    tag 889\t\t\t\n      JUMPDEST \t\t\t\n      DUP2 \t\t\t\n      ADD \t\t\t\n      PUSH 20\t\t\t\n      DUP6 \t\t\t\n      LT \t\t\t\n      ISZERO \t\t\t\n      PUSH [tag] 890\t\t\t\n      JUMPI \t\t\t\n      DUP2 \t\t\t\n      SWAP1 \t\t\t\n      POP \t\t\t\n    tag 890\t\t\t\n      JUMPDEST \t\t\t\n      PUSH [tag] 891\t\t\t\n      PUSH [tag] 892\t\t\t\n      DUP6 \t\t\t\n      PUSH [tag] 488\t\t\t\n      JUMP \t\t\t\n    tag 892\t\t\t\n      JUMPDEST \t\t\t\n      DUP4 \t\t\t\n      ADD \t\t\t\n      DUP3 \t\t\t\n      PUSH [tag] 497\t\t\t\n      JUMP \t\t\t\n    tag 891\t\t\t\n      JUMPDEST \t\t\t\n      POP \t\t\t\n      POP \t\t\t\n    tag 887\t\t\t\n      JUMPDEST \t\t\t\n      POP \t\t\t\n      POP \t\t\t\n      POP \t\t\t\n      JUMP \t\t\t\n    tag 499\t\t\t\n      JUMPDEST \t\t\t\n      PUSH 0\t\t\t\n      DUP3 \t\t\t\n      DUP3 \t\t\t\n      SHR \t\t\t\n      SWAP1 \t\t\t\n      POP \t\t\t\n      SWAP3 \t\t\t\n      SWAP2 \t\t\t\n      POP \t\t\t\n      POP \t\t\t\n      JUMP \t\t\t\n    tag 500\t\t\t\n      JUMPDEST \t\t\t\n      PUSH 0\t\t\t\n      PUSH [tag] 895\t\t\t\n      PUSH 0\t\t\t\n      NOT \t\t\t\n      DUP5 \t\t\t\n      PUSH 8\t\t\t\n      MUL \t\t\t\n      PUSH [tag] 499\t\t\t\n      JUMP \t\t\t\n    tag 895\t\t\t\n      JUMPDEST \t\t\t\n      NOT \t\t\t\n      DUP1 \t\t\t\n      DUP4 \t\t\t\n      AND \t\t\t\n      SWAP2 \t\t\t\n      POP \t\t\t\n      POP \t\t\t\n      SWAP3 \t\t\t\n      SWAP2 \t\t\t\n      POP \t\t\t\n      POP \t\t\t\n      JUMP \t\t\t\n    tag 501\t\t\t\n      JUMPDEST \t\t\t\n      PUSH 0\t\t\t\n      PUSH [tag] 897\t\t\t\n      DUP4 \t\t\t\n      DUP4 \t\t\t\n      PUSH [tag] 500\t\t\t\n      JUMP \t\t\t\n    tag 897\t\t\t\n      JUMPDEST \t\t\t\n      SWAP2 \t\t\t\n      POP \t\t\t\n      DUP3 \t\t\t\n      PUSH 2\t\t\t\n      MUL \t\t\t\n      DUP3 \t\t\t\n      OR \t\t\t\n      SWAP1 \t\t\t\n      POP \t\t\t\n      SWAP3 \t\t\t\n      SWAP2 \t\t\t\n      POP \t\t\t\n      POP \t\t\t\n      JUMP \t\t\t\n    tag 213\t\t\t\n      JUMPDEST \t\t\t\n      PUSH [tag] 899\t\t\t\n      DUP3 \t\t\t\n      PUSH [tag] 428\t\t\t\n      JUMP \t\t\t\n    tag 899\t\t\t\n      JUMPDEST \t\t\t\n      PUSH FFFFFFFFFFFFFFFF\t\t\t\n      DUP2 \t\t\t\n      GT \t\t\t\n      ISZERO \t\t\t\n      PUSH [tag] 900\t\t\t\n      JUMPI \t\t\t\n      PUSH [tag] 901\t\t\t\n      PUSH [tag] 176\t\t\t\n      JUMP \t\t\t\n    tag 901\t\t\t\n      JUMPDEST \t\t\t\n    tag 900\t\t\t\n      JUMPDEST \t\t\t\n      PUSH [tag] 902\t\t\t\n      DUP3 \t\t\t\n      SLOAD \t\t\t\n      PUSH [tag] 192\t\t\t\n      JUMP \t\t\t\n    tag 902\t\t\t\n      JUMPDEST \t\t\t\n      PUSH [tag] 903\t\t\t\n      DUP3 \t\t\t\n      DUP3 \t\t\t\n      DUP6 \t\t\t\n      PUSH [tag] 498\t\t\t\n      JUMP \t\t\t\n    tag 903\t\t\t\n      JUMPDEST \t\t\t\n      PUSH 0\t\t\t\n      PUSH 20\t\t\t\n      SWAP1 \t\t\t\n      POP \t\t\t\n      PUSH 1F\t\t\t\n      DUP4 \t\t\t\n      GT \t\t\t\n      PUSH 1\t\t\t\n      DUP2 \t\t\t\n      EQ \t\t\t\n      PUSH [tag] 905\t\t\t\n      JUMPI \t\t\t\n      PUSH 0\t\t\t\n      DUP5 \t\t\t\n      ISZERO \t\t\t\n      PUSH [tag] 906\t\t\t\n      JUMPI \t\t\t\n      DUP3 \t\t\t\n      DUP8 \t\t\t\n      ADD \t\t\t\n      MLOAD \t\t\t\n      SWAP1 \t\t\t\n      POP \t\t\t\n    tag 906\t\t\t\n      JUMPDEST \t\t\t\n      PUSH [tag] 907\t\t\t\n      DUP6 \t\t\t\n      DUP3 \t\t\t\n      PUSH [tag] 501\t\t\t\n      JUMP \t\t\t\n    tag 907\t\t\t\n      JUMPDEST \t\t\t\n      DUP7 \t\t\t\n      SSTORE \t\t\t\n      POP \t\t\t\n      PUSH [tag] 904\t\t\t\n      JUMP \t\t\t\n    tag 905\t\t\t\n      JUMPDEST \t\t\t\n      PUSH 1F\t\t\t\n      NOT \t\t\t\n      DUP5 \t\t\t\n      AND \t\t\t\n      PUSH [tag] 908\t\t\t\n      DUP7 \t\t\t\n      PUSH [tag] 470\t\t\t\n      JUMP \t\t\t\n    tag 908\t\t\t\n      JUMPDEST \t\t\t\n      PUSH 0\t\t\t\n    tag 909\t\t\t\n      JUMPDEST \t\t\t\n      DUP3 \t\t\t\n      DUP2 \t\t\t\n      LT \t\t\t\n      ISZERO \t\t\t\n      PUSH [tag] 911\t\t\t\n      JUMPI \t\t\t\n      DUP5 \t\t\t\n      DUP10 \t\t\t\n      ADD \t\t\t\n      MLOAD \t\t\t\n      DUP3 \t\t\t\n      SSTORE \t\t\t\n      PUSH 1\t\t\t\n      DUP3 \t\t\t\n      ADD \t\t\t\n      SWAP2 \t\t\t\n      POP \t\t\t\n      PUSH 20\t\t\t\n      DUP6 \t\t\t\n      ADD \t\t\t\n      SWAP5 \t\t\t\n      POP \t\t\t\n      PUSH 20\t\t\t\n      DUP2 \t\t\t\n      ADD \t\t\t\n      SWAP1 \t\t\t\n      POP \t\t\t\n      PUSH [tag] 909\t\t\t\n      JUMP \t\t\t\n    tag 911\t\t\t\n      JUMPDEST \t\t\t\n      DUP7 \t\t\t\n      DUP4 \t\t\t\n      LT \t\t\t\n      ISZERO \t\t\t\n      PUSH [tag] 912\t\t\t\n      JUMPI \t\t\t\n      DUP5 \t\t\t\n      DUP10 \t\t\t\n      ADD \t\t\t\n      MLOAD \t\t\t\n      PUSH [tag] 913\t\t\t\n      PUSH 1F\t\t\t\n      DUP10 \t\t\t\n      AND \t\t\t\n      DUP3 \t\t\t\n      PUSH [tag] 500\t\t\t\n      JUMP \t\t\t\n    tag 913\t\t\t\n      JUMPDEST \t\t\t\n      DUP4 \t\t\t\n      SSTORE \t\t\t\n      POP \t\t\t\n    tag 912\t\t\t\n      JUMPDEST \t\t\t\n      PUSH 1\t\t\t\n      PUSH 2\t\t\t\n      DUP9 \t\t\t\n      MUL \t\t\t\n      ADD \t\t\t\n      DUP9 \t\t\t\n      SSTORE \t\t\t\n      POP \t\t\t\n      POP \t\t\t\n      POP \t\t\t\n    tag 904\t\t\t\n      JUMPDEST \t\t\t\n      POP \t\t\t\n      POP \t\t\t\n      POP \t\t\t\n      POP \t\t\t\n      POP \t\t\t\n      POP \t\t\t\n      JUMP \t\t\t\n    tag 219\t\t\t\n      JUMPDEST \t\t\t\n      PUSH 0\t\t\t\n      PUSH 80\t\t\t\n      DUP3 \t\t\t\n      ADD \t\t\t\n      SWAP1 \t\t\t\n      POP \t\t\t\n      DUP2 \t\t\t\n      DUP2 \t\t\t\n      SUB \t\t\t\n      PUSH 0\t\t\t\n      DUP4 \t\t\t\n      ADD \t\t\t\n      MSTORE \t\t\t\n      PUSH [tag] 915\t\t\t\n      DUP2 \t\t\t\n      DUP8 \t\t\t\n      PUSH [tag] 432\t\t\t\n      JUMP \t\t\t\n    tag 915\t\t\t\n      JUMPDEST \t\t\t\n      SWAP1 \t\t\t\n      POP \t\t\t\n      PUSH [tag] 916\t\t\t\n      PUSH 20\t\t\t\n      DUP4 \t\t\t\n      ADD \t\t\t\n      DUP7 \t\t\t\n      PUSH [tag] 422\t\t\t\n      JUMP \t\t\t\n    tag 916\t\t\t\n      JUMPDEST \t\t\t\n      PUSH [tag] 917\t\t\t\n      PUSH 40\t\t\t\n      DUP4 \t\t\t\n      ADD \t\t\t\n      DUP6 \t\t\t\n      PUSH [tag] 422\t\t\t\n      JUMP \t\t\t\n    tag 917\t\t\t\n      JUMPDEST \t\t\t\n      PUSH [tag] 918\t\t\t\n      PUSH 60\t\t\t\n      DUP4 \t\t\t\n      ADD \t\t\t\n      DUP5 \t\t\t\n      PUSH [tag] 458\t\t\t\n      JUMP \t\t\t\n    tag 918\t\t\t\n      JUMPDEST \t\t\t\n      SWAP6 \t\t\t\n      SWAP5 \t\t\t\n      POP \t\t\t\n      POP \t\t\t\n      POP \t\t\t\n      POP \t\t\t\n      POP \t\t\t\n      JUMP \t\t\t\n    tag 502\t\t\t\n      JUMPDEST \t\t\t\n      PUSH 4F776E61626C653A2063616C6C6572206973206E6F7420746865206F776E6572\t\t\t\n      PUSH 0\t\t\t\n      DUP3 \t\t\t\n      ADD \t\t\t\n      MSTORE \t\t\t\n      POP \t\t\t\n      JUMP \t\t\t\n    tag 503\t\t\t\n      JUMPDEST \t\t\t\n      PUSH 0\t\t\t\n      PUSH [tag] 921\t\t\t\n      PUSH 20\t\t\t\n      DUP4 \t\t\t\n      PUSH [tag] 429\t\t\t\n      JUMP \t\t\t\n    tag 921\t\t\t\n      JUMPDEST \t\t\t\n      SWAP2 \t\t\t\n      POP \t\t\t\n      PUSH [tag] 922\t\t\t\n      DUP3 \t\t\t\n      PUSH [tag] 502\t\t\t\n      JUMP \t\t\t\n    tag 922\t\t\t\n      JUMPDEST \t\t\t\n      PUSH 20\t\t\t\n      DUP3 \t\t\t\n      ADD \t\t\t\n      SWAP1 \t\t\t\n      POP \t\t\t\n      SWAP2 \t\t\t\n      SWAP1 \t\t\t\n      POP \t\t\t\n      JUMP \t\t\t\n    tag 225\t\t\t\n      JUMPDEST \t\t\t\n      PUSH 0\t\t\t\n      PUSH 20\t\t\t\n      DUP3 \t\t\t\n      ADD \t\t\t\n      SWAP1 \t\t\t\n      POP \t\t\t\n      DUP2 \t\t\t\n      DUP2 \t\t\t\n      SUB \t\t\t\n      PUSH 0\t\t\t\n      DUP4 \t\t\t\n      ADD \t\t\t\n      MSTORE \t\t\t\n      PUSH [tag] 924\t\t\t\n      DUP2 \t\t\t\n      PUSH [tag] 503\t\t\t\n      JUMP \t\t\t\n    tag 924\t\t\t\n      JUMPDEST \t\t\t\n      SWAP1 \t\t\t\n      POP \t\t\t\n      SWAP2 \t\t\t\n      SWAP1 \t\t\t\n      POP \t\t\t\n      JUMP \t\t\t\n    tag 232\t\t\t\n      JUMPDEST \t\t\t\n      PUSH 0\t\t\t\n      PUSH [tag] 926\t\t\t\n      DUP3 \t\t\t\n      PUSH [tag] 419\t\t\t\n      JUMP \t\t\t\n    tag 926\t\t\t\n      JUMPDEST \t\t\t\n      SWAP2 \t\t\t\n      POP \t\t\t\n      PUSH [tag] 927\t\t\t\n      DUP4 \t\t\t\n      PUSH [tag] 419\t\t\t\n      JUMP \t\t\t\n    tag 927\t\t\t\n      JUMPDEST \t\t\t\n      SWAP3 \t\t\t\n      POP \t\t\t\n      DUP3 \t\t\t\n      DUP3 \t\t\t\n      ADD \t\t\t\n      SWAP1 \t\t\t\n      POP \t\t\t\n      DUP1 \t\t\t\n      DUP3 \t\t\t\n      GT \t\t\t\n      ISZERO \t\t\t\n      PUSH [tag] 928\t\t\t\n      JUMPI \t\t\t\n      PUSH [tag] 929\t\t\t\n      PUSH [tag] 472\t\t\t\n      JUMP \t\t\t\n    tag 929\t\t\t\n      JUMPDEST \t\t\t\n    tag 928\t\t\t\n      JUMPDEST \t\t\t\n      SWAP3 \t\t\t\n      SWAP2 \t\t\t\n      POP \t\t\t\n      POP \t\t\t\n      JUMP \t\t\t\n    tag 504\t\t\t\n      JUMPDEST \t\t\t\n      PUSH 455243313135353A2073657474696E6720617070726F76616C20737461747573\t\t\t\n      PUSH 0\t\t\t\n      DUP3 \t\t\t\n      ADD \t\t\t\n      MSTORE \t\t\t\n      PUSH 20666F722073656C660000000000000000000000000000000000000000000000\t\t\t\n      PUSH 20\t\t\t\n      DUP3 \t\t\t\n      ADD \t\t\t\n      MSTORE \t\t\t\n      POP \t\t\t\n      JUMP \t\t\t\n    tag 505\t\t\t\n      JUMPDEST \t\t\t\n      PUSH 0\t\t\t\n      PUSH [tag] 932\t\t\t\n      PUSH 29\t\t\t\n      DUP4 \t\t\t\n      PUSH [tag] 429\t\t\t\n      JUMP \t\t\t\n    tag 932\t\t\t\n      JUMPDEST \t\t\t\n      SWAP2 \t\t\t\n      POP \t\t\t\n      PUSH [tag] 933\t\t\t\n      DUP3 \t\t\t\n      PUSH [tag] 504\t\t\t\n      JUMP \t\t\t\n    tag 933\t\t\t\n      JUMPDEST \t\t\t\n      PUSH 40\t\t\t\n      DUP3 \t\t\t\n      ADD \t\t\t\n      SWAP1 \t\t\t\n      POP \t\t\t\n      SWAP2 \t\t\t\n      SWAP1 \t\t\t\n      POP \t\t\t\n      JUMP \t\t\t\n    tag 246\t\t\t\n      JUMPDEST \t\t\t\n      PUSH 0\t\t\t\n      PUSH 20\t\t\t\n      DUP3 \t\t\t\n      ADD \t\t\t\n      SWAP1 \t\t\t\n      POP \t\t\t\n      DUP2 \t\t\t\n      DUP2 \t\t\t\n      SUB \t\t\t\n      PUSH 0\t\t\t\n      DUP4 \t\t\t\n      ADD \t\t\t\n      MSTORE \t\t\t\n      PUSH [tag] 935\t\t\t\n      DUP2 \t\t\t\n      PUSH [tag] 505\t\t\t\n      JUMP \t\t\t\n    tag 935\t\t\t\n      JUMPDEST \t\t\t\n      SWAP1 \t\t\t\n      POP \t\t\t\n      SWAP2 \t\t\t\n      SWAP1 \t\t\t\n      POP \t\t\t\n      JUMP \t\t\t\n    tag 506\t\t\t\n      JUMPDEST \t\t\t\n      PUSH 54686520746F6B656E205552492073686F756C64206265206D696E7400000000\t\t\t\n      PUSH 0\t\t\t\n      DUP3 \t\t\t\n      ADD \t\t\t\n      MSTORE \t\t\t\n      POP \t\t\t\n      JUMP \t\t\t\n    tag 507\t\t\t\n      JUMPDEST \t\t\t\n      PUSH 0\t\t\t\n      PUSH [tag] 938\t\t\t\n      PUSH 1C\t\t\t\n      DUP4 \t\t\t\n      PUSH [tag] 429\t\t\t\n      JUMP \t\t\t\n    tag 938\t\t\t\n      JUMPDEST \t\t\t\n      SWAP2 \t\t\t\n      POP \t\t\t\n      PUSH [tag] 939\t\t\t\n      DUP3 \t\t\t\n      PUSH [tag] 506\t\t\t\n      JUMP \t\t\t\n    tag 939\t\t\t\n      JUMPDEST \t\t\t\n      PUSH 20\t\t\t\n      DUP3 \t\t\t\n      ADD \t\t\t\n      SWAP1 \t\t\t\n      POP \t\t\t\n      SWAP2 \t\t\t\n      SWAP1 \t\t\t\n      POP \t\t\t\n      JUMP \t\t\t\n    tag 263\t\t\t\n      JUMPDEST \t\t\t\n      PUSH 0\t\t\t\n      PUSH 20\t\t\t\n      DUP3 \t\t\t\n      ADD \t\t\t\n      SWAP1 \t\t\t\n      POP \t\t\t\n      DUP2 \t\t\t\n      DUP2 \t\t\t\n      SUB \t\t\t\n      PUSH 0\t\t\t\n      DUP4 \t\t\t\n      ADD \t\t\t\n      MSTORE \t\t\t\n      PUSH [tag] 941\t\t\t\n      DUP2 \t\t\t\n      PUSH [tag] 507\t\t\t\n      JUMP \t\t\t\n    tag 941\t\t\t\n      JUMPDEST \t\t\t\n      SWAP1 \t\t\t\n      POP \t\t\t\n      SWAP2 \t\t\t\n      SWAP1 \t\t\t\n      POP \t\t\t\n      JUMP \t\t\t\n    tag 508\t\t\t\n      JUMPDEST \t\t\t\n      PUSH 455243313135353A2063616C6C6572206973206E6F74206F776E6572206E6F72\t\t\t\n      PUSH 0\t\t\t\n      DUP3 \t\t\t\n      ADD \t\t\t\n      MSTORE \t\t\t\n      PUSH 20617070726F7665640000000000000000000000000000000000000000000000\t\t\t\n      PUSH 20\t\t\t\n      DUP3 \t\t\t\n      ADD \t\t\t\n      MSTORE \t\t\t\n      POP \t\t\t\n      JUMP \t\t\t\n    tag 509\t\t\t\n      JUMPDEST \t\t\t\n      PUSH 0\t\t\t\n      PUSH [tag] 944\t\t\t\n      PUSH 29\t\t\t\n      DUP4 \t\t\t\n      PUSH [tag] 429\t\t\t\n      JUMP \t\t\t\n    tag 944\t\t\t\n      JUMPDEST \t\t\t\n      SWAP2 \t\t\t\n      POP \t\t\t\n      PUSH [tag] 945\t\t\t\n      DUP3 \t\t\t\n      PUSH [tag] 508\t\t\t\n      JUMP \t\t\t\n    tag 945\t\t\t\n      JUMPDEST \t\t\t\n      PUSH 40\t\t\t\n      DUP3 \t\t\t\n      ADD \t\t\t\n      SWAP1 \t\t\t\n      POP \t\t\t\n      SWAP2 \t\t\t\n      SWAP1 \t\t\t\n      POP \t\t\t\n      JUMP \t\t\t\n    tag 292\t\t\t\n      JUMPDEST \t\t\t\n      PUSH 0\t\t\t\n      PUSH 20\t\t\t\n      DUP3 \t\t\t\n      ADD \t\t\t\n      SWAP1 \t\t\t\n      POP \t\t\t\n      DUP2 \t\t\t\n      DUP2 \t\t\t\n      SUB \t\t\t\n      PUSH 0\t\t\t\n      DUP4 \t\t\t\n      ADD \t\t\t\n      MSTORE \t\t\t\n      PUSH [tag] 947\t\t\t\n      DUP2 \t\t\t\n      PUSH [tag] 509\t\t\t\n      JUMP \t\t\t\n    tag 947\t\t\t\n      JUMPDEST \t\t\t\n      SWAP1 \t\t\t\n      POP \t\t\t\n      SWAP2 \t\t\t\n      SWAP1 \t\t\t\n      POP \t\t\t\n      JUMP \t\t\t\n    tag 510\t\t\t\n      JUMPDEST \t\t\t\n      PUSH 4F776E61626C653A206E6577206F776E657220697320746865207A65726F2061\t\t\t\n      PUSH 0\t\t\t\n      DUP3 \t\t\t\n      ADD \t\t\t\n      MSTORE \t\t\t\n      PUSH 6464726573730000000000000000000000000000000000000000000000000000\t\t\t\n      PUSH 20\t\t\t\n      DUP3 \t\t\t\n      ADD \t\t\t\n      MSTORE \t\t\t\n      POP \t\t\t\n      JUMP \t\t\t\n    tag 511\t\t\t\n      JUMPDEST \t\t\t\n      PUSH 0\t\t\t\n      PUSH [tag] 950\t\t\t\n      PUSH 26\t\t\t\n      DUP4 \t\t\t\n      PUSH [tag] 429\t\t\t\n      JUMP \t\t\t\n    tag 950\t\t\t\n      JUMPDEST \t\t\t\n      SWAP2 \t\t\t\n      POP \t\t\t\n      PUSH [tag] 951\t\t\t\n      DUP3 \t\t\t\n      PUSH [tag] 510\t\t\t\n      JUMP \t\t\t\n    tag 951\t\t\t\n      JUMPDEST \t\t\t\n      PUSH 40\t\t\t\n      DUP3 \t\t\t\n      ADD \t\t\t\n      SWAP1 \t\t\t\n      POP \t\t\t\n      SWAP2 \t\t\t\n      SWAP1 \t\t\t\n      POP \t\t\t\n      JUMP \t\t\t\n    tag 303\t\t\t\n      JUMPDEST \t\t\t\n      PUSH 0\t\t\t\n      PUSH 20\t\t\t\n      DUP3 \t\t\t\n      ADD \t\t\t\n      SWAP1 \t\t\t\n      POP \t\t\t\n      DUP2 \t\t\t\n      DUP2 \t\t\t\n      SUB \t\t\t\n      PUSH 0\t\t\t\n      DUP4 \t\t\t\n      ADD \t\t\t\n      MSTORE \t\t\t\n      PUSH [tag] 953\t\t\t\n      DUP2 \t\t\t\n      PUSH [tag] 511\t\t\t\n      JUMP \t\t\t\n    tag 953\t\t\t\n      JUMPDEST \t\t\t\n      SWAP1 \t\t\t\n      POP \t\t\t\n      SWAP2 \t\t\t\n      SWAP1 \t\t\t\n      POP \t\t\t\n      JUMP \t\t\t\n    tag 512\t\t\t\n      JUMPDEST \t\t\t\n      PUSH 455243313135353A2069647320616E6420616D6F756E7473206C656E67746820\t\t\t\n      PUSH 0\t\t\t\n      DUP3 \t\t\t\n      ADD \t\t\t\n      MSTORE \t\t\t\n      PUSH 6D69736D61746368000000000000000000000000000000000000000000000000\t\t\t\n      PUSH 20\t\t\t\n      DUP3 \t\t\t\n      ADD \t\t\t\n      MSTORE \t\t\t\n      POP \t\t\t\n      JUMP \t\t\t\n    tag 513\t\t\t\n      JUMPDEST \t\t\t\n      PUSH 0\t\t\t\n      PUSH [tag] 956\t\t\t\n      PUSH 28\t\t\t\n      DUP4 \t\t\t\n      PUSH [tag] 429\t\t\t\n      JUMP \t\t\t\n    tag 956\t\t\t\n      JUMPDEST \t\t\t\n      SWAP2 \t\t\t\n      POP \t\t\t\n      PUSH [tag] 957\t\t\t\n      DUP3 \t\t\t\n      PUSH [tag] 512\t\t\t\n      JUMP \t\t\t\n    tag 957\t\t\t\n      JUMPDEST \t\t\t\n      PUSH 40\t\t\t\n      DUP3 \t\t\t\n      ADD \t\t\t\n      SWAP1 \t\t\t\n      POP \t\t\t\n      SWAP2 \t\t\t\n      SWAP1 \t\t\t\n      POP \t\t\t\n      JUMP \t\t\t\n    tag 310\t\t\t\n      JUMPDEST \t\t\t\n      PUSH 0\t\t\t\n      PUSH 20\t\t\t\n      DUP3 \t\t\t\n      ADD \t\t\t\n      SWAP1 \t\t\t\n      POP \t\t\t\n      DUP2 \t\t\t\n      DUP2 \t\t\t\n      SUB \t\t\t\n      PUSH 0\t\t\t\n      DUP4 \t\t\t\n      ADD \t\t\t\n      MSTORE \t\t\t\n      PUSH [tag] 959\t\t\t\n      DUP2 \t\t\t\n      PUSH [tag] 513\t\t\t\n      JUMP \t\t\t\n    tag 959\t\t\t\n      JUMPDEST \t\t\t\n      SWAP1 \t\t\t\n      POP \t\t\t\n      SWAP2 \t\t\t\n      SWAP1 \t\t\t\n      POP \t\t\t\n      JUMP \t\t\t\n    tag 514\t\t\t\n      JUMPDEST \t\t\t\n      PUSH 455243313135353A207472616E7366657220746F20746865207A65726F206164\t\t\t\n      PUSH 0\t\t\t\n      DUP3 \t\t\t\n      ADD \t\t\t\n      MSTORE \t\t\t\n      PUSH 6472657373000000000000000000000000000000000000000000000000000000\t\t\t\n      PUSH 20\t\t\t\n      DUP3 \t\t\t\n      ADD \t\t\t\n      MSTORE \t\t\t\n      POP \t\t\t\n      JUMP \t\t\t\n    tag 515\t\t\t\n      JUMPDEST \t\t\t\n      PUSH 0\t\t\t\n      PUSH [tag] 962\t\t\t\n      PUSH 25\t\t\t\n      DUP4 \t\t\t\n      PUSH [tag] 429\t\t\t\n      JUMP \t\t\t\n    tag 962\t\t\t\n      JUMPDEST \t\t\t\n      SWAP2 \t\t\t\n      POP \t\t\t\n      PUSH [tag] 963\t\t\t\n      DUP3 \t\t\t\n      PUSH [tag] 514\t\t\t\n      JUMP \t\t\t\n    tag 963\t\t\t\n      JUMPDEST \t\t\t\n      PUSH 40\t\t\t\n      DUP3 \t\t\t\n      ADD \t\t\t\n      SWAP1 \t\t\t\n      POP \t\t\t\n      SWAP2 \t\t\t\n      SWAP1 \t\t\t\n      POP \t\t\t\n      JUMP \t\t\t\n    tag 313\t\t\t\n      JUMPDEST \t\t\t\n      PUSH 0\t\t\t\n      PUSH 20\t\t\t\n      DUP3 \t\t\t\n      ADD \t\t\t\n      SWAP1 \t\t\t\n      POP \t\t\t\n      DUP2 \t\t\t\n      DUP2 \t\t\t\n      SUB \t\t\t\n      PUSH 0\t\t\t\n      DUP4 \t\t\t\n      ADD \t\t\t\n      MSTORE \t\t\t\n      PUSH [tag] 965\t\t\t\n      DUP2 \t\t\t\n      PUSH [tag] 515\t\t\t\n      JUMP \t\t\t\n    tag 965\t\t\t\n      JUMPDEST \t\t\t\n      SWAP1 \t\t\t\n      POP \t\t\t\n      SWAP2 \t\t\t\n      SWAP1 \t\t\t\n      POP \t\t\t\n      JUMP \t\t\t\n    tag 516\t\t\t\n      JUMPDEST \t\t\t\n      PUSH 455243313135353A20696E73756666696369656E742062616C616E636520666F\t\t\t\n      PUSH 0\t\t\t\n      DUP3 \t\t\t\n      ADD \t\t\t\n      MSTORE \t\t\t\n      PUSH 72207472616E7366657200000000000000000000000000000000000000000000\t\t\t\n      PUSH 20\t\t\t\n      DUP3 \t\t\t\n      ADD \t\t\t\n      MSTORE \t\t\t\n      POP \t\t\t\n      JUMP \t\t\t\n    tag 517\t\t\t\n      JUMPDEST \t\t\t\n      PUSH 0\t\t\t\n      PUSH [tag] 968\t\t\t\n      PUSH 2A\t\t\t\n      DUP4 \t\t\t\n      PUSH [tag] 429\t\t\t\n      JUMP \t\t\t\n    tag 968\t\t\t\n      JUMPDEST \t\t\t\n      SWAP2 \t\t\t\n      POP \t\t\t\n      PUSH [tag] 969\t\t\t\n      DUP3 \t\t\t\n      PUSH [tag] 516\t\t\t\n      JUMP \t\t\t\n    tag 969\t\t\t\n      JUMPDEST \t\t\t\n      PUSH 40\t\t\t\n      DUP3 \t\t\t\n      ADD \t\t\t\n      SWAP1 \t\t\t\n      POP \t\t\t\n      SWAP2 \t\t\t\n      SWAP1 \t\t\t\n      POP \t\t\t\n      JUMP \t\t\t\n    tag 326\t\t\t\n      JUMPDEST \t\t\t\n      PUSH 0\t\t\t\n      PUSH 20\t\t\t\n      DUP3 \t\t\t\n      ADD \t\t\t\n      SWAP1 \t\t\t\n      POP \t\t\t\n      DUP2 \t\t\t\n      DUP2 \t\t\t\n      SUB \t\t\t\n      PUSH 0\t\t\t\n      DUP4 \t\t\t\n      ADD \t\t\t\n      MSTORE \t\t\t\n      PUSH [tag] 971\t\t\t\n      DUP2 \t\t\t\n      PUSH [tag] 517\t\t\t\n      JUMP \t\t\t\n    tag 971\t\t\t\n      JUMPDEST \t\t\t\n      SWAP1 \t\t\t\n      POP \t\t\t\n      SWAP2 \t\t\t\n      SWAP1 \t\t\t\n      POP \t\t\t\n      JUMP \t\t\t\n    tag 329\t\t\t\n      JUMPDEST \t\t\t\n      PUSH 0\t\t\t\n      PUSH 40\t\t\t\n      DUP3 \t\t\t\n      ADD \t\t\t\n      SWAP1 \t\t\t\n      POP \t\t\t\n      DUP2 \t\t\t\n      DUP2 \t\t\t\n      SUB \t\t\t\n      PUSH 0\t\t\t\n      DUP4 \t\t\t\n      ADD \t\t\t\n      MSTORE \t\t\t\n      PUSH [tag] 973\t\t\t\n      DUP2 \t\t\t\n      DUP6 \t\t\t\n      PUSH [tag] 454\t\t\t\n      JUMP \t\t\t\n    tag 973\t\t\t\n      JUMPDEST \t\t\t\n      SWAP1 \t\t\t\n      POP \t\t\t\n      DUP2 \t\t\t\n      DUP2 \t\t\t\n      SUB \t\t\t\n      PUSH 20\t\t\t\n      DUP4 \t\t\t\n      ADD \t\t\t\n      MSTORE \t\t\t\n      PUSH [tag] 974\t\t\t\n      DUP2 \t\t\t\n      DUP5 \t\t\t\n      PUSH [tag] 454\t\t\t\n      JUMP \t\t\t\n    tag 974\t\t\t\n      JUMPDEST \t\t\t\n      SWAP1 \t\t\t\n      POP \t\t\t\n      SWAP4 \t\t\t\n      SWAP3 \t\t\t\n      POP \t\t\t\n      POP \t\t\t\n      POP \t\t\t\n      JUMP \t\t\t\n    tag 518\t\t\t\n      JUMPDEST \t\t\t\n      PUSH 455243313135353A206D696E7420746F20746865207A65726F20616464726573\t\t\t\n      PUSH 0\t\t\t\n      DUP3 \t\t\t\n      ADD \t\t\t\n      MSTORE \t\t\t\n      PUSH 7300000000000000000000000000000000000000000000000000000000000000\t\t\t\n      PUSH 20\t\t\t\n      DUP3 \t\t\t\n      ADD \t\t\t\n      MSTORE \t\t\t\n      POP \t\t\t\n      JUMP \t\t\t\n    tag 519\t\t\t\n      JUMPDEST \t\t\t\n      PUSH 0\t\t\t\n      PUSH [tag] 977\t\t\t\n      PUSH 21\t\t\t\n      DUP4 \t\t\t\n      PUSH [tag] 429\t\t\t\n      JUMP \t\t\t\n    tag 977\t\t\t\n      JUMPDEST \t\t\t\n      SWAP2 \t\t\t\n      POP \t\t\t\n      PUSH [tag] 978\t\t\t\n      DUP3 \t\t\t\n      PUSH [tag] 518\t\t\t\n      JUMP \t\t\t\n    tag 978\t\t\t\n      JUMPDEST \t\t\t\n      PUSH 40\t\t\t\n      DUP3 \t\t\t\n      ADD \t\t\t\n      SWAP1 \t\t\t\n      POP \t\t\t\n      SWAP2 \t\t\t\n      SWAP1 \t\t\t\n      POP \t\t\t\n      JUMP \t\t\t\n    tag 335\t\t\t\n      JUMPDEST \t\t\t\n      PUSH 0\t\t\t\n      PUSH 20\t\t\t\n      DUP3 \t\t\t\n      ADD \t\t\t\n      SWAP1 \t\t\t\n      POP \t\t\t\n      DUP2 \t\t\t\n      DUP2 \t\t\t\n      SUB \t\t\t\n      PUSH 0\t\t\t\n      DUP4 \t\t\t\n      ADD \t\t\t\n      MSTORE \t\t\t\n      PUSH [tag] 980\t\t\t\n      DUP2 \t\t\t\n      PUSH [tag] 519\t\t\t\n      JUMP \t\t\t\n    tag 980\t\t\t\n      JUMPDEST \t\t\t\n      SWAP1 \t\t\t\n      POP \t\t\t\n      SWAP2 \t\t\t\n      SWAP1 \t\t\t\n      POP \t\t\t\n      JUMP \t\t\t\n    tag 520\t\t\t\n      JUMPDEST \t\t\t\n      PUSH 0\t\t\t\n      DUP2 \t\t\t\n      MLOAD \t\t\t\n      SWAP1 \t\t\t\n      POP \t\t\t\n      SWAP2 \t\t\t\n      SWAP1 \t\t\t\n      POP \t\t\t\n      JUMP \t\t\t\n    tag 521\t\t\t\n      JUMPDEST \t\t\t\n      PUSH 0\t\t\t\n      DUP3 \t\t\t\n      DUP3 \t\t\t\n      MSTORE \t\t\t\n      PUSH 20\t\t\t\n      DUP3 \t\t\t\n      ADD \t\t\t\n      SWAP1 \t\t\t\n      POP \t\t\t\n      SWAP3 \t\t\t\n      SWAP2 \t\t\t\n      POP \t\t\t\n      POP \t\t\t\n      JUMP \t\t\t\n    tag 522\t\t\t\n      JUMPDEST \t\t\t\n      PUSH 0\t\t\t\n      PUSH [tag] 984\t\t\t\n      DUP3 \t\t\t\n      PUSH [tag] 520\t\t\t\n      JUMP \t\t\t\n    tag 984\t\t\t\n      JUMPDEST \t\t\t\n      PUSH [tag] 985\t\t\t\n      DUP2 \t\t\t\n      DUP6 \t\t\t\n      PUSH [tag] 521\t\t\t\n      JUMP \t\t\t\n    tag 985\t\t\t\n      JUMPDEST \t\t\t\n      SWAP4 \t\t\t\n      POP \t\t\t\n      PUSH [tag] 986\t\t\t\n      DUP2 \t\t\t\n      DUP6 \t\t\t\n      PUSH 20\t\t\t\n      DUP7 \t\t\t\n      ADD \t\t\t\n      PUSH [tag] 430\t\t\t\n      JUMP \t\t\t\n    tag 986\t\t\t\n      JUMPDEST \t\t\t\n      PUSH [tag] 987\t\t\t\n      DUP2 \t\t\t\n      PUSH [tag] 431\t\t\t\n      JUMP \t\t\t\n    tag 987\t\t\t\n      JUMPDEST \t\t\t\n      DUP5 \t\t\t\n      ADD \t\t\t\n      SWAP2 \t\t\t\n      POP \t\t\t\n      POP \t\t\t\n      SWAP3 \t\t\t\n      SWAP2 \t\t\t\n      POP \t\t\t\n      POP \t\t\t\n      JUMP \t\t\t\n    tag 366\t\t\t\n      JUMPDEST \t\t\t\n      PUSH 0\t\t\t\n      PUSH A0\t\t\t\n      DUP3 \t\t\t\n      ADD \t\t\t\n      SWAP1 \t\t\t\n      POP \t\t\t\n      PUSH [tag] 989\t\t\t\n      PUSH 0\t\t\t\n      DUP4 \t\t\t\n      ADD \t\t\t\n      DUP9 \t\t\t\n      PUSH [tag] 458\t\t\t\n      JUMP \t\t\t\n    tag 989\t\t\t\n      JUMPDEST \t\t\t\n      PUSH [tag] 990\t\t\t\n      PUSH 20\t\t\t\n      DUP4 \t\t\t\n      ADD \t\t\t\n      DUP8 \t\t\t\n      PUSH [tag] 458\t\t\t\n      JUMP \t\t\t\n    tag 990\t\t\t\n      JUMPDEST \t\t\t\n      DUP2 \t\t\t\n      DUP2 \t\t\t\n      SUB \t\t\t\n      PUSH 40\t\t\t\n      DUP4 \t\t\t\n      ADD \t\t\t\n      MSTORE \t\t\t\n      PUSH [tag] 991\t\t\t\n      DUP2 \t\t\t\n      DUP7 \t\t\t\n      PUSH [tag] 454\t\t\t\n      JUMP \t\t\t\n    tag 991\t\t\t\n      JUMPDEST \t\t\t\n      SWAP1 \t\t\t\n      POP \t\t\t\n      DUP2 \t\t\t\n      DUP2 \t\t\t\n      SUB \t\t\t\n      PUSH 60\t\t\t\n      DUP4 \t\t\t\n      ADD \t\t\t\n      MSTORE \t\t\t\n      PUSH [tag] 992\t\t\t\n      DUP2 \t\t\t\n      DUP6 \t\t\t\n      PUSH [tag] 454\t\t\t\n      JUMP \t\t\t\n    tag 992\t\t\t\n      JUMPDEST \t\t\t\n      SWAP1 \t\t\t\n      POP \t\t\t\n      DUP2 \t\t\t\n      DUP2 \t\t\t\n      SUB \t\t\t\n      PUSH 80\t\t\t\n      DUP4 \t\t\t\n      ADD \t\t\t\n      MSTORE \t\t\t\n      PUSH [tag] 993\t\t\t\n      DUP2 \t\t\t\n      DUP5 \t\t\t\n      PUSH [tag] 522\t\t\t\n      JUMP \t\t\t\n    tag 993\t\t\t\n      JUMPDEST \t\t\t\n      SWAP1 \t\t\t\n      POP \t\t\t\n      SWAP7 \t\t\t\n      SWAP6 \t\t\t\n      POP \t\t\t\n      POP \t\t\t\n      POP \t\t\t\n      POP \t\t\t\n      POP \t\t\t\n      POP \t\t\t\n      JUMP \t\t\t\n    tag 523\t\t\t\n      JUMPDEST \t\t\t\n      PUSH 0\t\t\t\n      DUP2 \t\t\t\n      MLOAD \t\t\t\n      SWAP1 \t\t\t\n      POP \t\t\t\n      PUSH [tag] 995\t\t\t\n      DUP2 \t\t\t\n      PUSH [tag] 424\t\t\t\n      JUMP \t\t\t\n    tag 995\t\t\t\n      JUMPDEST \t\t\t\n      SWAP3 \t\t\t\n      SWAP2 \t\t\t\n      POP \t\t\t\n      POP \t\t\t\n      JUMP \t\t\t\n    tag 369\t\t\t\n      JUMPDEST \t\t\t\n      PUSH 0\t\t\t\n      PUSH 20\t\t\t\n      DUP3 \t\t\t\n      DUP5 \t\t\t\n      SUB \t\t\t\n      SLT \t\t\t\n      ISZERO \t\t\t\n      PUSH [tag] 997\t\t\t\n      JUMPI \t\t\t\n      PUSH [tag] 998\t\t\t\n      PUSH [tag] 413\t\t\t\n      JUMP \t\t\t\n    tag 998\t\t\t\n      JUMPDEST \t\t\t\n    tag 997\t\t\t\n      JUMPDEST \t\t\t\n      PUSH 0\t\t\t\n      PUSH [tag] 999\t\t\t\n      DUP5 \t\t\t\n      DUP3 \t\t\t\n      DUP6 \t\t\t\n      ADD \t\t\t\n      PUSH [tag] 523\t\t\t\n      JUMP \t\t\t\n    tag 999\t\t\t\n      JUMPDEST \t\t\t\n      SWAP2 \t\t\t\n      POP \t\t\t\n      POP \t\t\t\n      SWAP3 \t\t\t\n      SWAP2 \t\t\t\n      POP \t\t\t\n      POP \t\t\t\n      JUMP \t\t\t\n    tag 524\t\t\t\n      JUMPDEST \t\t\t\n      PUSH 0\t\t\t\n      DUP2 \t\t\t\n      PUSH E0\t\t\t\n      SHR \t\t\t\n      SWAP1 \t\t\t\n      POP \t\t\t\n      SWAP2 \t\t\t\n      SWAP1 \t\t\t\n      POP \t\t\t\n      JUMP \t\t\t\n    tag 375\t\t\t\n      JUMPDEST \t\t\t\n      PUSH 0\t\t\t\n      PUSH 3\t\t\t\n      RETURNDATASIZE \t\t\t\n      GT \t\t\t\n      ISZERO \t\t\t\n      PUSH [tag] 1002\t\t\t\n      JUMPI \t\t\t\n      PUSH 4\t\t\t\n      PUSH 0\t\t\t\n      DUP1 \t\t\t\n      RETURNDATACOPY \t\t\t\n      PUSH [tag] 1003\t\t\t\n      PUSH 0\t\t\t\n      MLOAD \t\t\t\n      PUSH [tag] 524\t\t\t\n      JUMP \t\t\t\n    tag 1003\t\t\t\n      JUMPDEST \t\t\t\n      SWAP1 \t\t\t\n      POP \t\t\t\n    tag 1002\t\t\t\n      JUMPDEST \t\t\t\n      SWAP1 \t\t\t\n      JUMP \t\t\t\n    tag 377\t\t\t\n      JUMPDEST \t\t\t\n      PUSH 0\t\t\t\n      PUSH 44\t\t\t\n      RETURNDATASIZE \t\t\t\n      LT \t\t\t\n      PUSH [tag] 1004\t\t\t\n      JUMPI \t\t\t\n      PUSH [tag] 1006\t\t\t\n      PUSH [tag] 412\t\t\t\n      JUMP \t\t\t\n    tag 1006\t\t\t\n      JUMPDEST \t\t\t\n      PUSH 4\t\t\t\n      RETURNDATASIZE \t\t\t\n      SUB \t\t\t\n      PUSH 4\t\t\t\n      DUP3 \t\t\t\n      RETURNDATACOPY \t\t\t\n      DUP1 \t\t\t\n      MLOAD \t\t\t\n      RETURNDATASIZE \t\t\t\n      PUSH 24\t\t\t\n      DUP3 \t\t\t\n      ADD \t\t\t\n      GT \t\t\t\n      PUSH FFFFFFFFFFFFFFFF\t\t\t\n      DUP3 \t\t\t\n      GT \t\t\t\n      OR \t\t\t\n      ISZERO \t\t\t\n      PUSH [tag] 1007\t\t\t\n      JUMPI \t\t\t\n      POP \t\t\t\n      POP \t\t\t\n      PUSH [tag] 1004\t\t\t\n      JUMP \t\t\t\n    tag 1007\t\t\t\n      JUMPDEST \t\t\t\n      DUP1 \t\t\t\n      DUP3 \t\t\t\n      ADD \t\t\t\n      DUP1 \t\t\t\n      MLOAD \t\t\t\n      PUSH FFFFFFFFFFFFFFFF\t\t\t\n      DUP2 \t\t\t\n      GT \t\t\t\n      ISZERO \t\t\t\n      PUSH [tag] 1008\t\t\t\n      JUMPI \t\t\t\n      POP \t\t\t\n      POP \t\t\t\n      POP \t\t\t\n      POP \t\t\t\n      PUSH [tag] 1004\t\t\t\n      JUMP \t\t\t\n    tag 1008\t\t\t\n      JUMPDEST \t\t\t\n      DUP1 \t\t\t\n      PUSH 20\t\t\t\n      DUP4 \t\t\t\n      ADD \t\t\t\n      ADD \t\t\t\n      PUSH 4\t\t\t\n      RETURNDATASIZE \t\t\t\n      SUB \t\t\t\n      DUP6 \t\t\t\n      ADD \t\t\t\n      DUP2 \t\t\t\n      GT \t\t\t\n      ISZERO \t\t\t\n      PUSH [tag] 1009\t\t\t\n      JUMPI \t\t\t\n      POP \t\t\t\n      POP \t\t\t\n      POP \t\t\t\n      POP \t\t\t\n      POP \t\t\t\n      PUSH [tag] 1004\t\t\t\n      JUMP \t\t\t\n    tag 1009\t\t\t\n      JUMPDEST \t\t\t\n      PUSH [tag] 1010\t\t\t\n      DUP3 \t\t\t\n      PUSH 20\t\t\t\n      ADD \t\t\t\n      DUP6 \t\t\t\n      ADD \t\t\t\n      DUP7 \t\t\t\n      PUSH [tag] 434\t\t\t\n      JUMP \t\t\t\n    tag 1010\t\t\t\n      JUMPDEST \t\t\t\n      DUP3 \t\t\t\n      SWAP6 \t\t\t\n      POP \t\t\t\n      POP \t\t\t\n      POP \t\t\t\n      POP \t\t\t\n      POP \t\t\t\n      POP \t\t\t\n    tag 1004\t\t\t\n      JUMPDEST \t\t\t\n      SWAP1 \t\t\t\n      JUMP \t\t\t\n    tag 525\t\t\t\n      JUMPDEST \t\t\t\n      PUSH 455243313135353A207472616E7366657220746F206E6F6E2045524331313535\t\t\t\n      PUSH 0\t\t\t\n      DUP3 \t\t\t\n      ADD \t\t\t\n      MSTORE \t\t\t\n      PUSH 526563656976657220696D706C656D656E746572000000000000000000000000\t\t\t\n      PUSH 20\t\t\t\n      DUP3 \t\t\t\n      ADD \t\t\t\n      MSTORE \t\t\t\n      POP \t\t\t\n      JUMP \t\t\t\n    tag 526\t\t\t\n      JUMPDEST \t\t\t\n      PUSH 0\t\t\t\n      PUSH [tag] 1013\t\t\t\n      PUSH 34\t\t\t\n      DUP4 \t\t\t\n      PUSH [tag] 429\t\t\t\n      JUMP \t\t\t\n    tag 1013\t\t\t\n      JUMPDEST \t\t\t\n      SWAP2 \t\t\t\n      POP \t\t\t\n      PUSH [tag] 1014\t\t\t\n      DUP3 \t\t\t\n      PUSH [tag] 525\t\t\t\n      JUMP \t\t\t\n    tag 1014\t\t\t\n      JUMPDEST \t\t\t\n      PUSH 40\t\t\t\n      DUP3 \t\t\t\n      ADD \t\t\t\n      SWAP1 \t\t\t\n      POP \t\t\t\n      SWAP2 \t\t\t\n      SWAP1 \t\t\t\n      POP \t\t\t\n      JUMP \t\t\t\n    tag 381\t\t\t\n      JUMPDEST \t\t\t\n      PUSH 0\t\t\t\n      PUSH 20\t\t\t\n      DUP3 \t\t\t\n      ADD \t\t\t\n      SWAP1 \t\t\t\n      POP \t\t\t\n      DUP2 \t\t\t\n      DUP2 \t\t\t\n      SUB \t\t\t\n      PUSH 0\t\t\t\n      DUP4 \t\t\t\n      ADD \t\t\t\n      MSTORE \t\t\t\n      PUSH [tag] 1016\t\t\t\n      DUP2 \t\t\t\n      PUSH [tag] 526\t\t\t\n      JUMP \t\t\t\n    tag 1016\t\t\t\n      JUMPDEST \t\t\t\n      SWAP1 \t\t\t\n      POP \t\t\t\n      SWAP2 \t\t\t\n      SWAP1 \t\t\t\n      POP \t\t\t\n      JUMP \t\t\t\n    tag 527\t\t\t\n      JUMPDEST \t\t\t\n      PUSH 455243313135353A204552433131353552656365697665722072656A65637465\t\t\t\n      PUSH 0\t\t\t\n      DUP3 \t\t\t\n      ADD \t\t\t\n      MSTORE \t\t\t\n      PUSH 6420746F6B656E73000000000000000000000000000000000000000000000000\t\t\t\n      PUSH 20\t\t\t\n      DUP3 \t\t\t\n      ADD \t\t\t\n      MSTORE \t\t\t\n      POP \t\t\t\n      JUMP \t\t\t\n    tag 528\t\t\t\n      JUMPDEST \t\t\t\n      PUSH 0\t\t\t\n      PUSH [tag] 1019\t\t\t\n      PUSH 28\t\t\t\n      DUP4 \t\t\t\n      PUSH [tag] 429\t\t\t\n      JUMP \t\t\t\n    tag 1019\t\t\t\n      JUMPDEST \t\t\t\n      SWAP2 \t\t\t\n      POP \t\t\t\n      PUSH [tag] 1020\t\t\t\n      DUP3 \t\t\t\n      PUSH [tag] 527\t\t\t\n      JUMP \t\t\t\n    tag 1020\t\t\t\n      JUMPDEST \t\t\t\n      PUSH 40\t\t\t\n      DUP3 \t\t\t\n      ADD \t\t\t\n      SWAP1 \t\t\t\n      POP \t\t\t\n      SWAP2 \t\t\t\n      SWAP1 \t\t\t\n      POP \t\t\t\n      JUMP \t\t\t\n    tag 385\t\t\t\n      JUMPDEST \t\t\t\n      PUSH 0\t\t\t\n      PUSH 20\t\t\t\n      DUP3 \t\t\t\n      ADD \t\t\t\n      SWAP1 \t\t\t\n      POP \t\t\t\n      DUP2 \t\t\t\n      DUP2 \t\t\t\n      SUB \t\t\t\n      PUSH 0\t\t\t\n      DUP4 \t\t\t\n      ADD \t\t\t\n      MSTORE \t\t\t\n      PUSH [tag] 1022\t\t\t\n      DUP2 \t\t\t\n      PUSH [tag] 528\t\t\t\n      JUMP \t\t\t\n    tag 1022\t\t\t\n      JUMPDEST \t\t\t\n      SWAP1 \t\t\t\n      POP \t\t\t\n      SWAP2 \t\t\t\n      SWAP1 \t\t\t\n      POP \t\t\t\n      JUMP \t\t\t\n    tag 396\t\t\t\n      JUMPDEST \t\t\t\n      PUSH 0\t\t\t\n      PUSH A0\t\t\t\n      DUP3 \t\t\t\n      ADD \t\t\t\n      SWAP1 \t\t\t\n      POP \t\t\t\n      PUSH [tag] 1024\t\t\t\n      PUSH 0\t\t\t\n      DUP4 \t\t\t\n      ADD \t\t\t\n      DUP9 \t\t\t\n      PUSH [tag] 458\t\t\t\n      JUMP \t\t\t\n    tag 1024\t\t\t\n      JUMPDEST \t\t\t\n      PUSH [tag] 1025\t\t\t\n      PUSH 20\t\t\t\n      DUP4 \t\t\t\n      ADD \t\t\t\n      DUP8 \t\t\t\n      PUSH [tag] 458\t\t\t\n      JUMP \t\t\t\n    tag 1025\t\t\t\n      JUMPDEST \t\t\t\n      PUSH [tag] 1026\t\t\t\n      PUSH 40\t\t\t\n      DUP4 \t\t\t\n      ADD \t\t\t\n      DUP7 \t\t\t\n      PUSH [tag] 422\t\t\t\n      JUMP \t\t\t\n    tag 1026\t\t\t\n      JUMPDEST \t\t\t\n      PUSH [tag] 1027\t\t\t\n      PUSH 60\t\t\t\n      DUP4 \t\t\t\n      ADD \t\t\t\n      DUP6 \t\t\t\n      PUSH [tag] 422\t\t\t\n      JUMP \t\t\t\n    tag 1027\t\t\t\n      JUMPDEST \t\t\t\n      DUP2 \t\t\t\n      DUP2 \t\t\t\n      SUB \t\t\t\n      PUSH 80\t\t\t\n      DUP4 \t\t\t\n      ADD \t\t\t\n      MSTORE \t\t\t\n      PUSH [tag] 1028\t\t\t\n      DUP2 \t\t\t\n      DUP5 \t\t\t\n      PUSH [tag] 522\t\t\t\n      JUMP \t\t\t\n    tag 1028\t\t\t\n      JUMPDEST \t\t\t\n      SWAP1 \t\t\t\n      POP \t\t\t\n      SWAP7 \t\t\t\n      SWAP6 \t\t\t\n      POP \t\t\t\n      POP \t\t\t\n      POP \t\t\t\n      POP \t\t\t\n      POP \t\t\t\n      POP \t\t\t\n      JUMP \t\t\t\n    .data\n"
}