{
  "_format": "hh-sol-artifact-1",
  "contractName": "MusicTuneVibe",
  "sourceName": "contracts/MusicTuneVibe.sol",
  "abi": [
    {
      "inputs": [
        {
          "internalType": "string",
          "name": "_ipfs",
          "type": "string"
        }
      ],
      "stateMutability": "nonpayable",
      "type": "constructor"
    },
    {
      "anonymous": false,
      "inputs": [
        {
          "indexed": true,
          "internalType": "address",
          "name": "account",
          "type": "address"
        },
        {
          "indexed": true,
          "internalType": "address",
          "name": "operator",
          "type": "address"
        },
        {
          "indexed": false,
          "internalType": "bool",
          "name": "approved",
          "type": "bool"
        }
      ],
      "name": "ApprovalForAll",
      "type": "event"
    },
    {
      "anonymous": false,
      "inputs": [
        {
          "indexed": true,
          "internalType": "uint256",
          "name": "tokenId",
          "type": "uint256"
        },
        {
          "indexed": false,
          "internalType": "uint256",
          "name": "amount",
          "type": "uint256"
        },
        {
          "indexed": false,
          "internalType": "uint256",
          "name": "price",
          "type": "uint256"
        }
      ],
      "name": "BuyMusicNFT",
      "type": "event"
    },
    {
      "anonymous": false,
      "inputs": [
        {
          "indexed": true,
          "internalType": "uint256",
          "name": "tokenId",
          "type": "uint256"
        },
        {
          "indexed": false,
          "internalType": "string",
          "name": "uri",
          "type": "string"
        },
        {
          "indexed": false,
          "internalType": "uint256",
          "name": "amount",
          "type": "uint256"
        },
        {
          "indexed": false,
          "internalType": "uint256",
          "name": "price",
          "type": "uint256"
        },
        {
          "indexed": false,
          "internalType": "address",
          "name": "artirt",
          "type": "address"
        }
      ],
      "name": "MusicNFTCreated",
      "type": "event"
    },
    {
      "anonymous": false,
      "inputs": [
        {
          "indexed": true,
          "internalType": "address",
          "name": "previousOwner",
          "type": "address"
        },
        {
          "indexed": true,
          "internalType": "address",
          "name": "newOwner",
          "type": "address"
        }
      ],
      "name": "OwnershipTransferred",
      "type": "event"
    },
    {
      "anonymous": false,
      "inputs": [
        {
          "indexed": true,
          "internalType": "address",
          "name": "operator",
          "type": "address"
        },
        {
          "indexed": true,
          "internalType": "address",
          "name": "from",
          "type": "address"
        },
        {
          "indexed": true,
          "internalType": "address",
          "name": "to",
          "type": "address"
        },
        {
          "indexed": false,
          "internalType": "uint256[]",
          "name": "ids",
          "type": "uint256[]"
        },
        {
          "indexed": false,
          "internalType": "uint256[]",
          "name": "values",
          "type": "uint256[]"
        }
      ],
      "name": "TransferBatch",
      "type": "event"
    },
    {
      "anonymous": false,
      "inputs": [
        {
          "indexed": true,
          "internalType": "address",
          "name": "operator",
          "type": "address"
        },
        {
          "indexed": true,
          "internalType": "address",
          "name": "from",
          "type": "address"
        },
        {
          "indexed": true,
          "internalType": "address",
          "name": "to",
          "type": "address"
        },
        {
          "indexed": false,
          "internalType": "uint256",
          "name": "id",
          "type": "uint256"
        },
        {
          "indexed": false,
          "internalType": "uint256",
          "name": "value",
          "type": "uint256"
        }
      ],
      "name": "TransferSingle",
      "type": "event"
    },
    {
      "anonymous": false,
      "inputs": [
        {
          "indexed": false,
          "internalType": "string",
          "name": "value",
          "type": "string"
        },
        {
          "indexed": true,
          "internalType": "uint256",
          "name": "id",
          "type": "uint256"
        }
      ],
      "name": "URI",
      "type": "event"
    },
    {
      "anonymous": false,
      "inputs": [
        {
          "indexed": false,
          "internalType": "uint256",
          "name": "amount",
          "type": "uint256"
        },
        {
          "indexed": false,
          "internalType": "uint256",
          "name": "when",
          "type": "uint256"
        }
      ],
      "name": "Withdrawal",
      "type": "event"
    },
    {
      "inputs": [
        {
          "internalType": "address",
          "name": "account",
          "type": "address"
        },
        {
          "internalType": "uint256",
          "name": "id",
          "type": "uint256"
        }
      ],
      "name": "balanceOf",
      "outputs": [
        {
          "internalType": "uint256",
          "name": "",
          "type": "uint256"
        }
      ],
      "stateMutability": "view",
      "type": "function"
    },
    {
      "inputs": [
        {
          "internalType": "address[]",
          "name": "accounts",
          "type": "address[]"
        },
        {
          "internalType": "uint256[]",
          "name": "ids",
          "type": "uint256[]"
        }
      ],
      "name": "balanceOfBatch",
      "outputs": [
        {
          "internalType": "uint256[]",
          "name": "",
          "type": "uint256[]"
        }
      ],
      "stateMutability": "view",
      "type": "function"
    },
    {
      "inputs": [
        {
          "internalType": "uint256",
          "name": "tokenId",
          "type": "uint256"
        },
        {
          "internalType": "uint256",
          "name": "amount",
          "type": "uint256"
        }
      ],
      "name": "buyNFT",
      "outputs": [],
      "stateMutability": "payable",
      "type": "function"
    },
    {
      "inputs": [],
      "name": "getListingFee",
      "outputs": [
        {
          "internalType": "uint256",
          "name": "",
          "type": "uint256"
        }
      ],
      "stateMutability": "view",
      "type": "function"
    },
    {
      "inputs": [
        {
          "internalType": "address",
          "name": "account",
          "type": "address"
        },
        {
          "internalType": "address",
          "name": "operator",
          "type": "address"
        }
      ],
      "name": "isApprovedForAll",
      "outputs": [
        {
          "internalType": "bool",
          "name": "",
          "type": "bool"
        }
      ],
      "stateMutability": "view",
      "type": "function"
    },
    {
      "inputs": [
        {
          "internalType": "uint256",
          "name": "_tokenId",
          "type": "uint256"
        }
      ],
      "name": "music",
      "outputs": [
        {
          "components": [
            {
              "internalType": "uint256",
              "name": "tokenId",
              "type": "uint256"
            },
            {
              "internalType": "string",
              "name": "uri",
              "type": "string"
            },
            {
              "internalType": "uint256",
              "name": "amount",
              "type": "uint256"
            },
            {
              "internalType": "uint256",
              "name": "price",
              "type": "uint256"
            },
            {
              "internalType": "address",
              "name": "artirt",
              "type": "address"
            }
          ],
          "internalType": "struct MusicTuneVibe.Music",
          "name": "",
          "type": "tuple"
        }
      ],
      "stateMutability": "view",
      "type": "function"
    },
    {
      "inputs": [
        {
          "internalType": "address",
          "name": "",
          "type": "address"
        },
        {
          "internalType": "address",
          "name": "",
          "type": "address"
        },
        {
          "internalType": "uint256",
          "name": "",
          "type": "uint256"
        },
        {
          "internalType": "uint256",
          "name": "",
          "type": "uint256"
        },
        {
          "internalType": "bytes",
          "name": "",
          "type": "bytes"
        }
      ],
      "name": "onERC1155Received",
      "outputs": [
        {
          "internalType": "bytes4",
          "name": "",
          "type": "bytes4"
        }
      ],
      "stateMutability": "nonpayable",
      "type": "function"
    },
    {
      "inputs": [],
      "name": "owner",
      "outputs": [
        {
          "internalType": "address",
          "name": "",
          "type": "address"
        }
      ],
      "stateMutability": "view",
      "type": "function"
    },
    {
      "inputs": [
        {
          "internalType": "uint256",
          "name": "_tokenId",
          "type": "uint256"
        },
        {
          "internalType": "uint256",
          "name": "_amount",
          "type": "uint256"
        }
      ],
      "name": "reSale",
      "outputs": [
        {
          "internalType": "uint256",
          "name": "",
          "type": "uint256"
        }
      ],
      "stateMutability": "payable",
      "type": "function"
    },
    {
      "inputs": [],
      "name": "renounceOwnership",
      "outputs": [],
      "stateMutability": "nonpayable",
      "type": "function"
    },
    {
      "inputs": [
        {
          "internalType": "address",
          "name": "from",
          "type": "address"
        },
        {
          "internalType": "address",
          "name": "to",
          "type": "address"
        },
        {
          "internalType": "uint256[]",
          "name": "ids",
          "type": "uint256[]"
        },
        {
          "internalType": "uint256[]",
          "name": "amounts",
          "type": "uint256[]"
        },
        {
          "internalType": "bytes",
          "name": "data",
          "type": "bytes"
        }
      ],
      "name": "safeBatchTransferFrom",
      "outputs": [],
      "stateMutability": "nonpayable",
      "type": "function"
    },
    {
      "inputs": [
        {
          "internalType": "string",
          "name": "_token",
          "type": "string"
        },
        {
          "internalType": "uint256",
          "name": "_amount",
          "type": "uint256"
        },
        {
          "internalType": "uint256",
          "name": "_price",
          "type": "uint256"
        }
      ],
      "name": "safeMint",
      "outputs": [],
      "stateMutability": "payable",
      "type": "function"
    },
    {
      "inputs": [
        {
          "internalType": "address",
          "name": "from",
          "type": "address"
        },
        {
          "internalType": "address",
          "name": "to",
          "type": "address"
        },
        {
          "internalType": "uint256",
          "name": "id",
          "type": "uint256"
        },
        {
          "internalType": "uint256",
          "name": "amount",
          "type": "uint256"
        },
        {
          "internalType": "bytes",
          "name": "data",
          "type": "bytes"
        }
      ],
      "name": "safeTransferFrom",
      "outputs": [],
      "stateMutability": "nonpayable",
      "type": "function"
    },
    {
      "inputs": [
        {
          "internalType": "address",
          "name": "operator",
          "type": "address"
        },
        {
          "internalType": "bool",
          "name": "approved",
          "type": "bool"
        }
      ],
      "name": "setApprovalForAll",
      "outputs": [],
      "stateMutability": "nonpayable",
      "type": "function"
    },
    {
      "inputs": [
        {
          "internalType": "string",
          "name": "_uri",
          "type": "string"
        }
      ],
      "name": "setIPFS",
      "outputs": [],
      "stateMutability": "nonpayable",
      "type": "function"
    },
    {
      "inputs": [
        {
          "internalType": "bytes4",
          "name": "interfaceId",
          "type": "bytes4"
        }
      ],
      "name": "supportsInterface",
      "outputs": [
        {
          "internalType": "bool",
          "name": "",
          "type": "bool"
        }
      ],
      "stateMutability": "view",
      "type": "function"
    },
    {
      "inputs": [
        {
          "internalType": "string",
          "name": "_hash",
          "type": "string"
        }
      ],
      "name": "tokenByHash",
      "outputs": [
        {
          "components": [
            {
              "internalType": "uint256",
              "name": "tokenId",
              "type": "uint256"
            },
            {
              "internalType": "string",
              "name": "uri",
              "type": "string"
            },
            {
              "internalType": "uint256",
              "name": "amount",
              "type": "uint256"
            },
            {
              "internalType": "uint256",
              "name": "price",
              "type": "uint256"
            },
            {
              "internalType": "address",
              "name": "artirt",
              "type": "address"
            }
          ],
          "internalType": "struct MusicTuneVibe.Music",
          "name": "",
          "type": "tuple"
        }
      ],
      "stateMutability": "view",
      "type": "function"
    },
    {
      "inputs": [
        {
          "internalType": "uint256",
          "name": "",
          "type": "uint256"
        }
      ],
      "name": "tokens",
      "outputs": [
        {
          "internalType": "string",
          "name": "",
          "type": "string"
        }
      ],
      "stateMutability": "view",
      "type": "function"
    },
    {
      "inputs": [
        {
          "internalType": "address",
          "name": "newOwner",
          "type": "address"
        }
      ],
      "name": "transferOwnership",
      "outputs": [],
      "stateMutability": "nonpayable",
      "type": "function"
    },
    {
      "inputs": [
        {
          "internalType": "uint256",
          "name": "tokenId",
          "type": "uint256"
        }
      ],
      "name": "uri",
      "outputs": [
        {
          "internalType": "string",
          "name": "",
          "type": "string"
        }
      ],
      "stateMutability": "view",
      "type": "function"
    }
  ],
  "bytecode": "0x608060405260006007553480156200001657600080fd5b50604051620049853803806200498583398181016040528101906200003c91906200034e565b604051806020016040528060008152506200005d81620000d860201b60201c565b506200007e62000072620000ed60201b60201c565b620000f560201b60201c565b80600590816200008f9190620005ea565b5033600660006101000a81548173ffffffffffffffffffffffffffffffffffffffff021916908373ffffffffffffffffffffffffffffffffffffffff16021790555050620006d1565b8060029081620000e99190620005ea565b5050565b600033905090565b6000600360009054906101000a900473ffffffffffffffffffffffffffffffffffffffff16905081600360006101000a81548173ffffffffffffffffffffffffffffffffffffffff021916908373ffffffffffffffffffffffffffffffffffffffff1602179055508173ffffffffffffffffffffffffffffffffffffffff168173ffffffffffffffffffffffffffffffffffffffff167f8be0079c531659141344cd1fd0a4f28419497f9722a3daafe3b4186f6b6457e060405160405180910390a35050565b6000604051905090565b600080fd5b600080fd5b600080fd5b600080fd5b6000601f19601f8301169050919050565b7f4e487b7100000000000000000000000000000000000000000000000000000000600052604160045260246000fd5b6200022482620001d9565b810181811067ffffffffffffffff82111715620002465762000245620001ea565b5b80604052505050565b60006200025b620001bb565b905062000269828262000219565b919050565b600067ffffffffffffffff8211156200028c576200028b620001ea565b5b6200029782620001d9565b9050602081019050919050565b60005b83811015620002c4578082015181840152602081019050620002a7565b60008484015250505050565b6000620002e7620002e1846200026e565b6200024f565b905082815260208101848484011115620003065762000305620001d4565b5b62000313848285620002a4565b509392505050565b600082601f830112620003335762000332620001cf565b5b815162000345848260208601620002d0565b91505092915050565b600060208284031215620003675762000366620001c5565b5b600082015167ffffffffffffffff811115620003885762000387620001ca565b5b62000396848285016200031b565b91505092915050565b600081519050919050565b7f4e487b7100000000000000000000000000000000000000000000000000000000600052602260045260246000fd5b60006002820490506001821680620003f257607f821691505b602082108103620004085762000407620003aa565b5b50919050565b60008190508160005260206000209050919050565b60006020601f8301049050919050565b600082821b905092915050565b600060088302620004727fffffffffffffffffffffffffffffffffffffffffffffffffffffffffffffffff8262000433565b6200047e868362000433565b95508019841693508086168417925050509392505050565b6000819050919050565b6000819050919050565b6000620004cb620004c5620004bf8462000496565b620004a0565b62000496565b9050919050565b6000819050919050565b620004e783620004aa565b620004ff620004f682620004d2565b84845462000440565b825550505050565b600090565b6200051662000507565b62000523818484620004dc565b505050565b5b818110156200054b576200053f6000826200050c565b60018101905062000529565b5050565b601f8211156200059a5762000564816200040e565b6200056f8462000423565b810160208510156200057f578190505b620005976200058e8562000423565b83018262000528565b50505b505050565b600082821c905092915050565b6000620005bf600019846008026200059f565b1980831691505092915050565b6000620005da8383620005ac565b9150826002028217905092915050565b620005f5826200039f565b67ffffffffffffffff811115620006115762000610620001ea565b5b6200061d8254620003d9565b6200062a8282856200054f565b600060209050601f8311600181146200066257600084156200064d578287015190505b620006598582620005cc565b865550620006c9565b601f19841662000672866200040e565b60005b828110156200069c5784890151825560018201915060208501945060208101905062000675565b86831015620006bc5784890151620006b8601f891682620005ac565b8355505b6001600288020188555050505b505050505050565b6142a480620006e16000396000f3fe60806040526004361061011e5760003560e01c80638da5cb5b116100a0578063dac187c711610064578063dac187c7146103e1578063e985e9c51461041e578063f23a6e611461045b578063f242432a14610498578063f2fde38b146104c15761011e565b80638da5cb5b146102fc5780639eb4766714610327578063a22cb46514610364578063b8fe6abe1461038d578063d19ac77a146103b85761011e565b80634e1273f4116100e75780634e1273f41461021f5780634f64b2be1461025c5780636e1f94e114610299578063715018a6146102b557806380f0a63a146102cc5761011e565b8062fdd58e1461012357806301ffc9a7146101605780630e89341c1461019d5780631d85bf03146101da5780632eb2c2d6146101f6575b600080fd5b34801561012f57600080fd5b5061014a6004803603810190610145919061259f565b6104ea565b60405161015791906125ee565b60405180910390f35b34801561016c57600080fd5b5061018760048036038101906101829190612661565b6105b2565b60405161019491906126a9565b60405180910390f35b3480156101a957600080fd5b506101c460048036038101906101bf91906126c4565b610694565b6040516101d19190612781565b60405180910390f35b6101f460048036038101906101ef91906127a3565b6106d5565b005b34801561020257600080fd5b5061021d600480360381019061021891906129e0565b61097c565b005b34801561022b57600080fd5b5061024660048036038101906102419190612b72565b610a1d565b6040516102539190612ca8565b60405180910390f35b34801561026857600080fd5b50610283600480360381019061027e91906126c4565b610b30565b6040516102909190612781565b60405180910390f35b6102b360048036038101906102ae9190612d6b565b610bdc565b005b3480156102c157600080fd5b506102ca610ec5565b005b6102e660048036038101906102e191906127a3565b610f4d565b6040516102f391906125ee565b60405180910390f35b34801561030857600080fd5b50610311610fa1565b60405161031e9190612de9565b60405180910390f35b34801561033357600080fd5b5061034e600480360381019061034991906126c4565b610fcb565b60405161035b9190612ed3565b60405180910390f35b34801561037057600080fd5b5061038b60048036038101906103869190612f21565b6110fe565b005b34801561039957600080fd5b506103a261127e565b6040516103af91906125ee565b60405180910390f35b3480156103c457600080fd5b506103df60048036038101906103da9190612f61565b611288565b005b3480156103ed57600080fd5b5061040860048036038101906104039190612f61565b611317565b6040516104159190612ed3565b60405180910390f35b34801561042a57600080fd5b5061044560048036038101906104409190612faa565b6115ab565b60405161045291906126a9565b60405180910390f35b34801561046757600080fd5b50610482600480360381019061047d9190612fea565b61163f565b60405161048f9190613090565b60405180910390f35b3480156104a457600080fd5b506104bf60048036038101906104ba9190612fea565b611654565b005b3480156104cd57600080fd5b506104e860048036038101906104e391906130ab565b6116f5565b005b60008073ffffffffffffffffffffffffffffffffffffffff168373ffffffffffffffffffffffffffffffffffffffff160361055a576040517f08c379a00000000000000000000000000000000000000000000000000000000081526004016105519061314a565b60405180910390fd5b60008083815260200190815260200160002060008473ffffffffffffffffffffffffffffffffffffffff1673ffffffffffffffffffffffffffffffffffffffff16815260200190815260200160002054905092915050565b60007fd9b67a26000000000000000000000000000000000000000000000000000000007bffffffffffffffffffffffffffffffffffffffffffffffffffffffff1916827bffffffffffffffffffffffffffffffffffffffffffffffffffffffff1916148061067d57507f0e89341c000000000000000000000000000000000000000000000000000000007bffffffffffffffffffffffffffffffffffffffffffffffffffffffff1916827bffffffffffffffffffffffffffffffffffffffffffffffffffffffff1916145b8061068d575061068c826117ec565b5b9050919050565b60606005600960008481526020019081526020016000206001016040516020016106bf92919061326d565b6040516020818303038152906040529050919050565b600060096000848152602001908152602001600020600301549050600082826106fe91906132c0565b90508260096000868152602001908152602001600020600201541015610759576040517f08c379a00000000000000000000000000000000000000000000000000000000081526004016107509061334e565b60405180910390fd5b80341461079b576040517f08c379a0000000000000000000000000000000000000000000000000000000008152600401610792906133e0565b60405180910390fd5b6009600085815260200190815260200160002060040160009054906101000a900473ffffffffffffffffffffffffffffffffffffffff1673ffffffffffffffffffffffffffffffffffffffff166108fc829081150290604051600060405180830381858888f19350505050158015610817573d6000803e3d6000fd5b508260096000868152602001908152602001600020600201600082825461083e9190613400565b925050819055506108976009600086815260200190815260200160002060040160009054906101000a900473ffffffffffffffffffffffffffffffffffffffff163386866040518060200160405280600081525061163f565b5061093c6009600086815260200190815260200160002060040160009054906101000a900473ffffffffffffffffffffffffffffffffffffffff1633600960008881526020019081526020016000206000015460096000898152602001908152602001600020600201546040518060400160405280600381526020017f3078300000000000000000000000000000000000000000000000000000000000815250611654565b837f73da24c1c5a65dd010b8a07187c8a579ce7225624d0efc87c73eb7beb8c8e6b8848460405161096e929190613434565b60405180910390a250505050565b610984611856565b73ffffffffffffffffffffffffffffffffffffffff168573ffffffffffffffffffffffffffffffffffffffff1614806109ca57506109c9856109c4611856565b6115ab565b5b610a09576040517f08c379a0000000000000000000000000000000000000000000000000000000008152600401610a00906134cf565b60405180910390fd5b610a16858585858561185e565b5050505050565b60608151835114610a63576040517f08c379a0000000000000000000000000000000000000000000000000000000008152600401610a5a90613561565b60405180910390fd5b6000835167ffffffffffffffff811115610a8057610a7f6127e8565b5b604051908082528060200260200182016040528015610aae5781602001602082028036833780820191505090505b50905060005b8451811015610b2557610afb858281518110610ad357610ad2613581565b5b6020026020010151858381518110610aee57610aed613581565b5b60200260200101516104ea565b828281518110610b0e57610b0d613581565b5b602002602001018181525050806001019050610ab4565b508091505092915050565b60048181548110610b4057600080fd5b906000526020600020016000915090508054610b5b90613199565b80601f0160208091040260200160405190810160405280929190818152602001828054610b8790613199565b8015610bd45780601f10610ba957610100808354040283529160200191610bd4565b820191906000526020600020905b815481529060010190602001808311610bb757829003601f168201915b505050505081565b600883604051610bec91906135e1565b908152602001604051809103902060009054906101000a900460ff1615610c48576040517f08c379a0000000000000000000000000000000000000000000000000000000008152600401610c3f90613644565b60405180910390fd5b60008111610c8b576040517f08c379a0000000000000000000000000000000000000000000000000000000008152600401610c82906136b0565b60405180910390fd5b6007543414610ccf576040517f08c379a0000000000000000000000000000000000000000000000000000000008152600401610cc69061371c565b60405180910390fd5b600073ffffffffffffffffffffffffffffffffffffffff166108fc349081150290604051600060405180830381858888f19350505050158015610d16573d6000803e3d6000fd5b50600483908060018154018082558091505060019003906000526020600020016000909190919091509081610d4b91906138d3565b5060006004805490509050610d7133828560405180602001604052806000815250611b6b565b610d7c3060016110fe565b6040518060a001604052808281526020018581526020018481526020018381526020013373ffffffffffffffffffffffffffffffffffffffff1681525060096000838152602001908152602001600020600082015181600001556020820151816001019081610deb91906138d3565b50604082015181600201556060820151816003015560808201518160040160006101000a81548173ffffffffffffffffffffffffffffffffffffffff021916908373ffffffffffffffffffffffffffffffffffffffff1602179055509050506001600885604051610e5c91906135e1565b908152602001604051809103902060006101000a81548160ff021916908315150217905550807f878637f2c01e0948d56963da142376811a0261fea617351062b12de43bfb1dee85858533604051610eb794939291906139a5565b60405180910390a250505050565b610ecd611856565b73ffffffffffffffffffffffffffffffffffffffff16610eeb610fa1565b73ffffffffffffffffffffffffffffffffffffffff1614610f41576040517f08c379a0000000000000000000000000000000000000000000000000000000008152600401610f3890613a3d565b60405180910390fd5b610f4b6000611d00565b565b6000610f6b3330858560405180602001604052806000815250611654565b81600960008581526020019081526020016000206002016000828254610f919190613a5d565b9250508190555082905092915050565b6000600360009054906101000a900473ffffffffffffffffffffffffffffffffffffffff16905090565b610fd36124b2565b600960008381526020019081526020016000206040518060a00160405290816000820154815260200160018201805461100b90613199565b80601f016020809104026020016040519081016040528092919081815260200182805461103790613199565b80156110845780601f1061105957610100808354040283529160200191611084565b820191906000526020600020905b81548152906001019060200180831161106757829003601f168201915b5050505050815260200160028201548152602001600382015481526020016004820160009054906101000a900473ffffffffffffffffffffffffffffffffffffffff1673ffffffffffffffffffffffffffffffffffffffff1673ffffffffffffffffffffffffffffffffffffffff16815250509050919050565b8173ffffffffffffffffffffffffffffffffffffffff1661111d611856565b73ffffffffffffffffffffffffffffffffffffffff1603611173576040517f08c379a000000000000000000000000000000000000000000000000000000000815260040161116a90613b03565b60405180910390fd5b8060016000611180611856565b73ffffffffffffffffffffffffffffffffffffffff1673ffffffffffffffffffffffffffffffffffffffff16815260200190815260200160002060008473ffffffffffffffffffffffffffffffffffffffff1673ffffffffffffffffffffffffffffffffffffffff16815260200190815260200160002060006101000a81548160ff0219169083151502179055508173ffffffffffffffffffffffffffffffffffffffff1661122d611856565b73ffffffffffffffffffffffffffffffffffffffff167f17307eab39ab6107e8899845ad3d59bd9653f200f220920489ca2b5937696c318360405161127291906126a9565b60405180910390a35050565b6000600754905090565b611290611856565b73ffffffffffffffffffffffffffffffffffffffff166112ae610fa1565b73ffffffffffffffffffffffffffffffffffffffff1614611304576040517f08c379a00000000000000000000000000000000000000000000000000000000081526004016112fb90613a3d565b60405180910390fd5b806005908161131391906138d3565b5050565b61131f6124b2565b60088260405161132f91906135e1565b908152602001604051809103902060009054906101000a900460ff1661138a576040517f08c379a000000000000000000000000000000000000000000000000000000000815260040161138190613b6f565b60405180910390fd5b60005b6004805490508110156115985761144e600960006001846113ae9190613a5d565b815260200190815260200160002060010180546113ca90613199565b80601f01602080910402602001604051908101604052809291908181526020018280546113f690613199565b80156114435780601f1061141857610100808354040283529160200191611443565b820191906000526020600020905b81548152906001019060200180831161142657829003601f168201915b505050505084611dc6565b1561158b57600960006001836114649190613a5d565b81526020019081526020016000206040518060a00160405290816000820154815260200160018201805461149790613199565b80601f01602080910402602001604051908101604052809291908181526020018280546114c390613199565b80156115105780601f106114e557610100808354040283529160200191611510565b820191906000526020600020905b8154815290600101906020018083116114f357829003601f168201915b5050505050815260200160028201548152602001600382015481526020016004820160009054906101000a900473ffffffffffffffffffffffffffffffffffffffff1673ffffffffffffffffffffffffffffffffffffffff1673ffffffffffffffffffffffffffffffffffffffff16815250509150506115a6565b808060010191505061138d565b506115a16124b2565b809150505b919050565b6000600160008473ffffffffffffffffffffffffffffffffffffffff1673ffffffffffffffffffffffffffffffffffffffff16815260200190815260200160002060008373ffffffffffffffffffffffffffffffffffffffff1673ffffffffffffffffffffffffffffffffffffffff16815260200190815260200160002060009054906101000a900460ff16905092915050565b600063f23a6e6160e01b905095945050505050565b61165c611856565b73ffffffffffffffffffffffffffffffffffffffff168573ffffffffffffffffffffffffffffffffffffffff1614806116a257506116a18561169c611856565b6115ab565b5b6116e1576040517f08c379a00000000000000000000000000000000000000000000000000000000081526004016116d890613c01565b60405180910390fd5b6116ee8585858585611dee565b5050505050565b6116fd611856565b73ffffffffffffffffffffffffffffffffffffffff1661171b610fa1565b73ffffffffffffffffffffffffffffffffffffffff1614611771576040517f08c379a000000000000000000000000000000000000000000000000000000000815260040161176890613a3d565b60405180910390fd5b600073ffffffffffffffffffffffffffffffffffffffff168173ffffffffffffffffffffffffffffffffffffffff16036117e0576040517f08c379a00000000000000000000000000000000000000000000000000000000081526004016117d790613c93565b60405180910390fd5b6117e981611d00565b50565b60007f01ffc9a7000000000000000000000000000000000000000000000000000000007bffffffffffffffffffffffffffffffffffffffffffffffffffffffff1916827bffffffffffffffffffffffffffffffffffffffffffffffffffffffff1916149050919050565b600033905090565b81518351146118a2576040517f08c379a000000000000000000000000000000000000000000000000000000000815260040161189990613d25565b60405180910390fd5b600073ffffffffffffffffffffffffffffffffffffffff168473ffffffffffffffffffffffffffffffffffffffff1603611911576040517f08c379a000000000000000000000000000000000000000000000000000000000815260040161190890613db7565b60405180910390fd5b600061191b611856565b905061192b81878787878761206f565b60005b8451811015611ad657600085828151811061194c5761194b613581565b5b60200260200101519050600085838151811061196b5761196a613581565b5b60200260200101519050600080600084815260200190815260200160002060008b73ffffffffffffffffffffffffffffffffffffffff1673ffffffffffffffffffffffffffffffffffffffff16815260200190815260200160002054905081811015611a0c576040517f08c379a0000000000000000000000000000000000000000000000000000000008152600401611a0390613e49565b60405180910390fd5b81810360008085815260200190815260200160002060008c73ffffffffffffffffffffffffffffffffffffffff1673ffffffffffffffffffffffffffffffffffffffff168152602001908152602001600020819055508160008085815260200190815260200160002060008b73ffffffffffffffffffffffffffffffffffffffff1673ffffffffffffffffffffffffffffffffffffffff1681526020019081526020016000206000828254611ac19190613a5d565b9250508190555050505080600101905061192e565b508473ffffffffffffffffffffffffffffffffffffffff168673ffffffffffffffffffffffffffffffffffffffff168273ffffffffffffffffffffffffffffffffffffffff167f4a39dc06d4c0dbc64b70af90fd698a233a518aa5d07e595d983b8c0526c8f7fb8787604051611b4d929190613e69565b60405180910390a4611b63818787878787612077565b505050505050565b600073ffffffffffffffffffffffffffffffffffffffff168473ffffffffffffffffffffffffffffffffffffffff1603611bda576040517f08c379a0000000000000000000000000000000000000000000000000000000008152600401611bd190613f12565b60405180910390fd5b6000611be4611856565b9050611c0581600087611bf68861224e565b611bff8861224e565b8761206f565b8260008086815260200190815260200160002060008773ffffffffffffffffffffffffffffffffffffffff1673ffffffffffffffffffffffffffffffffffffffff1681526020019081526020016000206000828254611c649190613a5d565b925050819055508473ffffffffffffffffffffffffffffffffffffffff16600073ffffffffffffffffffffffffffffffffffffffff168273ffffffffffffffffffffffffffffffffffffffff167fc3d58168c5ae7397731d063d5bbf3d657854427343f4c083240f7aacaa2d0f628787604051611ce2929190613434565b60405180910390a4611cf9816000878787876122c8565b5050505050565b6000600360009054906101000a900473ffffffffffffffffffffffffffffffffffffffff16905081600360006101000a81548173ffffffffffffffffffffffffffffffffffffffff021916908373ffffffffffffffffffffffffffffffffffffffff1602179055508173ffffffffffffffffffffffffffffffffffffffff168173ffffffffffffffffffffffffffffffffffffffff167f8be0079c531659141344cd1fd0a4f28419497f9722a3daafe3b4186f6b6457e060405160405180910390a35050565b600081518351148015611de6575081805190602001208380519060200120145b905092915050565b600073ffffffffffffffffffffffffffffffffffffffff168473ffffffffffffffffffffffffffffffffffffffff1603611e5d576040517f08c379a0000000000000000000000000000000000000000000000000000000008152600401611e5490613db7565b60405180910390fd5b6000611e67611856565b9050611e87818787611e788861224e565b611e818861224e565b8761206f565b600080600086815260200190815260200160002060008873ffffffffffffffffffffffffffffffffffffffff1673ffffffffffffffffffffffffffffffffffffffff16815260200190815260200160002054905083811015611f1e576040517f08c379a0000000000000000000000000000000000000000000000000000000008152600401611f1590613e49565b60405180910390fd5b83810360008087815260200190815260200160002060008973ffffffffffffffffffffffffffffffffffffffff1673ffffffffffffffffffffffffffffffffffffffff168152602001908152602001600020819055508360008087815260200190815260200160002060008873ffffffffffffffffffffffffffffffffffffffff1673ffffffffffffffffffffffffffffffffffffffff1681526020019081526020016000206000828254611fd39190613a5d565b925050819055508573ffffffffffffffffffffffffffffffffffffffff168773ffffffffffffffffffffffffffffffffffffffff168373ffffffffffffffffffffffffffffffffffffffff167fc3d58168c5ae7397731d063d5bbf3d657854427343f4c083240f7aacaa2d0f628888604051612050929190613434565b60405180910390a46120668288888888886122c8565b50505050505050565b505050505050565b6120968473ffffffffffffffffffffffffffffffffffffffff1661249f565b15612246578373ffffffffffffffffffffffffffffffffffffffff1663bc197c8187878686866040518663ffffffff1660e01b81526004016120dc959493929190613f87565b6020604051808303816000875af192505050801561211857506040513d601f19601f820116820180604052508101906121159190614004565b60015b6121bd5761212461403e565b806308c379a0036121805750612138614060565b806121435750612182565b806040517f08c379a00000000000000000000000000000000000000000000000000000000081526004016121779190612781565b60405180910390fd5b505b6040517f08c379a00000000000000000000000000000000000000000000000000000000081526004016121b490614162565b60405180910390fd5b63bc197c8160e01b7bffffffffffffffffffffffffffffffffffffffffffffffffffffffff1916817bffffffffffffffffffffffffffffffffffffffffffffffffffffffff191614612244576040517f08c379a000000000000000000000000000000000000000000000000000000000815260040161223b906141f4565b60405180910390fd5b505b505050505050565b60606000600167ffffffffffffffff81111561226d5761226c6127e8565b5b60405190808252806020026020018201604052801561229b5781602001602082028036833780820191505090505b50905082816000815181106122b3576122b2613581565b5b60200260200101818152505080915050919050565b6122e78473ffffffffffffffffffffffffffffffffffffffff1661249f565b15612497578373ffffffffffffffffffffffffffffffffffffffff1663f23a6e6187878686866040518663ffffffff1660e01b815260040161232d959493929190614214565b6020604051808303816000875af192505050801561236957506040513d601f19601f820116820180604052508101906123669190614004565b60015b61240e5761237561403e565b806308c379a0036123d15750612389614060565b8061239457506123d3565b806040517f08c379a00000000000000000000000000000000000000000000000000000000081526004016123c89190612781565b60405180910390fd5b505b6040517f08c379a000000000000000000000000000000000000000000000000000000000815260040161240590614162565b60405180910390fd5b63f23a6e6160e01b7bffffffffffffffffffffffffffffffffffffffffffffffffffffffff1916817bffffffffffffffffffffffffffffffffffffffffffffffffffffffff191614612495576040517f08c379a000000000000000000000000000000000000000000000000000000000815260040161248c906141f4565b60405180910390fd5b505b505050505050565b600080823b905060008111915050919050565b6040518060a0016040528060008152602001606081526020016000815260200160008152602001600073ffffffffffffffffffffffffffffffffffffffff1681525090565b6000604051905090565b600080fd5b600080fd5b600073ffffffffffffffffffffffffffffffffffffffff82169050919050565b60006125368261250b565b9050919050565b6125468161252b565b811461255157600080fd5b50565b6000813590506125638161253d565b92915050565b6000819050919050565b61257c81612569565b811461258757600080fd5b50565b60008135905061259981612573565b92915050565b600080604083850312156125b6576125b5612501565b5b60006125c485828601612554565b92505060206125d58582860161258a565b9150509250929050565b6125e881612569565b82525050565b600060208201905061260360008301846125df565b92915050565b60007fffffffff0000000000000000000000000000000000000000000000000000000082169050919050565b61263e81612609565b811461264957600080fd5b50565b60008135905061265b81612635565b92915050565b60006020828403121561267757612676612501565b5b60006126858482850161264c565b91505092915050565b60008115159050919050565b6126a38161268e565b82525050565b60006020820190506126be600083018461269a565b92915050565b6000602082840312156126da576126d9612501565b5b60006126e88482850161258a565b91505092915050565b600081519050919050565b600082825260208201905092915050565b60005b8381101561272b578082015181840152602081019050612710565b60008484015250505050565b6000601f19601f8301169050919050565b6000612753826126f1565b61275d81856126fc565b935061276d81856020860161270d565b61277681612737565b840191505092915050565b6000602082019050818103600083015261279b8184612748565b905092915050565b600080604083850312156127ba576127b9612501565b5b60006127c88582860161258a565b92505060206127d98582860161258a565b9150509250929050565b600080fd5b7f4e487b7100000000000000000000000000000000000000000000000000000000600052604160045260246000fd5b61282082612737565b810181811067ffffffffffffffff8211171561283f5761283e6127e8565b5b80604052505050565b60006128526124f7565b905061285e8282612817565b919050565b600067ffffffffffffffff82111561287e5761287d6127e8565b5b602082029050602081019050919050565b600080fd5b60006128a76128a284612863565b612848565b905080838252602082019050602084028301858111156128ca576128c961288f565b5b835b818110156128f357806128df888261258a565b8452602084019350506020810190506128cc565b5050509392505050565b600082601f830112612912576129116127e3565b5b8135612922848260208601612894565b91505092915050565b600080fd5b600067ffffffffffffffff82111561294b5761294a6127e8565b5b61295482612737565b9050602081019050919050565b82818337600083830152505050565b600061298361297e84612930565b612848565b90508281526020810184848401111561299f5761299e61292b565b5b6129aa848285612961565b509392505050565b600082601f8301126129c7576129c66127e3565b5b81356129d7848260208601612970565b91505092915050565b600080600080600060a086880312156129fc576129fb612501565b5b6000612a0a88828901612554565b9550506020612a1b88828901612554565b945050604086013567ffffffffffffffff811115612a3c57612a3b612506565b5b612a48888289016128fd565b935050606086013567ffffffffffffffff811115612a6957612a68612506565b5b612a75888289016128fd565b925050608086013567ffffffffffffffff811115612a9657612a95612506565b5b612aa2888289016129b2565b9150509295509295909350565b600067ffffffffffffffff821115612aca57612ac96127e8565b5b602082029050602081019050919050565b6000612aee612ae984612aaf565b612848565b90508083825260208201905060208402830185811115612b1157612b1061288f565b5b835b81811015612b3a5780612b268882612554565b845260208401935050602081019050612b13565b5050509392505050565b600082601f830112612b5957612b586127e3565b5b8135612b69848260208601612adb565b91505092915050565b60008060408385031215612b8957612b88612501565b5b600083013567ffffffffffffffff811115612ba757612ba6612506565b5b612bb385828601612b44565b925050602083013567ffffffffffffffff811115612bd457612bd3612506565b5b612be0858286016128fd565b9150509250929050565b600081519050919050565b600082825260208201905092915050565b6000819050602082019050919050565b612c1f81612569565b82525050565b6000612c318383612c16565b60208301905092915050565b6000602082019050919050565b6000612c5582612bea565b612c5f8185612bf5565b9350612c6a83612c06565b8060005b83811015612c9b578151612c828882612c25565b9750612c8d83612c3d565b925050600181019050612c6e565b5085935050505092915050565b60006020820190508181036000830152612cc28184612c4a565b905092915050565b600067ffffffffffffffff821115612ce557612ce46127e8565b5b612cee82612737565b9050602081019050919050565b6000612d0e612d0984612cca565b612848565b905082815260208101848484011115612d2a57612d2961292b565b5b612d35848285612961565b509392505050565b600082601f830112612d5257612d516127e3565b5b8135612d62848260208601612cfb565b91505092915050565b600080600060608486031215612d8457612d83612501565b5b600084013567ffffffffffffffff811115612da257612da1612506565b5b612dae86828701612d3d565b9350506020612dbf8682870161258a565b9250506040612dd08682870161258a565b9150509250925092565b612de38161252b565b82525050565b6000602082019050612dfe6000830184612dda565b92915050565b600082825260208201905092915050565b6000612e20826126f1565b612e2a8185612e04565b9350612e3a81856020860161270d565b612e4381612737565b840191505092915050565b612e578161252b565b82525050565b600060a083016000830151612e756000860182612c16565b5060208301518482036020860152612e8d8282612e15565b9150506040830151612ea26040860182612c16565b506060830151612eb56060860182612c16565b506080830151612ec86080860182612e4e565b508091505092915050565b60006020820190508181036000830152612eed8184612e5d565b905092915050565b612efe8161268e565b8114612f0957600080fd5b50565b600081359050612f1b81612ef5565b92915050565b60008060408385031215612f3857612f37612501565b5b6000612f4685828601612554565b9250506020612f5785828601612f0c565b9150509250929050565b600060208284031215612f7757612f76612501565b5b600082013567ffffffffffffffff811115612f9557612f94612506565b5b612fa184828501612d3d565b91505092915050565b60008060408385031215612fc157612fc0612501565b5b6000612fcf85828601612554565b9250506020612fe085828601612554565b9150509250929050565b600080600080600060a0868803121561300657613005612501565b5b600061301488828901612554565b955050602061302588828901612554565b94505060406130368882890161258a565b93505060606130478882890161258a565b925050608086013567ffffffffffffffff81111561306857613067612506565b5b613074888289016129b2565b9150509295509295909350565b61308a81612609565b82525050565b60006020820190506130a56000830184613081565b92915050565b6000602082840312156130c1576130c0612501565b5b60006130cf84828501612554565b91505092915050565b7f455243313135353a2062616c616e636520717565727920666f7220746865207a60008201527f65726f2061646472657373000000000000000000000000000000000000000000602082015250565b6000613134602b836126fc565b915061313f826130d8565b604082019050919050565b6000602082019050818103600083015261316381613127565b9050919050565b7f4e487b7100000000000000000000000000000000000000000000000000000000600052602260045260246000fd5b600060028204905060018216806131b157607f821691505b6020821081036131c4576131c361316a565b5b50919050565b600081905092915050565b60008190508160005260206000209050919050565b600081546131f781613199565b61320181866131ca565b9450600182166000811461321c576001811461323157613264565b60ff1983168652811515820286019350613264565b61323a856131d5565b60005b8381101561325c5781548189015260018201915060208101905061323d565b838801955050505b50505092915050565b600061327982856131ea565b915061328582846131ea565b91508190509392505050565b7f4e487b7100000000000000000000000000000000000000000000000000000000600052601160045260246000fd5b60006132cb82612569565b91506132d683612569565b92508282026132e481612569565b915082820484148315176132fb576132fa613291565b5b5092915050565b7f6b6f206475206e66740000000000000000000000000000000000000000000000600082015250565b60006133386009836126fc565b915061334382613302565b602082019050919050565b600060208201905081810360008301526133678161332b565b9050919050565b7f4e6565647320746f2062652067726561746572206f7220657175616c20746f2060008201527f7468652070726963652e00000000000000000000000000000000000000000000602082015250565b60006133ca602a836126fc565b91506133d58261336e565b604082019050919050565b600060208201905081810360008301526133f9816133bd565b9050919050565b600061340b82612569565b915061341683612569565b925082820390508181111561342e5761342d613291565b5b92915050565b600060408201905061344960008301856125df565b61345660208301846125df565b9392505050565b7f455243313135353a207472616e736665722063616c6c6572206973206e6f742060008201527f6f776e6572206e6f7220617070726f7665640000000000000000000000000000602082015250565b60006134b96032836126fc565b91506134c48261345d565b604082019050919050565b600060208201905081810360008301526134e8816134ac565b9050919050565b7f455243313135353a206163636f756e747320616e6420696473206c656e67746860008201527f206d69736d617463680000000000000000000000000000000000000000000000602082015250565b600061354b6029836126fc565b9150613556826134ef565b604082019050919050565b6000602082019050818103600083015261357a8161353e565b9050919050565b7f4e487b7100000000000000000000000000000000000000000000000000000000600052603260045260246000fd5b60006135bb826126f1565b6135c581856131ca565b93506135d581856020860161270d565b80840191505092915050565b60006135ed82846135b0565b915081905092915050565b7f54686520746f6b656e205552492073686f756c6420626520756e697175650000600082015250565b600061362e601e836126fc565b9150613639826135f8565b602082019050919050565b6000602082019050818103600083015261365d81613621565b9050919050565b7f5072696365206d75737420626520706f73697469766500000000000000000000600082015250565b600061369a6016836126fc565b91506136a582613664565b602082019050919050565b600060208201905081810360008301526136c98161368d565b9050919050565b7f596f75722072656d61696e206d6f6e6579206e6f7420616c6c6f770000000000600082015250565b6000613706601b836126fc565b9150613711826136d0565b602082019050919050565b60006020820190508181036000830152613735816136f9565b9050919050565b60006020601f8301049050919050565b600082821b905092915050565b6000600883026137897fffffffffffffffffffffffffffffffffffffffffffffffffffffffffffffffff8261374c565b613793868361374c565b95508019841693508086168417925050509392505050565b6000819050919050565b60006137d06137cb6137c684612569565b6137ab565b612569565b9050919050565b6000819050919050565b6137ea836137b5565b6137fe6137f6826137d7565b848454613759565b825550505050565b600090565b613813613806565b61381e8184846137e1565b505050565b5b818110156138425761383760008261380b565b600181019050613824565b5050565b601f82111561388757613858816131d5565b6138618461373c565b81016020851015613870578190505b61388461387c8561373c565b830182613823565b50505b505050565b600082821c905092915050565b60006138aa6000198460080261388c565b1980831691505092915050565b60006138c38383613899565b9150826002028217905092915050565b6138dc826126f1565b67ffffffffffffffff8111156138f5576138f46127e8565b5b6138ff8254613199565b61390a828285613846565b600060209050601f83116001811461393d576000841561392b578287015190505b61393585826138b7565b86555061399d565b601f19841661394b866131d5565b60005b828110156139735784890151825560018201915060208501945060208101905061394e565b86831015613990578489015161398c601f891682613899565b8355505b6001600288020188555050505b505050505050565b600060808201905081810360008301526139bf8187612748565b90506139ce60208301866125df565b6139db60408301856125df565b6139e86060830184612dda565b95945050505050565b7f4f776e61626c653a2063616c6c6572206973206e6f7420746865206f776e6572600082015250565b6000613a276020836126fc565b9150613a32826139f1565b602082019050919050565b60006020820190508181036000830152613a5681613a1a565b9050919050565b6000613a6882612569565b9150613a7383612569565b9250828201905080821115613a8b57613a8a613291565b5b92915050565b7f455243313135353a2073657474696e6720617070726f76616c2073746174757360008201527f20666f722073656c660000000000000000000000000000000000000000000000602082015250565b6000613aed6029836126fc565b9150613af882613a91565b604082019050919050565b60006020820190508181036000830152613b1c81613ae0565b9050919050565b7f54686520746f6b656e205552492073686f756c64206265206d696e7400000000600082015250565b6000613b59601c836126fc565b9150613b6482613b23565b602082019050919050565b60006020820190508181036000830152613b8881613b4c565b9050919050565b7f455243313135353a2063616c6c6572206973206e6f74206f776e6572206e6f7260008201527f20617070726f7665640000000000000000000000000000000000000000000000602082015250565b6000613beb6029836126fc565b9150613bf682613b8f565b604082019050919050565b60006020820190508181036000830152613c1a81613bde565b9050919050565b7f4f776e61626c653a206e6577206f776e657220697320746865207a65726f206160008201527f6464726573730000000000000000000000000000000000000000000000000000602082015250565b6000613c7d6026836126fc565b9150613c8882613c21565b604082019050919050565b60006020820190508181036000830152613cac81613c70565b9050919050565b7f455243313135353a2069647320616e6420616d6f756e7473206c656e6774682060008201527f6d69736d61746368000000000000000000000000000000000000000000000000602082015250565b6000613d0f6028836126fc565b9150613d1a82613cb3565b604082019050919050565b60006020820190508181036000830152613d3e81613d02565b9050919050565b7f455243313135353a207472616e7366657220746f20746865207a65726f20616460008201527f6472657373000000000000000000000000000000000000000000000000000000602082015250565b6000613da16025836126fc565b9150613dac82613d45565b604082019050919050565b60006020820190508181036000830152613dd081613d94565b9050919050565b7f455243313135353a20696e73756666696369656e742062616c616e636520666f60008201527f72207472616e7366657200000000000000000000000000000000000000000000602082015250565b6000613e33602a836126fc565b9150613e3e82613dd7565b604082019050919050565b60006020820190508181036000830152613e6281613e26565b9050919050565b60006040820190508181036000830152613e838185612c4a565b90508181036020830152613e978184612c4a565b90509392505050565b7f455243313135353a206d696e7420746f20746865207a65726f2061646472657360008201527f7300000000000000000000000000000000000000000000000000000000000000602082015250565b6000613efc6021836126fc565b9150613f0782613ea0565b604082019050919050565b60006020820190508181036000830152613f2b81613eef565b9050919050565b600081519050919050565b600082825260208201905092915050565b6000613f5982613f32565b613f638185613f3d565b9350613f7381856020860161270d565b613f7c81612737565b840191505092915050565b600060a082019050613f9c6000830188612dda565b613fa96020830187612dda565b8181036040830152613fbb8186612c4a565b90508181036060830152613fcf8185612c4a565b90508181036080830152613fe38184613f4e565b90509695505050505050565b600081519050613ffe81612635565b92915050565b60006020828403121561401a57614019612501565b5b600061402884828501613fef565b91505092915050565b60008160e01c9050919050565b600060033d111561405d5760046000803e61405a600051614031565b90505b90565b600060443d106140ed576140726124f7565b60043d036004823e80513d602482011167ffffffffffffffff8211171561409a5750506140ed565b808201805167ffffffffffffffff8111156140b857505050506140ed565b80602083010160043d0385018111156140d55750505050506140ed565b6140e482602001850186612817565b82955050505050505b90565b7f455243313135353a207472616e7366657220746f206e6f6e204552433131353560008201527f526563656976657220696d706c656d656e746572000000000000000000000000602082015250565b600061414c6034836126fc565b9150614157826140f0565b604082019050919050565b6000602082019050818103600083015261417b8161413f565b9050919050565b7f455243313135353a204552433131353552656365697665722072656a6563746560008201527f6420746f6b656e73000000000000000000000000000000000000000000000000602082015250565b60006141de6028836126fc565b91506141e982614182565b604082019050919050565b6000602082019050818103600083015261420d816141d1565b9050919050565b600060a0820190506142296000830188612dda565b6142366020830187612dda565b61424360408301866125df565b61425060608301856125df565b81810360808301526142628184613f4e565b9050969550505050505056fea264697066735822122030deb41a76e7731973ffd6e73ed691216e9eb5009abd007930075435ed8770cc64736f6c63430008180033",
  "linkReferences": {},
  "deployedLinkReferences": {}
}