{
  "_format": "hh-sol-artifact-1",
  "contractName": "MusicTuneVibe",
  "sourceName": "contracts/MusicTuneVibe.sol",
  "abi": [
    {
      "inputs": [
        {
          "internalType": "string",
          "name": "_ipfs",
          "type": "string"
        },
        {
          "internalType": "address payable",
          "name": "owner",
          "type": "address"
        }
      ],
      "stateMutability": "nonpayable",
      "type": "constructor"
    },
    {
      "inputs": [
        {
          "internalType": "address",
          "name": "sender",
          "type": "address"
        },
        {
          "internalType": "uint256",
          "name": "balance",
          "type": "uint256"
        },
        {
          "internalType": "uint256",
          "name": "needed",
          "type": "uint256"
        },
        {
          "internalType": "uint256",
          "name": "tokenId",
          "type": "uint256"
        }
      ],
      "name": "ERC1155InsufficientBalance",
      "type": "error"
    },
    {
      "inputs": [
        {
          "internalType": "address",
          "name": "approver",
          "type": "address"
        }
      ],
      "name": "ERC1155InvalidApprover",
      "type": "error"
    },
    {
      "inputs": [
        {
          "internalType": "uint256",
          "name": "idsLength",
          "type": "uint256"
        },
        {
          "internalType": "uint256",
          "name": "valuesLength",
          "type": "uint256"
        }
      ],
      "name": "ERC1155InvalidArrayLength",
      "type": "error"
    },
    {
      "inputs": [
        {
          "internalType": "address",
          "name": "operator",
          "type": "address"
        }
      ],
      "name": "ERC1155InvalidOperator",
      "type": "error"
    },
    {
      "inputs": [
        {
          "internalType": "address",
          "name": "receiver",
          "type": "address"
        }
      ],
      "name": "ERC1155InvalidReceiver",
      "type": "error"
    },
    {
      "inputs": [
        {
          "internalType": "address",
          "name": "sender",
          "type": "address"
        }
      ],
      "name": "ERC1155InvalidSender",
      "type": "error"
    },
    {
      "inputs": [
        {
          "internalType": "address",
          "name": "operator",
          "type": "address"
        },
        {
          "internalType": "address",
          "name": "owner",
          "type": "address"
        }
      ],
      "name": "ERC1155MissingApprovalForAll",
      "type": "error"
    },
    {
      "inputs": [
        {
          "internalType": "address",
          "name": "owner",
          "type": "address"
        }
      ],
      "name": "OwnableInvalidOwner",
      "type": "error"
    },
    {
      "inputs": [
        {
          "internalType": "address",
          "name": "account",
          "type": "address"
        }
      ],
      "name": "OwnableUnauthorizedAccount",
      "type": "error"
    },
    {
      "anonymous": false,
      "inputs": [
        {
          "indexed": true,
          "internalType": "address",
          "name": "account",
          "type": "address"
        },
        {
          "indexed": true,
          "internalType": "address",
          "name": "operator",
          "type": "address"
        },
        {
          "indexed": false,
          "internalType": "bool",
          "name": "approved",
          "type": "bool"
        }
      ],
      "name": "ApprovalForAll",
      "type": "event"
    },
    {
      "anonymous": false,
      "inputs": [
        {
          "indexed": true,
          "internalType": "address",
          "name": "previousOwner",
          "type": "address"
        },
        {
          "indexed": true,
          "internalType": "address",
          "name": "newOwner",
          "type": "address"
        }
      ],
      "name": "OwnershipTransferred",
      "type": "event"
    },
    {
      "anonymous": false,
      "inputs": [
        {
          "indexed": true,
          "internalType": "address",
          "name": "operator",
          "type": "address"
        },
        {
          "indexed": true,
          "internalType": "address",
          "name": "from",
          "type": "address"
        },
        {
          "indexed": true,
          "internalType": "address",
          "name": "to",
          "type": "address"
        },
        {
          "indexed": false,
          "internalType": "uint256[]",
          "name": "ids",
          "type": "uint256[]"
        },
        {
          "indexed": false,
          "internalType": "uint256[]",
          "name": "values",
          "type": "uint256[]"
        }
      ],
      "name": "TransferBatch",
      "type": "event"
    },
    {
      "anonymous": false,
      "inputs": [
        {
          "indexed": true,
          "internalType": "address",
          "name": "operator",
          "type": "address"
        },
        {
          "indexed": true,
          "internalType": "address",
          "name": "from",
          "type": "address"
        },
        {
          "indexed": true,
          "internalType": "address",
          "name": "to",
          "type": "address"
        },
        {
          "indexed": false,
          "internalType": "uint256",
          "name": "id",
          "type": "uint256"
        },
        {
          "indexed": false,
          "internalType": "uint256",
          "name": "value",
          "type": "uint256"
        }
      ],
      "name": "TransferSingle",
      "type": "event"
    },
    {
      "anonymous": false,
      "inputs": [
        {
          "indexed": false,
          "internalType": "string",
          "name": "value",
          "type": "string"
        },
        {
          "indexed": true,
          "internalType": "uint256",
          "name": "id",
          "type": "uint256"
        }
      ],
      "name": "URI",
      "type": "event"
    },
    {
      "inputs": [
        {
          "internalType": "address",
          "name": "account",
          "type": "address"
        },
        {
          "internalType": "uint256",
          "name": "id",
          "type": "uint256"
        }
      ],
      "name": "balanceOf",
      "outputs": [
        {
          "internalType": "uint256",
          "name": "",
          "type": "uint256"
        }
      ],
      "stateMutability": "view",
      "type": "function"
    },
    {
      "inputs": [
        {
          "internalType": "address[]",
          "name": "accounts",
          "type": "address[]"
        },
        {
          "internalType": "uint256[]",
          "name": "ids",
          "type": "uint256[]"
        }
      ],
      "name": "balanceOfBatch",
      "outputs": [
        {
          "internalType": "uint256[]",
          "name": "",
          "type": "uint256[]"
        }
      ],
      "stateMutability": "view",
      "type": "function"
    },
    {
      "inputs": [
        {
          "internalType": "address",
          "name": "account",
          "type": "address"
        },
        {
          "internalType": "address",
          "name": "operator",
          "type": "address"
        }
      ],
      "name": "isApprovedForAll",
      "outputs": [
        {
          "internalType": "bool",
          "name": "",
          "type": "bool"
        }
      ],
      "stateMutability": "view",
      "type": "function"
    },
    {
      "inputs": [
        {
          "internalType": "uint256",
          "name": "_tokenId",
          "type": "uint256"
        }
      ],
      "name": "music",
      "outputs": [
        {
          "components": [
            {
              "internalType": "uint256",
              "name": "tokenId",
              "type": "uint256"
            },
            {
              "internalType": "string",
              "name": "uri",
              "type": "string"
            }
          ],
          "internalType": "struct MusicTuneVibe.Music",
          "name": "",
          "type": "tuple"
        }
      ],
      "stateMutability": "view",
      "type": "function"
    },
    {
      "inputs": [],
      "name": "owner",
      "outputs": [
        {
          "internalType": "address",
          "name": "",
          "type": "address"
        }
      ],
      "stateMutability": "view",
      "type": "function"
    },
    {
      "inputs": [],
      "name": "renounceOwnership",
      "outputs": [],
      "stateMutability": "nonpayable",
      "type": "function"
    },
    {
      "inputs": [
        {
          "internalType": "address",
          "name": "from",
          "type": "address"
        },
        {
          "internalType": "address",
          "name": "to",
          "type": "address"
        },
        {
          "internalType": "uint256[]",
          "name": "ids",
          "type": "uint256[]"
        },
        {
          "internalType": "uint256[]",
          "name": "values",
          "type": "uint256[]"
        },
        {
          "internalType": "bytes",
          "name": "data",
          "type": "bytes"
        }
      ],
      "name": "safeBatchTransferFrom",
      "outputs": [],
      "stateMutability": "nonpayable",
      "type": "function"
    },
    {
      "inputs": [
        {
          "internalType": "string",
          "name": "_token",
          "type": "string"
        },
        {
          "internalType": "uint256",
          "name": "amount",
          "type": "uint256"
        }
      ],
      "name": "safeMint",
      "outputs": [
        {
          "internalType": "uint256",
          "name": "",
          "type": "uint256"
        }
      ],
      "stateMutability": "nonpayable",
      "type": "function"
    },
    {
      "inputs": [
        {
          "internalType": "address",
          "name": "from",
          "type": "address"
        },
        {
          "internalType": "address",
          "name": "to",
          "type": "address"
        },
        {
          "internalType": "uint256",
          "name": "id",
          "type": "uint256"
        },
        {
          "internalType": "uint256",
          "name": "value",
          "type": "uint256"
        },
        {
          "internalType": "bytes",
          "name": "data",
          "type": "bytes"
        }
      ],
      "name": "safeTransferFrom",
      "outputs": [],
      "stateMutability": "nonpayable",
      "type": "function"
    },
    {
      "inputs": [
        {
          "internalType": "address",
          "name": "operator",
          "type": "address"
        },
        {
          "internalType": "bool",
          "name": "approved",
          "type": "bool"
        }
      ],
      "name": "setApprovalForAll",
      "outputs": [],
      "stateMutability": "nonpayable",
      "type": "function"
    },
    {
      "inputs": [
        {
          "internalType": "string",
          "name": "_uri",
          "type": "string"
        }
      ],
      "name": "setIPFS",
      "outputs": [],
      "stateMutability": "nonpayable",
      "type": "function"
    },
    {
      "inputs": [
        {
          "internalType": "bytes4",
          "name": "interfaceId",
          "type": "bytes4"
        }
      ],
      "name": "supportsInterface",
      "outputs": [
        {
          "internalType": "bool",
          "name": "",
          "type": "bool"
        }
      ],
      "stateMutability": "view",
      "type": "function"
    },
    {
      "inputs": [
        {
          "internalType": "uint256",
          "name": "",
          "type": "uint256"
        }
      ],
      "name": "tokens",
      "outputs": [
        {
          "internalType": "string",
          "name": "",
          "type": "string"
        }
      ],
      "stateMutability": "view",
      "type": "function"
    },
    {
      "inputs": [
        {
          "internalType": "address",
          "name": "newOwner",
          "type": "address"
        }
      ],
      "name": "transferOwnership",
      "outputs": [],
      "stateMutability": "nonpayable",
      "type": "function"
    },
    {
      "inputs": [
        {
          "internalType": "uint256",
          "name": "tokenId",
          "type": "uint256"
        }
      ],
      "name": "uri",
      "outputs": [
        {
          "internalType": "string",
          "name": "",
          "type": "string"
        }
      ],
      "stateMutability": "view",
      "type": "function"
    }
  ],
  "bytecode": "0x60806040523480156200001157600080fd5b506040516200339c3803806200339c83398181016040528101906200003791906200040f565b806040518060200160405280600081525062000059816200013c60201b60201c565b50600073ffffffffffffffffffffffffffffffffffffffff168173ffffffffffffffffffffffffffffffffffffffff1603620000cf5760006040517f1e4fbdf7000000000000000000000000000000000000000000000000000000008152600401620000c691906200049a565b60405180910390fd5b620000e0816200015160201b60201c565b508160059081620000f2919062000702565b5033600660006101000a81548173ffffffffffffffffffffffffffffffffffffffff021916908373ffffffffffffffffffffffffffffffffffffffff1602179055505050620007e9565b80600290816200014d919062000702565b5050565b6000600360009054906101000a900473ffffffffffffffffffffffffffffffffffffffff16905081600360006101000a81548173ffffffffffffffffffffffffffffffffffffffff021916908373ffffffffffffffffffffffffffffffffffffffff1602179055508173ffffffffffffffffffffffffffffffffffffffff168173ffffffffffffffffffffffffffffffffffffffff167f8be0079c531659141344cd1fd0a4f28419497f9722a3daafe3b4186f6b6457e060405160405180910390a35050565b6000604051905090565b600080fd5b600080fd5b600080fd5b600080fd5b6000601f19601f8301169050919050565b7f4e487b7100000000000000000000000000000000000000000000000000000000600052604160045260246000fd5b620002808262000235565b810181811067ffffffffffffffff82111715620002a257620002a162000246565b5b80604052505050565b6000620002b762000217565b9050620002c5828262000275565b919050565b600067ffffffffffffffff821115620002e857620002e762000246565b5b620002f38262000235565b9050602081019050919050565b60005b838110156200032057808201518184015260208101905062000303565b60008484015250505050565b6000620003436200033d84620002ca565b620002ab565b90508281526020810184848401111562000362576200036162000230565b5b6200036f84828562000300565b509392505050565b600082601f8301126200038f576200038e6200022b565b5b8151620003a18482602086016200032c565b91505092915050565b600073ffffffffffffffffffffffffffffffffffffffff82169050919050565b6000620003d782620003aa565b9050919050565b620003e981620003ca565b8114620003f557600080fd5b50565b6000815190506200040981620003de565b92915050565b6000806040838503121562000429576200042862000221565b5b600083015167ffffffffffffffff8111156200044a576200044962000226565b5b620004588582860162000377565b92505060206200046b85828601620003f8565b9150509250929050565b60006200048282620003aa565b9050919050565b620004948162000475565b82525050565b6000602082019050620004b1600083018462000489565b92915050565b600081519050919050565b7f4e487b7100000000000000000000000000000000000000000000000000000000600052602260045260246000fd5b600060028204905060018216806200050a57607f821691505b60208210810362000520576200051f620004c2565b5b50919050565b60008190508160005260206000209050919050565b60006020601f8301049050919050565b600082821b905092915050565b6000600883026200058a7fffffffffffffffffffffffffffffffffffffffffffffffffffffffffffffffff826200054b565b6200059686836200054b565b95508019841693508086168417925050509392505050565b6000819050919050565b6000819050919050565b6000620005e3620005dd620005d784620005ae565b620005b8565b620005ae565b9050919050565b6000819050919050565b620005ff83620005c2565b620006176200060e82620005ea565b84845462000558565b825550505050565b600090565b6200062e6200061f565b6200063b818484620005f4565b505050565b5b8181101562000663576200065760008262000624565b60018101905062000641565b5050565b601f821115620006b2576200067c8162000526565b62000687846200053b565b8101602085101562000697578190505b620006af620006a6856200053b565b83018262000640565b50505b505050565b600082821c905092915050565b6000620006d760001984600802620006b7565b1980831691505092915050565b6000620006f28383620006c4565b9150826002028217905092915050565b6200070d82620004b7565b67ffffffffffffffff81111562000729576200072862000246565b5b620007358254620004f1565b6200074282828562000667565b600060209050601f8311600181146200077a576000841562000765578287015190505b620007718582620006e4565b865550620007e1565b601f1984166200078a8662000526565b60005b82811015620007b4578489015182556001820191506020850194506020810190506200078d565b86831015620007d45784890151620007d0601f891682620006c4565b8355505b6001600288020188555050505b505050505050565b612ba380620007f96000396000f3fe608060405234801561001057600080fd5b50600436106100f45760003560e01c8063715018a611610097578063d19ac77a11610066578063d19ac77a146102a9578063e985e9c5146102c5578063f242432a146102f5578063f2fde38b14610311576100f4565b8063715018a6146102355780638da5cb5b1461023f5780639eb476671461025d578063a22cb4651461028d576100f4565b80632eb2c2d6116100d35780632eb2c2d61461018957806346b145e1146101a55780634e1273f4146101d55780634f64b2be14610205576100f4565b8062fdd58e146100f957806301ffc9a7146101295780630e89341c14610159575b600080fd5b610113600480360381019061010e91906119fc565b61032d565b6040516101209190611a4b565b60405180910390f35b610143600480360381019061013e9190611abe565b610387565b6040516101509190611b06565b60405180910390f35b610173600480360381019061016e9190611b21565b610469565b6040516101809190611bde565b60405180910390f35b6101a3600480360381019061019e9190611dfd565b6104aa565b005b6101bf60048036038101906101ba9190611f6d565b610552565b6040516101cc9190611a4b565b60405180910390f35b6101ef60048036038101906101ea919061208c565b6106a6565b6040516101fc91906121c2565b60405180910390f35b61021f600480360381019061021a9190611b21565b6107af565b60405161022c9190611bde565b60405180910390f35b61023d61085b565b005b61024761086f565b60405161025491906121f3565b60405180910390f35b61027760048036038101906102729190611b21565b610899565b6040516102849190612295565b60405180910390f35b6102a760048036038101906102a291906122e3565b610962565b005b6102c360048036038101906102be9190612323565b610978565b005b6102df60048036038101906102da919061236c565b610993565b6040516102ec9190611b06565b60405180910390f35b61030f600480360381019061030a91906123ac565b610a27565b005b61032b60048036038101906103269190612443565b610acf565b005b600080600083815260200190815260200160002060008473ffffffffffffffffffffffffffffffffffffffff1673ffffffffffffffffffffffffffffffffffffffff16815260200190815260200160002054905092915050565b60007fd9b67a26000000000000000000000000000000000000000000000000000000007bffffffffffffffffffffffffffffffffffffffffffffffffffffffff1916827bffffffffffffffffffffffffffffffffffffffffffffffffffffffff1916148061045257507f0e89341c000000000000000000000000000000000000000000000000000000007bffffffffffffffffffffffffffffffffffffffffffffffffffffffff1916827bffffffffffffffffffffffffffffffffffffffffffffffffffffffff1916145b80610462575061046182610b55565b5b9050919050565b6060600560086000848152602001908152602001600020600101604051602001610494929190612573565b6040516020818303038152906040529050919050565b60006104b4610bbf565b90508073ffffffffffffffffffffffffffffffffffffffff168673ffffffffffffffffffffffffffffffffffffffff16141580156104f957506104f78682610993565b155b1561053d5780866040517fe237d922000000000000000000000000000000000000000000000000000000008152600401610534929190612597565b60405180910390fd5b61054a8686868686610bc7565b505050505050565b600060078360405161056491906125f1565b908152602001604051809103902060009054906101000a900460ff16156105c0576040517f08c379a00000000000000000000000000000000000000000000000000000000081526004016105b790612654565b60405180910390fd5b6004839080600181540180825580915050600190039060005260206000200160009091909190915090816105f4919061280b565b506000600480549050905061061a33828560405180602001604052806000815250610cbf565b60405180604001604052808281526020018581525060086000838152602001908152602001600020600082015181600001556020820151816001019081610661919061280b565b50905050600160078560405161067791906125f1565b908152602001604051809103902060006101000a81548160ff0219169083151502179055508091505092915050565b606081518351146106f257815183516040517f5b0599910000000000000000000000000000000000000000000000000000000081526004016106e99291906128dd565b60405180910390fd5b6000835167ffffffffffffffff81111561070f5761070e611c05565b5b60405190808252806020026020018201604052801561073d5781602001602082028036833780820191505090505b50905060005b84518110156107a45761077a6107628287610d5890919063ffffffff16565b6107758387610d6c90919063ffffffff16565b61032d565b82828151811061078d5761078c612906565b5b602002602001018181525050806001019050610743565b508091505092915050565b600481815481106107bf57600080fd5b9060005260206000200160009150905080546107da9061249f565b80601f01602080910402602001604051908101604052809291908181526020018280546108069061249f565b80156108535780601f1061082857610100808354040283529160200191610853565b820191906000526020600020905b81548152906001019060200180831161083657829003601f168201915b505050505081565b610863610d80565b61086d6000610e07565b565b6000600360009054906101000a900473ffffffffffffffffffffffffffffffffffffffff16905090565b6108a161193a565b60086000838152602001908152602001600020604051806040016040529081600082015481526020016001820180546108d99061249f565b80601f01602080910402602001604051908101604052809291908181526020018280546109059061249f565b80156109525780601f1061092757610100808354040283529160200191610952565b820191906000526020600020905b81548152906001019060200180831161093557829003601f168201915b5050505050815250509050919050565b61097461096d610bbf565b8383610ecd565b5050565b610980610d80565b806005908161098f919061280b565b5050565b6000600160008473ffffffffffffffffffffffffffffffffffffffff1673ffffffffffffffffffffffffffffffffffffffff16815260200190815260200160002060008373ffffffffffffffffffffffffffffffffffffffff1673ffffffffffffffffffffffffffffffffffffffff16815260200190815260200160002060009054906101000a900460ff16905092915050565b6000610a31610bbf565b90508073ffffffffffffffffffffffffffffffffffffffff168673ffffffffffffffffffffffffffffffffffffffff1614158015610a765750610a748682610993565b155b15610aba5780866040517fe237d922000000000000000000000000000000000000000000000000000000008152600401610ab1929190612597565b60405180910390fd5b610ac7868686868661103d565b505050505050565b610ad7610d80565b600073ffffffffffffffffffffffffffffffffffffffff168173ffffffffffffffffffffffffffffffffffffffff1603610b495760006040517f1e4fbdf7000000000000000000000000000000000000000000000000000000008152600401610b4091906121f3565b60405180910390fd5b610b5281610e07565b50565b60007f01ffc9a7000000000000000000000000000000000000000000000000000000007bffffffffffffffffffffffffffffffffffffffffffffffffffffffff1916827bffffffffffffffffffffffffffffffffffffffffffffffffffffffff1916149050919050565b600033905090565b600073ffffffffffffffffffffffffffffffffffffffff168473ffffffffffffffffffffffffffffffffffffffff1603610c395760006040517f57f447ce000000000000000000000000000000000000000000000000000000008152600401610c3091906121f3565b60405180910390fd5b600073ffffffffffffffffffffffffffffffffffffffff168573ffffffffffffffffffffffffffffffffffffffff1603610cab5760006040517f01a83514000000000000000000000000000000000000000000000000000000008152600401610ca291906121f3565b60405180910390fd5b610cb88585858585611148565b5050505050565b600073ffffffffffffffffffffffffffffffffffffffff168473ffffffffffffffffffffffffffffffffffffffff1603610d315760006040517f57f447ce000000000000000000000000000000000000000000000000000000008152600401610d2891906121f3565b60405180910390fd5b600080610d3e85856111fa565b91509150610d50600087848487611148565b505050505050565b600060208202602084010151905092915050565b600060208202602084010151905092915050565b610d88610bbf565b73ffffffffffffffffffffffffffffffffffffffff16610da661086f565b73ffffffffffffffffffffffffffffffffffffffff1614610e0557610dc9610bbf565b6040517f118cdaa7000000000000000000000000000000000000000000000000000000008152600401610dfc91906121f3565b60405180910390fd5b565b6000600360009054906101000a900473ffffffffffffffffffffffffffffffffffffffff16905081600360006101000a81548173ffffffffffffffffffffffffffffffffffffffff021916908373ffffffffffffffffffffffffffffffffffffffff1602179055508173ffffffffffffffffffffffffffffffffffffffff168173ffffffffffffffffffffffffffffffffffffffff167f8be0079c531659141344cd1fd0a4f28419497f9722a3daafe3b4186f6b6457e060405160405180910390a35050565b600073ffffffffffffffffffffffffffffffffffffffff168273ffffffffffffffffffffffffffffffffffffffff1603610f3f5760006040517fced3e100000000000000000000000000000000000000000000000000000000008152600401610f3691906121f3565b60405180910390fd5b80600160008573ffffffffffffffffffffffffffffffffffffffff1673ffffffffffffffffffffffffffffffffffffffff16815260200190815260200160002060008473ffffffffffffffffffffffffffffffffffffffff1673ffffffffffffffffffffffffffffffffffffffff16815260200190815260200160002060006101000a81548160ff0219169083151502179055508173ffffffffffffffffffffffffffffffffffffffff168373ffffffffffffffffffffffffffffffffffffffff167f17307eab39ab6107e8899845ad3d59bd9653f200f220920489ca2b5937696c31836040516110309190611b06565b60405180910390a3505050565b600073ffffffffffffffffffffffffffffffffffffffff168473ffffffffffffffffffffffffffffffffffffffff16036110af5760006040517f57f447ce0000000000000000000000000000000000000000000000000000000081526004016110a691906121f3565b60405180910390fd5b600073ffffffffffffffffffffffffffffffffffffffff168573ffffffffffffffffffffffffffffffffffffffff16036111215760006040517f01a8351400000000000000000000000000000000000000000000000000000000815260040161111891906121f3565b60405180910390fd5b60008061112e85856111fa565b9150915061113f8787848487611148565b50505050505050565b6111548585858561122a565b600073ffffffffffffffffffffffffffffffffffffffff168473ffffffffffffffffffffffffffffffffffffffff16146111f3576000611192610bbf565b905060018451036111e25760006111b3600086610d6c90919063ffffffff16565b905060006111cb600086610d6c90919063ffffffff16565b90506111db8389898585896115d2565b50506111f1565b6111f0818787878787611786565b5b505b5050505050565b60608060405191506001825283602083015260408201905060018152826020820152604081016040529250929050565b805182511461127457815181516040517f5b05999100000000000000000000000000000000000000000000000000000000815260040161126b9291906128dd565b60405180910390fd5b600061127e610bbf565b905060005b835181101561148d5760006112a18286610d6c90919063ffffffff16565b905060006112b88386610d6c90919063ffffffff16565b9050600073ffffffffffffffffffffffffffffffffffffffff168873ffffffffffffffffffffffffffffffffffffffff16146113e557600080600084815260200190815260200160002060008a73ffffffffffffffffffffffffffffffffffffffff1673ffffffffffffffffffffffffffffffffffffffff1681526020019081526020016000205490508181101561138d57888183856040517f03dee4c50000000000000000000000000000000000000000000000000000000081526004016113849493929190612935565b60405180910390fd5b81810360008085815260200190815260200160002060008b73ffffffffffffffffffffffffffffffffffffffff1673ffffffffffffffffffffffffffffffffffffffff16815260200190815260200160002081905550505b600073ffffffffffffffffffffffffffffffffffffffff168773ffffffffffffffffffffffffffffffffffffffff1614611480578060008084815260200190815260200160002060008973ffffffffffffffffffffffffffffffffffffffff1673ffffffffffffffffffffffffffffffffffffffff168152602001908152602001600020600082825461147891906129a9565b925050819055505b5050806001019050611283565b50600183510361154c5760006114ad600085610d6c90919063ffffffff16565b905060006114c5600085610d6c90919063ffffffff16565b90508573ffffffffffffffffffffffffffffffffffffffff168773ffffffffffffffffffffffffffffffffffffffff168473ffffffffffffffffffffffffffffffffffffffff167fc3d58168c5ae7397731d063d5bbf3d657854427343f4c083240f7aacaa2d0f62858560405161153d9291906128dd565b60405180910390a450506115cb565b8373ffffffffffffffffffffffffffffffffffffffff168573ffffffffffffffffffffffffffffffffffffffff168273ffffffffffffffffffffffffffffffffffffffff167f4a39dc06d4c0dbc64b70af90fd698a233a518aa5d07e595d983b8c0526c8f7fb86866040516115c29291906129dd565b60405180910390a45b5050505050565b60008473ffffffffffffffffffffffffffffffffffffffff163b111561177e578373ffffffffffffffffffffffffffffffffffffffff1663f23a6e6187878686866040518663ffffffff1660e01b8152600401611633959493929190612a69565b6020604051808303816000875af192505050801561166f57506040513d601f19601f8201168201806040525081019061166c9190612ad8565b60015b6116f3573d806000811461169f576040519150601f19603f3d011682016040523d82523d6000602084013e6116a4565b606091505b5060008151036116eb57846040517f57f447ce0000000000000000000000000000000000000000000000000000000081526004016116e291906121f3565b60405180910390fd5b805181602001fd5b63f23a6e6160e01b7bffffffffffffffffffffffffffffffffffffffffffffffffffffffff1916817bffffffffffffffffffffffffffffffffffffffffffffffffffffffff19161461177c57846040517f57f447ce00000000000000000000000000000000000000000000000000000000815260040161177391906121f3565b60405180910390fd5b505b505050505050565b60008473ffffffffffffffffffffffffffffffffffffffff163b1115611932578373ffffffffffffffffffffffffffffffffffffffff1663bc197c8187878686866040518663ffffffff1660e01b81526004016117e7959493929190612b05565b6020604051808303816000875af192505050801561182357506040513d601f19601f820116820180604052508101906118209190612ad8565b60015b6118a7573d8060008114611853576040519150601f19603f3d011682016040523d82523d6000602084013e611858565b606091505b50600081510361189f57846040517f57f447ce00000000000000000000000000000000000000000000000000000000815260040161189691906121f3565b60405180910390fd5b805181602001fd5b63bc197c8160e01b7bffffffffffffffffffffffffffffffffffffffffffffffffffffffff1916817bffffffffffffffffffffffffffffffffffffffffffffffffffffffff19161461193057846040517f57f447ce00000000000000000000000000000000000000000000000000000000815260040161192791906121f3565b60405180910390fd5b505b505050505050565b604051806040016040528060008152602001606081525090565b6000604051905090565b600080fd5b600080fd5b600073ffffffffffffffffffffffffffffffffffffffff82169050919050565b600061199382611968565b9050919050565b6119a381611988565b81146119ae57600080fd5b50565b6000813590506119c08161199a565b92915050565b6000819050919050565b6119d9816119c6565b81146119e457600080fd5b50565b6000813590506119f6816119d0565b92915050565b60008060408385031215611a1357611a1261195e565b5b6000611a21858286016119b1565b9250506020611a32858286016119e7565b9150509250929050565b611a45816119c6565b82525050565b6000602082019050611a606000830184611a3c565b92915050565b60007fffffffff0000000000000000000000000000000000000000000000000000000082169050919050565b611a9b81611a66565b8114611aa657600080fd5b50565b600081359050611ab881611a92565b92915050565b600060208284031215611ad457611ad361195e565b5b6000611ae284828501611aa9565b91505092915050565b60008115159050919050565b611b0081611aeb565b82525050565b6000602082019050611b1b6000830184611af7565b92915050565b600060208284031215611b3757611b3661195e565b5b6000611b45848285016119e7565b91505092915050565b600081519050919050565b600082825260208201905092915050565b60005b83811015611b88578082015181840152602081019050611b6d565b60008484015250505050565b6000601f19601f8301169050919050565b6000611bb082611b4e565b611bba8185611b59565b9350611bca818560208601611b6a565b611bd381611b94565b840191505092915050565b60006020820190508181036000830152611bf88184611ba5565b905092915050565b600080fd5b7f4e487b7100000000000000000000000000000000000000000000000000000000600052604160045260246000fd5b611c3d82611b94565b810181811067ffffffffffffffff82111715611c5c57611c5b611c05565b5b80604052505050565b6000611c6f611954565b9050611c7b8282611c34565b919050565b600067ffffffffffffffff821115611c9b57611c9a611c05565b5b602082029050602081019050919050565b600080fd5b6000611cc4611cbf84611c80565b611c65565b90508083825260208201905060208402830185811115611ce757611ce6611cac565b5b835b81811015611d105780611cfc88826119e7565b845260208401935050602081019050611ce9565b5050509392505050565b600082601f830112611d2f57611d2e611c00565b5b8135611d3f848260208601611cb1565b91505092915050565b600080fd5b600067ffffffffffffffff821115611d6857611d67611c05565b5b611d7182611b94565b9050602081019050919050565b82818337600083830152505050565b6000611da0611d9b84611d4d565b611c65565b905082815260208101848484011115611dbc57611dbb611d48565b5b611dc7848285611d7e565b509392505050565b600082601f830112611de457611de3611c00565b5b8135611df4848260208601611d8d565b91505092915050565b600080600080600060a08688031215611e1957611e1861195e565b5b6000611e27888289016119b1565b9550506020611e38888289016119b1565b945050604086013567ffffffffffffffff811115611e5957611e58611963565b5b611e6588828901611d1a565b935050606086013567ffffffffffffffff811115611e8657611e85611963565b5b611e9288828901611d1a565b925050608086013567ffffffffffffffff811115611eb357611eb2611963565b5b611ebf88828901611dcf565b9150509295509295909350565b600067ffffffffffffffff821115611ee757611ee6611c05565b5b611ef082611b94565b9050602081019050919050565b6000611f10611f0b84611ecc565b611c65565b905082815260208101848484011115611f2c57611f2b611d48565b5b611f37848285611d7e565b509392505050565b600082601f830112611f5457611f53611c00565b5b8135611f64848260208601611efd565b91505092915050565b60008060408385031215611f8457611f8361195e565b5b600083013567ffffffffffffffff811115611fa257611fa1611963565b5b611fae85828601611f3f565b9250506020611fbf858286016119e7565b9150509250929050565b600067ffffffffffffffff821115611fe457611fe3611c05565b5b602082029050602081019050919050565b600061200861200384611fc9565b611c65565b9050808382526020820190506020840283018581111561202b5761202a611cac565b5b835b81811015612054578061204088826119b1565b84526020840193505060208101905061202d565b5050509392505050565b600082601f83011261207357612072611c00565b5b8135612083848260208601611ff5565b91505092915050565b600080604083850312156120a3576120a261195e565b5b600083013567ffffffffffffffff8111156120c1576120c0611963565b5b6120cd8582860161205e565b925050602083013567ffffffffffffffff8111156120ee576120ed611963565b5b6120fa85828601611d1a565b9150509250929050565b600081519050919050565b600082825260208201905092915050565b6000819050602082019050919050565b612139816119c6565b82525050565b600061214b8383612130565b60208301905092915050565b6000602082019050919050565b600061216f82612104565b612179818561210f565b935061218483612120565b8060005b838110156121b557815161219c888261213f565b97506121a783612157565b925050600181019050612188565b5085935050505092915050565b600060208201905081810360008301526121dc8184612164565b905092915050565b6121ed81611988565b82525050565b600060208201905061220860008301846121e4565b92915050565b600082825260208201905092915050565b600061222a82611b4e565b612234818561220e565b9350612244818560208601611b6a565b61224d81611b94565b840191505092915050565b60006040830160008301516122706000860182612130565b5060208301518482036020860152612288828261221f565b9150508091505092915050565b600060208201905081810360008301526122af8184612258565b905092915050565b6122c081611aeb565b81146122cb57600080fd5b50565b6000813590506122dd816122b7565b92915050565b600080604083850312156122fa576122f961195e565b5b6000612308858286016119b1565b9250506020612319858286016122ce565b9150509250929050565b6000602082840312156123395761233861195e565b5b600082013567ffffffffffffffff81111561235757612356611963565b5b61236384828501611f3f565b91505092915050565b600080604083850312156123835761238261195e565b5b6000612391858286016119b1565b92505060206123a2858286016119b1565b9150509250929050565b600080600080600060a086880312156123c8576123c761195e565b5b60006123d6888289016119b1565b95505060206123e7888289016119b1565b94505060406123f8888289016119e7565b9350506060612409888289016119e7565b925050608086013567ffffffffffffffff81111561242a57612429611963565b5b61243688828901611dcf565b9150509295509295909350565b6000602082840312156124595761245861195e565b5b6000612467848285016119b1565b91505092915050565b7f4e487b7100000000000000000000000000000000000000000000000000000000600052602260045260246000fd5b600060028204905060018216806124b757607f821691505b6020821081036124ca576124c9612470565b5b50919050565b600081905092915050565b60008190508160005260206000209050919050565b600081546124fd8161249f565b61250781866124d0565b9450600182166000811461252257600181146125375761256a565b60ff198316865281151582028601935061256a565b612540856124db565b60005b8381101561256257815481890152600182019150602081019050612543565b838801955050505b50505092915050565b600061257f82856124f0565b915061258b82846124f0565b91508190509392505050565b60006040820190506125ac60008301856121e4565b6125b960208301846121e4565b9392505050565b60006125cb82611b4e565b6125d581856124d0565b93506125e5818560208601611b6a565b80840191505092915050565b60006125fd82846125c0565b915081905092915050565b7f54686520746f6b656e205552492073686f756c6420626520756e697175650000600082015250565b600061263e601e83611b59565b915061264982612608565b602082019050919050565b6000602082019050818103600083015261266d81612631565b9050919050565b60006020601f8301049050919050565b600082821b905092915050565b6000600883026126c17fffffffffffffffffffffffffffffffffffffffffffffffffffffffffffffffff82612684565b6126cb8683612684565b95508019841693508086168417925050509392505050565b6000819050919050565b60006127086127036126fe846119c6565b6126e3565b6119c6565b9050919050565b6000819050919050565b612722836126ed565b61273661272e8261270f565b848454612691565b825550505050565b600090565b61274b61273e565b612756818484612719565b505050565b5b8181101561277a5761276f600082612743565b60018101905061275c565b5050565b601f8211156127bf57612790816124db565b61279984612674565b810160208510156127a8578190505b6127bc6127b485612674565b83018261275b565b50505b505050565b600082821c905092915050565b60006127e2600019846008026127c4565b1980831691505092915050565b60006127fb83836127d1565b9150826002028217905092915050565b61281482611b4e565b67ffffffffffffffff81111561282d5761282c611c05565b5b612837825461249f565b61284282828561277e565b600060209050601f8311600181146128755760008415612863578287015190505b61286d85826127ef565b8655506128d5565b601f198416612883866124db565b60005b828110156128ab57848901518255600182019150602085019450602081019050612886565b868310156128c857848901516128c4601f8916826127d1565b8355505b6001600288020188555050505b505050505050565b60006040820190506128f26000830185611a3c565b6128ff6020830184611a3c565b9392505050565b7f4e487b7100000000000000000000000000000000000000000000000000000000600052603260045260246000fd5b600060808201905061294a60008301876121e4565b6129576020830186611a3c565b6129646040830185611a3c565b6129716060830184611a3c565b95945050505050565b7f4e487b7100000000000000000000000000000000000000000000000000000000600052601160045260246000fd5b60006129b4826119c6565b91506129bf836119c6565b92508282019050808211156129d7576129d661297a565b5b92915050565b600060408201905081810360008301526129f78185612164565b90508181036020830152612a0b8184612164565b90509392505050565b600081519050919050565b600082825260208201905092915050565b6000612a3b82612a14565b612a458185612a1f565b9350612a55818560208601611b6a565b612a5e81611b94565b840191505092915050565b600060a082019050612a7e60008301886121e4565b612a8b60208301876121e4565b612a986040830186611a3c565b612aa56060830185611a3c565b8181036080830152612ab78184612a30565b90509695505050505050565b600081519050612ad281611a92565b92915050565b600060208284031215612aee57612aed61195e565b5b6000612afc84828501612ac3565b91505092915050565b600060a082019050612b1a60008301886121e4565b612b2760208301876121e4565b8181036040830152612b398186612164565b90508181036060830152612b4d8185612164565b90508181036080830152612b618184612a30565b9050969550505050505056fea264697066735822122020f01475de3911e09ff8ff7e65ac9836d75b6916e38049e0328d723b6d79c09f64736f6c63430008180033",
  "linkReferences": {},
  "deployedLinkReferences": {}
}