{
  "_format": "hh-sol-artifact-1",
  "contractName": "MusicTuneVibe",
  "sourceName": "contracts/MusicTuneVibe.sol",
  "abi": [
    {
      "inputs": [
        {
          "internalType": "string",
          "name": "_ipfs",
          "type": "string"
        },
        {
          "internalType": "address payable",
          "name": "owner",
          "type": "address"
        }
      ],
      "stateMutability": "nonpayable",
      "type": "constructor"
    },
    {
      "inputs": [
        {
          "internalType": "address",
          "name": "sender",
          "type": "address"
        },
        {
          "internalType": "uint256",
          "name": "balance",
          "type": "uint256"
        },
        {
          "internalType": "uint256",
          "name": "needed",
          "type": "uint256"
        },
        {
          "internalType": "uint256",
          "name": "tokenId",
          "type": "uint256"
        }
      ],
      "name": "ERC1155InsufficientBalance",
      "type": "error"
    },
    {
      "inputs": [
        {
          "internalType": "address",
          "name": "approver",
          "type": "address"
        }
      ],
      "name": "ERC1155InvalidApprover",
      "type": "error"
    },
    {
      "inputs": [
        {
          "internalType": "uint256",
          "name": "idsLength",
          "type": "uint256"
        },
        {
          "internalType": "uint256",
          "name": "valuesLength",
          "type": "uint256"
        }
      ],
      "name": "ERC1155InvalidArrayLength",
      "type": "error"
    },
    {
      "inputs": [
        {
          "internalType": "address",
          "name": "operator",
          "type": "address"
        }
      ],
      "name": "ERC1155InvalidOperator",
      "type": "error"
    },
    {
      "inputs": [
        {
          "internalType": "address",
          "name": "receiver",
          "type": "address"
        }
      ],
      "name": "ERC1155InvalidReceiver",
      "type": "error"
    },
    {
      "inputs": [
        {
          "internalType": "address",
          "name": "sender",
          "type": "address"
        }
      ],
      "name": "ERC1155InvalidSender",
      "type": "error"
    },
    {
      "inputs": [
        {
          "internalType": "address",
          "name": "operator",
          "type": "address"
        },
        {
          "internalType": "address",
          "name": "owner",
          "type": "address"
        }
      ],
      "name": "ERC1155MissingApprovalForAll",
      "type": "error"
    },
    {
      "inputs": [
        {
          "internalType": "address",
          "name": "owner",
          "type": "address"
        }
      ],
      "name": "OwnableInvalidOwner",
      "type": "error"
    },
    {
      "inputs": [
        {
          "internalType": "address",
          "name": "account",
          "type": "address"
        }
      ],
      "name": "OwnableUnauthorizedAccount",
      "type": "error"
    },
    {
      "anonymous": false,
      "inputs": [
        {
          "indexed": true,
          "internalType": "address",
          "name": "account",
          "type": "address"
        },
        {
          "indexed": true,
          "internalType": "address",
          "name": "operator",
          "type": "address"
        },
        {
          "indexed": false,
          "internalType": "bool",
          "name": "approved",
          "type": "bool"
        }
      ],
      "name": "ApprovalForAll",
      "type": "event"
    },
    {
      "anonymous": false,
      "inputs": [
        {
          "indexed": true,
          "internalType": "address",
          "name": "previousOwner",
          "type": "address"
        },
        {
          "indexed": true,
          "internalType": "address",
          "name": "newOwner",
          "type": "address"
        }
      ],
      "name": "OwnershipTransferred",
      "type": "event"
    },
    {
      "anonymous": false,
      "inputs": [
        {
          "indexed": true,
          "internalType": "address",
          "name": "operator",
          "type": "address"
        },
        {
          "indexed": true,
          "internalType": "address",
          "name": "from",
          "type": "address"
        },
        {
          "indexed": true,
          "internalType": "address",
          "name": "to",
          "type": "address"
        },
        {
          "indexed": false,
          "internalType": "uint256[]",
          "name": "ids",
          "type": "uint256[]"
        },
        {
          "indexed": false,
          "internalType": "uint256[]",
          "name": "values",
          "type": "uint256[]"
        }
      ],
      "name": "TransferBatch",
      "type": "event"
    },
    {
      "anonymous": false,
      "inputs": [
        {
          "indexed": true,
          "internalType": "address",
          "name": "operator",
          "type": "address"
        },
        {
          "indexed": true,
          "internalType": "address",
          "name": "from",
          "type": "address"
        },
        {
          "indexed": true,
          "internalType": "address",
          "name": "to",
          "type": "address"
        },
        {
          "indexed": false,
          "internalType": "uint256",
          "name": "id",
          "type": "uint256"
        },
        {
          "indexed": false,
          "internalType": "uint256",
          "name": "value",
          "type": "uint256"
        }
      ],
      "name": "TransferSingle",
      "type": "event"
    },
    {
      "anonymous": false,
      "inputs": [
        {
          "indexed": false,
          "internalType": "string",
          "name": "value",
          "type": "string"
        },
        {
          "indexed": true,
          "internalType": "uint256",
          "name": "id",
          "type": "uint256"
        }
      ],
      "name": "URI",
      "type": "event"
    },
    {
      "inputs": [
        {
          "internalType": "address",
          "name": "account",
          "type": "address"
        },
        {
          "internalType": "uint256",
          "name": "id",
          "type": "uint256"
        }
      ],
      "name": "balanceOf",
      "outputs": [
        {
          "internalType": "uint256",
          "name": "",
          "type": "uint256"
        }
      ],
      "stateMutability": "view",
      "type": "function"
    },
    {
      "inputs": [
        {
          "internalType": "address[]",
          "name": "accounts",
          "type": "address[]"
        },
        {
          "internalType": "uint256[]",
          "name": "ids",
          "type": "uint256[]"
        }
      ],
      "name": "balanceOfBatch",
      "outputs": [
        {
          "internalType": "uint256[]",
          "name": "",
          "type": "uint256[]"
        }
      ],
      "stateMutability": "view",
      "type": "function"
    },
    {
      "inputs": [
        {
          "internalType": "address",
          "name": "account",
          "type": "address"
        },
        {
          "internalType": "address",
          "name": "operator",
          "type": "address"
        }
      ],
      "name": "isApprovedForAll",
      "outputs": [
        {
          "internalType": "bool",
          "name": "",
          "type": "bool"
        }
      ],
      "stateMutability": "view",
      "type": "function"
    },
    {
      "inputs": [
        {
          "internalType": "uint256",
          "name": "_tokenId",
          "type": "uint256"
        }
      ],
      "name": "music",
      "outputs": [
        {
          "components": [
            {
              "internalType": "uint256",
              "name": "tokenId",
              "type": "uint256"
            },
            {
              "internalType": "string",
              "name": "uri",
              "type": "string"
            }
          ],
          "internalType": "struct MusicTuneVibe.Music",
          "name": "",
          "type": "tuple"
        }
      ],
      "stateMutability": "view",
      "type": "function"
    },
    {
      "inputs": [],
      "name": "owner",
      "outputs": [
        {
          "internalType": "address",
          "name": "",
          "type": "address"
        }
      ],
      "stateMutability": "view",
      "type": "function"
    },
    {
      "inputs": [],
      "name": "renounceOwnership",
      "outputs": [],
      "stateMutability": "nonpayable",
      "type": "function"
    },
    {
      "inputs": [
        {
          "internalType": "address",
          "name": "from",
          "type": "address"
        },
        {
          "internalType": "address",
          "name": "to",
          "type": "address"
        },
        {
          "internalType": "uint256[]",
          "name": "ids",
          "type": "uint256[]"
        },
        {
          "internalType": "uint256[]",
          "name": "values",
          "type": "uint256[]"
        },
        {
          "internalType": "bytes",
          "name": "data",
          "type": "bytes"
        }
      ],
      "name": "safeBatchTransferFrom",
      "outputs": [],
      "stateMutability": "nonpayable",
      "type": "function"
    },
    {
      "inputs": [
        {
          "internalType": "string",
          "name": "_token",
          "type": "string"
        },
        {
          "internalType": "uint256",
          "name": "amount",
          "type": "uint256"
        }
      ],
      "name": "safeMint",
      "outputs": [],
      "stateMutability": "nonpayable",
      "type": "function"
    },
    {
      "inputs": [
        {
          "internalType": "address",
          "name": "from",
          "type": "address"
        },
        {
          "internalType": "address",
          "name": "to",
          "type": "address"
        },
        {
          "internalType": "uint256",
          "name": "id",
          "type": "uint256"
        },
        {
          "internalType": "uint256",
          "name": "value",
          "type": "uint256"
        },
        {
          "internalType": "bytes",
          "name": "data",
          "type": "bytes"
        }
      ],
      "name": "safeTransferFrom",
      "outputs": [],
      "stateMutability": "nonpayable",
      "type": "function"
    },
    {
      "inputs": [
        {
          "internalType": "address",
          "name": "operator",
          "type": "address"
        },
        {
          "internalType": "bool",
          "name": "approved",
          "type": "bool"
        }
      ],
      "name": "setApprovalForAll",
      "outputs": [],
      "stateMutability": "nonpayable",
      "type": "function"
    },
    {
      "inputs": [
        {
          "internalType": "string",
          "name": "_uri",
          "type": "string"
        }
      ],
      "name": "setIPFS",
      "outputs": [],
      "stateMutability": "nonpayable",
      "type": "function"
    },
    {
      "inputs": [
        {
          "internalType": "bytes4",
          "name": "interfaceId",
          "type": "bytes4"
        }
      ],
      "name": "supportsInterface",
      "outputs": [
        {
          "internalType": "bool",
          "name": "",
          "type": "bool"
        }
      ],
      "stateMutability": "view",
      "type": "function"
    },
    {
      "inputs": [
        {
          "internalType": "uint256",
          "name": "",
          "type": "uint256"
        }
      ],
      "name": "tokens",
      "outputs": [
        {
          "internalType": "string",
          "name": "",
          "type": "string"
        }
      ],
      "stateMutability": "view",
      "type": "function"
    },
    {
      "inputs": [
        {
          "internalType": "address",
          "name": "newOwner",
          "type": "address"
        }
      ],
      "name": "transferOwnership",
      "outputs": [],
      "stateMutability": "nonpayable",
      "type": "function"
    },
    {
      "inputs": [
        {
          "internalType": "uint256",
          "name": "tokenId",
          "type": "uint256"
        }
      ],
      "name": "uri",
      "outputs": [
        {
          "internalType": "string",
          "name": "",
          "type": "string"
        }
      ],
      "stateMutability": "view",
      "type": "function"
    }
  ],
  "bytecode": "0x60806040523480156200001157600080fd5b50604051620033813803806200338183398181016040528101906200003791906200040f565b806040518060200160405280600081525062000059816200013c60201b60201c565b50600073ffffffffffffffffffffffffffffffffffffffff168173ffffffffffffffffffffffffffffffffffffffff1603620000cf5760006040517f1e4fbdf7000000000000000000000000000000000000000000000000000000008152600401620000c691906200049a565b60405180910390fd5b620000e0816200015160201b60201c565b508160059081620000f2919062000702565b5033600660006101000a81548173ffffffffffffffffffffffffffffffffffffffff021916908373ffffffffffffffffffffffffffffffffffffffff1602179055505050620007e9565b80600290816200014d919062000702565b5050565b6000600360009054906101000a900473ffffffffffffffffffffffffffffffffffffffff16905081600360006101000a81548173ffffffffffffffffffffffffffffffffffffffff021916908373ffffffffffffffffffffffffffffffffffffffff1602179055508173ffffffffffffffffffffffffffffffffffffffff168173ffffffffffffffffffffffffffffffffffffffff167f8be0079c531659141344cd1fd0a4f28419497f9722a3daafe3b4186f6b6457e060405160405180910390a35050565b6000604051905090565b600080fd5b600080fd5b600080fd5b600080fd5b6000601f19601f8301169050919050565b7f4e487b7100000000000000000000000000000000000000000000000000000000600052604160045260246000fd5b620002808262000235565b810181811067ffffffffffffffff82111715620002a257620002a162000246565b5b80604052505050565b6000620002b762000217565b9050620002c5828262000275565b919050565b600067ffffffffffffffff821115620002e857620002e762000246565b5b620002f38262000235565b9050602081019050919050565b60005b838110156200032057808201518184015260208101905062000303565b60008484015250505050565b6000620003436200033d84620002ca565b620002ab565b90508281526020810184848401111562000362576200036162000230565b5b6200036f84828562000300565b509392505050565b600082601f8301126200038f576200038e6200022b565b5b8151620003a18482602086016200032c565b91505092915050565b600073ffffffffffffffffffffffffffffffffffffffff82169050919050565b6000620003d782620003aa565b9050919050565b620003e981620003ca565b8114620003f557600080fd5b50565b6000815190506200040981620003de565b92915050565b6000806040838503121562000429576200042862000221565b5b600083015167ffffffffffffffff8111156200044a576200044962000226565b5b620004588582860162000377565b92505060206200046b85828601620003f8565b9150509250929050565b60006200048282620003aa565b9050919050565b620004948162000475565b82525050565b6000602082019050620004b1600083018462000489565b92915050565b600081519050919050565b7f4e487b7100000000000000000000000000000000000000000000000000000000600052602260045260246000fd5b600060028204905060018216806200050a57607f821691505b60208210810362000520576200051f620004c2565b5b50919050565b60008190508160005260206000209050919050565b60006020601f8301049050919050565b600082821b905092915050565b6000600883026200058a7fffffffffffffffffffffffffffffffffffffffffffffffffffffffffffffffff826200054b565b6200059686836200054b565b95508019841693508086168417925050509392505050565b6000819050919050565b6000819050919050565b6000620005e3620005dd620005d784620005ae565b620005b8565b620005ae565b9050919050565b6000819050919050565b620005ff83620005c2565b620006176200060e82620005ea565b84845462000558565b825550505050565b600090565b6200062e6200061f565b6200063b818484620005f4565b505050565b5b8181101562000663576200065760008262000624565b60018101905062000641565b5050565b601f821115620006b2576200067c8162000526565b62000687846200053b565b8101602085101562000697578190505b620006af620006a6856200053b565b83018262000640565b50505b505050565b600082821c905092915050565b6000620006d760001984600802620006b7565b1980831691505092915050565b6000620006f28383620006c4565b9150826002028217905092915050565b6200070d82620004b7565b67ffffffffffffffff81111562000729576200072862000246565b5b620007358254620004f1565b6200074282828562000667565b600060209050601f8311600181146200077a576000841562000765578287015190505b620007718582620006e4565b865550620007e1565b601f1984166200078a8662000526565b60005b82811015620007b4578489015182556001820191506020850194506020810190506200078d565b86831015620007d45784890151620007d0601f891682620006c4565b8355505b6001600288020188555050505b505050505050565b612b8880620007f96000396000f3fe608060405234801561001057600080fd5b50600436106100f45760003560e01c8063715018a611610097578063d19ac77a11610066578063d19ac77a14610295578063e985e9c5146102b1578063f242432a146102e1578063f2fde38b146102fd576100f4565b8063715018a6146102215780638da5cb5b1461022b5780639eb4766714610249578063a22cb46514610279576100f4565b80632eb2c2d6116100d35780632eb2c2d61461018957806346b145e1146101a55780634e1273f4146101c15780634f64b2be146101f1576100f4565b8062fdd58e146100f957806301ffc9a7146101295780630e89341c14610159575b600080fd5b610113600480360381019061010e91906119e1565b610319565b6040516101209190611a30565b60405180910390f35b610143600480360381019061013e9190611aa3565b610373565b6040516101509190611aeb565b60405180910390f35b610173600480360381019061016e9190611b06565b610455565b6040516101809190611bc3565b60405180910390f35b6101a3600480360381019061019e9190611de2565b610496565b005b6101bf60048036038101906101ba9190611f52565b61053e565b005b6101db60048036038101906101d69190612071565b61068b565b6040516101e891906121a7565b60405180910390f35b61020b60048036038101906102069190611b06565b610794565b6040516102189190611bc3565b60405180910390f35b610229610840565b005b610233610854565b60405161024091906121d8565b60405180910390f35b610263600480360381019061025e9190611b06565b61087e565b604051610270919061227a565b60405180910390f35b610293600480360381019061028e91906122c8565b610947565b005b6102af60048036038101906102aa9190612308565b61095d565b005b6102cb60048036038101906102c69190612351565b610978565b6040516102d89190611aeb565b60405180910390f35b6102fb60048036038101906102f69190612391565b610a0c565b005b61031760048036038101906103129190612428565b610ab4565b005b600080600083815260200190815260200160002060008473ffffffffffffffffffffffffffffffffffffffff1673ffffffffffffffffffffffffffffffffffffffff16815260200190815260200160002054905092915050565b60007fd9b67a26000000000000000000000000000000000000000000000000000000007bffffffffffffffffffffffffffffffffffffffffffffffffffffffff1916827bffffffffffffffffffffffffffffffffffffffffffffffffffffffff1916148061043e57507f0e89341c000000000000000000000000000000000000000000000000000000007bffffffffffffffffffffffffffffffffffffffffffffffffffffffff1916827bffffffffffffffffffffffffffffffffffffffffffffffffffffffff1916145b8061044e575061044d82610b3a565b5b9050919050565b6060600560086000848152602001908152602001600020600101604051602001610480929190612558565b6040516020818303038152906040529050919050565b60006104a0610ba4565b90508073ffffffffffffffffffffffffffffffffffffffff168673ffffffffffffffffffffffffffffffffffffffff16141580156104e557506104e38682610978565b155b156105295780866040517fe237d92200000000000000000000000000000000000000000000000000000000815260040161052092919061257c565b60405180910390fd5b6105368686868686610bac565b505050505050565b60078260405161054e91906125d6565b908152602001604051809103902060009054906101000a900460ff16156105aa576040517f08c379a00000000000000000000000000000000000000000000000000000000081526004016105a190612639565b60405180910390fd5b6004829080600181540180825580915050600190039060005260206000200160009091909190915090816105de91906127f0565b506000600480549050905061060433828460405180602001604052806000815250610ca4565b6040518060400160405280828152602001848152506008600083815260200190815260200160002060008201518160000155602082015181600101908161064b91906127f0565b50905050600160078460405161066191906125d6565b908152602001604051809103902060006101000a81548160ff021916908315150217905550505050565b606081518351146106d757815183516040517f5b0599910000000000000000000000000000000000000000000000000000000081526004016106ce9291906128c2565b60405180910390fd5b6000835167ffffffffffffffff8111156106f4576106f3611bea565b5b6040519080825280602002602001820160405280156107225781602001602082028036833780820191505090505b50905060005b84518110156107895761075f6107478287610d3d90919063ffffffff16565b61075a8387610d5190919063ffffffff16565b610319565b828281518110610772576107716128eb565b5b602002602001018181525050806001019050610728565b508091505092915050565b600481815481106107a457600080fd5b9060005260206000200160009150905080546107bf90612484565b80601f01602080910402602001604051908101604052809291908181526020018280546107eb90612484565b80156108385780601f1061080d57610100808354040283529160200191610838565b820191906000526020600020905b81548152906001019060200180831161081b57829003601f168201915b505050505081565b610848610d65565b6108526000610dec565b565b6000600360009054906101000a900473ffffffffffffffffffffffffffffffffffffffff16905090565b61088661191f565b60086000838152602001908152602001600020604051806040016040529081600082015481526020016001820180546108be90612484565b80601f01602080910402602001604051908101604052809291908181526020018280546108ea90612484565b80156109375780601f1061090c57610100808354040283529160200191610937565b820191906000526020600020905b81548152906001019060200180831161091a57829003601f168201915b5050505050815250509050919050565b610959610952610ba4565b8383610eb2565b5050565b610965610d65565b806005908161097491906127f0565b5050565b6000600160008473ffffffffffffffffffffffffffffffffffffffff1673ffffffffffffffffffffffffffffffffffffffff16815260200190815260200160002060008373ffffffffffffffffffffffffffffffffffffffff1673ffffffffffffffffffffffffffffffffffffffff16815260200190815260200160002060009054906101000a900460ff16905092915050565b6000610a16610ba4565b90508073ffffffffffffffffffffffffffffffffffffffff168673ffffffffffffffffffffffffffffffffffffffff1614158015610a5b5750610a598682610978565b155b15610a9f5780866040517fe237d922000000000000000000000000000000000000000000000000000000008152600401610a9692919061257c565b60405180910390fd5b610aac8686868686611022565b505050505050565b610abc610d65565b600073ffffffffffffffffffffffffffffffffffffffff168173ffffffffffffffffffffffffffffffffffffffff1603610b2e5760006040517f1e4fbdf7000000000000000000000000000000000000000000000000000000008152600401610b2591906121d8565b60405180910390fd5b610b3781610dec565b50565b60007f01ffc9a7000000000000000000000000000000000000000000000000000000007bffffffffffffffffffffffffffffffffffffffffffffffffffffffff1916827bffffffffffffffffffffffffffffffffffffffffffffffffffffffff1916149050919050565b600033905090565b600073ffffffffffffffffffffffffffffffffffffffff168473ffffffffffffffffffffffffffffffffffffffff1603610c1e5760006040517f57f447ce000000000000000000000000000000000000000000000000000000008152600401610c1591906121d8565b60405180910390fd5b600073ffffffffffffffffffffffffffffffffffffffff168573ffffffffffffffffffffffffffffffffffffffff1603610c905760006040517f01a83514000000000000000000000000000000000000000000000000000000008152600401610c8791906121d8565b60405180910390fd5b610c9d858585858561112d565b5050505050565b600073ffffffffffffffffffffffffffffffffffffffff168473ffffffffffffffffffffffffffffffffffffffff1603610d165760006040517f57f447ce000000000000000000000000000000000000000000000000000000008152600401610d0d91906121d8565b60405180910390fd5b600080610d2385856111df565b91509150610d3560008784848761112d565b505050505050565b600060208202602084010151905092915050565b600060208202602084010151905092915050565b610d6d610ba4565b73ffffffffffffffffffffffffffffffffffffffff16610d8b610854565b73ffffffffffffffffffffffffffffffffffffffff1614610dea57610dae610ba4565b6040517f118cdaa7000000000000000000000000000000000000000000000000000000008152600401610de191906121d8565b60405180910390fd5b565b6000600360009054906101000a900473ffffffffffffffffffffffffffffffffffffffff16905081600360006101000a81548173ffffffffffffffffffffffffffffffffffffffff021916908373ffffffffffffffffffffffffffffffffffffffff1602179055508173ffffffffffffffffffffffffffffffffffffffff168173ffffffffffffffffffffffffffffffffffffffff167f8be0079c531659141344cd1fd0a4f28419497f9722a3daafe3b4186f6b6457e060405160405180910390a35050565b600073ffffffffffffffffffffffffffffffffffffffff168273ffffffffffffffffffffffffffffffffffffffff1603610f245760006040517fced3e100000000000000000000000000000000000000000000000000000000008152600401610f1b91906121d8565b60405180910390fd5b80600160008573ffffffffffffffffffffffffffffffffffffffff1673ffffffffffffffffffffffffffffffffffffffff16815260200190815260200160002060008473ffffffffffffffffffffffffffffffffffffffff1673ffffffffffffffffffffffffffffffffffffffff16815260200190815260200160002060006101000a81548160ff0219169083151502179055508173ffffffffffffffffffffffffffffffffffffffff168373ffffffffffffffffffffffffffffffffffffffff167f17307eab39ab6107e8899845ad3d59bd9653f200f220920489ca2b5937696c31836040516110159190611aeb565b60405180910390a3505050565b600073ffffffffffffffffffffffffffffffffffffffff168473ffffffffffffffffffffffffffffffffffffffff16036110945760006040517f57f447ce00000000000000000000000000000000000000000000000000000000815260040161108b91906121d8565b60405180910390fd5b600073ffffffffffffffffffffffffffffffffffffffff168573ffffffffffffffffffffffffffffffffffffffff16036111065760006040517f01a835140000000000000000000000000000000000000000000000000000000081526004016110fd91906121d8565b60405180910390fd5b60008061111385856111df565b91509150611124878784848761112d565b50505050505050565b6111398585858561120f565b600073ffffffffffffffffffffffffffffffffffffffff168473ffffffffffffffffffffffffffffffffffffffff16146111d8576000611177610ba4565b905060018451036111c7576000611198600086610d5190919063ffffffff16565b905060006111b0600086610d5190919063ffffffff16565b90506111c08389898585896115b7565b50506111d6565b6111d581878787878761176b565b5b505b5050505050565b60608060405191506001825283602083015260408201905060018152826020820152604081016040529250929050565b805182511461125957815181516040517f5b0599910000000000000000000000000000000000000000000000000000000081526004016112509291906128c2565b60405180910390fd5b6000611263610ba4565b905060005b83518110156114725760006112868286610d5190919063ffffffff16565b9050600061129d8386610d5190919063ffffffff16565b9050600073ffffffffffffffffffffffffffffffffffffffff168873ffffffffffffffffffffffffffffffffffffffff16146113ca57600080600084815260200190815260200160002060008a73ffffffffffffffffffffffffffffffffffffffff1673ffffffffffffffffffffffffffffffffffffffff1681526020019081526020016000205490508181101561137257888183856040517f03dee4c5000000000000000000000000000000000000000000000000000000008152600401611369949392919061291a565b60405180910390fd5b81810360008085815260200190815260200160002060008b73ffffffffffffffffffffffffffffffffffffffff1673ffffffffffffffffffffffffffffffffffffffff16815260200190815260200160002081905550505b600073ffffffffffffffffffffffffffffffffffffffff168773ffffffffffffffffffffffffffffffffffffffff1614611465578060008084815260200190815260200160002060008973ffffffffffffffffffffffffffffffffffffffff1673ffffffffffffffffffffffffffffffffffffffff168152602001908152602001600020600082825461145d919061298e565b925050819055505b5050806001019050611268565b506001835103611531576000611492600085610d5190919063ffffffff16565b905060006114aa600085610d5190919063ffffffff16565b90508573ffffffffffffffffffffffffffffffffffffffff168773ffffffffffffffffffffffffffffffffffffffff168473ffffffffffffffffffffffffffffffffffffffff167fc3d58168c5ae7397731d063d5bbf3d657854427343f4c083240f7aacaa2d0f6285856040516115229291906128c2565b60405180910390a450506115b0565b8373ffffffffffffffffffffffffffffffffffffffff168573ffffffffffffffffffffffffffffffffffffffff168273ffffffffffffffffffffffffffffffffffffffff167f4a39dc06d4c0dbc64b70af90fd698a233a518aa5d07e595d983b8c0526c8f7fb86866040516115a79291906129c2565b60405180910390a45b5050505050565b60008473ffffffffffffffffffffffffffffffffffffffff163b1115611763578373ffffffffffffffffffffffffffffffffffffffff1663f23a6e6187878686866040518663ffffffff1660e01b8152600401611618959493929190612a4e565b6020604051808303816000875af192505050801561165457506040513d601f19601f820116820180604052508101906116519190612abd565b60015b6116d8573d8060008114611684576040519150601f19603f3d011682016040523d82523d6000602084013e611689565b606091505b5060008151036116d057846040517f57f447ce0000000000000000000000000000000000000000000000000000000081526004016116c791906121d8565b60405180910390fd5b805181602001fd5b63f23a6e6160e01b7bffffffffffffffffffffffffffffffffffffffffffffffffffffffff1916817bffffffffffffffffffffffffffffffffffffffffffffffffffffffff19161461176157846040517f57f447ce00000000000000000000000000000000000000000000000000000000815260040161175891906121d8565b60405180910390fd5b505b505050505050565b60008473ffffffffffffffffffffffffffffffffffffffff163b1115611917578373ffffffffffffffffffffffffffffffffffffffff1663bc197c8187878686866040518663ffffffff1660e01b81526004016117cc959493929190612aea565b6020604051808303816000875af192505050801561180857506040513d601f19601f820116820180604052508101906118059190612abd565b60015b61188c573d8060008114611838576040519150601f19603f3d011682016040523d82523d6000602084013e61183d565b606091505b50600081510361188457846040517f57f447ce00000000000000000000000000000000000000000000000000000000815260040161187b91906121d8565b60405180910390fd5b805181602001fd5b63bc197c8160e01b7bffffffffffffffffffffffffffffffffffffffffffffffffffffffff1916817bffffffffffffffffffffffffffffffffffffffffffffffffffffffff19161461191557846040517f57f447ce00000000000000000000000000000000000000000000000000000000815260040161190c91906121d8565b60405180910390fd5b505b505050505050565b604051806040016040528060008152602001606081525090565b6000604051905090565b600080fd5b600080fd5b600073ffffffffffffffffffffffffffffffffffffffff82169050919050565b60006119788261194d565b9050919050565b6119888161196d565b811461199357600080fd5b50565b6000813590506119a58161197f565b92915050565b6000819050919050565b6119be816119ab565b81146119c957600080fd5b50565b6000813590506119db816119b5565b92915050565b600080604083850312156119f8576119f7611943565b5b6000611a0685828601611996565b9250506020611a17858286016119cc565b9150509250929050565b611a2a816119ab565b82525050565b6000602082019050611a456000830184611a21565b92915050565b60007fffffffff0000000000000000000000000000000000000000000000000000000082169050919050565b611a8081611a4b565b8114611a8b57600080fd5b50565b600081359050611a9d81611a77565b92915050565b600060208284031215611ab957611ab8611943565b5b6000611ac784828501611a8e565b91505092915050565b60008115159050919050565b611ae581611ad0565b82525050565b6000602082019050611b006000830184611adc565b92915050565b600060208284031215611b1c57611b1b611943565b5b6000611b2a848285016119cc565b91505092915050565b600081519050919050565b600082825260208201905092915050565b60005b83811015611b6d578082015181840152602081019050611b52565b60008484015250505050565b6000601f19601f8301169050919050565b6000611b9582611b33565b611b9f8185611b3e565b9350611baf818560208601611b4f565b611bb881611b79565b840191505092915050565b60006020820190508181036000830152611bdd8184611b8a565b905092915050565b600080fd5b7f4e487b7100000000000000000000000000000000000000000000000000000000600052604160045260246000fd5b611c2282611b79565b810181811067ffffffffffffffff82111715611c4157611c40611bea565b5b80604052505050565b6000611c54611939565b9050611c608282611c19565b919050565b600067ffffffffffffffff821115611c8057611c7f611bea565b5b602082029050602081019050919050565b600080fd5b6000611ca9611ca484611c65565b611c4a565b90508083825260208201905060208402830185811115611ccc57611ccb611c91565b5b835b81811015611cf55780611ce188826119cc565b845260208401935050602081019050611cce565b5050509392505050565b600082601f830112611d1457611d13611be5565b5b8135611d24848260208601611c96565b91505092915050565b600080fd5b600067ffffffffffffffff821115611d4d57611d4c611bea565b5b611d5682611b79565b9050602081019050919050565b82818337600083830152505050565b6000611d85611d8084611d32565b611c4a565b905082815260208101848484011115611da157611da0611d2d565b5b611dac848285611d63565b509392505050565b600082601f830112611dc957611dc8611be5565b5b8135611dd9848260208601611d72565b91505092915050565b600080600080600060a08688031215611dfe57611dfd611943565b5b6000611e0c88828901611996565b9550506020611e1d88828901611996565b945050604086013567ffffffffffffffff811115611e3e57611e3d611948565b5b611e4a88828901611cff565b935050606086013567ffffffffffffffff811115611e6b57611e6a611948565b5b611e7788828901611cff565b925050608086013567ffffffffffffffff811115611e9857611e97611948565b5b611ea488828901611db4565b9150509295509295909350565b600067ffffffffffffffff821115611ecc57611ecb611bea565b5b611ed582611b79565b9050602081019050919050565b6000611ef5611ef084611eb1565b611c4a565b905082815260208101848484011115611f1157611f10611d2d565b5b611f1c848285611d63565b509392505050565b600082601f830112611f3957611f38611be5565b5b8135611f49848260208601611ee2565b91505092915050565b60008060408385031215611f6957611f68611943565b5b600083013567ffffffffffffffff811115611f8757611f86611948565b5b611f9385828601611f24565b9250506020611fa4858286016119cc565b9150509250929050565b600067ffffffffffffffff821115611fc957611fc8611bea565b5b602082029050602081019050919050565b6000611fed611fe884611fae565b611c4a565b905080838252602082019050602084028301858111156120105761200f611c91565b5b835b8181101561203957806120258882611996565b845260208401935050602081019050612012565b5050509392505050565b600082601f83011261205857612057611be5565b5b8135612068848260208601611fda565b91505092915050565b6000806040838503121561208857612087611943565b5b600083013567ffffffffffffffff8111156120a6576120a5611948565b5b6120b285828601612043565b925050602083013567ffffffffffffffff8111156120d3576120d2611948565b5b6120df85828601611cff565b9150509250929050565b600081519050919050565b600082825260208201905092915050565b6000819050602082019050919050565b61211e816119ab565b82525050565b60006121308383612115565b60208301905092915050565b6000602082019050919050565b6000612154826120e9565b61215e81856120f4565b935061216983612105565b8060005b8381101561219a5781516121818882612124565b975061218c8361213c565b92505060018101905061216d565b5085935050505092915050565b600060208201905081810360008301526121c18184612149565b905092915050565b6121d28161196d565b82525050565b60006020820190506121ed60008301846121c9565b92915050565b600082825260208201905092915050565b600061220f82611b33565b61221981856121f3565b9350612229818560208601611b4f565b61223281611b79565b840191505092915050565b60006040830160008301516122556000860182612115565b506020830151848203602086015261226d8282612204565b9150508091505092915050565b60006020820190508181036000830152612294818461223d565b905092915050565b6122a581611ad0565b81146122b057600080fd5b50565b6000813590506122c28161229c565b92915050565b600080604083850312156122df576122de611943565b5b60006122ed85828601611996565b92505060206122fe858286016122b3565b9150509250929050565b60006020828403121561231e5761231d611943565b5b600082013567ffffffffffffffff81111561233c5761233b611948565b5b61234884828501611f24565b91505092915050565b6000806040838503121561236857612367611943565b5b600061237685828601611996565b925050602061238785828601611996565b9150509250929050565b600080600080600060a086880312156123ad576123ac611943565b5b60006123bb88828901611996565b95505060206123cc88828901611996565b94505060406123dd888289016119cc565b93505060606123ee888289016119cc565b925050608086013567ffffffffffffffff81111561240f5761240e611948565b5b61241b88828901611db4565b9150509295509295909350565b60006020828403121561243e5761243d611943565b5b600061244c84828501611996565b91505092915050565b7f4e487b7100000000000000000000000000000000000000000000000000000000600052602260045260246000fd5b6000600282049050600182168061249c57607f821691505b6020821081036124af576124ae612455565b5b50919050565b600081905092915050565b60008190508160005260206000209050919050565b600081546124e281612484565b6124ec81866124b5565b94506001821660008114612507576001811461251c5761254f565b60ff198316865281151582028601935061254f565b612525856124c0565b60005b8381101561254757815481890152600182019150602081019050612528565b838801955050505b50505092915050565b600061256482856124d5565b915061257082846124d5565b91508190509392505050565b600060408201905061259160008301856121c9565b61259e60208301846121c9565b9392505050565b60006125b082611b33565b6125ba81856124b5565b93506125ca818560208601611b4f565b80840191505092915050565b60006125e282846125a5565b915081905092915050565b7f54686520746f6b656e205552492073686f756c6420626520756e697175650000600082015250565b6000612623601e83611b3e565b915061262e826125ed565b602082019050919050565b6000602082019050818103600083015261265281612616565b9050919050565b60006020601f8301049050919050565b600082821b905092915050565b6000600883026126a67fffffffffffffffffffffffffffffffffffffffffffffffffffffffffffffffff82612669565b6126b08683612669565b95508019841693508086168417925050509392505050565b6000819050919050565b60006126ed6126e86126e3846119ab565b6126c8565b6119ab565b9050919050565b6000819050919050565b612707836126d2565b61271b612713826126f4565b848454612676565b825550505050565b600090565b612730612723565b61273b8184846126fe565b505050565b5b8181101561275f57612754600082612728565b600181019050612741565b5050565b601f8211156127a457612775816124c0565b61277e84612659565b8101602085101561278d578190505b6127a161279985612659565b830182612740565b50505b505050565b600082821c905092915050565b60006127c7600019846008026127a9565b1980831691505092915050565b60006127e083836127b6565b9150826002028217905092915050565b6127f982611b33565b67ffffffffffffffff81111561281257612811611bea565b5b61281c8254612484565b612827828285612763565b600060209050601f83116001811461285a5760008415612848578287015190505b61285285826127d4565b8655506128ba565b601f198416612868866124c0565b60005b828110156128905784890151825560018201915060208501945060208101905061286b565b868310156128ad57848901516128a9601f8916826127b6565b8355505b6001600288020188555050505b505050505050565b60006040820190506128d76000830185611a21565b6128e46020830184611a21565b9392505050565b7f4e487b7100000000000000000000000000000000000000000000000000000000600052603260045260246000fd5b600060808201905061292f60008301876121c9565b61293c6020830186611a21565b6129496040830185611a21565b6129566060830184611a21565b95945050505050565b7f4e487b7100000000000000000000000000000000000000000000000000000000600052601160045260246000fd5b6000612999826119ab565b91506129a4836119ab565b92508282019050808211156129bc576129bb61295f565b5b92915050565b600060408201905081810360008301526129dc8185612149565b905081810360208301526129f08184612149565b90509392505050565b600081519050919050565b600082825260208201905092915050565b6000612a20826129f9565b612a2a8185612a04565b9350612a3a818560208601611b4f565b612a4381611b79565b840191505092915050565b600060a082019050612a6360008301886121c9565b612a7060208301876121c9565b612a7d6040830186611a21565b612a8a6060830185611a21565b8181036080830152612a9c8184612a15565b90509695505050505050565b600081519050612ab781611a77565b92915050565b600060208284031215612ad357612ad2611943565b5b6000612ae184828501612aa8565b91505092915050565b600060a082019050612aff60008301886121c9565b612b0c60208301876121c9565b8181036040830152612b1e8186612149565b90508181036060830152612b328185612149565b90508181036080830152612b468184612a15565b9050969550505050505056fea26469706673582212204baaa54fd64ba1567f08f14fdcc1c362e14143cfc3f5f22d2e0dca84c931400764736f6c63430008180033",
  "linkReferences": {},
  "deployedLinkReferences": {}
}