{
  "_format": "hh-sol-artifact-1",
  "contractName": "MusicTuneVibe",
  "sourceName": "contracts/MusicTuneVibe.sol",
  "abi": [
    {
      "inputs": [
        {
          "internalType": "string",
          "name": "_ipfs",
          "type": "string"
        },
        {
          "internalType": "address payable",
          "name": "owner",
          "type": "address"
        }
      ],
      "stateMutability": "nonpayable",
      "type": "constructor"
    },
    {
      "inputs": [
        {
          "internalType": "address",
          "name": "sender",
          "type": "address"
        },
        {
          "internalType": "uint256",
          "name": "balance",
          "type": "uint256"
        },
        {
          "internalType": "uint256",
          "name": "needed",
          "type": "uint256"
        },
        {
          "internalType": "uint256",
          "name": "tokenId",
          "type": "uint256"
        }
      ],
      "name": "ERC1155InsufficientBalance",
      "type": "error"
    },
    {
      "inputs": [
        {
          "internalType": "address",
          "name": "approver",
          "type": "address"
        }
      ],
      "name": "ERC1155InvalidApprover",
      "type": "error"
    },
    {
      "inputs": [
        {
          "internalType": "uint256",
          "name": "idsLength",
          "type": "uint256"
        },
        {
          "internalType": "uint256",
          "name": "valuesLength",
          "type": "uint256"
        }
      ],
      "name": "ERC1155InvalidArrayLength",
      "type": "error"
    },
    {
      "inputs": [
        {
          "internalType": "address",
          "name": "operator",
          "type": "address"
        }
      ],
      "name": "ERC1155InvalidOperator",
      "type": "error"
    },
    {
      "inputs": [
        {
          "internalType": "address",
          "name": "receiver",
          "type": "address"
        }
      ],
      "name": "ERC1155InvalidReceiver",
      "type": "error"
    },
    {
      "inputs": [
        {
          "internalType": "address",
          "name": "sender",
          "type": "address"
        }
      ],
      "name": "ERC1155InvalidSender",
      "type": "error"
    },
    {
      "inputs": [
        {
          "internalType": "address",
          "name": "operator",
          "type": "address"
        },
        {
          "internalType": "address",
          "name": "owner",
          "type": "address"
        }
      ],
      "name": "ERC1155MissingApprovalForAll",
      "type": "error"
    },
    {
      "inputs": [
        {
          "internalType": "address",
          "name": "owner",
          "type": "address"
        }
      ],
      "name": "OwnableInvalidOwner",
      "type": "error"
    },
    {
      "inputs": [
        {
          "internalType": "address",
          "name": "account",
          "type": "address"
        }
      ],
      "name": "OwnableUnauthorizedAccount",
      "type": "error"
    },
    {
      "anonymous": false,
      "inputs": [
        {
          "indexed": true,
          "internalType": "address",
          "name": "account",
          "type": "address"
        },
        {
          "indexed": true,
          "internalType": "address",
          "name": "operator",
          "type": "address"
        },
        {
          "indexed": false,
          "internalType": "bool",
          "name": "approved",
          "type": "bool"
        }
      ],
      "name": "ApprovalForAll",
      "type": "event"
    },
    {
      "anonymous": false,
      "inputs": [
        {
          "indexed": true,
          "internalType": "address",
          "name": "previousOwner",
          "type": "address"
        },
        {
          "indexed": true,
          "internalType": "address",
          "name": "newOwner",
          "type": "address"
        }
      ],
      "name": "OwnershipTransferred",
      "type": "event"
    },
    {
      "anonymous": false,
      "inputs": [
        {
          "indexed": true,
          "internalType": "address",
          "name": "operator",
          "type": "address"
        },
        {
          "indexed": true,
          "internalType": "address",
          "name": "from",
          "type": "address"
        },
        {
          "indexed": true,
          "internalType": "address",
          "name": "to",
          "type": "address"
        },
        {
          "indexed": false,
          "internalType": "uint256[]",
          "name": "ids",
          "type": "uint256[]"
        },
        {
          "indexed": false,
          "internalType": "uint256[]",
          "name": "values",
          "type": "uint256[]"
        }
      ],
      "name": "TransferBatch",
      "type": "event"
    },
    {
      "anonymous": false,
      "inputs": [
        {
          "indexed": true,
          "internalType": "address",
          "name": "operator",
          "type": "address"
        },
        {
          "indexed": true,
          "internalType": "address",
          "name": "from",
          "type": "address"
        },
        {
          "indexed": true,
          "internalType": "address",
          "name": "to",
          "type": "address"
        },
        {
          "indexed": false,
          "internalType": "uint256",
          "name": "id",
          "type": "uint256"
        },
        {
          "indexed": false,
          "internalType": "uint256",
          "name": "value",
          "type": "uint256"
        }
      ],
      "name": "TransferSingle",
      "type": "event"
    },
    {
      "anonymous": false,
      "inputs": [
        {
          "indexed": false,
          "internalType": "string",
          "name": "value",
          "type": "string"
        },
        {
          "indexed": true,
          "internalType": "uint256",
          "name": "id",
          "type": "uint256"
        }
      ],
      "name": "URI",
      "type": "event"
    },
    {
      "inputs": [
        {
          "internalType": "address",
          "name": "account",
          "type": "address"
        },
        {
          "internalType": "uint256",
          "name": "id",
          "type": "uint256"
        }
      ],
      "name": "balanceOf",
      "outputs": [
        {
          "internalType": "uint256",
          "name": "",
          "type": "uint256"
        }
      ],
      "stateMutability": "view",
      "type": "function"
    },
    {
      "inputs": [
        {
          "internalType": "address[]",
          "name": "accounts",
          "type": "address[]"
        },
        {
          "internalType": "uint256[]",
          "name": "ids",
          "type": "uint256[]"
        }
      ],
      "name": "balanceOfBatch",
      "outputs": [
        {
          "internalType": "uint256[]",
          "name": "",
          "type": "uint256[]"
        }
      ],
      "stateMutability": "view",
      "type": "function"
    },
    {
      "inputs": [
        {
          "internalType": "address",
          "name": "account",
          "type": "address"
        },
        {
          "internalType": "address",
          "name": "operator",
          "type": "address"
        }
      ],
      "name": "isApprovedForAll",
      "outputs": [
        {
          "internalType": "bool",
          "name": "",
          "type": "bool"
        }
      ],
      "stateMutability": "view",
      "type": "function"
    },
    {
      "inputs": [
        {
          "internalType": "uint256",
          "name": "_tokenId",
          "type": "uint256"
        }
      ],
      "name": "music",
      "outputs": [
        {
          "components": [
            {
              "internalType": "uint256",
              "name": "tokenId",
              "type": "uint256"
            },
            {
              "internalType": "string",
              "name": "uri",
              "type": "string"
            }
          ],
          "internalType": "struct MusicTuneVibe.Music",
          "name": "",
          "type": "tuple"
        }
      ],
      "stateMutability": "view",
      "type": "function"
    },
    {
      "inputs": [],
      "name": "owner",
      "outputs": [
        {
          "internalType": "address",
          "name": "",
          "type": "address"
        }
      ],
      "stateMutability": "view",
      "type": "function"
    },
    {
      "inputs": [],
      "name": "renounceOwnership",
      "outputs": [],
      "stateMutability": "nonpayable",
      "type": "function"
    },
    {
      "inputs": [
        {
          "internalType": "address",
          "name": "from",
          "type": "address"
        },
        {
          "internalType": "address",
          "name": "to",
          "type": "address"
        },
        {
          "internalType": "uint256[]",
          "name": "ids",
          "type": "uint256[]"
        },
        {
          "internalType": "uint256[]",
          "name": "values",
          "type": "uint256[]"
        },
        {
          "internalType": "bytes",
          "name": "data",
          "type": "bytes"
        }
      ],
      "name": "safeBatchTransferFrom",
      "outputs": [],
      "stateMutability": "nonpayable",
      "type": "function"
    },
    {
      "inputs": [
        {
          "internalType": "string",
          "name": "_token",
          "type": "string"
        },
        {
          "internalType": "uint256",
          "name": "amount",
          "type": "uint256"
        }
      ],
      "name": "safeMint",
      "outputs": [
        {
          "internalType": "uint256",
          "name": "",
          "type": "uint256"
        }
      ],
      "stateMutability": "nonpayable",
      "type": "function"
    },
    {
      "inputs": [
        {
          "internalType": "address",
          "name": "from",
          "type": "address"
        },
        {
          "internalType": "address",
          "name": "to",
          "type": "address"
        },
        {
          "internalType": "uint256",
          "name": "id",
          "type": "uint256"
        },
        {
          "internalType": "uint256",
          "name": "value",
          "type": "uint256"
        },
        {
          "internalType": "bytes",
          "name": "data",
          "type": "bytes"
        }
      ],
      "name": "safeTransferFrom",
      "outputs": [],
      "stateMutability": "nonpayable",
      "type": "function"
    },
    {
      "inputs": [
        {
          "internalType": "address",
          "name": "operator",
          "type": "address"
        },
        {
          "internalType": "bool",
          "name": "approved",
          "type": "bool"
        }
      ],
      "name": "setApprovalForAll",
      "outputs": [],
      "stateMutability": "nonpayable",
      "type": "function"
    },
    {
      "inputs": [
        {
          "internalType": "string",
          "name": "_uri",
          "type": "string"
        }
      ],
      "name": "setIPFS",
      "outputs": [],
      "stateMutability": "nonpayable",
      "type": "function"
    },
    {
      "inputs": [
        {
          "internalType": "bytes4",
          "name": "interfaceId",
          "type": "bytes4"
        }
      ],
      "name": "supportsInterface",
      "outputs": [
        {
          "internalType": "bool",
          "name": "",
          "type": "bool"
        }
      ],
      "stateMutability": "view",
      "type": "function"
    },
    {
      "inputs": [
        {
          "internalType": "string",
          "name": "_hash",
          "type": "string"
        }
      ],
      "name": "tokenByHash",
      "outputs": [
        {
          "components": [
            {
              "internalType": "uint256",
              "name": "tokenId",
              "type": "uint256"
            },
            {
              "internalType": "string",
              "name": "uri",
              "type": "string"
            }
          ],
          "internalType": "struct MusicTuneVibe.Music",
          "name": "",
          "type": "tuple"
        }
      ],
      "stateMutability": "view",
      "type": "function"
    },
    {
      "inputs": [
        {
          "internalType": "uint256",
          "name": "",
          "type": "uint256"
        }
      ],
      "name": "tokens",
      "outputs": [
        {
          "internalType": "string",
          "name": "",
          "type": "string"
        }
      ],
      "stateMutability": "view",
      "type": "function"
    },
    {
      "inputs": [
        {
          "internalType": "address",
          "name": "newOwner",
          "type": "address"
        }
      ],
      "name": "transferOwnership",
      "outputs": [],
      "stateMutability": "nonpayable",
      "type": "function"
    },
    {
      "inputs": [
        {
          "internalType": "uint256",
          "name": "tokenId",
          "type": "uint256"
        }
      ],
      "name": "uri",
      "outputs": [
        {
          "internalType": "string",
          "name": "",
          "type": "string"
        }
      ],
      "stateMutability": "view",
      "type": "function"
    }
  ],
  "bytecode": "0x60806040523480156200001157600080fd5b50604051620036953803806200369583398181016040528101906200003791906200040f565b806040518060200160405280600081525062000059816200013c60201b60201c565b50600073ffffffffffffffffffffffffffffffffffffffff168173ffffffffffffffffffffffffffffffffffffffff1603620000cf5760006040517f1e4fbdf7000000000000000000000000000000000000000000000000000000008152600401620000c691906200049a565b60405180910390fd5b620000e0816200015160201b60201c565b508160059081620000f2919062000702565b5033600660006101000a81548173ffffffffffffffffffffffffffffffffffffffff021916908373ffffffffffffffffffffffffffffffffffffffff1602179055505050620007e9565b80600290816200014d919062000702565b5050565b6000600360009054906101000a900473ffffffffffffffffffffffffffffffffffffffff16905081600360006101000a81548173ffffffffffffffffffffffffffffffffffffffff021916908373ffffffffffffffffffffffffffffffffffffffff1602179055508173ffffffffffffffffffffffffffffffffffffffff168173ffffffffffffffffffffffffffffffffffffffff167f8be0079c531659141344cd1fd0a4f28419497f9722a3daafe3b4186f6b6457e060405160405180910390a35050565b6000604051905090565b600080fd5b600080fd5b600080fd5b600080fd5b6000601f19601f8301169050919050565b7f4e487b7100000000000000000000000000000000000000000000000000000000600052604160045260246000fd5b620002808262000235565b810181811067ffffffffffffffff82111715620002a257620002a162000246565b5b80604052505050565b6000620002b762000217565b9050620002c5828262000275565b919050565b600067ffffffffffffffff821115620002e857620002e762000246565b5b620002f38262000235565b9050602081019050919050565b60005b838110156200032057808201518184015260208101905062000303565b60008484015250505050565b6000620003436200033d84620002ca565b620002ab565b90508281526020810184848401111562000362576200036162000230565b5b6200036f84828562000300565b509392505050565b600082601f8301126200038f576200038e6200022b565b5b8151620003a18482602086016200032c565b91505092915050565b600073ffffffffffffffffffffffffffffffffffffffff82169050919050565b6000620003d782620003aa565b9050919050565b620003e981620003ca565b8114620003f557600080fd5b50565b6000815190506200040981620003de565b92915050565b6000806040838503121562000429576200042862000221565b5b600083015167ffffffffffffffff8111156200044a576200044962000226565b5b620004588582860162000377565b92505060206200046b85828601620003f8565b9150509250929050565b60006200048282620003aa565b9050919050565b620004948162000475565b82525050565b6000602082019050620004b1600083018462000489565b92915050565b600081519050919050565b7f4e487b7100000000000000000000000000000000000000000000000000000000600052602260045260246000fd5b600060028204905060018216806200050a57607f821691505b60208210810362000520576200051f620004c2565b5b50919050565b60008190508160005260206000209050919050565b60006020601f8301049050919050565b600082821b905092915050565b6000600883026200058a7fffffffffffffffffffffffffffffffffffffffffffffffffffffffffffffffff826200054b565b6200059686836200054b565b95508019841693508086168417925050509392505050565b6000819050919050565b6000819050919050565b6000620005e3620005dd620005d784620005ae565b620005b8565b620005ae565b9050919050565b6000819050919050565b620005ff83620005c2565b620006176200060e82620005ea565b84845462000558565b825550505050565b600090565b6200062e6200061f565b6200063b818484620005f4565b505050565b5b8181101562000663576200065760008262000624565b60018101905062000641565b5050565b601f821115620006b2576200067c8162000526565b62000687846200053b565b8101602085101562000697578190505b620006af620006a6856200053b565b83018262000640565b50505b505050565b600082821c905092915050565b6000620006d760001984600802620006b7565b1980831691505092915050565b6000620006f28383620006c4565b9150826002028217905092915050565b6200070d82620004b7565b67ffffffffffffffff81111562000729576200072862000246565b5b620007358254620004f1565b6200074282828562000667565b600060209050601f8311600181146200077a576000841562000765578287015190505b620007718582620006e4565b865550620007e1565b601f1984166200078a8662000526565b60005b82811015620007b4578489015182556001820191506020850194506020810190506200078d565b86831015620007d45784890151620007d0601f891682620006c4565b8355505b6001600288020188555050505b505050505050565b612e9c80620007f96000396000f3fe608060405234801561001057600080fd5b50600436106100ff5760003560e01c80638da5cb5b11610097578063dac187c711610066578063dac187c7146102d0578063e985e9c514610300578063f242432a14610330578063f2fde38b1461034c576100ff565b80638da5cb5b1461024a5780639eb4766714610268578063a22cb46514610298578063d19ac77a146102b4576100ff565b806346b145e1116100d357806346b145e1146101b05780634e1273f4146101e05780634f64b2be14610210578063715018a614610240576100ff565b8062fdd58e1461010457806301ffc9a7146101345780630e89341c146101645780632eb2c2d614610194575b600080fd5b61011e60048036038101906101199190611c89565b610368565b60405161012b9190611cd8565b60405180910390f35b61014e60048036038101906101499190611d4b565b6103c2565b60405161015b9190611d93565b60405180910390f35b61017e60048036038101906101799190611dae565b6104a4565b60405161018b9190611e6b565b60405180910390f35b6101ae60048036038101906101a9919061208a565b6104e5565b005b6101ca60048036038101906101c591906121fa565b61058d565b6040516101d79190611cd8565b60405180910390f35b6101fa60048036038101906101f59190612319565b6106e1565b604051610207919061244f565b60405180910390f35b61022a60048036038101906102259190611dae565b6107ea565b6040516102379190611e6b565b60405180910390f35b610248610896565b005b6102526108aa565b60405161025f9190612480565b60405180910390f35b610282600480360381019061027d9190611dae565b6108d4565b60405161028f9190612522565b60405180910390f35b6102b260048036038101906102ad9190612570565b61099d565b005b6102ce60048036038101906102c991906125b0565b6109b3565b005b6102ea60048036038101906102e591906125b0565b6109ce565b6040516102f79190612522565b60405180910390f35b61031a600480360381019061031591906125f9565b610bf8565b6040516103279190611d93565b60405180910390f35b61034a60048036038101906103459190612639565b610c8c565b005b610366600480360381019061036191906126d0565b610d34565b005b600080600083815260200190815260200160002060008473ffffffffffffffffffffffffffffffffffffffff1673ffffffffffffffffffffffffffffffffffffffff16815260200190815260200160002054905092915050565b60007fd9b67a26000000000000000000000000000000000000000000000000000000007bffffffffffffffffffffffffffffffffffffffffffffffffffffffff1916827bffffffffffffffffffffffffffffffffffffffffffffffffffffffff1916148061048d57507f0e89341c000000000000000000000000000000000000000000000000000000007bffffffffffffffffffffffffffffffffffffffffffffffffffffffff1916827bffffffffffffffffffffffffffffffffffffffffffffffffffffffff1916145b8061049d575061049c82610dba565b5b9050919050565b60606005600860008481526020019081526020016000206001016040516020016104cf929190612800565b6040516020818303038152906040529050919050565b60006104ef610e24565b90508073ffffffffffffffffffffffffffffffffffffffff168673ffffffffffffffffffffffffffffffffffffffff161415801561053457506105328682610bf8565b155b156105785780866040517fe237d92200000000000000000000000000000000000000000000000000000000815260040161056f929190612824565b60405180910390fd5b6105858686868686610e2c565b505050505050565b600060078360405161059f919061287e565b908152602001604051809103902060009054906101000a900460ff16156105fb576040517f08c379a00000000000000000000000000000000000000000000000000000000081526004016105f2906128e1565b60405180910390fd5b60048390806001815401808255809150506001900390600052602060002001600090919091909150908161062f9190612a98565b506000600480549050905061065533828560405180602001604052806000815250610f24565b6040518060400160405280828152602001858152506008600083815260200190815260200160002060008201518160000155602082015181600101908161069c9190612a98565b5090505060016007856040516106b2919061287e565b908152602001604051809103902060006101000a81548160ff0219169083151502179055508091505092915050565b6060815183511461072d57815183516040517f5b059991000000000000000000000000000000000000000000000000000000008152600401610724929190612b6a565b60405180910390fd5b6000835167ffffffffffffffff81111561074a57610749611e92565b5b6040519080825280602002602001820160405280156107785781602001602082028036833780820191505090505b50905060005b84518110156107df576107b561079d8287610fbd90919063ffffffff16565b6107b08387610fd190919063ffffffff16565b610368565b8282815181106107c8576107c7612b93565b5b60200260200101818152505080600101905061077e565b508091505092915050565b600481815481106107fa57600080fd5b9060005260206000200160009150905080546108159061272c565b80601f01602080910402602001604051908101604052809291908181526020018280546108419061272c565b801561088e5780601f106108635761010080835404028352916020019161088e565b820191906000526020600020905b81548152906001019060200180831161087157829003601f168201915b505050505081565b61089e610fe5565b6108a8600061106c565b565b6000600360009054906101000a900473ffffffffffffffffffffffffffffffffffffffff16905090565b6108dc611bc7565b60086000838152602001908152602001600020604051806040016040529081600082015481526020016001820180546109149061272c565b80601f01602080910402602001604051908101604052809291908181526020018280546109409061272c565b801561098d5780601f106109625761010080835404028352916020019161098d565b820191906000526020600020905b81548152906001019060200180831161097057829003601f168201915b5050505050815250509050919050565b6109af6109a8610e24565b8383611132565b5050565b6109bb610fe5565b80600590816109ca9190612a98565b5050565b6109d6611bc7565b6007826040516109e6919061287e565b908152602001604051809103902060009054906101000a900460ff16610a41576040517f08c379a0000000000000000000000000000000000000000000000000000000008152600401610a3890612c0e565b60405180910390fd5b60005b600480549050811015610be557610b0560086000600184610a659190612c5d565b81526020019081526020016000206001018054610a819061272c565b80601f0160208091040260200160405190810160405280929190818152602001828054610aad9061272c565b8015610afa5780601f10610acf57610100808354040283529160200191610afa565b820191906000526020600020905b815481529060010190602001808311610add57829003601f168201915b5050505050846112a2565b15610bd85760086000600183610b1b9190612c5d565b815260200190815260200160002060405180604001604052908160008201548152602001600182018054610b4e9061272c565b80601f0160208091040260200160405190810160405280929190818152602001828054610b7a9061272c565b8015610bc75780601f10610b9c57610100808354040283529160200191610bc7565b820191906000526020600020905b815481529060010190602001808311610baa57829003601f168201915b505050505081525050915050610bf3565b8080600101915050610a44565b50610bee611bc7565b809150505b919050565b6000600160008473ffffffffffffffffffffffffffffffffffffffff1673ffffffffffffffffffffffffffffffffffffffff16815260200190815260200160002060008373ffffffffffffffffffffffffffffffffffffffff1673ffffffffffffffffffffffffffffffffffffffff16815260200190815260200160002060009054906101000a900460ff16905092915050565b6000610c96610e24565b90508073ffffffffffffffffffffffffffffffffffffffff168673ffffffffffffffffffffffffffffffffffffffff1614158015610cdb5750610cd98682610bf8565b155b15610d1f5780866040517fe237d922000000000000000000000000000000000000000000000000000000008152600401610d16929190612824565b60405180910390fd5b610d2c86868686866112ca565b505050505050565b610d3c610fe5565b600073ffffffffffffffffffffffffffffffffffffffff168173ffffffffffffffffffffffffffffffffffffffff1603610dae5760006040517f1e4fbdf7000000000000000000000000000000000000000000000000000000008152600401610da59190612480565b60405180910390fd5b610db78161106c565b50565b60007f01ffc9a7000000000000000000000000000000000000000000000000000000007bffffffffffffffffffffffffffffffffffffffffffffffffffffffff1916827bffffffffffffffffffffffffffffffffffffffffffffffffffffffff1916149050919050565b600033905090565b600073ffffffffffffffffffffffffffffffffffffffff168473ffffffffffffffffffffffffffffffffffffffff1603610e9e5760006040517f57f447ce000000000000000000000000000000000000000000000000000000008152600401610e959190612480565b60405180910390fd5b600073ffffffffffffffffffffffffffffffffffffffff168573ffffffffffffffffffffffffffffffffffffffff1603610f105760006040517f01a83514000000000000000000000000000000000000000000000000000000008152600401610f079190612480565b60405180910390fd5b610f1d85858585856113d5565b5050505050565b600073ffffffffffffffffffffffffffffffffffffffff168473ffffffffffffffffffffffffffffffffffffffff1603610f965760006040517f57f447ce000000000000000000000000000000000000000000000000000000008152600401610f8d9190612480565b60405180910390fd5b600080610fa38585611487565b91509150610fb56000878484876113d5565b505050505050565b600060208202602084010151905092915050565b600060208202602084010151905092915050565b610fed610e24565b73ffffffffffffffffffffffffffffffffffffffff1661100b6108aa565b73ffffffffffffffffffffffffffffffffffffffff161461106a5761102e610e24565b6040517f118cdaa70000000000000000000000000000000000000000000000000000000081526004016110619190612480565b60405180910390fd5b565b6000600360009054906101000a900473ffffffffffffffffffffffffffffffffffffffff16905081600360006101000a81548173ffffffffffffffffffffffffffffffffffffffff021916908373ffffffffffffffffffffffffffffffffffffffff1602179055508173ffffffffffffffffffffffffffffffffffffffff168173ffffffffffffffffffffffffffffffffffffffff167f8be0079c531659141344cd1fd0a4f28419497f9722a3daafe3b4186f6b6457e060405160405180910390a35050565b600073ffffffffffffffffffffffffffffffffffffffff168273ffffffffffffffffffffffffffffffffffffffff16036111a45760006040517fced3e10000000000000000000000000000000000000000000000000000000000815260040161119b9190612480565b60405180910390fd5b80600160008573ffffffffffffffffffffffffffffffffffffffff1673ffffffffffffffffffffffffffffffffffffffff16815260200190815260200160002060008473ffffffffffffffffffffffffffffffffffffffff1673ffffffffffffffffffffffffffffffffffffffff16815260200190815260200160002060006101000a81548160ff0219169083151502179055508173ffffffffffffffffffffffffffffffffffffffff168373ffffffffffffffffffffffffffffffffffffffff167f17307eab39ab6107e8899845ad3d59bd9653f200f220920489ca2b5937696c31836040516112959190611d93565b60405180910390a3505050565b6000815183511480156112c2575081805190602001208380519060200120145b905092915050565b600073ffffffffffffffffffffffffffffffffffffffff168473ffffffffffffffffffffffffffffffffffffffff160361133c5760006040517f57f447ce0000000000000000000000000000000000000000000000000000000081526004016113339190612480565b60405180910390fd5b600073ffffffffffffffffffffffffffffffffffffffff168573ffffffffffffffffffffffffffffffffffffffff16036113ae5760006040517f01a835140000000000000000000000000000000000000000000000000000000081526004016113a59190612480565b60405180910390fd5b6000806113bb8585611487565b915091506113cc87878484876113d5565b50505050505050565b6113e1858585856114b7565b600073ffffffffffffffffffffffffffffffffffffffff168473ffffffffffffffffffffffffffffffffffffffff161461148057600061141f610e24565b9050600184510361146f576000611440600086610fd190919063ffffffff16565b90506000611458600086610fd190919063ffffffff16565b905061146883898985858961185f565b505061147e565b61147d818787878787611a13565b5b505b5050505050565b60608060405191506001825283602083015260408201905060018152826020820152604081016040529250929050565b805182511461150157815181516040517f5b0599910000000000000000000000000000000000000000000000000000000081526004016114f8929190612b6a565b60405180910390fd5b600061150b610e24565b905060005b835181101561171a57600061152e8286610fd190919063ffffffff16565b905060006115458386610fd190919063ffffffff16565b9050600073ffffffffffffffffffffffffffffffffffffffff168873ffffffffffffffffffffffffffffffffffffffff161461167257600080600084815260200190815260200160002060008a73ffffffffffffffffffffffffffffffffffffffff1673ffffffffffffffffffffffffffffffffffffffff1681526020019081526020016000205490508181101561161a57888183856040517f03dee4c50000000000000000000000000000000000000000000000000000000081526004016116119493929190612c91565b60405180910390fd5b81810360008085815260200190815260200160002060008b73ffffffffffffffffffffffffffffffffffffffff1673ffffffffffffffffffffffffffffffffffffffff16815260200190815260200160002081905550505b600073ffffffffffffffffffffffffffffffffffffffff168773ffffffffffffffffffffffffffffffffffffffff161461170d578060008084815260200190815260200160002060008973ffffffffffffffffffffffffffffffffffffffff1673ffffffffffffffffffffffffffffffffffffffff16815260200190815260200160002060008282546117059190612c5d565b925050819055505b5050806001019050611510565b5060018351036117d957600061173a600085610fd190919063ffffffff16565b90506000611752600085610fd190919063ffffffff16565b90508573ffffffffffffffffffffffffffffffffffffffff168773ffffffffffffffffffffffffffffffffffffffff168473ffffffffffffffffffffffffffffffffffffffff167fc3d58168c5ae7397731d063d5bbf3d657854427343f4c083240f7aacaa2d0f6285856040516117ca929190612b6a565b60405180910390a45050611858565b8373ffffffffffffffffffffffffffffffffffffffff168573ffffffffffffffffffffffffffffffffffffffff168273ffffffffffffffffffffffffffffffffffffffff167f4a39dc06d4c0dbc64b70af90fd698a233a518aa5d07e595d983b8c0526c8f7fb868660405161184f929190612cd6565b60405180910390a45b5050505050565b60008473ffffffffffffffffffffffffffffffffffffffff163b1115611a0b578373ffffffffffffffffffffffffffffffffffffffff1663f23a6e6187878686866040518663ffffffff1660e01b81526004016118c0959493929190612d62565b6020604051808303816000875af19250505080156118fc57506040513d601f19601f820116820180604052508101906118f99190612dd1565b60015b611980573d806000811461192c576040519150601f19603f3d011682016040523d82523d6000602084013e611931565b606091505b50600081510361197857846040517f57f447ce00000000000000000000000000000000000000000000000000000000815260040161196f9190612480565b60405180910390fd5b805181602001fd5b63f23a6e6160e01b7bffffffffffffffffffffffffffffffffffffffffffffffffffffffff1916817bffffffffffffffffffffffffffffffffffffffffffffffffffffffff191614611a0957846040517f57f447ce000000000000000000000000000000000000000000000000000000008152600401611a009190612480565b60405180910390fd5b505b505050505050565b60008473ffffffffffffffffffffffffffffffffffffffff163b1115611bbf578373ffffffffffffffffffffffffffffffffffffffff1663bc197c8187878686866040518663ffffffff1660e01b8152600401611a74959493929190612dfe565b6020604051808303816000875af1925050508015611ab057506040513d601f19601f82011682018060405250810190611aad9190612dd1565b60015b611b34573d8060008114611ae0576040519150601f19603f3d011682016040523d82523d6000602084013e611ae5565b606091505b506000815103611b2c57846040517f57f447ce000000000000000000000000000000000000000000000000000000008152600401611b239190612480565b60405180910390fd5b805181602001fd5b63bc197c8160e01b7bffffffffffffffffffffffffffffffffffffffffffffffffffffffff1916817bffffffffffffffffffffffffffffffffffffffffffffffffffffffff191614611bbd57846040517f57f447ce000000000000000000000000000000000000000000000000000000008152600401611bb49190612480565b60405180910390fd5b505b505050505050565b604051806040016040528060008152602001606081525090565b6000604051905090565b600080fd5b600080fd5b600073ffffffffffffffffffffffffffffffffffffffff82169050919050565b6000611c2082611bf5565b9050919050565b611c3081611c15565b8114611c3b57600080fd5b50565b600081359050611c4d81611c27565b92915050565b6000819050919050565b611c6681611c53565b8114611c7157600080fd5b50565b600081359050611c8381611c5d565b92915050565b60008060408385031215611ca057611c9f611beb565b5b6000611cae85828601611c3e565b9250506020611cbf85828601611c74565b9150509250929050565b611cd281611c53565b82525050565b6000602082019050611ced6000830184611cc9565b92915050565b60007fffffffff0000000000000000000000000000000000000000000000000000000082169050919050565b611d2881611cf3565b8114611d3357600080fd5b50565b600081359050611d4581611d1f565b92915050565b600060208284031215611d6157611d60611beb565b5b6000611d6f84828501611d36565b91505092915050565b60008115159050919050565b611d8d81611d78565b82525050565b6000602082019050611da86000830184611d84565b92915050565b600060208284031215611dc457611dc3611beb565b5b6000611dd284828501611c74565b91505092915050565b600081519050919050565b600082825260208201905092915050565b60005b83811015611e15578082015181840152602081019050611dfa565b60008484015250505050565b6000601f19601f8301169050919050565b6000611e3d82611ddb565b611e478185611de6565b9350611e57818560208601611df7565b611e6081611e21565b840191505092915050565b60006020820190508181036000830152611e858184611e32565b905092915050565b600080fd5b7f4e487b7100000000000000000000000000000000000000000000000000000000600052604160045260246000fd5b611eca82611e21565b810181811067ffffffffffffffff82111715611ee957611ee8611e92565b5b80604052505050565b6000611efc611be1565b9050611f088282611ec1565b919050565b600067ffffffffffffffff821115611f2857611f27611e92565b5b602082029050602081019050919050565b600080fd5b6000611f51611f4c84611f0d565b611ef2565b90508083825260208201905060208402830185811115611f7457611f73611f39565b5b835b81811015611f9d5780611f898882611c74565b845260208401935050602081019050611f76565b5050509392505050565b600082601f830112611fbc57611fbb611e8d565b5b8135611fcc848260208601611f3e565b91505092915050565b600080fd5b600067ffffffffffffffff821115611ff557611ff4611e92565b5b611ffe82611e21565b9050602081019050919050565b82818337600083830152505050565b600061202d61202884611fda565b611ef2565b90508281526020810184848401111561204957612048611fd5565b5b61205484828561200b565b509392505050565b600082601f83011261207157612070611e8d565b5b813561208184826020860161201a565b91505092915050565b600080600080600060a086880312156120a6576120a5611beb565b5b60006120b488828901611c3e565b95505060206120c588828901611c3e565b945050604086013567ffffffffffffffff8111156120e6576120e5611bf0565b5b6120f288828901611fa7565b935050606086013567ffffffffffffffff81111561211357612112611bf0565b5b61211f88828901611fa7565b925050608086013567ffffffffffffffff8111156121405761213f611bf0565b5b61214c8882890161205c565b9150509295509295909350565b600067ffffffffffffffff82111561217457612173611e92565b5b61217d82611e21565b9050602081019050919050565b600061219d61219884612159565b611ef2565b9050828152602081018484840111156121b9576121b8611fd5565b5b6121c484828561200b565b509392505050565b600082601f8301126121e1576121e0611e8d565b5b81356121f184826020860161218a565b91505092915050565b6000806040838503121561221157612210611beb565b5b600083013567ffffffffffffffff81111561222f5761222e611bf0565b5b61223b858286016121cc565b925050602061224c85828601611c74565b9150509250929050565b600067ffffffffffffffff82111561227157612270611e92565b5b602082029050602081019050919050565b600061229561229084612256565b611ef2565b905080838252602082019050602084028301858111156122b8576122b7611f39565b5b835b818110156122e157806122cd8882611c3e565b8452602084019350506020810190506122ba565b5050509392505050565b600082601f830112612300576122ff611e8d565b5b8135612310848260208601612282565b91505092915050565b600080604083850312156123305761232f611beb565b5b600083013567ffffffffffffffff81111561234e5761234d611bf0565b5b61235a858286016122eb565b925050602083013567ffffffffffffffff81111561237b5761237a611bf0565b5b61238785828601611fa7565b9150509250929050565b600081519050919050565b600082825260208201905092915050565b6000819050602082019050919050565b6123c681611c53565b82525050565b60006123d883836123bd565b60208301905092915050565b6000602082019050919050565b60006123fc82612391565b612406818561239c565b9350612411836123ad565b8060005b8381101561244257815161242988826123cc565b9750612434836123e4565b925050600181019050612415565b5085935050505092915050565b6000602082019050818103600083015261246981846123f1565b905092915050565b61247a81611c15565b82525050565b60006020820190506124956000830184612471565b92915050565b600082825260208201905092915050565b60006124b782611ddb565b6124c1818561249b565b93506124d1818560208601611df7565b6124da81611e21565b840191505092915050565b60006040830160008301516124fd60008601826123bd565b506020830151848203602086015261251582826124ac565b9150508091505092915050565b6000602082019050818103600083015261253c81846124e5565b905092915050565b61254d81611d78565b811461255857600080fd5b50565b60008135905061256a81612544565b92915050565b6000806040838503121561258757612586611beb565b5b600061259585828601611c3e565b92505060206125a68582860161255b565b9150509250929050565b6000602082840312156125c6576125c5611beb565b5b600082013567ffffffffffffffff8111156125e4576125e3611bf0565b5b6125f0848285016121cc565b91505092915050565b600080604083850312156126105761260f611beb565b5b600061261e85828601611c3e565b925050602061262f85828601611c3e565b9150509250929050565b600080600080600060a0868803121561265557612654611beb565b5b600061266388828901611c3e565b955050602061267488828901611c3e565b945050604061268588828901611c74565b935050606061269688828901611c74565b925050608086013567ffffffffffffffff8111156126b7576126b6611bf0565b5b6126c38882890161205c565b9150509295509295909350565b6000602082840312156126e6576126e5611beb565b5b60006126f484828501611c3e565b91505092915050565b7f4e487b7100000000000000000000000000000000000000000000000000000000600052602260045260246000fd5b6000600282049050600182168061274457607f821691505b602082108103612757576127566126fd565b5b50919050565b600081905092915050565b60008190508160005260206000209050919050565b6000815461278a8161272c565b612794818661275d565b945060018216600081146127af57600181146127c4576127f7565b60ff19831686528115158202860193506127f7565b6127cd85612768565b60005b838110156127ef578154818901526001820191506020810190506127d0565b838801955050505b50505092915050565b600061280c828561277d565b9150612818828461277d565b91508190509392505050565b60006040820190506128396000830185612471565b6128466020830184612471565b9392505050565b600061285882611ddb565b612862818561275d565b9350612872818560208601611df7565b80840191505092915050565b600061288a828461284d565b915081905092915050565b7f54686520746f6b656e205552492073686f756c6420626520756e697175650000600082015250565b60006128cb601e83611de6565b91506128d682612895565b602082019050919050565b600060208201905081810360008301526128fa816128be565b9050919050565b60006020601f8301049050919050565b600082821b905092915050565b60006008830261294e7fffffffffffffffffffffffffffffffffffffffffffffffffffffffffffffffff82612911565b6129588683612911565b95508019841693508086168417925050509392505050565b6000819050919050565b600061299561299061298b84611c53565b612970565b611c53565b9050919050565b6000819050919050565b6129af8361297a565b6129c36129bb8261299c565b84845461291e565b825550505050565b600090565b6129d86129cb565b6129e38184846129a6565b505050565b5b81811015612a07576129fc6000826129d0565b6001810190506129e9565b5050565b601f821115612a4c57612a1d81612768565b612a2684612901565b81016020851015612a35578190505b612a49612a4185612901565b8301826129e8565b50505b505050565b600082821c905092915050565b6000612a6f60001984600802612a51565b1980831691505092915050565b6000612a888383612a5e565b9150826002028217905092915050565b612aa182611ddb565b67ffffffffffffffff811115612aba57612ab9611e92565b5b612ac4825461272c565b612acf828285612a0b565b600060209050601f831160018114612b025760008415612af0578287015190505b612afa8582612a7c565b865550612b62565b601f198416612b1086612768565b60005b82811015612b3857848901518255600182019150602085019450602081019050612b13565b86831015612b555784890151612b51601f891682612a5e565b8355505b6001600288020188555050505b505050505050565b6000604082019050612b7f6000830185611cc9565b612b8c6020830184611cc9565b9392505050565b7f4e487b7100000000000000000000000000000000000000000000000000000000600052603260045260246000fd5b7f54686520746f6b656e205552492073686f756c64206265206d696e7400000000600082015250565b6000612bf8601c83611de6565b9150612c0382612bc2565b602082019050919050565b60006020820190508181036000830152612c2781612beb565b9050919050565b7f4e487b7100000000000000000000000000000000000000000000000000000000600052601160045260246000fd5b6000612c6882611c53565b9150612c7383611c53565b9250828201905080821115612c8b57612c8a612c2e565b5b92915050565b6000608082019050612ca66000830187612471565b612cb36020830186611cc9565b612cc06040830185611cc9565b612ccd6060830184611cc9565b95945050505050565b60006040820190508181036000830152612cf081856123f1565b90508181036020830152612d0481846123f1565b90509392505050565b600081519050919050565b600082825260208201905092915050565b6000612d3482612d0d565b612d3e8185612d18565b9350612d4e818560208601611df7565b612d5781611e21565b840191505092915050565b600060a082019050612d776000830188612471565b612d846020830187612471565b612d916040830186611cc9565b612d9e6060830185611cc9565b8181036080830152612db08184612d29565b90509695505050505050565b600081519050612dcb81611d1f565b92915050565b600060208284031215612de757612de6611beb565b5b6000612df584828501612dbc565b91505092915050565b600060a082019050612e136000830188612471565b612e206020830187612471565b8181036040830152612e3281866123f1565b90508181036060830152612e4681856123f1565b90508181036080830152612e5a8184612d29565b9050969550505050505056fea2646970667358221220f14d5d8b1d36ff77f841e16ea445228e0b2b5028155bafec58b9b6dc8660520b64736f6c63430008180033",
  "linkReferences": {},
  "deployedLinkReferences": {}
}