{
  "_format": "hh-sol-artifact-1",
  "contractName": "TuneVibe",
  "sourceName": "contracts/TuneVibe.sol",
  "abi": [
    {
      "inputs": [
        {
          "internalType": "address",
          "name": "_nftContract",
          "type": "address"
        }
      ],
      "stateMutability": "nonpayable",
      "type": "constructor"
    },
    {
      "anonymous": false,
      "inputs": [
        {
          "indexed": true,
          "internalType": "uint256",
          "name": "tokenId",
          "type": "uint256"
        },
        {
          "indexed": false,
          "internalType": "uint256",
          "name": "amount",
          "type": "uint256"
        },
        {
          "indexed": false,
          "internalType": "uint256",
          "name": "price",
          "type": "uint256"
        }
      ],
      "name": "BuyMusicNFT",
      "type": "event"
    },
    {
      "anonymous": false,
      "inputs": [
        {
          "indexed": true,
          "internalType": "uint256",
          "name": "tokenId",
          "type": "uint256"
        },
        {
          "indexed": false,
          "internalType": "uint256",
          "name": "amount",
          "type": "uint256"
        },
        {
          "indexed": false,
          "internalType": "uint256",
          "name": "price",
          "type": "uint256"
        }
      ],
      "name": "MusicNFTCreated",
      "type": "event"
    },
    {
      "anonymous": false,
      "inputs": [
        {
          "indexed": false,
          "internalType": "uint256",
          "name": "amount",
          "type": "uint256"
        },
        {
          "indexed": false,
          "internalType": "uint256",
          "name": "when",
          "type": "uint256"
        }
      ],
      "name": "Withdrawal",
      "type": "event"
    },
    {
      "inputs": [
        {
          "internalType": "uint256",
          "name": "tokenId",
          "type": "uint256"
        }
      ],
      "name": "MusicByTokenID",
      "outputs": [
        {
          "components": [
            {
              "internalType": "uint256",
              "name": "tokenId",
              "type": "uint256"
            },
            {
              "internalType": "uint256",
              "name": "amount",
              "type": "uint256"
            },
            {
              "internalType": "uint256",
              "name": "price",
              "type": "uint256"
            },
            {
              "internalType": "address",
              "name": "artirt",
              "type": "address"
            }
          ],
          "internalType": "struct TuneVibe.MusicNFT",
          "name": "",
          "type": "tuple"
        }
      ],
      "stateMutability": "view",
      "type": "function"
    },
    {
      "inputs": [
        {
          "internalType": "uint256",
          "name": "tokenId",
          "type": "uint256"
        },
        {
          "internalType": "uint256",
          "name": "amount",
          "type": "uint256"
        }
      ],
      "name": "buyNFT",
      "outputs": [],
      "stateMutability": "payable",
      "type": "function"
    },
    {
      "inputs": [],
      "name": "getListingFee",
      "outputs": [
        {
          "internalType": "uint256",
          "name": "",
          "type": "uint256"
        }
      ],
      "stateMutability": "view",
      "type": "function"
    },
    {
      "inputs": [
        {
          "internalType": "address",
          "name": "",
          "type": "address"
        },
        {
          "internalType": "address",
          "name": "",
          "type": "address"
        },
        {
          "internalType": "uint256[]",
          "name": "",
          "type": "uint256[]"
        },
        {
          "internalType": "uint256[]",
          "name": "",
          "type": "uint256[]"
        },
        {
          "internalType": "bytes",
          "name": "",
          "type": "bytes"
        }
      ],
      "name": "onERC1155BatchReceived",
      "outputs": [
        {
          "internalType": "bytes4",
          "name": "",
          "type": "bytes4"
        }
      ],
      "stateMutability": "nonpayable",
      "type": "function"
    },
    {
      "inputs": [
        {
          "internalType": "address",
          "name": "",
          "type": "address"
        },
        {
          "internalType": "address",
          "name": "",
          "type": "address"
        },
        {
          "internalType": "uint256",
          "name": "",
          "type": "uint256"
        },
        {
          "internalType": "uint256",
          "name": "",
          "type": "uint256"
        },
        {
          "internalType": "bytes",
          "name": "",
          "type": "bytes"
        }
      ],
      "name": "onERC1155Received",
      "outputs": [
        {
          "internalType": "bytes4",
          "name": "",
          "type": "bytes4"
        }
      ],
      "stateMutability": "nonpayable",
      "type": "function"
    },
    {
      "inputs": [
        {
          "internalType": "uint256",
          "name": "_tokenId",
          "type": "uint256"
        },
        {
          "internalType": "uint256",
          "name": "_amount",
          "type": "uint256"
        }
      ],
      "name": "reSale",
      "outputs": [
        {
          "internalType": "uint256",
          "name": "",
          "type": "uint256"
        }
      ],
      "stateMutability": "payable",
      "type": "function"
    },
    {
      "inputs": [
        {
          "internalType": "bytes4",
          "name": "interfaceId",
          "type": "bytes4"
        }
      ],
      "name": "supportsInterface",
      "outputs": [
        {
          "internalType": "bool",
          "name": "",
          "type": "bool"
        }
      ],
      "stateMutability": "view",
      "type": "function"
    }
  ],
  "bytecode": "0x608060405260fa6000556611c37937e080006001553480156200002157600080fd5b506040516200137a3803806200137a8339818101604052810190620000479190620000f9565b80600260006101000a81548173ffffffffffffffffffffffffffffffffffffffff021916908373ffffffffffffffffffffffffffffffffffffffff160217905550506200012b565b600080fd5b600073ffffffffffffffffffffffffffffffffffffffff82169050919050565b6000620000c18262000094565b9050919050565b620000d381620000b4565b8114620000df57600080fd5b50565b600081519050620000f381620000c8565b92915050565b6000602082840312156200011257620001116200008f565b5b60006200012284828501620000e2565b91505092915050565b61123f806200013b6000396000f3fe6080604052600436106100705760003560e01c8063b8fe6abe1161004e578063b8fe6abe146100fe578063bc197c8114610129578063f23a6e6114610166578063f7eda807146101a357610070565b806301ffc9a7146100755780631d85bf03146100b257806380f0a63a146100ce575b600080fd5b34801561008157600080fd5b5061009c6004803603810190610097919061085f565b6101e0565b6040516100a991906108a7565b60405180910390f35b6100cc60048036038101906100c791906108f8565b61025a565b005b6100e860048036038101906100e391906108f8565b6105ac565b6040516100f59190610947565b60405180910390f35b34801561010a57600080fd5b50610113610677565b6040516101209190610947565b60405180910390f35b34801561013557600080fd5b50610150600480360381019061014b9190610bce565b610680565b60405161015d9190610cac565b60405180910390f35b34801561017257600080fd5b5061018d60048036038101906101889190610cc7565b610695565b60405161019a9190610cac565b60405180910390f35b3480156101af57600080fd5b506101ca60048036038101906101c59190610d5e565b6106aa565b6040516101d79190610dfe565b60405180910390f35b60007f4e2312e0000000000000000000000000000000000000000000000000000000007bffffffffffffffffffffffffffffffffffffffffffffffffffffffff1916827bffffffffffffffffffffffffffffffffffffffffffffffffffffffff1916148061025357506102528261074b565b5b9050919050565b600060046000848152602001908152602001600020600201549050600082826102839190610e48565b905082600460008681526020019081526020016000206001015410156102de576040517f08c379a00000000000000000000000000000000000000000000000000000000081526004016102d590610ee7565b60405180910390fd5b80341015610321576040517f08c379a000000000000000000000000000000000000000000000000000000000815260040161031890610f79565b60405180910390fd5b600260009054906101000a900473ffffffffffffffffffffffffffffffffffffffff1673ffffffffffffffffffffffffffffffffffffffff1663f242432a336004600088815260200190815260200160002060030160009054906101000a900473ffffffffffffffffffffffffffffffffffffffff166000856040518563ffffffff1660e01b81526004016103b99493929190611024565b600060405180830381600087803b1580156103d357600080fd5b505af11580156103e7573d6000803e3d6000fd5b50505050600260009054906101000a900473ffffffffffffffffffffffffffffffffffffffff1673ffffffffffffffffffffffffffffffffffffffff1663f242432a3330600080546040518563ffffffff1660e01b815260040161044e9493929190611024565b600060405180830381600087803b15801561046857600080fd5b505af115801561047c573d6000803e3d6000fd5b50505050826004600086815260200190815260200160002060010160008282546104a6919061107c565b92505081905550600260009054906101000a900473ffffffffffffffffffffffffffffffffffffffff1673ffffffffffffffffffffffffffffffffffffffff1663f242432a30336004600089815260200190815260200160002060000154600460008a8152602001908152602001600020600101546040518563ffffffff1660e01b815260040161053a94939291906110fc565b600060405180830381600087803b15801561055457600080fd5b505af1158015610568573d6000803e3d6000fd5b50505050837f73da24c1c5a65dd010b8a07187c8a579ce7225624d0efc87c73eb7beb8c8e6b8848460405161059e929190611154565b60405180910390a250505050565b6000600260009054906101000a900473ffffffffffffffffffffffffffffffffffffffff1673ffffffffffffffffffffffffffffffffffffffff1663f242432a333086866040518563ffffffff1660e01b815260040161060f949392919061117d565b600060405180830381600087803b15801561062957600080fd5b505af115801561063d573d6000803e3d6000fd5b505050508160046000858152602001908152602001600020600101600082825461066791906111d5565b9250508190555082905092915050565b60008054905090565b600063bc197c8160e01b905095945050505050565b600063f23a6e6160e01b905095945050505050565b6106b26107b5565b600460008381526020019081526020016000206040518060800160405290816000820154815260200160018201548152602001600282015481526020016003820160009054906101000a900473ffffffffffffffffffffffffffffffffffffffff1673ffffffffffffffffffffffffffffffffffffffff1673ffffffffffffffffffffffffffffffffffffffff16815250509050919050565b60007f01ffc9a7000000000000000000000000000000000000000000000000000000007bffffffffffffffffffffffffffffffffffffffffffffffffffffffff1916827bffffffffffffffffffffffffffffffffffffffffffffffffffffffff1916149050919050565b6040518060800160405280600081526020016000815260200160008152602001600073ffffffffffffffffffffffffffffffffffffffff1681525090565b6000604051905090565b600080fd5b600080fd5b60007fffffffff0000000000000000000000000000000000000000000000000000000082169050919050565b61083c81610807565b811461084757600080fd5b50565b60008135905061085981610833565b92915050565b600060208284031215610875576108746107fd565b5b60006108838482850161084a565b91505092915050565b60008115159050919050565b6108a18161088c565b82525050565b60006020820190506108bc6000830184610898565b92915050565b6000819050919050565b6108d5816108c2565b81146108e057600080fd5b50565b6000813590506108f2816108cc565b92915050565b6000806040838503121561090f5761090e6107fd565b5b600061091d858286016108e3565b925050602061092e858286016108e3565b9150509250929050565b610941816108c2565b82525050565b600060208201905061095c6000830184610938565b92915050565b600073ffffffffffffffffffffffffffffffffffffffff82169050919050565b600061098d82610962565b9050919050565b61099d81610982565b81146109a857600080fd5b50565b6000813590506109ba81610994565b92915050565b600080fd5b6000601f19601f8301169050919050565b7f4e487b7100000000000000000000000000000000000000000000000000000000600052604160045260246000fd5b610a0e826109c5565b810181811067ffffffffffffffff82111715610a2d57610a2c6109d6565b5b80604052505050565b6000610a406107f3565b9050610a4c8282610a05565b919050565b600067ffffffffffffffff821115610a6c57610a6b6109d6565b5b602082029050602081019050919050565b600080fd5b6000610a95610a9084610a51565b610a36565b90508083825260208201905060208402830185811115610ab857610ab7610a7d565b5b835b81811015610ae15780610acd88826108e3565b845260208401935050602081019050610aba565b5050509392505050565b600082601f830112610b0057610aff6109c0565b5b8135610b10848260208601610a82565b91505092915050565b600080fd5b600067ffffffffffffffff821115610b3957610b386109d6565b5b610b42826109c5565b9050602081019050919050565b82818337600083830152505050565b6000610b71610b6c84610b1e565b610a36565b905082815260208101848484011115610b8d57610b8c610b19565b5b610b98848285610b4f565b509392505050565b600082601f830112610bb557610bb46109c0565b5b8135610bc5848260208601610b5e565b91505092915050565b600080600080600060a08688031215610bea57610be96107fd565b5b6000610bf8888289016109ab565b9550506020610c09888289016109ab565b945050604086013567ffffffffffffffff811115610c2a57610c29610802565b5b610c3688828901610aeb565b935050606086013567ffffffffffffffff811115610c5757610c56610802565b5b610c6388828901610aeb565b925050608086013567ffffffffffffffff811115610c8457610c83610802565b5b610c9088828901610ba0565b9150509295509295909350565b610ca681610807565b82525050565b6000602082019050610cc16000830184610c9d565b92915050565b600080600080600060a08688031215610ce357610ce26107fd565b5b6000610cf1888289016109ab565b9550506020610d02888289016109ab565b9450506040610d13888289016108e3565b9350506060610d24888289016108e3565b925050608086013567ffffffffffffffff811115610d4557610d44610802565b5b610d5188828901610ba0565b9150509295509295909350565b600060208284031215610d7457610d736107fd565b5b6000610d82848285016108e3565b91505092915050565b610d94816108c2565b82525050565b610da381610982565b82525050565b608082016000820151610dbf6000850182610d8b565b506020820151610dd26020850182610d8b565b506040820151610de56040850182610d8b565b506060820151610df86060850182610d9a565b50505050565b6000608082019050610e136000830184610da9565b92915050565b7f4e487b7100000000000000000000000000000000000000000000000000000000600052601160045260246000fd5b6000610e53826108c2565b9150610e5e836108c2565b9250828202610e6c816108c2565b91508282048414831517610e8357610e82610e19565b5b5092915050565b600082825260208201905092915050565b7f6b6f206475206e66740000000000000000000000000000000000000000000000600082015250565b6000610ed1600983610e8a565b9150610edc82610e9b565b602082019050919050565b60006020820190508181036000830152610f0081610ec4565b9050919050565b7f4e6565647320746f2062652067726561746572206f7220657175616c20746f2060008201527f7468652070726963652e00000000000000000000000000000000000000000000602082015250565b6000610f63602a83610e8a565b9150610f6e82610f07565b604082019050919050565b60006020820190508181036000830152610f9281610f56565b9050919050565b610fa281610982565b82525050565b6000819050919050565b6000819050919050565b6000610fd7610fd2610fcd84610fa8565b610fb2565b6108c2565b9050919050565b610fe781610fbc565b82525050565b600082825260208201905092915050565b50565b600061100e600083610fed565b915061101982610ffe565b600082019050919050565b600060a0820190506110396000830187610f99565b6110466020830186610f99565b6110536040830185610fde565b6110606060830184610938565b818103608083015261107181611001565b905095945050505050565b6000611087826108c2565b9150611092836108c2565b92508282039050818111156110aa576110a9610e19565b5b92915050565b7f3078300000000000000000000000000000000000000000000000000000000000600082015250565b60006110e6600383610fed565b91506110f1826110b0565b602082019050919050565b600060a0820190506111116000830187610f99565b61111e6020830186610f99565b61112b6040830185610938565b6111386060830184610938565b8181036080830152611149816110d9565b905095945050505050565b60006040820190506111696000830185610938565b6111766020830184610938565b9392505050565b600060a0820190506111926000830187610f99565b61119f6020830186610f99565b6111ac6040830185610938565b6111b96060830184610938565b81810360808301526111ca81611001565b905095945050505050565b60006111e0826108c2565b91506111eb836108c2565b925082820190508082111561120357611202610e19565b5b9291505056fea2646970667358221220a58e7d49f561cad9f2b7811703d3647f9f787474612ef18bcffe1e5be713805464736f6c63430008180033",
  "linkReferences": {},
  "deployedLinkReferences": {}
}