{
  "_format": "hh-sol-artifact-1",
  "contractName": "TuneVibe",
  "sourceName": "contracts/TuneVibe.sol",
  "abi": [
    {
      "inputs": [
        {
          "internalType": "address",
          "name": "_nftContract",
          "type": "address"
        }
      ],
      "stateMutability": "nonpayable",
      "type": "constructor"
    },
    {
      "anonymous": false,
      "inputs": [
        {
          "indexed": true,
          "internalType": "uint256",
          "name": "tokenId",
          "type": "uint256"
        },
        {
          "indexed": false,
          "internalType": "uint256",
          "name": "amount",
          "type": "uint256"
        },
        {
          "indexed": false,
          "internalType": "uint256",
          "name": "price",
          "type": "uint256"
        }
      ],
      "name": "BuyMusicNFT",
      "type": "event"
    },
    {
      "anonymous": false,
      "inputs": [
        {
          "indexed": true,
          "internalType": "uint256",
          "name": "tokenId",
          "type": "uint256"
        },
        {
          "indexed": false,
          "internalType": "uint256",
          "name": "amount",
          "type": "uint256"
        },
        {
          "indexed": false,
          "internalType": "uint256",
          "name": "price",
          "type": "uint256"
        }
      ],
      "name": "MusicNFTCreated",
      "type": "event"
    },
    {
      "anonymous": false,
      "inputs": [
        {
          "indexed": false,
          "internalType": "uint256",
          "name": "amount",
          "type": "uint256"
        },
        {
          "indexed": false,
          "internalType": "uint256",
          "name": "when",
          "type": "uint256"
        }
      ],
      "name": "Withdrawal",
      "type": "event"
    },
    {
      "inputs": [
        {
          "internalType": "uint256",
          "name": "_tokenId",
          "type": "uint256"
        },
        {
          "internalType": "uint256",
          "name": "_price",
          "type": "uint256"
        },
        {
          "internalType": "uint256",
          "name": "_amount",
          "type": "uint256"
        }
      ],
      "name": "MakeMusicNFT",
      "outputs": [],
      "stateMutability": "payable",
      "type": "function"
    },
    {
      "inputs": [
        {
          "internalType": "uint256",
          "name": "tokenId",
          "type": "uint256"
        }
      ],
      "name": "MusicByTokenID",
      "outputs": [
        {
          "components": [
            {
              "internalType": "uint256",
              "name": "tokenId",
              "type": "uint256"
            },
            {
              "internalType": "uint256",
              "name": "amount",
              "type": "uint256"
            },
            {
              "internalType": "uint256",
              "name": "price",
              "type": "uint256"
            },
            {
              "internalType": "address",
              "name": "artirt",
              "type": "address"
            }
          ],
          "internalType": "struct TuneVibe.MusicNFT",
          "name": "",
          "type": "tuple"
        }
      ],
      "stateMutability": "view",
      "type": "function"
    },
    {
      "inputs": [
        {
          "internalType": "uint256",
          "name": "tokenId",
          "type": "uint256"
        },
        {
          "internalType": "uint256",
          "name": "amount",
          "type": "uint256"
        }
      ],
      "name": "buyNFT",
      "outputs": [],
      "stateMutability": "payable",
      "type": "function"
    },
    {
      "inputs": [],
      "name": "getListingFee",
      "outputs": [
        {
          "internalType": "uint256",
          "name": "",
          "type": "uint256"
        }
      ],
      "stateMutability": "view",
      "type": "function"
    },
    {
      "inputs": [
        {
          "internalType": "address",
          "name": "",
          "type": "address"
        },
        {
          "internalType": "address",
          "name": "",
          "type": "address"
        },
        {
          "internalType": "uint256[]",
          "name": "",
          "type": "uint256[]"
        },
        {
          "internalType": "uint256[]",
          "name": "",
          "type": "uint256[]"
        },
        {
          "internalType": "bytes",
          "name": "",
          "type": "bytes"
        }
      ],
      "name": "onERC1155BatchReceived",
      "outputs": [
        {
          "internalType": "bytes4",
          "name": "",
          "type": "bytes4"
        }
      ],
      "stateMutability": "nonpayable",
      "type": "function"
    },
    {
      "inputs": [
        {
          "internalType": "address",
          "name": "",
          "type": "address"
        },
        {
          "internalType": "address",
          "name": "",
          "type": "address"
        },
        {
          "internalType": "uint256",
          "name": "",
          "type": "uint256"
        },
        {
          "internalType": "uint256",
          "name": "",
          "type": "uint256"
        },
        {
          "internalType": "bytes",
          "name": "",
          "type": "bytes"
        }
      ],
      "name": "onERC1155Received",
      "outputs": [
        {
          "internalType": "bytes4",
          "name": "",
          "type": "bytes4"
        }
      ],
      "stateMutability": "nonpayable",
      "type": "function"
    },
    {
      "inputs": [
        {
          "internalType": "uint256",
          "name": "_tokenId",
          "type": "uint256"
        },
        {
          "internalType": "uint256",
          "name": "_amount",
          "type": "uint256"
        }
      ],
      "name": "reSale",
      "outputs": [
        {
          "internalType": "uint256",
          "name": "",
          "type": "uint256"
        }
      ],
      "stateMutability": "payable",
      "type": "function"
    },
    {
      "inputs": [
        {
          "internalType": "bytes4",
          "name": "interfaceId",
          "type": "bytes4"
        }
      ],
      "name": "supportsInterface",
      "outputs": [
        {
          "internalType": "bool",
          "name": "",
          "type": "bool"
        }
      ],
      "stateMutability": "view",
      "type": "function"
    }
  ],
  "bytecode": "0x6080604052600080553480156200001557600080fd5b50604051620017343803806200173483398181016040528101906200003b91906200012e565b33600260006101000a81548173ffffffffffffffffffffffffffffffffffffffff021916908373ffffffffffffffffffffffffffffffffffffffff16021790555080600160006101000a81548173ffffffffffffffffffffffffffffffffffffffff021916908373ffffffffffffffffffffffffffffffffffffffff1602179055505062000160565b600080fd5b600073ffffffffffffffffffffffffffffffffffffffff82169050919050565b6000620000f682620000c9565b9050919050565b6200010881620000e9565b81146200011457600080fd5b50565b6000815190506200012881620000fd565b92915050565b600060208284031215620001475762000146620000c4565b5b6000620001578482850162000117565b91505092915050565b6115c480620001706000396000f3fe60806040526004361061007b5760003560e01c8063b8fe6abe1161004e578063b8fe6abe14610125578063bc197c8114610150578063f23a6e611461018d578063f7eda807146101ca5761007b565b806301ffc9a7146100805780631d85bf03146100bd57806380f0a63a146100d9578063b372314c14610109575b600080fd5b34801561008c57600080fd5b506100a760048036038101906100a29190610a93565b610207565b6040516100b49190610adb565b60405180910390f35b6100d760048036038101906100d29190610b2c565b610281565b005b6100f360048036038101906100ee9190610b2c565b6105d3565b6040516101009190610b7b565b60405180910390f35b610123600480360381019061011e9190610b96565b61069e565b005b34801561013157600080fd5b5061013a6108ab565b6040516101479190610b7b565b60405180910390f35b34801561015c57600080fd5b5061017760048036038101906101729190610e55565b6108b4565b6040516101849190610f33565b60405180910390f35b34801561019957600080fd5b506101b460048036038101906101af9190610f4e565b6108c9565b6040516101c19190610f33565b60405180910390f35b3480156101d657600080fd5b506101f160048036038101906101ec9190610fe5565b6108de565b6040516101fe9190611085565b60405180910390f35b60007f4e2312e0000000000000000000000000000000000000000000000000000000007bffffffffffffffffffffffffffffffffffffffffffffffffffffffff1916827bffffffffffffffffffffffffffffffffffffffffffffffffffffffff1916148061027a57506102798261097f565b5b9050919050565b600060036000848152602001908152602001600020600201549050600082826102aa91906110cf565b90508260036000868152602001908152602001600020600101541015610305576040517f08c379a00000000000000000000000000000000000000000000000000000000081526004016102fc9061116e565b60405180910390fd5b80341015610348576040517f08c379a000000000000000000000000000000000000000000000000000000000815260040161033f90611200565b60405180910390fd5b600160009054906101000a900473ffffffffffffffffffffffffffffffffffffffff1673ffffffffffffffffffffffffffffffffffffffff1663f242432a336003600088815260200190815260200160002060030160009054906101000a900473ffffffffffffffffffffffffffffffffffffffff166000856040518563ffffffff1660e01b81526004016103e094939291906112ab565b600060405180830381600087803b1580156103fa57600080fd5b505af115801561040e573d6000803e3d6000fd5b50505050600160009054906101000a900473ffffffffffffffffffffffffffffffffffffffff1673ffffffffffffffffffffffffffffffffffffffff1663f242432a3330600080546040518563ffffffff1660e01b815260040161047594939291906112ab565b600060405180830381600087803b15801561048f57600080fd5b505af11580156104a3573d6000803e3d6000fd5b50505050826003600086815260200190815260200160002060010160008282546104cd9190611303565b92505081905550600160009054906101000a900473ffffffffffffffffffffffffffffffffffffffff1673ffffffffffffffffffffffffffffffffffffffff1663f242432a30336003600089815260200190815260200160002060000154600360008a8152602001908152602001600020600101546040518563ffffffff1660e01b81526004016105619493929190611383565b600060405180830381600087803b15801561057b57600080fd5b505af115801561058f573d6000803e3d6000fd5b50505050837f73da24c1c5a65dd010b8a07187c8a579ce7225624d0efc87c73eb7beb8c8e6b884846040516105c59291906113db565b60405180910390a250505050565b6000600160009054906101000a900473ffffffffffffffffffffffffffffffffffffffff1673ffffffffffffffffffffffffffffffffffffffff1663f242432a333086866040518563ffffffff1660e01b81526004016106369493929190611404565b600060405180830381600087803b15801561065057600080fd5b505af1158015610664573d6000803e3d6000fd5b505050508160036000858152602001908152602001600020600101600082825461068e919061145c565b9250508190555082905092915050565b60008210156106e2576040517f08c379a00000000000000000000000000000000000000000000000000000000081526004016106d9906114dc565b60405180910390fd5b6000543414610726576040517f08c379a000000000000000000000000000000000000000000000000000000000815260040161071d9061156e565b60405180910390fd5b60405180608001604052808481526020018281526020018381526020013373ffffffffffffffffffffffffffffffffffffffff168152506003600085815260200190815260200160002060008201518160000155602082015181600101556040820151816002015560608201518160030160006101000a81548173ffffffffffffffffffffffffffffffffffffffff021916908373ffffffffffffffffffffffffffffffffffffffff160217905550905050600160009054906101000a900473ffffffffffffffffffffffffffffffffffffffff1673ffffffffffffffffffffffffffffffffffffffff1663f242432a33600086856040518563ffffffff1660e01b815260040161083a9493929190611404565b600060405180830381600087803b15801561085457600080fd5b505af1158015610868573d6000803e3d6000fd5b50505050827f2a6bab326f22a6b457dbdd464eed15f598a2efd0029fd3fc02048b30eff74983828460405161089e9291906113db565b60405180910390a2505050565b60008054905090565b600063bc197c8160e01b905095945050505050565b600063f23a6e6160e01b905095945050505050565b6108e66109e9565b600360008381526020019081526020016000206040518060800160405290816000820154815260200160018201548152602001600282015481526020016003820160009054906101000a900473ffffffffffffffffffffffffffffffffffffffff1673ffffffffffffffffffffffffffffffffffffffff1673ffffffffffffffffffffffffffffffffffffffff16815250509050919050565b60007f01ffc9a7000000000000000000000000000000000000000000000000000000007bffffffffffffffffffffffffffffffffffffffffffffffffffffffff1916827bffffffffffffffffffffffffffffffffffffffffffffffffffffffff1916149050919050565b6040518060800160405280600081526020016000815260200160008152602001600073ffffffffffffffffffffffffffffffffffffffff1681525090565b6000604051905090565b600080fd5b600080fd5b60007fffffffff0000000000000000000000000000000000000000000000000000000082169050919050565b610a7081610a3b565b8114610a7b57600080fd5b50565b600081359050610a8d81610a67565b92915050565b600060208284031215610aa957610aa8610a31565b5b6000610ab784828501610a7e565b91505092915050565b60008115159050919050565b610ad581610ac0565b82525050565b6000602082019050610af06000830184610acc565b92915050565b6000819050919050565b610b0981610af6565b8114610b1457600080fd5b50565b600081359050610b2681610b00565b92915050565b60008060408385031215610b4357610b42610a31565b5b6000610b5185828601610b17565b9250506020610b6285828601610b17565b9150509250929050565b610b7581610af6565b82525050565b6000602082019050610b906000830184610b6c565b92915050565b600080600060608486031215610baf57610bae610a31565b5b6000610bbd86828701610b17565b9350506020610bce86828701610b17565b9250506040610bdf86828701610b17565b9150509250925092565b600073ffffffffffffffffffffffffffffffffffffffff82169050919050565b6000610c1482610be9565b9050919050565b610c2481610c09565b8114610c2f57600080fd5b50565b600081359050610c4181610c1b565b92915050565b600080fd5b6000601f19601f8301169050919050565b7f4e487b7100000000000000000000000000000000000000000000000000000000600052604160045260246000fd5b610c9582610c4c565b810181811067ffffffffffffffff82111715610cb457610cb3610c5d565b5b80604052505050565b6000610cc7610a27565b9050610cd38282610c8c565b919050565b600067ffffffffffffffff821115610cf357610cf2610c5d565b5b602082029050602081019050919050565b600080fd5b6000610d1c610d1784610cd8565b610cbd565b90508083825260208201905060208402830185811115610d3f57610d3e610d04565b5b835b81811015610d685780610d548882610b17565b845260208401935050602081019050610d41565b5050509392505050565b600082601f830112610d8757610d86610c47565b5b8135610d97848260208601610d09565b91505092915050565b600080fd5b600067ffffffffffffffff821115610dc057610dbf610c5d565b5b610dc982610c4c565b9050602081019050919050565b82818337600083830152505050565b6000610df8610df384610da5565b610cbd565b905082815260208101848484011115610e1457610e13610da0565b5b610e1f848285610dd6565b509392505050565b600082601f830112610e3c57610e3b610c47565b5b8135610e4c848260208601610de5565b91505092915050565b600080600080600060a08688031215610e7157610e70610a31565b5b6000610e7f88828901610c32565b9550506020610e9088828901610c32565b945050604086013567ffffffffffffffff811115610eb157610eb0610a36565b5b610ebd88828901610d72565b935050606086013567ffffffffffffffff811115610ede57610edd610a36565b5b610eea88828901610d72565b925050608086013567ffffffffffffffff811115610f0b57610f0a610a36565b5b610f1788828901610e27565b9150509295509295909350565b610f2d81610a3b565b82525050565b6000602082019050610f486000830184610f24565b92915050565b600080600080600060a08688031215610f6a57610f69610a31565b5b6000610f7888828901610c32565b9550506020610f8988828901610c32565b9450506040610f9a88828901610b17565b9350506060610fab88828901610b17565b925050608086013567ffffffffffffffff811115610fcc57610fcb610a36565b5b610fd888828901610e27565b9150509295509295909350565b600060208284031215610ffb57610ffa610a31565b5b600061100984828501610b17565b91505092915050565b61101b81610af6565b82525050565b61102a81610c09565b82525050565b6080820160008201516110466000850182611012565b5060208201516110596020850182611012565b50604082015161106c6040850182611012565b50606082015161107f6060850182611021565b50505050565b600060808201905061109a6000830184611030565b92915050565b7f4e487b7100000000000000000000000000000000000000000000000000000000600052601160045260246000fd5b60006110da82610af6565b91506110e583610af6565b92508282026110f381610af6565b9150828204841483151761110a576111096110a0565b5b5092915050565b600082825260208201905092915050565b7f6b6f206475206e66740000000000000000000000000000000000000000000000600082015250565b6000611158600983611111565b915061116382611122565b602082019050919050565b600060208201905081810360008301526111878161114b565b9050919050565b7f4e6565647320746f2062652067726561746572206f7220657175616c20746f2060008201527f7468652070726963652e00000000000000000000000000000000000000000000602082015250565b60006111ea602a83611111565b91506111f58261118e565b604082019050919050565b60006020820190508181036000830152611219816111dd565b9050919050565b61122981610c09565b82525050565b6000819050919050565b6000819050919050565b600061125e6112596112548461122f565b611239565b610af6565b9050919050565b61126e81611243565b82525050565b600082825260208201905092915050565b50565b6000611295600083611274565b91506112a082611285565b600082019050919050565b600060a0820190506112c06000830187611220565b6112cd6020830186611220565b6112da6040830185611265565b6112e76060830184610b6c565b81810360808301526112f881611288565b905095945050505050565b600061130e82610af6565b915061131983610af6565b9250828203905081811115611331576113306110a0565b5b92915050565b7f3078300000000000000000000000000000000000000000000000000000000000600082015250565b600061136d600383611274565b915061137882611337565b602082019050919050565b600060a0820190506113986000830187611220565b6113a56020830186611220565b6113b26040830185610b6c565b6113bf6060830184610b6c565b81810360808301526113d081611360565b905095945050505050565b60006040820190506113f06000830185610b6c565b6113fd6020830184610b6c565b9392505050565b600060a0820190506114196000830187611220565b6114266020830186611220565b6114336040830185610b6c565b6114406060830184610b6c565b818103608083015261145181611288565b905095945050505050565b600061146782610af6565b915061147283610af6565b925082820190508082111561148a576114896110a0565b5b92915050565b7f5072696365206d75737420626520706f73697469766500000000000000000000600082015250565b60006114c6601683611111565b91506114d182611490565b602082019050919050565b600060208201905081810360008301526114f5816114b9565b9050919050565b7f596f75722072656d61696e206d6f6e6579206d757374206265206174206c656160008201527f737420657175616c20746f20746865206c697374696e67206665650000000000602082015250565b6000611558603b83611111565b9150611563826114fc565b604082019050919050565b600060208201905081810360008301526115878161154b565b905091905056fea26469706673582212208f09892cde49ff6c55a61b4fe933b414899393ff0270eb878b0b31ac2ff8cf3964736f6c63430008180033",
  "linkReferences": {},
  "deployedLinkReferences": {}
}